{
  "contractName": "CryptoMfers",
  "abi": [
    {
      "inputs": [],
      "stateMutability": "nonpayable",
      "type": "constructor"
    },
    {
      "anonymous": false,
      "inputs": [
        {
          "indexed": true,
          "internalType": "address",
          "name": "owner",
          "type": "address"
        },
        {
          "indexed": true,
          "internalType": "address",
          "name": "approved",
          "type": "address"
        },
        {
          "indexed": true,
          "internalType": "uint256",
          "name": "tokenId",
          "type": "uint256"
        }
      ],
      "name": "Approval",
      "type": "event"
    },
    {
      "anonymous": false,
      "inputs": [
        {
          "indexed": true,
          "internalType": "address",
          "name": "owner",
          "type": "address"
        },
        {
          "indexed": true,
          "internalType": "address",
          "name": "operator",
          "type": "address"
        },
        {
          "indexed": false,
          "internalType": "bool",
          "name": "approved",
          "type": "bool"
        }
      ],
      "name": "ApprovalForAll",
      "type": "event"
    },
    {
      "anonymous": false,
      "inputs": [
        {
          "indexed": true,
          "internalType": "address",
          "name": "previousOwner",
          "type": "address"
        },
        {
          "indexed": true,
          "internalType": "address",
          "name": "newOwner",
          "type": "address"
        }
      ],
      "name": "OwnershipTransferred",
      "type": "event"
    },
    {
      "anonymous": false,
      "inputs": [
        {
          "indexed": true,
          "internalType": "address",
          "name": "from",
          "type": "address"
        },
        {
          "indexed": true,
          "internalType": "address",
          "name": "to",
          "type": "address"
        },
        {
          "indexed": true,
          "internalType": "uint256",
          "name": "tokenId",
          "type": "uint256"
        }
      ],
      "name": "Transfer",
      "type": "event"
    },
    {
      "inputs": [],
      "name": "_desc",
      "outputs": [
        {
          "internalType": "string",
          "name": "",
          "type": "string"
        }
      ],
      "stateMutability": "view",
      "type": "function"
    },
    {
      "inputs": [],
      "name": "_maxSupply",
      "outputs": [
        {
          "internalType": "uint256",
          "name": "",
          "type": "uint256"
        }
      ],
      "stateMutability": "view",
      "type": "function"
    },
    {
      "inputs": [],
      "name": "_mferURI",
      "outputs": [
        {
          "internalType": "string",
          "name": "",
          "type": "string"
        }
      ],
      "stateMutability": "view",
      "type": "function"
    },
    {
      "inputs": [],
      "name": "_paused",
      "outputs": [
        {
          "internalType": "bool",
          "name": "",
          "type": "bool"
        }
      ],
      "stateMutability": "view",
      "type": "function"
    },
    {
      "inputs": [],
      "name": "_price",
      "outputs": [
        {
          "internalType": "uint256",
          "name": "",
          "type": "uint256"
        }
      ],
      "stateMutability": "view",
      "type": "function"
    },
    {
      "inputs": [
        {
          "internalType": "address",
          "name": "to",
          "type": "address"
        },
        {
          "internalType": "uint256",
          "name": "tokenId",
          "type": "uint256"
        }
      ],
      "name": "approve",
      "outputs": [],
      "stateMutability": "nonpayable",
      "type": "function"
    },
    {
      "inputs": [
        {
          "internalType": "address",
          "name": "owner",
          "type": "address"
        }
      ],
      "name": "balanceOf",
      "outputs": [
        {
          "internalType": "uint256",
          "name": "",
          "type": "uint256"
        }
      ],
      "stateMutability": "view",
      "type": "function"
    },
    {
      "inputs": [
        {
          "internalType": "uint256",
          "name": "tokenId",
          "type": "uint256"
        }
      ],
      "name": "getApproved",
      "outputs": [
        {
          "internalType": "address",
          "name": "",
          "type": "address"
        }
      ],
      "stateMutability": "view",
      "type": "function"
    },
    {
      "inputs": [
        {
          "internalType": "address",
          "name": "owner",
          "type": "address"
        },
        {
          "internalType": "address",
          "name": "operator",
          "type": "address"
        }
      ],
      "name": "isApprovedForAll",
      "outputs": [
        {
          "internalType": "bool",
          "name": "",
          "type": "bool"
        }
      ],
      "stateMutability": "view",
      "type": "function"
    },
    {
      "inputs": [],
      "name": "name",
      "outputs": [
        {
          "internalType": "string",
          "name": "",
          "type": "string"
        }
      ],
      "stateMutability": "view",
      "type": "function"
    },
    {
      "inputs": [],
      "name": "owner",
      "outputs": [
        {
          "internalType": "address",
          "name": "",
          "type": "address"
        }
      ],
      "stateMutability": "view",
      "type": "function"
    },
    {
      "inputs": [
        {
          "internalType": "uint256",
          "name": "tokenId",
          "type": "uint256"
        }
      ],
      "name": "ownerOf",
      "outputs": [
        {
          "internalType": "address",
          "name": "",
          "type": "address"
        }
      ],
      "stateMutability": "view",
      "type": "function"
    },
    {
      "inputs": [],
      "name": "renounceOwnership",
      "outputs": [],
      "stateMutability": "nonpayable",
      "type": "function"
    },
    {
      "inputs": [
        {
          "internalType": "address",
          "name": "from",
          "type": "address"
        },
        {
          "internalType": "address",
          "name": "to",
          "type": "address"
        },
        {
          "internalType": "uint256",
          "name": "tokenId",
          "type": "uint256"
        }
      ],
      "name": "safeTransferFrom",
      "outputs": [],
      "stateMutability": "nonpayable",
      "type": "function"
    },
    {
      "inputs": [
        {
          "internalType": "address",
          "name": "from",
          "type": "address"
        },
        {
          "internalType": "address",
          "name": "to",
          "type": "address"
        },
        {
          "internalType": "uint256",
          "name": "tokenId",
          "type": "uint256"
        },
        {
          "internalType": "bytes",
          "name": "_data",
          "type": "bytes"
        }
      ],
      "name": "safeTransferFrom",
      "outputs": [],
      "stateMutability": "nonpayable",
      "type": "function"
    },
    {
      "inputs": [
        {
          "internalType": "address",
          "name": "operator",
          "type": "address"
        },
        {
          "internalType": "bool",
          "name": "approved",
          "type": "bool"
        }
      ],
      "name": "setApprovalForAll",
      "outputs": [],
      "stateMutability": "nonpayable",
      "type": "function"
    },
    {
      "inputs": [
        {
          "internalType": "bytes4",
          "name": "interfaceId",
          "type": "bytes4"
        }
      ],
      "name": "supportsInterface",
      "outputs": [
        {
          "internalType": "bool",
          "name": "",
          "type": "bool"
        }
      ],
      "stateMutability": "view",
      "type": "function"
    },
    {
      "inputs": [],
      "name": "symbol",
      "outputs": [
        {
          "internalType": "string",
          "name": "",
          "type": "string"
        }
      ],
      "stateMutability": "view",
      "type": "function"
    },
    {
      "inputs": [
        {
          "internalType": "uint256",
          "name": "index",
          "type": "uint256"
        }
      ],
      "name": "tokenByIndex",
      "outputs": [
        {
          "internalType": "uint256",
          "name": "",
          "type": "uint256"
        }
      ],
      "stateMutability": "view",
      "type": "function"
    },
    {
      "inputs": [
        {
          "internalType": "address",
          "name": "owner",
          "type": "address"
        },
        {
          "internalType": "uint256",
          "name": "index",
          "type": "uint256"
        }
      ],
      "name": "tokenOfOwnerByIndex",
      "outputs": [
        {
          "internalType": "uint256",
          "name": "",
          "type": "uint256"
        }
      ],
      "stateMutability": "view",
      "type": "function"
    },
    {
      "inputs": [
        {
          "internalType": "uint256",
          "name": "tokenId",
          "type": "uint256"
        }
      ],
      "name": "tokenURI",
      "outputs": [
        {
          "internalType": "string",
          "name": "",
          "type": "string"
        }
      ],
      "stateMutability": "view",
      "type": "function"
    },
    {
      "inputs": [],
      "name": "totalSupply",
      "outputs": [
        {
          "internalType": "uint256",
          "name": "",
          "type": "uint256"
        }
      ],
      "stateMutability": "view",
      "type": "function"
    },
    {
      "inputs": [
        {
          "internalType": "address",
          "name": "from",
          "type": "address"
        },
        {
          "internalType": "address",
          "name": "to",
          "type": "address"
        },
        {
          "internalType": "uint256",
          "name": "tokenId",
          "type": "uint256"
        }
      ],
      "name": "transferFrom",
      "outputs": [],
      "stateMutability": "nonpayable",
      "type": "function"
    },
    {
      "inputs": [
        {
          "internalType": "address",
          "name": "newOwner",
          "type": "address"
        }
      ],
      "name": "transferOwnership",
      "outputs": [],
      "stateMutability": "nonpayable",
      "type": "function"
    },
    {
      "inputs": [
        {
          "internalType": "uint256",
          "name": "num",
          "type": "uint256"
        }
      ],
      "name": "mint",
      "outputs": [],
      "stateMutability": "payable",
      "type": "function"
    },
    {
      "inputs": [
        {
          "internalType": "uint256",
          "name": "newVal",
          "type": "uint256"
        }
      ],
      "name": "setMaxSupply",
      "outputs": [],
      "stateMutability": "nonpayable",
      "type": "function"
    },
    {
      "inputs": [
        {
          "internalType": "uint256",
          "name": "_newPrice",
          "type": "uint256"
        }
      ],
      "name": "setPrice",
      "outputs": [],
      "stateMutability": "nonpayable",
      "type": "function"
    },
    {
      "inputs": [
        {
          "internalType": "bool",
          "name": "val",
          "type": "bool"
        }
      ],
      "name": "setPause",
      "outputs": [],
      "stateMutability": "nonpayable",
      "type": "function"
    },
    {
      "inputs": [],
      "name": "withdraw",
      "outputs": [],
      "stateMutability": "payable",
      "type": "function"
    }
  ],
  "bytecode": "0x60806040526130c0600b5566f5232269808000600c556000600d60006101000a81548160ff0219169083151502179055503480156200003d57600080fd5b506040518060400160405280600b81526020017f43727970746f4d666572730000000000000000000000000000000000000000008152506040518060400160405280600b81526020017f43525950544f4d464552530000000000000000000000000000000000000000008152508160009080519060200190620000c2929190620001d2565b508060019080519060200190620000db929190620001d2565b505050620000fe620000f26200010460201b60201c565b6200010c60201b60201c565b620002e7565b600033905090565b6000600a60009054906101000a900473ffffffffffffffffffffffffffffffffffffffff16905081600a60006101000a81548173ffffffffffffffffffffffffffffffffffffffff021916908373ffffffffffffffffffffffffffffffffffffffff1602179055508173ffffffffffffffffffffffffffffffffffffffff168173ffffffffffffffffffffffffffffffffffffffff167f8be0079c531659141344cd1fd0a4f28419497f9722a3daafe3b4186f6b6457e060405160405180910390a35050565b828054620001e09062000282565b90600052602060002090601f01602090048101928262000204576000855562000250565b82601f106200021f57805160ff191683800117855562000250565b8280016001018555821562000250579182015b828111156200024f57825182559160200191906001019062000232565b5b5090506200025f919062000263565b5090565b5b808211156200027e57600081600090555060010162000264565b5090565b600060028204905060018216806200029b57607f821691505b60208210811415620002b257620002b1620002b8565b5b50919050565b7f4e487b7100000000000000000000000000000000000000000000000000000000600052602260045260246000fd5b613c6080620002f76000396000f3fe6080604052600436106101c25760003560e01c80636352211e116100f7578063a0712d6811610095578063bedb86fb11610064578063bedb86fb14610614578063c87b56dd1461063d578063e985e9c51461067a578063f2fde38b146106b7576101c2565b8063a0712d681461057b578063a22cb46514610597578063a95830c9146105c0578063b88d4fde146105eb576101c2565b8063715018a6116100d1578063715018a6146104e55780638da5cb5b146104fc57806391b7f5ed1461052757806395d89b4114610550576101c2565b80636352211e146104425780636f8b44b01461047f57806370a08231146104a8576101c2565b8063235b6ea1116101645780633ccfd60b1161013e5780633ccfd60b146103a757806342842e0e146103b15780634f6ccce7146103da5780635f8d769914610417576101c2565b8063235b6ea11461031657806323b872dd146103415780632f745c591461036a576101c2565b8063095ea7b3116101a0578063095ea7b31461026c57806316c61ccc1461029557806318160ddd146102c057806322f4596f146102eb576101c2565b806301ffc9a7146101c757806306fdde0314610204578063081812fc1461022f575b600080fd5b3480156101d357600080fd5b506101ee60048036038101906101e9919061295a565b6106e0565b6040516101fb9190612e3e565b60405180910390f35b34801561021057600080fd5b5061021961075a565b6040516102269190612e59565b60405180910390f35b34801561023b57600080fd5b50610256600480360381019061025191906129b4565b6107ec565b6040516102639190612dd7565b60405180910390f35b34801561027857600080fd5b50610293600480360381019061028e91906128ed565b610871565b005b3480156102a157600080fd5b506102aa610989565b6040516102b79190612e3e565b60405180910390f35b3480156102cc57600080fd5b506102d561099c565b6040516102e2919061313b565b60405180910390f35b3480156102f757600080fd5b506103006109a9565b60405161030d919061313b565b60405180910390f35b34801561032257600080fd5b5061032b6109af565b604051610338919061313b565b60405180910390f35b34801561034d57600080fd5b50610368600480360381019061036391906127d7565b6109b5565b005b34801561037657600080fd5b50610391600480360381019061038c91906128ed565b610a15565b60405161039e919061313b565b60405180910390f35b6103af610aba565b005b3480156103bd57600080fd5b506103d860048036038101906103d391906127d7565b610b7f565b005b3480156103e657600080fd5b5061040160048036038101906103fc91906129b4565b610b9f565b60405161040e919061313b565b60405180910390f35b34801561042357600080fd5b5061042c610c10565b6040516104399190612e59565b60405180910390f35b34801561044e57600080fd5b50610469600480360381019061046491906129b4565b610c2c565b6040516104769190612dd7565b60405180910390f35b34801561048b57600080fd5b506104a660048036038101906104a191906129b4565b610cde565b005b3480156104b457600080fd5b506104cf60048036038101906104ca919061276a565b610d64565b6040516104dc919061313b565b60405180910390f35b3480156104f157600080fd5b506104fa610e1c565b005b34801561050857600080fd5b50610511610ea4565b60405161051e9190612dd7565b60405180910390f35b34801561053357600080fd5b5061054e600480360381019061054991906129b4565b610ece565b005b34801561055c57600080fd5b50610565610f54565b6040516105729190612e59565b60405180910390f35b610595600480360381019061059091906129b4565b610fe6565b005b3480156105a357600080fd5b506105be60048036038101906105b991906128ad565b611160565b005b3480156105cc57600080fd5b506105d56112e1565b6040516105e29190612e59565b60405180910390f35b3480156105f757600080fd5b50610612600480360381019061060d919061282a565b6112fd565b005b34801561062057600080fd5b5061063b6004803603810190610636919061292d565b61135f565b005b34801561064957600080fd5b50610664600480360381019061065f91906129b4565b6113f8565b6040516106719190612e59565b60405180910390f35b34801561068657600080fd5b506106a1600480360381019061069c9190612797565b61149f565b6040516106ae9190612e3e565b60405180910390f35b3480156106c357600080fd5b506106de60048036038101906106d9919061276a565b611533565b005b60007f780e9d63000000000000000000000000000000000000000000000000000000007bffffffffffffffffffffffffffffffffffffffffffffffffffffffff1916827bffffffffffffffffffffffffffffffffffffffffffffffffffffffff1916148061075357506107528261162b565b5b9050919050565b606060008054610769906133ba565b80601f0160208091040260200160405190810160405280929190818152602001828054610795906133ba565b80156107e25780601f106107b7576101008083540402835291602001916107e2565b820191906000526020600020905b8154815290600101906020018083116107c557829003601f168201915b5050505050905090565b60006107f78261170d565b610836576040517f08c379a000000000000000000000000000000000000000000000000000000000815260040161082d9061301b565b60405180910390fd5b6004600083815260200190815260200160002060009054906101000a900473ffffffffffffffffffffffffffffffffffffffff169050919050565b600061087c82610c2c565b90508073ffffffffffffffffffffffffffffffffffffffff168373ffffffffffffffffffffffffffffffffffffffff1614156108ed576040517f08c379a00000000000000000000000000000000000000000000000000000000081526004016108e49061309b565b60405180910390fd5b8073ffffffffffffffffffffffffffffffffffffffff1661090c611779565b73ffffffffffffffffffffffffffffffffffffffff16148061093b575061093a81610935611779565b61149f565b5b61097a576040517f08c379a000000000000000000000000000000000000000000000000000000000815260040161097190612f7b565b60405180910390fd5b6109848383611781565b505050565b600d60009054906101000a900460ff1681565b6000600880549050905090565b600b5481565b600c5481565b6109c66109c0611779565b8261183a565b610a05576040517f08c379a00000000000000000000000000000000000000000000000000000000081526004016109fc906130fb565b60405180910390fd5b610a10838383611918565b505050565b6000610a2083610d64565b8210610a61576040517f08c379a0000000000000000000000000000000000000000000000000000000008152600401610a5890612e9b565b60405180910390fd5b600660008473ffffffffffffffffffffffffffffffffffffffff1673ffffffffffffffffffffffffffffffffffffffff168152602001908152602001600020600083815260200190815260200160002054905092915050565b610ac2611779565b73ffffffffffffffffffffffffffffffffffffffff16610ae0610ea4565b73ffffffffffffffffffffffffffffffffffffffff1614610b36576040517f08c379a0000000000000000000000000000000000000000000000000000000008152600401610b2d9061303b565b60405180910390fd5b3373ffffffffffffffffffffffffffffffffffffffff166108fc479081150290604051600060405180830381858888f19350505050158015610b7c573d6000803e3d6000fd5b50565b610b9a838383604051806020016040528060008152506112fd565b505050565b6000610ba961099c565b8210610bea576040517f08c379a0000000000000000000000000000000000000000000000000000000008152600401610be19061311b565b60405180910390fd5b60088281548110610bfe57610bfd613553565b5b90600052602060002001549050919050565b6040518060600160405280602f8152602001613bfc602f913981565b6000806002600084815260200190815260200160002060009054906101000a900473ffffffffffffffffffffffffffffffffffffffff169050600073ffffffffffffffffffffffffffffffffffffffff168173ffffffffffffffffffffffffffffffffffffffff161415610cd5576040517f08c379a0000000000000000000000000000000000000000000000000000000008152600401610ccc90612fbb565b60405180910390fd5b80915050919050565b610ce6611779565b73ffffffffffffffffffffffffffffffffffffffff16610d04610ea4565b73ffffffffffffffffffffffffffffffffffffffff1614610d5a576040517f08c379a0000000000000000000000000000000000000000000000000000000008152600401610d519061303b565b60405180910390fd5b80600b8190555050565b60008073ffffffffffffffffffffffffffffffffffffffff168273ffffffffffffffffffffffffffffffffffffffff161415610dd5576040517f08c379a0000000000000000000000000000000000000000000000000000000008152600401610dcc90612f9b565b60405180910390fd5b600360008373ffffffffffffffffffffffffffffffffffffffff1673ffffffffffffffffffffffffffffffffffffffff168152602001908152602001600020549050919050565b610e24611779565b73ffffffffffffffffffffffffffffffffffffffff16610e42610ea4565b73ffffffffffffffffffffffffffffffffffffffff1614610e98576040517f08c379a0000000000000000000000000000000000000000000000000000000008152600401610e8f9061303b565b60405180910390fd5b610ea26000611b74565b565b6000600a60009054906101000a900473ffffffffffffffffffffffffffffffffffffffff16905090565b610ed6611779565b73ffffffffffffffffffffffffffffffffffffffff16610ef4610ea4565b73ffffffffffffffffffffffffffffffffffffffff1614610f4a576040517f08c379a0000000000000000000000000000000000000000000000000000000008152600401610f419061303b565b60405180910390fd5b80600c8190555050565b606060018054610f63906133ba565b80601f0160208091040260200160405190810160405280929190818152602001828054610f8f906133ba565b8015610fdc5780601f10610fb157610100808354040283529160200191610fdc565b820191906000526020600020905b815481529060010190602001808311610fbf57829003601f168201915b5050505050905090565b6000610ff061099c565b9050600d60009054906101000a900460ff1615611042576040517f08c379a000000000000000000000000000000000000000000000000000000000815260040161103990612e7b565b60405180910390fd5b60658210611085576040517f08c379a000000000000000000000000000000000000000000000000000000000815260040161107c90612fdb565b60405180910390fd5b600b54828261109491906131ef565b11156110d5576040517f08c379a00000000000000000000000000000000000000000000000000000000081526004016110cc906130bb565b60405180910390fd5b81600c546110e39190613276565b341015611125576040517f08c379a000000000000000000000000000000000000000000000000000000000815260040161111c906130db565b60405180910390fd5b6000600190505b82811161115b5761114833828461114391906131ef565b611c3a565b80806111539061341d565b91505061112c565b505050565b611168611779565b73ffffffffffffffffffffffffffffffffffffffff168273ffffffffffffffffffffffffffffffffffffffff1614156111d6576040517f08c379a00000000000000000000000000000000000000000000000000000000081526004016111cd90612f3b565b60405180910390fd5b80600560006111e3611779565b73ffffffffffffffffffffffffffffffffffffffff1673ffffffffffffffffffffffffffffffffffffffff16815260200190815260200160002060008473ffffffffffffffffffffffffffffffffffffffff1673ffffffffffffffffffffffffffffffffffffffff16815260200190815260200160002060006101000a81548160ff0219169083151502179055508173ffffffffffffffffffffffffffffffffffffffff16611290611779565b73ffffffffffffffffffffffffffffffffffffffff167f17307eab39ab6107e8899845ad3d59bd9653f200f220920489ca2b5937696c31836040516112d59190612e3e565b60405180910390a35050565b6040518060600160405280602f8152602001613bcd602f913981565b61130e611308611779565b8361183a565b61134d576040517f08c379a0000000000000000000000000000000000000000000000000000000008152600401611344906130fb565b60405180910390fd5b61135984848484611c58565b50505050565b611367611779565b73ffffffffffffffffffffffffffffffffffffffff16611385610ea4565b73ffffffffffffffffffffffffffffffffffffffff16146113db576040517f08c379a00000000000000000000000000000000000000000000000000000000081526004016113d29061303b565b60405180910390fd5b80600d60006101000a81548160ff02191690831515021790555050565b60606114038261170d565b611442576040517f08c379a00000000000000000000000000000000000000000000000000000000081526004016114399061307b565b60405180910390fd5b600061144c611cb4565b9050600081511161146c5760405180602001604052806000815250611497565b8061147684611cd4565b604051602001611487929190612db3565b6040516020818303038152906040525b915050919050565b6000600560008473ffffffffffffffffffffffffffffffffffffffff1673ffffffffffffffffffffffffffffffffffffffff16815260200190815260200160002060008373ffffffffffffffffffffffffffffffffffffffff1673ffffffffffffffffffffffffffffffffffffffff16815260200190815260200160002060009054906101000a900460ff16905092915050565b61153b611779565b73ffffffffffffffffffffffffffffffffffffffff16611559610ea4565b73ffffffffffffffffffffffffffffffffffffffff16146115af576040517f08c379a00000000000000000000000000000000000000000000000000000000081526004016115a69061303b565b60405180910390fd5b600073ffffffffffffffffffffffffffffffffffffffff168173ffffffffffffffffffffffffffffffffffffffff16141561161f576040517f08c379a000000000000000000000000000000000000000000000000000000000815260040161161690612edb565b60405180910390fd5b61162881611b74565b50565b60007f80ac58cd000000000000000000000000000000000000000000000000000000007bffffffffffffffffffffffffffffffffffffffffffffffffffffffff1916827bffffffffffffffffffffffffffffffffffffffffffffffffffffffff191614806116f657507f5b5e139f000000000000000000000000000000000000000000000000000000007bffffffffffffffffffffffffffffffffffffffffffffffffffffffff1916827bffffffffffffffffffffffffffffffffffffffffffffffffffffffff1916145b80611706575061170582611e35565b5b9050919050565b60008073ffffffffffffffffffffffffffffffffffffffff166002600084815260200190815260200160002060009054906101000a900473ffffffffffffffffffffffffffffffffffffffff1673ffffffffffffffffffffffffffffffffffffffff1614159050919050565b600033905090565b816004600083815260200190815260200160002060006101000a81548173ffffffffffffffffffffffffffffffffffffffff021916908373ffffffffffffffffffffffffffffffffffffffff160217905550808273ffffffffffffffffffffffffffffffffffffffff166117f483610c2c565b73ffffffffffffffffffffffffffffffffffffffff167f8c5be1e5ebec7d5bd14f71427d1e84f3dd0314c0f7b2291e5b200ac8c7c3b92560405160405180910390a45050565b60006118458261170d565b611884576040517f08c379a000000000000000000000000000000000000000000000000000000000815260040161187b90612f5b565b60405180910390fd5b600061188f83610c2c565b90508073ffffffffffffffffffffffffffffffffffffffff168473ffffffffffffffffffffffffffffffffffffffff1614806118fe57508373ffffffffffffffffffffffffffffffffffffffff166118e6846107ec565b73ffffffffffffffffffffffffffffffffffffffff16145b8061190f575061190e818561149f565b5b91505092915050565b8273ffffffffffffffffffffffffffffffffffffffff1661193882610c2c565b73ffffffffffffffffffffffffffffffffffffffff161461198e576040517f08c379a00000000000000000000000000000000000000000000000000000000081526004016119859061305b565b60405180910390fd5b600073ffffffffffffffffffffffffffffffffffffffff168273ffffffffffffffffffffffffffffffffffffffff1614156119fe576040517f08c379a00000000000000000000000000000000000000000000000000000000081526004016119f590612f1b565b60405180910390fd5b611a09838383611e9f565b611a14600082611781565b6001600360008573ffffffffffffffffffffffffffffffffffffffff1673ffffffffffffffffffffffffffffffffffffffff1681526020019081526020016000206000828254611a6491906132d0565b925050819055506001600360008473ffffffffffffffffffffffffffffffffffffffff1673ffffffffffffffffffffffffffffffffffffffff1681526020019081526020016000206000828254611abb91906131ef565b92505081905550816002600083815260200190815260200160002060006101000a81548173ffffffffffffffffffffffffffffffffffffffff021916908373ffffffffffffffffffffffffffffffffffffffff160217905550808273ffffffffffffffffffffffffffffffffffffffff168473ffffffffffffffffffffffffffffffffffffffff167fddf252ad1be2c89b69c2b068fc378daa952ba7f163c4a11628f55a4df523b3ef60405160405180910390a4505050565b6000600a60009054906101000a900473ffffffffffffffffffffffffffffffffffffffff16905081600a60006101000a81548173ffffffffffffffffffffffffffffffffffffffff021916908373ffffffffffffffffffffffffffffffffffffffff1602179055508173ffffffffffffffffffffffffffffffffffffffff168173ffffffffffffffffffffffffffffffffffffffff167f8be0079c531659141344cd1fd0a4f28419497f9722a3daafe3b4186f6b6457e060405160405180910390a35050565b611c54828260405180602001604052806000815250611fb3565b5050565b611c63848484611918565b611c6f8484848461200e565b611cae576040517f08c379a0000000000000000000000000000000000000000000000000000000008152600401611ca590612ebb565b60405180910390fd5b50505050565b60606040518060600160405280602f8152602001613bcd602f9139905090565b60606000821415611d1c576040518060400160405280600181526020017f30000000000000000000000000000000000000000000000000000000000000008152509050611e30565b600082905060005b60008214611d4e578080611d379061341d565b915050600a82611d479190613245565b9150611d24565b60008167ffffffffffffffff811115611d6a57611d69613582565b5b6040519080825280601f01601f191660200182016040528015611d9c5781602001600182028036833780820191505090505b5090505b60008514611e2957600182611db591906132d0565b9150600a85611dc49190613466565b6030611dd091906131ef565b60f81b818381518110611de657611de5613553565b5b60200101907effffffffffffffffffffffffffffffffffffffffffffffffffffffffffffff1916908160001a905350600a85611e229190613245565b9450611da0565b8093505050505b919050565b60007f01ffc9a7000000000000000000000000000000000000000000000000000000007bffffffffffffffffffffffffffffffffffffffffffffffffffffffff1916827bffffffffffffffffffffffffffffffffffffffffffffffffffffffff1916149050919050565b611eaa8383836121a5565b600073ffffffffffffffffffffffffffffffffffffffff168373ffffffffffffffffffffffffffffffffffffffff161415611eed57611ee8816121aa565b611f2c565b8173ffffffffffffffffffffffffffffffffffffffff168373ffffffffffffffffffffffffffffffffffffffff1614611f2b57611f2a83826121f3565b5b5b600073ffffffffffffffffffffffffffffffffffffffff168273ffffffffffffffffffffffffffffffffffffffff161415611f6f57611f6a81612360565b611fae565b8273ffffffffffffffffffffffffffffffffffffffff168273ffffffffffffffffffffffffffffffffffffffff1614611fad57611fac8282612431565b5b5b505050565b611fbd83836124b0565b611fca600084848461200e565b612009576040517f08c379a000000000000000000000000000000000000000000000000000000000815260040161200090612ebb565b60405180910390fd5b505050565b600061202f8473ffffffffffffffffffffffffffffffffffffffff1661267e565b15612198578373ffffffffffffffffffffffffffffffffffffffff1663150b7a02612058611779565b8786866040518563ffffffff1660e01b815260040161207a9493929190612df2565b602060405180830381600087803b15801561209457600080fd5b505af19250505080156120c557506040513d601f19601f820116820180604052508101906120c29190612987565b60015b612148573d80600081146120f5576040519150601f19603f3d011682016040523d82523d6000602084013e6120fa565b606091505b50600081511415612140576040517f08c379a000000000000000000000000000000000000000000000000000000000815260040161213790612ebb565b60405180910390fd5b805181602001fd5b63150b7a0260e01b7bffffffffffffffffffffffffffffffffffffffffffffffffffffffff1916817bffffffffffffffffffffffffffffffffffffffffffffffffffffffff19161491505061219d565b600190505b949350505050565b505050565b6008805490506009600083815260200190815260200160002081905550600881908060018154018082558091505060019003906000526020600020016000909190919091505550565b6000600161220084610d64565b61220a91906132d0565b90506000600760008481526020019081526020016000205490508181146122ef576000600660008673ffffffffffffffffffffffffffffffffffffffff1673ffffffffffffffffffffffffffffffffffffffff168152602001908152602001600020600084815260200190815260200160002054905080600660008773ffffffffffffffffffffffffffffffffffffffff1673ffffffffffffffffffffffffffffffffffffffff168152602001908152602001600020600084815260200190815260200160002081905550816007600083815260200190815260200160002081905550505b6007600084815260200190815260200160002060009055600660008573ffffffffffffffffffffffffffffffffffffffff1673ffffffffffffffffffffffffffffffffffffffff16815260200190815260200160002060008381526020019081526020016000206000905550505050565b6000600160088054905061237491906132d0565b90506000600960008481526020019081526020016000205490506000600883815481106123a4576123a3613553565b5b9060005260206000200154905080600883815481106123c6576123c5613553565b5b90600052602060002001819055508160096000838152602001908152602001600020819055506009600085815260200190815260200160002060009055600880548061241557612414613524565b5b6001900381819060005260206000200160009055905550505050565b600061243c83610d64565b905081600660008573ffffffffffffffffffffffffffffffffffffffff1673ffffffffffffffffffffffffffffffffffffffff168152602001908152602001600020600083815260200190815260200160002081905550806007600084815260200190815260200160002081905550505050565b600073ffffffffffffffffffffffffffffffffffffffff168273ffffffffffffffffffffffffffffffffffffffff161415612520576040517f08c379a000000000000000000000000000000000000000000000000000000000815260040161251790612ffb565b60405180910390fd5b6125298161170d565b15612569576040517f08c379a000000000000000000000000000000000000000000000000000000000815260040161256090612efb565b60405180910390fd5b61257560008383611e9f565b6001600360008473ffffffffffffffffffffffffffffffffffffffff1673ffffffffffffffffffffffffffffffffffffffff16815260200190815260200160002060008282546125c591906131ef565b92505081905550816002600083815260200190815260200160002060006101000a81548173ffffffffffffffffffffffffffffffffffffffff021916908373ffffffffffffffffffffffffffffffffffffffff160217905550808273ffffffffffffffffffffffffffffffffffffffff16600073ffffffffffffffffffffffffffffffffffffffff167fddf252ad1be2c89b69c2b068fc378daa952ba7f163c4a11628f55a4df523b3ef60405160405180910390a45050565b600080823b905060008111915050919050565b60006126a461269f8461317b565b613156565b9050828152602081018484840111156126c0576126bf6135b6565b5b6126cb848285613378565b509392505050565b6000813590506126e281613b70565b92915050565b6000813590506126f781613b87565b92915050565b60008135905061270c81613b9e565b92915050565b60008151905061272181613b9e565b92915050565b600082601f83011261273c5761273b6135b1565b5b813561274c848260208601612691565b91505092915050565b60008135905061276481613bb5565b92915050565b6000602082840312156127805761277f6135c0565b5b600061278e848285016126d3565b91505092915050565b600080604083850312156127ae576127ad6135c0565b5b60006127bc858286016126d3565b92505060206127cd858286016126d3565b9150509250929050565b6000806000606084860312156127f0576127ef6135c0565b5b60006127fe868287016126d3565b935050602061280f868287016126d3565b925050604061282086828701612755565b9150509250925092565b60008060008060808587031215612844576128436135c0565b5b6000612852878288016126d3565b9450506020612863878288016126d3565b935050604061287487828801612755565b925050606085013567ffffffffffffffff811115612895576128946135bb565b5b6128a187828801612727565b91505092959194509250565b600080604083850312156128c4576128c36135c0565b5b60006128d2858286016126d3565b92505060206128e3858286016126e8565b9150509250929050565b60008060408385031215612904576129036135c0565b5b6000612912858286016126d3565b925050602061292385828601612755565b9150509250929050565b600060208284031215612943576129426135c0565b5b6000612951848285016126e8565b91505092915050565b6000602082840312156129705761296f6135c0565b5b600061297e848285016126fd565b91505092915050565b60006020828403121561299d5761299c6135c0565b5b60006129ab84828501612712565b91505092915050565b6000602082840312156129ca576129c96135c0565b5b60006129d884828501612755565b91505092915050565b6129ea81613304565b82525050565b6129f981613316565b82525050565b6000612a0a826131ac565b612a1481856131c2565b9350612a24818560208601613387565b612a2d816135c5565b840191505092915050565b6000612a43826131b7565b612a4d81856131d3565b9350612a5d818560208601613387565b612a66816135c5565b840191505092915050565b6000612a7c826131b7565b612a8681856131e4565b9350612a96818560208601613387565b80840191505092915050565b6000612aaf600b836131d3565b9150612aba826135d6565b602082019050919050565b6000612ad2602b836131d3565b9150612add826135ff565b604082019050919050565b6000612af56032836131d3565b9150612b008261364e565b604082019050919050565b6000612b186026836131d3565b9150612b238261369d565b604082019050919050565b6000612b3b601c836131d3565b9150612b46826136ec565b602082019050919050565b6000612b5e6024836131d3565b9150612b6982613715565b604082019050919050565b6000612b816019836131d3565b9150612b8c82613764565b602082019050919050565b6000612ba4602c836131d3565b9150612baf8261378d565b604082019050919050565b6000612bc76038836131d3565b9150612bd2826137dc565b604082019050919050565b6000612bea602a836131d3565b9150612bf58261382b565b604082019050919050565b6000612c0d6029836131d3565b9150612c188261387a565b604082019050919050565b6000612c30601a836131d3565b9150612c3b826138c9565b602082019050919050565b6000612c536020836131d3565b9150612c5e826138f2565b602082019050919050565b6000612c76602c836131d3565b9150612c818261391b565b604082019050919050565b6000612c996020836131d3565b9150612ca48261396a565b602082019050919050565b6000612cbc6029836131d3565b9150612cc782613993565b604082019050919050565b6000612cdf602f836131d3565b9150612cea826139e2565b604082019050919050565b6000612d026021836131d3565b9150612d0d82613a31565b604082019050919050565b6000612d256016836131d3565b9150612d3082613a80565b602082019050919050565b6000612d486019836131d3565b9150612d5382613aa9565b602082019050919050565b6000612d6b6031836131d3565b9150612d7682613ad2565b604082019050919050565b6000612d8e602c836131d3565b9150612d9982613b21565b604082019050919050565b612dad8161336e565b82525050565b6000612dbf8285612a71565b9150612dcb8284612a71565b91508190509392505050565b6000602082019050612dec60008301846129e1565b92915050565b6000608082019050612e0760008301876129e1565b612e1460208301866129e1565b612e216040830185612da4565b8181036060830152612e3381846129ff565b905095945050505050565b6000602082019050612e5360008301846129f0565b92915050565b60006020820190508181036000830152612e738184612a38565b905092915050565b60006020820190508181036000830152612e9481612aa2565b9050919050565b60006020820190508181036000830152612eb481612ac5565b9050919050565b60006020820190508181036000830152612ed481612ae8565b9050919050565b60006020820190508181036000830152612ef481612b0b565b9050919050565b60006020820190508181036000830152612f1481612b2e565b9050919050565b60006020820190508181036000830152612f3481612b51565b9050919050565b60006020820190508181036000830152612f5481612b74565b9050919050565b60006020820190508181036000830152612f7481612b97565b9050919050565b60006020820190508181036000830152612f9481612bba565b9050919050565b60006020820190508181036000830152612fb481612bdd565b9050919050565b60006020820190508181036000830152612fd481612c00565b9050919050565b60006020820190508181036000830152612ff481612c23565b9050919050565b6000602082019050818103600083015261301481612c46565b9050919050565b6000602082019050818103600083015261303481612c69565b9050919050565b6000602082019050818103600083015261305481612c8c565b9050919050565b6000602082019050818103600083015261307481612caf565b9050919050565b6000602082019050818103600083015261309481612cd2565b9050919050565b600060208201905081810360008301526130b481612cf5565b9050919050565b600060208201905081810360008301526130d481612d18565b9050919050565b600060208201905081810360008301526130f481612d3b565b9050919050565b6000602082019050818103600083015261311481612d5e565b9050919050565b6000602082019050818103600083015261313481612d81565b9050919050565b60006020820190506131506000830184612da4565b92915050565b6000613160613171565b905061316c82826133ec565b919050565b6000604051905090565b600067ffffffffffffffff82111561319657613195613582565b5b61319f826135c5565b9050602081019050919050565b600081519050919050565b600081519050919050565b600082825260208201905092915050565b600082825260208201905092915050565b600081905092915050565b60006131fa8261336e565b91506132058361336e565b9250827fffffffffffffffffffffffffffffffffffffffffffffffffffffffffffffffff0382111561323a57613239613497565b5b828201905092915050565b60006132508261336e565b915061325b8361336e565b92508261326b5761326a6134c6565b5b828204905092915050565b60006132818261336e565b915061328c8361336e565b9250817fffffffffffffffffffffffffffffffffffffffffffffffffffffffffffffffff04831182151516156132c5576132c4613497565b5b828202905092915050565b60006132db8261336e565b91506132e68361336e565b9250828210156132f9576132f8613497565b5b828203905092915050565b600061330f8261334e565b9050919050565b60008115159050919050565b60007fffffffff0000000000000000000000000000000000000000000000000000000082169050919050565b600073ffffffffffffffffffffffffffffffffffffffff82169050919050565b6000819050919050565b82818337600083830152505050565b60005b838110156133a557808201518184015260208101905061338a565b838111156133b4576000848401525b50505050565b600060028204905060018216806133d257607f821691505b602082108114156133e6576133e56134f5565b5b50919050565b6133f5826135c5565b810181811067ffffffffffffffff8211171561341457613413613582565b5b80604052505050565b60006134288261336e565b91507fffffffffffffffffffffffffffffffffffffffffffffffffffffffffffffffff82141561345b5761345a613497565b5b600182019050919050565b60006134718261336e565b915061347c8361336e565b92508261348c5761348b6134c6565b5b828206905092915050565b7f4e487b7100000000000000000000000000000000000000000000000000000000600052601160045260246000fd5b7f4e487b7100000000000000000000000000000000000000000000000000000000600052601260045260246000fd5b7f4e487b7100000000000000000000000000000000000000000000000000000000600052602260045260246000fd5b7f4e487b7100000000000000000000000000000000000000000000000000000000600052603160045260246000fd5b7f4e487b7100000000000000000000000000000000000000000000000000000000600052603260045260246000fd5b7f4e487b7100000000000000000000000000000000000000000000000000000000600052604160045260246000fd5b600080fd5b600080fd5b600080fd5b600080fd5b6000601f19601f8301169050919050565b7f53616c6520706175736564000000000000000000000000000000000000000000600082015250565b7f455243373231456e756d657261626c653a206f776e657220696e646578206f7560008201527f74206f6620626f756e6473000000000000000000000000000000000000000000602082015250565b7f4552433732313a207472616e7366657220746f206e6f6e20455243373231526560008201527f63656976657220696d706c656d656e7465720000000000000000000000000000602082015250565b7f4f776e61626c653a206e6577206f776e657220697320746865207a65726f206160008201527f6464726573730000000000000000000000000000000000000000000000000000602082015250565b7f4552433732313a20746f6b656e20616c7265616479206d696e74656400000000600082015250565b7f4552433732313a207472616e7366657220746f20746865207a65726f2061646460008201527f7265737300000000000000000000000000000000000000000000000000000000602082015250565b7f4552433732313a20617070726f766520746f2063616c6c657200000000000000600082015250565b7f4552433732313a206f70657261746f7220717565727920666f72206e6f6e657860008201527f697374656e7420746f6b656e0000000000000000000000000000000000000000602082015250565b7f4552433732313a20617070726f76652063616c6c6572206973206e6f74206f7760008201527f6e6572206e6f7220617070726f76656420666f7220616c6c0000000000000000602082015250565b7f4552433732313a2062616c616e636520717565727920666f7220746865207a6560008201527f726f206164647265737300000000000000000000000000000000000000000000602082015250565b7f4552433732313a206f776e657220717565727920666f72206e6f6e657869737460008201527f656e7420746f6b656e0000000000000000000000000000000000000000000000602082015250565b7f6d6178696d756d206f66203130302063727970746f6d66657273000000000000600082015250565b7f4552433732313a206d696e7420746f20746865207a65726f2061646472657373600082015250565b7f4552433732313a20617070726f76656420717565727920666f72206e6f6e657860008201527f697374656e7420746f6b656e0000000000000000000000000000000000000000602082015250565b7f4f776e61626c653a2063616c6c6572206973206e6f7420746865206f776e6572600082015250565b7f4552433732313a207472616e73666572206f6620746f6b656e2074686174206960008201527f73206e6f74206f776e0000000000000000000000000000000000000000000000602082015250565b7f4552433732314d657461646174613a2055524920717565727920666f72206e6f60008201527f6e6578697374656e7420746f6b656e0000000000000000000000000000000000602082015250565b7f4552433732313a20617070726f76616c20746f2063757272656e74206f776e6560008201527f7200000000000000000000000000000000000000000000000000000000000000602082015250565b7f45786365656473206d6178696d756d20737570706c7900000000000000000000600082015250565b7f45746865722073656e74206973206e6f7420636f727265637400000000000000600082015250565b7f4552433732313a207472616e736665722063616c6c6572206973206e6f74206f60008201527f776e6572206e6f7220617070726f766564000000000000000000000000000000602082015250565b7f455243373231456e756d657261626c653a20676c6f62616c20696e646578206f60008201527f7574206f6620626f756e64730000000000000000000000000000000000000000602082015250565b613b7981613304565b8114613b8457600080fd5b50565b613b9081613316565b8114613b9b57600080fd5b50565b613ba781613322565b8114613bb257600080fd5b50565b613bbe8161336e565b8114613bc957600080fd5b5056fe687474703a2f2f6e66742d6c61756e63687061642e696f2f63727970746f6d666572732f63727970746f6d6665722d43727970746f4d66657273202d20696e737069726564206279206d666572732c206d61646520666f72206d66657273a26469706673582212201b63403ca009d131c5f98577a1b0ab870129a9705088b96dd1f796985d4ecf3b64736f6c63430008070033",
  "immutableReferences": {},
  "source": "// SPDX-License-Identifier: MIT\n\npragma solidity ^0.8.0;\n\nimport \"./FullERC721.sol\";\n\ncontract CryptoMfers is ERC721Enumerable, Ownable {\n\n    uint256 public _maxSupply = 12480;\n    uint256 public _price = 0.069 ether;\n    bool public _paused = false;\n    \n    string public constant _desc = \"CryptoMfers - inspired by mfers, made for mfers\";\n    string public constant _mferURI = \"http://nft-launchpad.io/cryptomfers/cryptomfer-\";\n\n    constructor() ERC721(\"CryptoMfers\", \"CRYPTOMFERS\") Ownable() {\n\t}\n\n    function _baseURI() override internal view virtual returns (string memory) {\n        return _mferURI;\n    }\n    function mint(uint256 num) external payable {\n        uint256 supply = totalSupply();\n        require(!_paused, \"Sale paused\");\n        require(num < 101, \"maximum of 100 cryptomfers\");\n        require(supply + num <= _maxSupply, \"Exceeds maximum supply\");\n        require(msg.value >= _price * num, \"Ether sent is not correct\");\n\n        for(uint256 i = 1; i <= num; i++) {\n            _safeMint(msg.sender, supply + i);\n        }\n    }\n    function setMaxSupply(uint256 newVal) external onlyOwner {\n        _maxSupply = newVal;\n    }\n    function setPrice(uint256 _newPrice) external onlyOwner {\n        _price = _newPrice;\n    }\n    function setPause(bool val) external onlyOwner {\n        _paused = val;\n    }\n    function withdraw() external payable onlyOwner {\n        payable(msg.sender).transfer(address(this).balance);\n    }\n}\n",
  "sourcePath": "/home/ec2-user/github/nftlaunchpad-dapp/src/contracts/CryptoMfers.sol",
  "compiler": {
    "name": "solc",
    "version": "0.8.7+commit.e28d00a7.Emscripten.clang"
  },
  "schemaVersion": "3.4.3",
  "updatedAt": "2022-02-26T09:36:59.529Z",
  "devdoc": {
    "kind": "dev",
    "methods": {
      "approve(address,uint256)": {
        "details": "See {IERC721-approve}."
      },
      "balanceOf(address)": {
        "details": "See {IERC721-balanceOf}."
      },
      "getApproved(uint256)": {
        "details": "See {IERC721-getApproved}."
      },
      "isApprovedForAll(address,address)": {
        "details": "See {IERC721-isApprovedForAll}."
      },
      "name()": {
        "details": "See {IERC721Metadata-name}."
      },
      "owner()": {
        "details": "Returns the address of the current owner."
      },
      "ownerOf(uint256)": {
        "details": "See {IERC721-ownerOf}."
      },
      "renounceOwnership()": {
        "details": "Leaves the contract without owner. It will not be possible to call `onlyOwner` functions anymore. Can only be called by the current owner. NOTE: Renouncing ownership will leave the contract without an owner, thereby removing any functionality that is only available to the owner."
      },
      "safeTransferFrom(address,address,uint256)": {
        "details": "See {IERC721-safeTransferFrom}."
      },
      "safeTransferFrom(address,address,uint256,bytes)": {
        "details": "See {IERC721-safeTransferFrom}."
      },
      "setApprovalForAll(address,bool)": {
        "details": "See {IERC721-setApprovalForAll}."
      },
      "supportsInterface(bytes4)": {
        "details": "See {IERC165-supportsInterface}."
      },
      "symbol()": {
        "details": "See {IERC721Metadata-symbol}."
      },
      "tokenByIndex(uint256)": {
        "details": "See {IERC721Enumerable-tokenByIndex}."
      },
      "tokenOfOwnerByIndex(address,uint256)": {
        "details": "See {IERC721Enumerable-tokenOfOwnerByIndex}."
      },
      "tokenURI(uint256)": {
        "details": "See {IERC721Metadata-tokenURI}."
      },
      "totalSupply()": {
        "details": "See {IERC721Enumerable-totalSupply}."
      },
      "transferFrom(address,address,uint256)": {
        "details": "See {IERC721-transferFrom}."
      },
      "transferOwnership(address)": {
        "details": "Transfers ownership of the contract to a new account (`newOwner`). Can only be called by the current owner."
      }
    },
    "version": 1
  },
  "userdoc": {
    "kind": "user",
    "methods": {},
    "version": 1
  }
}