{
  "contractName": "CryptoJackpot",
  "abi": [
    {
      "inputs": [],
      "stateMutability": "nonpayable",
      "type": "constructor"
    },
    {
      "anonymous": false,
      "inputs": [
        {
          "indexed": false,
          "internalType": "uint256",
          "name": "contestId",
          "type": "uint256"
        },
        {
          "indexed": false,
          "internalType": "uint256",
          "name": "tokenId",
          "type": "uint256"
        }
      ],
      "name": "Winner",
      "type": "event"
    },
    {
      "inputs": [],
      "name": "_contestId",
      "outputs": [
        {
          "internalType": "uint256",
          "name": "",
          "type": "uint256"
        }
      ],
      "stateMutability": "view",
      "type": "function"
    },
    {
      "inputs": [],
      "name": "_coolPeriod",
      "outputs": [
        {
          "internalType": "uint256",
          "name": "",
          "type": "uint256"
        }
      ],
      "stateMutability": "view",
      "type": "function"
    },
    {
      "inputs": [],
      "name": "_coolPeriodStarted",
      "outputs": [
        {
          "internalType": "bool",
          "name": "",
          "type": "bool"
        }
      ],
      "stateMutability": "view",
      "type": "function"
    },
    {
      "inputs": [],
      "name": "_maxPlayers",
      "outputs": [
        {
          "internalType": "uint256",
          "name": "",
          "type": "uint256"
        }
      ],
      "stateMutability": "view",
      "type": "function"
    },
    {
      "inputs": [],
      "name": "_paused",
      "outputs": [
        {
          "internalType": "bool",
          "name": "",
          "type": "bool"
        }
      ],
      "stateMutability": "view",
      "type": "function"
    },
    {
      "inputs": [],
      "name": "_price",
      "outputs": [
        {
          "internalType": "uint256",
          "name": "",
          "type": "uint256"
        }
      ],
      "stateMutability": "view",
      "type": "function"
    },
    {
      "inputs": [],
      "name": "_winnerBlock",
      "outputs": [
        {
          "internalType": "uint256",
          "name": "",
          "type": "uint256"
        }
      ],
      "stateMutability": "view",
      "type": "function"
    },
    {
      "inputs": [],
      "name": "_winnerPrice",
      "outputs": [
        {
          "internalType": "uint256",
          "name": "",
          "type": "uint256"
        }
      ],
      "stateMutability": "view",
      "type": "function"
    },
    {
      "inputs": [
        {
          "internalType": "uint256",
          "name": "tokenId",
          "type": "uint256"
        }
      ],
      "name": "joinContest",
      "outputs": [],
      "stateMutability": "payable",
      "type": "function"
    },
    {
      "inputs": [],
      "name": "availableTokens",
      "outputs": [
        {
          "internalType": "string",
          "name": "",
          "type": "string"
        }
      ],
      "stateMutability": "view",
      "type": "function"
    },
    {
      "inputs": [
        {
          "internalType": "uint256",
          "name": "_newVal",
          "type": "uint256"
        }
      ],
      "name": "setCoolPeriod",
      "outputs": [],
      "stateMutability": "nonpayable",
      "type": "function"
    },
    {
      "inputs": [
        {
          "internalType": "uint256",
          "name": "_newVal",
          "type": "uint256"
        }
      ],
      "name": "setMaxPlayers",
      "outputs": [],
      "stateMutability": "nonpayable",
      "type": "function"
    },
    {
      "inputs": [
        {
          "internalType": "uint256",
          "name": "_newVal",
          "type": "uint256"
        }
      ],
      "name": "setPrice",
      "outputs": [],
      "stateMutability": "nonpayable",
      "type": "function"
    },
    {
      "inputs": [
        {
          "internalType": "uint256",
          "name": "_newVal",
          "type": "uint256"
        }
      ],
      "name": "setWinnerPrice",
      "outputs": [],
      "stateMutability": "nonpayable",
      "type": "function"
    },
    {
      "inputs": [
        {
          "internalType": "bool",
          "name": "val",
          "type": "bool"
        }
      ],
      "name": "setPause",
      "outputs": [],
      "stateMutability": "nonpayable",
      "type": "function"
    },
    {
      "inputs": [],
      "name": "withdraw",
      "outputs": [],
      "stateMutability": "payable",
      "type": "function"
    }
  ],
  "bytecode": "0x608060405260008060146101000a81548160ff021916908315150217905550606460015566b1a2bc2ec500006002556741eb63d55b1b0000600355600060045560006005556103e86006556000600760006101000a81548160ff02191690831515021790555034801561007157600080fd5b50336000806101000a81548173ffffffffffffffffffffffffffffffffffffffff021916908373ffffffffffffffffffffffffffffffffffffffff160217905550611472806100c16000396000f3fe6080604052600436106100f35760003560e01c80634b020bc11161008a57806369bb4dc21161005957806369bb4dc2146102c657806391b7f5ed146102f1578063a3c4c88a1461031a578063bedb86fb14610345576100f3565b80634b020bc11461022957806352a63ab7146102545780635d6e6c7c1461027f5780636858f45d1461029b576100f3565b80632f242ed9116100c65780632f242ed9146101a257806336f8ae34146101cb5780633ccfd60b146101f4578063488d57e9146101fe576100f3565b806304534bd6146100f857806316c61ccc14610123578063235b6ea11461014e578063288dee3b14610179575b600080fd5b34801561010457600080fd5b5061010d61036e565b60405161011a9190611086565b60405180910390f35b34801561012f57600080fd5b50610138610374565b6040516101459190610fa9565b60405180910390f35b34801561015a57600080fd5b50610163610387565b6040516101709190611086565b60405180910390f35b34801561018557600080fd5b506101a0600480360381019061019b9190610e14565b61038d565b005b3480156101ae57600080fd5b506101c960048036038101906101c49190610e14565b610425565b005b3480156101d757600080fd5b506101f260048036038101906101ed9190610e14565b6104bd565b005b6101fc610555565b005b34801561020a57600080fd5b5061021361062c565b6040516102209190611086565b60405180910390f35b34801561023557600080fd5b5061023e610632565b60405161024b9190611086565b60405180910390f35b34801561026057600080fd5b50610269610638565b6040516102769190611086565b60405180910390f35b61029960048036038101906102949190610e14565b61063e565b005b3480156102a757600080fd5b506102b0610889565b6040516102bd9190610fa9565b60405180910390f35b3480156102d257600080fd5b506102db61089c565b6040516102e89190610fc4565b60405180910390f35b3480156102fd57600080fd5b5061031860048036038101906103139190610e14565b610987565b005b34801561032657600080fd5b5061032f610a1f565b60405161033c9190611086565b60405180910390f35b34801561035157600080fd5b5061036c60048036038101906103679190610de7565b610a25565b005b60015481565b600060149054906101000a900460ff1681565b60025481565b60008054906101000a900473ffffffffffffffffffffffffffffffffffffffff1673ffffffffffffffffffffffffffffffffffffffff163373ffffffffffffffffffffffffffffffffffffffff161461041b576040517f08c379a000000000000000000000000000000000000000000000000000000000815260040161041290610fe6565b60405180910390fd5b8060018190555050565b60008054906101000a900473ffffffffffffffffffffffffffffffffffffffff1673ffffffffffffffffffffffffffffffffffffffff163373ffffffffffffffffffffffffffffffffffffffff16146104b3576040517f08c379a00000000000000000000000000000000000000000000000000000000081526004016104aa90610fe6565b60405180910390fd5b8060068190555050565b60008054906101000a900473ffffffffffffffffffffffffffffffffffffffff1673ffffffffffffffffffffffffffffffffffffffff163373ffffffffffffffffffffffffffffffffffffffff161461054b576040517f08c379a000000000000000000000000000000000000000000000000000000000815260040161054290610fe6565b60405180910390fd5b8060038190555050565b60008054906101000a900473ffffffffffffffffffffffffffffffffffffffff1673ffffffffffffffffffffffffffffffffffffffff163373ffffffffffffffffffffffffffffffffffffffff16146105e3576040517f08c379a00000000000000000000000000000000000000000000000000000000081526004016105da90610fe6565b60405180910390fd5b3373ffffffffffffffffffffffffffffffffffffffff166108fc479081150290604051600060405180830381858888f19350505050158015610629573d6000803e3d6000fd5b50565b60045481565b60065481565b60055481565b600060149054906101000a900460ff161561068e576040517f08c379a000000000000000000000000000000000000000000000000000000000815260040161068590611046565b60405180910390fd5b6002543410156106d3576040517f08c379a00000000000000000000000000000000000000000000000000000000081526004016106ca90611026565b60405180910390fd5b6000811180156106e557506001548111155b610724576040517f08c379a000000000000000000000000000000000000000000000000000000000815260040161071b90611066565b60405180910390fd5b600760009054906101000a900460ff16156107a6576006546005544361074a9190611178565b1161078a576040517f08c379a000000000000000000000000000000000000000000000000000000000815260040161078190611006565b60405180910390fd5b6000600760006101000a81548160ff0219169083151502179055505b336008600083815260200190815260200160002060006101000a81548173ffffffffffffffffffffffffffffffffffffffff021916908373ffffffffffffffffffffffffffffffffffffffff16021790555043600960008381526020019081526020016000208190555042600a6000838152602001908152602001600020819055506001600b600083815260200190815260200160002060006101000a81548160ff021916908315150217905550600061085e61089c565b5114156108865760046000815480929190610878906111f5565b9190505550610885610ad0565b5b50565b600760009054906101000a900460ff1681565b6060806000600190505b600154811161097f5760001515600b600083815260200190815260200160002060009054906101000a900460ff161515141561095f578160008351116108fb5760405180602001604052806000815250610932565b6040518060400160405280600181526020017f2c000000000000000000000000000000000000000000000000000000000000008152505b61093b83610c5c565b60405160200161094d93929190610f78565b60405160208183030381529060405291505b60648251111561096e5761097f565b80610978906111f5565b90506108a6565b508091505090565b60008054906101000a900473ffffffffffffffffffffffffffffffffffffffff1673ffffffffffffffffffffffffffffffffffffffff163373ffffffffffffffffffffffffffffffffffffffff1614610a15576040517f08c379a0000000000000000000000000000000000000000000000000000000008152600401610a0c90610fe6565b60405180910390fd5b8060028190555050565b60035481565b60008054906101000a900473ffffffffffffffffffffffffffffffffffffffff1673ffffffffffffffffffffffffffffffffffffffff163373ffffffffffffffffffffffffffffffffffffffff1614610ab3576040517f08c379a0000000000000000000000000000000000000000000000000000000008152600401610aaa90610fe6565b60405180910390fd5b80600060146101000a81548160ff02191690831515021790555050565b600080600190505b6001548111610b6057600960008281526020019081526020016000205482610b0091906110f1565b9150600a60008281526020019081526020016000205482610b2191906110f1565b91506000600b600083815260200190815260200160002060006101000a81548160ff02191690831515021790555080610b59906111f5565b9050610ad8565b50600060015482610b71919061123e565b6001610b7d91906110f1565b90506008600082815260200190815260200160002060009054906101000a900473ffffffffffffffffffffffffffffffffffffffff1673ffffffffffffffffffffffffffffffffffffffff166108fc6003549081150290604051600060405180830381858888f19350505050158015610bfa573d6000803e3d6000fd5b507f2ec31526458a6f2e01dc51c3e1263edd5327aba8c14343743a9fd4e2a383395060045482604051610c2e9291906110a1565b60405180910390a16001600760006101000a81548160ff021916908315150217905550436005819055505050565b60606000821415610ca4576040518060400160405280600181526020017f30000000000000000000000000000000000000000000000000000000000000008152509050610db8565b600082905060005b60008214610cd6578080610cbf906111f5565b915050600a82610ccf9190611147565b9150610cac565b60008167ffffffffffffffff811115610cf257610cf16112fc565b5b6040519080825280601f01601f191660200182016040528015610d245781602001600182028036833780820191505090505b5090505b60008514610db157600182610d3d9190611178565b9150600a85610d4c919061123e565b6030610d5891906110f1565b60f81b818381518110610d6e57610d6d6112cd565b5b60200101907effffffffffffffffffffffffffffffffffffffffffffffffffffffffffffff1916908160001a905350600a85610daa9190611147565b9450610d28565b8093505050505b919050565b600081359050610dcc8161140e565b92915050565b600081359050610de181611425565b92915050565b600060208284031215610dfd57610dfc61132b565b5b6000610e0b84828501610dbd565b91505092915050565b600060208284031215610e2a57610e2961132b565b5b6000610e3884828501610dd2565b91505092915050565b610e4a816111ac565b82525050565b6000610e5b826110ca565b610e6581856110d5565b9350610e758185602086016111c2565b610e7e81611330565b840191505092915050565b6000610e94826110ca565b610e9e81856110e6565b9350610eae8185602086016111c2565b80840191505092915050565b6000610ec76013836110d5565b9150610ed282611341565b602082019050919050565b6000610eea6015836110d5565b9150610ef58261136a565b602082019050919050565b6000610f0d6019836110d5565b9150610f1882611393565b602082019050919050565b6000610f306006836110d5565b9150610f3b826113bc565b602082019050919050565b6000610f53600f836110d5565b9150610f5e826113e5565b602082019050919050565b610f72816111b8565b82525050565b6000610f848286610e89565b9150610f908285610e89565b9150610f9c8284610e89565b9150819050949350505050565b6000602082019050610fbe6000830184610e41565b92915050565b60006020820190508181036000830152610fde8184610e50565b905092915050565b60006020820190508181036000830152610fff81610eba565b9050919050565b6000602082019050818103600083015261101f81610edd565b9050919050565b6000602082019050818103600083015261103f81610f00565b9050919050565b6000602082019050818103600083015261105f81610f23565b9050919050565b6000602082019050818103600083015261107f81610f46565b9050919050565b600060208201905061109b6000830184610f69565b92915050565b60006040820190506110b66000830185610f69565b6110c36020830184610f69565b9392505050565b600081519050919050565b600082825260208201905092915050565b600081905092915050565b60006110fc826111b8565b9150611107836111b8565b9250827fffffffffffffffffffffffffffffffffffffffffffffffffffffffffffffffff0382111561113c5761113b61126f565b5b828201905092915050565b6000611152826111b8565b915061115d836111b8565b92508261116d5761116c61129e565b5b828204905092915050565b6000611183826111b8565b915061118e836111b8565b9250828210156111a1576111a061126f565b5b828203905092915050565b60008115159050919050565b6000819050919050565b60005b838110156111e05780820151818401526020810190506111c5565b838111156111ef576000848401525b50505050565b6000611200826111b8565b91507fffffffffffffffffffffffffffffffffffffffffffffffffffffffffffffffff8214156112335761123261126f565b5b600182019050919050565b6000611249826111b8565b9150611254836111b8565b9250826112645761126361129e565b5b828206905092915050565b7f4e487b7100000000000000000000000000000000000000000000000000000000600052601160045260246000fd5b7f4e487b7100000000000000000000000000000000000000000000000000000000600052601260045260246000fd5b7f4e487b7100000000000000000000000000000000000000000000000000000000600052603260045260246000fd5b7f4e487b7100000000000000000000000000000000000000000000000000000000600052604160045260246000fd5b600080fd5b6000601f19601f8301169050919050565b7f43616c6c6572206973206e6f74206f776e657200000000000000000000000000600082015250565b7f636f6f6c20706572696f64206163746976617465640000000000000000000000600082015250565b7f45746865722073656e74206973206e6f7420636f727265637400000000000000600082015250565b7f7061757365640000000000000000000000000000000000000000000000000000600082015250565b7f746f6b656e206e6f742076616c69640000000000000000000000000000000000600082015250565b611417816111ac565b811461142257600080fd5b50565b61142e816111b8565b811461143957600080fd5b5056fea26469706673582212202366f3d69424cdc9e45631dcf10c678592889ca217793002535e3c28c3422bde64736f6c63430008070033",
  "immutableReferences": {},
  "source": "// SPDX-License-Identifier: MIT\n\npragma solidity ^0.8.0;\n\ncontract CryptoJackpot {\n\n    address private owner;\n    bool    public  _paused = false;\n    uint256 public  _maxPlayers = 100;\n    uint256 public  _price = 0.05 ether;\n    uint256 public  _winnerPrice = 4.75 ether;\n    uint256 public  _contestId = 0;\n    uint256 public  _winnerBlock = 0;\n    uint256 public  _coolPeriod = 1000;  //1000 blocks \n    bool    public  _coolPeriodStarted = false;\n\n    mapping (uint256 => address) private _tokenId2address;\n    mapping (uint256 => uint256) private _tokenId2block;\n    mapping (uint256 => uint256) private _tokenId2time;\n    mapping (uint256 => bool) private _tokenId2taken; \n\n    event Winner(uint256 contestId, uint256 tokenId);\n\n    constructor() {\n        owner = msg.sender;\n\t}\n    modifier onlyOwner() {\n        require(msg.sender == owner, \"Caller is not owner\");\n        _;\n    }\n    function joinContest(uint256 tokenId) external payable {\n        require(!_paused, \"paused\");\n        require(msg.value >= _price, \"Ether sent is not correct\");\n        require(tokenId > 0 && tokenId <= _maxPlayers, \"token not valid\");\n\n        if(_coolPeriodStarted) {  //new contest\n            require(block.number - _winnerBlock > _coolPeriod, \"cool period activated\");\n            _coolPeriodStarted = false;\n        }\n\n        _tokenId2address[tokenId] = msg.sender;\n        _tokenId2block[tokenId] = block.number;\n        _tokenId2time[tokenId] = block.timestamp;\n        _tokenId2taken[tokenId] = true;\n        \n        if(bytes(availableTokens()).length == 0) {\n            _contestId++;\n            selectWinner();\n        }\n    } \n    function selectWinner() internal {\n        uint256 tempVal = 0;\n        for(uint256 i = 1; i <= _maxPlayers; ++i) {\n            tempVal += _tokenId2block[i];\n            tempVal += _tokenId2time[i];\n            _tokenId2taken[i] = false;   //reset\n        }\n        \n        uint256 winnerTokenId = 1 + (tempVal % _maxPlayers);\n        payable(_tokenId2address[winnerTokenId]).transfer(_winnerPrice);\n        emit Winner(_contestId, winnerTokenId);\n        _coolPeriodStarted = true;\n        _winnerBlock = block.number;\n    }\n    function availableTokens() public view returns (string memory) {\n        string memory str;\n        for(uint256 i = 1; i <= _maxPlayers; ++i) {\n            if(_tokenId2taken[i] == false) {\n                str = string(abi.encodePacked(str, (bytes(str).length > 0 ? \",\" : \"\"), toString(i))); \n            }\n            if(bytes(str).length > 100) {\n                break;\n            }\n        }\n        return str;\n    }\n    function setCoolPeriod(uint256 _newVal) external onlyOwner {\n        _coolPeriod = _newVal;\n    }\n    function setMaxPlayers(uint256 _newVal) external onlyOwner {\n        _maxPlayers = _newVal;\n    }\n    function setPrice(uint256 _newVal) external onlyOwner {\n        _price = _newVal;\n    }\n    function setWinnerPrice(uint256 _newVal) external onlyOwner {\n        _winnerPrice = _newVal;\n    }\n    function setPause(bool val) external onlyOwner {\n        _paused = val;\n    }\n    function withdraw() external payable onlyOwner {\n        payable(msg.sender).transfer(address(this).balance);\n    }\n    function toString(uint256 value) internal pure returns (string memory) {\n        // Inspired by OraclizeAPI's implementation - MIT licence\n        // https://github.com/oraclize/ethereum-api/blob/b42146b063c7d6ee1358846c198246239e9360e8/oraclizeAPI_0.4.25.sol\n\n        if (value == 0) {\n            return \"0\";\n        }\n        uint256 temp = value;\n        uint256 digits;\n        while (temp != 0) {\n            digits++;\n            temp /= 10;\n        }\n        bytes memory buffer = new bytes(digits);\n        while (value != 0) {\n            digits -= 1;\n            buffer[digits] = bytes1(uint8(48 + uint256(value % 10)));\n            value /= 10;\n        }\n        return string(buffer);\n    }\n}\n",
  "sourcePath": "/home/ec2-user/github/nftlaunchpad-dapp/src/contracts/CryptoJackpot.sol",
  "compiler": {
    "name": "solc",
    "version": "0.8.7+commit.e28d00a7.Emscripten.clang"
  },
  "schemaVersion": "3.4.3",
  "updatedAt": "2022-02-12T11:13:36.758Z",
  "devdoc": {
    "kind": "dev",
    "methods": {},
    "version": 1
  },
  "userdoc": {
    "kind": "user",
    "methods": {},
    "version": 1
  }
}