{
  "contractName": "CryptoJackpot",
  "abi": [
    {
      "inputs": [],
      "stateMutability": "nonpayable",
      "type": "constructor"
    },
    {
      "anonymous": false,
      "inputs": [
        {
          "indexed": false,
          "internalType": "uint256",
          "name": "contestId",
          "type": "uint256"
        },
        {
          "indexed": false,
          "internalType": "uint256",
          "name": "tokenId",
          "type": "uint256"
        }
      ],
      "name": "Winner",
      "type": "event"
    },
    {
      "inputs": [],
      "name": "_contestId",
      "outputs": [
        {
          "internalType": "uint256",
          "name": "",
          "type": "uint256"
        }
      ],
      "stateMutability": "view",
      "type": "function"
    },
    {
      "inputs": [],
      "name": "_coolPeriod",
      "outputs": [
        {
          "internalType": "uint256",
          "name": "",
          "type": "uint256"
        }
      ],
      "stateMutability": "view",
      "type": "function"
    },
    {
      "inputs": [],
      "name": "_coolPeriodStarted",
      "outputs": [
        {
          "internalType": "bool",
          "name": "",
          "type": "bool"
        }
      ],
      "stateMutability": "view",
      "type": "function"
    },
    {
      "inputs": [],
      "name": "_maxPlayers",
      "outputs": [
        {
          "internalType": "uint256",
          "name": "",
          "type": "uint256"
        }
      ],
      "stateMutability": "view",
      "type": "function"
    },
    {
      "inputs": [],
      "name": "_paused",
      "outputs": [
        {
          "internalType": "bool",
          "name": "",
          "type": "bool"
        }
      ],
      "stateMutability": "view",
      "type": "function"
    },
    {
      "inputs": [],
      "name": "_price",
      "outputs": [
        {
          "internalType": "uint256",
          "name": "",
          "type": "uint256"
        }
      ],
      "stateMutability": "view",
      "type": "function"
    },
    {
      "inputs": [],
      "name": "_winnerBlock",
      "outputs": [
        {
          "internalType": "uint256",
          "name": "",
          "type": "uint256"
        }
      ],
      "stateMutability": "view",
      "type": "function"
    },
    {
      "inputs": [],
      "name": "_winnerPrice",
      "outputs": [
        {
          "internalType": "uint256",
          "name": "",
          "type": "uint256"
        }
      ],
      "stateMutability": "view",
      "type": "function"
    },
    {
      "inputs": [
        {
          "internalType": "uint256",
          "name": "tokenId",
          "type": "uint256"
        }
      ],
      "name": "joinContest",
      "outputs": [],
      "stateMutability": "payable",
      "type": "function"
    },
    {
      "inputs": [],
      "name": "availableTokens",
      "outputs": [
        {
          "internalType": "string",
          "name": "",
          "type": "string"
        }
      ],
      "stateMutability": "view",
      "type": "function"
    },
    {
      "inputs": [
        {
          "internalType": "uint256",
          "name": "_newVal",
          "type": "uint256"
        }
      ],
      "name": "setCoolPeriod",
      "outputs": [],
      "stateMutability": "nonpayable",
      "type": "function"
    },
    {
      "inputs": [
        {
          "internalType": "uint256",
          "name": "_newVal",
          "type": "uint256"
        }
      ],
      "name": "setMaxPlayers",
      "outputs": [],
      "stateMutability": "nonpayable",
      "type": "function"
    },
    {
      "inputs": [
        {
          "internalType": "uint256",
          "name": "_newVal",
          "type": "uint256"
        }
      ],
      "name": "setPrice",
      "outputs": [],
      "stateMutability": "nonpayable",
      "type": "function"
    },
    {
      "inputs": [
        {
          "internalType": "uint256",
          "name": "_newVal",
          "type": "uint256"
        }
      ],
      "name": "setWinnerPrice",
      "outputs": [],
      "stateMutability": "nonpayable",
      "type": "function"
    },
    {
      "inputs": [
        {
          "internalType": "bool",
          "name": "val",
          "type": "bool"
        }
      ],
      "name": "setPause",
      "outputs": [],
      "stateMutability": "nonpayable",
      "type": "function"
    },
    {
      "inputs": [],
      "name": "withdraw",
      "outputs": [],
      "stateMutability": "payable",
      "type": "function"
    }
  ],
  "bytecode": "0x608060405260008060146101000a81548160ff021916908315150217905550606460015566b1a2bc2ec500006002556741eb63d55b1b0000600355600060045560006005556103e86006556000600760006101000a81548160ff02191690831515021790555034801561007157600080fd5b50336000806101000a81548173ffffffffffffffffffffffffffffffffffffffff021916908373ffffffffffffffffffffffffffffffffffffffff160217905550611298806100c16000396000f3fe6080604052600436106100f35760003560e01c80634b020bc11161008a57806369bb4dc21161005957806369bb4dc2146102c657806391b7f5ed146102f1578063a3c4c88a1461031a578063bedb86fb14610345576100f3565b80634b020bc11461022957806352a63ab7146102545780635d6e6c7c1461027f5780636858f45d1461029b576100f3565b80632f242ed9116100c65780632f242ed9146101a257806336f8ae34146101cb5780633ccfd60b146101f4578063488d57e9146101fe576100f3565b806304534bd6146100f857806316c61ccc14610123578063235b6ea11461014e578063288dee3b14610179575b600080fd5b34801561010457600080fd5b5061010d61036e565b60405161011a9190610f31565b60405180910390f35b34801561012f57600080fd5b50610138610374565b6040516101459190610e54565b60405180910390f35b34801561015a57600080fd5b50610163610387565b6040516101709190610f31565b60405180910390f35b34801561018557600080fd5b506101a0600480360381019061019b9190610ca4565b61038d565b005b3480156101ae57600080fd5b506101c960048036038101906101c49190610ca4565b610425565b005b3480156101d757600080fd5b506101f260048036038101906101ed9190610ca4565b6104bd565b005b6101fc610555565b005b34801561020a57600080fd5b5061021361062c565b6040516102209190610f31565b60405180910390f35b34801561023557600080fd5b5061023e610632565b60405161024b9190610f31565b60405180910390f35b34801561026057600080fd5b50610269610638565b6040516102769190610f31565b60405180910390f35b61029960048036038101906102949190610ca4565b61063e565b005b3480156102a757600080fd5b506102b0610889565b6040516102bd9190610e54565b60405180910390f35b3480156102d257600080fd5b506102db61089c565b6040516102e89190610e6f565b60405180910390f35b3480156102fd57600080fd5b5061031860048036038101906103139190610ca4565b61097f565b005b34801561032657600080fd5b5061032f610a17565b60405161033c9190610f31565b60405180910390f35b34801561035157600080fd5b5061036c60048036038101906103679190610c77565b610a1d565b005b60015481565b600060149054906101000a900460ff1681565b60025481565b60008054906101000a900473ffffffffffffffffffffffffffffffffffffffff1673ffffffffffffffffffffffffffffffffffffffff163373ffffffffffffffffffffffffffffffffffffffff161461041b576040517f08c379a000000000000000000000000000000000000000000000000000000000815260040161041290610e91565b60405180910390fd5b8060018190555050565b60008054906101000a900473ffffffffffffffffffffffffffffffffffffffff1673ffffffffffffffffffffffffffffffffffffffff163373ffffffffffffffffffffffffffffffffffffffff16146104b3576040517f08c379a00000000000000000000000000000000000000000000000000000000081526004016104aa90610e91565b60405180910390fd5b8060068190555050565b60008054906101000a900473ffffffffffffffffffffffffffffffffffffffff1673ffffffffffffffffffffffffffffffffffffffff163373ffffffffffffffffffffffffffffffffffffffff161461054b576040517f08c379a000000000000000000000000000000000000000000000000000000000815260040161054290610e91565b60405180910390fd5b8060038190555050565b60008054906101000a900473ffffffffffffffffffffffffffffffffffffffff1673ffffffffffffffffffffffffffffffffffffffff163373ffffffffffffffffffffffffffffffffffffffff16146105e3576040517f08c379a00000000000000000000000000000000000000000000000000000000081526004016105da90610e91565b60405180910390fd5b3373ffffffffffffffffffffffffffffffffffffffff166108fc479081150290604051600060405180830381858888f19350505050158015610629573d6000803e3d6000fd5b50565b60045481565b60065481565b60055481565b600060149054906101000a900460ff161561068e576040517f08c379a000000000000000000000000000000000000000000000000000000000815260040161068590610ef1565b60405180910390fd5b6002543410156106d3576040517f08c379a00000000000000000000000000000000000000000000000000000000081526004016106ca90610ed1565b60405180910390fd5b6000811180156106e557506001548111155b610724576040517f08c379a000000000000000000000000000000000000000000000000000000000815260040161071b90610f11565b60405180910390fd5b600760009054906101000a900460ff16156107a6576006546005544361074a9190610ff2565b1161078a576040517f08c379a000000000000000000000000000000000000000000000000000000000815260040161078190610eb1565b60405180910390fd5b6000600760006101000a81548160ff0219169083151502179055505b336008600083815260200190815260200160002060006101000a81548173ffffffffffffffffffffffffffffffffffffffff021916908373ffffffffffffffffffffffffffffffffffffffff16021790555043600960008381526020019081526020016000208190555042600a6000838152602001908152602001600020819055506001600b600083815260200190815260200160002060006101000a81548160ff021916908315150217905550600061085e61089c565b51141561088657600460008154809291906108789061106f565b9190505550610885610ac8565b5b50565b600760009054906101000a900460ff1681565b6060806000600190505b60015481116109775760001515600b600083815260200190815260200160002060009054906101000a900460ff1615151415610957578160008351116108fb5760405180602001604052806000815250610932565b6040518060400160405280600181526020017f2c000000000000000000000000000000000000000000000000000000000000008152505b8260405160200161094593929190610e1f565b60405160208183030381529060405291505b60648251111561096657610977565b806109709061106f565b90506108a6565b508091505090565b60008054906101000a900473ffffffffffffffffffffffffffffffffffffffff1673ffffffffffffffffffffffffffffffffffffffff163373ffffffffffffffffffffffffffffffffffffffff1614610a0d576040517f08c379a0000000000000000000000000000000000000000000000000000000008152600401610a0490610e91565b60405180910390fd5b8060028190555050565b60035481565b60008054906101000a900473ffffffffffffffffffffffffffffffffffffffff1673ffffffffffffffffffffffffffffffffffffffff163373ffffffffffffffffffffffffffffffffffffffff1614610aab576040517f08c379a0000000000000000000000000000000000000000000000000000000008152600401610aa290610e91565b60405180910390fd5b80600060146101000a81548160ff02191690831515021790555050565b600080600190505b6001548111610b5857600960008281526020019081526020016000205482610af89190610f9c565b9150600a60008281526020019081526020016000205482610b199190610f9c565b91506000600b600083815260200190815260200160002060006101000a81548160ff02191690831515021790555080610b519061106f565b9050610ad0565b50600060015482610b6991906110c2565b6001610b759190610f9c565b90506008600082815260200190815260200160002060009054906101000a900473ffffffffffffffffffffffffffffffffffffffff1673ffffffffffffffffffffffffffffffffffffffff166108fc6003549081150290604051600060405180830381858888f19350505050158015610bf2573d6000803e3d6000fd5b507f2ec31526458a6f2e01dc51c3e1263edd5327aba8c14343743a9fd4e2a383395060045482604051610c26929190610f4c565b60405180910390a16001600760006101000a81548160ff0219169083151502179055505050565b600081359050610c5c81611234565b92915050565b600081359050610c718161124b565b92915050565b600060208284031215610c8d57610c8c611151565b5b6000610c9b84828501610c4d565b91505092915050565b600060208284031215610cba57610cb9611151565b5b6000610cc884828501610c62565b91505092915050565b610cda81611026565b82525050565b6000610ceb82610f75565b610cf58185610f80565b9350610d0581856020860161103c565b610d0e81611156565b840191505092915050565b6000610d2482610f75565b610d2e8185610f91565b9350610d3e81856020860161103c565b80840191505092915050565b6000610d57601383610f80565b9150610d6282611167565b602082019050919050565b6000610d7a601583610f80565b9150610d8582611190565b602082019050919050565b6000610d9d601983610f80565b9150610da8826111b9565b602082019050919050565b6000610dc0600683610f80565b9150610dcb826111e2565b602082019050919050565b6000610de3600f83610f80565b9150610dee8261120b565b602082019050919050565b610e0281611032565b82525050565b610e19610e1482611032565b6110b8565b82525050565b6000610e2b8286610d19565b9150610e378285610d19565b9150610e438284610e08565b602082019150819050949350505050565b6000602082019050610e696000830184610cd1565b92915050565b60006020820190508181036000830152610e898184610ce0565b905092915050565b60006020820190508181036000830152610eaa81610d4a565b9050919050565b60006020820190508181036000830152610eca81610d6d565b9050919050565b60006020820190508181036000830152610eea81610d90565b9050919050565b60006020820190508181036000830152610f0a81610db3565b9050919050565b60006020820190508181036000830152610f2a81610dd6565b9050919050565b6000602082019050610f466000830184610df9565b92915050565b6000604082019050610f616000830185610df9565b610f6e6020830184610df9565b9392505050565b600081519050919050565b600082825260208201905092915050565b600081905092915050565b6000610fa782611032565b9150610fb283611032565b9250827fffffffffffffffffffffffffffffffffffffffffffffffffffffffffffffffff03821115610fe757610fe66110f3565b5b828201905092915050565b6000610ffd82611032565b915061100883611032565b92508282101561101b5761101a6110f3565b5b828203905092915050565b60008115159050919050565b6000819050919050565b60005b8381101561105a57808201518184015260208101905061103f565b83811115611069576000848401525b50505050565b600061107a82611032565b91507fffffffffffffffffffffffffffffffffffffffffffffffffffffffffffffffff8214156110ad576110ac6110f3565b5b600182019050919050565b6000819050919050565b60006110cd82611032565b91506110d883611032565b9250826110e8576110e7611122565b5b828206905092915050565b7f4e487b7100000000000000000000000000000000000000000000000000000000600052601160045260246000fd5b7f4e487b7100000000000000000000000000000000000000000000000000000000600052601260045260246000fd5b600080fd5b6000601f19601f8301169050919050565b7f43616c6c6572206973206e6f74206f776e657200000000000000000000000000600082015250565b7f636f6f6c20706572696f64206163746976617465640000000000000000000000600082015250565b7f45746865722073656e74206973206e6f7420636f727265637400000000000000600082015250565b7f7061757365640000000000000000000000000000000000000000000000000000600082015250565b7f746f6b656e206e6f742076616c69640000000000000000000000000000000000600082015250565b61123d81611026565b811461124857600080fd5b50565b61125481611032565b811461125f57600080fd5b5056fea2646970667358221220f9aa43261ce305307df3f06b3c1ce47ec1d03808c0d71104243e540f1c7bd1c864736f6c63430008070033",
  "immutableReferences": {},
  "source": "// SPDX-License-Identifier: MIT\n\npragma solidity ^0.8.0;\n\ncontract CryptoJackpot {\n\n    address private owner;\n    bool    public  _paused = false;\n    uint256 public  _maxPlayers = 100;\n    uint256 public  _price = 0.05 ether;\n    uint256 public  _winnerPrice = 4.75 ether;\n    uint256 public  _contestId = 0;\n    uint256 public  _winnerBlock = 0;\n    uint256 public  _coolPeriod = 1000;  //1000 blocks \n    bool    public  _coolPeriodStarted = false;\n\n    mapping (uint256 => address) private _tokenId2address;\n    mapping (uint256 => uint256) private _tokenId2block;\n    mapping (uint256 => uint256) private _tokenId2time;\n    mapping (uint256 => bool) private _tokenId2taken; \n\n    event Winner(uint256 contestId, uint256 tokenId);\n\n    constructor() {\n        owner = msg.sender;\n\t}\n    modifier onlyOwner() {\n        require(msg.sender == owner, \"Caller is not owner\");\n        _;\n    }\n    function joinContest(uint256 tokenId) external payable {\n        require(!_paused, \"paused\");\n        require(msg.value >= _price, \"Ether sent is not correct\");\n        require(tokenId > 0 && tokenId <= _maxPlayers, \"token not valid\");\n\n        if(_coolPeriodStarted) {  //new contest\n            require(block.number - _winnerBlock > _coolPeriod, \"cool period activated\");\n            _coolPeriodStarted = false;\n        }\n\n        _tokenId2address[tokenId] = msg.sender;\n        _tokenId2block[tokenId] = block.number;\n        _tokenId2time[tokenId] = block.timestamp;\n        _tokenId2taken[tokenId] = true;\n        \n        if(bytes(availableTokens()).length == 0) {\n            _contestId++;\n            selectWinner();\n        }\n    } \n    function selectWinner() internal {\n        uint256 tempVal = 0;\n        for(uint256 i = 1; i <= _maxPlayers; ++i) {\n            tempVal += _tokenId2block[i];\n            tempVal += _tokenId2time[i];\n            _tokenId2taken[i] = false;   //reset\n        }\n        \n        uint256 winnerTokenId = 1 + (tempVal % _maxPlayers);\n        payable(_tokenId2address[winnerTokenId]).transfer(_winnerPrice);\n        emit Winner(_contestId, winnerTokenId);\n        _coolPeriodStarted = true;\n    }\n    function availableTokens() public view returns (string memory) {\n        string memory str;\n        for(uint256 i = 1; i <= _maxPlayers; ++i) {\n            if(_tokenId2taken[i] == false) {\n                str = string(abi.encodePacked(str, (bytes(str).length > 0 ? \",\" : \"\"), i)); \n            }\n            if(bytes(str).length > 100) {\n                break;\n            }\n        }\n        return str;\n    }\n    function setCoolPeriod(uint256 _newVal) external onlyOwner {\n        _coolPeriod = _newVal;\n    }\n    function setMaxPlayers(uint256 _newVal) external onlyOwner {\n        _maxPlayers = _newVal;\n    }\n    function setPrice(uint256 _newVal) external onlyOwner {\n        _price = _newVal;\n    }\n    function setWinnerPrice(uint256 _newVal) external onlyOwner {\n        _winnerPrice = _newVal;\n    }\n    function setPause(bool val) external onlyOwner {\n        _paused = val;\n    }\n    function withdraw() external payable onlyOwner {\n        payable(msg.sender).transfer(address(this).balance);\n    }\n}\n",
  "sourcePath": "/home/ec2-user/github/nftlaunchpad-dapp/src/contracts/CryptoJackpot.sol",
  "compiler": {
    "name": "solc",
    "version": "0.8.7+commit.e28d00a7.Emscripten.clang"
  },
  "schemaVersion": "3.4.3",
  "updatedAt": "2022-02-12T04:49:03.274Z",
  "devdoc": {
    "kind": "dev",
    "methods": {},
    "version": 1
  },
  "userdoc": {
    "kind": "user",
    "methods": {},
    "version": 1
  }
}