{
  "contractName": "CryptoBabes",
  "abi": [
    {
      "inputs": [],
      "stateMutability": "nonpayable",
      "type": "constructor"
    },
    {
      "anonymous": false,
      "inputs": [
        {
          "indexed": true,
          "internalType": "address",
          "name": "owner",
          "type": "address"
        },
        {
          "indexed": true,
          "internalType": "address",
          "name": "approved",
          "type": "address"
        },
        {
          "indexed": true,
          "internalType": "uint256",
          "name": "tokenId",
          "type": "uint256"
        }
      ],
      "name": "Approval",
      "type": "event"
    },
    {
      "anonymous": false,
      "inputs": [
        {
          "indexed": true,
          "internalType": "address",
          "name": "owner",
          "type": "address"
        },
        {
          "indexed": true,
          "internalType": "address",
          "name": "operator",
          "type": "address"
        },
        {
          "indexed": false,
          "internalType": "bool",
          "name": "approved",
          "type": "bool"
        }
      ],
      "name": "ApprovalForAll",
      "type": "event"
    },
    {
      "anonymous": false,
      "inputs": [
        {
          "indexed": true,
          "internalType": "address",
          "name": "previousOwner",
          "type": "address"
        },
        {
          "indexed": true,
          "internalType": "address",
          "name": "newOwner",
          "type": "address"
        }
      ],
      "name": "OwnershipTransferred",
      "type": "event"
    },
    {
      "anonymous": false,
      "inputs": [
        {
          "indexed": true,
          "internalType": "address",
          "name": "from",
          "type": "address"
        },
        {
          "indexed": true,
          "internalType": "address",
          "name": "to",
          "type": "address"
        },
        {
          "indexed": true,
          "internalType": "uint256",
          "name": "tokenId",
          "type": "uint256"
        }
      ],
      "name": "Transfer",
      "type": "event"
    },
    {
      "inputs": [],
      "name": "_babeURI",
      "outputs": [
        {
          "internalType": "string",
          "name": "",
          "type": "string"
        }
      ],
      "stateMutability": "view",
      "type": "function"
    },
    {
      "inputs": [],
      "name": "_desc",
      "outputs": [
        {
          "internalType": "string",
          "name": "",
          "type": "string"
        }
      ],
      "stateMutability": "view",
      "type": "function"
    },
    {
      "inputs": [],
      "name": "_maxSupply",
      "outputs": [
        {
          "internalType": "uint256",
          "name": "",
          "type": "uint256"
        }
      ],
      "stateMutability": "view",
      "type": "function"
    },
    {
      "inputs": [],
      "name": "_paused",
      "outputs": [
        {
          "internalType": "bool",
          "name": "",
          "type": "bool"
        }
      ],
      "stateMutability": "view",
      "type": "function"
    },
    {
      "inputs": [],
      "name": "_price",
      "outputs": [
        {
          "internalType": "uint256",
          "name": "",
          "type": "uint256"
        }
      ],
      "stateMutability": "view",
      "type": "function"
    },
    {
      "inputs": [
        {
          "internalType": "address",
          "name": "to",
          "type": "address"
        },
        {
          "internalType": "uint256",
          "name": "tokenId",
          "type": "uint256"
        }
      ],
      "name": "approve",
      "outputs": [],
      "stateMutability": "nonpayable",
      "type": "function"
    },
    {
      "inputs": [
        {
          "internalType": "address",
          "name": "owner",
          "type": "address"
        }
      ],
      "name": "balanceOf",
      "outputs": [
        {
          "internalType": "uint256",
          "name": "",
          "type": "uint256"
        }
      ],
      "stateMutability": "view",
      "type": "function"
    },
    {
      "inputs": [
        {
          "internalType": "uint256",
          "name": "tokenId",
          "type": "uint256"
        }
      ],
      "name": "getApproved",
      "outputs": [
        {
          "internalType": "address",
          "name": "",
          "type": "address"
        }
      ],
      "stateMutability": "view",
      "type": "function"
    },
    {
      "inputs": [
        {
          "internalType": "address",
          "name": "owner",
          "type": "address"
        },
        {
          "internalType": "address",
          "name": "operator",
          "type": "address"
        }
      ],
      "name": "isApprovedForAll",
      "outputs": [
        {
          "internalType": "bool",
          "name": "",
          "type": "bool"
        }
      ],
      "stateMutability": "view",
      "type": "function"
    },
    {
      "inputs": [],
      "name": "name",
      "outputs": [
        {
          "internalType": "string",
          "name": "",
          "type": "string"
        }
      ],
      "stateMutability": "view",
      "type": "function"
    },
    {
      "inputs": [],
      "name": "owner",
      "outputs": [
        {
          "internalType": "address",
          "name": "",
          "type": "address"
        }
      ],
      "stateMutability": "view",
      "type": "function"
    },
    {
      "inputs": [
        {
          "internalType": "uint256",
          "name": "tokenId",
          "type": "uint256"
        }
      ],
      "name": "ownerOf",
      "outputs": [
        {
          "internalType": "address",
          "name": "",
          "type": "address"
        }
      ],
      "stateMutability": "view",
      "type": "function"
    },
    {
      "inputs": [],
      "name": "renounceOwnership",
      "outputs": [],
      "stateMutability": "nonpayable",
      "type": "function"
    },
    {
      "inputs": [
        {
          "internalType": "address",
          "name": "from",
          "type": "address"
        },
        {
          "internalType": "address",
          "name": "to",
          "type": "address"
        },
        {
          "internalType": "uint256",
          "name": "tokenId",
          "type": "uint256"
        }
      ],
      "name": "safeTransferFrom",
      "outputs": [],
      "stateMutability": "nonpayable",
      "type": "function"
    },
    {
      "inputs": [
        {
          "internalType": "address",
          "name": "from",
          "type": "address"
        },
        {
          "internalType": "address",
          "name": "to",
          "type": "address"
        },
        {
          "internalType": "uint256",
          "name": "tokenId",
          "type": "uint256"
        },
        {
          "internalType": "bytes",
          "name": "_data",
          "type": "bytes"
        }
      ],
      "name": "safeTransferFrom",
      "outputs": [],
      "stateMutability": "nonpayable",
      "type": "function"
    },
    {
      "inputs": [
        {
          "internalType": "address",
          "name": "operator",
          "type": "address"
        },
        {
          "internalType": "bool",
          "name": "approved",
          "type": "bool"
        }
      ],
      "name": "setApprovalForAll",
      "outputs": [],
      "stateMutability": "nonpayable",
      "type": "function"
    },
    {
      "inputs": [
        {
          "internalType": "bytes4",
          "name": "interfaceId",
          "type": "bytes4"
        }
      ],
      "name": "supportsInterface",
      "outputs": [
        {
          "internalType": "bool",
          "name": "",
          "type": "bool"
        }
      ],
      "stateMutability": "view",
      "type": "function"
    },
    {
      "inputs": [],
      "name": "symbol",
      "outputs": [
        {
          "internalType": "string",
          "name": "",
          "type": "string"
        }
      ],
      "stateMutability": "view",
      "type": "function"
    },
    {
      "inputs": [
        {
          "internalType": "uint256",
          "name": "index",
          "type": "uint256"
        }
      ],
      "name": "tokenByIndex",
      "outputs": [
        {
          "internalType": "uint256",
          "name": "",
          "type": "uint256"
        }
      ],
      "stateMutability": "view",
      "type": "function"
    },
    {
      "inputs": [
        {
          "internalType": "address",
          "name": "owner",
          "type": "address"
        },
        {
          "internalType": "uint256",
          "name": "index",
          "type": "uint256"
        }
      ],
      "name": "tokenOfOwnerByIndex",
      "outputs": [
        {
          "internalType": "uint256",
          "name": "",
          "type": "uint256"
        }
      ],
      "stateMutability": "view",
      "type": "function"
    },
    {
      "inputs": [
        {
          "internalType": "uint256",
          "name": "tokenId",
          "type": "uint256"
        }
      ],
      "name": "tokenURI",
      "outputs": [
        {
          "internalType": "string",
          "name": "",
          "type": "string"
        }
      ],
      "stateMutability": "view",
      "type": "function"
    },
    {
      "inputs": [],
      "name": "totalSupply",
      "outputs": [
        {
          "internalType": "uint256",
          "name": "",
          "type": "uint256"
        }
      ],
      "stateMutability": "view",
      "type": "function"
    },
    {
      "inputs": [
        {
          "internalType": "address",
          "name": "from",
          "type": "address"
        },
        {
          "internalType": "address",
          "name": "to",
          "type": "address"
        },
        {
          "internalType": "uint256",
          "name": "tokenId",
          "type": "uint256"
        }
      ],
      "name": "transferFrom",
      "outputs": [],
      "stateMutability": "nonpayable",
      "type": "function"
    },
    {
      "inputs": [
        {
          "internalType": "address",
          "name": "newOwner",
          "type": "address"
        }
      ],
      "name": "transferOwnership",
      "outputs": [],
      "stateMutability": "nonpayable",
      "type": "function"
    },
    {
      "inputs": [
        {
          "internalType": "uint256",
          "name": "tokenId",
          "type": "uint256"
        }
      ],
      "name": "mint",
      "outputs": [],
      "stateMutability": "payable",
      "type": "function"
    },
    {
      "inputs": [
        {
          "internalType": "uint256",
          "name": "newVal",
          "type": "uint256"
        }
      ],
      "name": "setMaxSupply",
      "outputs": [],
      "stateMutability": "nonpayable",
      "type": "function"
    },
    {
      "inputs": [
        {
          "internalType": "uint256",
          "name": "_newPrice",
          "type": "uint256"
        }
      ],
      "name": "setPrice",
      "outputs": [],
      "stateMutability": "nonpayable",
      "type": "function"
    },
    {
      "inputs": [
        {
          "internalType": "bool",
          "name": "val",
          "type": "bool"
        }
      ],
      "name": "setPause",
      "outputs": [],
      "stateMutability": "nonpayable",
      "type": "function"
    },
    {
      "inputs": [],
      "name": "withdraw",
      "outputs": [],
      "stateMutability": "payable",
      "type": "function"
    }
  ],
  "bytecode": "0x60806040526103e8600b5566b1a2bc2ec50000600c556000600d60006101000a81548160ff0219169083151502179055503480156200003d57600080fd5b506040518060400160405280600b81526020017f43727970746f42616265730000000000000000000000000000000000000000008152506040518060400160405280600a81526020017f43525950544f42414245000000000000000000000000000000000000000000008152508160009080519060200190620000c2929190620001d2565b508060019080519060200190620000db929190620001d2565b505050620000fe620000f26200010460201b60201c565b6200010c60201b60201c565b620002e7565b600033905090565b6000600a60009054906101000a900473ffffffffffffffffffffffffffffffffffffffff16905081600a60006101000a81548173ffffffffffffffffffffffffffffffffffffffff021916908373ffffffffffffffffffffffffffffffffffffffff1602179055508173ffffffffffffffffffffffffffffffffffffffff168173ffffffffffffffffffffffffffffffffffffffff167f8be0079c531659141344cd1fd0a4f28419497f9722a3daafe3b4186f6b6457e060405160405180910390a35050565b828054620001e09062000282565b90600052602060002090601f01602090048101928262000204576000855562000250565b82601f106200021f57805160ff191683800117855562000250565b8280016001018555821562000250579182015b828111156200024f57825182559160200191906001019062000232565b5b5090506200025f919062000263565b5090565b5b808211156200027e57600081600090555060010162000264565b5090565b600060028204905060018216806200029b57607f821691505b60208210811415620002b257620002b1620002b8565b5b50919050565b7f4e487b7100000000000000000000000000000000000000000000000000000000600052602260045260246000fd5b613b6380620002f76000396000f3fe6080604052600436106101c25760003560e01c80635f8d7699116100f757806395d89b4111610095578063bedb86fb11610064578063bedb86fb14610614578063c87b56dd1461063d578063e985e9c51461067a578063f2fde38b146106b7576101c2565b806395d89b411461057b578063a0712d68146105a6578063a22cb465146105c2578063b88d4fde146105eb576101c2565b806370a08231116100d157806370a08231146104d3578063715018a6146105105780638da5cb5b1461052757806391b7f5ed14610552576101c2565b80635f8d7699146104425780636352211e1461046d5780636f8b44b0146104aa576101c2565b8063235b6ea1116101645780632f745c591161013e5780632f745c59146103955780633ccfd60b146103d257806342842e0e146103dc5780634f6ccce714610405576101c2565b8063235b6ea11461031657806323b872dd1461034157806327e756f91461036a576101c2565b8063095ea7b3116101a0578063095ea7b31461026c57806316c61ccc1461029557806318160ddd146102c057806322f4596f146102eb576101c2565b806301ffc9a7146101c757806306fdde0314610204578063081812fc1461022f575b600080fd5b3480156101d357600080fd5b506101ee60048036038101906101e991906128da565b6106e0565b6040516101fb9190612d9b565b60405180910390f35b34801561021057600080fd5b5061021961075a565b6040516102269190612db6565b60405180910390f35b34801561023b57600080fd5b5061025660048036038101906102519190612934565b6107ec565b6040516102639190612d34565b60405180910390f35b34801561027857600080fd5b50610293600480360381019061028e919061286d565b610871565b005b3480156102a157600080fd5b506102aa610989565b6040516102b79190612d9b565b60405180910390f35b3480156102cc57600080fd5b506102d561099c565b6040516102e29190613078565b60405180910390f35b3480156102f757600080fd5b506103006109a9565b60405161030d9190613078565b60405180910390f35b34801561032257600080fd5b5061032b6109af565b6040516103389190613078565b60405180910390f35b34801561034d57600080fd5b5061036860048036038101906103639190612757565b6109b5565b005b34801561037657600080fd5b5061037f610a15565b60405161038c9190612db6565b60405180910390f35b3480156103a157600080fd5b506103bc60048036038101906103b7919061286d565b610a31565b6040516103c99190613078565b60405180910390f35b6103da610ad6565b005b3480156103e857600080fd5b5061040360048036038101906103fe9190612757565b610b9b565b005b34801561041157600080fd5b5061042c60048036038101906104279190612934565b610bbb565b6040516104399190613078565b60405180910390f35b34801561044e57600080fd5b50610457610c2c565b6040516104649190612db6565b60405180910390f35b34801561047957600080fd5b50610494600480360381019061048f9190612934565b610c48565b6040516104a19190612d34565b60405180910390f35b3480156104b657600080fd5b506104d160048036038101906104cc9190612934565b610cfa565b005b3480156104df57600080fd5b506104fa60048036038101906104f591906126ea565b610d80565b6040516105079190613078565b60405180910390f35b34801561051c57600080fd5b50610525610e38565b005b34801561053357600080fd5b5061053c610ec0565b6040516105499190612d34565b60405180910390f35b34801561055e57600080fd5b5061057960048036038101906105749190612934565b610eea565b005b34801561058757600080fd5b50610590610f70565b60405161059d9190612db6565b60405180910390f35b6105c060048036038101906105bb9190612934565b611002565b005b3480156105ce57600080fd5b506105e960048036038101906105e4919061282d565b6110fc565b005b3480156105f757600080fd5b50610612600480360381019061060d91906127aa565b61127d565b005b34801561062057600080fd5b5061063b600480360381019061063691906128ad565b6112df565b005b34801561064957600080fd5b50610664600480360381019061065f9190612934565b611378565b6040516106719190612db6565b60405180910390f35b34801561068657600080fd5b506106a1600480360381019061069c9190612717565b61141f565b6040516106ae9190612d9b565b60405180910390f35b3480156106c357600080fd5b506106de60048036038101906106d991906126ea565b6114b3565b005b60007f780e9d63000000000000000000000000000000000000000000000000000000007bffffffffffffffffffffffffffffffffffffffffffffffffffffffff1916827bffffffffffffffffffffffffffffffffffffffffffffffffffffffff191614806107535750610752826115ab565b5b9050919050565b6060600080546107699061329d565b80601f01602080910402602001604051908101604052809291908181526020018280546107959061329d565b80156107e25780601f106107b7576101008083540402835291602001916107e2565b820191906000526020600020905b8154815290600101906020018083116107c557829003601f168201915b5050505050905090565b60006107f78261168d565b610836576040517f08c379a000000000000000000000000000000000000000000000000000000000815260040161082d90612f58565b60405180910390fd5b6004600083815260200190815260200160002060009054906101000a900473ffffffffffffffffffffffffffffffffffffffff169050919050565b600061087c82610c48565b90508073ffffffffffffffffffffffffffffffffffffffff168373ffffffffffffffffffffffffffffffffffffffff1614156108ed576040517f08c379a00000000000000000000000000000000000000000000000000000000081526004016108e490612fd8565b60405180910390fd5b8073ffffffffffffffffffffffffffffffffffffffff1661090c6116f9565b73ffffffffffffffffffffffffffffffffffffffff16148061093b575061093a816109356116f9565b61141f565b5b61097a576040517f08c379a000000000000000000000000000000000000000000000000000000000815260040161097190612ed8565b60405180910390fd5b6109848383611701565b505050565b600d60009054906101000a900460ff1681565b6000600880549050905090565b600b5481565b600c5481565b6109c66109c06116f9565b826117ba565b610a05576040517f08c379a00000000000000000000000000000000000000000000000000000000081526004016109fc90613038565b60405180910390fd5b610a10838383611898565b505050565b6040518060600160405280602f8152602001613aff602f913981565b6000610a3c83610d80565b8210610a7d576040517f08c379a0000000000000000000000000000000000000000000000000000000008152600401610a7490612df8565b60405180910390fd5b600660008473ffffffffffffffffffffffffffffffffffffffff1673ffffffffffffffffffffffffffffffffffffffff168152602001908152602001600020600083815260200190815260200160002054905092915050565b610ade6116f9565b73ffffffffffffffffffffffffffffffffffffffff16610afc610ec0565b73ffffffffffffffffffffffffffffffffffffffff1614610b52576040517f08c379a0000000000000000000000000000000000000000000000000000000008152600401610b4990612f78565b60405180910390fd5b3373ffffffffffffffffffffffffffffffffffffffff166108fc479081150290604051600060405180830381858888f19350505050158015610b98573d6000803e3d6000fd5b50565b610bb68383836040518060200160405280600081525061127d565b505050565b6000610bc561099c565b8210610c06576040517f08c379a0000000000000000000000000000000000000000000000000000000008152600401610bfd90613058565b60405180910390fd5b60088281548110610c1a57610c19613436565b5b90600052602060002001549050919050565b6040518060a0016040528060788152602001613a876078913981565b6000806002600084815260200190815260200160002060009054906101000a900473ffffffffffffffffffffffffffffffffffffffff169050600073ffffffffffffffffffffffffffffffffffffffff168173ffffffffffffffffffffffffffffffffffffffff161415610cf1576040517f08c379a0000000000000000000000000000000000000000000000000000000008152600401610ce890612f18565b60405180910390fd5b80915050919050565b610d026116f9565b73ffffffffffffffffffffffffffffffffffffffff16610d20610ec0565b73ffffffffffffffffffffffffffffffffffffffff1614610d76576040517f08c379a0000000000000000000000000000000000000000000000000000000008152600401610d6d90612f78565b60405180910390fd5b80600b8190555050565b60008073ffffffffffffffffffffffffffffffffffffffff168273ffffffffffffffffffffffffffffffffffffffff161415610df1576040517f08c379a0000000000000000000000000000000000000000000000000000000008152600401610de890612ef8565b60405180910390fd5b600360008373ffffffffffffffffffffffffffffffffffffffff1673ffffffffffffffffffffffffffffffffffffffff168152602001908152602001600020549050919050565b610e406116f9565b73ffffffffffffffffffffffffffffffffffffffff16610e5e610ec0565b73ffffffffffffffffffffffffffffffffffffffff1614610eb4576040517f08c379a0000000000000000000000000000000000000000000000000000000008152600401610eab90612f78565b60405180910390fd5b610ebe6000611af4565b565b6000600a60009054906101000a900473ffffffffffffffffffffffffffffffffffffffff16905090565b610ef26116f9565b73ffffffffffffffffffffffffffffffffffffffff16610f10610ec0565b73ffffffffffffffffffffffffffffffffffffffff1614610f66576040517f08c379a0000000000000000000000000000000000000000000000000000000008152600401610f5d90612f78565b60405180910390fd5b80600c8190555050565b606060018054610f7f9061329d565b80601f0160208091040260200160405190810160405280929190818152602001828054610fab9061329d565b8015610ff85780601f10610fcd57610100808354040283529160200191610ff8565b820191906000526020600020905b815481529060010190602001808311610fdb57829003601f168201915b5050505050905090565b600d60009054906101000a900460ff1615611052576040517f08c379a000000000000000000000000000000000000000000000000000000000815260040161104990612dd8565b60405180910390fd5b60008111801561106b5750600b5461106861099c565b11155b6110aa576040517f08c379a00000000000000000000000000000000000000000000000000000000081526004016110a190612ff8565b60405180910390fd5b600c543410156110ef576040517f08c379a00000000000000000000000000000000000000000000000000000000081526004016110e690613018565b60405180910390fd5b6110f93382611bba565b50565b6111046116f9565b73ffffffffffffffffffffffffffffffffffffffff168273ffffffffffffffffffffffffffffffffffffffff161415611172576040517f08c379a000000000000000000000000000000000000000000000000000000000815260040161116990612e98565b60405180910390fd5b806005600061117f6116f9565b73ffffffffffffffffffffffffffffffffffffffff1673ffffffffffffffffffffffffffffffffffffffff16815260200190815260200160002060008473ffffffffffffffffffffffffffffffffffffffff1673ffffffffffffffffffffffffffffffffffffffff16815260200190815260200160002060006101000a81548160ff0219169083151502179055508173ffffffffffffffffffffffffffffffffffffffff1661122c6116f9565b73ffffffffffffffffffffffffffffffffffffffff167f17307eab39ab6107e8899845ad3d59bd9653f200f220920489ca2b5937696c31836040516112719190612d9b565b60405180910390a35050565b61128e6112886116f9565b836117ba565b6112cd576040517f08c379a00000000000000000000000000000000000000000000000000000000081526004016112c490613038565b60405180910390fd5b6112d984848484611bd8565b50505050565b6112e76116f9565b73ffffffffffffffffffffffffffffffffffffffff16611305610ec0565b73ffffffffffffffffffffffffffffffffffffffff161461135b576040517f08c379a000000000000000000000000000000000000000000000000000000000815260040161135290612f78565b60405180910390fd5b80600d60006101000a81548160ff02191690831515021790555050565b60606113838261168d565b6113c2576040517f08c379a00000000000000000000000000000000000000000000000000000000081526004016113b990612fb8565b60405180910390fd5b60006113cc611c34565b905060008151116113ec5760405180602001604052806000815250611417565b806113f684611c54565b604051602001611407929190612d10565b6040516020818303038152906040525b915050919050565b6000600560008473ffffffffffffffffffffffffffffffffffffffff1673ffffffffffffffffffffffffffffffffffffffff16815260200190815260200160002060008373ffffffffffffffffffffffffffffffffffffffff1673ffffffffffffffffffffffffffffffffffffffff16815260200190815260200160002060009054906101000a900460ff16905092915050565b6114bb6116f9565b73ffffffffffffffffffffffffffffffffffffffff166114d9610ec0565b73ffffffffffffffffffffffffffffffffffffffff161461152f576040517f08c379a000000000000000000000000000000000000000000000000000000000815260040161152690612f78565b60405180910390fd5b600073ffffffffffffffffffffffffffffffffffffffff168173ffffffffffffffffffffffffffffffffffffffff16141561159f576040517f08c379a000000000000000000000000000000000000000000000000000000000815260040161159690612e38565b60405180910390fd5b6115a881611af4565b50565b60007f80ac58cd000000000000000000000000000000000000000000000000000000007bffffffffffffffffffffffffffffffffffffffffffffffffffffffff1916827bffffffffffffffffffffffffffffffffffffffffffffffffffffffff1916148061167657507f5b5e139f000000000000000000000000000000000000000000000000000000007bffffffffffffffffffffffffffffffffffffffffffffffffffffffff1916827bffffffffffffffffffffffffffffffffffffffffffffffffffffffff1916145b80611686575061168582611db5565b5b9050919050565b60008073ffffffffffffffffffffffffffffffffffffffff166002600084815260200190815260200160002060009054906101000a900473ffffffffffffffffffffffffffffffffffffffff1673ffffffffffffffffffffffffffffffffffffffff1614159050919050565b600033905090565b816004600083815260200190815260200160002060006101000a81548173ffffffffffffffffffffffffffffffffffffffff021916908373ffffffffffffffffffffffffffffffffffffffff160217905550808273ffffffffffffffffffffffffffffffffffffffff1661177483610c48565b73ffffffffffffffffffffffffffffffffffffffff167f8c5be1e5ebec7d5bd14f71427d1e84f3dd0314c0f7b2291e5b200ac8c7c3b92560405160405180910390a45050565b60006117c58261168d565b611804576040517f08c379a00000000000000000000000000000000000000000000000000000000081526004016117fb90612eb8565b60405180910390fd5b600061180f83610c48565b90508073ffffffffffffffffffffffffffffffffffffffff168473ffffffffffffffffffffffffffffffffffffffff16148061187e57508373ffffffffffffffffffffffffffffffffffffffff16611866846107ec565b73ffffffffffffffffffffffffffffffffffffffff16145b8061188f575061188e818561141f565b5b91505092915050565b8273ffffffffffffffffffffffffffffffffffffffff166118b882610c48565b73ffffffffffffffffffffffffffffffffffffffff161461190e576040517f08c379a000000000000000000000000000000000000000000000000000000000815260040161190590612f98565b60405180910390fd5b600073ffffffffffffffffffffffffffffffffffffffff168273ffffffffffffffffffffffffffffffffffffffff16141561197e576040517f08c379a000000000000000000000000000000000000000000000000000000000815260040161197590612e78565b60405180910390fd5b611989838383611e1f565b611994600082611701565b6001600360008573ffffffffffffffffffffffffffffffffffffffff1673ffffffffffffffffffffffffffffffffffffffff16815260200190815260200160002060008282546119e491906131b3565b925050819055506001600360008473ffffffffffffffffffffffffffffffffffffffff1673ffffffffffffffffffffffffffffffffffffffff1681526020019081526020016000206000828254611a3b919061312c565b92505081905550816002600083815260200190815260200160002060006101000a81548173ffffffffffffffffffffffffffffffffffffffff021916908373ffffffffffffffffffffffffffffffffffffffff160217905550808273ffffffffffffffffffffffffffffffffffffffff168473ffffffffffffffffffffffffffffffffffffffff167fddf252ad1be2c89b69c2b068fc378daa952ba7f163c4a11628f55a4df523b3ef60405160405180910390a4505050565b6000600a60009054906101000a900473ffffffffffffffffffffffffffffffffffffffff16905081600a60006101000a81548173ffffffffffffffffffffffffffffffffffffffff021916908373ffffffffffffffffffffffffffffffffffffffff1602179055508173ffffffffffffffffffffffffffffffffffffffff168173ffffffffffffffffffffffffffffffffffffffff167f8be0079c531659141344cd1fd0a4f28419497f9722a3daafe3b4186f6b6457e060405160405180910390a35050565b611bd4828260405180602001604052806000815250611f33565b5050565b611be3848484611898565b611bef84848484611f8e565b611c2e576040517f08c379a0000000000000000000000000000000000000000000000000000000008152600401611c2590612e18565b60405180910390fd5b50505050565b60606040518060600160405280602f8152602001613aff602f9139905090565b60606000821415611c9c576040518060400160405280600181526020017f30000000000000000000000000000000000000000000000000000000000000008152509050611db0565b600082905060005b60008214611cce578080611cb790613300565b915050600a82611cc79190613182565b9150611ca4565b60008167ffffffffffffffff811115611cea57611ce9613465565b5b6040519080825280601f01601f191660200182016040528015611d1c5781602001600182028036833780820191505090505b5090505b60008514611da957600182611d3591906131b3565b9150600a85611d449190613349565b6030611d50919061312c565b60f81b818381518110611d6657611d65613436565b5b60200101907effffffffffffffffffffffffffffffffffffffffffffffffffffffffffffff1916908160001a905350600a85611da29190613182565b9450611d20565b8093505050505b919050565b60007f01ffc9a7000000000000000000000000000000000000000000000000000000007bffffffffffffffffffffffffffffffffffffffffffffffffffffffff1916827bffffffffffffffffffffffffffffffffffffffffffffffffffffffff1916149050919050565b611e2a838383612125565b600073ffffffffffffffffffffffffffffffffffffffff168373ffffffffffffffffffffffffffffffffffffffff161415611e6d57611e688161212a565b611eac565b8173ffffffffffffffffffffffffffffffffffffffff168373ffffffffffffffffffffffffffffffffffffffff1614611eab57611eaa8382612173565b5b5b600073ffffffffffffffffffffffffffffffffffffffff168273ffffffffffffffffffffffffffffffffffffffff161415611eef57611eea816122e0565b611f2e565b8273ffffffffffffffffffffffffffffffffffffffff168273ffffffffffffffffffffffffffffffffffffffff1614611f2d57611f2c82826123b1565b5b5b505050565b611f3d8383612430565b611f4a6000848484611f8e565b611f89576040517f08c379a0000000000000000000000000000000000000000000000000000000008152600401611f8090612e18565b60405180910390fd5b505050565b6000611faf8473ffffffffffffffffffffffffffffffffffffffff166125fe565b15612118578373ffffffffffffffffffffffffffffffffffffffff1663150b7a02611fd86116f9565b8786866040518563ffffffff1660e01b8152600401611ffa9493929190612d4f565b602060405180830381600087803b15801561201457600080fd5b505af192505050801561204557506040513d601f19601f820116820180604052508101906120429190612907565b60015b6120c8573d8060008114612075576040519150601f19603f3d011682016040523d82523d6000602084013e61207a565b606091505b506000815114156120c0576040517f08c379a00000000000000000000000000000000000000000000000000000000081526004016120b790612e18565b60405180910390fd5b805181602001fd5b63150b7a0260e01b7bffffffffffffffffffffffffffffffffffffffffffffffffffffffff1916817bffffffffffffffffffffffffffffffffffffffffffffffffffffffff19161491505061211d565b600190505b949350505050565b505050565b6008805490506009600083815260200190815260200160002081905550600881908060018154018082558091505060019003906000526020600020016000909190919091505550565b6000600161218084610d80565b61218a91906131b3565b905060006007600084815260200190815260200160002054905081811461226f576000600660008673ffffffffffffffffffffffffffffffffffffffff1673ffffffffffffffffffffffffffffffffffffffff168152602001908152602001600020600084815260200190815260200160002054905080600660008773ffffffffffffffffffffffffffffffffffffffff1673ffffffffffffffffffffffffffffffffffffffff168152602001908152602001600020600084815260200190815260200160002081905550816007600083815260200190815260200160002081905550505b6007600084815260200190815260200160002060009055600660008573ffffffffffffffffffffffffffffffffffffffff1673ffffffffffffffffffffffffffffffffffffffff16815260200190815260200160002060008381526020019081526020016000206000905550505050565b600060016008805490506122f491906131b3565b905060006009600084815260200190815260200160002054905060006008838154811061232457612323613436565b5b90600052602060002001549050806008838154811061234657612345613436565b5b90600052602060002001819055508160096000838152602001908152602001600020819055506009600085815260200190815260200160002060009055600880548061239557612394613407565b5b6001900381819060005260206000200160009055905550505050565b60006123bc83610d80565b905081600660008573ffffffffffffffffffffffffffffffffffffffff1673ffffffffffffffffffffffffffffffffffffffff168152602001908152602001600020600083815260200190815260200160002081905550806007600084815260200190815260200160002081905550505050565b600073ffffffffffffffffffffffffffffffffffffffff168273ffffffffffffffffffffffffffffffffffffffff1614156124a0576040517f08c379a000000000000000000000000000000000000000000000000000000000815260040161249790612f38565b60405180910390fd5b6124a98161168d565b156124e9576040517f08c379a00000000000000000000000000000000000000000000000000000000081526004016124e090612e58565b60405180910390fd5b6124f560008383611e1f565b6001600360008473ffffffffffffffffffffffffffffffffffffffff1673ffffffffffffffffffffffffffffffffffffffff1681526020019081526020016000206000828254612545919061312c565b92505081905550816002600083815260200190815260200160002060006101000a81548173ffffffffffffffffffffffffffffffffffffffff021916908373ffffffffffffffffffffffffffffffffffffffff160217905550808273ffffffffffffffffffffffffffffffffffffffff16600073ffffffffffffffffffffffffffffffffffffffff167fddf252ad1be2c89b69c2b068fc378daa952ba7f163c4a11628f55a4df523b3ef60405160405180910390a45050565b600080823b905060008111915050919050565b600061262461261f846130b8565b613093565b9050828152602081018484840111156126405761263f613499565b5b61264b84828561325b565b509392505050565b60008135905061266281613a2a565b92915050565b60008135905061267781613a41565b92915050565b60008135905061268c81613a58565b92915050565b6000815190506126a181613a58565b92915050565b600082601f8301126126bc576126bb613494565b5b81356126cc848260208601612611565b91505092915050565b6000813590506126e481613a6f565b92915050565b600060208284031215612700576126ff6134a3565b5b600061270e84828501612653565b91505092915050565b6000806040838503121561272e5761272d6134a3565b5b600061273c85828601612653565b925050602061274d85828601612653565b9150509250929050565b6000806000606084860312156127705761276f6134a3565b5b600061277e86828701612653565b935050602061278f86828701612653565b92505060406127a0868287016126d5565b9150509250925092565b600080600080608085870312156127c4576127c36134a3565b5b60006127d287828801612653565b94505060206127e387828801612653565b93505060406127f4878288016126d5565b925050606085013567ffffffffffffffff8111156128155761281461349e565b5b612821878288016126a7565b91505092959194509250565b60008060408385031215612844576128436134a3565b5b600061285285828601612653565b925050602061286385828601612668565b9150509250929050565b60008060408385031215612884576128836134a3565b5b600061289285828601612653565b92505060206128a3858286016126d5565b9150509250929050565b6000602082840312156128c3576128c26134a3565b5b60006128d184828501612668565b91505092915050565b6000602082840312156128f0576128ef6134a3565b5b60006128fe8482850161267d565b91505092915050565b60006020828403121561291d5761291c6134a3565b5b600061292b84828501612692565b91505092915050565b60006020828403121561294a576129496134a3565b5b6000612958848285016126d5565b91505092915050565b61296a816131e7565b82525050565b612979816131f9565b82525050565b600061298a826130e9565b61299481856130ff565b93506129a481856020860161326a565b6129ad816134a8565b840191505092915050565b60006129c3826130f4565b6129cd8185613110565b93506129dd81856020860161326a565b6129e6816134a8565b840191505092915050565b60006129fc826130f4565b612a068185613121565b9350612a1681856020860161326a565b80840191505092915050565b6000612a2f600b83613110565b9150612a3a826134b9565b602082019050919050565b6000612a52602b83613110565b9150612a5d826134e2565b604082019050919050565b6000612a75603283613110565b9150612a8082613531565b604082019050919050565b6000612a98602683613110565b9150612aa382613580565b604082019050919050565b6000612abb601c83613110565b9150612ac6826135cf565b602082019050919050565b6000612ade602483613110565b9150612ae9826135f8565b604082019050919050565b6000612b01601983613110565b9150612b0c82613647565b602082019050919050565b6000612b24602c83613110565b9150612b2f82613670565b604082019050919050565b6000612b47603883613110565b9150612b52826136bf565b604082019050919050565b6000612b6a602a83613110565b9150612b758261370e565b604082019050919050565b6000612b8d602983613110565b9150612b988261375d565b604082019050919050565b6000612bb0602083613110565b9150612bbb826137ac565b602082019050919050565b6000612bd3602c83613110565b9150612bde826137d5565b604082019050919050565b6000612bf6602083613110565b9150612c0182613824565b602082019050919050565b6000612c19602983613110565b9150612c248261384d565b604082019050919050565b6000612c3c602f83613110565b9150612c478261389c565b604082019050919050565b6000612c5f602183613110565b9150612c6a826138eb565b604082019050919050565b6000612c82601683613110565b9150612c8d8261393a565b602082019050919050565b6000612ca5601983613110565b9150612cb082613963565b602082019050919050565b6000612cc8603183613110565b9150612cd38261398c565b604082019050919050565b6000612ceb602c83613110565b9150612cf6826139db565b604082019050919050565b612d0a81613251565b82525050565b6000612d1c82856129f1565b9150612d2882846129f1565b91508190509392505050565b6000602082019050612d496000830184612961565b92915050565b6000608082019050612d646000830187612961565b612d716020830186612961565b612d7e6040830185612d01565b8181036060830152612d90818461297f565b905095945050505050565b6000602082019050612db06000830184612970565b92915050565b60006020820190508181036000830152612dd081846129b8565b905092915050565b60006020820190508181036000830152612df181612a22565b9050919050565b60006020820190508181036000830152612e1181612a45565b9050919050565b60006020820190508181036000830152612e3181612a68565b9050919050565b60006020820190508181036000830152612e5181612a8b565b9050919050565b60006020820190508181036000830152612e7181612aae565b9050919050565b60006020820190508181036000830152612e9181612ad1565b9050919050565b60006020820190508181036000830152612eb181612af4565b9050919050565b60006020820190508181036000830152612ed181612b17565b9050919050565b60006020820190508181036000830152612ef181612b3a565b9050919050565b60006020820190508181036000830152612f1181612b5d565b9050919050565b60006020820190508181036000830152612f3181612b80565b9050919050565b60006020820190508181036000830152612f5181612ba3565b9050919050565b60006020820190508181036000830152612f7181612bc6565b9050919050565b60006020820190508181036000830152612f9181612be9565b9050919050565b60006020820190508181036000830152612fb181612c0c565b9050919050565b60006020820190508181036000830152612fd181612c2f565b9050919050565b60006020820190508181036000830152612ff181612c52565b9050919050565b6000602082019050818103600083015261301181612c75565b9050919050565b6000602082019050818103600083015261303181612c98565b9050919050565b6000602082019050818103600083015261305181612cbb565b9050919050565b6000602082019050818103600083015261307181612cde565b9050919050565b600060208201905061308d6000830184612d01565b92915050565b600061309d6130ae565b90506130a982826132cf565b919050565b6000604051905090565b600067ffffffffffffffff8211156130d3576130d2613465565b5b6130dc826134a8565b9050602081019050919050565b600081519050919050565b600081519050919050565b600082825260208201905092915050565b600082825260208201905092915050565b600081905092915050565b600061313782613251565b915061314283613251565b9250827fffffffffffffffffffffffffffffffffffffffffffffffffffffffffffffffff038211156131775761317661337a565b5b828201905092915050565b600061318d82613251565b915061319883613251565b9250826131a8576131a76133a9565b5b828204905092915050565b60006131be82613251565b91506131c983613251565b9250828210156131dc576131db61337a565b5b828203905092915050565b60006131f282613231565b9050919050565b60008115159050919050565b60007fffffffff0000000000000000000000000000000000000000000000000000000082169050919050565b600073ffffffffffffffffffffffffffffffffffffffff82169050919050565b6000819050919050565b82818337600083830152505050565b60005b8381101561328857808201518184015260208101905061326d565b83811115613297576000848401525b50505050565b600060028204905060018216806132b557607f821691505b602082108114156132c9576132c86133d8565b5b50919050565b6132d8826134a8565b810181811067ffffffffffffffff821117156132f7576132f6613465565b5b80604052505050565b600061330b82613251565b91507fffffffffffffffffffffffffffffffffffffffffffffffffffffffffffffffff82141561333e5761333d61337a565b5b600182019050919050565b600061335482613251565b915061335f83613251565b92508261336f5761336e6133a9565b5b828206905092915050565b7f4e487b7100000000000000000000000000000000000000000000000000000000600052601160045260246000fd5b7f4e487b7100000000000000000000000000000000000000000000000000000000600052601260045260246000fd5b7f4e487b7100000000000000000000000000000000000000000000000000000000600052602260045260246000fd5b7f4e487b7100000000000000000000000000000000000000000000000000000000600052603160045260246000fd5b7f4e487b7100000000000000000000000000000000000000000000000000000000600052603260045260246000fd5b7f4e487b7100000000000000000000000000000000000000000000000000000000600052604160045260246000fd5b600080fd5b600080fd5b600080fd5b600080fd5b6000601f19601f8301169050919050565b7f53616c6520706175736564000000000000000000000000000000000000000000600082015250565b7f455243373231456e756d657261626c653a206f776e657220696e646578206f7560008201527f74206f6620626f756e6473000000000000000000000000000000000000000000602082015250565b7f4552433732313a207472616e7366657220746f206e6f6e20455243373231526560008201527f63656976657220696d706c656d656e7465720000000000000000000000000000602082015250565b7f4f776e61626c653a206e6577206f776e657220697320746865207a65726f206160008201527f6464726573730000000000000000000000000000000000000000000000000000602082015250565b7f4552433732313a20746f6b656e20616c7265616479206d696e74656400000000600082015250565b7f4552433732313a207472616e7366657220746f20746865207a65726f2061646460008201527f7265737300000000000000000000000000000000000000000000000000000000602082015250565b7f4552433732313a20617070726f766520746f2063616c6c657200000000000000600082015250565b7f4552433732313a206f70657261746f7220717565727920666f72206e6f6e657860008201527f697374656e7420746f6b656e0000000000000000000000000000000000000000602082015250565b7f4552433732313a20617070726f76652063616c6c6572206973206e6f74206f7760008201527f6e6572206e6f7220617070726f76656420666f7220616c6c0000000000000000602082015250565b7f4552433732313a2062616c616e636520717565727920666f7220746865207a6560008201527f726f206164647265737300000000000000000000000000000000000000000000602082015250565b7f4552433732313a206f776e657220717565727920666f72206e6f6e657869737460008201527f656e7420746f6b656e0000000000000000000000000000000000000000000000602082015250565b7f4552433732313a206d696e7420746f20746865207a65726f2061646472657373600082015250565b7f4552433732313a20617070726f76656420717565727920666f72206e6f6e657860008201527f697374656e7420746f6b656e0000000000000000000000000000000000000000602082015250565b7f4f776e61626c653a2063616c6c6572206973206e6f7420746865206f776e6572600082015250565b7f4552433732313a207472616e73666572206f6620746f6b656e2074686174206960008201527f73206e6f74206f776e0000000000000000000000000000000000000000000000602082015250565b7f4552433732314d657461646174613a2055524920717565727920666f72206e6f60008201527f6e6578697374656e7420746f6b656e0000000000000000000000000000000000602082015250565b7f4552433732313a20617070726f76616c20746f2063757272656e74206f776e6560008201527f7200000000000000000000000000000000000000000000000000000000000000602082015250565b7f45786365656473206d6178696d756d20737570706c7900000000000000000000600082015250565b7f45746865722073656e74206973206e6f7420636f727265637400000000000000600082015250565b7f4552433732313a207472616e736665722063616c6c6572206973206e6f74206f60008201527f776e6572206e6f7220617070726f766564000000000000000000000000000000602082015250565b7f455243373231456e756d657261626c653a20676c6f62616c20696e646578206f60008201527f7574206f6620626f756e64730000000000000000000000000000000000000000602082015250565b613a33816131e7565b8114613a3e57600080fd5b50565b613a4a816131f9565b8114613a5557600080fd5b50565b613a6181613205565b8114613a6c57600080fd5b50565b613a7881613251565b8114613a8357600080fd5b5056fe43727970746f4261626573206973206120756e6971756520636f6c6c656374696f6e206f66206261626573206f6e20746865206265616368202d2064656469636174656420746f20616c6c2074686520776f6d656e2077686f206d616b65206f7572206c6976657320626574746572206576657279646179687474703a2f2f6e66742d6c61756e63687061642e696f2f63727970746f62616265732f63727970746f626162652da264697066735822122046986565cedf0086b88eaac9b45eb3b0e40881e675e642863e4b1c5c3039a3b264736f6c63430008070033",
  "immutableReferences": {},
  "source": "// SPDX-License-Identifier: MIT\n\npragma solidity ^0.8.0;\n\nimport \"./FullERC721.sol\";\n\ncontract CryptoBabes is ERC721Enumerable, Ownable {\n\n    uint256 public _maxSupply = 1000;\n    uint256 public _price = 0.05 ether;\n    bool public _paused = false;\n    \n    string public constant _desc = \"CryptoBabes is a unique collection of babes on the beach - dedicated to all the women who make our lives better everyday\";\n    string public constant _babeURI = \"http://nft-launchpad.io/cryptobabes/cryptobabe-\";\n\n    constructor() ERC721(\"CryptoBabes\", \"CRYPTOBABE\") Ownable() {\n\t}\n\n    function _baseURI() override internal view virtual returns (string memory) {\n        return _babeURI;\n    }\n    function mint(uint256 tokenId) external payable {\n        require(!_paused, \"Sale paused\");\n        require(tokenId > 0 && totalSupply() <= _maxSupply, \"Exceeds maximum supply\");\n        require(msg.value >= _price, \"Ether sent is not correct\");\n        _safeMint(msg.sender, tokenId);\n    }\n    function setMaxSupply(uint256 newVal) external onlyOwner {\n        _maxSupply = newVal;\n    }\n    function setPrice(uint256 _newPrice) external onlyOwner {\n        _price = _newPrice;\n    }\n    function setPause(bool val) external onlyOwner {\n        _paused = val;\n    }\n    function withdraw() external payable onlyOwner {\n        payable(msg.sender).transfer(address(this).balance);\n    }\n}\n",
  "sourcePath": "/home/ec2-user/github/nftlaunchpad-dapp/src/contracts/CryptoBabes.sol",
  "compiler": {
    "name": "solc",
    "version": "0.8.7+commit.e28d00a7.Emscripten.clang"
  },
  "schemaVersion": "3.4.3",
  "updatedAt": "2022-02-04T03:41:44.760Z",
  "devdoc": {
    "kind": "dev",
    "methods": {
      "approve(address,uint256)": {
        "details": "See {IERC721-approve}."
      },
      "balanceOf(address)": {
        "details": "See {IERC721-balanceOf}."
      },
      "getApproved(uint256)": {
        "details": "See {IERC721-getApproved}."
      },
      "isApprovedForAll(address,address)": {
        "details": "See {IERC721-isApprovedForAll}."
      },
      "name()": {
        "details": "See {IERC721Metadata-name}."
      },
      "owner()": {
        "details": "Returns the address of the current owner."
      },
      "ownerOf(uint256)": {
        "details": "See {IERC721-ownerOf}."
      },
      "renounceOwnership()": {
        "details": "Leaves the contract without owner. It will not be possible to call `onlyOwner` functions anymore. Can only be called by the current owner. NOTE: Renouncing ownership will leave the contract without an owner, thereby removing any functionality that is only available to the owner."
      },
      "safeTransferFrom(address,address,uint256)": {
        "details": "See {IERC721-safeTransferFrom}."
      },
      "safeTransferFrom(address,address,uint256,bytes)": {
        "details": "See {IERC721-safeTransferFrom}."
      },
      "setApprovalForAll(address,bool)": {
        "details": "See {IERC721-setApprovalForAll}."
      },
      "supportsInterface(bytes4)": {
        "details": "See {IERC165-supportsInterface}."
      },
      "symbol()": {
        "details": "See {IERC721Metadata-symbol}."
      },
      "tokenByIndex(uint256)": {
        "details": "See {IERC721Enumerable-tokenByIndex}."
      },
      "tokenOfOwnerByIndex(address,uint256)": {
        "details": "See {IERC721Enumerable-tokenOfOwnerByIndex}."
      },
      "tokenURI(uint256)": {
        "details": "See {IERC721Metadata-tokenURI}."
      },
      "totalSupply()": {
        "details": "See {IERC721Enumerable-totalSupply}."
      },
      "transferFrom(address,address,uint256)": {
        "details": "See {IERC721-transferFrom}."
      },
      "transferOwnership(address)": {
        "details": "Transfers ownership of the contract to a new account (`newOwner`). Can only be called by the current owner."
      }
    },
    "version": 1
  },
  "userdoc": {
    "kind": "user",
    "methods": {},
    "version": 1
  }
}