{
  "contractName": "CryptoPot",
  "abi": [
    {
      "inputs": [],
      "stateMutability": "nonpayable",
      "type": "constructor"
    },
    {
      "anonymous": false,
      "inputs": [
        {
          "indexed": false,
          "internalType": "uint256",
          "name": "contestId",
          "type": "uint256"
        },
        {
          "indexed": false,
          "internalType": "uint256",
          "name": "tokenId",
          "type": "uint256"
        }
      ],
      "name": "Winner",
      "type": "event"
    },
    {
      "inputs": [],
      "name": "_contestId",
      "outputs": [
        {
          "internalType": "uint256",
          "name": "",
          "type": "uint256"
        }
      ],
      "stateMutability": "view",
      "type": "function"
    },
    {
      "inputs": [],
      "name": "_coolPeriod",
      "outputs": [
        {
          "internalType": "uint256",
          "name": "",
          "type": "uint256"
        }
      ],
      "stateMutability": "view",
      "type": "function"
    },
    {
      "inputs": [],
      "name": "_coolPeriodStarted",
      "outputs": [
        {
          "internalType": "bool",
          "name": "",
          "type": "bool"
        }
      ],
      "stateMutability": "view",
      "type": "function"
    },
    {
      "inputs": [],
      "name": "_creator",
      "outputs": [
        {
          "internalType": "address",
          "name": "",
          "type": "address"
        }
      ],
      "stateMutability": "view",
      "type": "function"
    },
    {
      "inputs": [],
      "name": "_maxPlayers",
      "outputs": [
        {
          "internalType": "uint256",
          "name": "",
          "type": "uint256"
        }
      ],
      "stateMutability": "view",
      "type": "function"
    },
    {
      "inputs": [],
      "name": "_owner",
      "outputs": [
        {
          "internalType": "address",
          "name": "",
          "type": "address"
        }
      ],
      "stateMutability": "view",
      "type": "function"
    },
    {
      "inputs": [],
      "name": "_price",
      "outputs": [
        {
          "internalType": "uint256",
          "name": "",
          "type": "uint256"
        }
      ],
      "stateMutability": "view",
      "type": "function"
    },
    {
      "inputs": [],
      "name": "_winnerBlock",
      "outputs": [
        {
          "internalType": "uint256",
          "name": "",
          "type": "uint256"
        }
      ],
      "stateMutability": "view",
      "type": "function"
    },
    {
      "inputs": [],
      "name": "_winnerPrice",
      "outputs": [
        {
          "internalType": "uint256",
          "name": "",
          "type": "uint256"
        }
      ],
      "stateMutability": "view",
      "type": "function"
    },
    {
      "inputs": [
        {
          "internalType": "uint256",
          "name": "tokenId",
          "type": "uint256"
        }
      ],
      "name": "joinContest",
      "outputs": [],
      "stateMutability": "payable",
      "type": "function"
    },
    {
      "inputs": [],
      "name": "availableTokensCount",
      "outputs": [
        {
          "internalType": "uint256",
          "name": "",
          "type": "uint256"
        }
      ],
      "stateMutability": "view",
      "type": "function"
    },
    {
      "inputs": [],
      "name": "availableTokens",
      "outputs": [
        {
          "internalType": "string",
          "name": "",
          "type": "string"
        }
      ],
      "stateMutability": "view",
      "type": "function"
    },
    {
      "inputs": [
        {
          "internalType": "uint256",
          "name": "_newVal",
          "type": "uint256"
        }
      ],
      "name": "setCoolPeriod",
      "outputs": [],
      "stateMutability": "nonpayable",
      "type": "function"
    },
    {
      "inputs": [
        {
          "internalType": "uint256",
          "name": "_newVal",
          "type": "uint256"
        }
      ],
      "name": "setMaxPlayers",
      "outputs": [],
      "stateMutability": "nonpayable",
      "type": "function"
    },
    {
      "inputs": [
        {
          "internalType": "uint256",
          "name": "_newVal",
          "type": "uint256"
        }
      ],
      "name": "setPrice",
      "outputs": [],
      "stateMutability": "nonpayable",
      "type": "function"
    },
    {
      "inputs": [
        {
          "internalType": "uint256",
          "name": "_newVal",
          "type": "uint256"
        }
      ],
      "name": "setWinnerPrice",
      "outputs": [],
      "stateMutability": "nonpayable",
      "type": "function"
    },
    {
      "inputs": [],
      "name": "withdraw",
      "outputs": [],
      "stateMutability": "payable",
      "type": "function"
    },
    {
      "inputs": [],
      "name": "renounceOwnership",
      "outputs": [],
      "stateMutability": "nonpayable",
      "type": "function"
    }
  ],
  "bytecode": "0x6080604052606460025566b1a2bc2ec500006003556741eb63d55b1b0000600455600060055560006006556103e86007556000600860006101000a81548160ff02191690831515021790555034801561005757600080fd5b5033600160006101000a81548173ffffffffffffffffffffffffffffffffffffffff021916908373ffffffffffffffffffffffffffffffffffffffff160217905550336000806101000a81548173ffffffffffffffffffffffffffffffffffffffff021916908373ffffffffffffffffffffffffffffffffffffffff160217905550611538806100e86000396000f3fe6080604052600436106101095760003560e01c80635d6e6c7c1161009557806391b7f5ed1161006457806391b7f5ed146102f3578063a3c4c88a1461031c578063b2bdfa7b14610347578063bc8bde6414610372578063feccbd6b1461039d57610109565b80635d6e6c7c1461026a5780636858f45d1461028657806369bb4dc2146102b1578063715018a6146102dc57610109565b806336f8ae34116100dc57806336f8ae34146101b65780633ccfd60b146101df578063488d57e9146101e95780634b020bc11461021457806352a63ab71461023f57610109565b806304534bd61461010e578063235b6ea114610139578063288dee3b146101645780632f242ed91461018d575b600080fd5b34801561011a57600080fd5b506101236103c8565b6040516101309190611131565b60405180910390f35b34801561014557600080fd5b5061014e6103ce565b60405161015b9190611131565b60405180910390f35b34801561017057600080fd5b5061018b60048036038101906101869190610e95565b6103d4565b005b34801561019957600080fd5b506101b460048036038101906101af9190610e95565b61046e565b005b3480156101c257600080fd5b506101dd60048036038101906101d89190610e95565b610508565b005b6101e76105a2565b005b3480156101f557600080fd5b506101fe610661565b60405161020b9190611131565b60405180910390f35b34801561022057600080fd5b50610229610667565b6040516102369190611131565b60405180910390f35b34801561024b57600080fd5b5061025461066d565b6040516102619190611131565b60405180910390f35b610284600480360381019061027f9190610e95565b610673565b005b34801561029257600080fd5b5061029b61086d565b6040516102a89190611054565b60405180910390f35b3480156102bd57600080fd5b506102c6610880565b6040516102d3919061106f565b60405180910390f35b3480156102e857600080fd5b506102f161096b565b005b3480156102ff57600080fd5b5061031a60048036038101906103159190610e95565b610a3f565b005b34801561032857600080fd5b50610331610ad9565b60405161033e9190611131565b60405180910390f35b34801561035357600080fd5b5061035c610adf565b6040516103699190611039565b60405180910390f35b34801561037e57600080fd5b50610387610b05565b6040516103949190611039565b60405180910390f35b3480156103a957600080fd5b506103b2610b29565b6040516103bf9190611131565b60405180910390f35b60025481565b60035481565b600160009054906101000a900473ffffffffffffffffffffffffffffffffffffffff1673ffffffffffffffffffffffffffffffffffffffff163373ffffffffffffffffffffffffffffffffffffffff1614610464576040517f08c379a000000000000000000000000000000000000000000000000000000000815260040161045b90611091565b60405180910390fd5b8060028190555050565b600160009054906101000a900473ffffffffffffffffffffffffffffffffffffffff1673ffffffffffffffffffffffffffffffffffffffff163373ffffffffffffffffffffffffffffffffffffffff16146104fe576040517f08c379a00000000000000000000000000000000000000000000000000000000081526004016104f590611091565b60405180910390fd5b8060078190555050565b600160009054906101000a900473ffffffffffffffffffffffffffffffffffffffff1673ffffffffffffffffffffffffffffffffffffffff163373ffffffffffffffffffffffffffffffffffffffff1614610598576040517f08c379a000000000000000000000000000000000000000000000000000000000815260040161058f90611091565b60405180910390fd5b8060048190555050565b60011515600860009054906101000a900460ff161515146105f8576040517f08c379a00000000000000000000000000000000000000000000000000000000081526004016105ef906110b1565b60405180910390fd5b60008054906101000a900473ffffffffffffffffffffffffffffffffffffffff1673ffffffffffffffffffffffffffffffffffffffff166108fc479081150290604051600060405180830381858888f1935050505015801561065e573d6000803e3d6000fd5b50565b60055481565b60075481565b60065481565b6003543410156106b8576040517f08c379a00000000000000000000000000000000000000000000000000000000081526004016106af906110f1565b60405180910390fd5b6000811180156106ca57506002548111155b610709576040517f08c379a000000000000000000000000000000000000000000000000000000000815260040161070090611111565b60405180910390fd5b600860009054906101000a900460ff161561078b576007546006544361072f9190611223565b1161076f576040517f08c379a0000000000000000000000000000000000000000000000000000000008152600401610766906110d1565b60405180910390fd5b6000600860006101000a81548160ff0219169083151502179055505b336009600083815260200190815260200160002060006101000a81548173ffffffffffffffffffffffffffffffffffffffff021916908373ffffffffffffffffffffffffffffffffffffffff16021790555043600a60008381526020019081526020016000208190555042600b6000838152602001908152602001600020819055506001600c600083815260200190815260200160002060006101000a81548160ff0219169083151502179055506000610843610b29565b141561086a576005600081548092919061085c906112d2565b9190505550610869610b93565b5b50565b600860009054906101000a900460ff1681565b6060806000600190505b60025481116109635760001515600c600083815260200190815260200160002060009054906101000a900460ff1615151415610943578160008351116108df5760405180602001604052806000815250610916565b6040518060400160405280600181526020017f2c000000000000000000000000000000000000000000000000000000000000008152505b61091f83610d1f565b60405160200161093193929190611008565b60405160208183030381529060405291505b60648251111561095257610963565b8061095c906112d2565b905061088a565b508091505090565b600160009054906101000a900473ffffffffffffffffffffffffffffffffffffffff1673ffffffffffffffffffffffffffffffffffffffff163373ffffffffffffffffffffffffffffffffffffffff16146109fb576040517f08c379a00000000000000000000000000000000000000000000000000000000081526004016109f290611091565b60405180910390fd5b6000600160006101000a81548173ffffffffffffffffffffffffffffffffffffffff021916908373ffffffffffffffffffffffffffffffffffffffff160217905550565b600160009054906101000a900473ffffffffffffffffffffffffffffffffffffffff1673ffffffffffffffffffffffffffffffffffffffff163373ffffffffffffffffffffffffffffffffffffffff1614610acf576040517f08c379a0000000000000000000000000000000000000000000000000000000008152600401610ac690611091565b60405180910390fd5b8060038190555050565b60045481565b600160009054906101000a900473ffffffffffffffffffffffffffffffffffffffff1681565b60008054906101000a900473ffffffffffffffffffffffffffffffffffffffff1681565b600080600090506000600190505b6002548111610b8b5760001515600c600083815260200190815260200160002060009054906101000a900460ff1615151415610b7a5781610b77906112d2565b91505b80610b84906112d2565b9050610b37565b508091505090565b600080600190505b6002548111610c2357600a60008281526020019081526020016000205482610bc3919061119c565b9150600b60008281526020019081526020016000205482610be4919061119c565b91506000600c600083815260200190815260200160002060006101000a81548160ff02191690831515021790555080610c1c906112d2565b9050610b9b565b50600060025482610c34919061131b565b6001610c40919061119c565b90506009600082815260200190815260200160002060009054906101000a900473ffffffffffffffffffffffffffffffffffffffff1673ffffffffffffffffffffffffffffffffffffffff166108fc6004549081150290604051600060405180830381858888f19350505050158015610cbd573d6000803e3d6000fd5b507f2ec31526458a6f2e01dc51c3e1263edd5327aba8c14343743a9fd4e2a383395060055482604051610cf192919061114c565b60405180910390a16001600860006101000a81548160ff021916908315150217905550436006819055505050565b60606000821415610d67576040518060400160405280600181526020017f30000000000000000000000000000000000000000000000000000000000000008152509050610e7b565b600082905060005b60008214610d99578080610d82906112d2565b915050600a82610d9291906111f2565b9150610d6f565b60008167ffffffffffffffff811115610db557610db46113d9565b5b6040519080825280601f01601f191660200182016040528015610de75781602001600182028036833780820191505090505b5090505b60008514610e7457600182610e009190611223565b9150600a85610e0f919061131b565b6030610e1b919061119c565b60f81b818381518110610e3157610e306113aa565b5b60200101907effffffffffffffffffffffffffffffffffffffffffffffffffffffffffffff1916908160001a905350600a85610e6d91906111f2565b9450610deb565b8093505050505b919050565b600081359050610e8f816114eb565b92915050565b600060208284031215610eab57610eaa611408565b5b6000610eb984828501610e80565b91505092915050565b610ecb81611257565b82525050565b610eda81611269565b82525050565b6000610eeb82611175565b610ef58185611180565b9350610f0581856020860161129f565b610f0e8161140d565b840191505092915050565b6000610f2482611175565b610f2e8185611191565b9350610f3e81856020860161129f565b80840191505092915050565b6000610f57601383611180565b9150610f628261141e565b602082019050919050565b6000610f7a601083611180565b9150610f8582611447565b602082019050919050565b6000610f9d601583611180565b9150610fa882611470565b602082019050919050565b6000610fc0601983611180565b9150610fcb82611499565b602082019050919050565b6000610fe3600f83611180565b9150610fee826114c2565b602082019050919050565b61100281611295565b82525050565b60006110148286610f19565b91506110208285610f19565b915061102c8284610f19565b9150819050949350505050565b600060208201905061104e6000830184610ec2565b92915050565b60006020820190506110696000830184610ed1565b92915050565b600060208201905081810360008301526110898184610ee0565b905092915050565b600060208201905081810360008301526110aa81610f4a565b9050919050565b600060208201905081810360008301526110ca81610f6d565b9050919050565b600060208201905081810360008301526110ea81610f90565b9050919050565b6000602082019050818103600083015261110a81610fb3565b9050919050565b6000602082019050818103600083015261112a81610fd6565b9050919050565b60006020820190506111466000830184610ff9565b92915050565b60006040820190506111616000830185610ff9565b61116e6020830184610ff9565b9392505050565b600081519050919050565b600082825260208201905092915050565b600081905092915050565b60006111a782611295565b91506111b283611295565b9250827fffffffffffffffffffffffffffffffffffffffffffffffffffffffffffffffff038211156111e7576111e661134c565b5b828201905092915050565b60006111fd82611295565b915061120883611295565b9250826112185761121761137b565b5b828204905092915050565b600061122e82611295565b915061123983611295565b92508282101561124c5761124b61134c565b5b828203905092915050565b600061126282611275565b9050919050565b60008115159050919050565b600073ffffffffffffffffffffffffffffffffffffffff82169050919050565b6000819050919050565b60005b838110156112bd5780820151818401526020810190506112a2565b838111156112cc576000848401525b50505050565b60006112dd82611295565b91507fffffffffffffffffffffffffffffffffffffffffffffffffffffffffffffffff8214156113105761130f61134c565b5b600182019050919050565b600061132682611295565b915061133183611295565b9250826113415761134061137b565b5b828206905092915050565b7f4e487b7100000000000000000000000000000000000000000000000000000000600052601160045260246000fd5b7f4e487b7100000000000000000000000000000000000000000000000000000000600052601260045260246000fd5b7f4e487b7100000000000000000000000000000000000000000000000000000000600052603260045260246000fd5b7f4e487b7100000000000000000000000000000000000000000000000000000000600052604160045260246000fd5b600080fd5b6000601f19601f8301169050919050565b7f43616c6c6572206973206e6f74206f776e657200000000000000000000000000600082015250565b7f67616d6520696e2070726f677265737300000000000000000000000000000000600082015250565b7f636f6f6c20706572696f64206163746976617465640000000000000000000000600082015250565b7f45746865722073656e74206973206e6f7420636f727265637400000000000000600082015250565b7f746f6b656e206e6f742076616c69640000000000000000000000000000000000600082015250565b6114f481611295565b81146114ff57600080fd5b5056fea26469706673582212204b0613abfd0ee39d967fe93abb081df8f167a373d8b07c78a186d312a8d77e0364736f6c63430008070033",
  "immutableReferences": {},
  "source": "// SPDX-License-Identifier: MIT\n\npragma solidity ^0.8.0;\n\ncontract CryptoPot {\n\n    address public _creator;\n    address public _owner;\n    uint256 public _maxPlayers = 100;\n    uint256 public _price = 0.05 ether;\n    uint256 public _winnerPrice = 4.75 ether;\n    uint256 public _contestId = 0;\n    uint256 public _winnerBlock = 0;\n    uint256 public _coolPeriod = 1000;  //1000 blocks \n    bool    public _coolPeriodStarted = false;\n\n    mapping (uint256 => address) private _tokenId2address;\n    mapping (uint256 => uint256) private _tokenId2block;\n    mapping (uint256 => uint256) private _tokenId2time;\n    mapping (uint256 => bool)    private _tokenId2taken; \n\n    event Winner(uint256 contestId, uint256 tokenId);\n\n    constructor() {\n        _owner = msg.sender;\n        _creator = msg.sender;\n\t}\n    modifier onlyOwner() {\n        require(msg.sender == _owner, \"Caller is not owner\");\n        _;\n    }\n    function joinContest(uint256 tokenId) external payable {\n        require(msg.value >= _price, \"Ether sent is not correct\");\n        require(tokenId > 0 && tokenId <= _maxPlayers, \"token not valid\");\n\n        if(_coolPeriodStarted) {  //new contest\n            require(block.number - _winnerBlock > _coolPeriod, \"cool period activated\");\n            _coolPeriodStarted = false;\n        }\n\n        _tokenId2address[tokenId] = msg.sender;\n        _tokenId2block[tokenId] = block.number;\n        _tokenId2time[tokenId] = block.timestamp;\n        _tokenId2taken[tokenId] = true;\n        \n        if(availableTokensCount() == 0) {\n            _contestId++;\n            selectWinner();\n        }\n    } \n    function selectWinner() internal {\n        uint256 tempVal = 0;\n        for(uint256 i = 1; i <= _maxPlayers; ++i) {\n            tempVal += _tokenId2block[i];\n            tempVal += _tokenId2time[i];\n            _tokenId2taken[i] = false;   //reset\n        }\n        \n        uint256 winnerTokenId = 1 + (tempVal % _maxPlayers);\n        payable(_tokenId2address[winnerTokenId]).transfer(_winnerPrice);\n        emit Winner(_contestId, winnerTokenId);\n        _coolPeriodStarted = true;\n        _winnerBlock = block.number;\n    }\n    function availableTokensCount() public view returns (uint256) {\n        uint256 count = 0;\n        for(uint256 i = 1; i <= _maxPlayers; ++i) {\n            if(_tokenId2taken[i] == false) {\n                ++count;\n            }\n        }\n        return count;\n    }\n    function availableTokens() external view returns (string memory) {\n        string memory str;\n        for(uint256 i = 1; i <= _maxPlayers; ++i) {\n            if(_tokenId2taken[i] == false) {\n                str = string(abi.encodePacked(str, (bytes(str).length > 0 ? \",\" : \"\"), toString(i))); \n            }\n            if(bytes(str).length > 100) {\n                break;\n            }\n        }\n        return str;\n    }\n    function setCoolPeriod(uint256 _newVal) external onlyOwner {\n        _coolPeriod = _newVal;\n    }\n    function setMaxPlayers(uint256 _newVal) external onlyOwner {\n        _maxPlayers = _newVal;\n    }\n    function setPrice(uint256 _newVal) external onlyOwner {\n        _price = _newVal;\n    }\n    function setWinnerPrice(uint256 _newVal) external onlyOwner {\n        _winnerPrice = _newVal;\n    }\n    function withdraw() external payable {\n        require(_coolPeriodStarted == true, \"game in progress\");\n        payable(_creator).transfer(address(this).balance);\n    }\n    function renounceOwnership() external onlyOwner {\n        _owner = address(0);\n    }\n    function toString(uint256 value) internal pure returns (string memory) {\n        // Inspired by OraclizeAPI's implementation - MIT licence\n        // https://github.com/oraclize/ethereum-api/blob/b42146b063c7d6ee1358846c198246239e9360e8/oraclizeAPI_0.4.25.sol\n\n        if (value == 0) {\n            return \"0\";\n        }\n        uint256 temp = value;\n        uint256 digits;\n        while (temp != 0) {\n            digits++;\n            temp /= 10;\n        }\n        bytes memory buffer = new bytes(digits);\n        while (value != 0) {\n            digits -= 1;\n            buffer[digits] = bytes1(uint8(48 + uint256(value % 10)));\n            value /= 10;\n        }\n        return string(buffer);\n    }\n}\n",
  "sourcePath": "/home/ec2-user/github/nftlaunchpad-dapp/src/contracts/CryptoPot.sol",
  "compiler": {
    "name": "solc",
    "version": "0.8.7+commit.e28d00a7.Emscripten.clang"
  },
  "schemaVersion": "3.4.3",
  "updatedAt": "2022-02-13T13:15:36.579Z",
  "devdoc": {
    "kind": "dev",
    "methods": {},
    "version": 1
  },
  "userdoc": {
    "kind": "user",
    "methods": {},
    "version": 1
  }
}