{
  "contractName": "CryptoPot",
  "abi": [
    {
      "inputs": [],
      "stateMutability": "nonpayable",
      "type": "constructor"
    },
    {
      "anonymous": false,
      "inputs": [
        {
          "indexed": false,
          "internalType": "uint256",
          "name": "contestId",
          "type": "uint256"
        },
        {
          "indexed": false,
          "internalType": "uint256",
          "name": "tokenId",
          "type": "uint256"
        }
      ],
      "name": "Winner",
      "type": "event"
    },
    {
      "inputs": [],
      "name": "_contestId",
      "outputs": [
        {
          "internalType": "uint256",
          "name": "",
          "type": "uint256"
        }
      ],
      "stateMutability": "view",
      "type": "function"
    },
    {
      "inputs": [],
      "name": "_coolPeriod",
      "outputs": [
        {
          "internalType": "uint256",
          "name": "",
          "type": "uint256"
        }
      ],
      "stateMutability": "view",
      "type": "function"
    },
    {
      "inputs": [],
      "name": "_coolPeriodStarted",
      "outputs": [
        {
          "internalType": "bool",
          "name": "",
          "type": "bool"
        }
      ],
      "stateMutability": "view",
      "type": "function"
    },
    {
      "inputs": [],
      "name": "_creator",
      "outputs": [
        {
          "internalType": "address",
          "name": "",
          "type": "address"
        }
      ],
      "stateMutability": "view",
      "type": "function"
    },
    {
      "inputs": [],
      "name": "_maxPlayers",
      "outputs": [
        {
          "internalType": "uint256",
          "name": "",
          "type": "uint256"
        }
      ],
      "stateMutability": "view",
      "type": "function"
    },
    {
      "inputs": [],
      "name": "_owner",
      "outputs": [
        {
          "internalType": "address",
          "name": "",
          "type": "address"
        }
      ],
      "stateMutability": "view",
      "type": "function"
    },
    {
      "inputs": [],
      "name": "_price",
      "outputs": [
        {
          "internalType": "uint256",
          "name": "",
          "type": "uint256"
        }
      ],
      "stateMutability": "view",
      "type": "function"
    },
    {
      "inputs": [],
      "name": "_winnerBlock",
      "outputs": [
        {
          "internalType": "uint256",
          "name": "",
          "type": "uint256"
        }
      ],
      "stateMutability": "view",
      "type": "function"
    },
    {
      "inputs": [],
      "name": "_winnerPrice",
      "outputs": [
        {
          "internalType": "uint256",
          "name": "",
          "type": "uint256"
        }
      ],
      "stateMutability": "view",
      "type": "function"
    },
    {
      "inputs": [
        {
          "internalType": "uint256",
          "name": "tokenId",
          "type": "uint256"
        }
      ],
      "name": "joinContest",
      "outputs": [],
      "stateMutability": "payable",
      "type": "function"
    },
    {
      "inputs": [],
      "name": "availableTokensCount",
      "outputs": [
        {
          "internalType": "uint256",
          "name": "",
          "type": "uint256"
        }
      ],
      "stateMutability": "view",
      "type": "function"
    },
    {
      "inputs": [],
      "name": "availableTokens",
      "outputs": [
        {
          "internalType": "string",
          "name": "",
          "type": "string"
        }
      ],
      "stateMutability": "view",
      "type": "function"
    },
    {
      "inputs": [
        {
          "internalType": "uint256",
          "name": "_newVal",
          "type": "uint256"
        }
      ],
      "name": "setCoolPeriod",
      "outputs": [],
      "stateMutability": "nonpayable",
      "type": "function"
    },
    {
      "inputs": [
        {
          "internalType": "uint256",
          "name": "_newVal",
          "type": "uint256"
        }
      ],
      "name": "setMaxPlayers",
      "outputs": [],
      "stateMutability": "nonpayable",
      "type": "function"
    },
    {
      "inputs": [
        {
          "internalType": "uint256",
          "name": "_newVal",
          "type": "uint256"
        }
      ],
      "name": "setPrice",
      "outputs": [],
      "stateMutability": "nonpayable",
      "type": "function"
    },
    {
      "inputs": [
        {
          "internalType": "uint256",
          "name": "_newVal",
          "type": "uint256"
        }
      ],
      "name": "setWinnerPrice",
      "outputs": [],
      "stateMutability": "nonpayable",
      "type": "function"
    },
    {
      "inputs": [],
      "name": "withdraw",
      "outputs": [],
      "stateMutability": "payable",
      "type": "function"
    },
    {
      "inputs": [],
      "name": "renounceOwnership",
      "outputs": [],
      "stateMutability": "nonpayable",
      "type": "function"
    }
  ],
  "bytecode": "0x6080604052606460025566b1a2bc2ec500006003556744b1eec6162f0000600455600160055560006006556103e86007556000600860006101000a81548160ff02191690831515021790555034801561005757600080fd5b5033600160006101000a81548173ffffffffffffffffffffffffffffffffffffffff021916908373ffffffffffffffffffffffffffffffffffffffff160217905550336000806101000a81548173ffffffffffffffffffffffffffffffffffffffff021916908373ffffffffffffffffffffffffffffffffffffffff16021790555061160b806100e86000396000f3fe6080604052600436106101095760003560e01c80635d6e6c7c1161009557806391b7f5ed1161006457806391b7f5ed146102f3578063a3c4c88a1461031c578063b2bdfa7b14610347578063bc8bde6414610372578063feccbd6b1461039d57610109565b80635d6e6c7c1461026a5780636858f45d1461028657806369bb4dc2146102b1578063715018a6146102dc57610109565b806336f8ae34116100dc57806336f8ae34146101b65780633ccfd60b146101df578063488d57e9146101e95780634b020bc11461021457806352a63ab71461023f57610109565b806304534bd61461010e578063235b6ea114610139578063288dee3b146101645780632f242ed91461018d575b600080fd5b34801561011a57600080fd5b506101236103c8565b60405161013091906111db565b60405180910390f35b34801561014557600080fd5b5061014e6103ce565b60405161015b91906111db565b60405180910390f35b34801561017057600080fd5b5061018b60048036038101906101869190610efc565b6103d4565b005b34801561019957600080fd5b506101b460048036038101906101af9190610efc565b61046e565b005b3480156101c257600080fd5b506101dd60048036038101906101d89190610efc565b610508565b005b6101e76105a2565b005b3480156101f557600080fd5b506101fe610661565b60405161020b91906111db565b60405180910390f35b34801561022057600080fd5b50610229610667565b60405161023691906111db565b60405180910390f35b34801561024b57600080fd5b5061025461066d565b60405161026191906111db565b60405180910390f35b610284600480360381019061027f9190610efc565b610673565b005b34801561029257600080fd5b5061029b6108bc565b6040516102a891906110de565b60405180910390f35b3480156102bd57600080fd5b506102c66108cf565b6040516102d391906110f9565b60405180910390f35b3480156102e857600080fd5b506102f16109ba565b005b3480156102ff57600080fd5b5061031a60048036038101906103159190610efc565b610a8e565b005b34801561032857600080fd5b50610331610b28565b60405161033e91906111db565b60405180910390f35b34801561035357600080fd5b5061035c610b2e565b60405161036991906110c3565b60405180910390f35b34801561037e57600080fd5b50610387610b54565b60405161039491906110c3565b60405180910390f35b3480156103a957600080fd5b506103b2610b78565b6040516103bf91906111db565b60405180910390f35b60025481565b60035481565b600160009054906101000a900473ffffffffffffffffffffffffffffffffffffffff1673ffffffffffffffffffffffffffffffffffffffff163373ffffffffffffffffffffffffffffffffffffffff1614610464576040517f08c379a000000000000000000000000000000000000000000000000000000000815260040161045b9061111b565b60405180910390fd5b8060028190555050565b600160009054906101000a900473ffffffffffffffffffffffffffffffffffffffff1673ffffffffffffffffffffffffffffffffffffffff163373ffffffffffffffffffffffffffffffffffffffff16146104fe576040517f08c379a00000000000000000000000000000000000000000000000000000000081526004016104f59061111b565b60405180910390fd5b8060078190555050565b600160009054906101000a900473ffffffffffffffffffffffffffffffffffffffff1673ffffffffffffffffffffffffffffffffffffffff163373ffffffffffffffffffffffffffffffffffffffff1614610598576040517f08c379a000000000000000000000000000000000000000000000000000000000815260040161058f9061111b565b60405180910390fd5b8060048190555050565b60011515600860009054906101000a900460ff161515146105f8576040517f08c379a00000000000000000000000000000000000000000000000000000000081526004016105ef9061115b565b60405180910390fd5b60008054906101000a900473ffffffffffffffffffffffffffffffffffffffff1673ffffffffffffffffffffffffffffffffffffffff166108fc479081150290604051600060405180830381858888f1935050505015801561065e573d6000803e3d6000fd5b50565b60055481565b60075481565b60065481565b6003543410156106b8576040517f08c379a00000000000000000000000000000000000000000000000000000000081526004016106af9061119b565b60405180910390fd5b6000811180156106ca57506002548111155b610709576040517f08c379a0000000000000000000000000000000000000000000000000000000008152600401610700906111bb565b60405180910390fd5b60001515600c600083815260200190815260200160002060009054906101000a900460ff16151514610770576040517f08c379a00000000000000000000000000000000000000000000000000000000081526004016107679061113b565b60405180910390fd5b600860009054906101000a900460ff16156107f2576007546006544361079691906112cd565b116107d6576040517f08c379a00000000000000000000000000000000000000000000000000000000081526004016107cd9061117b565b60405180910390fd5b6000600860006101000a81548160ff0219169083151502179055505b336009600083815260200190815260200160002060006101000a81548173ffffffffffffffffffffffffffffffffffffffff021916908373ffffffffffffffffffffffffffffffffffffffff16021790555043600a60008381526020019081526020016000208190555042600b6000838152602001908152602001600020819055506001600c600083815260200190815260200160002060006101000a81548160ff02191690831515021790555060006108aa610b78565b14156108b9576108b8610be2565b5b50565b600860009054906101000a900460ff1681565b6060806000600190505b60025481116109b25760001515600c600083815260200190815260200160002060009054906101000a900460ff16151514156109925781600083511161092e5760405180602001604052806000815250610965565b6040518060400160405280600181526020017f2c000000000000000000000000000000000000000000000000000000000000008152505b61096e83610d86565b60405160200161098093929190611092565b60405160208183030381529060405291505b6064825111156109a1576109b2565b806109ab9061137c565b90506108d9565b508091505090565b600160009054906101000a900473ffffffffffffffffffffffffffffffffffffffff1673ffffffffffffffffffffffffffffffffffffffff163373ffffffffffffffffffffffffffffffffffffffff1614610a4a576040517f08c379a0000000000000000000000000000000000000000000000000000000008152600401610a419061111b565b60405180910390fd5b6000600160006101000a81548173ffffffffffffffffffffffffffffffffffffffff021916908373ffffffffffffffffffffffffffffffffffffffff160217905550565b600160009054906101000a900473ffffffffffffffffffffffffffffffffffffffff1673ffffffffffffffffffffffffffffffffffffffff163373ffffffffffffffffffffffffffffffffffffffff1614610b1e576040517f08c379a0000000000000000000000000000000000000000000000000000000008152600401610b159061111b565b60405180910390fd5b8060038190555050565b60045481565b600160009054906101000a900473ffffffffffffffffffffffffffffffffffffffff1681565b60008054906101000a900473ffffffffffffffffffffffffffffffffffffffff1681565b600080600090506000600190505b6002548111610bda5760001515600c600083815260200190815260200160002060009054906101000a900460ff1615151415610bc95781610bc69061137c565b91505b80610bd39061137c565b9050610b86565b508091505090565b600080600190505b6002548111610c7257600a60008281526020019081526020016000205482610c129190611246565b9150600b60008281526020019081526020016000205482610c339190611246565b91506000600c600083815260200190815260200160002060006101000a81548160ff02191690831515021790555080610c6b9061137c565b9050610bea565b50600060025482610c8391906113c5565b6001610c8f9190611246565b90506009600082815260200190815260200160002060009054906101000a900473ffffffffffffffffffffffffffffffffffffffff1673ffffffffffffffffffffffffffffffffffffffff166108fc6004549081150290604051600060405180830381858888f19350505050158015610d0c573d6000803e3d6000fd5b507f2ec31526458a6f2e01dc51c3e1263edd5327aba8c14343743a9fd4e2a383395060055482604051610d409291906111f6565b60405180910390a16001600860006101000a81548160ff0219169083151502179055504360068190555060056000815480929190610d7d9061137c565b91905055505050565b60606000821415610dce576040518060400160405280600181526020017f30000000000000000000000000000000000000000000000000000000000000008152509050610ee2565b600082905060005b60008214610e00578080610de99061137c565b915050600a82610df9919061129c565b9150610dd6565b60008167ffffffffffffffff811115610e1c57610e1b611483565b5b6040519080825280601f01601f191660200182016040528015610e4e5781602001600182028036833780820191505090505b5090505b60008514610edb57600182610e6791906112cd565b9150600a85610e7691906113c5565b6030610e829190611246565b60f81b818381518110610e9857610e97611454565b5b60200101907effffffffffffffffffffffffffffffffffffffffffffffffffffffffffffff1916908160001a905350600a85610ed4919061129c565b9450610e52565b8093505050505b919050565b600081359050610ef6816115be565b92915050565b600060208284031215610f1257610f116114b2565b5b6000610f2084828501610ee7565b91505092915050565b610f3281611301565b82525050565b610f4181611313565b82525050565b6000610f528261121f565b610f5c818561122a565b9350610f6c818560208601611349565b610f75816114b7565b840191505092915050565b6000610f8b8261121f565b610f95818561123b565b9350610fa5818560208601611349565b80840191505092915050565b6000610fbe60138361122a565b9150610fc9826114c8565b602082019050919050565b6000610fe160138361122a565b9150610fec826114f1565b602082019050919050565b600061100460108361122a565b915061100f8261151a565b602082019050919050565b600061102760158361122a565b915061103282611543565b602082019050919050565b600061104a60198361122a565b91506110558261156c565b602082019050919050565b600061106d600f8361122a565b915061107882611595565b602082019050919050565b61108c8161133f565b82525050565b600061109e8286610f80565b91506110aa8285610f80565b91506110b68284610f80565b9150819050949350505050565b60006020820190506110d86000830184610f29565b92915050565b60006020820190506110f36000830184610f38565b92915050565b600060208201905081810360008301526111138184610f47565b905092915050565b6000602082019050818103600083015261113481610fb1565b9050919050565b6000602082019050818103600083015261115481610fd4565b9050919050565b6000602082019050818103600083015261117481610ff7565b9050919050565b600060208201905081810360008301526111948161101a565b9050919050565b600060208201905081810360008301526111b48161103d565b9050919050565b600060208201905081810360008301526111d481611060565b9050919050565b60006020820190506111f06000830184611083565b92915050565b600060408201905061120b6000830185611083565b6112186020830184611083565b9392505050565b600081519050919050565b600082825260208201905092915050565b600081905092915050565b60006112518261133f565b915061125c8361133f565b9250827fffffffffffffffffffffffffffffffffffffffffffffffffffffffffffffffff03821115611291576112906113f6565b5b828201905092915050565b60006112a78261133f565b91506112b28361133f565b9250826112c2576112c1611425565b5b828204905092915050565b60006112d88261133f565b91506112e38361133f565b9250828210156112f6576112f56113f6565b5b828203905092915050565b600061130c8261131f565b9050919050565b60008115159050919050565b600073ffffffffffffffffffffffffffffffffffffffff82169050919050565b6000819050919050565b60005b8381101561136757808201518184015260208101905061134c565b83811115611376576000848401525b50505050565b60006113878261133f565b91507fffffffffffffffffffffffffffffffffffffffffffffffffffffffffffffffff8214156113ba576113b96113f6565b5b600182019050919050565b60006113d08261133f565b91506113db8361133f565b9250826113eb576113ea611425565b5b828206905092915050565b7f4e487b7100000000000000000000000000000000000000000000000000000000600052601160045260246000fd5b7f4e487b7100000000000000000000000000000000000000000000000000000000600052601260045260246000fd5b7f4e487b7100000000000000000000000000000000000000000000000000000000600052603260045260246000fd5b7f4e487b7100000000000000000000000000000000000000000000000000000000600052604160045260246000fd5b600080fd5b6000601f19601f8301169050919050565b7f43616c6c6572206973206e6f74206f776e657200000000000000000000000000600082015250565b7f746f6b656e206e6f7420617661696c61626c6500000000000000000000000000600082015250565b7f67616d6520696e2070726f677265737300000000000000000000000000000000600082015250565b7f636f6f6c20706572696f64206163746976617465640000000000000000000000600082015250565b7f45746865722073656e74206973206e6f7420636f727265637400000000000000600082015250565b7f746f6b656e206e6f742076616c69640000000000000000000000000000000000600082015250565b6115c78161133f565b81146115d257600080fd5b5056fea26469706673582212204e241cbf63213355a8c2150fce34b459e89c7f2af38d2c51f3a6601920a07a4c64736f6c63430008070033",
  "immutableReferences": {},
  "source": "// SPDX-License-Identifier: MIT\n\npragma solidity ^0.8.0;\n\ncontract CryptoPot {\n\n    address public _creator;\n    address public _owner;\n    uint256 public _maxPlayers = 100;\n    uint256 public _price = 0.05 ether;\n    uint256 public _winnerPrice = 4.95 ether;\n    uint256 public _contestId = 1;\n    uint256 public _winnerBlock = 0;\n    uint256 public _coolPeriod = 1000;  //1000 blocks \n    bool    public _coolPeriodStarted = false;\n\n    mapping (uint256 => address) private _tokenId2address;\n    mapping (uint256 => uint256) private _tokenId2block;\n    mapping (uint256 => uint256) private _tokenId2time;\n    mapping (uint256 => bool)    private _tokenId2taken; \n\n    event Winner(uint256 contestId, uint256 tokenId);\n\n    constructor() {\n        _owner = msg.sender;\n        _creator = msg.sender;\n    }\n    modifier onlyOwner() {\n        require(msg.sender == _owner, \"Caller is not owner\");\n        _;\n    }\n    function joinContest(uint256 tokenId) external payable {\n        require(msg.value >= _price, \"Ether sent is not correct\");\n        require(tokenId > 0 && tokenId <= _maxPlayers, \"token not valid\");\n        require(_tokenId2taken[tokenId] == false, \"token not available\");\n\n        if(_coolPeriodStarted) {  //new contest\n            require(block.number - _winnerBlock > _coolPeriod, \"cool period activated\");\n            _coolPeriodStarted = false;\n        }\n\n        _tokenId2address[tokenId] = msg.sender;\n        _tokenId2block[tokenId] = block.number;\n        _tokenId2time[tokenId] = block.timestamp;\n        _tokenId2taken[tokenId] = true;\n        \n        if(availableTokensCount() == 0) {\n            selectWinner();\n        }\n    } \n    function selectWinner() internal {\n        uint256 tempVal = 0;\n        for(uint256 i = 1; i <= _maxPlayers; ++i) {\n            tempVal += _tokenId2block[i];\n            tempVal += _tokenId2time[i];\n            _tokenId2taken[i] = false;   //reset\n        }\n        \n        uint256 winnerTokenId = 1 + (tempVal % _maxPlayers);\n        payable(_tokenId2address[winnerTokenId]).transfer(_winnerPrice);\n        emit Winner(_contestId, winnerTokenId);\n        _coolPeriodStarted = true;\n        _winnerBlock = block.number;\n        _contestId++;\n    }\n    function availableTokensCount() public view returns (uint256) {\n        uint256 count = 0;\n        for(uint256 i = 1; i <= _maxPlayers; ++i) {\n            if(_tokenId2taken[i] == false) {\n                ++count;\n            }\n        }\n        return count;\n    }\n    function availableTokens() external view returns (string memory) {\n        string memory str;\n        for(uint256 i = 1; i <= _maxPlayers; ++i) {\n            if(_tokenId2taken[i] == false) {\n                str = string(abi.encodePacked(str, (bytes(str).length > 0 ? \",\" : \"\"), toString(i))); \n            }\n            if(bytes(str).length > 100) {\n                break;\n            }\n        }\n        return str;\n    }\n    function setCoolPeriod(uint256 _newVal) external onlyOwner {\n        _coolPeriod = _newVal;\n    }\n    function setMaxPlayers(uint256 _newVal) external onlyOwner {\n        _maxPlayers = _newVal;\n    }\n    function setPrice(uint256 _newVal) external onlyOwner {\n        _price = _newVal;\n    }\n    function setWinnerPrice(uint256 _newVal) external onlyOwner {\n        _winnerPrice = _newVal;\n    }\n    function withdraw() external payable {\n        require(_coolPeriodStarted == true, \"game in progress\");\n        payable(_creator).transfer(address(this).balance);\n    }\n    function renounceOwnership() external onlyOwner {\n        _owner = address(0);\n    }\n    function toString(uint256 value) internal pure returns (string memory) {\n        // Inspired by OraclizeAPI's implementation - MIT licence\n        // https://github.com/oraclize/ethereum-api/blob/b42146b063c7d6ee1358846c198246239e9360e8/oraclizeAPI_0.4.25.sol\n\n        if (value == 0) {\n            return \"0\";\n        }\n        uint256 temp = value;\n        uint256 digits;\n        while (temp != 0) {\n            digits++;\n            temp /= 10;\n        }\n        bytes memory buffer = new bytes(digits);\n        while (value != 0) {\n            digits -= 1;\n            buffer[digits] = bytes1(uint8(48 + uint256(value % 10)));\n            value /= 10;\n        }\n        return string(buffer);\n    }\n}\n",
  "sourcePath": "/home/ec2-user/github/nftlaunchpad-dapp/src/contracts/CryptoPot.sol",
  "compiler": {
    "name": "solc",
    "version": "0.8.7+commit.e28d00a7.Emscripten.clang"
  },
  "schemaVersion": "3.4.3",
  "updatedAt": "2022-02-25T13:05:01.056Z",
  "devdoc": {
    "kind": "dev",
    "methods": {},
    "version": 1
  },
  "userdoc": {
    "kind": "user",
    "methods": {},
    "version": 1
  }
}