{
  "contractName": "CryptoBabes",
  "abi": [
    {
      "inputs": [],
      "stateMutability": "nonpayable",
      "type": "constructor"
    },
    {
      "anonymous": false,
      "inputs": [
        {
          "indexed": true,
          "internalType": "address",
          "name": "owner",
          "type": "address"
        },
        {
          "indexed": true,
          "internalType": "address",
          "name": "approved",
          "type": "address"
        },
        {
          "indexed": true,
          "internalType": "uint256",
          "name": "tokenId",
          "type": "uint256"
        }
      ],
      "name": "Approval",
      "type": "event"
    },
    {
      "anonymous": false,
      "inputs": [
        {
          "indexed": true,
          "internalType": "address",
          "name": "owner",
          "type": "address"
        },
        {
          "indexed": true,
          "internalType": "address",
          "name": "operator",
          "type": "address"
        },
        {
          "indexed": false,
          "internalType": "bool",
          "name": "approved",
          "type": "bool"
        }
      ],
      "name": "ApprovalForAll",
      "type": "event"
    },
    {
      "anonymous": false,
      "inputs": [
        {
          "indexed": true,
          "internalType": "address",
          "name": "previousOwner",
          "type": "address"
        },
        {
          "indexed": true,
          "internalType": "address",
          "name": "newOwner",
          "type": "address"
        }
      ],
      "name": "OwnershipTransferred",
      "type": "event"
    },
    {
      "anonymous": false,
      "inputs": [
        {
          "indexed": true,
          "internalType": "address",
          "name": "from",
          "type": "address"
        },
        {
          "indexed": true,
          "internalType": "address",
          "name": "to",
          "type": "address"
        },
        {
          "indexed": true,
          "internalType": "uint256",
          "name": "tokenId",
          "type": "uint256"
        }
      ],
      "name": "Transfer",
      "type": "event"
    },
    {
      "inputs": [],
      "name": "_babeURI",
      "outputs": [
        {
          "internalType": "string",
          "name": "",
          "type": "string"
        }
      ],
      "stateMutability": "view",
      "type": "function"
    },
    {
      "inputs": [],
      "name": "_desc",
      "outputs": [
        {
          "internalType": "string",
          "name": "",
          "type": "string"
        }
      ],
      "stateMutability": "view",
      "type": "function"
    },
    {
      "inputs": [],
      "name": "_maxSupply",
      "outputs": [
        {
          "internalType": "uint256",
          "name": "",
          "type": "uint256"
        }
      ],
      "stateMutability": "view",
      "type": "function"
    },
    {
      "inputs": [],
      "name": "_paused",
      "outputs": [
        {
          "internalType": "bool",
          "name": "",
          "type": "bool"
        }
      ],
      "stateMutability": "view",
      "type": "function"
    },
    {
      "inputs": [],
      "name": "_price",
      "outputs": [
        {
          "internalType": "uint256",
          "name": "",
          "type": "uint256"
        }
      ],
      "stateMutability": "view",
      "type": "function"
    },
    {
      "inputs": [
        {
          "internalType": "address",
          "name": "to",
          "type": "address"
        },
        {
          "internalType": "uint256",
          "name": "tokenId",
          "type": "uint256"
        }
      ],
      "name": "approve",
      "outputs": [],
      "stateMutability": "nonpayable",
      "type": "function"
    },
    {
      "inputs": [
        {
          "internalType": "address",
          "name": "owner",
          "type": "address"
        }
      ],
      "name": "balanceOf",
      "outputs": [
        {
          "internalType": "uint256",
          "name": "",
          "type": "uint256"
        }
      ],
      "stateMutability": "view",
      "type": "function"
    },
    {
      "inputs": [
        {
          "internalType": "uint256",
          "name": "tokenId",
          "type": "uint256"
        }
      ],
      "name": "getApproved",
      "outputs": [
        {
          "internalType": "address",
          "name": "",
          "type": "address"
        }
      ],
      "stateMutability": "view",
      "type": "function"
    },
    {
      "inputs": [
        {
          "internalType": "address",
          "name": "owner",
          "type": "address"
        },
        {
          "internalType": "address",
          "name": "operator",
          "type": "address"
        }
      ],
      "name": "isApprovedForAll",
      "outputs": [
        {
          "internalType": "bool",
          "name": "",
          "type": "bool"
        }
      ],
      "stateMutability": "view",
      "type": "function"
    },
    {
      "inputs": [],
      "name": "name",
      "outputs": [
        {
          "internalType": "string",
          "name": "",
          "type": "string"
        }
      ],
      "stateMutability": "view",
      "type": "function"
    },
    {
      "inputs": [],
      "name": "owner",
      "outputs": [
        {
          "internalType": "address",
          "name": "",
          "type": "address"
        }
      ],
      "stateMutability": "view",
      "type": "function"
    },
    {
      "inputs": [
        {
          "internalType": "uint256",
          "name": "tokenId",
          "type": "uint256"
        }
      ],
      "name": "ownerOf",
      "outputs": [
        {
          "internalType": "address",
          "name": "",
          "type": "address"
        }
      ],
      "stateMutability": "view",
      "type": "function"
    },
    {
      "inputs": [],
      "name": "renounceOwnership",
      "outputs": [],
      "stateMutability": "nonpayable",
      "type": "function"
    },
    {
      "inputs": [
        {
          "internalType": "address",
          "name": "from",
          "type": "address"
        },
        {
          "internalType": "address",
          "name": "to",
          "type": "address"
        },
        {
          "internalType": "uint256",
          "name": "tokenId",
          "type": "uint256"
        }
      ],
      "name": "safeTransferFrom",
      "outputs": [],
      "stateMutability": "nonpayable",
      "type": "function"
    },
    {
      "inputs": [
        {
          "internalType": "address",
          "name": "from",
          "type": "address"
        },
        {
          "internalType": "address",
          "name": "to",
          "type": "address"
        },
        {
          "internalType": "uint256",
          "name": "tokenId",
          "type": "uint256"
        },
        {
          "internalType": "bytes",
          "name": "_data",
          "type": "bytes"
        }
      ],
      "name": "safeTransferFrom",
      "outputs": [],
      "stateMutability": "nonpayable",
      "type": "function"
    },
    {
      "inputs": [
        {
          "internalType": "address",
          "name": "operator",
          "type": "address"
        },
        {
          "internalType": "bool",
          "name": "approved",
          "type": "bool"
        }
      ],
      "name": "setApprovalForAll",
      "outputs": [],
      "stateMutability": "nonpayable",
      "type": "function"
    },
    {
      "inputs": [
        {
          "internalType": "bytes4",
          "name": "interfaceId",
          "type": "bytes4"
        }
      ],
      "name": "supportsInterface",
      "outputs": [
        {
          "internalType": "bool",
          "name": "",
          "type": "bool"
        }
      ],
      "stateMutability": "view",
      "type": "function"
    },
    {
      "inputs": [],
      "name": "symbol",
      "outputs": [
        {
          "internalType": "string",
          "name": "",
          "type": "string"
        }
      ],
      "stateMutability": "view",
      "type": "function"
    },
    {
      "inputs": [
        {
          "internalType": "uint256",
          "name": "index",
          "type": "uint256"
        }
      ],
      "name": "tokenByIndex",
      "outputs": [
        {
          "internalType": "uint256",
          "name": "",
          "type": "uint256"
        }
      ],
      "stateMutability": "view",
      "type": "function"
    },
    {
      "inputs": [
        {
          "internalType": "address",
          "name": "owner",
          "type": "address"
        },
        {
          "internalType": "uint256",
          "name": "index",
          "type": "uint256"
        }
      ],
      "name": "tokenOfOwnerByIndex",
      "outputs": [
        {
          "internalType": "uint256",
          "name": "",
          "type": "uint256"
        }
      ],
      "stateMutability": "view",
      "type": "function"
    },
    {
      "inputs": [],
      "name": "totalSupply",
      "outputs": [
        {
          "internalType": "uint256",
          "name": "",
          "type": "uint256"
        }
      ],
      "stateMutability": "view",
      "type": "function"
    },
    {
      "inputs": [
        {
          "internalType": "address",
          "name": "from",
          "type": "address"
        },
        {
          "internalType": "address",
          "name": "to",
          "type": "address"
        },
        {
          "internalType": "uint256",
          "name": "tokenId",
          "type": "uint256"
        }
      ],
      "name": "transferFrom",
      "outputs": [],
      "stateMutability": "nonpayable",
      "type": "function"
    },
    {
      "inputs": [
        {
          "internalType": "address",
          "name": "newOwner",
          "type": "address"
        }
      ],
      "name": "transferOwnership",
      "outputs": [],
      "stateMutability": "nonpayable",
      "type": "function"
    },
    {
      "inputs": [
        {
          "internalType": "uint256",
          "name": "tokenId",
          "type": "uint256"
        }
      ],
      "name": "tokenURI",
      "outputs": [
        {
          "internalType": "string",
          "name": "",
          "type": "string"
        }
      ],
      "stateMutability": "view",
      "type": "function"
    },
    {
      "inputs": [
        {
          "internalType": "uint256",
          "name": "tokenId",
          "type": "uint256"
        }
      ],
      "name": "mint",
      "outputs": [],
      "stateMutability": "payable",
      "type": "function"
    },
    {
      "inputs": [
        {
          "internalType": "uint256",
          "name": "_newPrice",
          "type": "uint256"
        }
      ],
      "name": "setPrice",
      "outputs": [],
      "stateMutability": "nonpayable",
      "type": "function"
    },
    {
      "inputs": [
        {
          "internalType": "bool",
          "name": "val",
          "type": "bool"
        }
      ],
      "name": "setPause",
      "outputs": [],
      "stateMutability": "nonpayable",
      "type": "function"
    },
    {
      "inputs": [],
      "name": "withdraw",
      "outputs": [],
      "stateMutability": "payable",
      "type": "function"
    }
  ],
  "bytecode": "0x608060405266b1a2bc2ec50000600b556000600c60006101000a81548160ff0219169083151502179055503480156200003757600080fd5b506040518060400160405280600b81526020017f43727970746f42616265730000000000000000000000000000000000000000008152506040518060400160405280600a81526020017f43525950544f42414245000000000000000000000000000000000000000000008152508160009080519060200190620000bc929190620001cc565b508060019080519060200190620000d5929190620001cc565b505050620000f8620000ec620000fe60201b60201c565b6200010660201b60201c565b620002e1565b600033905090565b6000600a60009054906101000a900473ffffffffffffffffffffffffffffffffffffffff16905081600a60006101000a81548173ffffffffffffffffffffffffffffffffffffffff021916908373ffffffffffffffffffffffffffffffffffffffff1602179055508173ffffffffffffffffffffffffffffffffffffffff168173ffffffffffffffffffffffffffffffffffffffff167f8be0079c531659141344cd1fd0a4f28419497f9722a3daafe3b4186f6b6457e060405160405180910390a35050565b828054620001da906200027c565b90600052602060002090601f016020900481019282620001fe57600085556200024a565b82601f106200021957805160ff19168380011785556200024a565b828001600101855582156200024a579182015b82811115620002495782518255916020019190600101906200022c565b5b5090506200025991906200025d565b5090565b5b80821115620002785760008160009055506001016200025e565b5090565b600060028204905060018216806200029557607f821691505b60208210811415620002ac57620002ab620002b2565b5b50919050565b7f4e487b7100000000000000000000000000000000000000000000000000000000600052602260045260246000fd5b613fef80620002f16000396000f3fe6080604052600436106101b75760003560e01c80635f8d7699116100ec578063a0712d681161008a578063bedb86fb11610064578063bedb86fb146105e0578063c87b56dd14610609578063e985e9c514610646578063f2fde38b14610683576101b7565b8063a0712d6814610572578063a22cb4651461058e578063b88d4fde146105b7576101b7565b8063715018a6116100c6578063715018a6146104dc5780638da5cb5b146104f357806391b7f5ed1461051e57806395d89b4114610547576101b7565b80635f8d7699146104375780636352211e1461046257806370a082311461049f576101b7565b8063235b6ea1116101595780632f745c59116101335780632f745c591461038a5780633ccfd60b146103c757806342842e0e146103d15780634f6ccce7146103fa576101b7565b8063235b6ea11461030b57806323b872dd1461033657806327e756f91461035f576101b7565b8063095ea7b311610195578063095ea7b31461026157806316c61ccc1461028a57806318160ddd146102b557806322f4596f146102e0576101b7565b806301ffc9a7146101bc57806306fdde03146101f9578063081812fc14610224575b600080fd5b3480156101c857600080fd5b506101e360048036038101906101de9190612b18565b6106ac565b6040516101f091906130ff565b60405180910390f35b34801561020557600080fd5b5061020e610726565b60405161021b919061311a565b60405180910390f35b34801561023057600080fd5b5061024b60048036038101906102469190612b72565b6107b8565b6040516102589190613098565b60405180910390f35b34801561026d57600080fd5b5061028860048036038101906102839190612aab565b61083d565b005b34801561029657600080fd5b5061029f610955565b6040516102ac91906130ff565b60405180910390f35b3480156102c157600080fd5b506102ca610968565b6040516102d791906133bc565b60405180910390f35b3480156102ec57600080fd5b506102f5610975565b60405161030291906133bc565b60405180910390f35b34801561031757600080fd5b5061032061097b565b60405161032d91906133bc565b60405180910390f35b34801561034257600080fd5b5061035d60048036038101906103589190612995565b610981565b005b34801561036b57600080fd5b506103746109e1565b604051610381919061311a565b60405180910390f35b34801561039657600080fd5b506103b160048036038101906103ac9190612aab565b6109fd565b6040516103be91906133bc565b60405180910390f35b6103cf610aa2565b005b3480156103dd57600080fd5b506103f860048036038101906103f39190612995565b610b67565b005b34801561040657600080fd5b50610421600480360381019061041c9190612b72565b610b87565b60405161042e91906133bc565b60405180910390f35b34801561044357600080fd5b5061044c610bf8565b604051610459919061311a565b60405180910390f35b34801561046e57600080fd5b5061048960048036038101906104849190612b72565b610c14565b6040516104969190613098565b60405180910390f35b3480156104ab57600080fd5b506104c660048036038101906104c19190612928565b610cc6565b6040516104d391906133bc565b60405180910390f35b3480156104e857600080fd5b506104f1610d7e565b005b3480156104ff57600080fd5b50610508610e06565b6040516105159190613098565b60405180910390f35b34801561052a57600080fd5b5061054560048036038101906105409190612b72565b610e30565b005b34801561055357600080fd5b5061055c610eb6565b604051610569919061311a565b60405180910390f35b61058c60048036038101906105879190612b72565b610f48565b005b34801561059a57600080fd5b506105b560048036038101906105b09190612a6b565b6110a3565b005b3480156105c357600080fd5b506105de60048036038101906105d991906129e8565b611224565b005b3480156105ec57600080fd5b5061060760048036038101906106029190612aeb565b611286565b005b34801561061557600080fd5b50610630600480360381019061062b9190612b72565b61131f565b60405161063d919061311a565b60405180910390f35b34801561065257600080fd5b5061066d60048036038101906106689190612955565b611442565b60405161067a91906130ff565b60405180910390f35b34801561068f57600080fd5b506106aa60048036038101906106a59190612928565b6114d6565b005b60007f780e9d63000000000000000000000000000000000000000000000000000000007bffffffffffffffffffffffffffffffffffffffffffffffffffffffff1916827bffffffffffffffffffffffffffffffffffffffffffffffffffffffff1916148061071f575061071e826115ce565b5b9050919050565b6060600080546107359061363b565b80601f01602080910402602001604051908101604052809291908181526020018280546107619061363b565b80156107ae5780601f10610783576101008083540402835291602001916107ae565b820191906000526020600020905b81548152906001019060200180831161079157829003601f168201915b5050505050905090565b60006107c3826116b0565b610802576040517f08c379a00000000000000000000000000000000000000000000000000000000081526004016107f9906132bc565b60405180910390fd5b6004600083815260200190815260200160002060009054906101000a900473ffffffffffffffffffffffffffffffffffffffff169050919050565b600061084882610c14565b90508073ffffffffffffffffffffffffffffffffffffffff168373ffffffffffffffffffffffffffffffffffffffff1614156108b9576040517f08c379a00000000000000000000000000000000000000000000000000000000081526004016108b09061331c565b60405180910390fd5b8073ffffffffffffffffffffffffffffffffffffffff166108d861171c565b73ffffffffffffffffffffffffffffffffffffffff16148061090757506109068161090161171c565b611442565b5b610946576040517f08c379a000000000000000000000000000000000000000000000000000000000815260040161093d9061323c565b60405180910390fd5b6109508383611724565b505050565b600c60009054906101000a900460ff1681565b6000600880549050905090565b6103e881565b600b5481565b61099261098c61171c565b826117dd565b6109d1576040517f08c379a00000000000000000000000000000000000000000000000000000000081526004016109c89061337c565b60405180910390fd5b6109dc8383836118bb565b505050565b6040518060600160405280602f8152602001613f8b602f913981565b6000610a0883610cc6565b8210610a49576040517f08c379a0000000000000000000000000000000000000000000000000000000008152600401610a409061315c565b60405180910390fd5b600660008473ffffffffffffffffffffffffffffffffffffffff1673ffffffffffffffffffffffffffffffffffffffff168152602001908152602001600020600083815260200190815260200160002054905092915050565b610aaa61171c565b73ffffffffffffffffffffffffffffffffffffffff16610ac8610e06565b73ffffffffffffffffffffffffffffffffffffffff1614610b1e576040517f08c379a0000000000000000000000000000000000000000000000000000000008152600401610b15906132dc565b60405180910390fd5b3373ffffffffffffffffffffffffffffffffffffffff166108fc479081150290604051600060405180830381858888f19350505050158015610b64573d6000803e3d6000fd5b50565b610b8283838360405180602001604052806000815250611224565b505050565b6000610b91610968565b8210610bd2576040517f08c379a0000000000000000000000000000000000000000000000000000000008152600401610bc99061339c565b60405180910390fd5b60088281548110610be657610be56137de565b5b90600052602060002001549050919050565b6040518060a0016040528060788152602001613ed36078913981565b6000806002600084815260200190815260200160002060009054906101000a900473ffffffffffffffffffffffffffffffffffffffff169050600073ffffffffffffffffffffffffffffffffffffffff168173ffffffffffffffffffffffffffffffffffffffff161415610cbd576040517f08c379a0000000000000000000000000000000000000000000000000000000008152600401610cb49061327c565b60405180910390fd5b80915050919050565b60008073ffffffffffffffffffffffffffffffffffffffff168273ffffffffffffffffffffffffffffffffffffffff161415610d37576040517f08c379a0000000000000000000000000000000000000000000000000000000008152600401610d2e9061325c565b60405180910390fd5b600360008373ffffffffffffffffffffffffffffffffffffffff1673ffffffffffffffffffffffffffffffffffffffff168152602001908152602001600020549050919050565b610d8661171c565b73ffffffffffffffffffffffffffffffffffffffff16610da4610e06565b73ffffffffffffffffffffffffffffffffffffffff1614610dfa576040517f08c379a0000000000000000000000000000000000000000000000000000000008152600401610df1906132dc565b60405180910390fd5b610e046000611b17565b565b6000600a60009054906101000a900473ffffffffffffffffffffffffffffffffffffffff16905090565b610e3861171c565b73ffffffffffffffffffffffffffffffffffffffff16610e56610e06565b73ffffffffffffffffffffffffffffffffffffffff1614610eac576040517f08c379a0000000000000000000000000000000000000000000000000000000008152600401610ea3906132dc565b60405180910390fd5b80600b8190555050565b606060018054610ec59061363b565b80601f0160208091040260200160405190810160405280929190818152602001828054610ef19061363b565b8015610f3e5780601f10610f1357610100808354040283529160200191610f3e565b820191906000526020600020905b815481529060010190602001808311610f2157829003601f168201915b5050505050905090565b600c60009054906101000a900460ff1615610f98576040517f08c379a0000000000000000000000000000000000000000000000000000000008152600401610f8f9061313c565b60405180910390fd5b600081118015610fb157506103e8610fae610968565b11155b610ff0576040517f08c379a0000000000000000000000000000000000000000000000000000000008152600401610fe79061333c565b60405180910390fd5b600b54341015611035576040517f08c379a000000000000000000000000000000000000000000000000000000000815260040161102c9061335c565b60405180910390fd5b6040518060600160405280602f8152602001613f8b602f913981604051602001611060929190612ff1565b604051602081830303815290604052600d600083815260200190815260200160002090805190602001906110959291906127ac565b506110a03382611bdd565b50565b6110ab61171c565b73ffffffffffffffffffffffffffffffffffffffff168273ffffffffffffffffffffffffffffffffffffffff161415611119576040517f08c379a0000000000000000000000000000000000000000000000000000000008152600401611110906131fc565b60405180910390fd5b806005600061112661171c565b73ffffffffffffffffffffffffffffffffffffffff1673ffffffffffffffffffffffffffffffffffffffff16815260200190815260200160002060008473ffffffffffffffffffffffffffffffffffffffff1673ffffffffffffffffffffffffffffffffffffffff16815260200190815260200160002060006101000a81548160ff0219169083151502179055508173ffffffffffffffffffffffffffffffffffffffff166111d361171c565b73ffffffffffffffffffffffffffffffffffffffff167f17307eab39ab6107e8899845ad3d59bd9653f200f220920489ca2b5937696c318360405161121891906130ff565b60405180910390a35050565b61123561122f61171c565b836117dd565b611274576040517f08c379a000000000000000000000000000000000000000000000000000000000815260040161126b9061337c565b60405180910390fd5b61128084848484611bfb565b50505050565b61128e61171c565b73ffffffffffffffffffffffffffffffffffffffff166112ac610e06565b73ffffffffffffffffffffffffffffffffffffffff1614611302576040517f08c379a00000000000000000000000000000000000000000000000000000000081526004016112f9906132dc565b60405180910390fd5b80600c60006101000a81548160ff02191690831515021790555050565b6060600061141261132f84611c57565b6040518060a0016040528060788152602001613ed3607891396113ec600d600088815260200190815260200160002080546113699061363b565b80601f01602080910402602001604051908101604052809291908181526020018280546113959061363b565b80156113e25780601f106113b7576101008083540402835291602001916113e2565b820191906000526020600020905b8154815290600101906020018083116113c557829003601f168201915b5050505050611db8565b6040516020016113fe93929190613019565b604051602081830303815290604052611db8565b90506000816040516020016114279190613076565b60405160208183030381529060405290508092505050919050565b6000600560008473ffffffffffffffffffffffffffffffffffffffff1673ffffffffffffffffffffffffffffffffffffffff16815260200190815260200160002060008373ffffffffffffffffffffffffffffffffffffffff1673ffffffffffffffffffffffffffffffffffffffff16815260200190815260200160002060009054906101000a900460ff16905092915050565b6114de61171c565b73ffffffffffffffffffffffffffffffffffffffff166114fc610e06565b73ffffffffffffffffffffffffffffffffffffffff1614611552576040517f08c379a0000000000000000000000000000000000000000000000000000000008152600401611549906132dc565b60405180910390fd5b600073ffffffffffffffffffffffffffffffffffffffff168173ffffffffffffffffffffffffffffffffffffffff1614156115c2576040517f08c379a00000000000000000000000000000000000000000000000000000000081526004016115b99061319c565b60405180910390fd5b6115cb81611b17565b50565b60007f80ac58cd000000000000000000000000000000000000000000000000000000007bffffffffffffffffffffffffffffffffffffffffffffffffffffffff1916827bffffffffffffffffffffffffffffffffffffffffffffffffffffffff1916148061169957507f5b5e139f000000000000000000000000000000000000000000000000000000007bffffffffffffffffffffffffffffffffffffffffffffffffffffffff1916827bffffffffffffffffffffffffffffffffffffffffffffffffffffffff1916145b806116a957506116a882611f50565b5b9050919050565b60008073ffffffffffffffffffffffffffffffffffffffff166002600084815260200190815260200160002060009054906101000a900473ffffffffffffffffffffffffffffffffffffffff1673ffffffffffffffffffffffffffffffffffffffff1614159050919050565b600033905090565b816004600083815260200190815260200160002060006101000a81548173ffffffffffffffffffffffffffffffffffffffff021916908373ffffffffffffffffffffffffffffffffffffffff160217905550808273ffffffffffffffffffffffffffffffffffffffff1661179783610c14565b73ffffffffffffffffffffffffffffffffffffffff167f8c5be1e5ebec7d5bd14f71427d1e84f3dd0314c0f7b2291e5b200ac8c7c3b92560405160405180910390a45050565b60006117e8826116b0565b611827576040517f08c379a000000000000000000000000000000000000000000000000000000000815260040161181e9061321c565b60405180910390fd5b600061183283610c14565b90508073ffffffffffffffffffffffffffffffffffffffff168473ffffffffffffffffffffffffffffffffffffffff1614806118a157508373ffffffffffffffffffffffffffffffffffffffff16611889846107b8565b73ffffffffffffffffffffffffffffffffffffffff16145b806118b257506118b18185611442565b5b91505092915050565b8273ffffffffffffffffffffffffffffffffffffffff166118db82610c14565b73ffffffffffffffffffffffffffffffffffffffff1614611931576040517f08c379a0000000000000000000000000000000000000000000000000000000008152600401611928906132fc565b60405180910390fd5b600073ffffffffffffffffffffffffffffffffffffffff168273ffffffffffffffffffffffffffffffffffffffff1614156119a1576040517f08c379a0000000000000000000000000000000000000000000000000000000008152600401611998906131dc565b60405180910390fd5b6119ac838383611fba565b6119b7600082611724565b6001600360008573ffffffffffffffffffffffffffffffffffffffff1673ffffffffffffffffffffffffffffffffffffffff1681526020019081526020016000206000828254611a079190613551565b925050819055506001600360008473ffffffffffffffffffffffffffffffffffffffff1673ffffffffffffffffffffffffffffffffffffffff1681526020019081526020016000206000828254611a5e9190613470565b92505081905550816002600083815260200190815260200160002060006101000a81548173ffffffffffffffffffffffffffffffffffffffff021916908373ffffffffffffffffffffffffffffffffffffffff160217905550808273ffffffffffffffffffffffffffffffffffffffff168473ffffffffffffffffffffffffffffffffffffffff167fddf252ad1be2c89b69c2b068fc378daa952ba7f163c4a11628f55a4df523b3ef60405160405180910390a4505050565b6000600a60009054906101000a900473ffffffffffffffffffffffffffffffffffffffff16905081600a60006101000a81548173ffffffffffffffffffffffffffffffffffffffff021916908373ffffffffffffffffffffffffffffffffffffffff1602179055508173ffffffffffffffffffffffffffffffffffffffff168173ffffffffffffffffffffffffffffffffffffffff167f8be0079c531659141344cd1fd0a4f28419497f9722a3daafe3b4186f6b6457e060405160405180910390a35050565b611bf78282604051806020016040528060008152506120ce565b5050565b611c068484846118bb565b611c1284848484612129565b611c51576040517f08c379a0000000000000000000000000000000000000000000000000000000008152600401611c489061317c565b60405180910390fd5b50505050565b60606000821415611c9f576040518060400160405280600181526020017f30000000000000000000000000000000000000000000000000000000000000008152509050611db3565b600082905060005b60008214611cd1578080611cba9061369e565b915050600a82611cca91906134c6565b9150611ca7565b60008167ffffffffffffffff811115611ced57611cec61380d565b5b6040519080825280601f01601f191660200182016040528015611d1f5781602001600182028036833780820191505090505b5090505b60008514611dac57600182611d389190613551565b9150600a85611d4791906136f1565b6030611d539190613470565b60f81b818381518110611d6957611d686137de565b5b60200101907effffffffffffffffffffffffffffffffffffffffffffffffffffffffffffff1916908160001a905350600a85611da591906134c6565b9450611d23565b8093505050505b919050565b60606000825190506000811415611de15760405180602001604052806000815250915050611f4b565b60006003600283611df29190613470565b611dfc91906134c6565b6004611e0891906134f7565b90506000602082611e199190613470565b67ffffffffffffffff811115611e3257611e3161380d565b5b6040519080825280601f01601f191660200182016040528015611e645781602001600182028036833780820191505090505b5090506000604051806060016040528060408152602001613f4b604091399050600181016020830160005b86811015611f085760038101905062ffffff818a015116603f8160121c168401518060081b905060ff603f83600c1c1686015116810190508060081b905060ff603f8360061c1686015116810190508060081b905060ff603f831686015116810190508060e01b90508084526004840193505050611e8f565b506003860660018114611f225760028114611f3257611f3d565b613d3d60f01b6002830352611f3d565b603d60f81b60018303525b508484525050819450505050505b919050565b60007f01ffc9a7000000000000000000000000000000000000000000000000000000007bffffffffffffffffffffffffffffffffffffffffffffffffffffffff1916827bffffffffffffffffffffffffffffffffffffffffffffffffffffffff1916149050919050565b611fc58383836122c0565b600073ffffffffffffffffffffffffffffffffffffffff168373ffffffffffffffffffffffffffffffffffffffff16141561200857612003816122c5565b612047565b8173ffffffffffffffffffffffffffffffffffffffff168373ffffffffffffffffffffffffffffffffffffffff161461204657612045838261230e565b5b5b600073ffffffffffffffffffffffffffffffffffffffff168273ffffffffffffffffffffffffffffffffffffffff16141561208a576120858161247b565b6120c9565b8273ffffffffffffffffffffffffffffffffffffffff168273ffffffffffffffffffffffffffffffffffffffff16146120c8576120c7828261254c565b5b5b505050565b6120d883836125cb565b6120e56000848484612129565b612124576040517f08c379a000000000000000000000000000000000000000000000000000000000815260040161211b9061317c565b60405180910390fd5b505050565b600061214a8473ffffffffffffffffffffffffffffffffffffffff16612799565b156122b3578373ffffffffffffffffffffffffffffffffffffffff1663150b7a0261217361171c565b8786866040518563ffffffff1660e01b815260040161219594939291906130b3565b602060405180830381600087803b1580156121af57600080fd5b505af19250505080156121e057506040513d601f19601f820116820180604052508101906121dd9190612b45565b60015b612263573d8060008114612210576040519150601f19603f3d011682016040523d82523d6000602084013e612215565b606091505b5060008151141561225b576040517f08c379a00000000000000000000000000000000000000000000000000000000081526004016122529061317c565b60405180910390fd5b805181602001fd5b63150b7a0260e01b7bffffffffffffffffffffffffffffffffffffffffffffffffffffffff1916817bffffffffffffffffffffffffffffffffffffffffffffffffffffffff1916149150506122b8565b600190505b949350505050565b505050565b6008805490506009600083815260200190815260200160002081905550600881908060018154018082558091505060019003906000526020600020016000909190919091505550565b6000600161231b84610cc6565b6123259190613551565b905060006007600084815260200190815260200160002054905081811461240a576000600660008673ffffffffffffffffffffffffffffffffffffffff1673ffffffffffffffffffffffffffffffffffffffff168152602001908152602001600020600084815260200190815260200160002054905080600660008773ffffffffffffffffffffffffffffffffffffffff1673ffffffffffffffffffffffffffffffffffffffff168152602001908152602001600020600084815260200190815260200160002081905550816007600083815260200190815260200160002081905550505b6007600084815260200190815260200160002060009055600660008573ffffffffffffffffffffffffffffffffffffffff1673ffffffffffffffffffffffffffffffffffffffff16815260200190815260200160002060008381526020019081526020016000206000905550505050565b6000600160088054905061248f9190613551565b90506000600960008481526020019081526020016000205490506000600883815481106124bf576124be6137de565b5b9060005260206000200154905080600883815481106124e1576124e06137de565b5b9060005260206000200181905550816009600083815260200190815260200160002081905550600960008581526020019081526020016000206000905560088054806125305761252f6137af565b5b6001900381819060005260206000200160009055905550505050565b600061255783610cc6565b905081600660008573ffffffffffffffffffffffffffffffffffffffff1673ffffffffffffffffffffffffffffffffffffffff168152602001908152602001600020600083815260200190815260200160002081905550806007600084815260200190815260200160002081905550505050565b600073ffffffffffffffffffffffffffffffffffffffff168273ffffffffffffffffffffffffffffffffffffffff16141561263b576040517f08c379a00000000000000000000000000000000000000000000000000000000081526004016126329061329c565b60405180910390fd5b612644816116b0565b15612684576040517f08c379a000000000000000000000000000000000000000000000000000000000815260040161267b906131bc565b60405180910390fd5b61269060008383611fba565b6001600360008473ffffffffffffffffffffffffffffffffffffffff1673ffffffffffffffffffffffffffffffffffffffff16815260200190815260200160002060008282546126e09190613470565b92505081905550816002600083815260200190815260200160002060006101000a81548173ffffffffffffffffffffffffffffffffffffffff021916908373ffffffffffffffffffffffffffffffffffffffff160217905550808273ffffffffffffffffffffffffffffffffffffffff16600073ffffffffffffffffffffffffffffffffffffffff167fddf252ad1be2c89b69c2b068fc378daa952ba7f163c4a11628f55a4df523b3ef60405160405180910390a45050565b600080823b905060008111915050919050565b8280546127b89061363b565b90600052602060002090601f0160209004810192826127da5760008555612821565b82601f106127f357805160ff1916838001178555612821565b82800160010185558215612821579182015b82811115612820578251825591602001919060010190612805565b5b50905061282e9190612832565b5090565b5b8082111561284b576000816000905550600101612833565b5090565b600061286261285d846133fc565b6133d7565b90508281526020810184848401111561287e5761287d613841565b5b6128898482856135f9565b509392505050565b6000813590506128a081613e76565b92915050565b6000813590506128b581613e8d565b92915050565b6000813590506128ca81613ea4565b92915050565b6000815190506128df81613ea4565b92915050565b600082601f8301126128fa576128f961383c565b5b813561290a84826020860161284f565b91505092915050565b60008135905061292281613ebb565b92915050565b60006020828403121561293e5761293d61384b565b5b600061294c84828501612891565b91505092915050565b6000806040838503121561296c5761296b61384b565b5b600061297a85828601612891565b925050602061298b85828601612891565b9150509250929050565b6000806000606084860312156129ae576129ad61384b565b5b60006129bc86828701612891565b93505060206129cd86828701612891565b92505060406129de86828701612913565b9150509250925092565b60008060008060808587031215612a0257612a0161384b565b5b6000612a1087828801612891565b9450506020612a2187828801612891565b9350506040612a3287828801612913565b925050606085013567ffffffffffffffff811115612a5357612a52613846565b5b612a5f878288016128e5565b91505092959194509250565b60008060408385031215612a8257612a8161384b565b5b6000612a9085828601612891565b9250506020612aa1858286016128a6565b9150509250929050565b60008060408385031215612ac257612ac161384b565b5b6000612ad085828601612891565b9250506020612ae185828601612913565b9150509250929050565b600060208284031215612b0157612b0061384b565b5b6000612b0f848285016128a6565b91505092915050565b600060208284031215612b2e57612b2d61384b565b5b6000612b3c848285016128bb565b91505092915050565b600060208284031215612b5b57612b5a61384b565b5b6000612b69848285016128d0565b91505092915050565b600060208284031215612b8857612b8761384b565b5b6000612b9684828501612913565b91505092915050565b612ba881613585565b82525050565b612bb781613597565b82525050565b6000612bc88261342d565b612bd28185613443565b9350612be2818560208601613608565b612beb81613850565b840191505092915050565b6000612c0182613438565b612c0b8185613454565b9350612c1b818560208601613608565b612c2481613850565b840191505092915050565b6000612c3a82613438565b612c448185613465565b9350612c54818560208601613608565b80840191505092915050565b6000612c6d600b83613454565b9150612c7882613861565b602082019050919050565b6000612c90601383613465565b9150612c9b8261388a565b601382019050919050565b6000612cb3602b83613454565b9150612cbe826138b3565b604082019050919050565b6000612cd6603283613454565b9150612ce182613902565b604082019050919050565b6000612cf9602683613454565b9150612d0482613951565b604082019050919050565b6000612d1c601c83613454565b9150612d27826139a0565b602082019050919050565b6000612d3f602483613454565b9150612d4a826139c9565b604082019050919050565b6000612d62601983613454565b9150612d6d82613a18565b602082019050919050565b6000612d85602c83613454565b9150612d9082613a41565b604082019050919050565b6000612da8603883613454565b9150612db382613a90565b604082019050919050565b6000612dcb602a83613454565b9150612dd682613adf565b604082019050919050565b6000612dee602983613454565b9150612df982613b2e565b604082019050919050565b6000612e11601183613465565b9150612e1c82613b7d565b601182019050919050565b6000612e34600283613465565b9150612e3f82613ba6565b600282019050919050565b6000612e57602083613454565b9150612e6282613bcf565b602082019050919050565b6000612e7a602c83613454565b9150612e8582613bf8565b604082019050919050565b6000612e9d602083613454565b9150612ea882613c47565b602082019050919050565b6000612ec0602983613454565b9150612ecb82613c70565b604082019050919050565b6000612ee3602783613465565b9150612eee82613cbf565b602782019050919050565b6000612f06602183613454565b9150612f1182613d0e565b604082019050919050565b6000612f29601683613454565b9150612f3482613d5d565b602082019050919050565b6000612f4c601983613454565b9150612f5782613d86565b602082019050919050565b6000612f6f601d83613465565b9150612f7a82613daf565b601d82019050919050565b6000612f92603183613454565b9150612f9d82613dd8565b604082019050919050565b6000612fb5602c83613454565b9150612fc082613e27565b604082019050919050565b612fd4816135ef565b82525050565b612feb612fe6826135ef565b6136e7565b82525050565b6000612ffd8285612c2f565b91506130098284612fda565b6020820191508190509392505050565b600061302482612e04565b91506130308286612c2f565b915061303b82612c83565b91506130478285612c2f565b915061305282612ed6565b915061305e8284612c2f565b915061306982612e27565b9150819050949350505050565b600061308182612f62565b915061308d8284612c2f565b915081905092915050565b60006020820190506130ad6000830184612b9f565b92915050565b60006080820190506130c86000830187612b9f565b6130d56020830186612b9f565b6130e26040830185612fcb565b81810360608301526130f48184612bbd565b905095945050505050565b60006020820190506131146000830184612bae565b92915050565b600060208201905081810360008301526131348184612bf6565b905092915050565b6000602082019050818103600083015261315581612c60565b9050919050565b6000602082019050818103600083015261317581612ca6565b9050919050565b6000602082019050818103600083015261319581612cc9565b9050919050565b600060208201905081810360008301526131b581612cec565b9050919050565b600060208201905081810360008301526131d581612d0f565b9050919050565b600060208201905081810360008301526131f581612d32565b9050919050565b6000602082019050818103600083015261321581612d55565b9050919050565b6000602082019050818103600083015261323581612d78565b9050919050565b6000602082019050818103600083015261325581612d9b565b9050919050565b6000602082019050818103600083015261327581612dbe565b9050919050565b6000602082019050818103600083015261329581612de1565b9050919050565b600060208201905081810360008301526132b581612e4a565b9050919050565b600060208201905081810360008301526132d581612e6d565b9050919050565b600060208201905081810360008301526132f581612e90565b9050919050565b6000602082019050818103600083015261331581612eb3565b9050919050565b6000602082019050818103600083015261333581612ef9565b9050919050565b6000602082019050818103600083015261335581612f1c565b9050919050565b6000602082019050818103600083015261337581612f3f565b9050919050565b6000602082019050818103600083015261339581612f85565b9050919050565b600060208201905081810360008301526133b581612fa8565b9050919050565b60006020820190506133d16000830184612fcb565b92915050565b60006133e16133f2565b90506133ed828261366d565b919050565b6000604051905090565b600067ffffffffffffffff8211156134175761341661380d565b5b61342082613850565b9050602081019050919050565b600081519050919050565b600081519050919050565b600082825260208201905092915050565b600082825260208201905092915050565b600081905092915050565b600061347b826135ef565b9150613486836135ef565b9250827fffffffffffffffffffffffffffffffffffffffffffffffffffffffffffffffff038211156134bb576134ba613722565b5b828201905092915050565b60006134d1826135ef565b91506134dc836135ef565b9250826134ec576134eb613751565b5b828204905092915050565b6000613502826135ef565b915061350d836135ef565b9250817fffffffffffffffffffffffffffffffffffffffffffffffffffffffffffffffff048311821515161561354657613545613722565b5b828202905092915050565b600061355c826135ef565b9150613567836135ef565b92508282101561357a57613579613722565b5b828203905092915050565b6000613590826135cf565b9050919050565b60008115159050919050565b60007fffffffff0000000000000000000000000000000000000000000000000000000082169050919050565b600073ffffffffffffffffffffffffffffffffffffffff82169050919050565b6000819050919050565b82818337600083830152505050565b60005b8381101561362657808201518184015260208101905061360b565b83811115613635576000848401525b50505050565b6000600282049050600182168061365357607f821691505b6020821081141561366757613666613780565b5b50919050565b61367682613850565b810181811067ffffffffffffffff821117156136955761369461380d565b5b80604052505050565b60006136a9826135ef565b91507fffffffffffffffffffffffffffffffffffffffffffffffffffffffffffffffff8214156136dc576136db613722565b5b600182019050919050565b6000819050919050565b60006136fc826135ef565b9150613707836135ef565b92508261371757613716613751565b5b828206905092915050565b7f4e487b7100000000000000000000000000000000000000000000000000000000600052601160045260246000fd5b7f4e487b7100000000000000000000000000000000000000000000000000000000600052601260045260246000fd5b7f4e487b7100000000000000000000000000000000000000000000000000000000600052602260045260246000fd5b7f4e487b7100000000000000000000000000000000000000000000000000000000600052603160045260246000fd5b7f4e487b7100000000000000000000000000000000000000000000000000000000600052603260045260246000fd5b7f4e487b7100000000000000000000000000000000000000000000000000000000600052604160045260246000fd5b600080fd5b600080fd5b600080fd5b600080fd5b6000601f19601f8301169050919050565b7f53616c6520706175736564000000000000000000000000000000000000000000600082015250565b7f222c20226465736372697074696f6e223a202200000000000000000000000000600082015250565b7f455243373231456e756d657261626c653a206f776e657220696e646578206f7560008201527f74206f6620626f756e6473000000000000000000000000000000000000000000602082015250565b7f4552433732313a207472616e7366657220746f206e6f6e20455243373231526560008201527f63656976657220696d706c656d656e7465720000000000000000000000000000602082015250565b7f4f776e61626c653a206e6577206f776e657220697320746865207a65726f206160008201527f6464726573730000000000000000000000000000000000000000000000000000602082015250565b7f4552433732313a20746f6b656e20616c7265616479206d696e74656400000000600082015250565b7f4552433732313a207472616e7366657220746f20746865207a65726f2061646460008201527f7265737300000000000000000000000000000000000000000000000000000000602082015250565b7f4552433732313a20617070726f766520746f2063616c6c657200000000000000600082015250565b7f4552433732313a206f70657261746f7220717565727920666f72206e6f6e657860008201527f697374656e7420746f6b656e0000000000000000000000000000000000000000602082015250565b7f4552433732313a20617070726f76652063616c6c6572206973206e6f74206f7760008201527f6e6572206e6f7220617070726f76656420666f7220616c6c0000000000000000602082015250565b7f4552433732313a2062616c616e636520717565727920666f7220746865207a6560008201527f726f206164647265737300000000000000000000000000000000000000000000602082015250565b7f4552433732313a206f776e657220717565727920666f72206e6f6e657869737460008201527f656e7420746f6b656e0000000000000000000000000000000000000000000000602082015250565b7f7b226e616d65223a20224e46544c502023000000000000000000000000000000600082015250565b7f227d000000000000000000000000000000000000000000000000000000000000600082015250565b7f4552433732313a206d696e7420746f20746865207a65726f2061646472657373600082015250565b7f4552433732313a20617070726f76656420717565727920666f72206e6f6e657860008201527f697374656e7420746f6b656e0000000000000000000000000000000000000000602082015250565b7f4f776e61626c653a2063616c6c6572206973206e6f7420746865206f776e6572600082015250565b7f4552433732313a207472616e73666572206f6620746f6b656e2074686174206960008201527f73206e6f74206f776e0000000000000000000000000000000000000000000000602082015250565b7f222c2022696d616765223a2022646174613a696d6167652f7376672b786d6c3b60008201527f6261736536342c00000000000000000000000000000000000000000000000000602082015250565b7f4552433732313a20617070726f76616c20746f2063757272656e74206f776e6560008201527f7200000000000000000000000000000000000000000000000000000000000000602082015250565b7f45786365656473206d6178696d756d20737570706c7900000000000000000000600082015250565b7f45746865722073656e74206973206e6f7420636f727265637400000000000000600082015250565b7f646174613a6170706c69636174696f6e2f6a736f6e3b6261736536342c000000600082015250565b7f4552433732313a207472616e736665722063616c6c6572206973206e6f74206f60008201527f776e6572206e6f7220617070726f766564000000000000000000000000000000602082015250565b7f455243373231456e756d657261626c653a20676c6f62616c20696e646578206f60008201527f7574206f6620626f756e64730000000000000000000000000000000000000000602082015250565b613e7f81613585565b8114613e8a57600080fd5b50565b613e9681613597565b8114613ea157600080fd5b50565b613ead816135a3565b8114613eb857600080fd5b50565b613ec4816135ef565b8114613ecf57600080fd5b5056fe43727970746f4261626573206973206120756e6971756520636f6c6c656374696f6e206f66206261626573206f6e20746865206265616368202d2064656469636174656420746f20616c6c2074686520776f6d656e2077686f206d616b65206f7572206c69766573206265747465722065766572796461794142434445464748494a4b4c4d4e4f505152535455565758595a6162636465666768696a6b6c6d6e6f707172737475767778797a303132333435363738392b2f687474703a2f2f6e66742d6c61756e63687061642e696f2f63727970746f62616265732f63727970746f626162652da26469706673582212204ff8b12fc144cf5ae16cd0fb00d56e94018c4d9105dd39186347652bdca0c18164736f6c63430008070033",
  "immutableReferences": {},
  "source": "// SPDX-License-Identifier: MIT\n\npragma solidity ^0.8.0;\n\nimport \"./FullERC721.sol\";\n\ncontract CryptoBabes is ERC721Enumerable, Ownable {\n\n    uint256 public constant _maxSupply = 1000;\n    uint256 public _price = 0.05 ether;\n    bool public _paused = false;\n    \n    string public constant _desc = \"CryptoBabes is a unique collection of babes on the beach - dedicated to all the women who make our lives better everyday\";\n    string public constant _babeURI = \"http://nft-launchpad.io/cryptobabes/cryptobabe-\";\n\n    mapping (uint256 => string) private _tokenId2image;\n\n    constructor() ERC721(\"CryptoBabes\", \"CRYPTOBABE\") Ownable() {\n\t}\n\n    function tokenURI(uint256 tokenId) override public view returns (string memory) {\n        string memory json = Base64.encode(bytes(string(abi.encodePacked('{\"name\": \"NFTLP #', Strings.toString(tokenId), \n                            '\", \"description\": \"', _desc, '\", \"image\": \"data:image/svg+xml;base64,', \n                            Base64.encode(bytes(_tokenId2image[tokenId])), '\"}'))));\n        string memory output = string(abi.encodePacked('data:application/json;base64,', json));\n        return output;\n    }\n    function mint(uint256 tokenId) external payable {\n        require(!_paused, \"Sale paused\");\n        require(tokenId > 0 && totalSupply() <= _maxSupply, \"Exceeds maximum supply\");\n        require(msg.value >= _price, \"Ether sent is not correct\");\n        _tokenId2image[tokenId] = string(abi.encodePacked(_babeURI, tokenId));\n        _safeMint(msg.sender, tokenId);\n    }\n    function setPrice(uint256 _newPrice) external onlyOwner {\n        _price = _newPrice;\n    }\n    function setPause(bool val) external onlyOwner {\n        _paused = val;\n    }\n    function withdraw() external payable onlyOwner {\n        payable(msg.sender).transfer(address(this).balance);\n    }\n}\n",
  "sourcePath": "/home/ec2-user/github/nftlaunchpad-dapp/src/contracts/CryptoBabes.sol",
  "compiler": {
    "name": "solc",
    "version": "0.8.7+commit.e28d00a7.Emscripten.clang"
  },
  "schemaVersion": "3.4.3",
  "updatedAt": "2022-01-29T07:12:44.024Z",
  "devdoc": {
    "kind": "dev",
    "methods": {
      "approve(address,uint256)": {
        "details": "See {IERC721-approve}."
      },
      "balanceOf(address)": {
        "details": "See {IERC721-balanceOf}."
      },
      "getApproved(uint256)": {
        "details": "See {IERC721-getApproved}."
      },
      "isApprovedForAll(address,address)": {
        "details": "See {IERC721-isApprovedForAll}."
      },
      "name()": {
        "details": "See {IERC721Metadata-name}."
      },
      "owner()": {
        "details": "Returns the address of the current owner."
      },
      "ownerOf(uint256)": {
        "details": "See {IERC721-ownerOf}."
      },
      "renounceOwnership()": {
        "details": "Leaves the contract without owner. It will not be possible to call `onlyOwner` functions anymore. Can only be called by the current owner. NOTE: Renouncing ownership will leave the contract without an owner, thereby removing any functionality that is only available to the owner."
      },
      "safeTransferFrom(address,address,uint256)": {
        "details": "See {IERC721-safeTransferFrom}."
      },
      "safeTransferFrom(address,address,uint256,bytes)": {
        "details": "See {IERC721-safeTransferFrom}."
      },
      "setApprovalForAll(address,bool)": {
        "details": "See {IERC721-setApprovalForAll}."
      },
      "supportsInterface(bytes4)": {
        "details": "See {IERC165-supportsInterface}."
      },
      "symbol()": {
        "details": "See {IERC721Metadata-symbol}."
      },
      "tokenByIndex(uint256)": {
        "details": "See {IERC721Enumerable-tokenByIndex}."
      },
      "tokenOfOwnerByIndex(address,uint256)": {
        "details": "See {IERC721Enumerable-tokenOfOwnerByIndex}."
      },
      "tokenURI(uint256)": {
        "details": "See {IERC721Metadata-tokenURI}."
      },
      "totalSupply()": {
        "details": "See {IERC721Enumerable-totalSupply}."
      },
      "transferFrom(address,address,uint256)": {
        "details": "See {IERC721-transferFrom}."
      },
      "transferOwnership(address)": {
        "details": "Transfers ownership of the contract to a new account (`newOwner`). Can only be called by the current owner."
      }
    },
    "version": 1
  },
  "userdoc": {
    "kind": "user",
    "methods": {},
    "version": 1
  }
}