{
  "contractName": "DCOIN",
  "abi": [
    {
      "inputs": [],
      "stateMutability": "nonpayable",
      "type": "constructor"
    },
    {
      "anonymous": false,
      "inputs": [
        {
          "indexed": true,
          "internalType": "address",
          "name": "owner",
          "type": "address"
        },
        {
          "indexed": true,
          "internalType": "address",
          "name": "spender",
          "type": "address"
        },
        {
          "indexed": false,
          "internalType": "uint256",
          "name": "value",
          "type": "uint256"
        }
      ],
      "name": "Approval",
      "type": "event"
    },
    {
      "anonymous": false,
      "inputs": [
        {
          "indexed": true,
          "internalType": "address",
          "name": "previousOwner",
          "type": "address"
        },
        {
          "indexed": true,
          "internalType": "address",
          "name": "newOwner",
          "type": "address"
        }
      ],
      "name": "OwnershipTransferred",
      "type": "event"
    },
    {
      "anonymous": false,
      "inputs": [
        {
          "indexed": true,
          "internalType": "address",
          "name": "from",
          "type": "address"
        },
        {
          "indexed": true,
          "internalType": "address",
          "name": "to",
          "type": "address"
        },
        {
          "indexed": false,
          "internalType": "uint256",
          "name": "value",
          "type": "uint256"
        }
      ],
      "name": "Transfer",
      "type": "event"
    },
    {
      "inputs": [
        {
          "internalType": "address",
          "name": "owner",
          "type": "address"
        },
        {
          "internalType": "address",
          "name": "spender",
          "type": "address"
        }
      ],
      "name": "allowance",
      "outputs": [
        {
          "internalType": "uint256",
          "name": "",
          "type": "uint256"
        }
      ],
      "stateMutability": "view",
      "type": "function"
    },
    {
      "inputs": [
        {
          "internalType": "address",
          "name": "spender",
          "type": "address"
        },
        {
          "internalType": "uint256",
          "name": "amount",
          "type": "uint256"
        }
      ],
      "name": "approve",
      "outputs": [
        {
          "internalType": "bool",
          "name": "",
          "type": "bool"
        }
      ],
      "stateMutability": "nonpayable",
      "type": "function"
    },
    {
      "inputs": [
        {
          "internalType": "address",
          "name": "account",
          "type": "address"
        }
      ],
      "name": "balanceOf",
      "outputs": [
        {
          "internalType": "uint256",
          "name": "",
          "type": "uint256"
        }
      ],
      "stateMutability": "view",
      "type": "function"
    },
    {
      "inputs": [],
      "name": "decimals",
      "outputs": [
        {
          "internalType": "uint8",
          "name": "",
          "type": "uint8"
        }
      ],
      "stateMutability": "view",
      "type": "function"
    },
    {
      "inputs": [],
      "name": "name",
      "outputs": [
        {
          "internalType": "string",
          "name": "",
          "type": "string"
        }
      ],
      "stateMutability": "view",
      "type": "function"
    },
    {
      "inputs": [],
      "name": "owner",
      "outputs": [
        {
          "internalType": "address",
          "name": "",
          "type": "address"
        }
      ],
      "stateMutability": "view",
      "type": "function"
    },
    {
      "inputs": [],
      "name": "renounceOwnership",
      "outputs": [],
      "stateMutability": "nonpayable",
      "type": "function"
    },
    {
      "inputs": [],
      "name": "symbol",
      "outputs": [
        {
          "internalType": "string",
          "name": "",
          "type": "string"
        }
      ],
      "stateMutability": "view",
      "type": "function"
    },
    {
      "inputs": [],
      "name": "totalSupply",
      "outputs": [
        {
          "internalType": "uint256",
          "name": "",
          "type": "uint256"
        }
      ],
      "stateMutability": "view",
      "type": "function"
    },
    {
      "inputs": [
        {
          "internalType": "address",
          "name": "recipient",
          "type": "address"
        },
        {
          "internalType": "uint256",
          "name": "amount",
          "type": "uint256"
        }
      ],
      "name": "transfer",
      "outputs": [
        {
          "internalType": "bool",
          "name": "",
          "type": "bool"
        }
      ],
      "stateMutability": "nonpayable",
      "type": "function"
    },
    {
      "inputs": [
        {
          "internalType": "address",
          "name": "sender",
          "type": "address"
        },
        {
          "internalType": "address",
          "name": "recipient",
          "type": "address"
        },
        {
          "internalType": "uint256",
          "name": "amount",
          "type": "uint256"
        }
      ],
      "name": "transferFrom",
      "outputs": [
        {
          "internalType": "bool",
          "name": "",
          "type": "bool"
        }
      ],
      "stateMutability": "nonpayable",
      "type": "function"
    },
    {
      "inputs": [
        {
          "internalType": "address",
          "name": "newOwner",
          "type": "address"
        }
      ],
      "name": "transferOwnership",
      "outputs": [],
      "stateMutability": "nonpayable",
      "type": "function"
    },
    {
      "inputs": [],
      "name": "mintCoin",
      "outputs": [],
      "stateMutability": "nonpayable",
      "type": "function"
    }
  ],
  "bytecode": "0x6080604052633b9aca006006553480156200001957600080fd5b506040518060400160405280600c81526020017f447973746f706961436f696e00000000000000000000000000000000000000008152506040518060400160405280600581526020017f44434f494e000000000000000000000000000000000000000000000000000000815250620000a66200009a620000e060201b60201c565b620000e860201b60201c565b8160049080519060200190620000be929190620001ac565b508060059080519060200190620000d7929190620001ac565b505050620002c1565b600033905090565b60008060009054906101000a900473ffffffffffffffffffffffffffffffffffffffff169050816000806101000a81548173ffffffffffffffffffffffffffffffffffffffff021916908373ffffffffffffffffffffffffffffffffffffffff1602179055508173ffffffffffffffffffffffffffffffffffffffff168173ffffffffffffffffffffffffffffffffffffffff167f8be0079c531659141344cd1fd0a4f28419497f9722a3daafe3b4186f6b6457e060405160405180910390a35050565b828054620001ba906200025c565b90600052602060002090601f016020900481019282620001de57600085556200022a565b82601f10620001f957805160ff19168380011785556200022a565b828001600101855582156200022a579182015b82811115620002295782518255916020019190600101906200020c565b5b5090506200023991906200023d565b5090565b5b80821115620002585760008160009055506001016200023e565b5090565b600060028204905060018216806200027557607f821691505b602082108114156200028c576200028b62000292565b5b50919050565b7f4e487b7100000000000000000000000000000000000000000000000000000000600052602260045260246000fd5b6118a680620002d16000396000f3fe608060405234801561001057600080fd5b50600436106100cf5760003560e01c806370a082311161008c57806395d89b411161006657806395d89b41146101f0578063a9059cbb1461020e578063dd62ed3e1461023e578063f2fde38b1461026e576100cf565b806370a0823114610198578063715018a6146101c85780638da5cb5b146101d2576100cf565b806306fdde03146100d4578063095ea7b3146100f257806318160ddd1461012257806323b872dd14610140578063313ce567146101705780636fdfe4561461018e575b600080fd5b6100dc61028a565b6040516100e991906111f7565b60405180910390f35b61010c60048036038101906101079190610f8b565b61031c565b60405161011991906111dc565b60405180910390f35b61012a61033a565b6040516101379190611379565b60405180910390f35b61015a60048036038101906101559190610f38565b610344565b60405161016791906111dc565b60405180910390f35b61017861043c565b6040516101859190611394565b60405180910390f35b610196610441565b005b6101b260048036038101906101ad9190610ecb565b6104f2565b6040516101bf9190611379565b60405180910390f35b6101d061053b565b005b6101da6105c3565b6040516101e791906111c1565b60405180910390f35b6101f86105ec565b60405161020591906111f7565b60405180910390f35b61022860048036038101906102239190610f8b565b61067e565b60405161023591906111dc565b60405180910390f35b61025860048036038101906102539190610ef8565b61069c565b6040516102659190611379565b60405180910390f35b61028860048036038101906102839190610ecb565b610723565b005b606060048054610299906114a9565b80601f01602080910402602001604051908101604052809291908181526020018280546102c5906114a9565b80156103125780601f106102e757610100808354040283529160200191610312565b820191906000526020600020905b8154815290600101906020018083116102f557829003601f168201915b5050505050905090565b600061033061032961081b565b8484610823565b6001905092915050565b6000600354905090565b60006103518484846109ee565b6000600260008673ffffffffffffffffffffffffffffffffffffffff1673ffffffffffffffffffffffffffffffffffffffff168152602001908152602001600020600061039c61081b565b73ffffffffffffffffffffffffffffffffffffffff1673ffffffffffffffffffffffffffffffffffffffff1681526020019081526020016000205490508281101561041c576040517f08c379a0000000000000000000000000000000000000000000000000000000008152600401610413906112d9565b60405180910390fd5b6104308561042861081b565b858403610823565b60019150509392505050565b600090565b60065461044c61033a565b1061048c576040517f08c379a000000000000000000000000000000000000000000000000000000000815260040161048390611299565b60405180910390fd5b600061049e61049961081b565b6104f2565b146104de576040517f08c379a00000000000000000000000000000000000000000000000000000000081526004016104d5906112b9565b60405180910390fd5b6104f06104e961081b565b6064610c72565b565b6000600160008373ffffffffffffffffffffffffffffffffffffffff1673ffffffffffffffffffffffffffffffffffffffff168152602001908152602001600020549050919050565b61054361081b565b73ffffffffffffffffffffffffffffffffffffffff166105616105c3565b73ffffffffffffffffffffffffffffffffffffffff16146105b7576040517f08c379a00000000000000000000000000000000000000000000000000000000081526004016105ae906112f9565b60405180910390fd5b6105c16000610dd3565b565b60008060009054906101000a900473ffffffffffffffffffffffffffffffffffffffff16905090565b6060600580546105fb906114a9565b80601f0160208091040260200160405190810160405280929190818152602001828054610627906114a9565b80156106745780601f1061064957610100808354040283529160200191610674565b820191906000526020600020905b81548152906001019060200180831161065757829003601f168201915b5050505050905090565b600061069261068b61081b565b84846109ee565b6001905092915050565b6000600260008473ffffffffffffffffffffffffffffffffffffffff1673ffffffffffffffffffffffffffffffffffffffff16815260200190815260200160002060008373ffffffffffffffffffffffffffffffffffffffff1673ffffffffffffffffffffffffffffffffffffffff16815260200190815260200160002054905092915050565b61072b61081b565b73ffffffffffffffffffffffffffffffffffffffff166107496105c3565b73ffffffffffffffffffffffffffffffffffffffff161461079f576040517f08c379a0000000000000000000000000000000000000000000000000000000008152600401610796906112f9565b60405180910390fd5b600073ffffffffffffffffffffffffffffffffffffffff168173ffffffffffffffffffffffffffffffffffffffff16141561080f576040517f08c379a000000000000000000000000000000000000000000000000000000000815260040161080690611239565b60405180910390fd5b61081881610dd3565b50565b600033905090565b600073ffffffffffffffffffffffffffffffffffffffff168373ffffffffffffffffffffffffffffffffffffffff161415610893576040517f08c379a000000000000000000000000000000000000000000000000000000000815260040161088a90611339565b60405180910390fd5b600073ffffffffffffffffffffffffffffffffffffffff168273ffffffffffffffffffffffffffffffffffffffff161415610903576040517f08c379a00000000000000000000000000000000000000000000000000000000081526004016108fa90611259565b60405180910390fd5b80600260008573ffffffffffffffffffffffffffffffffffffffff1673ffffffffffffffffffffffffffffffffffffffff16815260200190815260200160002060008473ffffffffffffffffffffffffffffffffffffffff1673ffffffffffffffffffffffffffffffffffffffff168152602001908152602001600020819055508173ffffffffffffffffffffffffffffffffffffffff168373ffffffffffffffffffffffffffffffffffffffff167f8c5be1e5ebec7d5bd14f71427d1e84f3dd0314c0f7b2291e5b200ac8c7c3b925836040516109e19190611379565b60405180910390a3505050565b600073ffffffffffffffffffffffffffffffffffffffff168373ffffffffffffffffffffffffffffffffffffffff161415610a5e576040517f08c379a0000000000000000000000000000000000000000000000000000000008152600401610a5590611319565b60405180910390fd5b600073ffffffffffffffffffffffffffffffffffffffff168273ffffffffffffffffffffffffffffffffffffffff161415610ace576040517f08c379a0000000000000000000000000000000000000000000000000000000008152600401610ac590611219565b60405180910390fd5b610ad9838383610e97565b6000600160008573ffffffffffffffffffffffffffffffffffffffff1673ffffffffffffffffffffffffffffffffffffffff16815260200190815260200160002054905081811015610b60576040517f08c379a0000000000000000000000000000000000000000000000000000000008152600401610b5790611279565b60405180910390fd5b818103600160008673ffffffffffffffffffffffffffffffffffffffff1673ffffffffffffffffffffffffffffffffffffffff1681526020019081526020016000208190555081600160008573ffffffffffffffffffffffffffffffffffffffff1673ffffffffffffffffffffffffffffffffffffffff1681526020019081526020016000206000828254610bf591906113cb565b925050819055508273ffffffffffffffffffffffffffffffffffffffff168473ffffffffffffffffffffffffffffffffffffffff167fddf252ad1be2c89b69c2b068fc378daa952ba7f163c4a11628f55a4df523b3ef84604051610c599190611379565b60405180910390a3610c6c848484610e9c565b50505050565b600073ffffffffffffffffffffffffffffffffffffffff168273ffffffffffffffffffffffffffffffffffffffff161415610ce2576040517f08c379a0000000000000000000000000000000000000000000000000000000008152600401610cd990611359565b60405180910390fd5b610cee60008383610e97565b8060036000828254610d0091906113cb565b9250508190555080600160008473ffffffffffffffffffffffffffffffffffffffff1673ffffffffffffffffffffffffffffffffffffffff1681526020019081526020016000206000828254610d5691906113cb565b925050819055508173ffffffffffffffffffffffffffffffffffffffff16600073ffffffffffffffffffffffffffffffffffffffff167fddf252ad1be2c89b69c2b068fc378daa952ba7f163c4a11628f55a4df523b3ef83604051610dbb9190611379565b60405180910390a3610dcf60008383610e9c565b5050565b60008060009054906101000a900473ffffffffffffffffffffffffffffffffffffffff169050816000806101000a81548173ffffffffffffffffffffffffffffffffffffffff021916908373ffffffffffffffffffffffffffffffffffffffff1602179055508173ffffffffffffffffffffffffffffffffffffffff168173ffffffffffffffffffffffffffffffffffffffff167f8be0079c531659141344cd1fd0a4f28419497f9722a3daafe3b4186f6b6457e060405160405180910390a35050565b505050565b505050565b600081359050610eb081611842565b92915050565b600081359050610ec581611859565b92915050565b600060208284031215610ee157610ee0611539565b5b6000610eef84828501610ea1565b91505092915050565b60008060408385031215610f0f57610f0e611539565b5b6000610f1d85828601610ea1565b9250506020610f2e85828601610ea1565b9150509250929050565b600080600060608486031215610f5157610f50611539565b5b6000610f5f86828701610ea1565b9350506020610f7086828701610ea1565b9250506040610f8186828701610eb6565b9150509250925092565b60008060408385031215610fa257610fa1611539565b5b6000610fb085828601610ea1565b9250506020610fc185828601610eb6565b9150509250929050565b610fd481611421565b82525050565b610fe381611433565b82525050565b6000610ff4826113af565b610ffe81856113ba565b935061100e818560208601611476565b6110178161153e565b840191505092915050565b600061102f6023836113ba565b915061103a8261154f565b604082019050919050565b60006110526026836113ba565b915061105d8261159e565b604082019050919050565b60006110756022836113ba565b9150611080826115ed565b604082019050919050565b60006110986026836113ba565b91506110a38261163c565b604082019050919050565b60006110bb6019836113ba565b91506110c68261168b565b602082019050919050565b60006110de6021836113ba565b91506110e9826116b4565b604082019050919050565b60006111016028836113ba565b915061110c82611703565b604082019050919050565b60006111246020836113ba565b915061112f82611752565b602082019050919050565b60006111476025836113ba565b91506111528261177b565b604082019050919050565b600061116a6024836113ba565b9150611175826117ca565b604082019050919050565b600061118d601f836113ba565b915061119882611819565b602082019050919050565b6111ac8161145f565b82525050565b6111bb81611469565b82525050565b60006020820190506111d66000830184610fcb565b92915050565b60006020820190506111f16000830184610fda565b92915050565b600060208201905081810360008301526112118184610fe9565b905092915050565b6000602082019050818103600083015261123281611022565b9050919050565b6000602082019050818103600083015261125281611045565b9050919050565b6000602082019050818103600083015261127281611068565b9050919050565b600060208201905081810360008301526112928161108b565b9050919050565b600060208201905081810360008301526112b2816110ae565b9050919050565b600060208201905081810360008301526112d2816110d1565b9050919050565b600060208201905081810360008301526112f2816110f4565b9050919050565b6000602082019050818103600083015261131281611117565b9050919050565b600060208201905081810360008301526113328161113a565b9050919050565b600060208201905081810360008301526113528161115d565b9050919050565b6000602082019050818103600083015261137281611180565b9050919050565b600060208201905061138e60008301846111a3565b92915050565b60006020820190506113a960008301846111b2565b92915050565b600081519050919050565b600082825260208201905092915050565b60006113d68261145f565b91506113e18361145f565b9250827fffffffffffffffffffffffffffffffffffffffffffffffffffffffffffffffff03821115611416576114156114db565b5b828201905092915050565b600061142c8261143f565b9050919050565b60008115159050919050565b600073ffffffffffffffffffffffffffffffffffffffff82169050919050565b6000819050919050565b600060ff82169050919050565b60005b83811015611494578082015181840152602081019050611479565b838111156114a3576000848401525b50505050565b600060028204905060018216806114c157607f821691505b602082108114156114d5576114d461150a565b5b50919050565b7f4e487b7100000000000000000000000000000000000000000000000000000000600052601160045260246000fd5b7f4e487b7100000000000000000000000000000000000000000000000000000000600052602260045260246000fd5b600080fd5b6000601f19601f8301169050919050565b7f45524332303a207472616e7366657220746f20746865207a65726f206164647260008201527f6573730000000000000000000000000000000000000000000000000000000000602082015250565b7f4f776e61626c653a206e6577206f776e657220697320746865207a65726f206160008201527f6464726573730000000000000000000000000000000000000000000000000000602082015250565b7f45524332303a20617070726f766520746f20746865207a65726f20616464726560008201527f7373000000000000000000000000000000000000000000000000000000000000602082015250565b7f45524332303a207472616e7366657220616d6f756e742065786365656473206260008201527f616c616e63650000000000000000000000000000000000000000000000000000602082015250565b7f63616e6e6f74206d696e7420616e796d6f726520636f696e7300000000000000600082015250565b7f616464726573732063616e6e6f74206d696e7420616e796d6f726520636f696e60008201527f7300000000000000000000000000000000000000000000000000000000000000602082015250565b7f45524332303a207472616e7366657220616d6f756e742065786365656473206160008201527f6c6c6f77616e6365000000000000000000000000000000000000000000000000602082015250565b7f4f776e61626c653a2063616c6c6572206973206e6f7420746865206f776e6572600082015250565b7f45524332303a207472616e736665722066726f6d20746865207a65726f20616460008201527f6472657373000000000000000000000000000000000000000000000000000000602082015250565b7f45524332303a20617070726f76652066726f6d20746865207a65726f2061646460008201527f7265737300000000000000000000000000000000000000000000000000000000602082015250565b7f45524332303a206d696e7420746f20746865207a65726f206164647265737300600082015250565b61184b81611421565b811461185657600080fd5b50565b6118628161145f565b811461186d57600080fd5b5056fea2646970667358221220c756ab00feb22ce72dd78c417dc2c345815270aa9399210f1a0ac87bf3a129d064736f6c63430008070033",
  "immutableReferences": {},
  "source": "// SPDX-License-Identifier: MIT\n\npragma solidity ^0.8.0;\n\nimport \"./FullERC20.sol\";\n\ncontract DCOIN is ERC20 {\n\n    constructor() ERC20(\"DystopiaCoin\", \"DCOIN\") {\n    }\n\n    uint256 private MAX_CURRENT_SUPPLY = 1000 * 1000 * 1000;  //1 billion\n\n    function mintCoin() external {\n        require(super.totalSupply() < MAX_CURRENT_SUPPLY, \"cannot mint anymore coins\");\n        require(super.balanceOf(_msgSender()) == 0, \"address cannot mint anymore coins\");\n        _mint(_msgSender(), 100);\n    }\n}\n",
  "sourcePath": "/home/ec2-user/github/fcc-dapp/src/contracts/DystopiaCoin.sol",
  "compiler": {
    "name": "solc",
    "version": "0.8.7+commit.e28d00a7.Emscripten.clang"
  },
  "schemaVersion": "3.4.3",
  "updatedAt": "2022-01-01T12:48:19.588Z",
  "devdoc": {
    "kind": "dev",
    "methods": {
      "allowance(address,address)": {
        "details": "See {IERC20-allowance}."
      },
      "approve(address,uint256)": {
        "details": "See {IERC20-approve}. Requirements: - `spender` cannot be the zero address."
      },
      "balanceOf(address)": {
        "details": "See {IERC20-balanceOf}."
      },
      "decimals()": {
        "details": "Returns the number of decimals used to get its user representation. For example, if `decimals` equals `2`, a balance of `505` tokens should be displayed to a user as `5.05` (`505 / 10 ** 2`). Tokens usually opt for a value of 18, imitating the relationship between Ether and Wei. This is the value {ERC20} uses, unless this function is overridden; NOTE: This information is only used for _display_ purposes: it in no way affects any of the arithmetic of the contract, including {IERC20-balanceOf} and {IERC20-transfer}."
      },
      "name()": {
        "details": "Returns the name of the token."
      },
      "owner()": {
        "details": "Returns the address of the current owner."
      },
      "renounceOwnership()": {
        "details": "Leaves the contract without owner. It will not be possible to call `onlyOwner` functions anymore. Can only be called by the current owner. NOTE: Renouncing ownership will leave the contract without an owner, thereby removing any functionality that is only available to the owner."
      },
      "symbol()": {
        "details": "Returns the symbol of the token, usually a shorter version of the name."
      },
      "totalSupply()": {
        "details": "See {IERC20-totalSupply}."
      },
      "transfer(address,uint256)": {
        "details": "See {IERC20-transfer}. Requirements: - `recipient` cannot be the zero address. - the caller must have a balance of at least `amount`."
      },
      "transferFrom(address,address,uint256)": {
        "details": "See {IERC20-transferFrom}. Emits an {Approval} event indicating the updated allowance. This is not required by the EIP. See the note at the beginning of {ERC20}. Requirements: - `sender` and `recipient` cannot be the zero address. - `sender` must have a balance of at least `amount`. - the caller must have allowance for ``sender``'s tokens of at least `amount`."
      },
      "transferOwnership(address)": {
        "details": "Transfers ownership of the contract to a new account (`newOwner`). Can only be called by the current owner."
      }
    },
    "version": 1
  },
  "userdoc": {
    "kind": "user",
    "methods": {},
    "version": 1
  }
}