{
  "contractName": "Dystopia21",
  "abi": [
    {
      "inputs": [],
      "stateMutability": "nonpayable",
      "type": "constructor"
    },
    {
      "anonymous": false,
      "inputs": [
        {
          "indexed": true,
          "internalType": "address",
          "name": "owner",
          "type": "address"
        },
        {
          "indexed": true,
          "internalType": "address",
          "name": "approved",
          "type": "address"
        },
        {
          "indexed": true,
          "internalType": "uint256",
          "name": "tokenId",
          "type": "uint256"
        }
      ],
      "name": "Approval",
      "type": "event"
    },
    {
      "anonymous": false,
      "inputs": [
        {
          "indexed": true,
          "internalType": "address",
          "name": "owner",
          "type": "address"
        },
        {
          "indexed": true,
          "internalType": "address",
          "name": "operator",
          "type": "address"
        },
        {
          "indexed": false,
          "internalType": "bool",
          "name": "approved",
          "type": "bool"
        }
      ],
      "name": "ApprovalForAll",
      "type": "event"
    },
    {
      "anonymous": false,
      "inputs": [
        {
          "indexed": true,
          "internalType": "address",
          "name": "previousOwner",
          "type": "address"
        },
        {
          "indexed": true,
          "internalType": "address",
          "name": "newOwner",
          "type": "address"
        }
      ],
      "name": "OwnershipTransferred",
      "type": "event"
    },
    {
      "anonymous": false,
      "inputs": [
        {
          "indexed": true,
          "internalType": "address",
          "name": "from",
          "type": "address"
        },
        {
          "indexed": true,
          "internalType": "address",
          "name": "to",
          "type": "address"
        },
        {
          "indexed": true,
          "internalType": "uint256",
          "name": "tokenId",
          "type": "uint256"
        }
      ],
      "name": "Transfer",
      "type": "event"
    },
    {
      "inputs": [
        {
          "internalType": "address",
          "name": "to",
          "type": "address"
        },
        {
          "internalType": "uint256",
          "name": "tokenId",
          "type": "uint256"
        }
      ],
      "name": "approve",
      "outputs": [],
      "stateMutability": "nonpayable",
      "type": "function"
    },
    {
      "inputs": [
        {
          "internalType": "address",
          "name": "owner",
          "type": "address"
        }
      ],
      "name": "balanceOf",
      "outputs": [
        {
          "internalType": "uint256",
          "name": "",
          "type": "uint256"
        }
      ],
      "stateMutability": "view",
      "type": "function"
    },
    {
      "inputs": [
        {
          "internalType": "uint256",
          "name": "tokenId",
          "type": "uint256"
        }
      ],
      "name": "getApproved",
      "outputs": [
        {
          "internalType": "address",
          "name": "",
          "type": "address"
        }
      ],
      "stateMutability": "view",
      "type": "function"
    },
    {
      "inputs": [
        {
          "internalType": "address",
          "name": "owner",
          "type": "address"
        },
        {
          "internalType": "address",
          "name": "operator",
          "type": "address"
        }
      ],
      "name": "isApprovedForAll",
      "outputs": [
        {
          "internalType": "bool",
          "name": "",
          "type": "bool"
        }
      ],
      "stateMutability": "view",
      "type": "function"
    },
    {
      "inputs": [],
      "name": "name",
      "outputs": [
        {
          "internalType": "string",
          "name": "",
          "type": "string"
        }
      ],
      "stateMutability": "view",
      "type": "function"
    },
    {
      "inputs": [],
      "name": "owner",
      "outputs": [
        {
          "internalType": "address",
          "name": "",
          "type": "address"
        }
      ],
      "stateMutability": "view",
      "type": "function"
    },
    {
      "inputs": [
        {
          "internalType": "uint256",
          "name": "tokenId",
          "type": "uint256"
        }
      ],
      "name": "ownerOf",
      "outputs": [
        {
          "internalType": "address",
          "name": "",
          "type": "address"
        }
      ],
      "stateMutability": "view",
      "type": "function"
    },
    {
      "inputs": [],
      "name": "renounceOwnership",
      "outputs": [],
      "stateMutability": "nonpayable",
      "type": "function"
    },
    {
      "inputs": [
        {
          "internalType": "address",
          "name": "from",
          "type": "address"
        },
        {
          "internalType": "address",
          "name": "to",
          "type": "address"
        },
        {
          "internalType": "uint256",
          "name": "tokenId",
          "type": "uint256"
        }
      ],
      "name": "safeTransferFrom",
      "outputs": [],
      "stateMutability": "nonpayable",
      "type": "function"
    },
    {
      "inputs": [
        {
          "internalType": "address",
          "name": "from",
          "type": "address"
        },
        {
          "internalType": "address",
          "name": "to",
          "type": "address"
        },
        {
          "internalType": "uint256",
          "name": "tokenId",
          "type": "uint256"
        },
        {
          "internalType": "bytes",
          "name": "_data",
          "type": "bytes"
        }
      ],
      "name": "safeTransferFrom",
      "outputs": [],
      "stateMutability": "nonpayable",
      "type": "function"
    },
    {
      "inputs": [
        {
          "internalType": "address",
          "name": "operator",
          "type": "address"
        },
        {
          "internalType": "bool",
          "name": "approved",
          "type": "bool"
        }
      ],
      "name": "setApprovalForAll",
      "outputs": [],
      "stateMutability": "nonpayable",
      "type": "function"
    },
    {
      "inputs": [
        {
          "internalType": "bytes4",
          "name": "interfaceId",
          "type": "bytes4"
        }
      ],
      "name": "supportsInterface",
      "outputs": [
        {
          "internalType": "bool",
          "name": "",
          "type": "bool"
        }
      ],
      "stateMutability": "view",
      "type": "function"
    },
    {
      "inputs": [],
      "name": "symbol",
      "outputs": [
        {
          "internalType": "string",
          "name": "",
          "type": "string"
        }
      ],
      "stateMutability": "view",
      "type": "function"
    },
    {
      "inputs": [
        {
          "internalType": "uint256",
          "name": "index",
          "type": "uint256"
        }
      ],
      "name": "tokenByIndex",
      "outputs": [
        {
          "internalType": "uint256",
          "name": "",
          "type": "uint256"
        }
      ],
      "stateMutability": "view",
      "type": "function"
    },
    {
      "inputs": [
        {
          "internalType": "address",
          "name": "owner",
          "type": "address"
        },
        {
          "internalType": "uint256",
          "name": "index",
          "type": "uint256"
        }
      ],
      "name": "tokenOfOwnerByIndex",
      "outputs": [
        {
          "internalType": "uint256",
          "name": "",
          "type": "uint256"
        }
      ],
      "stateMutability": "view",
      "type": "function"
    },
    {
      "inputs": [],
      "name": "totalSupply",
      "outputs": [
        {
          "internalType": "uint256",
          "name": "",
          "type": "uint256"
        }
      ],
      "stateMutability": "view",
      "type": "function"
    },
    {
      "inputs": [
        {
          "internalType": "address",
          "name": "from",
          "type": "address"
        },
        {
          "internalType": "address",
          "name": "to",
          "type": "address"
        },
        {
          "internalType": "uint256",
          "name": "tokenId",
          "type": "uint256"
        }
      ],
      "name": "transferFrom",
      "outputs": [],
      "stateMutability": "nonpayable",
      "type": "function"
    },
    {
      "inputs": [
        {
          "internalType": "address",
          "name": "newOwner",
          "type": "address"
        }
      ],
      "name": "transferOwnership",
      "outputs": [],
      "stateMutability": "nonpayable",
      "type": "function"
    },
    {
      "inputs": [
        {
          "internalType": "string",
          "name": "newWeapon",
          "type": "string"
        }
      ],
      "name": "addWeapon",
      "outputs": [],
      "stateMutability": "nonpayable",
      "type": "function"
    },
    {
      "inputs": [
        {
          "internalType": "uint256",
          "name": "tokenId",
          "type": "uint256"
        }
      ],
      "name": "tokenURI",
      "outputs": [
        {
          "internalType": "string",
          "name": "",
          "type": "string"
        }
      ],
      "stateMutability": "view",
      "type": "function"
    },
    {
      "inputs": [
        {
          "internalType": "uint256",
          "name": "tokenId",
          "type": "uint256"
        }
      ],
      "name": "mintPlayer",
      "outputs": [],
      "stateMutability": "nonpayable",
      "type": "function"
    }
  ],
  "bytecode": "0x608060405260405180604001604052806040518060400160405280600481526020017f4d616c650000000000000000000000000000000000000000000000000000000081525081526020016040518060400160405280600681526020017f46656d616c650000000000000000000000000000000000000000000000000000815250815250600c90600262000095929190620005a6565b5060405180604001604052806040518060400160405280600581526020017f48756d616e00000000000000000000000000000000000000000000000000000081525081526020016040518060400160405280600781526020017f4d6f6e7374657200000000000000000000000000000000000000000000000000815250815250600d90600262000127929190620005a6565b50604051806040016040528061040061ffff16815260200161010061ffff16815250600e9060026200015b9291906200060d565b503480156200016957600080fd5b506040518060400160405280600881526020017f447973746f7069610000000000000000000000000000000000000000000000008152506040518060400160405280600881526020017f445953544f5049410000000000000000000000000000000000000000000000008152508160009080519060200190620001ee92919062000665565b5080600190805190602001906200020792919062000665565b5050506001600a819055506200023262000226620004d860201b60201c565b620004e060201b60201c565b600f80600181540180825580915050600190039060005260206000200160006040518060400160405280600781526020017f48616e6467756e0000000000000000000000000000000000000000000000000081525090919091509080519060200190620002a192919062000665565b50600f80600181540180825580915050600190039060005260206000200160006040518060400160405280600781526020017f53686f7467756e00000000000000000000000000000000000000000000000000815250909190915090805190602001906200031192919062000665565b50600f80600181540180825580915050600190039060005260206000200160006040518060400160405280600a81526020017f4d616368696e6567756e00000000000000000000000000000000000000000000815250909190915090805190602001906200038192919062000665565b50600f80600181540180825580915050600190039060005260206000200160006040518060400160405280600581526020017f5269666c6500000000000000000000000000000000000000000000000000000081525090919091509080519060200190620003f192919062000665565b50600f80600181540180825580915050600190039060005260206000200160006040518060400160405280600581526020017f53776f7264000000000000000000000000000000000000000000000000000000815250909190915090805190602001906200046192919062000665565b50600f80600181540180825580915050600190039060005260206000200160006040518060400160405280600c81526020017f456e657267792d73776f7264000000000000000000000000000000000000000081525090919091509080519060200190620004d192919062000665565b50620007e8565b600033905090565b6000600b60009054906101000a900473ffffffffffffffffffffffffffffffffffffffff16905081600b60006101000a81548173ffffffffffffffffffffffffffffffffffffffff021916908373ffffffffffffffffffffffffffffffffffffffff1602179055508173ffffffffffffffffffffffffffffffffffffffff168173ffffffffffffffffffffffffffffffffffffffff167f8be0079c531659141344cd1fd0a4f28419497f9722a3daafe3b4186f6b6457e060405160405180910390a35050565b828054828255906000526020600020908101928215620005fa579160200282015b82811115620005f9578251829080519060200190620005e892919062000665565b5091602001919060010190620005c7565b5b509050620006099190620006f6565b5090565b82805482825590600052602060002090810192821562000652579160200282015b8281111562000651578251829061ffff169055916020019190600101906200062e565b5b5090506200066191906200071e565b5090565b828054620006739062000783565b90600052602060002090601f016020900481019282620006975760008555620006e3565b82601f10620006b257805160ff1916838001178555620006e3565b82800160010185558215620006e3579182015b82811115620006e2578251825591602001919060010190620006c5565b5b509050620006f291906200071e565b5090565b5b808211156200071a57600081816200071091906200073d565b50600101620006f7565b5090565b5b80821115620007395760008160009055506001016200071f565b5090565b5080546200074b9062000783565b6000825580601f106200075f575062000780565b601f0160209004906000526020600020908101906200077f91906200071e565b5b50565b600060028204905060018216806200079c57607f821691505b60208210811415620007b357620007b2620007b9565b5b50919050565b7f4e487b7100000000000000000000000000000000000000000000000000000000600052602260045260246000fd5b615f8b80620007f86000396000f3fe608060405234801561001057600080fd5b50600436106101375760003560e01c80636352211e116100b8578063a22cb4651161007c578063a22cb4651461034e578063a9d862201461036a578063b88d4fde14610386578063c87b56dd146103a2578063e985e9c5146103d2578063f2fde38b1461040257610137565b80636352211e146102a857806370a08231146102d8578063715018a6146103085780638da5cb5b1461031257806395d89b411461033057610137565b806323b872dd116100ff57806323b872dd146101f45780632f745c59146102105780633de7439f1461024057806342842e0e1461025c5780634f6ccce71461027857610137565b806301ffc9a71461013c57806306fdde031461016c578063081812fc1461018a578063095ea7b3146101ba57806318160ddd146101d6575b600080fd5b6101566004803603810190610151919061474d565b61041e565b6040516101639190614d61565b60405180910390f35b610174610498565b6040516101819190614d7c565b60405180910390f35b6101a4600480360381019061019f91906147f0565b61052a565b6040516101b19190614cfa565b60405180910390f35b6101d460048036038101906101cf919061470d565b6105af565b005b6101de6106c7565b6040516101eb919061503e565b60405180910390f35b61020e600480360381019061020991906145f7565b6106d4565b005b61022a6004803603810190610225919061470d565b610734565b604051610237919061503e565b60405180910390f35b61025a600480360381019061025591906147f0565b6107d9565b005b610276600480360381019061027191906145f7565b610918565b005b610292600480360381019061028d91906147f0565b610938565b60405161029f919061503e565b60405180910390f35b6102c260048036038101906102bd91906147f0565b6109a9565b6040516102cf9190614cfa565b60405180910390f35b6102f260048036038101906102ed919061458a565b610a5b565b6040516102ff919061503e565b60405180910390f35b610310610b13565b005b61031a610b9b565b6040516103279190614cfa565b60405180910390f35b610338610bc5565b6040516103459190614d7c565b60405180910390f35b610368600480360381019061036391906146cd565b610c57565b005b610384600480360381019061037f91906147a7565b610dd8565b005b6103a0600480360381019061039b919061464a565b610feb565b005b6103bc60048036038101906103b791906147f0565b61104d565b6040516103c99190614d7c565b60405180910390f35b6103ec60048036038101906103e791906145b7565b61260f565b6040516103f99190614d61565b60405180910390f35b61041c6004803603810190610417919061458a565b6126a3565b005b60007f780e9d63000000000000000000000000000000000000000000000000000000007bffffffffffffffffffffffffffffffffffffffffffffffffffffffff1916827bffffffffffffffffffffffffffffffffffffffffffffffffffffffff1916148061049157506104908261279b565b5b9050919050565b6060600080546104a7906152ee565b80601f01602080910402602001604051908101604052809291908181526020018280546104d3906152ee565b80156105205780601f106104f557610100808354040283529160200191610520565b820191906000526020600020905b81548152906001019060200180831161050357829003601f168201915b5050505050905090565b60006105358261287d565b610574576040517f08c379a000000000000000000000000000000000000000000000000000000000815260040161056b90614efe565b60405180910390fd5b6004600083815260200190815260200160002060009054906101000a900473ffffffffffffffffffffffffffffffffffffffff169050919050565b60006105ba826109a9565b90508073ffffffffffffffffffffffffffffffffffffffff168373ffffffffffffffffffffffffffffffffffffffff16141561062b576040517f08c379a000000000000000000000000000000000000000000000000000000000815260040161062290614f7e565b60405180910390fd5b8073ffffffffffffffffffffffffffffffffffffffff1661064a6128e9565b73ffffffffffffffffffffffffffffffffffffffff1614806106795750610678816106736128e9565b61260f565b5b6106b8576040517f08c379a00000000000000000000000000000000000000000000000000000000081526004016106af90614e7e565b60405180910390fd5b6106c283836128f1565b505050565b6000600880549050905090565b6106e56106df6128e9565b826129aa565b610724576040517f08c379a000000000000000000000000000000000000000000000000000000000815260040161071b90614fbe565b60405180910390fd5b61072f838383612a88565b505050565b600061073f83610a5b565b8210610780576040517f08c379a000000000000000000000000000000000000000000000000000000000815260040161077790614d9e565b60405180910390fd5b600660008473ffffffffffffffffffffffffffffffffffffffff1673ffffffffffffffffffffffffffffffffffffffff168152602001908152602001600020600083815260200190815260200160002054905092915050565b6002600a54141561081f576040517f08c379a000000000000000000000000000000000000000000000000000000000815260040161081690614ffe565b60405180910390fd5b6002600a8190555061082f6128e9565b73ffffffffffffffffffffffffffffffffffffffff1661084d610b9b565b73ffffffffffffffffffffffffffffffffffffffff16146108a3576040517f08c379a000000000000000000000000000000000000000000000000000000000815260040161089a90614f1e565b60405180910390fd5b6000811180156108b4575061271081105b6108f3576040517f08c379a00000000000000000000000000000000000000000000000000000000081526004016108ea90614f3e565b60405180910390fd5b6108fc81612ce4565b61090d610907610b9b565b8261357b565b6001600a8190555050565b61093383838360405180602001604052806000815250610feb565b505050565b60006109426106c7565b8210610983576040517f08c379a000000000000000000000000000000000000000000000000000000000815260040161097a90614fde565b60405180910390fd5b6008828154811061099757610996615487565b5b90600052602060002001549050919050565b6000806002600084815260200190815260200160002060009054906101000a900473ffffffffffffffffffffffffffffffffffffffff169050600073ffffffffffffffffffffffffffffffffffffffff168173ffffffffffffffffffffffffffffffffffffffff161415610a52576040517f08c379a0000000000000000000000000000000000000000000000000000000008152600401610a4990614ebe565b60405180910390fd5b80915050919050565b60008073ffffffffffffffffffffffffffffffffffffffff168273ffffffffffffffffffffffffffffffffffffffff161415610acc576040517f08c379a0000000000000000000000000000000000000000000000000000000008152600401610ac390614e9e565b60405180910390fd5b600360008373ffffffffffffffffffffffffffffffffffffffff1673ffffffffffffffffffffffffffffffffffffffff168152602001908152602001600020549050919050565b610b1b6128e9565b73ffffffffffffffffffffffffffffffffffffffff16610b39610b9b565b73ffffffffffffffffffffffffffffffffffffffff1614610b8f576040517f08c379a0000000000000000000000000000000000000000000000000000000008152600401610b8690614f1e565b60405180910390fd5b610b996000613599565b565b6000600b60009054906101000a900473ffffffffffffffffffffffffffffffffffffffff16905090565b606060018054610bd4906152ee565b80601f0160208091040260200160405190810160405280929190818152602001828054610c00906152ee565b8015610c4d5780601f10610c2257610100808354040283529160200191610c4d565b820191906000526020600020905b815481529060010190602001808311610c3057829003601f168201915b5050505050905090565b610c5f6128e9565b73ffffffffffffffffffffffffffffffffffffffff168273ffffffffffffffffffffffffffffffffffffffff161415610ccd576040517f08c379a0000000000000000000000000000000000000000000000000000000008152600401610cc490614e3e565b60405180910390fd5b8060056000610cda6128e9565b73ffffffffffffffffffffffffffffffffffffffff1673ffffffffffffffffffffffffffffffffffffffff16815260200190815260200160002060008473ffffffffffffffffffffffffffffffffffffffff1673ffffffffffffffffffffffffffffffffffffffff16815260200190815260200160002060006101000a81548160ff0219169083151502179055508173ffffffffffffffffffffffffffffffffffffffff16610d876128e9565b73ffffffffffffffffffffffffffffffffffffffff167f17307eab39ab6107e8899845ad3d59bd9653f200f220920489ca2b5937696c3183604051610dcc9190614d61565b60405180910390a35050565b610de06128e9565b73ffffffffffffffffffffffffffffffffffffffff16610dfe610b9b565b73ffffffffffffffffffffffffffffffffffffffff1614610e54576040517f08c379a0000000000000000000000000000000000000000000000000000000008152600401610e4b90614f1e565b60405180910390fd5b6000815111610e98576040517f08c379a0000000000000000000000000000000000000000000000000000000008152600401610e8f9061501e565b60405180910390fd5b60005b600f80549050811015610fab576000610f5a83600f8481548110610ec257610ec1615487565b5b906000526020600020018054610ed7906152ee565b80601f0160208091040260200160405190810160405280929190818152602001828054610f03906152ee565b8015610f505780601f10610f2557610100808354040283529160200191610f50565b820191906000526020600020905b815481529060010190602001808311610f3357829003601f168201915b505050505061365f565b14610f9a576040517f08c379a0000000000000000000000000000000000000000000000000000000008152600401610f9190614f9e565b60405180910390fd5b80610fa490615351565b9050610e9b565b50600f81908060018154018082558091505060019003906000526020600020016000909190919091509080519060200190610fe79291906142e9565b5050565b610ffc610ff66128e9565b836129aa565b61103b576040517f08c379a000000000000000000000000000000000000000000000000000000000815260040161103290614fbe565b60405180910390fd5b611047848484846136c9565b50505050565b6060600060106000848152602001908152602001600020604051806102000160405290816000820154815260200160018201805461108a906152ee565b80601f01602080910402602001604051908101604052809291908181526020018280546110b6906152ee565b80156111035780601f106110d857610100808354040283529160200191611103565b820191906000526020600020905b8154815290600101906020018083116110e657829003601f168201915b5050505050815260200160028201805461111c906152ee565b80601f0160208091040260200160405190810160405280929190818152602001828054611148906152ee565b80156111955780601f1061116a57610100808354040283529160200191611195565b820191906000526020600020905b81548152906001019060200180831161117857829003601f168201915b5050505050815260200160038201548152602001600482015481526020016005820180546111c2906152ee565b80601f01602080910402602001604051908101604052809291908181526020018280546111ee906152ee565b801561123b5780601f106112105761010080835404028352916020019161123b565b820191906000526020600020905b81548152906001019060200180831161121e57829003601f168201915b5050505050815260200160068201548152602001600782015481526020016008820154815260200160098201548152602001600a8201548152602001600b8201548152602001600c8201548152602001600d8201548152602001600e8201548152602001600f82015481525050905060006112ef82604001516040518060400160405280600581526020017f68756d616e00000000000000000000000000000000000000000000000000000081525061365f565b9050600061133683602001516040518060400160405280600681526020017f66656d616c65000000000000000000000000000000000000000000000000000081525061365f565b905061134061436f565b60006040518060a0016040528060628152602001615cfe6062913982828061136790615351565b93506040811061137a57611379615487565b5b6020020181905250604051806080016040528060478152602001615e2a604791398282806113a790615351565b9350604081106113ba576113b9615487565b5b60200201819052506040518060800160405280604e8152602001615bc8604e91398282806113e790615351565b9350604081106113fa576113f9615487565b5b6020020181905250604051806060016040528060308152602001615c726030913982828061142790615351565b93506040811061143a57611439615487565b5b6020020181905250604051806060016040528060268152602001615ba26026913982828061146790615351565b93506040811061147a57611479615487565b5b60200201819052506040518060400160405280600981526020017f537065636965733a0900000000000000000000000000000000000000000000008152508282806114c490615351565b9350604081106114d7576114d6615487565b5b602002018190525084604001518282806114f090615351565b93506040811061150357611502615487565b5b60200201819052506040518060600160405280602d8152602001615efb602d913982828061153090615351565b93506040811061154357611542615487565b5b60200201819052506040518060400160405280600881526020017f47656e6465723a0900000000000000000000000000000000000000000000000081525082828061158d90615351565b9350604081106115a05761159f615487565b5b602002018190525084602001518282806115b990615351565b9350604081106115cc576115cb615487565b5b602002018190525060018314156116b3576040518060600160405280602e8152602001615e9f602e913982828061160290615351565b93506040811061161557611614615487565b5b60200201819052506040518060400160405280600f81526020017f4d61784f6666737072696e67733a09000000000000000000000000000000000081525082828061165f90615351565b93506040811061167257611671615487565b5b60200201819052506116878560800151613725565b82828061169390615351565b9350604081106116a6576116a5615487565b5b6020020181905250611787565b6001841415611786576040518060600160405280602e8152602001615e9f602e91398282806116e190615351565b9350604081106116f4576116f3615487565b5b60200201819052506040518060400160405280600981526020017f576561706f6e733a09000000000000000000000000000000000000000000000081525082828061173e90615351565b93506040811061175157611750615487565b5b60200201819052508460a0015182828061176a90615351565b93506040811061177d5761177c615487565b5b60200201819052505b5b6001841415611fdc576040518060600160405280602e8152602001615f28602e91398282806117b590615351565b9350604081106117c8576117c7615487565b5b60200201819052506040518060400160405280601081526020017f506f6c69746963616c536b696c6c733a0000000000000000000000000000000081525082828061181290615351565b93506040811061182557611824615487565b5b602002018190525061183a8560c00151613725565b82828061184690615351565b93506040811061185957611858615487565b5b60200201819052506040518060400160405280600381526020017f2f313000000000000000000000000000000000000000000000000000000000008152508282806118a390615351565b9350604081106118b6576118b5615487565b5b60200201819052506040518060600160405280602e8152602001615c16602e91398282806118e390615351565b9350604081106118f6576118f5615487565b5b60200201819052506040518060400160405280601181526020017f546563686e6963616c536b696c6c733a0900000000000000000000000000000081525082828061194090615351565b93506040811061195357611952615487565b5b6020020181905250611969856101000151613725565b82828061197590615351565b93506040811061198857611987615487565b5b60200201819052506040518060400160405280600381526020017f2f313000000000000000000000000000000000000000000000000000000000008152508282806119d290615351565b9350604081106119e5576119e4615487565b5b60200201819052506040518060600160405280602e8152602001615ca2602e9139828280611a1290615351565b935060408110611a2557611a24615487565b5b60200201819052506040518060400160405280600e81526020017f446f63746f72536b696c6c733a09000000000000000000000000000000000000815250828280611a6f90615351565b935060408110611a8257611a81615487565b5b6020020181905250611a978560e00151613725565b828280611aa390615351565b935060408110611ab657611ab5615487565b5b60200201819052506040518060400160405280600381526020017f2f31300000000000000000000000000000000000000000000000000000000000815250828280611b0090615351565b935060408110611b1357611b12615487565b5b60200201819052506040518060600160405280602e8152602001615ecd602e9139828280611b4090615351565b935060408110611b5357611b52615487565b5b60200201819052506040518060400160405280600e81526020017f4c6177796572536b696c6c733a09000000000000000000000000000000000000815250828280611b9d90615351565b935060408110611bb057611baf615487565b5b6020020181905250611bc6856101600151613725565b828280611bd290615351565b935060408110611be557611be4615487565b5b60200201819052506040518060400160405280600381526020017f2f31300000000000000000000000000000000000000000000000000000000000815250828280611c2f90615351565b935060408110611c4257611c41615487565b5b60200201819052506040518060600160405280602e8152602001615e71602e9139828280611c6f90615351565b935060408110611c8257611c81615487565b5b60200201819052506040518060400160405280600e81526020017f506f6c696365536b696c6c733a09000000000000000000000000000000000000815250828280611ccc90615351565b935060408110611cdf57611cde615487565b5b6020020181905250611cf5856101200151613725565b828280611d0190615351565b935060408110611d1457611d13615487565b5b60200201819052506040518060400160405280600381526020017f2f31300000000000000000000000000000000000000000000000000000000000815250828280611d5e90615351565b935060408110611d7157611d70615487565b5b60200201819052506040518060600160405280602e8152602001615d60602e9139828280611d9e90615351565b935060408110611db157611db0615487565b5b60200201819052506040518060400160405280600d81526020017f53616c6573536b696c6c733a0900000000000000000000000000000000000000815250828280611dfb90615351565b935060408110611e0e57611e0d615487565b5b6020020181905250611e24856101400151613725565b828280611e3090615351565b935060408110611e4357611e42615487565b5b60200201819052506040518060400160405280600381526020017f2f31300000000000000000000000000000000000000000000000000000000000815250828280611e8d90615351565b935060408110611ea057611e9f615487565b5b60200201819052506040518060600160405280602e8152602001615dfc602e9139828280611ecd90615351565b935060408110611ee057611edf615487565b5b60200201819052506040518060400160405280601081526020017f5465616368696e67536b696c6c733a0900000000000000000000000000000000815250828280611f2a90615351565b935060408110611f3d57611f3c615487565b5b6020020181905250611f53856101800151613725565b828280611f5f90615351565b935060408110611f7257611f71615487565b5b60200201819052506040518060400160405280600381526020017f2f31300000000000000000000000000000000000000000000000000000000000815250828280611fbc90615351565b935060408110611fcf57611fce615487565b5b6020020181905250612335565b6040518060600160405280602e8152602001615f28602e913982828061200190615351565b93506040811061201457612013615487565b5b60200201819052506040518060400160405280600681526020017f4c6567733a09000000000000000000000000000000000000000000000000000081525082828061205e90615351565b93506040811061207157612070615487565b5b6020020181905250612087856101a00151613725565b82828061209390615351565b9350604081106120a6576120a5615487565b5b60200201819052506040518060600160405280602e8152602001615c16602e91398282806120d390615351565b9350604081106120e6576120e5615487565b5b60200201819052506040518060400160405280600781526020017f57696e67733a090000000000000000000000000000000000000000000000000081525082828061213090615351565b93506040811061214357612142615487565b5b60200201819052506001856101c0015114612193576040518060400160405280600281526020017f4e6f0000000000000000000000000000000000000000000000000000000000008152506121ca565b6040518060400160405280600381526020017f59657300000000000000000000000000000000000000000000000000000000008152505b8282806121d690615351565b9350604081106121e9576121e8615487565b5b60200201819052506040518060600160405280602e8152602001615c44602e913982828061221690615351565b93506040811061222957612228615487565b5b60200201819052506040518060400160405280600781526020017f436c6177733a090000000000000000000000000000000000000000000000000081525082828061227390615351565b93506040811061228657612285615487565b5b60200201819052506001856101e00151146122d6576040518060400160405280600281526020017f4e6f00000000000000000000000000000000000000000000000000000000000081525061230d565b6040518060400160405280600381526020017f59657300000000000000000000000000000000000000000000000000000000008152505b82828061231990615351565b93506040811061232c5761232b615487565b5b60200201819052505b6040518060600160405280602e8152602001615d8e602e913982828061235a90615351565b93506040811061236d5761236c615487565b5b60200201819052506040518060400160405280600e81526020017f4372656174696f6e54696d653a090000000000000000000000000000000000008152508282806123b790615351565b9350604081106123ca576123c9615487565b5b60200201819052506123df8560000151613725565b8282806123eb90615351565b9350604081106123fe576123fd615487565b5b60200201819052506040518060600160405280602e8152602001615cd0602e913982828061242b90615351565b93506040811061243e5761243d615487565b5b60200201819052506040518060400160405280600e81526020017f41676552656d61696e696e673a0900000000000000000000000000000000000081525082828061248890615351565b93506040811061249b5761249a615487565b5b60200201819052506124b08560600151613725565b8282806124bc90615351565b9350604081106124cf576124ce615487565b5b60200201819052506040518060400160405280600d81526020017f3c2f746578743e3c2f7376673e0000000000000000000000000000000000000081525082828061251990615351565b93506040811061252c5761252b615487565b5b6020020181905250600060405180602001604052806000815250905060005b8281101561259f578184826040811061256757612566615487565b5b602002015160405160200161257d929190614c6f565b60405160208183030381529060405291508061259890615351565b905061254b565b5060006125dc6125ae8a613725565b6125b784613886565b6040516020016125c8929190614c93565b604051602081830303815290604052613886565b9050806040516020016125ef9190614cd8565b604051602081830303815290604052915081975050505050505050919050565b6000600560008473ffffffffffffffffffffffffffffffffffffffff1673ffffffffffffffffffffffffffffffffffffffff16815260200190815260200160002060008373ffffffffffffffffffffffffffffffffffffffff1673ffffffffffffffffffffffffffffffffffffffff16815260200190815260200160002060009054906101000a900460ff16905092915050565b6126ab6128e9565b73ffffffffffffffffffffffffffffffffffffffff166126c9610b9b565b73ffffffffffffffffffffffffffffffffffffffff161461271f576040517f08c379a000000000000000000000000000000000000000000000000000000000815260040161271690614f1e565b60405180910390fd5b600073ffffffffffffffffffffffffffffffffffffffff168173ffffffffffffffffffffffffffffffffffffffff16141561278f576040517f08c379a000000000000000000000000000000000000000000000000000000000815260040161278690614dde565b60405180910390fd5b61279881613599565b50565b60007f80ac58cd000000000000000000000000000000000000000000000000000000007bffffffffffffffffffffffffffffffffffffffffffffffffffffffff1916827bffffffffffffffffffffffffffffffffffffffffffffffffffffffff1916148061286657507f5b5e139f000000000000000000000000000000000000000000000000000000007bffffffffffffffffffffffffffffffffffffffffffffffffffffffff1916827bffffffffffffffffffffffffffffffffffffffffffffffffffffffff1916145b80612876575061287582613a1e565b5b9050919050565b60008073ffffffffffffffffffffffffffffffffffffffff166002600084815260200190815260200160002060009054906101000a900473ffffffffffffffffffffffffffffffffffffffff1673ffffffffffffffffffffffffffffffffffffffff1614159050919050565b600033905090565b816004600083815260200190815260200160002060006101000a81548173ffffffffffffffffffffffffffffffffffffffff021916908373ffffffffffffffffffffffffffffffffffffffff160217905550808273ffffffffffffffffffffffffffffffffffffffff16612964836109a9565b73ffffffffffffffffffffffffffffffffffffffff167f8c5be1e5ebec7d5bd14f71427d1e84f3dd0314c0f7b2291e5b200ac8c7c3b92560405160405180910390a45050565b60006129b58261287d565b6129f4576040517f08c379a00000000000000000000000000000000000000000000000000000000081526004016129eb90614e5e565b60405180910390fd5b60006129ff836109a9565b90508073ffffffffffffffffffffffffffffffffffffffff168473ffffffffffffffffffffffffffffffffffffffff161480612a6e57508373ffffffffffffffffffffffffffffffffffffffff16612a568461052a565b73ffffffffffffffffffffffffffffffffffffffff16145b80612a7f5750612a7e818561260f565b5b91505092915050565b8273ffffffffffffffffffffffffffffffffffffffff16612aa8826109a9565b73ffffffffffffffffffffffffffffffffffffffff1614612afe576040517f08c379a0000000000000000000000000000000000000000000000000000000008152600401612af590614f5e565b60405180910390fd5b600073ffffffffffffffffffffffffffffffffffffffff168273ffffffffffffffffffffffffffffffffffffffff161415612b6e576040517f08c379a0000000000000000000000000000000000000000000000000000000008152600401612b6590614e1e565b60405180910390fd5b612b79838383613a88565b612b846000826128f1565b6001600360008573ffffffffffffffffffffffffffffffffffffffff1673ffffffffffffffffffffffffffffffffffffffff1681526020019081526020016000206000828254612bd49190615204565b925050819055506001600360008473ffffffffffffffffffffffffffffffffffffffff1673ffffffffffffffffffffffffffffffffffffffff1681526020019081526020016000206000828254612c2b9190615123565b92505081905550816002600083815260200190815260200160002060006101000a81548173ffffffffffffffffffffffffffffffffffffffff021916908373ffffffffffffffffffffffffffffffffffffffff160217905550808273ffffffffffffffffffffffffffffffffffffffff168473ffffffffffffffffffffffffffffffffffffffff167fddf252ad1be2c89b69c2b068fc378daa952ba7f163c4a11628f55a4df523b3ef60405160405180910390a4505050565b60006010600083815260200190815260200160002090504281600001819055506000600383612d13919061539a565b141561306b57600c600081548110612d2e57612d2d615487565b5b9060005260206000200181600101908054612d48906152ee565b612d53929190614397565b50600d600081548110612d6957612d68615487565b5b9060005260206000200181600201908054612d83906152ee565b612d8e929190614397565b506102008160030181905550600b612ddb836040518060400160405280600881526020017f504f4c4954494353000000000000000000000000000000000000000000000000815250613b9c565b612de5919061539a565b8160060181905550600b612e2e836040518060400160405280600a81526020017f544543484e4f4c4f475900000000000000000000000000000000000000000000815250613b9c565b612e38919061539a565b8160080181905550600b612e81836040518060400160405280600781526020017f5445414348455200000000000000000000000000000000000000000000000000815250613b9c565b612e8b919061539a565b81600c0181905550600b612ed4836040518060400160405280600681526020017f444f43544f520000000000000000000000000000000000000000000000000000815250613b9c565b612ede919061539a565b8160070181905550600b612f27836040518060400160405280600681526020017f4c41575945520000000000000000000000000000000000000000000000000000815250613b9c565b612f31919061539a565b81600b0181905550600b612f7a836040518060400160405280600681526020017f504f4c4943450000000000000000000000000000000000000000000000000000815250613b9c565b612f84919061539a565b8160090181905550600b612fcd836040518060400160405280600581526020017f53414c4553000000000000000000000000000000000000000000000000000000815250613b9c565b612fd7919061539a565b81600a0181905550600f8080549050613025846040518060400160405280600681526020017f574541504f4e0000000000000000000000000000000000000000000000000000815250613b9c565b61302f919061539a565b815481106130405761303f615487565b5b906000526020600020018160050190805461305a906152ee565b613065929190614397565b50613577565b600160038361307a919061539a565b141561339e57600c60018154811061309557613094615487565b5b90600052602060002001816001019080546130af906152ee565b6130ba929190614397565b50600d6000815481106130d0576130cf615487565b5b90600052602060002001816002019080546130ea906152ee565b6130f5929190614397565b5061020081600301819055506006613142836040518060400160405280600981526020017f4f4646535052494e470000000000000000000000000000000000000000000000815250613b9c565b61314c919061539a565b8160040181905550600b613195836040518060400160405280600a81526020017f544543484e4f4c4f475900000000000000000000000000000000000000000000815250613b9c565b61319f919061539a565b8160080181905550600b6131e8836040518060400160405280600881526020017f504f4c4954494353000000000000000000000000000000000000000000000000815250613b9c565b6131f2919061539a565b8160060181905550600b61323b836040518060400160405280600781526020017f5445414348455200000000000000000000000000000000000000000000000000815250613b9c565b613245919061539a565b81600c0181905550600b61328e836040518060400160405280600681526020017f444f43544f520000000000000000000000000000000000000000000000000000815250613b9c565b613298919061539a565b8160070181905550600b6132e1836040518060400160405280600681526020017f4c41575945520000000000000000000000000000000000000000000000000000815250613b9c565b6132eb919061539a565b81600b0181905550600b613334836040518060400160405280600681526020017f504f4c4943450000000000000000000000000000000000000000000000000000815250613b9c565b61333e919061539a565b8160090181905550600b613387836040518060400160405280600581526020017f53414c4553000000000000000000000000000000000000000000000000000000815250613b9c565b613391919061539a565b81600a0181905550613576565b600c6002836133ad919061539a565b815481106133be576133bd615487565b5b90600052602060002001816001019080546133d8906152ee565b6133e3929190614397565b50600d6001815481106133f9576133f8615487565b5b9060005260206000200181600201908054613413906152ee565b61341e929190614397565b5060808160030181905550600661346a836040518060400160405280600981526020017f4f4646535052494e470000000000000000000000000000000000000000000000815250613b9c565b613474919061539a565b8160040181905550600b6134bd836040518060400160405280600481526020017f4c45475300000000000000000000000000000000000000000000000000000000815250613b9c565b6134c7919061539a565b81600d01819055506002613510836040518060400160405280600581526020017f57494e4753000000000000000000000000000000000000000000000000000000815250613b9c565b61351a919061539a565b81600e01819055506002613563836040518060400160405280600581526020017f434c415753000000000000000000000000000000000000000000000000000000815250613b9c565b61356d919061539a565b81600f01819055505b5b5050565b613595828260405180602001604052806000815250613bd8565b5050565b6000600b60009054906101000a900473ffffffffffffffffffffffffffffffffffffffff16905081600b60006101000a81548173ffffffffffffffffffffffffffffffffffffffff021916908373ffffffffffffffffffffffffffffffffffffffff1602179055508173ffffffffffffffffffffffffffffffffffffffff168173ffffffffffffffffffffffffffffffffffffffff167f8be0079c531659141344cd1fd0a4f28419497f9722a3daafe3b4186f6b6457e060405160405180910390a35050565b6000816040516020016136729190614c58565b60405160208183030381529060405280519060200120836040516020016136999190614c58565b60405160208183030381529060405280519060200120146136bb5760006136be565b60015b60ff16905092915050565b6136d4848484612a88565b6136e084848484613c33565b61371f576040517f08c379a000000000000000000000000000000000000000000000000000000000815260040161371690614dbe565b60405180910390fd5b50505050565b6060600082141561376d576040518060400160405280600181526020017f30000000000000000000000000000000000000000000000000000000000000008152509050613881565b600082905060005b6000821461379f57808061378890615351565b915050600a826137989190615179565b9150613775565b60008167ffffffffffffffff8111156137bb576137ba6154b6565b5b6040519080825280601f01601f1916602001820160405280156137ed5781602001600182028036833780820191505090505b5090505b6000851461387a576001826138069190615204565b9150600a85613815919061539a565b60306138219190615123565b60f81b81838151811061383757613836615487565b5b60200101907effffffffffffffffffffffffffffffffffffffffffffffffffffffffffffff1916908160001a905350600a856138739190615179565b94506137f1565b8093505050505b919050565b606060008251905060008114156138af5760405180602001604052806000815250915050613a19565b600060036002836138c09190615123565b6138ca9190615179565b60046138d691906151aa565b905060006020826138e79190615123565b67ffffffffffffffff811115613900576138ff6154b6565b5b6040519080825280601f01601f1916602001820160405280156139325781602001600182028036833780820191505090505b5090506000604051806060016040528060408152602001615dbc604091399050600181016020830160005b868110156139d65760038101905062ffffff818a015116603f8160121c168401518060081b905060ff603f83600c1c1686015116810190508060081b905060ff603f8360061c1686015116810190508060081b905060ff603f831686015116810190508060e01b9050808452600484019350505061395d565b5060038606600181146139f05760028114613a0057613a0b565b613d3d60f01b6002830352613a0b565b603d60f81b60018303525b508484525050819450505050505b919050565b60007f01ffc9a7000000000000000000000000000000000000000000000000000000007bffffffffffffffffffffffffffffffffffffffffffffffffffffffff1916827bffffffffffffffffffffffffffffffffffffffffffffffffffffffff1916149050919050565b613a93838383613dca565b600073ffffffffffffffffffffffffffffffffffffffff168373ffffffffffffffffffffffffffffffffffffffff161415613ad657613ad181613dcf565b613b15565b8173ffffffffffffffffffffffffffffffffffffffff168373ffffffffffffffffffffffffffffffffffffffff1614613b1457613b138382613e18565b5b5b600073ffffffffffffffffffffffffffffffffffffffff168273ffffffffffffffffffffffffffffffffffffffff161415613b5857613b5381613f85565b613b97565b8273ffffffffffffffffffffffffffffffffffffffff168273ffffffffffffffffffffffffffffffffffffffff1614613b9657613b958282614056565b5b5b505050565b6000613bd082613bab85613725565b604051602001613bbc929190614c6f565b6040516020818303038152906040526140d5565b905092915050565b613be28383614108565b613bef6000848484613c33565b613c2e576040517f08c379a0000000000000000000000000000000000000000000000000000000008152600401613c2590614dbe565b60405180910390fd5b505050565b6000613c548473ffffffffffffffffffffffffffffffffffffffff166142d6565b15613dbd578373ffffffffffffffffffffffffffffffffffffffff1663150b7a02613c7d6128e9565b8786866040518563ffffffff1660e01b8152600401613c9f9493929190614d15565b602060405180830381600087803b158015613cb957600080fd5b505af1925050508015613cea57506040513d601f19601f82011682018060405250810190613ce7919061477a565b60015b613d6d573d8060008114613d1a576040519150601f19603f3d011682016040523d82523d6000602084013e613d1f565b606091505b50600081511415613d65576040517f08c379a0000000000000000000000000000000000000000000000000000000008152600401613d5c90614dbe565b60405180910390fd5b805181602001fd5b63150b7a0260e01b7bffffffffffffffffffffffffffffffffffffffffffffffffffffffff1916817bffffffffffffffffffffffffffffffffffffffffffffffffffffffff191614915050613dc2565b600190505b949350505050565b505050565b6008805490506009600083815260200190815260200160002081905550600881908060018154018082558091505060019003906000526020600020016000909190919091505550565b60006001613e2584610a5b565b613e2f9190615204565b9050600060076000848152602001908152602001600020549050818114613f14576000600660008673ffffffffffffffffffffffffffffffffffffffff1673ffffffffffffffffffffffffffffffffffffffff168152602001908152602001600020600084815260200190815260200160002054905080600660008773ffffffffffffffffffffffffffffffffffffffff1673ffffffffffffffffffffffffffffffffffffffff168152602001908152602001600020600084815260200190815260200160002081905550816007600083815260200190815260200160002081905550505b6007600084815260200190815260200160002060009055600660008573ffffffffffffffffffffffffffffffffffffffff1673ffffffffffffffffffffffffffffffffffffffff16815260200190815260200160002060008381526020019081526020016000206000905550505050565b60006001600880549050613f999190615204565b9050600060096000848152602001908152602001600020549050600060088381548110613fc957613fc8615487565b5b906000526020600020015490508060088381548110613feb57613fea615487565b5b90600052602060002001819055508160096000838152602001908152602001600020819055506009600085815260200190815260200160002060009055600880548061403a57614039615458565b5b6001900381819060005260206000200160009055905550505050565b600061406183610a5b565b905081600660008573ffffffffffffffffffffffffffffffffffffffff1673ffffffffffffffffffffffffffffffffffffffff168152602001908152602001600020600083815260200190815260200160002081905550806007600084815260200190815260200160002081905550505050565b6000816040516020016140e89190614c58565b6040516020818303038152906040528051906020012060001c9050919050565b600073ffffffffffffffffffffffffffffffffffffffff168273ffffffffffffffffffffffffffffffffffffffff161415614178576040517f08c379a000000000000000000000000000000000000000000000000000000000815260040161416f90614ede565b60405180910390fd5b6141818161287d565b156141c1576040517f08c379a00000000000000000000000000000000000000000000000000000000081526004016141b890614dfe565b60405180910390fd5b6141cd60008383613a88565b6001600360008473ffffffffffffffffffffffffffffffffffffffff1673ffffffffffffffffffffffffffffffffffffffff168152602001908152602001600020600082825461421d9190615123565b92505081905550816002600083815260200190815260200160002060006101000a81548173ffffffffffffffffffffffffffffffffffffffff021916908373ffffffffffffffffffffffffffffffffffffffff160217905550808273ffffffffffffffffffffffffffffffffffffffff16600073ffffffffffffffffffffffffffffffffffffffff167fddf252ad1be2c89b69c2b068fc378daa952ba7f163c4a11628f55a4df523b3ef60405160405180910390a45050565b600080823b905060008111915050919050565b8280546142f5906152ee565b90600052602060002090601f016020900481019282614317576000855561435e565b82601f1061433057805160ff191683800117855561435e565b8280016001018555821561435e579182015b8281111561435d578251825591602001919060010190614342565b5b50905061436b9190614424565b5090565b6040518061080001604052806040905b606081526020019060019003908161437f5790505090565b8280546143a3906152ee565b90600052602060002090601f0160209004810192826143c55760008555614413565b82601f106143d65780548555614413565b8280016001018555821561441357600052602060002091601f016020900482015b828111156144125782548255916001019190600101906143f7565b5b5090506144209190614424565b5090565b5b8082111561443d576000816000905550600101614425565b5090565b600061445461444f8461507e565b615059565b9050828152602081018484840111156144705761446f6154ea565b5b61447b8482856152ac565b509392505050565b6000614496614491846150af565b615059565b9050828152602081018484840111156144b2576144b16154ea565b5b6144bd8482856152ac565b509392505050565b6000813590506144d481615b45565b92915050565b6000813590506144e981615b5c565b92915050565b6000813590506144fe81615b73565b92915050565b60008151905061451381615b73565b92915050565b600082601f83011261452e5761452d6154e5565b5b813561453e848260208601614441565b91505092915050565b600082601f83011261455c5761455b6154e5565b5b813561456c848260208601614483565b91505092915050565b60008135905061458481615b8a565b92915050565b6000602082840312156145a05761459f6154f4565b5b60006145ae848285016144c5565b91505092915050565b600080604083850312156145ce576145cd6154f4565b5b60006145dc858286016144c5565b92505060206145ed858286016144c5565b9150509250929050565b6000806000606084860312156146105761460f6154f4565b5b600061461e868287016144c5565b935050602061462f868287016144c5565b925050604061464086828701614575565b9150509250925092565b60008060008060808587031215614664576146636154f4565b5b6000614672878288016144c5565b9450506020614683878288016144c5565b935050604061469487828801614575565b925050606085013567ffffffffffffffff8111156146b5576146b46154ef565b5b6146c187828801614519565b91505092959194509250565b600080604083850312156146e4576146e36154f4565b5b60006146f2858286016144c5565b9250506020614703858286016144da565b9150509250929050565b60008060408385031215614724576147236154f4565b5b6000614732858286016144c5565b925050602061474385828601614575565b9150509250929050565b600060208284031215614763576147626154f4565b5b6000614771848285016144ef565b91505092915050565b6000602082840312156147905761478f6154f4565b5b600061479e84828501614504565b91505092915050565b6000602082840312156147bd576147bc6154f4565b5b600082013567ffffffffffffffff8111156147db576147da6154ef565b5b6147e784828501614547565b91505092915050565b600060208284031215614806576148056154f4565b5b600061481484828501614575565b91505092915050565b61482681615238565b82525050565b6148358161524a565b82525050565b6000614846826150e0565b61485081856150f6565b93506148608185602086016152bb565b614869816154f9565b840191505092915050565b600061487f826150eb565b6148898185615107565b93506148998185602086016152bb565b6148a2816154f9565b840191505092915050565b60006148b8826150eb565b6148c28185615118565b93506148d28185602086016152bb565b80840191505092915050565b60006148eb602b83615107565b91506148f68261550a565b604082019050919050565b600061490e603283615107565b915061491982615559565b604082019050919050565b6000614931602683615107565b915061493c826155a8565b604082019050919050565b6000614954601c83615107565b915061495f826155f7565b602082019050919050565b6000614977601283615118565b915061498282615620565b601282019050919050565b600061499a602483615107565b91506149a582615649565b604082019050919050565b60006149bd601983615107565b91506149c882615698565b602082019050919050565b60006149e0605983615118565b91506149eb826156c1565b605982019050919050565b6000614a03602c83615107565b9150614a0e82615736565b604082019050919050565b6000614a26603883615107565b9150614a3182615785565b604082019050919050565b6000614a49602a83615107565b9150614a54826157d4565b604082019050919050565b6000614a6c602983615107565b9150614a7782615823565b604082019050919050565b6000614a8f600283615118565b9150614a9a82615872565b600282019050919050565b6000614ab2602083615107565b9150614abd8261589b565b602082019050919050565b6000614ad5602c83615107565b9150614ae0826158c4565b604082019050919050565b6000614af8602083615107565b9150614b0382615913565b602082019050919050565b6000614b1b601083615107565b9150614b268261593c565b602082019050919050565b6000614b3e602983615107565b9150614b4982615965565b604082019050919050565b6000614b61602183615107565b9150614b6c826159b4565b604082019050919050565b6000614b84601583615107565b9150614b8f82615a03565b602082019050919050565b6000614ba7601d83615118565b9150614bb282615a2c565b601d82019050919050565b6000614bca603183615107565b9150614bd582615a55565b604082019050919050565b6000614bed602c83615107565b9150614bf882615aa4565b604082019050919050565b6000614c10601f83615107565b9150614c1b82615af3565b602082019050919050565b6000614c33600e83615107565b9150614c3e82615b1c565b602082019050919050565b614c52816152a2565b82525050565b6000614c6482846148ad565b915081905092915050565b6000614c7b82856148ad565b9150614c8782846148ad565b91508190509392505050565b6000614c9e8261496a565b9150614caa82856148ad565b9150614cb5826149d3565b9150614cc182846148ad565b9150614ccc82614a82565b91508190509392505050565b6000614ce382614b9a565b9150614cef82846148ad565b915081905092915050565b6000602082019050614d0f600083018461481d565b92915050565b6000608082019050614d2a600083018761481d565b614d37602083018661481d565b614d446040830185614c49565b8181036060830152614d56818461483b565b905095945050505050565b6000602082019050614d76600083018461482c565b92915050565b60006020820190508181036000830152614d968184614874565b905092915050565b60006020820190508181036000830152614db7816148de565b9050919050565b60006020820190508181036000830152614dd781614901565b9050919050565b60006020820190508181036000830152614df781614924565b9050919050565b60006020820190508181036000830152614e1781614947565b9050919050565b60006020820190508181036000830152614e378161498d565b9050919050565b60006020820190508181036000830152614e57816149b0565b9050919050565b60006020820190508181036000830152614e77816149f6565b9050919050565b60006020820190508181036000830152614e9781614a19565b9050919050565b60006020820190508181036000830152614eb781614a3c565b9050919050565b60006020820190508181036000830152614ed781614a5f565b9050919050565b60006020820190508181036000830152614ef781614aa5565b9050919050565b60006020820190508181036000830152614f1781614ac8565b9050919050565b60006020820190508181036000830152614f3781614aeb565b9050919050565b60006020820190508181036000830152614f5781614b0e565b9050919050565b60006020820190508181036000830152614f7781614b31565b9050919050565b60006020820190508181036000830152614f9781614b54565b9050919050565b60006020820190508181036000830152614fb781614b77565b9050919050565b60006020820190508181036000830152614fd781614bbd565b9050919050565b60006020820190508181036000830152614ff781614be0565b9050919050565b6000602082019050818103600083015261501781614c03565b9050919050565b6000602082019050818103600083015261503781614c26565b9050919050565b60006020820190506150536000830184614c49565b92915050565b6000615063615074565b905061506f8282615320565b919050565b6000604051905090565b600067ffffffffffffffff821115615099576150986154b6565b5b6150a2826154f9565b9050602081019050919050565b600067ffffffffffffffff8211156150ca576150c96154b6565b5b6150d3826154f9565b9050602081019050919050565b600081519050919050565b600081519050919050565b600082825260208201905092915050565b600082825260208201905092915050565b600081905092915050565b600061512e826152a2565b9150615139836152a2565b9250827fffffffffffffffffffffffffffffffffffffffffffffffffffffffffffffffff0382111561516e5761516d6153cb565b5b828201905092915050565b6000615184826152a2565b915061518f836152a2565b92508261519f5761519e6153fa565b5b828204905092915050565b60006151b5826152a2565b91506151c0836152a2565b9250817fffffffffffffffffffffffffffffffffffffffffffffffffffffffffffffffff04831182151516156151f9576151f86153cb565b5b828202905092915050565b600061520f826152a2565b915061521a836152a2565b92508282101561522d5761522c6153cb565b5b828203905092915050565b600061524382615282565b9050919050565b60008115159050919050565b60007fffffffff0000000000000000000000000000000000000000000000000000000082169050919050565b600073ffffffffffffffffffffffffffffffffffffffff82169050919050565b6000819050919050565b82818337600083830152505050565b60005b838110156152d95780820151818401526020810190506152be565b838111156152e8576000848401525b50505050565b6000600282049050600182168061530657607f821691505b6020821081141561531a57615319615429565b5b50919050565b615329826154f9565b810181811067ffffffffffffffff82111715615348576153476154b6565b5b80604052505050565b600061535c826152a2565b91507fffffffffffffffffffffffffffffffffffffffffffffffffffffffffffffffff82141561538f5761538e6153cb565b5b600182019050919050565b60006153a5826152a2565b91506153b0836152a2565b9250826153c0576153bf6153fa565b5b828206905092915050565b7f4e487b7100000000000000000000000000000000000000000000000000000000600052601160045260246000fd5b7f4e487b7100000000000000000000000000000000000000000000000000000000600052601260045260246000fd5b7f4e487b7100000000000000000000000000000000000000000000000000000000600052602260045260246000fd5b7f4e487b7100000000000000000000000000000000000000000000000000000000600052603160045260246000fd5b7f4e487b7100000000000000000000000000000000000000000000000000000000600052603260045260246000fd5b7f4e487b7100000000000000000000000000000000000000000000000000000000600052604160045260246000fd5b600080fd5b600080fd5b600080fd5b600080fd5b6000601f19601f8301169050919050565b7f455243373231456e756d657261626c653a206f776e657220696e646578206f7560008201527f74206f6620626f756e6473000000000000000000000000000000000000000000602082015250565b7f4552433732313a207472616e7366657220746f206e6f6e20455243373231526560008201527f63656976657220696d706c656d656e7465720000000000000000000000000000602082015250565b7f4f776e61626c653a206e6577206f776e657220697320746865207a65726f206160008201527f6464726573730000000000000000000000000000000000000000000000000000602082015250565b7f4552433732313a20746f6b656e20616c7265616479206d696e74656400000000600082015250565b7f7b226e616d65223a2022506c6179657220230000000000000000000000000000600082015250565b7f4552433732313a207472616e7366657220746f20746865207a65726f2061646460008201527f7265737300000000000000000000000000000000000000000000000000000000602082015250565b7f4552433732313a20617070726f766520746f2063616c6c657200000000000000600082015250565b7f222c20226465736372697074696f6e223a2022447973746f706961206973206160008201527f2067616d65206f6620737572766976616c2e222c2022696d616765223a20226460208201527f6174613a696d6167652f7376672b786d6c3b6261736536342c00000000000000604082015250565b7f4552433732313a206f70657261746f7220717565727920666f72206e6f6e657860008201527f697374656e7420746f6b656e0000000000000000000000000000000000000000602082015250565b7f4552433732313a20617070726f76652063616c6c6572206973206e6f74206f7760008201527f6e6572206e6f7220617070726f76656420666f7220616c6c0000000000000000602082015250565b7f4552433732313a2062616c616e636520717565727920666f7220746865207a6560008201527f726f206164647265737300000000000000000000000000000000000000000000602082015250565b7f4552433732313a206f776e657220717565727920666f72206e6f6e657869737460008201527f656e7420746f6b656e0000000000000000000000000000000000000000000000602082015250565b7f227d000000000000000000000000000000000000000000000000000000000000600082015250565b7f4552433732313a206d696e7420746f20746865207a65726f2061646472657373600082015250565b7f4552433732313a20617070726f76656420717565727920666f72206e6f6e657860008201527f697374656e7420746f6b656e0000000000000000000000000000000000000000602082015250565b7f4f776e61626c653a2063616c6c6572206973206e6f7420746865206f776e6572600082015250565b7f546f6b656e20494420696e76616c696400000000000000000000000000000000600082015250565b7f4552433732313a207472616e73666572206f6620746f6b656e2074686174206960008201527f73206e6f74206f776e0000000000000000000000000000000000000000000000602082015250565b7f4552433732313a20617070726f76616c20746f2063757272656e74206f776e6560008201527f7200000000000000000000000000000000000000000000000000000000000000602082015250565b7f776561706f6e20616c7265616479206578697374730000000000000000000000600082015250565b7f646174613a6170706c69636174696f6e2f6a736f6e3b6261736536342c000000600082015250565b7f4552433732313a207472616e736665722063616c6c6572206973206e6f74206f60008201527f776e6572206e6f7220617070726f766564000000000000000000000000000000602082015250565b7f455243373231456e756d657261626c653a20676c6f62616c20696e646578206f60008201527f7574206f6620626f756e64730000000000000000000000000000000000000000602082015250565b7f5265656e7472616e637947756172643a207265656e7472616e742063616c6c00600082015250565b7f696e76616c696420776561706f6e000000000000000000000000000000000000600082015250565b615b4e81615238565b8114615b5957600080fd5b50565b615b658161524a565b8114615b7057600080fd5b50565b615b7c81615256565b8114615b8757600080fd5b50565b615b93816152a2565b8114615b9e57600080fd5b5056fe3c7465787420783d2231302220793d2234302220636c6173733d22626173655768697465223e2e62617365477265656e207b2066696c6c3a20737072696e67677265656e3b20666f6e742d66616d696c793a2073657269663b20666f6e742d73697a653a20313670783b207d3c2f7374796c653e3c2f746578743e3c7465787420783d2231302220793d223136302220636c6173733d2262617365477265656e223e3c2f746578743e3c7465787420783d2231302220793d223138302220636c6173733d22626173655768697465223e3c726563742077696474683d223130302522206865696768743d2231303025222066696c6c3d22626c61636b22202f3e3c2f746578743e3c7465787420783d2231302220793d223138302220636c6173733d2262617365477265656e223e3c2f746578743e3c7465787420783d2231302220793d223332302220636c6173733d2262617365477265656e223e3c73766720786d6c6e733d22687474703a2f2f7777772e77332e6f72672f323030302f73766722207072657365727665417370656374526174696f3d22784d696e594d696e206d656574222076696577426f783d223020302033353020333530223e3c2f746578743e3c7465787420783d2231302220793d223234302220636c6173733d22626173655768697465223e3c2f746578743e3c7465787420783d2231302220793d223330302220636c6173733d22626173655768697465223e4142434445464748494a4b4c4d4e4f505152535455565758595a6162636465666768696a6b6c6d6e6f707172737475767778797a303132333435363738392b2f3c2f746578743e3c7465787420783d2231302220793d223236302220636c6173733d2262617365477265656e223e3c7374796c653e2e626173655768697465207b2066696c6c3a2077686974653b20666f6e742d66616d696c793a2073657269663b20666f6e742d73697a653a20313670783b207d3c2f746578743e3c7465787420783d2231302220793d223232302220636c6173733d2262617365477265656e223e3c2f746578743e3c7465787420783d2231302220793d223130302220636c6173733d22626173655768697465223e3c2f746578743e3c7465787420783d2231302220793d223230302220636c6173733d22626173655768697465223e3c2f746578743e3c7465787420783d2231302220793d2236302220636c6173733d2262617365477265656e223e3c2f746578743e3c7465787420783d2231302220793d223134302220636c6173733d22626173655768697465223ea2646970667358221220187e1a3cb07a75c8389064fc13e84f4a0e89c7e1b8206d8b03637fae9d414e9f64736f6c63430008070033",
  "immutableReferences": {},
  "source": "// SPDX-License-Identifier: MIT\n\npragma solidity ^0.8.0;\n\nimport \"./FullERC721.sol\";\n\ncontract Dystopia21 is ERC721Enumerable, ReentrancyGuard, Ownable {\n\n\tstruct PlayerInfo {\n\t\tuint256 creationTime;\n\t\tstring gender;\n\t\tstring species;\n        uint256 ageRemaining;\n\n        //only for females\n        uint256 maxOffsprings;  // 0 to 5\n\n        //only for humans\n\t\tstring weapons;\n        uint256 politicalSkills;\n        uint256 doctorSkills;\n        uint256 technicalSkills;\n        uint256 policeSkills;\n        uint256 salesSkills;\n        uint256 lawyerSkills;\n        uint256 teachingSkills;\n\n        //only for monsters\n        uint256 legs;\n        uint256 wings;\n        uint256 claws;\n\t}\n\t\n\tstring[] private gender = [ \"Male\", \"Female\" ];\n\tstring[] private species = [ \"Human\", \"Monster\" ];\n\tuint256[] private maxAge = [ 1024, 256];\n\tstring[] private weapons;\n\n\tmapping (uint256 => PlayerInfo) private _tokenId2Player;\n\n    constructor() ERC721(\"Dystopia\", \"DYSTOPIA\") Ownable() {\n        weapons.push(\"Handgun\");\n        weapons.push(\"Shotgun\");\n        weapons.push(\"Machinegun\");\n        weapons.push(\"Rifle\");\n        weapons.push(\"Sword\");\n        weapons.push(\"Energy-sword\");\n\t}\n\n    function addWeapon(string memory newWeapon) external onlyOwner {\n        require(bytes(newWeapon).length > 0, \"invalid weapon\");\n        for(uint256 i = 0; i < weapons.length; ++i) {\n            require(Strings.compare(newWeapon, weapons[i]) == 0, \"weapon already exists\");\n        }\n        weapons.push(newWeapon);\n    }\n\n\tfunction generatePlayer(uint256 tokenId) internal {\n\t\tPlayerInfo storage player = _tokenId2Player[tokenId];   //by reference\n\n\t\tplayer.creationTime = block.timestamp;\n        if(tokenId % 3 == 0) { //human-male\n            player.gender = gender[0];\n            player.species = species[0];\n            player.ageRemaining = 512;\n            player.politicalSkills = pluck(tokenId, \"POLITICS\") % 11;\n            player.technicalSkills = pluck(tokenId, \"TECHNOLOGY\") % 11;\n            player.teachingSkills = pluck(tokenId, \"TEACHER\") % 11;\n            player.doctorSkills = pluck(tokenId, \"DOCTOR\") % 11;\n            player.lawyerSkills = pluck(tokenId, \"LAWYER\") % 11;\n            player.policeSkills = pluck(tokenId, \"POLICE\") % 11;\n            player.salesSkills = pluck(tokenId, \"SALES\") % 11;\n            player.weapons = weapons[pluck(tokenId, \"WEAPON\") % weapons.length];\n        }\n        else if(tokenId % 3 == 1) { //human-female\n            player.gender = gender[1];\n            player.species = species[0];\n            player.ageRemaining = 512;\n            player.maxOffsprings = pluck(tokenId, \"OFFSPRING\") % 6;\n            player.technicalSkills = pluck(tokenId, \"TECHNOLOGY\") % 11;\n            player.politicalSkills = pluck(tokenId, \"POLITICS\") % 11;\n            player.teachingSkills = pluck(tokenId, \"TEACHER\") % 11;\n            player.doctorSkills = pluck(tokenId, \"DOCTOR\") % 11;\n            player.lawyerSkills = pluck(tokenId, \"LAWYER\") % 11;\n            player.policeSkills = pluck(tokenId, \"POLICE\") % 11;\n            player.salesSkills = pluck(tokenId, \"SALES\") % 11;\n        }\n        else { //monster\n\t\t    player.gender = gender[tokenId % 2];\n\t\t\tplayer.species = species[1];\n            player.ageRemaining = 128;\n            player.maxOffsprings = pluck(tokenId, \"OFFSPRING\") % 6;\n            player.legs = pluck(tokenId, \"LEGS\") % 11;\n            player.wings = pluck(tokenId, \"WINGS\") % 2;\n            player.claws = pluck(tokenId, \"CLAWS\") % 2;\n\t\t}\n\t}\n\n    function random(string memory input) internal pure returns (uint256) {\n        return uint256(keccak256(abi.encodePacked(input)));\n    }\n\n    function pluck(uint256 tokenId, string memory keyPrefix) internal pure returns (uint256) {\n        return random(string(abi.encodePacked(keyPrefix, Strings.toString(tokenId))));\n    }\n\n    function tokenURI(uint256 tokenId) override public view returns (string memory) {\n\n        PlayerInfo memory player = _tokenId2Player[tokenId];\n        uint256 isHuman = Strings.compare(player.species, \"human\");\n        uint256 isFemale = Strings.compare(player.gender, \"female\");\n\n        string[64] memory parts;\n\t\tuint256 counter = 0;\n        parts[counter++] = '<svg xmlns=\"http://www.w3.org/2000/svg\" preserveAspectRatio=\"xMinYMin meet\" viewBox=\"0 0 350 350\">';\n\t\tparts[counter++] = '<style>.baseWhite { fill: white; font-family: serif; font-size: 16px; }';\n\t\tparts[counter++] = '.baseGreen { fill: springgreen; font-family: serif; font-size: 16px; }</style>';\n\t\tparts[counter++] = '<rect width=\"100%\" height=\"100%\" fill=\"black\" />';\n        parts[counter++] = '<text x=\"10\" y=\"40\" class=\"baseWhite\">';\n        parts[counter++] = \"Species:\\t\";\n        parts[counter++] = player.species;\n        parts[counter++] = '</text><text x=\"10\" y=\"60\" class=\"baseGreen\">';\n        parts[counter++] = \"Gender:\\t\";\n        parts[counter++] = player.gender;\n        if(isFemale == 1) {\n            parts[counter++] = '</text><text x=\"10\" y=\"100\" class=\"baseWhite\">';\n            parts[counter++] = \"MaxOffsprings:\\t\";\n            parts[counter++] = Strings.toString(player.maxOffsprings);\n        }\n        else if(isHuman == 1){\n            parts[counter++] = '</text><text x=\"10\" y=\"100\" class=\"baseWhite\">';\n            parts[counter++] = \"Weapons:\\t\";\n            parts[counter++] = player.weapons;\n        }\n        if(isHuman == 1) {\n            parts[counter++] = '</text><text x=\"10\" y=\"140\" class=\"baseWhite\">';\n            parts[counter++] = \"PoliticalSkills:\";\n            parts[counter++] = Strings.toString(player.politicalSkills);\n            parts[counter++] = \"/10\";\n            parts[counter++] = '</text><text x=\"10\" y=\"160\" class=\"baseGreen\">';\n            parts[counter++] = \"TechnicalSkills:\\t\";\n            parts[counter++] = Strings.toString(player.technicalSkills);\n            parts[counter++] = \"/10\";\n            parts[counter++] = '</text><text x=\"10\" y=\"180\" class=\"baseGreen\">';\n            parts[counter++] = \"DoctorSkills:\\t\";\n            parts[counter++] = Strings.toString(player.doctorSkills);\n            parts[counter++] = \"/10\";\n            parts[counter++] = '</text><text x=\"10\" y=\"200\" class=\"baseWhite\">';\n            parts[counter++] = \"LawyerSkills:\\t\";\n            parts[counter++] = Strings.toString(player.lawyerSkills);\n            parts[counter++] = \"/10\";\n            parts[counter++] = '</text><text x=\"10\" y=\"220\" class=\"baseGreen\">';\n            parts[counter++] = \"PoliceSkills:\\t\";\n            parts[counter++] = Strings.toString(player.policeSkills);\n            parts[counter++] = \"/10\";\n            parts[counter++] = '</text><text x=\"10\" y=\"240\" class=\"baseWhite\">';\n            parts[counter++] = \"SalesSkills:\\t\";\n            parts[counter++] = Strings.toString(player.salesSkills);\n            parts[counter++] = \"/10\";\n            parts[counter++] = '</text><text x=\"10\" y=\"260\" class=\"baseGreen\">';\n            parts[counter++] = \"TeachingSkills:\\t\";\n            parts[counter++] = Strings.toString(player.teachingSkills);\n            parts[counter++] = \"/10\";\n        }\n        else {\n            parts[counter++] = '</text><text x=\"10\" y=\"140\" class=\"baseWhite\">';\n            parts[counter++] = \"Legs:\\t\";\n            parts[counter++] = Strings.toString(player.legs);\n            parts[counter++] = '</text><text x=\"10\" y=\"160\" class=\"baseGreen\">';\n            parts[counter++] = \"Wings:\\t\";\n            parts[counter++] = (player.wings == 1 ? \"Yes\" : \"No\");\n            parts[counter++] = '</text><text x=\"10\" y=\"180\" class=\"baseWhite\">';\n            parts[counter++] = \"Claws:\\t\";\n            parts[counter++] = (player.claws == 1 ? \"Yes\" : \"No\");\n        }\n\t\tparts[counter++] = '</text><text x=\"10\" y=\"300\" class=\"baseWhite\">';\n        parts[counter++] = \"CreationTime:\\t\";\n        parts[counter++] = Strings.toString(player.creationTime);\n        parts[counter++] = '</text><text x=\"10\" y=\"320\" class=\"baseGreen\">';\n        parts[counter++] = \"AgeRemaining:\\t\";\n        parts[counter++] = Strings.toString(player.ageRemaining);\n        parts[counter++] = '</text></svg>';\n\n        string memory output = \"\";\n\t\tfor(uint256 i = 0; i < counter; ++i)\n\t\t{\n\t\t\toutput = string(abi.encodePacked(output, parts[i]));\n\t\t}\n\n        string memory json = Base64.encode(bytes(string(abi.encodePacked('{\"name\": \"Player #', Strings.toString(tokenId), '\", \"description\": \"Dystopia is a game of survival.\", \"image\": \"data:image/svg+xml;base64,', Base64.encode(bytes(output)), '\"}'))));\n        output = string(abi.encodePacked('data:application/json;base64,', json));\n\n        return output;\n    }\n\n    function mintPlayer(uint256 tokenId) public nonReentrant onlyOwner {\n        require(tokenId > 0 && tokenId < 10000, \"Token ID invalid\");\n        generatePlayer(tokenId);\n        _safeMint(owner(), tokenId);\n    }\n}\n",
  "sourcePath": "/home/ec2-user/github/fcc-dapp/src/contracts/Dystopia21.sol",
  "compiler": {
    "name": "solc",
    "version": "0.8.7+commit.e28d00a7.Emscripten.clang"
  },
  "schemaVersion": "3.4.3",
  "updatedAt": "2021-11-13T09:01:44.375Z",
  "devdoc": {
    "kind": "dev",
    "methods": {
      "approve(address,uint256)": {
        "details": "See {IERC721-approve}."
      },
      "balanceOf(address)": {
        "details": "See {IERC721-balanceOf}."
      },
      "getApproved(uint256)": {
        "details": "See {IERC721-getApproved}."
      },
      "isApprovedForAll(address,address)": {
        "details": "See {IERC721-isApprovedForAll}."
      },
      "name()": {
        "details": "See {IERC721Metadata-name}."
      },
      "owner()": {
        "details": "Returns the address of the current owner."
      },
      "ownerOf(uint256)": {
        "details": "See {IERC721-ownerOf}."
      },
      "renounceOwnership()": {
        "details": "Leaves the contract without owner. It will not be possible to call `onlyOwner` functions anymore. Can only be called by the current owner. NOTE: Renouncing ownership will leave the contract without an owner, thereby removing any functionality that is only available to the owner."
      },
      "safeTransferFrom(address,address,uint256)": {
        "details": "See {IERC721-safeTransferFrom}."
      },
      "safeTransferFrom(address,address,uint256,bytes)": {
        "details": "See {IERC721-safeTransferFrom}."
      },
      "setApprovalForAll(address,bool)": {
        "details": "See {IERC721-setApprovalForAll}."
      },
      "supportsInterface(bytes4)": {
        "details": "See {IERC165-supportsInterface}."
      },
      "symbol()": {
        "details": "See {IERC721Metadata-symbol}."
      },
      "tokenByIndex(uint256)": {
        "details": "See {IERC721Enumerable-tokenByIndex}."
      },
      "tokenOfOwnerByIndex(address,uint256)": {
        "details": "See {IERC721Enumerable-tokenOfOwnerByIndex}."
      },
      "tokenURI(uint256)": {
        "details": "See {IERC721Metadata-tokenURI}."
      },
      "totalSupply()": {
        "details": "See {IERC721Enumerable-totalSupply}."
      },
      "transferFrom(address,address,uint256)": {
        "details": "See {IERC721-transferFrom}."
      },
      "transferOwnership(address)": {
        "details": "Transfers ownership of the contract to a new account (`newOwner`). Can only be called by the current owner."
      }
    },
    "version": 1
  },
  "userdoc": {
    "kind": "user",
    "methods": {},
    "version": 1
  }
}