{
  "contractName": "DystopiaLand21",
  "abi": [
    {
      "inputs": [],
      "stateMutability": "nonpayable",
      "type": "constructor"
    },
    {
      "anonymous": false,
      "inputs": [
        {
          "indexed": true,
          "internalType": "address",
          "name": "owner",
          "type": "address"
        },
        {
          "indexed": true,
          "internalType": "address",
          "name": "approved",
          "type": "address"
        },
        {
          "indexed": true,
          "internalType": "uint256",
          "name": "tokenId",
          "type": "uint256"
        }
      ],
      "name": "Approval",
      "type": "event"
    },
    {
      "anonymous": false,
      "inputs": [
        {
          "indexed": true,
          "internalType": "address",
          "name": "owner",
          "type": "address"
        },
        {
          "indexed": true,
          "internalType": "address",
          "name": "operator",
          "type": "address"
        },
        {
          "indexed": false,
          "internalType": "bool",
          "name": "approved",
          "type": "bool"
        }
      ],
      "name": "ApprovalForAll",
      "type": "event"
    },
    {
      "anonymous": false,
      "inputs": [
        {
          "indexed": true,
          "internalType": "address",
          "name": "previousOwner",
          "type": "address"
        },
        {
          "indexed": true,
          "internalType": "address",
          "name": "newOwner",
          "type": "address"
        }
      ],
      "name": "OwnershipTransferred",
      "type": "event"
    },
    {
      "anonymous": false,
      "inputs": [
        {
          "indexed": true,
          "internalType": "address",
          "name": "from",
          "type": "address"
        },
        {
          "indexed": true,
          "internalType": "address",
          "name": "to",
          "type": "address"
        },
        {
          "indexed": true,
          "internalType": "uint256",
          "name": "tokenId",
          "type": "uint256"
        }
      ],
      "name": "Transfer",
      "type": "event"
    },
    {
      "inputs": [
        {
          "internalType": "address",
          "name": "to",
          "type": "address"
        },
        {
          "internalType": "uint256",
          "name": "tokenId",
          "type": "uint256"
        }
      ],
      "name": "approve",
      "outputs": [],
      "stateMutability": "nonpayable",
      "type": "function"
    },
    {
      "inputs": [
        {
          "internalType": "address",
          "name": "owner",
          "type": "address"
        }
      ],
      "name": "balanceOf",
      "outputs": [
        {
          "internalType": "uint256",
          "name": "",
          "type": "uint256"
        }
      ],
      "stateMutability": "view",
      "type": "function"
    },
    {
      "inputs": [
        {
          "internalType": "uint256",
          "name": "tokenId",
          "type": "uint256"
        }
      ],
      "name": "getApproved",
      "outputs": [
        {
          "internalType": "address",
          "name": "",
          "type": "address"
        }
      ],
      "stateMutability": "view",
      "type": "function"
    },
    {
      "inputs": [
        {
          "internalType": "address",
          "name": "owner",
          "type": "address"
        },
        {
          "internalType": "address",
          "name": "operator",
          "type": "address"
        }
      ],
      "name": "isApprovedForAll",
      "outputs": [
        {
          "internalType": "bool",
          "name": "",
          "type": "bool"
        }
      ],
      "stateMutability": "view",
      "type": "function"
    },
    {
      "inputs": [],
      "name": "name",
      "outputs": [
        {
          "internalType": "string",
          "name": "",
          "type": "string"
        }
      ],
      "stateMutability": "view",
      "type": "function"
    },
    {
      "inputs": [],
      "name": "owner",
      "outputs": [
        {
          "internalType": "address",
          "name": "",
          "type": "address"
        }
      ],
      "stateMutability": "view",
      "type": "function"
    },
    {
      "inputs": [
        {
          "internalType": "uint256",
          "name": "tokenId",
          "type": "uint256"
        }
      ],
      "name": "ownerOf",
      "outputs": [
        {
          "internalType": "address",
          "name": "",
          "type": "address"
        }
      ],
      "stateMutability": "view",
      "type": "function"
    },
    {
      "inputs": [],
      "name": "renounceOwnership",
      "outputs": [],
      "stateMutability": "nonpayable",
      "type": "function"
    },
    {
      "inputs": [
        {
          "internalType": "address",
          "name": "from",
          "type": "address"
        },
        {
          "internalType": "address",
          "name": "to",
          "type": "address"
        },
        {
          "internalType": "uint256",
          "name": "tokenId",
          "type": "uint256"
        }
      ],
      "name": "safeTransferFrom",
      "outputs": [],
      "stateMutability": "nonpayable",
      "type": "function"
    },
    {
      "inputs": [
        {
          "internalType": "address",
          "name": "from",
          "type": "address"
        },
        {
          "internalType": "address",
          "name": "to",
          "type": "address"
        },
        {
          "internalType": "uint256",
          "name": "tokenId",
          "type": "uint256"
        },
        {
          "internalType": "bytes",
          "name": "_data",
          "type": "bytes"
        }
      ],
      "name": "safeTransferFrom",
      "outputs": [],
      "stateMutability": "nonpayable",
      "type": "function"
    },
    {
      "inputs": [
        {
          "internalType": "address",
          "name": "operator",
          "type": "address"
        },
        {
          "internalType": "bool",
          "name": "approved",
          "type": "bool"
        }
      ],
      "name": "setApprovalForAll",
      "outputs": [],
      "stateMutability": "nonpayable",
      "type": "function"
    },
    {
      "inputs": [
        {
          "internalType": "bytes4",
          "name": "interfaceId",
          "type": "bytes4"
        }
      ],
      "name": "supportsInterface",
      "outputs": [
        {
          "internalType": "bool",
          "name": "",
          "type": "bool"
        }
      ],
      "stateMutability": "view",
      "type": "function"
    },
    {
      "inputs": [],
      "name": "symbol",
      "outputs": [
        {
          "internalType": "string",
          "name": "",
          "type": "string"
        }
      ],
      "stateMutability": "view",
      "type": "function"
    },
    {
      "inputs": [
        {
          "internalType": "uint256",
          "name": "index",
          "type": "uint256"
        }
      ],
      "name": "tokenByIndex",
      "outputs": [
        {
          "internalType": "uint256",
          "name": "",
          "type": "uint256"
        }
      ],
      "stateMutability": "view",
      "type": "function"
    },
    {
      "inputs": [
        {
          "internalType": "address",
          "name": "owner",
          "type": "address"
        },
        {
          "internalType": "uint256",
          "name": "index",
          "type": "uint256"
        }
      ],
      "name": "tokenOfOwnerByIndex",
      "outputs": [
        {
          "internalType": "uint256",
          "name": "",
          "type": "uint256"
        }
      ],
      "stateMutability": "view",
      "type": "function"
    },
    {
      "inputs": [],
      "name": "totalSupply",
      "outputs": [
        {
          "internalType": "uint256",
          "name": "",
          "type": "uint256"
        }
      ],
      "stateMutability": "view",
      "type": "function"
    },
    {
      "inputs": [
        {
          "internalType": "address",
          "name": "from",
          "type": "address"
        },
        {
          "internalType": "address",
          "name": "to",
          "type": "address"
        },
        {
          "internalType": "uint256",
          "name": "tokenId",
          "type": "uint256"
        }
      ],
      "name": "transferFrom",
      "outputs": [],
      "stateMutability": "nonpayable",
      "type": "function"
    },
    {
      "inputs": [
        {
          "internalType": "address",
          "name": "newOwner",
          "type": "address"
        }
      ],
      "name": "transferOwnership",
      "outputs": [],
      "stateMutability": "nonpayable",
      "type": "function"
    },
    {
      "inputs": [
        {
          "internalType": "uint256",
          "name": "tokenId",
          "type": "uint256"
        }
      ],
      "name": "tokenURI",
      "outputs": [
        {
          "internalType": "string",
          "name": "",
          "type": "string"
        }
      ],
      "stateMutability": "pure",
      "type": "function"
    },
    {
      "inputs": [
        {
          "internalType": "uint256",
          "name": "tokenId",
          "type": "uint256"
        }
      ],
      "name": "mintLand",
      "outputs": [],
      "stateMutability": "nonpayable",
      "type": "function"
    }
  ],
  "bytecode": "0x60806040523480156200001157600080fd5b506040518060400160405280600c81526020017f447973746f7069614c616e6400000000000000000000000000000000000000008152506040518060400160405280600c81526020017f445953544f5049414c414e440000000000000000000000000000000000000000815250816000908051906020019062000096929190620001ae565b508060019080519060200190620000af929190620001ae565b5050506001600a81905550620000da620000ce620000e060201b60201c565b620000e860201b60201c565b620002c3565b600033905090565b6000600b60009054906101000a900473ffffffffffffffffffffffffffffffffffffffff16905081600b60006101000a81548173ffffffffffffffffffffffffffffffffffffffff021916908373ffffffffffffffffffffffffffffffffffffffff1602179055508173ffffffffffffffffffffffffffffffffffffffff168173ffffffffffffffffffffffffffffffffffffffff167f8be0079c531659141344cd1fd0a4f28419497f9722a3daafe3b4186f6b6457e060405160405180910390a35050565b828054620001bc906200025e565b90600052602060002090601f016020900481019282620001e057600085556200022c565b82601f10620001fb57805160ff19168380011785556200022c565b828001600101855582156200022c579182015b828111156200022b5782518255916020019190600101906200020e565b5b5090506200023b91906200023f565b5090565b5b808211156200025a57600081600090555060010162000240565b5090565b600060028204905060018216806200027757607f821691505b602082108114156200028e576200028d62000294565b5b50919050565b7f4e487b7100000000000000000000000000000000000000000000000000000000600052602260045260246000fd5b613e0a80620002d36000396000f3fe608060405234801561001057600080fd5b506004361061012c5760003560e01c806370a08231116100ad578063a22cb46511610071578063a22cb46514610343578063b88d4fde1461035f578063c87b56dd1461037b578063e985e9c5146103ab578063f2fde38b146103db5761012c565b806370a08231146102b1578063715018a6146102e1578063728239f9146102eb5780638da5cb5b1461030757806395d89b41146103255761012c565b806323b872dd116100f457806323b872dd146101e95780632f745c591461020557806342842e0e146102355780634f6ccce7146102515780636352211e146102815761012c565b806301ffc9a71461013157806306fdde0314610161578063081812fc1461017f578063095ea7b3146101af57806318160ddd146101cb575b600080fd5b61014b60048036038101906101469190612918565b6103f7565b6040516101589190612e9d565b60405180910390f35b610169610471565b6040516101769190612eb8565b60405180910390f35b61019960048036038101906101949190612972565b610503565b6040516101a69190612e36565b60405180910390f35b6101c960048036038101906101c491906128d8565b610588565b005b6101d36106a0565b6040516101e0919061313a565b60405180910390f35b61020360048036038101906101fe91906127c2565b6106ad565b005b61021f600480360381019061021a91906128d8565b61070d565b60405161022c919061313a565b60405180910390f35b61024f600480360381019061024a91906127c2565b6107b2565b005b61026b60048036038101906102669190612972565b6107d2565b604051610278919061313a565b60405180910390f35b61029b60048036038101906102969190612972565b610843565b6040516102a89190612e36565b60405180910390f35b6102cb60048036038101906102c69190612755565b6108f5565b6040516102d8919061313a565b60405180910390f35b6102e96109ad565b005b61030560048036038101906103009190612972565b610a35565b005b61030f610b6b565b60405161031c9190612e36565b60405180910390f35b61032d610b95565b60405161033a9190612eb8565b60405180910390f35b61035d60048036038101906103589190612898565b610c27565b005b61037960048036038101906103749190612815565b610da8565b005b61039560048036038101906103909190612972565b610e0a565b6040516103a29190612eb8565b60405180910390f35b6103c560048036038101906103c09190612782565b61127b565b6040516103d29190612e9d565b60405180910390f35b6103f560048036038101906103f09190612755565b61130f565b005b60007f780e9d63000000000000000000000000000000000000000000000000000000007bffffffffffffffffffffffffffffffffffffffffffffffffffffffff1916827bffffffffffffffffffffffffffffffffffffffffffffffffffffffff1916148061046a575061046982611407565b5b9050919050565b606060008054610480906133b9565b80601f01602080910402602001604051908101604052809291908181526020018280546104ac906133b9565b80156104f95780601f106104ce576101008083540402835291602001916104f9565b820191906000526020600020905b8154815290600101906020018083116104dc57829003601f168201915b5050505050905090565b600061050e826114e9565b61054d576040517f08c379a00000000000000000000000000000000000000000000000000000000081526004016105449061303a565b60405180910390fd5b6004600083815260200190815260200160002060009054906101000a900473ffffffffffffffffffffffffffffffffffffffff169050919050565b600061059382610843565b90508073ffffffffffffffffffffffffffffffffffffffff168373ffffffffffffffffffffffffffffffffffffffff161415610604576040517f08c379a00000000000000000000000000000000000000000000000000000000081526004016105fb906130ba565b60405180910390fd5b8073ffffffffffffffffffffffffffffffffffffffff16610623611555565b73ffffffffffffffffffffffffffffffffffffffff16148061065257506106518161064c611555565b61127b565b5b610691576040517f08c379a000000000000000000000000000000000000000000000000000000000815260040161068890612fba565b60405180910390fd5b61069b838361155d565b505050565b6000600880549050905090565b6106be6106b8611555565b82611616565b6106fd576040517f08c379a00000000000000000000000000000000000000000000000000000000081526004016106f4906130da565b60405180910390fd5b6107088383836116f4565b505050565b6000610718836108f5565b8210610759576040517f08c379a000000000000000000000000000000000000000000000000000000000815260040161075090612eda565b60405180910390fd5b600660008473ffffffffffffffffffffffffffffffffffffffff1673ffffffffffffffffffffffffffffffffffffffff168152602001908152602001600020600083815260200190815260200160002054905092915050565b6107cd83838360405180602001604052806000815250610da8565b505050565b60006107dc6106a0565b821061081d576040517f08c379a0000000000000000000000000000000000000000000000000000000008152600401610814906130fa565b60405180910390fd5b6008828154811061083157610830613552565b5b90600052602060002001549050919050565b6000806002600084815260200190815260200160002060009054906101000a900473ffffffffffffffffffffffffffffffffffffffff169050600073ffffffffffffffffffffffffffffffffffffffff168173ffffffffffffffffffffffffffffffffffffffff1614156108ec576040517f08c379a00000000000000000000000000000000000000000000000000000000081526004016108e390612ffa565b60405180910390fd5b80915050919050565b60008073ffffffffffffffffffffffffffffffffffffffff168273ffffffffffffffffffffffffffffffffffffffff161415610966576040517f08c379a000000000000000000000000000000000000000000000000000000000815260040161095d90612fda565b60405180910390fd5b600360008373ffffffffffffffffffffffffffffffffffffffff1673ffffffffffffffffffffffffffffffffffffffff168152602001908152602001600020549050919050565b6109b5611555565b73ffffffffffffffffffffffffffffffffffffffff166109d3610b6b565b73ffffffffffffffffffffffffffffffffffffffff1614610a29576040517f08c379a0000000000000000000000000000000000000000000000000000000008152600401610a209061305a565b60405180910390fd5b610a336000611950565b565b6002600a541415610a7b576040517f08c379a0000000000000000000000000000000000000000000000000000000008152600401610a729061311a565b60405180910390fd5b6002600a81905550610a8b611555565b73ffffffffffffffffffffffffffffffffffffffff16610aa9610b6b565b73ffffffffffffffffffffffffffffffffffffffff1614610aff576040517f08c379a0000000000000000000000000000000000000000000000000000000008152600401610af69061305a565b60405180910390fd5b600081118015610b1057506103e981105b610b4f576040517f08c379a0000000000000000000000000000000000000000000000000000000008152600401610b469061307a565b60405180910390fd5b610b60610b5a610b6b565b82611a16565b6001600a8190555050565b6000600b60009054906101000a900473ffffffffffffffffffffffffffffffffffffffff16905090565b606060018054610ba4906133b9565b80601f0160208091040260200160405190810160405280929190818152602001828054610bd0906133b9565b8015610c1d5780601f10610bf257610100808354040283529160200191610c1d565b820191906000526020600020905b815481529060010190602001808311610c0057829003601f168201915b5050505050905090565b610c2f611555565b73ffffffffffffffffffffffffffffffffffffffff168273ffffffffffffffffffffffffffffffffffffffff161415610c9d576040517f08c379a0000000000000000000000000000000000000000000000000000000008152600401610c9490612f7a565b60405180910390fd5b8060056000610caa611555565b73ffffffffffffffffffffffffffffffffffffffff1673ffffffffffffffffffffffffffffffffffffffff16815260200190815260200160002060008473ffffffffffffffffffffffffffffffffffffffff1673ffffffffffffffffffffffffffffffffffffffff16815260200190815260200160002060006101000a81548160ff0219169083151502179055508173ffffffffffffffffffffffffffffffffffffffff16610d57611555565b73ffffffffffffffffffffffffffffffffffffffff167f17307eab39ab6107e8899845ad3d59bd9653f200f220920489ca2b5937696c3183604051610d9c9190612e9d565b60405180910390a35050565b610db9610db3611555565b83611616565b610df8576040517f08c379a0000000000000000000000000000000000000000000000000000000008152600401610def906130da565b60405180910390fd5b610e0484848484611a34565b50505050565b6060610e14612654565b60006040518060a0016040528060628152602001613cec60629139828280610e3b9061341c565b935060408110610e4e57610e4d613552565b5b6020020181905250604051806080016040528060478152602001613d8e60479139828280610e7b9061341c565b935060408110610e8e57610e8d613552565b5b60200201819052506040518060800160405280604e8152602001613c6e604e9139828280610ebb9061341c565b935060408110610ece57610ecd613552565b5b6020020181905250604051806060016040528060308152602001613cbc60309139828280610efb9061341c565b935060408110610f0e57610f0d613552565b5b6020020181905250604051806060016040528060268152602001613c4860269139828280610f3b9061341c565b935060408110610f4e57610f4d613552565b5b60200201819052506040518060400160405280600b81526020017f4c6f636174696f6e583a09000000000000000000000000000000000000000000815250828280610f989061341c565b935060408110610fab57610faa613552565b5b60200201819052506110076103e9610ff8866040518060400160405280600681526020017f582d415849530000000000000000000000000000000000000000000000000000815250611a90565b6110029190613465565b611acc565b8282806110139061341c565b93506040811061102657611025613552565b5b60200201819052506040518060600160405280602d8152602001613c1b602d91398282806110539061341c565b93506040811061106657611065613552565b5b60200201819052506040518060400160405280600b81526020017f4c6f636174696f6e593a090000000000000000000000000000000000000000008152508282806110b09061341c565b9350604081106110c3576110c2613552565b5b602002018190525061111f6103e9611110866040518060400160405280600681526020017f592d415849530000000000000000000000000000000000000000000000000000815250611a90565b61111a9190613465565b611acc565b82828061112b9061341c565b93506040811061113e5761113d613552565b5b60200201819052506040518060400160405280600d81526020017f3c2f746578743e3c2f7376673e000000000000000000000000000000000000008152508282806111889061341c565b93506040811061119b5761119a613552565b5b6020020181905250600060405180602001604052806000815250905060005b8281101561120e57818482604081106111d6576111d5613552565b5b60200201516040516020016111ec929190612dab565b6040516020818303038152906040529150806112079061341c565b90506111ba565b50600061124b61121d87611acc565b61122684611c2d565b604051602001611237929190612dcf565b604051602081830303815290604052611c2d565b90508060405160200161125e9190612e14565b604051602081830303815290604052915081945050505050919050565b6000600560008473ffffffffffffffffffffffffffffffffffffffff1673ffffffffffffffffffffffffffffffffffffffff16815260200190815260200160002060008373ffffffffffffffffffffffffffffffffffffffff1673ffffffffffffffffffffffffffffffffffffffff16815260200190815260200160002060009054906101000a900460ff16905092915050565b611317611555565b73ffffffffffffffffffffffffffffffffffffffff16611335610b6b565b73ffffffffffffffffffffffffffffffffffffffff161461138b576040517f08c379a00000000000000000000000000000000000000000000000000000000081526004016113829061305a565b60405180910390fd5b600073ffffffffffffffffffffffffffffffffffffffff168173ffffffffffffffffffffffffffffffffffffffff1614156113fb576040517f08c379a00000000000000000000000000000000000000000000000000000000081526004016113f290612f1a565b60405180910390fd5b61140481611950565b50565b60007f80ac58cd000000000000000000000000000000000000000000000000000000007bffffffffffffffffffffffffffffffffffffffffffffffffffffffff1916827bffffffffffffffffffffffffffffffffffffffffffffffffffffffff191614806114d257507f5b5e139f000000000000000000000000000000000000000000000000000000007bffffffffffffffffffffffffffffffffffffffffffffffffffffffff1916827bffffffffffffffffffffffffffffffffffffffffffffffffffffffff1916145b806114e257506114e182611dc5565b5b9050919050565b60008073ffffffffffffffffffffffffffffffffffffffff166002600084815260200190815260200160002060009054906101000a900473ffffffffffffffffffffffffffffffffffffffff1673ffffffffffffffffffffffffffffffffffffffff1614159050919050565b600033905090565b816004600083815260200190815260200160002060006101000a81548173ffffffffffffffffffffffffffffffffffffffff021916908373ffffffffffffffffffffffffffffffffffffffff160217905550808273ffffffffffffffffffffffffffffffffffffffff166115d083610843565b73ffffffffffffffffffffffffffffffffffffffff167f8c5be1e5ebec7d5bd14f71427d1e84f3dd0314c0f7b2291e5b200ac8c7c3b92560405160405180910390a45050565b6000611621826114e9565b611660576040517f08c379a000000000000000000000000000000000000000000000000000000000815260040161165790612f9a565b60405180910390fd5b600061166b83610843565b90508073ffffffffffffffffffffffffffffffffffffffff168473ffffffffffffffffffffffffffffffffffffffff1614806116da57508373ffffffffffffffffffffffffffffffffffffffff166116c284610503565b73ffffffffffffffffffffffffffffffffffffffff16145b806116eb57506116ea818561127b565b5b91505092915050565b8273ffffffffffffffffffffffffffffffffffffffff1661171482610843565b73ffffffffffffffffffffffffffffffffffffffff161461176a576040517f08c379a00000000000000000000000000000000000000000000000000000000081526004016117619061309a565b60405180910390fd5b600073ffffffffffffffffffffffffffffffffffffffff168273ffffffffffffffffffffffffffffffffffffffff1614156117da576040517f08c379a00000000000000000000000000000000000000000000000000000000081526004016117d190612f5a565b60405180910390fd5b6117e5838383611e2f565b6117f060008261155d565b6001600360008573ffffffffffffffffffffffffffffffffffffffff1673ffffffffffffffffffffffffffffffffffffffff168152602001908152602001600020600082825461184091906132cf565b925050819055506001600360008473ffffffffffffffffffffffffffffffffffffffff1673ffffffffffffffffffffffffffffffffffffffff168152602001908152602001600020600082825461189791906131ee565b92505081905550816002600083815260200190815260200160002060006101000a81548173ffffffffffffffffffffffffffffffffffffffff021916908373ffffffffffffffffffffffffffffffffffffffff160217905550808273ffffffffffffffffffffffffffffffffffffffff168473ffffffffffffffffffffffffffffffffffffffff167fddf252ad1be2c89b69c2b068fc378daa952ba7f163c4a11628f55a4df523b3ef60405160405180910390a4505050565b6000600b60009054906101000a900473ffffffffffffffffffffffffffffffffffffffff16905081600b60006101000a81548173ffffffffffffffffffffffffffffffffffffffff021916908373ffffffffffffffffffffffffffffffffffffffff1602179055508173ffffffffffffffffffffffffffffffffffffffff168173ffffffffffffffffffffffffffffffffffffffff167f8be0079c531659141344cd1fd0a4f28419497f9722a3daafe3b4186f6b6457e060405160405180910390a35050565b611a30828260405180602001604052806000815250611f43565b5050565b611a3f8484846116f4565b611a4b84848484611f9e565b611a8a576040517f08c379a0000000000000000000000000000000000000000000000000000000008152600401611a8190612efa565b60405180910390fd5b50505050565b6000611ac482611a9f85611acc565b604051602001611ab0929190612dab565b604051602081830303815290604052612135565b905092915050565b60606000821415611b14576040518060400160405280600181526020017f30000000000000000000000000000000000000000000000000000000000000008152509050611c28565b600082905060005b60008214611b46578080611b2f9061341c565b915050600a82611b3f9190613244565b9150611b1c565b60008167ffffffffffffffff811115611b6257611b61613581565b5b6040519080825280601f01601f191660200182016040528015611b945781602001600182028036833780820191505090505b5090505b60008514611c2157600182611bad91906132cf565b9150600a85611bbc9190613465565b6030611bc891906131ee565b60f81b818381518110611bde57611bdd613552565b5b60200101907effffffffffffffffffffffffffffffffffffffffffffffffffffffffffffff1916908160001a905350600a85611c1a9190613244565b9450611b98565b8093505050505b919050565b60606000825190506000811415611c565760405180602001604052806000815250915050611dc0565b60006003600283611c6791906131ee565b611c719190613244565b6004611c7d9190613275565b90506000602082611c8e91906131ee565b67ffffffffffffffff811115611ca757611ca6613581565b5b6040519080825280601f01601f191660200182016040528015611cd95781602001600182028036833780820191505090505b5090506000604051806060016040528060408152602001613d4e604091399050600181016020830160005b86811015611d7d5760038101905062ffffff818a015116603f8160121c168401518060081b905060ff603f83600c1c1686015116810190508060081b905060ff603f8360061c1686015116810190508060081b905060ff603f831686015116810190508060e01b90508084526004840193505050611d04565b506003860660018114611d975760028114611da757611db2565b613d3d60f01b6002830352611db2565b603d60f81b60018303525b508484525050819450505050505b919050565b60007f01ffc9a7000000000000000000000000000000000000000000000000000000007bffffffffffffffffffffffffffffffffffffffffffffffffffffffff1916827bffffffffffffffffffffffffffffffffffffffffffffffffffffffff1916149050919050565b611e3a838383612168565b600073ffffffffffffffffffffffffffffffffffffffff168373ffffffffffffffffffffffffffffffffffffffff161415611e7d57611e788161216d565b611ebc565b8173ffffffffffffffffffffffffffffffffffffffff168373ffffffffffffffffffffffffffffffffffffffff1614611ebb57611eba83826121b6565b5b5b600073ffffffffffffffffffffffffffffffffffffffff168273ffffffffffffffffffffffffffffffffffffffff161415611eff57611efa81612323565b611f3e565b8273ffffffffffffffffffffffffffffffffffffffff168273ffffffffffffffffffffffffffffffffffffffff1614611f3d57611f3c82826123f4565b5b5b505050565b611f4d8383612473565b611f5a6000848484611f9e565b611f99576040517f08c379a0000000000000000000000000000000000000000000000000000000008152600401611f9090612efa565b60405180910390fd5b505050565b6000611fbf8473ffffffffffffffffffffffffffffffffffffffff16612641565b15612128578373ffffffffffffffffffffffffffffffffffffffff1663150b7a02611fe8611555565b8786866040518563ffffffff1660e01b815260040161200a9493929190612e51565b602060405180830381600087803b15801561202457600080fd5b505af192505050801561205557506040513d601f19601f820116820180604052508101906120529190612945565b60015b6120d8573d8060008114612085576040519150601f19603f3d011682016040523d82523d6000602084013e61208a565b606091505b506000815114156120d0576040517f08c379a00000000000000000000000000000000000000000000000000000000081526004016120c790612efa565b60405180910390fd5b805181602001fd5b63150b7a0260e01b7bffffffffffffffffffffffffffffffffffffffffffffffffffffffff1916817bffffffffffffffffffffffffffffffffffffffffffffffffffffffff19161491505061212d565b600190505b949350505050565b6000816040516020016121489190612d94565b6040516020818303038152906040528051906020012060001c9050919050565b505050565b6008805490506009600083815260200190815260200160002081905550600881908060018154018082558091505060019003906000526020600020016000909190919091505550565b600060016121c3846108f5565b6121cd91906132cf565b90506000600760008481526020019081526020016000205490508181146122b2576000600660008673ffffffffffffffffffffffffffffffffffffffff1673ffffffffffffffffffffffffffffffffffffffff168152602001908152602001600020600084815260200190815260200160002054905080600660008773ffffffffffffffffffffffffffffffffffffffff1673ffffffffffffffffffffffffffffffffffffffff168152602001908152602001600020600084815260200190815260200160002081905550816007600083815260200190815260200160002081905550505b6007600084815260200190815260200160002060009055600660008573ffffffffffffffffffffffffffffffffffffffff1673ffffffffffffffffffffffffffffffffffffffff16815260200190815260200160002060008381526020019081526020016000206000905550505050565b6000600160088054905061233791906132cf565b905060006009600084815260200190815260200160002054905060006008838154811061236757612366613552565b5b90600052602060002001549050806008838154811061238957612388613552565b5b9060005260206000200181905550816009600083815260200190815260200160002081905550600960008581526020019081526020016000206000905560088054806123d8576123d7613523565b5b6001900381819060005260206000200160009055905550505050565b60006123ff836108f5565b905081600660008573ffffffffffffffffffffffffffffffffffffffff1673ffffffffffffffffffffffffffffffffffffffff168152602001908152602001600020600083815260200190815260200160002081905550806007600084815260200190815260200160002081905550505050565b600073ffffffffffffffffffffffffffffffffffffffff168273ffffffffffffffffffffffffffffffffffffffff1614156124e3576040517f08c379a00000000000000000000000000000000000000000000000000000000081526004016124da9061301a565b60405180910390fd5b6124ec816114e9565b1561252c576040517f08c379a000000000000000000000000000000000000000000000000000000000815260040161252390612f3a565b60405180910390fd5b61253860008383611e2f565b6001600360008473ffffffffffffffffffffffffffffffffffffffff1673ffffffffffffffffffffffffffffffffffffffff168152602001908152602001600020600082825461258891906131ee565b92505081905550816002600083815260200190815260200160002060006101000a81548173ffffffffffffffffffffffffffffffffffffffff021916908373ffffffffffffffffffffffffffffffffffffffff160217905550808273ffffffffffffffffffffffffffffffffffffffff16600073ffffffffffffffffffffffffffffffffffffffff167fddf252ad1be2c89b69c2b068fc378daa952ba7f163c4a11628f55a4df523b3ef60405160405180910390a45050565b600080823b905060008111915050919050565b6040518061080001604052806040905b60608152602001906001900390816126645790505090565b600061268f61268a8461317a565b613155565b9050828152602081018484840111156126ab576126aa6135b5565b5b6126b6848285613377565b509392505050565b6000813590506126cd81613bbe565b92915050565b6000813590506126e281613bd5565b92915050565b6000813590506126f781613bec565b92915050565b60008151905061270c81613bec565b92915050565b600082601f830112612727576127266135b0565b5b813561273784826020860161267c565b91505092915050565b60008135905061274f81613c03565b92915050565b60006020828403121561276b5761276a6135bf565b5b6000612779848285016126be565b91505092915050565b60008060408385031215612799576127986135bf565b5b60006127a7858286016126be565b92505060206127b8858286016126be565b9150509250929050565b6000806000606084860312156127db576127da6135bf565b5b60006127e9868287016126be565b93505060206127fa868287016126be565b925050604061280b86828701612740565b9150509250925092565b6000806000806080858703121561282f5761282e6135bf565b5b600061283d878288016126be565b945050602061284e878288016126be565b935050604061285f87828801612740565b925050606085013567ffffffffffffffff8111156128805761287f6135ba565b5b61288c87828801612712565b91505092959194509250565b600080604083850312156128af576128ae6135bf565b5b60006128bd858286016126be565b92505060206128ce858286016126d3565b9150509250929050565b600080604083850312156128ef576128ee6135bf565b5b60006128fd858286016126be565b925050602061290e85828601612740565b9150509250929050565b60006020828403121561292e5761292d6135bf565b5b600061293c848285016126e8565b91505092915050565b60006020828403121561295b5761295a6135bf565b5b6000612969848285016126fd565b91505092915050565b600060208284031215612988576129876135bf565b5b600061299684828501612740565b91505092915050565b6129a881613303565b82525050565b6129b781613315565b82525050565b60006129c8826131ab565b6129d281856131c1565b93506129e2818560208601613386565b6129eb816135c4565b840191505092915050565b6000612a01826131b6565b612a0b81856131d2565b9350612a1b818560208601613386565b612a24816135c4565b840191505092915050565b6000612a3a826131b6565b612a4481856131e3565b9350612a54818560208601613386565b80840191505092915050565b6000612a6d602b836131d2565b9150612a78826135d5565b604082019050919050565b6000612a906032836131d2565b9150612a9b82613624565b604082019050919050565b6000612ab36026836131d2565b9150612abe82613673565b604082019050919050565b6000612ad6601c836131d2565b9150612ae1826136c2565b602082019050919050565b6000612af96024836131d2565b9150612b04826136eb565b604082019050919050565b6000612b1c6019836131d2565b9150612b278261373a565b602082019050919050565b6000612b3f6059836131e3565b9150612b4a82613763565b605982019050919050565b6000612b62602c836131d2565b9150612b6d826137d8565b604082019050919050565b6000612b856010836131e3565b9150612b9082613827565b601082019050919050565b6000612ba86038836131d2565b9150612bb382613850565b604082019050919050565b6000612bcb602a836131d2565b9150612bd68261389f565b604082019050919050565b6000612bee6029836131d2565b9150612bf9826138ee565b604082019050919050565b6000612c116002836131e3565b9150612c1c8261393d565b600282019050919050565b6000612c346020836131d2565b9150612c3f82613966565b602082019050919050565b6000612c57602c836131d2565b9150612c628261398f565b604082019050919050565b6000612c7a6020836131d2565b9150612c85826139de565b602082019050919050565b6000612c9d6010836131d2565b9150612ca882613a07565b602082019050919050565b6000612cc06029836131d2565b9150612ccb82613a30565b604082019050919050565b6000612ce36021836131d2565b9150612cee82613a7f565b604082019050919050565b6000612d06601d836131e3565b9150612d1182613ace565b601d82019050919050565b6000612d296031836131d2565b9150612d3482613af7565b604082019050919050565b6000612d4c602c836131d2565b9150612d5782613b46565b604082019050919050565b6000612d6f601f836131d2565b9150612d7a82613b95565b602082019050919050565b612d8e8161336d565b82525050565b6000612da08284612a2f565b915081905092915050565b6000612db78285612a2f565b9150612dc38284612a2f565b91508190509392505050565b6000612dda82612b78565b9150612de68285612a2f565b9150612df182612b32565b9150612dfd8284612a2f565b9150612e0882612c04565b91508190509392505050565b6000612e1f82612cf9565b9150612e2b8284612a2f565b915081905092915050565b6000602082019050612e4b600083018461299f565b92915050565b6000608082019050612e66600083018761299f565b612e73602083018661299f565b612e806040830185612d85565b8181036060830152612e9281846129bd565b905095945050505050565b6000602082019050612eb260008301846129ae565b92915050565b60006020820190508181036000830152612ed281846129f6565b905092915050565b60006020820190508181036000830152612ef381612a60565b9050919050565b60006020820190508181036000830152612f1381612a83565b9050919050565b60006020820190508181036000830152612f3381612aa6565b9050919050565b60006020820190508181036000830152612f5381612ac9565b9050919050565b60006020820190508181036000830152612f7381612aec565b9050919050565b60006020820190508181036000830152612f9381612b0f565b9050919050565b60006020820190508181036000830152612fb381612b55565b9050919050565b60006020820190508181036000830152612fd381612b9b565b9050919050565b60006020820190508181036000830152612ff381612bbe565b9050919050565b6000602082019050818103600083015261301381612be1565b9050919050565b6000602082019050818103600083015261303381612c27565b9050919050565b6000602082019050818103600083015261305381612c4a565b9050919050565b6000602082019050818103600083015261307381612c6d565b9050919050565b6000602082019050818103600083015261309381612c90565b9050919050565b600060208201905081810360008301526130b381612cb3565b9050919050565b600060208201905081810360008301526130d381612cd6565b9050919050565b600060208201905081810360008301526130f381612d1c565b9050919050565b6000602082019050818103600083015261311381612d3f565b9050919050565b6000602082019050818103600083015261313381612d62565b9050919050565b600060208201905061314f6000830184612d85565b92915050565b600061315f613170565b905061316b82826133eb565b919050565b6000604051905090565b600067ffffffffffffffff82111561319557613194613581565b5b61319e826135c4565b9050602081019050919050565b600081519050919050565b600081519050919050565b600082825260208201905092915050565b600082825260208201905092915050565b600081905092915050565b60006131f98261336d565b91506132048361336d565b9250827fffffffffffffffffffffffffffffffffffffffffffffffffffffffffffffffff0382111561323957613238613496565b5b828201905092915050565b600061324f8261336d565b915061325a8361336d565b92508261326a576132696134c5565b5b828204905092915050565b60006132808261336d565b915061328b8361336d565b9250817fffffffffffffffffffffffffffffffffffffffffffffffffffffffffffffffff04831182151516156132c4576132c3613496565b5b828202905092915050565b60006132da8261336d565b91506132e58361336d565b9250828210156132f8576132f7613496565b5b828203905092915050565b600061330e8261334d565b9050919050565b60008115159050919050565b60007fffffffff0000000000000000000000000000000000000000000000000000000082169050919050565b600073ffffffffffffffffffffffffffffffffffffffff82169050919050565b6000819050919050565b82818337600083830152505050565b60005b838110156133a4578082015181840152602081019050613389565b838111156133b3576000848401525b50505050565b600060028204905060018216806133d157607f821691505b602082108114156133e5576133e46134f4565b5b50919050565b6133f4826135c4565b810181811067ffffffffffffffff8211171561341357613412613581565b5b80604052505050565b60006134278261336d565b91507fffffffffffffffffffffffffffffffffffffffffffffffffffffffffffffffff82141561345a57613459613496565b5b600182019050919050565b60006134708261336d565b915061347b8361336d565b92508261348b5761348a6134c5565b5b828206905092915050565b7f4e487b7100000000000000000000000000000000000000000000000000000000600052601160045260246000fd5b7f4e487b7100000000000000000000000000000000000000000000000000000000600052601260045260246000fd5b7f4e487b7100000000000000000000000000000000000000000000000000000000600052602260045260246000fd5b7f4e487b7100000000000000000000000000000000000000000000000000000000600052603160045260246000fd5b7f4e487b7100000000000000000000000000000000000000000000000000000000600052603260045260246000fd5b7f4e487b7100000000000000000000000000000000000000000000000000000000600052604160045260246000fd5b600080fd5b600080fd5b600080fd5b600080fd5b6000601f19601f8301169050919050565b7f455243373231456e756d657261626c653a206f776e657220696e646578206f7560008201527f74206f6620626f756e6473000000000000000000000000000000000000000000602082015250565b7f4552433732313a207472616e7366657220746f206e6f6e20455243373231526560008201527f63656976657220696d706c656d656e7465720000000000000000000000000000602082015250565b7f4f776e61626c653a206e6577206f776e657220697320746865207a65726f206160008201527f6464726573730000000000000000000000000000000000000000000000000000602082015250565b7f4552433732313a20746f6b656e20616c7265616479206d696e74656400000000600082015250565b7f4552433732313a207472616e7366657220746f20746865207a65726f2061646460008201527f7265737300000000000000000000000000000000000000000000000000000000602082015250565b7f4552433732313a20617070726f766520746f2063616c6c657200000000000000600082015250565b7f222c20226465736372697074696f6e223a2022447973746f706961206973206160008201527f2067616d65206f6620737572766976616c2e222c2022696d616765223a20226460208201527f6174613a696d6167652f7376672b786d6c3b6261736536342c00000000000000604082015250565b7f4552433732313a206f70657261746f7220717565727920666f72206e6f6e657860008201527f697374656e7420746f6b656e0000000000000000000000000000000000000000602082015250565b7f7b226e616d65223a20224c616e64202300000000000000000000000000000000600082015250565b7f4552433732313a20617070726f76652063616c6c6572206973206e6f74206f7760008201527f6e6572206e6f7220617070726f76656420666f7220616c6c0000000000000000602082015250565b7f4552433732313a2062616c616e636520717565727920666f7220746865207a6560008201527f726f206164647265737300000000000000000000000000000000000000000000602082015250565b7f4552433732313a206f776e657220717565727920666f72206e6f6e657869737460008201527f656e7420746f6b656e0000000000000000000000000000000000000000000000602082015250565b7f227d000000000000000000000000000000000000000000000000000000000000600082015250565b7f4552433732313a206d696e7420746f20746865207a65726f2061646472657373600082015250565b7f4552433732313a20617070726f76656420717565727920666f72206e6f6e657860008201527f697374656e7420746f6b656e0000000000000000000000000000000000000000602082015250565b7f4f776e61626c653a2063616c6c6572206973206e6f7420746865206f776e6572600082015250565b7f546f6b656e20494420696e76616c696400000000000000000000000000000000600082015250565b7f4552433732313a207472616e73666572206f6620746f6b656e2074686174206960008201527f73206e6f74206f776e0000000000000000000000000000000000000000000000602082015250565b7f4552433732313a20617070726f76616c20746f2063757272656e74206f776e6560008201527f7200000000000000000000000000000000000000000000000000000000000000602082015250565b7f646174613a6170706c69636174696f6e2f6a736f6e3b6261736536342c000000600082015250565b7f4552433732313a207472616e736665722063616c6c6572206973206e6f74206f60008201527f776e6572206e6f7220617070726f766564000000000000000000000000000000602082015250565b7f455243373231456e756d657261626c653a20676c6f62616c20696e646578206f60008201527f7574206f6620626f756e64730000000000000000000000000000000000000000602082015250565b7f5265656e7472616e637947756172643a207265656e7472616e742063616c6c00600082015250565b613bc781613303565b8114613bd257600080fd5b50565b613bde81613315565b8114613be957600080fd5b50565b613bf581613321565b8114613c0057600080fd5b50565b613c0c8161336d565b8114613c1757600080fd5b5056fe3c2f746578743e3c7465787420783d2231302220793d2236302220636c6173733d22626173655768697465223e3c7465787420783d2231302220793d2234302220636c6173733d22626173655768697465223e2e62617365477265656e207b2066696c6c3a20737072696e67677265656e3b20666f6e742d66616d696c793a2073657269663b20666f6e742d73697a653a20313670783b207d3c2f7374796c653e3c726563742077696474683d223130302522206865696768743d2231303025222066696c6c3d22626c61636b22202f3e3c73766720786d6c6e733d22687474703a2f2f7777772e77332e6f72672f323030302f73766722207072657365727665417370656374526174696f3d22784d696e594d696e206d656574222076696577426f783d223020302033353020333530223e4142434445464748494a4b4c4d4e4f505152535455565758595a6162636465666768696a6b6c6d6e6f707172737475767778797a303132333435363738392b2f3c7374796c653e2e626173655768697465207b2066696c6c3a2077686974653b20666f6e742d66616d696c793a2073657269663b20666f6e742d73697a653a20313670783b207da26469706673582212209e58841f37e3f30b303e44d10cd7cb9cf46358254ec77bcfa3ce1500d5d8ef1d64736f6c63430008070033",
  "immutableReferences": {},
  "source": "// SPDX-License-Identifier: MIT\n\npragma solidity ^0.8.0;\n\nimport \"./FullERC721.sol\";\n\ncontract DystopiaLand21 is ERC721Enumerable, ReentrancyGuard, Ownable {\n\n    constructor() ERC721(\"DystopiaLand\", \"DYSTOPIALAND\") Ownable() {\n\t}\n\n    function random(string memory input) internal pure returns (uint256) {\n        return uint256(keccak256(abi.encodePacked(input)));\n    }\n\n    function pluck(uint256 tokenId, string memory keyPrefix) internal pure returns (uint256) {\n        return random(string(abi.encodePacked(keyPrefix, Strings.toString(tokenId))));\n    }\n\n    function tokenURI(uint256 tokenId) override public pure returns (string memory) {\n\n        string[64] memory parts;\n\t\tuint256 counter = 0;\n        parts[counter++] = '<svg xmlns=\"http://www.w3.org/2000/svg\" preserveAspectRatio=\"xMinYMin meet\" viewBox=\"0 0 350 350\">';\n\t\tparts[counter++] = '<style>.baseWhite { fill: white; font-family: serif; font-size: 16px; }';\n\t\tparts[counter++] = '.baseGreen { fill: springgreen; font-family: serif; font-size: 16px; }</style>';\n\t\tparts[counter++] = '<rect width=\"100%\" height=\"100%\" fill=\"black\" />';\n        parts[counter++] = '<text x=\"10\" y=\"40\" class=\"baseWhite\">';\n        parts[counter++] = \"LocationX:\\t\";\n        parts[counter++] = Strings.toString(pluck(tokenId, \"X-AXIS\") % 1001);\n        parts[counter++] = '</text><text x=\"10\" y=\"60\" class=\"baseWhite\">';\n        parts[counter++] = \"LocationY:\\t\";\n        parts[counter++] = Strings.toString(pluck(tokenId, \"Y-AXIS\") % 1001);\n        parts[counter++] = '</text></svg>';\n\n        string memory output = \"\";\n\t\tfor(uint256 i = 0; i < counter; ++i)\n\t\t{\n\t\t\toutput = string(abi.encodePacked(output, parts[i]));\n\t\t}\n\n        string memory json = Base64.encode(bytes(string(abi.encodePacked('{\"name\": \"Land #', Strings.toString(tokenId), '\", \"description\": \"Dystopia is a game of survival.\", \"image\": \"data:image/svg+xml;base64,', Base64.encode(bytes(output)), '\"}'))));\n        output = string(abi.encodePacked('data:application/json;base64,', json));\n\n        return output;\n    }\n\n    function mintLand(uint256 tokenId) public nonReentrant onlyOwner {\n        require(tokenId > 0 && tokenId < 1001, \"Token ID invalid\");\n        _safeMint(owner(), tokenId);\n    }\n}\n",
  "sourcePath": "/home/ec2-user/github/nftlaunchpad-dapp/src/contracts/DystopiaLand21.sol",
  "compiler": {
    "name": "solc",
    "version": "0.8.7+commit.e28d00a7.Emscripten.clang"
  },
  "schemaVersion": "3.4.3",
  "updatedAt": "2022-01-21T01:17:22.441Z",
  "devdoc": {
    "kind": "dev",
    "methods": {
      "approve(address,uint256)": {
        "details": "See {IERC721-approve}."
      },
      "balanceOf(address)": {
        "details": "See {IERC721-balanceOf}."
      },
      "getApproved(uint256)": {
        "details": "See {IERC721-getApproved}."
      },
      "isApprovedForAll(address,address)": {
        "details": "See {IERC721-isApprovedForAll}."
      },
      "name()": {
        "details": "See {IERC721Metadata-name}."
      },
      "owner()": {
        "details": "Returns the address of the current owner."
      },
      "ownerOf(uint256)": {
        "details": "See {IERC721-ownerOf}."
      },
      "renounceOwnership()": {
        "details": "Leaves the contract without owner. It will not be possible to call `onlyOwner` functions anymore. Can only be called by the current owner. NOTE: Renouncing ownership will leave the contract without an owner, thereby removing any functionality that is only available to the owner."
      },
      "safeTransferFrom(address,address,uint256)": {
        "details": "See {IERC721-safeTransferFrom}."
      },
      "safeTransferFrom(address,address,uint256,bytes)": {
        "details": "See {IERC721-safeTransferFrom}."
      },
      "setApprovalForAll(address,bool)": {
        "details": "See {IERC721-setApprovalForAll}."
      },
      "supportsInterface(bytes4)": {
        "details": "See {IERC165-supportsInterface}."
      },
      "symbol()": {
        "details": "See {IERC721Metadata-symbol}."
      },
      "tokenByIndex(uint256)": {
        "details": "See {IERC721Enumerable-tokenByIndex}."
      },
      "tokenOfOwnerByIndex(address,uint256)": {
        "details": "See {IERC721Enumerable-tokenOfOwnerByIndex}."
      },
      "tokenURI(uint256)": {
        "details": "See {IERC721Metadata-tokenURI}."
      },
      "totalSupply()": {
        "details": "See {IERC721Enumerable-totalSupply}."
      },
      "transferFrom(address,address,uint256)": {
        "details": "See {IERC721-transferFrom}."
      },
      "transferOwnership(address)": {
        "details": "Transfers ownership of the contract to a new account (`newOwner`). Can only be called by the current owner."
      }
    },
    "version": 1
  },
  "userdoc": {
    "kind": "user",
    "methods": {},
    "version": 1
  }
}