{
  "contractName": "Dystopia21",
  "abi": [
    {
      "inputs": [],
      "stateMutability": "nonpayable",
      "type": "constructor"
    },
    {
      "anonymous": false,
      "inputs": [
        {
          "indexed": true,
          "internalType": "address",
          "name": "owner",
          "type": "address"
        },
        {
          "indexed": true,
          "internalType": "address",
          "name": "approved",
          "type": "address"
        },
        {
          "indexed": true,
          "internalType": "uint256",
          "name": "tokenId",
          "type": "uint256"
        }
      ],
      "name": "Approval",
      "type": "event"
    },
    {
      "anonymous": false,
      "inputs": [
        {
          "indexed": true,
          "internalType": "address",
          "name": "owner",
          "type": "address"
        },
        {
          "indexed": true,
          "internalType": "address",
          "name": "operator",
          "type": "address"
        },
        {
          "indexed": false,
          "internalType": "bool",
          "name": "approved",
          "type": "bool"
        }
      ],
      "name": "ApprovalForAll",
      "type": "event"
    },
    {
      "anonymous": false,
      "inputs": [
        {
          "indexed": true,
          "internalType": "address",
          "name": "previousOwner",
          "type": "address"
        },
        {
          "indexed": true,
          "internalType": "address",
          "name": "newOwner",
          "type": "address"
        }
      ],
      "name": "OwnershipTransferred",
      "type": "event"
    },
    {
      "anonymous": false,
      "inputs": [
        {
          "indexed": true,
          "internalType": "address",
          "name": "from",
          "type": "address"
        },
        {
          "indexed": true,
          "internalType": "address",
          "name": "to",
          "type": "address"
        },
        {
          "indexed": true,
          "internalType": "uint256",
          "name": "tokenId",
          "type": "uint256"
        }
      ],
      "name": "Transfer",
      "type": "event"
    },
    {
      "inputs": [
        {
          "internalType": "address",
          "name": "to",
          "type": "address"
        },
        {
          "internalType": "uint256",
          "name": "tokenId",
          "type": "uint256"
        }
      ],
      "name": "approve",
      "outputs": [],
      "stateMutability": "nonpayable",
      "type": "function"
    },
    {
      "inputs": [
        {
          "internalType": "address",
          "name": "owner",
          "type": "address"
        }
      ],
      "name": "balanceOf",
      "outputs": [
        {
          "internalType": "uint256",
          "name": "",
          "type": "uint256"
        }
      ],
      "stateMutability": "view",
      "type": "function"
    },
    {
      "inputs": [
        {
          "internalType": "uint256",
          "name": "tokenId",
          "type": "uint256"
        }
      ],
      "name": "getApproved",
      "outputs": [
        {
          "internalType": "address",
          "name": "",
          "type": "address"
        }
      ],
      "stateMutability": "view",
      "type": "function"
    },
    {
      "inputs": [
        {
          "internalType": "address",
          "name": "owner",
          "type": "address"
        },
        {
          "internalType": "address",
          "name": "operator",
          "type": "address"
        }
      ],
      "name": "isApprovedForAll",
      "outputs": [
        {
          "internalType": "bool",
          "name": "",
          "type": "bool"
        }
      ],
      "stateMutability": "view",
      "type": "function"
    },
    {
      "inputs": [],
      "name": "name",
      "outputs": [
        {
          "internalType": "string",
          "name": "",
          "type": "string"
        }
      ],
      "stateMutability": "view",
      "type": "function"
    },
    {
      "inputs": [],
      "name": "owner",
      "outputs": [
        {
          "internalType": "address",
          "name": "",
          "type": "address"
        }
      ],
      "stateMutability": "view",
      "type": "function"
    },
    {
      "inputs": [
        {
          "internalType": "uint256",
          "name": "tokenId",
          "type": "uint256"
        }
      ],
      "name": "ownerOf",
      "outputs": [
        {
          "internalType": "address",
          "name": "",
          "type": "address"
        }
      ],
      "stateMutability": "view",
      "type": "function"
    },
    {
      "inputs": [],
      "name": "renounceOwnership",
      "outputs": [],
      "stateMutability": "nonpayable",
      "type": "function"
    },
    {
      "inputs": [
        {
          "internalType": "address",
          "name": "from",
          "type": "address"
        },
        {
          "internalType": "address",
          "name": "to",
          "type": "address"
        },
        {
          "internalType": "uint256",
          "name": "tokenId",
          "type": "uint256"
        }
      ],
      "name": "safeTransferFrom",
      "outputs": [],
      "stateMutability": "nonpayable",
      "type": "function"
    },
    {
      "inputs": [
        {
          "internalType": "address",
          "name": "from",
          "type": "address"
        },
        {
          "internalType": "address",
          "name": "to",
          "type": "address"
        },
        {
          "internalType": "uint256",
          "name": "tokenId",
          "type": "uint256"
        },
        {
          "internalType": "bytes",
          "name": "_data",
          "type": "bytes"
        }
      ],
      "name": "safeTransferFrom",
      "outputs": [],
      "stateMutability": "nonpayable",
      "type": "function"
    },
    {
      "inputs": [
        {
          "internalType": "address",
          "name": "operator",
          "type": "address"
        },
        {
          "internalType": "bool",
          "name": "approved",
          "type": "bool"
        }
      ],
      "name": "setApprovalForAll",
      "outputs": [],
      "stateMutability": "nonpayable",
      "type": "function"
    },
    {
      "inputs": [
        {
          "internalType": "bytes4",
          "name": "interfaceId",
          "type": "bytes4"
        }
      ],
      "name": "supportsInterface",
      "outputs": [
        {
          "internalType": "bool",
          "name": "",
          "type": "bool"
        }
      ],
      "stateMutability": "view",
      "type": "function"
    },
    {
      "inputs": [],
      "name": "symbol",
      "outputs": [
        {
          "internalType": "string",
          "name": "",
          "type": "string"
        }
      ],
      "stateMutability": "view",
      "type": "function"
    },
    {
      "inputs": [
        {
          "internalType": "uint256",
          "name": "index",
          "type": "uint256"
        }
      ],
      "name": "tokenByIndex",
      "outputs": [
        {
          "internalType": "uint256",
          "name": "",
          "type": "uint256"
        }
      ],
      "stateMutability": "view",
      "type": "function"
    },
    {
      "inputs": [
        {
          "internalType": "address",
          "name": "owner",
          "type": "address"
        },
        {
          "internalType": "uint256",
          "name": "index",
          "type": "uint256"
        }
      ],
      "name": "tokenOfOwnerByIndex",
      "outputs": [
        {
          "internalType": "uint256",
          "name": "",
          "type": "uint256"
        }
      ],
      "stateMutability": "view",
      "type": "function"
    },
    {
      "inputs": [],
      "name": "totalSupply",
      "outputs": [
        {
          "internalType": "uint256",
          "name": "",
          "type": "uint256"
        }
      ],
      "stateMutability": "view",
      "type": "function"
    },
    {
      "inputs": [
        {
          "internalType": "address",
          "name": "from",
          "type": "address"
        },
        {
          "internalType": "address",
          "name": "to",
          "type": "address"
        },
        {
          "internalType": "uint256",
          "name": "tokenId",
          "type": "uint256"
        }
      ],
      "name": "transferFrom",
      "outputs": [],
      "stateMutability": "nonpayable",
      "type": "function"
    },
    {
      "inputs": [
        {
          "internalType": "address",
          "name": "newOwner",
          "type": "address"
        }
      ],
      "name": "transferOwnership",
      "outputs": [],
      "stateMutability": "nonpayable",
      "type": "function"
    },
    {
      "inputs": [
        {
          "internalType": "string",
          "name": "newWeapon",
          "type": "string"
        }
      ],
      "name": "addWeapon",
      "outputs": [],
      "stateMutability": "nonpayable",
      "type": "function"
    },
    {
      "inputs": [
        {
          "internalType": "uint256",
          "name": "tokenId",
          "type": "uint256"
        }
      ],
      "name": "tokenURI",
      "outputs": [
        {
          "internalType": "string",
          "name": "",
          "type": "string"
        }
      ],
      "stateMutability": "view",
      "type": "function"
    },
    {
      "inputs": [
        {
          "internalType": "uint256",
          "name": "tokenId",
          "type": "uint256"
        }
      ],
      "name": "mintPlayer",
      "outputs": [],
      "stateMutability": "nonpayable",
      "type": "function"
    }
  ],
  "bytecode": "0x608060405260405180604001604052806040518060400160405280600481526020017f6d616c650000000000000000000000000000000000000000000000000000000081525081526020016040518060400160405280600681526020017f66656d616c650000000000000000000000000000000000000000000000000000815250815250600c90600262000095929190620005a6565b5060405180604001604052806040518060400160405280600581526020017f68756d616e00000000000000000000000000000000000000000000000000000081525081526020016040518060400160405280600781526020017f6d6f6e7374657200000000000000000000000000000000000000000000000000815250815250600d90600262000127929190620005a6565b50604051806040016040528061040061ffff16815260200161010061ffff16815250600e9060026200015b9291906200060d565b503480156200016957600080fd5b506040518060400160405280600881526020017f447973746f7069610000000000000000000000000000000000000000000000008152506040518060400160405280600881526020017f445953544f5049410000000000000000000000000000000000000000000000008152508160009080519060200190620001ee92919062000665565b5080600190805190602001906200020792919062000665565b5050506001600a819055506200023262000226620004d860201b60201c565b620004e060201b60201c565b600f80600181540180825580915050600190039060005260206000200160006040518060400160405280600781526020017f68616e6467756e0000000000000000000000000000000000000000000000000081525090919091509080519060200190620002a192919062000665565b50600f80600181540180825580915050600190039060005260206000200160006040518060400160405280600781526020017f73686f7467756e00000000000000000000000000000000000000000000000000815250909190915090805190602001906200031192919062000665565b50600f80600181540180825580915050600190039060005260206000200160006040518060400160405280600a81526020017f6d616368696e6567756e00000000000000000000000000000000000000000000815250909190915090805190602001906200038192919062000665565b50600f80600181540180825580915050600190039060005260206000200160006040518060400160405280600581526020017f7269666c6500000000000000000000000000000000000000000000000000000081525090919091509080519060200190620003f192919062000665565b50600f80600181540180825580915050600190039060005260206000200160006040518060400160405280600581526020017f73776f7264000000000000000000000000000000000000000000000000000000815250909190915090805190602001906200046192919062000665565b50600f80600181540180825580915050600190039060005260206000200160006040518060400160405280600c81526020017f656e657267792d73776f7264000000000000000000000000000000000000000081525090919091509080519060200190620004d192919062000665565b50620007e8565b600033905090565b6000600b60009054906101000a900473ffffffffffffffffffffffffffffffffffffffff16905081600b60006101000a81548173ffffffffffffffffffffffffffffffffffffffff021916908373ffffffffffffffffffffffffffffffffffffffff1602179055508173ffffffffffffffffffffffffffffffffffffffff168173ffffffffffffffffffffffffffffffffffffffff167f8be0079c531659141344cd1fd0a4f28419497f9722a3daafe3b4186f6b6457e060405160405180910390a35050565b828054828255906000526020600020908101928215620005fa579160200282015b82811115620005f9578251829080519060200190620005e892919062000665565b5091602001919060010190620005c7565b5b509050620006099190620006f6565b5090565b82805482825590600052602060002090810192821562000652579160200282015b8281111562000651578251829061ffff169055916020019190600101906200062e565b5b5090506200066191906200071e565b5090565b828054620006739062000783565b90600052602060002090601f016020900481019282620006975760008555620006e3565b82601f10620006b257805160ff1916838001178555620006e3565b82800160010185558215620006e3579182015b82811115620006e2578251825591602001919060010190620006c5565b5b509050620006f291906200071e565b5090565b5b808211156200071a57600081816200071091906200073d565b50600101620006f7565b5090565b5b80821115620007395760008160009055506001016200071f565b5090565b5080546200074b9062000783565b6000825580601f106200075f575062000780565b601f0160209004906000526020600020908101906200077f91906200071e565b5b50565b600060028204905060018216806200079c57607f821691505b60208210811415620007b357620007b2620007b9565b5b50919050565b7f4e487b7100000000000000000000000000000000000000000000000000000000600052602260045260246000fd5b615cf880620007f86000396000f3fe608060405234801561001057600080fd5b50600436106101375760003560e01c80636352211e116100b8578063a22cb4651161007c578063a22cb4651461034e578063a9d862201461036a578063b88d4fde14610386578063c87b56dd146103a2578063e985e9c5146103d2578063f2fde38b1461040257610137565b80636352211e146102a857806370a08231146102d8578063715018a6146103085780638da5cb5b1461031257806395d89b411461033057610137565b806323b872dd116100ff57806323b872dd146101f45780632f745c59146102105780633de7439f1461024057806342842e0e1461025c5780634f6ccce71461027857610137565b806301ffc9a71461013c57806306fdde031461016c578063081812fc1461018a578063095ea7b3146101ba57806318160ddd146101d6575b600080fd5b61015660048036038101906101519190614518565b61041e565b6040516101639190614b2c565b60405180910390f35b610174610498565b6040516101819190614b47565b60405180910390f35b6101a4600480360381019061019f91906145bb565b61052a565b6040516101b19190614ac5565b60405180910390f35b6101d460048036038101906101cf91906144d8565b6105af565b005b6101de6106c7565b6040516101eb9190614e09565b60405180910390f35b61020e600480360381019061020991906143c2565b6106d4565b005b61022a600480360381019061022591906144d8565b610734565b6040516102379190614e09565b60405180910390f35b61025a600480360381019061025591906145bb565b6107d9565b005b610276600480360381019061027191906143c2565b61090c565b005b610292600480360381019061028d91906145bb565b61092c565b60405161029f9190614e09565b60405180910390f35b6102c260048036038101906102bd91906145bb565b61099d565b6040516102cf9190614ac5565b60405180910390f35b6102f260048036038101906102ed9190614355565b610a4f565b6040516102ff9190614e09565b60405180910390f35b610310610b07565b005b61031a610b8f565b6040516103279190614ac5565b60405180910390f35b610338610bb9565b6040516103459190614b47565b60405180910390f35b61036860048036038101906103639190614498565b610c4b565b005b610384600480360381019061037f9190614572565b610dcc565b005b6103a0600480360381019061039b9190614415565b610fdf565b005b6103bc60048036038101906103b791906145bb565b611041565b6040516103c99190614b47565b60405180910390f35b6103ec60048036038101906103e79190614382565b612480565b6040516103f99190614b2c565b60405180910390f35b61041c60048036038101906104179190614355565b612514565b005b60007f780e9d63000000000000000000000000000000000000000000000000000000007bffffffffffffffffffffffffffffffffffffffffffffffffffffffff1916827bffffffffffffffffffffffffffffffffffffffffffffffffffffffff1916148061049157506104908261260c565b5b9050919050565b6060600080546104a7906150b9565b80601f01602080910402602001604051908101604052809291908181526020018280546104d3906150b9565b80156105205780601f106104f557610100808354040283529160200191610520565b820191906000526020600020905b81548152906001019060200180831161050357829003601f168201915b5050505050905090565b6000610535826126ee565b610574576040517f08c379a000000000000000000000000000000000000000000000000000000000815260040161056b90614cc9565b60405180910390fd5b6004600083815260200190815260200160002060009054906101000a900473ffffffffffffffffffffffffffffffffffffffff169050919050565b60006105ba8261099d565b90508073ffffffffffffffffffffffffffffffffffffffff168373ffffffffffffffffffffffffffffffffffffffff16141561062b576040517f08c379a000000000000000000000000000000000000000000000000000000000815260040161062290614d49565b60405180910390fd5b8073ffffffffffffffffffffffffffffffffffffffff1661064a61275a565b73ffffffffffffffffffffffffffffffffffffffff16148061067957506106788161067361275a565b612480565b5b6106b8576040517f08c379a00000000000000000000000000000000000000000000000000000000081526004016106af90614c49565b60405180910390fd5b6106c28383612762565b505050565b6000600880549050905090565b6106e56106df61275a565b8261281b565b610724576040517f08c379a000000000000000000000000000000000000000000000000000000000815260040161071b90614d89565b60405180910390fd5b61072f8383836128f9565b505050565b600061073f83610a4f565b8210610780576040517f08c379a000000000000000000000000000000000000000000000000000000000815260040161077790614b69565b60405180910390fd5b600660008473ffffffffffffffffffffffffffffffffffffffff1673ffffffffffffffffffffffffffffffffffffffff168152602001908152602001600020600083815260200190815260200160002054905092915050565b6002600a54141561081f576040517f08c379a000000000000000000000000000000000000000000000000000000000815260040161081690614dc9565b60405180910390fd5b6002600a8190555061082f61275a565b73ffffffffffffffffffffffffffffffffffffffff1661084d610b8f565b73ffffffffffffffffffffffffffffffffffffffff16146108a3576040517f08c379a000000000000000000000000000000000000000000000000000000000815260040161089a90614ce9565b60405180910390fd5b61271081106108e7576040517f08c379a00000000000000000000000000000000000000000000000000000000081526004016108de90614d09565b60405180910390fd5b6108f081612b55565b6109016108fb610b8f565b82613346565b6001600a8190555050565b61092783838360405180602001604052806000815250610fdf565b505050565b60006109366106c7565b8210610977576040517f08c379a000000000000000000000000000000000000000000000000000000000815260040161096e90614da9565b60405180910390fd5b6008828154811061098b5761098a615252565b5b90600052602060002001549050919050565b6000806002600084815260200190815260200160002060009054906101000a900473ffffffffffffffffffffffffffffffffffffffff169050600073ffffffffffffffffffffffffffffffffffffffff168173ffffffffffffffffffffffffffffffffffffffff161415610a46576040517f08c379a0000000000000000000000000000000000000000000000000000000008152600401610a3d90614c89565b60405180910390fd5b80915050919050565b60008073ffffffffffffffffffffffffffffffffffffffff168273ffffffffffffffffffffffffffffffffffffffff161415610ac0576040517f08c379a0000000000000000000000000000000000000000000000000000000008152600401610ab790614c69565b60405180910390fd5b600360008373ffffffffffffffffffffffffffffffffffffffff1673ffffffffffffffffffffffffffffffffffffffff168152602001908152602001600020549050919050565b610b0f61275a565b73ffffffffffffffffffffffffffffffffffffffff16610b2d610b8f565b73ffffffffffffffffffffffffffffffffffffffff1614610b83576040517f08c379a0000000000000000000000000000000000000000000000000000000008152600401610b7a90614ce9565b60405180910390fd5b610b8d6000613364565b565b6000600b60009054906101000a900473ffffffffffffffffffffffffffffffffffffffff16905090565b606060018054610bc8906150b9565b80601f0160208091040260200160405190810160405280929190818152602001828054610bf4906150b9565b8015610c415780601f10610c1657610100808354040283529160200191610c41565b820191906000526020600020905b815481529060010190602001808311610c2457829003601f168201915b5050505050905090565b610c5361275a565b73ffffffffffffffffffffffffffffffffffffffff168273ffffffffffffffffffffffffffffffffffffffff161415610cc1576040517f08c379a0000000000000000000000000000000000000000000000000000000008152600401610cb890614c09565b60405180910390fd5b8060056000610cce61275a565b73ffffffffffffffffffffffffffffffffffffffff1673ffffffffffffffffffffffffffffffffffffffff16815260200190815260200160002060008473ffffffffffffffffffffffffffffffffffffffff1673ffffffffffffffffffffffffffffffffffffffff16815260200190815260200160002060006101000a81548160ff0219169083151502179055508173ffffffffffffffffffffffffffffffffffffffff16610d7b61275a565b73ffffffffffffffffffffffffffffffffffffffff167f17307eab39ab6107e8899845ad3d59bd9653f200f220920489ca2b5937696c3183604051610dc09190614b2c565b60405180910390a35050565b610dd461275a565b73ffffffffffffffffffffffffffffffffffffffff16610df2610b8f565b73ffffffffffffffffffffffffffffffffffffffff1614610e48576040517f08c379a0000000000000000000000000000000000000000000000000000000008152600401610e3f90614ce9565b60405180910390fd5b6000815111610e8c576040517f08c379a0000000000000000000000000000000000000000000000000000000008152600401610e8390614de9565b60405180910390fd5b60005b600f80549050811015610f9f576000610f4e83600f8481548110610eb657610eb5615252565b5b906000526020600020018054610ecb906150b9565b80601f0160208091040260200160405190810160405280929190818152602001828054610ef7906150b9565b8015610f445780601f10610f1957610100808354040283529160200191610f44565b820191906000526020600020905b815481529060010190602001808311610f2757829003601f168201915b505050505061342a565b14610f8e576040517f08c379a0000000000000000000000000000000000000000000000000000000008152600401610f8590614d69565b60405180910390fd5b80610f989061511c565b9050610e8f565b50600f81908060018154018082558091505060019003906000526020600020016000909190919091509080519060200190610fdb9291906140b4565b5050565b610ff0610fea61275a565b8361281b565b61102f576040517f08c379a000000000000000000000000000000000000000000000000000000000815260040161102690614d89565b60405180910390fd5b61103b84848484613494565b50505050565b6060600060106000848152602001908152602001600020604051806101e00160405290816000820154815260200160018201805461107e906150b9565b80601f01602080910402602001604051908101604052809291908181526020018280546110aa906150b9565b80156110f75780601f106110cc576101008083540402835291602001916110f7565b820191906000526020600020905b8154815290600101906020018083116110da57829003601f168201915b50505050508152602001600282018054611110906150b9565b80601f016020809104026020016040519081016040528092919081815260200182805461113c906150b9565b80156111895780601f1061115e57610100808354040283529160200191611189565b820191906000526020600020905b81548152906001019060200180831161116c57829003601f168201915b5050505050815260200160038201548152602001600482015481526020016005820180546111b6906150b9565b80601f01602080910402602001604051908101604052809291908181526020018280546111e2906150b9565b801561122f5780601f106112045761010080835404028352916020019161122f565b820191906000526020600020905b81548152906001019060200180831161121257829003601f168201915b5050505050815260200160068201548152602001600782015481526020016008820154815260200160098201548152602001600a8201548152602001600b8201548152602001600c8201548152602001600d8201548152602001600e82015481525050905060006112d982604001516040518060400160405280600581526020017f68756d616e00000000000000000000000000000000000000000000000000000081525061342a565b9050600061132083602001516040518060400160405280600681526020017f66656d616c65000000000000000000000000000000000000000000000000000081525061342a565b905061132a61413a565b60006040518060a0016040528060628152602001615acf606291398282806113519061511c565b93506040811061136457611363615252565b5b6020020181905250604051806080016040528060478152602001615c28604791398282806113919061511c565b9350604081106113a4576113a3615252565b5b60200201819052506040518060800160405280604e815260200161599a604e91398282806113d19061511c565b9350604081106113e4576113e3615252565b5b6020020181905250604051806060016040528060308152602001615a71603091398282806114119061511c565b93506040811061142457611423615252565b5b6020020181905250604051806060016040528060268152602001615c9d602691398282806114519061511c565b93506040811061146457611463615252565b5b60200201819052506040518060400160405280600d81526020017f4372656174696f6e54696d653a000000000000000000000000000000000000008152508282806114ae9061511c565b9350604081106114c1576114c0615252565b5b60200201819052506114d685600001516134f0565b8282806114e29061511c565b9350604081106114f5576114f4615252565b5b60200201819052506040518060600160405280602d815260200161596d602d91398282806115229061511c565b93506040811061153557611534615252565b5b60200201819052506040518060400160405280600881526020017f537065636965733a00000000000000000000000000000000000000000000000081525082828061157f9061511c565b93506040811061159257611591615252565b5b602002018190525084604001518282806115ab9061511c565b9350604081106115be576115bd615252565b5b60200201819052506040518060600160405280602d8152602001615b8d602d91398282806115eb9061511c565b9350604081106115fe576115fd615252565b5b60200201819052506040518060400160405280600781526020017f47656e6465723a000000000000000000000000000000000000000000000000008152508282806116489061511c565b93506040811061165b5761165a615252565b5b602002018190525084602001518282806116749061511c565b93506040811061168757611686615252565b5b60200201819052506040518060600160405280602d81526020016159e8602d91398282806116b49061511c565b9350604081106116c7576116c6615252565b5b60200201819052506040518060400160405280600d81526020017f41676552656d61696e696e673a000000000000000000000000000000000000008152508282806117119061511c565b93506040811061172457611723615252565b5b602002018190525061173985606001516134f0565b8282806117459061511c565b93506040811061175857611757615252565b5b60200201819052506040518060600160405280602e8152602001615b5f602e91398282806117859061511c565b93506040811061179857611797615252565b5b6020020181905250600183141561183f576040518060400160405280600e81526020017f4d61784f6666737072696e67733a0000000000000000000000000000000000008152508282806117eb9061511c565b9350604081106117fe576117fd615252565b5b602002018190525061181385608001516134f0565b82828061181f9061511c565b93506040811061183257611831615252565b5b60200201819052506118c9565b6040518060400160405280600881526020017f576561706f6e733a0000000000000000000000000000000000000000000000008152508282806118819061511c565b93506040811061189457611893615252565b5b60200201819052508460a001518282806118ad9061511c565b9350604081106118c0576118bf615252565b5b60200201819052505b6001841415611fef576040518060600160405280602e8152602001615c6f602e91398282806118f79061511c565b93506040811061190a57611909615252565b5b60200201819052506040518060400160405280601081526020017f506f6c69746963616c536b696c6c733a000000000000000000000000000000008152508282806119549061511c565b93506040811061196757611966615252565b5b602002018190525061197c8560c001516134f0565b8282806119889061511c565b93506040811061199b5761199a615252565b5b60200201819052506040518060400160405280600381526020017f2f313000000000000000000000000000000000000000000000000000000000008152508282806119e59061511c565b9350604081106119f8576119f7615252565b5b60200201819052506040518060600160405280602e8152602001615a15602e9139828280611a259061511c565b935060408110611a3857611a37615252565b5b60200201819052506040518060400160405280600d81526020017f446f63746f72536b696c6c733a00000000000000000000000000000000000000815250828280611a829061511c565b935060408110611a9557611a94615252565b5b6020020181905250611aab8561010001516134f0565b828280611ab79061511c565b935060408110611aca57611ac9615252565b5b60200201819052506040518060400160405280600381526020017f2f31300000000000000000000000000000000000000000000000000000000000815250828280611b149061511c565b935060408110611b2757611b26615252565b5b60200201819052506040518060600160405280602e8152602001615a43602e9139828280611b549061511c565b935060408110611b6757611b66615252565b5b60200201819052506040518060400160405280600d81526020017f4c6177796572536b696c6c733a00000000000000000000000000000000000000815250828280611bb19061511c565b935060408110611bc457611bc3615252565b5b6020020181905250611bda8561012001516134f0565b828280611be69061511c565b935060408110611bf957611bf8615252565b5b60200201819052506040518060400160405280600381526020017f2f31300000000000000000000000000000000000000000000000000000000000815250828280611c439061511c565b935060408110611c5657611c55615252565b5b60200201819052506040518060600160405280602e8152602001615b31602e9139828280611c839061511c565b935060408110611c9657611c95615252565b5b60200201819052506040518060400160405280600c81526020017f506f6c6963536b696c6c733a0000000000000000000000000000000000000000815250828280611ce09061511c565b935060408110611cf357611cf2615252565b5b6020020181905250611d098561014001516134f0565b828280611d159061511c565b935060408110611d2857611d27615252565b5b60200201819052506040518060400160405280600381526020017f2f31300000000000000000000000000000000000000000000000000000000000815250828280611d729061511c565b935060408110611d8557611d84615252565b5b60200201819052506040518060600160405280602e8152602001615aa1602e9139828280611db29061511c565b935060408110611dc557611dc4615252565b5b60200201819052506040518060400160405280600c81526020017f53616c6573536b696c6c733a0000000000000000000000000000000000000000815250828280611e0f9061511c565b935060408110611e2257611e21615252565b5b6020020181905250611e388561016001516134f0565b828280611e449061511c565b935060408110611e5757611e56615252565b5b60200201819052506040518060400160405280600381526020017f2f31300000000000000000000000000000000000000000000000000000000000815250828280611ea19061511c565b935060408110611eb457611eb3615252565b5b60200201819052506040518060600160405280602e8152602001615bfa602e9139828280611ee19061511c565b935060408110611ef457611ef3615252565b5b60200201819052506040518060400160405280600f81526020017f5465616368696e67536b696c6c733a0000000000000000000000000000000000815250828280611f3e9061511c565b935060408110611f5157611f50615252565b5b6020020181905250611f668560e001516134f0565b828280611f729061511c565b935060408110611f8557611f84615252565b5b60200201819052506040518060400160405280600381526020017f2f31300000000000000000000000000000000000000000000000000000000000815250828280611fcf9061511c565b935060408110611fe257611fe1615252565b5b6020020181905250612348565b6040518060600160405280602e8152602001615c6f602e91398282806120149061511c565b93506040811061202757612026615252565b5b60200201819052506040518060400160405280600581526020017f4c6567733a0000000000000000000000000000000000000000000000000000008152508282806120719061511c565b93506040811061208457612083615252565b5b602002018190525061209a8561018001516134f0565b8282806120a69061511c565b9350604081106120b9576120b8615252565b5b60200201819052506040518060600160405280602e8152602001615a15602e91398282806120e69061511c565b9350604081106120f9576120f8615252565b5b60200201819052506040518060400160405280600681526020017f57696e67733a00000000000000000000000000000000000000000000000000008152508282806121439061511c565b93506040811061215657612155615252565b5b60200201819052506001856101a00151146121a6576040518060400160405280600281526020017f4e6f0000000000000000000000000000000000000000000000000000000000008152506121dd565b6040518060400160405280600381526020017f59657300000000000000000000000000000000000000000000000000000000008152505b8282806121e99061511c565b9350604081106121fc576121fb615252565b5b60200201819052506040518060600160405280602e8152602001615a43602e91398282806122299061511c565b93506040811061223c5761223b615252565b5b60200201819052506040518060400160405280600681526020017f436c6177733a00000000000000000000000000000000000000000000000000008152508282806122869061511c565b93506040811061229957612298615252565b5b60200201819052506001856101c00151146122e9576040518060400160405280600281526020017f4e6f000000000000000000000000000000000000000000000000000000000000815250612320565b6040518060400160405280600381526020017f59657300000000000000000000000000000000000000000000000000000000008152505b82828061232c9061511c565b93506040811061233f5761233e615252565b5b60200201819052505b6040518060400160405280600d81526020017f3c2f746578743e3c2f7376673e0000000000000000000000000000000000000081525082828061238a9061511c565b93506040811061239d5761239c615252565b5b6020020181905250600060405180602001604052806000815250905060005b8281101561241057818482604081106123d8576123d7615252565b5b60200201516040516020016123ee929190614a3a565b6040516020818303038152906040529150806124099061511c565b90506123bc565b50600061244d61241f8a6134f0565b61242884613651565b604051602001612439929190614a5e565b604051602081830303815290604052613651565b9050806040516020016124609190614aa3565b604051602081830303815290604052915081975050505050505050919050565b6000600560008473ffffffffffffffffffffffffffffffffffffffff1673ffffffffffffffffffffffffffffffffffffffff16815260200190815260200160002060008373ffffffffffffffffffffffffffffffffffffffff1673ffffffffffffffffffffffffffffffffffffffff16815260200190815260200160002060009054906101000a900460ff16905092915050565b61251c61275a565b73ffffffffffffffffffffffffffffffffffffffff1661253a610b8f565b73ffffffffffffffffffffffffffffffffffffffff1614612590576040517f08c379a000000000000000000000000000000000000000000000000000000000815260040161258790614ce9565b60405180910390fd5b600073ffffffffffffffffffffffffffffffffffffffff168173ffffffffffffffffffffffffffffffffffffffff161415612600576040517f08c379a00000000000000000000000000000000000000000000000000000000081526004016125f790614ba9565b60405180910390fd5b61260981613364565b50565b60007f80ac58cd000000000000000000000000000000000000000000000000000000007bffffffffffffffffffffffffffffffffffffffffffffffffffffffff1916827bffffffffffffffffffffffffffffffffffffffffffffffffffffffff191614806126d757507f5b5e139f000000000000000000000000000000000000000000000000000000007bffffffffffffffffffffffffffffffffffffffffffffffffffffffff1916827bffffffffffffffffffffffffffffffffffffffffffffffffffffffff1916145b806126e757506126e6826137e9565b5b9050919050565b60008073ffffffffffffffffffffffffffffffffffffffff166002600084815260200190815260200160002060009054906101000a900473ffffffffffffffffffffffffffffffffffffffff1673ffffffffffffffffffffffffffffffffffffffff1614159050919050565b600033905090565b816004600083815260200190815260200160002060006101000a81548173ffffffffffffffffffffffffffffffffffffffff021916908373ffffffffffffffffffffffffffffffffffffffff160217905550808273ffffffffffffffffffffffffffffffffffffffff166127d58361099d565b73ffffffffffffffffffffffffffffffffffffffff167f8c5be1e5ebec7d5bd14f71427d1e84f3dd0314c0f7b2291e5b200ac8c7c3b92560405160405180910390a45050565b6000612826826126ee565b612865576040517f08c379a000000000000000000000000000000000000000000000000000000000815260040161285c90614c29565b60405180910390fd5b60006128708361099d565b90508073ffffffffffffffffffffffffffffffffffffffff168473ffffffffffffffffffffffffffffffffffffffff1614806128df57508373ffffffffffffffffffffffffffffffffffffffff166128c78461052a565b73ffffffffffffffffffffffffffffffffffffffff16145b806128f057506128ef8185612480565b5b91505092915050565b8273ffffffffffffffffffffffffffffffffffffffff166129198261099d565b73ffffffffffffffffffffffffffffffffffffffff161461296f576040517f08c379a000000000000000000000000000000000000000000000000000000000815260040161296690614d29565b60405180910390fd5b600073ffffffffffffffffffffffffffffffffffffffff168273ffffffffffffffffffffffffffffffffffffffff1614156129df576040517f08c379a00000000000000000000000000000000000000000000000000000000081526004016129d690614be9565b60405180910390fd5b6129ea838383613853565b6129f5600082612762565b6001600360008573ffffffffffffffffffffffffffffffffffffffff1673ffffffffffffffffffffffffffffffffffffffff1681526020019081526020016000206000828254612a459190614fcf565b925050819055506001600360008473ffffffffffffffffffffffffffffffffffffffff1673ffffffffffffffffffffffffffffffffffffffff1681526020019081526020016000206000828254612a9c9190614eee565b92505081905550816002600083815260200190815260200160002060006101000a81548173ffffffffffffffffffffffffffffffffffffffff021916908373ffffffffffffffffffffffffffffffffffffffff160217905550808273ffffffffffffffffffffffffffffffffffffffff168473ffffffffffffffffffffffffffffffffffffffff167fddf252ad1be2c89b69c2b068fc378daa952ba7f163c4a11628f55a4df523b3ef60405160405180910390a4505050565b60006010600083815260200190815260200160002090504281600001819055506000600383612b849190615165565b1415612e8957600c600081548110612b9f57612b9e615252565b5b9060005260206000200181600101908054612bb9906150b9565b612bc4929190614162565b50600d600081548110612bda57612bd9615252565b5b9060005260206000200181600201908054612bf4906150b9565b612bff929190614162565b506102008160030181905550600b612c4c836040518060400160405280600881526020017f504f4c4954494353000000000000000000000000000000000000000000000000815250613967565b612c569190615165565b8160060181905550600b612c9f836040518060400160405280600781526020017f5445414348455200000000000000000000000000000000000000000000000000815250613967565b612ca99190615165565b8160070181905550600b612cf2836040518060400160405280600681526020017f444f43544f520000000000000000000000000000000000000000000000000000815250613967565b612cfc9190615165565b8160080181905550600b612d45836040518060400160405280600681526020017f4c41575945520000000000000000000000000000000000000000000000000000815250613967565b612d4f9190615165565b8160090181905550600b612d98836040518060400160405280600681526020017f504f4c4943450000000000000000000000000000000000000000000000000000815250613967565b612da29190615165565b81600a0181905550600b612deb836040518060400160405280600581526020017f53414c4553000000000000000000000000000000000000000000000000000000815250613967565b612df59190615165565b81600b0181905550600f8080549050612e43846040518060400160405280600681526020017f574541504f4e0000000000000000000000000000000000000000000000000000815250613967565b612e4d9190615165565b81548110612e5e57612e5d615252565b5b9060005260206000200181600501908054612e78906150b9565b612e83929190614162565b50613342565b6001600383612e989190615165565b141561316957600c600181548110612eb357612eb2615252565b5b9060005260206000200181600101908054612ecd906150b9565b612ed8929190614162565b50600d600081548110612eee57612eed615252565b5b9060005260206000200181600201908054612f08906150b9565b612f13929190614162565b5061020081600301819055506006612f60836040518060400160405280600981526020017f4f4646535052494e470000000000000000000000000000000000000000000000815250613967565b612f6a9190615165565b8160040181905550600b612fb3836040518060400160405280600881526020017f504f4c4954494353000000000000000000000000000000000000000000000000815250613967565b612fbd9190615165565b8160060181905550600b613006836040518060400160405280600781526020017f5445414348455200000000000000000000000000000000000000000000000000815250613967565b6130109190615165565b8160070181905550600b613059836040518060400160405280600681526020017f444f43544f520000000000000000000000000000000000000000000000000000815250613967565b6130639190615165565b8160080181905550600b6130ac836040518060400160405280600681526020017f4c41575945520000000000000000000000000000000000000000000000000000815250613967565b6130b69190615165565b8160090181905550600b6130ff836040518060400160405280600681526020017f504f4c4943450000000000000000000000000000000000000000000000000000815250613967565b6131099190615165565b81600a0181905550600b613152836040518060400160405280600581526020017f53414c4553000000000000000000000000000000000000000000000000000000815250613967565b61315c9190615165565b81600b0181905550613341565b600c6002836131789190615165565b8154811061318957613188615252565b5b90600052602060002001816001019080546131a3906150b9565b6131ae929190614162565b50600d6001815481106131c4576131c3615252565b5b90600052602060002001816002019080546131de906150b9565b6131e9929190614162565b50608081600301819055506006613235836040518060400160405280600981526020017f4f4646535052494e470000000000000000000000000000000000000000000000815250613967565b61323f9190615165565b8160040181905550600b613288836040518060400160405280600481526020017f4c45475300000000000000000000000000000000000000000000000000000000815250613967565b6132929190615165565b81600c018190555060026132db836040518060400160405280600581526020017f57494e4753000000000000000000000000000000000000000000000000000000815250613967565b6132e59190615165565b81600d0181905550600261332e836040518060400160405280600581526020017f434c415753000000000000000000000000000000000000000000000000000000815250613967565b6133389190615165565b81600e01819055505b5b5050565b6133608282604051806020016040528060008152506139a3565b5050565b6000600b60009054906101000a900473ffffffffffffffffffffffffffffffffffffffff16905081600b60006101000a81548173ffffffffffffffffffffffffffffffffffffffff021916908373ffffffffffffffffffffffffffffffffffffffff1602179055508173ffffffffffffffffffffffffffffffffffffffff168173ffffffffffffffffffffffffffffffffffffffff167f8be0079c531659141344cd1fd0a4f28419497f9722a3daafe3b4186f6b6457e060405160405180910390a35050565b60008160405160200161343d9190614a23565b60405160208183030381529060405280519060200120836040516020016134649190614a23565b6040516020818303038152906040528051906020012014613486576000613489565b60015b60ff16905092915050565b61349f8484846128f9565b6134ab848484846139fe565b6134ea576040517f08c379a00000000000000000000000000000000000000000000000000000000081526004016134e190614b89565b60405180910390fd5b50505050565b60606000821415613538576040518060400160405280600181526020017f3000000000000000000000000000000000000000000000000000000000000000815250905061364c565b600082905060005b6000821461356a5780806135539061511c565b915050600a826135639190614f44565b9150613540565b60008167ffffffffffffffff81111561358657613585615281565b5b6040519080825280601f01601f1916602001820160405280156135b85781602001600182028036833780820191505090505b5090505b60008514613645576001826135d19190614fcf565b9150600a856135e09190615165565b60306135ec9190614eee565b60f81b81838151811061360257613601615252565b5b60200101907effffffffffffffffffffffffffffffffffffffffffffffffffffffffffffff1916908160001a905350600a8561363e9190614f44565b94506135bc565b8093505050505b919050565b6060600082519050600081141561367a57604051806020016040528060008152509150506137e4565b6000600360028361368b9190614eee565b6136959190614f44565b60046136a19190614f75565b905060006020826136b29190614eee565b67ffffffffffffffff8111156136cb576136ca615281565b5b6040519080825280601f01601f1916602001820160405280156136fd5781602001600182028036833780820191505090505b5090506000604051806060016040528060408152602001615bba604091399050600181016020830160005b868110156137a15760038101905062ffffff818a015116603f8160121c168401518060081b905060ff603f83600c1c1686015116810190508060081b905060ff603f8360061c1686015116810190508060081b905060ff603f831686015116810190508060e01b90508084526004840193505050613728565b5060038606600181146137bb57600281146137cb576137d6565b613d3d60f01b60028303526137d6565b603d60f81b60018303525b508484525050819450505050505b919050565b60007f01ffc9a7000000000000000000000000000000000000000000000000000000007bffffffffffffffffffffffffffffffffffffffffffffffffffffffff1916827bffffffffffffffffffffffffffffffffffffffffffffffffffffffff1916149050919050565b61385e838383613b95565b600073ffffffffffffffffffffffffffffffffffffffff168373ffffffffffffffffffffffffffffffffffffffff1614156138a15761389c81613b9a565b6138e0565b8173ffffffffffffffffffffffffffffffffffffffff168373ffffffffffffffffffffffffffffffffffffffff16146138df576138de8382613be3565b5b5b600073ffffffffffffffffffffffffffffffffffffffff168273ffffffffffffffffffffffffffffffffffffffff1614156139235761391e81613d50565b613962565b8273ffffffffffffffffffffffffffffffffffffffff168273ffffffffffffffffffffffffffffffffffffffff1614613961576139608282613e21565b5b5b505050565b600061399b82613976856134f0565b604051602001613987929190614a3a565b604051602081830303815290604052613ea0565b905092915050565b6139ad8383613ed3565b6139ba60008484846139fe565b6139f9576040517f08c379a00000000000000000000000000000000000000000000000000000000081526004016139f090614b89565b60405180910390fd5b505050565b6000613a1f8473ffffffffffffffffffffffffffffffffffffffff166140a1565b15613b88578373ffffffffffffffffffffffffffffffffffffffff1663150b7a02613a4861275a565b8786866040518563ffffffff1660e01b8152600401613a6a9493929190614ae0565b602060405180830381600087803b158015613a8457600080fd5b505af1925050508015613ab557506040513d601f19601f82011682018060405250810190613ab29190614545565b60015b613b38573d8060008114613ae5576040519150601f19603f3d011682016040523d82523d6000602084013e613aea565b606091505b50600081511415613b30576040517f08c379a0000000000000000000000000000000000000000000000000000000008152600401613b2790614b89565b60405180910390fd5b805181602001fd5b63150b7a0260e01b7bffffffffffffffffffffffffffffffffffffffffffffffffffffffff1916817bffffffffffffffffffffffffffffffffffffffffffffffffffffffff191614915050613b8d565b600190505b949350505050565b505050565b6008805490506009600083815260200190815260200160002081905550600881908060018154018082558091505060019003906000526020600020016000909190919091505550565b60006001613bf084610a4f565b613bfa9190614fcf565b9050600060076000848152602001908152602001600020549050818114613cdf576000600660008673ffffffffffffffffffffffffffffffffffffffff1673ffffffffffffffffffffffffffffffffffffffff168152602001908152602001600020600084815260200190815260200160002054905080600660008773ffffffffffffffffffffffffffffffffffffffff1673ffffffffffffffffffffffffffffffffffffffff168152602001908152602001600020600084815260200190815260200160002081905550816007600083815260200190815260200160002081905550505b6007600084815260200190815260200160002060009055600660008573ffffffffffffffffffffffffffffffffffffffff1673ffffffffffffffffffffffffffffffffffffffff16815260200190815260200160002060008381526020019081526020016000206000905550505050565b60006001600880549050613d649190614fcf565b9050600060096000848152602001908152602001600020549050600060088381548110613d9457613d93615252565b5b906000526020600020015490508060088381548110613db657613db5615252565b5b906000526020600020018190555081600960008381526020019081526020016000208190555060096000858152602001908152602001600020600090556008805480613e0557613e04615223565b5b6001900381819060005260206000200160009055905550505050565b6000613e2c83610a4f565b905081600660008573ffffffffffffffffffffffffffffffffffffffff1673ffffffffffffffffffffffffffffffffffffffff168152602001908152602001600020600083815260200190815260200160002081905550806007600084815260200190815260200160002081905550505050565b600081604051602001613eb39190614a23565b6040516020818303038152906040528051906020012060001c9050919050565b600073ffffffffffffffffffffffffffffffffffffffff168273ffffffffffffffffffffffffffffffffffffffff161415613f43576040517f08c379a0000000000000000000000000000000000000000000000000000000008152600401613f3a90614ca9565b60405180910390fd5b613f4c816126ee565b15613f8c576040517f08c379a0000000000000000000000000000000000000000000000000000000008152600401613f8390614bc9565b60405180910390fd5b613f9860008383613853565b6001600360008473ffffffffffffffffffffffffffffffffffffffff1673ffffffffffffffffffffffffffffffffffffffff1681526020019081526020016000206000828254613fe89190614eee565b92505081905550816002600083815260200190815260200160002060006101000a81548173ffffffffffffffffffffffffffffffffffffffff021916908373ffffffffffffffffffffffffffffffffffffffff160217905550808273ffffffffffffffffffffffffffffffffffffffff16600073ffffffffffffffffffffffffffffffffffffffff167fddf252ad1be2c89b69c2b068fc378daa952ba7f163c4a11628f55a4df523b3ef60405160405180910390a45050565b600080823b905060008111915050919050565b8280546140c0906150b9565b90600052602060002090601f0160209004810192826140e25760008555614129565b82601f106140fb57805160ff1916838001178555614129565b82800160010185558215614129579182015b8281111561412857825182559160200191906001019061410d565b5b50905061413691906141ef565b5090565b6040518061080001604052806040905b606081526020019060019003908161414a5790505090565b82805461416e906150b9565b90600052602060002090601f01602090048101928261419057600085556141de565b82601f106141a157805485556141de565b828001600101855582156141de57600052602060002091601f016020900482015b828111156141dd5782548255916001019190600101906141c2565b5b5090506141eb91906141ef565b5090565b5b808211156142085760008160009055506001016141f0565b5090565b600061421f61421a84614e49565b614e24565b90508281526020810184848401111561423b5761423a6152b5565b5b614246848285615077565b509392505050565b600061426161425c84614e7a565b614e24565b90508281526020810184848401111561427d5761427c6152b5565b5b614288848285615077565b509392505050565b60008135905061429f81615910565b92915050565b6000813590506142b481615927565b92915050565b6000813590506142c98161593e565b92915050565b6000815190506142de8161593e565b92915050565b600082601f8301126142f9576142f86152b0565b5b813561430984826020860161420c565b91505092915050565b600082601f830112614327576143266152b0565b5b813561433784826020860161424e565b91505092915050565b60008135905061434f81615955565b92915050565b60006020828403121561436b5761436a6152bf565b5b600061437984828501614290565b91505092915050565b60008060408385031215614399576143986152bf565b5b60006143a785828601614290565b92505060206143b885828601614290565b9150509250929050565b6000806000606084860312156143db576143da6152bf565b5b60006143e986828701614290565b93505060206143fa86828701614290565b925050604061440b86828701614340565b9150509250925092565b6000806000806080858703121561442f5761442e6152bf565b5b600061443d87828801614290565b945050602061444e87828801614290565b935050604061445f87828801614340565b925050606085013567ffffffffffffffff8111156144805761447f6152ba565b5b61448c878288016142e4565b91505092959194509250565b600080604083850312156144af576144ae6152bf565b5b60006144bd85828601614290565b92505060206144ce858286016142a5565b9150509250929050565b600080604083850312156144ef576144ee6152bf565b5b60006144fd85828601614290565b925050602061450e85828601614340565b9150509250929050565b60006020828403121561452e5761452d6152bf565b5b600061453c848285016142ba565b91505092915050565b60006020828403121561455b5761455a6152bf565b5b6000614569848285016142cf565b91505092915050565b600060208284031215614588576145876152bf565b5b600082013567ffffffffffffffff8111156145a6576145a56152ba565b5b6145b284828501614312565b91505092915050565b6000602082840312156145d1576145d06152bf565b5b60006145df84828501614340565b91505092915050565b6145f181615003565b82525050565b61460081615015565b82525050565b600061461182614eab565b61461b8185614ec1565b935061462b818560208601615086565b614634816152c4565b840191505092915050565b600061464a82614eb6565b6146548185614ed2565b9350614664818560208601615086565b61466d816152c4565b840191505092915050565b600061468382614eb6565b61468d8185614ee3565b935061469d818560208601615086565b80840191505092915050565b60006146b6602b83614ed2565b91506146c1826152d5565b604082019050919050565b60006146d9603283614ed2565b91506146e482615324565b604082019050919050565b60006146fc602683614ed2565b915061470782615373565b604082019050919050565b600061471f601c83614ed2565b915061472a826153c2565b602082019050919050565b6000614742601283614ee3565b915061474d826153eb565b601282019050919050565b6000614765602483614ed2565b915061477082615414565b604082019050919050565b6000614788601983614ed2565b915061479382615463565b602082019050919050565b60006147ab605983614ee3565b91506147b68261548c565b605982019050919050565b60006147ce602c83614ed2565b91506147d982615501565b604082019050919050565b60006147f1603883614ed2565b91506147fc82615550565b604082019050919050565b6000614814602a83614ed2565b915061481f8261559f565b604082019050919050565b6000614837602983614ed2565b9150614842826155ee565b604082019050919050565b600061485a600283614ee3565b91506148658261563d565b600282019050919050565b600061487d602083614ed2565b915061488882615666565b602082019050919050565b60006148a0602c83614ed2565b91506148ab8261568f565b604082019050919050565b60006148c3602083614ed2565b91506148ce826156de565b602082019050919050565b60006148e6601083614ed2565b91506148f182615707565b602082019050919050565b6000614909602983614ed2565b915061491482615730565b604082019050919050565b600061492c602183614ed2565b91506149378261577f565b604082019050919050565b600061494f601583614ed2565b915061495a826157ce565b602082019050919050565b6000614972601d83614ee3565b915061497d826157f7565b601d82019050919050565b6000614995603183614ed2565b91506149a082615820565b604082019050919050565b60006149b8602c83614ed2565b91506149c38261586f565b604082019050919050565b60006149db601f83614ed2565b91506149e6826158be565b602082019050919050565b60006149fe600e83614ed2565b9150614a09826158e7565b602082019050919050565b614a1d8161506d565b82525050565b6000614a2f8284614678565b915081905092915050565b6000614a468285614678565b9150614a528284614678565b91508190509392505050565b6000614a6982614735565b9150614a758285614678565b9150614a808261479e565b9150614a8c8284614678565b9150614a978261484d565b91508190509392505050565b6000614aae82614965565b9150614aba8284614678565b915081905092915050565b6000602082019050614ada60008301846145e8565b92915050565b6000608082019050614af560008301876145e8565b614b0260208301866145e8565b614b0f6040830185614a14565b8181036060830152614b218184614606565b905095945050505050565b6000602082019050614b4160008301846145f7565b92915050565b60006020820190508181036000830152614b61818461463f565b905092915050565b60006020820190508181036000830152614b82816146a9565b9050919050565b60006020820190508181036000830152614ba2816146cc565b9050919050565b60006020820190508181036000830152614bc2816146ef565b9050919050565b60006020820190508181036000830152614be281614712565b9050919050565b60006020820190508181036000830152614c0281614758565b9050919050565b60006020820190508181036000830152614c228161477b565b9050919050565b60006020820190508181036000830152614c42816147c1565b9050919050565b60006020820190508181036000830152614c62816147e4565b9050919050565b60006020820190508181036000830152614c8281614807565b9050919050565b60006020820190508181036000830152614ca28161482a565b9050919050565b60006020820190508181036000830152614cc281614870565b9050919050565b60006020820190508181036000830152614ce281614893565b9050919050565b60006020820190508181036000830152614d02816148b6565b9050919050565b60006020820190508181036000830152614d22816148d9565b9050919050565b60006020820190508181036000830152614d42816148fc565b9050919050565b60006020820190508181036000830152614d628161491f565b9050919050565b60006020820190508181036000830152614d8281614942565b9050919050565b60006020820190508181036000830152614da281614988565b9050919050565b60006020820190508181036000830152614dc2816149ab565b9050919050565b60006020820190508181036000830152614de2816149ce565b9050919050565b60006020820190508181036000830152614e02816149f1565b9050919050565b6000602082019050614e1e6000830184614a14565b92915050565b6000614e2e614e3f565b9050614e3a82826150eb565b919050565b6000604051905090565b600067ffffffffffffffff821115614e6457614e63615281565b5b614e6d826152c4565b9050602081019050919050565b600067ffffffffffffffff821115614e9557614e94615281565b5b614e9e826152c4565b9050602081019050919050565b600081519050919050565b600081519050919050565b600082825260208201905092915050565b600082825260208201905092915050565b600081905092915050565b6000614ef98261506d565b9150614f048361506d565b9250827fffffffffffffffffffffffffffffffffffffffffffffffffffffffffffffffff03821115614f3957614f38615196565b5b828201905092915050565b6000614f4f8261506d565b9150614f5a8361506d565b925082614f6a57614f696151c5565b5b828204905092915050565b6000614f808261506d565b9150614f8b8361506d565b9250817fffffffffffffffffffffffffffffffffffffffffffffffffffffffffffffffff0483118215151615614fc457614fc3615196565b5b828202905092915050565b6000614fda8261506d565b9150614fe58361506d565b925082821015614ff857614ff7615196565b5b828203905092915050565b600061500e8261504d565b9050919050565b60008115159050919050565b60007fffffffff0000000000000000000000000000000000000000000000000000000082169050919050565b600073ffffffffffffffffffffffffffffffffffffffff82169050919050565b6000819050919050565b82818337600083830152505050565b60005b838110156150a4578082015181840152602081019050615089565b838111156150b3576000848401525b50505050565b600060028204905060018216806150d157607f821691505b602082108114156150e5576150e46151f4565b5b50919050565b6150f4826152c4565b810181811067ffffffffffffffff8211171561511357615112615281565b5b80604052505050565b60006151278261506d565b91507fffffffffffffffffffffffffffffffffffffffffffffffffffffffffffffffff82141561515a57615159615196565b5b600182019050919050565b60006151708261506d565b915061517b8361506d565b92508261518b5761518a6151c5565b5b828206905092915050565b7f4e487b7100000000000000000000000000000000000000000000000000000000600052601160045260246000fd5b7f4e487b7100000000000000000000000000000000000000000000000000000000600052601260045260246000fd5b7f4e487b7100000000000000000000000000000000000000000000000000000000600052602260045260246000fd5b7f4e487b7100000000000000000000000000000000000000000000000000000000600052603160045260246000fd5b7f4e487b7100000000000000000000000000000000000000000000000000000000600052603260045260246000fd5b7f4e487b7100000000000000000000000000000000000000000000000000000000600052604160045260246000fd5b600080fd5b600080fd5b600080fd5b600080fd5b6000601f19601f8301169050919050565b7f455243373231456e756d657261626c653a206f776e657220696e646578206f7560008201527f74206f6620626f756e6473000000000000000000000000000000000000000000602082015250565b7f4552433732313a207472616e7366657220746f206e6f6e20455243373231526560008201527f63656976657220696d706c656d656e7465720000000000000000000000000000602082015250565b7f4f776e61626c653a206e6577206f776e657220697320746865207a65726f206160008201527f6464726573730000000000000000000000000000000000000000000000000000602082015250565b7f4552433732313a20746f6b656e20616c7265616479206d696e74656400000000600082015250565b7f7b226e616d65223a2022506c6179657220230000000000000000000000000000600082015250565b7f4552433732313a207472616e7366657220746f20746865207a65726f2061646460008201527f7265737300000000000000000000000000000000000000000000000000000000602082015250565b7f4552433732313a20617070726f766520746f2063616c6c657200000000000000600082015250565b7f222c20226465736372697074696f6e223a2022447973746f706961206973206160008201527f2067616d65206f6620737572766976616c2e222c2022696d616765223a20226460208201527f6174613a696d6167652f7376672b786d6c3b6261736536342c00000000000000604082015250565b7f4552433732313a206f70657261746f7220717565727920666f72206e6f6e657860008201527f697374656e7420746f6b656e0000000000000000000000000000000000000000602082015250565b7f4552433732313a20617070726f76652063616c6c6572206973206e6f74206f7760008201527f6e6572206e6f7220617070726f76656420666f7220616c6c0000000000000000602082015250565b7f4552433732313a2062616c616e636520717565727920666f7220746865207a6560008201527f726f206164647265737300000000000000000000000000000000000000000000602082015250565b7f4552433732313a206f776e657220717565727920666f72206e6f6e657869737460008201527f656e7420746f6b656e0000000000000000000000000000000000000000000000602082015250565b7f227d000000000000000000000000000000000000000000000000000000000000600082015250565b7f4552433732313a206d696e7420746f20746865207a65726f2061646472657373600082015250565b7f4552433732313a20617070726f76656420717565727920666f72206e6f6e657860008201527f697374656e7420746f6b656e0000000000000000000000000000000000000000602082015250565b7f4f776e61626c653a2063616c6c6572206973206e6f7420746865206f776e6572600082015250565b7f546f6b656e20494420696e76616c696400000000000000000000000000000000600082015250565b7f4552433732313a207472616e73666572206f6620746f6b656e2074686174206960008201527f73206e6f74206f776e0000000000000000000000000000000000000000000000602082015250565b7f4552433732313a20617070726f76616c20746f2063757272656e74206f776e6560008201527f7200000000000000000000000000000000000000000000000000000000000000602082015250565b7f776561706f6e20616c7265616479206578697374730000000000000000000000600082015250565b7f646174613a6170706c69636174696f6e2f6a736f6e3b6261736536342c000000600082015250565b7f4552433732313a207472616e736665722063616c6c6572206973206e6f74206f60008201527f776e6572206e6f7220617070726f766564000000000000000000000000000000602082015250565b7f455243373231456e756d657261626c653a20676c6f62616c20696e646578206f60008201527f7574206f6620626f756e64730000000000000000000000000000000000000000602082015250565b7f5265656e7472616e637947756172643a207265656e7472616e742063616c6c00600082015250565b7f696e76616c696420776561706f6e000000000000000000000000000000000000600082015250565b61591981615003565b811461592457600080fd5b50565b61593081615015565b811461593b57600080fd5b50565b61594781615021565b811461595257600080fd5b50565b61595e8161506d565b811461596957600080fd5b5056fe3c2f746578743e3c7465787420783d2231302220793d2236302220636c6173733d22626173655768697465223e2e62617365477265656e207b2066696c6c3a20737072696e67677265656e3b20666f6e742d66616d696c793a2073657269663b20666f6e742d73697a653a20313470783b207d3c2f7374796c653e3c2f746578743e3c7465787420783d2231302220793d2238302220636c6173733d22626173655768697465223e3c2f746578743e3c7465787420783d2231302220793d223136302220636c6173733d2262617365477265656e223e3c2f746578743e3c7465787420783d2231302220793d223138302220636c6173733d22626173655768697465223e3c726563742077696474683d223130302522206865696768743d2231303025222066696c6c3d22626c61636b22202f3e3c2f746578743e3c7465787420783d2231302220793d223232302220636c6173733d22626173655768697465223e3c73766720786d6c6e733d22687474703a2f2f7777772e77332e6f72672f323030302f73766722207072657365727665417370656374526174696f3d22784d696e594d696e206d656574222076696577426f783d223020302033353020333530223e3c2f746578743e3c7465787420783d2231302220793d223230302220636c6173733d2262617365477265656e223e3c2f746578743e3c7465787420783d2231302220793d223132302220636c6173733d2262617365477265656e223e3c2f746578743e3c7465787420783d2231302220793d2234302220636c6173733d2262617365477265656e223e4142434445464748494a4b4c4d4e4f505152535455565758595a6162636465666768696a6b6c6d6e6f707172737475767778797a303132333435363738392b2f3c2f746578743e3c7465787420783d2231302220793d223234302220636c6173733d2262617365477265656e223e3c7374796c653e2e626173655768697465207b2066696c6c3a2077686974653b20666f6e742d66616d696c793a2073657269663b20666f6e742d73697a653a20313470783b207d3c2f746578743e3c7465787420783d2231302220793d223134302220636c6173733d22626173655768697465223e3c7465787420783d2231302220793d2232302220636c6173733d22626173655768697465223ea264697066735822122054b5ded449c59a674c7464bf04fba1a8732320bfe2958af2f6f063cfc99c1ede64736f6c63430008070033",
  "immutableReferences": {},
  "source": "// SPDX-License-Identifier: MIT\n\npragma solidity ^0.8.0;\n\nimport \"./FullERC721.sol\";\n\ncontract Dystopia21 is ERC721Enumerable, ReentrancyGuard, Ownable {\n\n\tstruct PlayerInfo {\n\t\tuint256 creationTime;\n\t\tstring gender;\n\t\tstring species;\n        uint256 ageRemaining;\n\n        //only for females\n        uint256 maxOffsprings;  // 0 to 5\n\n        //only for humans\n\t\tstring weapons;\n        uint256 politicalSkills;\n        uint256 teachingSkills;\n        uint256 doctorSkills;\n        uint256 lawyerSkills;\n        uint256 policeSkills;\n        uint256 salesSkills;\n\n        //only for monsters\n        uint256 legs;\n        uint256 wings;\n        uint256 claws;\n\t}\n\t\n\tstring[] private gender = [ \"male\", \"female\" ];\n\tstring[] private species = [ \"human\", \"monster\" ];\n\tuint256[] private maxAge = [ 1024, 256];\n\tstring[] private weapons;\n\n\tmapping (uint256 => PlayerInfo) private _tokenId2Player;\n\n    constructor() ERC721(\"Dystopia\", \"DYSTOPIA\") Ownable() {\n        weapons.push(\"handgun\");\n        weapons.push(\"shotgun\");\n        weapons.push(\"machinegun\");\n        weapons.push(\"rifle\");\n        weapons.push(\"sword\");\n        weapons.push(\"energy-sword\");\n\t}\n\n    function addWeapon(string memory newWeapon) external onlyOwner {\n        require(bytes(newWeapon).length > 0, \"invalid weapon\");\n        for(uint256 i = 0; i < weapons.length; ++i) {\n            require(Strings.compare(newWeapon, weapons[i]) == 0, \"weapon already exists\");\n        }\n        weapons.push(newWeapon);\n    }\n\n\tfunction generatePlayer(uint256 tokenId) internal {\n\t\tPlayerInfo storage player = _tokenId2Player[tokenId];   //by reference\n\n\t\tplayer.creationTime = block.timestamp;\n        if(tokenId % 3 == 0) { //human-male\n            player.gender = gender[0];\n            player.species = species[0];\n            player.ageRemaining = 512;\n            player.politicalSkills = pluck(tokenId, \"POLITICS\") % 11;\n            player.teachingSkills = pluck(tokenId, \"TEACHER\") % 11;\n            player.doctorSkills = pluck(tokenId, \"DOCTOR\") % 11;\n            player.lawyerSkills = pluck(tokenId, \"LAWYER\") % 11;\n            player.policeSkills = pluck(tokenId, \"POLICE\") % 11;\n            player.salesSkills = pluck(tokenId, \"SALES\") % 11;\n            player.weapons = weapons[pluck(tokenId, \"WEAPON\") % weapons.length];\n        }\n        else if(tokenId % 3 == 1) { //human-female\n            player.gender = gender[1];\n            player.species = species[0];\n            player.ageRemaining = 512;\n            player.maxOffsprings = pluck(tokenId, \"OFFSPRING\") % 6;\n            player.politicalSkills = pluck(tokenId, \"POLITICS\") % 11;\n            player.teachingSkills = pluck(tokenId, \"TEACHER\") % 11;\n            player.doctorSkills = pluck(tokenId, \"DOCTOR\") % 11;\n            player.lawyerSkills = pluck(tokenId, \"LAWYER\") % 11;\n            player.policeSkills = pluck(tokenId, \"POLICE\") % 11;\n            player.salesSkills = pluck(tokenId, \"SALES\") % 11;\n        }\n        else { //monster\n\t\t    player.gender = gender[tokenId % 2];\n\t\t\tplayer.species = species[1];\n            player.ageRemaining = 128;\n            player.maxOffsprings = pluck(tokenId, \"OFFSPRING\") % 6;\n            player.legs = pluck(tokenId, \"LEGS\") % 11;\n            player.wings = pluck(tokenId, \"WINGS\") % 2;\n            player.claws = pluck(tokenId, \"CLAWS\") % 2;\n\t\t}\n\t}\n\n    function random(string memory input) internal pure returns (uint256) {\n        return uint256(keccak256(abi.encodePacked(input)));\n    }\n\n    function pluck(uint256 tokenId, string memory keyPrefix) internal pure returns (uint256) {\n        return random(string(abi.encodePacked(keyPrefix, Strings.toString(tokenId))));\n    }\n\n    function tokenURI(uint256 tokenId) override public view returns (string memory) {\n\n        PlayerInfo memory player = _tokenId2Player[tokenId];\n        uint256 isHuman = Strings.compare(player.species, \"human\");\n        uint256 isFemale = Strings.compare(player.gender, \"female\");\n\n        string[64] memory parts;\n\t\tuint256 counter = 0;\n        parts[counter++] = '<svg xmlns=\"http://www.w3.org/2000/svg\" preserveAspectRatio=\"xMinYMin meet\" viewBox=\"0 0 350 350\">';\n\t\tparts[counter++] = '<style>.baseWhite { fill: white; font-family: serif; font-size: 14px; }';\n\t\tparts[counter++] = '.baseGreen { fill: springgreen; font-family: serif; font-size: 14px; }</style>';\n\t\tparts[counter++] = '<rect width=\"100%\" height=\"100%\" fill=\"black\" />';\n\t\tparts[counter++] = '<text x=\"10\" y=\"20\" class=\"baseWhite\">';\n        parts[counter++] = \"CreationTime:\";\n        parts[counter++] = Strings.toString(player.creationTime);\n        parts[counter++] = '</text><text x=\"10\" y=\"60\" class=\"baseWhite\">';\n        parts[counter++] = \"Species:\";\n        parts[counter++] = player.species;\n        parts[counter++] = '</text><text x=\"10\" y=\"40\" class=\"baseGreen\">';\n        parts[counter++] = \"Gender:\";\n        parts[counter++] = player.gender;\n        parts[counter++] = '</text><text x=\"10\" y=\"80\" class=\"baseWhite\">';\n        parts[counter++] = \"AgeRemaining:\";\n        parts[counter++] = Strings.toString(player.ageRemaining);\n        parts[counter++] = '</text><text x=\"10\" y=\"120\" class=\"baseGreen\">';\n        if(isFemale == 1) {\n            parts[counter++] = \"MaxOffsprings:\";\n            parts[counter++] = Strings.toString(player.maxOffsprings);\n        }\n        else {\n            parts[counter++] = \"Weapons:\";\n            parts[counter++] = player.weapons;\n        }\n        if(isHuman == 1) {\n            parts[counter++] = '</text><text x=\"10\" y=\"140\" class=\"baseWhite\">';\n            parts[counter++] = \"PoliticalSkills:\";\n            parts[counter++] = Strings.toString(player.politicalSkills);\n            parts[counter++] = \"/10\";\n            parts[counter++] = '</text><text x=\"10\" y=\"160\" class=\"baseGreen\">';\n            parts[counter++] = \"DoctorSkills:\";\n            parts[counter++] = Strings.toString(player.doctorSkills);\n            parts[counter++] = \"/10\";\n            parts[counter++] = '</text><text x=\"10\" y=\"180\" class=\"baseWhite\">';\n            parts[counter++] = \"LawyerSkills:\";\n            parts[counter++] = Strings.toString(player.lawyerSkills);\n            parts[counter++] = \"/10\";\n            parts[counter++] = '</text><text x=\"10\" y=\"200\" class=\"baseGreen\">';\n            parts[counter++] = \"PolicSkills:\";\n            parts[counter++] = Strings.toString(player.policeSkills);\n            parts[counter++] = \"/10\";\n            parts[counter++] = '</text><text x=\"10\" y=\"220\" class=\"baseWhite\">';\n            parts[counter++] = \"SalesSkills:\";\n            parts[counter++] = Strings.toString(player.salesSkills);\n            parts[counter++] = \"/10\";\n            parts[counter++] = '</text><text x=\"10\" y=\"240\" class=\"baseGreen\">';\n            parts[counter++] = \"TeachingSkills:\";\n            parts[counter++] = Strings.toString(player.teachingSkills);\n            parts[counter++] = \"/10\";\n        }\n        else {\n            parts[counter++] = '</text><text x=\"10\" y=\"140\" class=\"baseWhite\">';\n            parts[counter++] = \"Legs:\";\n            parts[counter++] = Strings.toString(player.legs);\n            parts[counter++] = '</text><text x=\"10\" y=\"160\" class=\"baseGreen\">';\n            parts[counter++] = \"Wings:\";\n            parts[counter++] = (player.wings == 1 ? \"Yes\" : \"No\");\n            parts[counter++] = '</text><text x=\"10\" y=\"180\" class=\"baseWhite\">';\n            parts[counter++] = \"Claws:\";\n            parts[counter++] = (player.claws == 1 ? \"Yes\" : \"No\");\n        }\n        parts[counter++] = '</text></svg>';\n\n        string memory output = \"\";\n\t\tfor(uint256 i = 0; i < counter; ++i)\n\t\t{\n\t\t\toutput = string(abi.encodePacked(output, parts[i]));\n\t\t}\n\n        string memory json = Base64.encode(bytes(string(abi.encodePacked('{\"name\": \"Player #', Strings.toString(tokenId), '\", \"description\": \"Dystopia is a game of survival.\", \"image\": \"data:image/svg+xml;base64,', Base64.encode(bytes(output)), '\"}'))));\n        output = string(abi.encodePacked('data:application/json;base64,', json));\n\n        return output;\n    }\n\n    function mintPlayer(uint256 tokenId) public nonReentrant onlyOwner {\n        require(tokenId < 10000, \"Token ID invalid\");\n        generatePlayer(tokenId);\n        _safeMint(owner(), tokenId);\n    }\n}\n",
  "sourcePath": "/home/ec2-user/github/fcc-dapp/src/contracts/Dystopia21.sol",
  "compiler": {
    "name": "solc",
    "version": "0.8.7+commit.e28d00a7.Emscripten.clang"
  },
  "schemaVersion": "3.4.3",
  "updatedAt": "2021-11-13T07:31:49.563Z",
  "devdoc": {
    "kind": "dev",
    "methods": {
      "approve(address,uint256)": {
        "details": "See {IERC721-approve}."
      },
      "balanceOf(address)": {
        "details": "See {IERC721-balanceOf}."
      },
      "getApproved(uint256)": {
        "details": "See {IERC721-getApproved}."
      },
      "isApprovedForAll(address,address)": {
        "details": "See {IERC721-isApprovedForAll}."
      },
      "name()": {
        "details": "See {IERC721Metadata-name}."
      },
      "owner()": {
        "details": "Returns the address of the current owner."
      },
      "ownerOf(uint256)": {
        "details": "See {IERC721-ownerOf}."
      },
      "renounceOwnership()": {
        "details": "Leaves the contract without owner. It will not be possible to call `onlyOwner` functions anymore. Can only be called by the current owner. NOTE: Renouncing ownership will leave the contract without an owner, thereby removing any functionality that is only available to the owner."
      },
      "safeTransferFrom(address,address,uint256)": {
        "details": "See {IERC721-safeTransferFrom}."
      },
      "safeTransferFrom(address,address,uint256,bytes)": {
        "details": "See {IERC721-safeTransferFrom}."
      },
      "setApprovalForAll(address,bool)": {
        "details": "See {IERC721-setApprovalForAll}."
      },
      "supportsInterface(bytes4)": {
        "details": "See {IERC165-supportsInterface}."
      },
      "symbol()": {
        "details": "See {IERC721Metadata-symbol}."
      },
      "tokenByIndex(uint256)": {
        "details": "See {IERC721Enumerable-tokenByIndex}."
      },
      "tokenOfOwnerByIndex(address,uint256)": {
        "details": "See {IERC721Enumerable-tokenOfOwnerByIndex}."
      },
      "tokenURI(uint256)": {
        "details": "See {IERC721Metadata-tokenURI}."
      },
      "totalSupply()": {
        "details": "See {IERC721Enumerable-totalSupply}."
      },
      "transferFrom(address,address,uint256)": {
        "details": "See {IERC721-transferFrom}."
      },
      "transferOwnership(address)": {
        "details": "Transfers ownership of the contract to a new account (`newOwner`). Can only be called by the current owner."
      }
    },
    "version": 1
  },
  "userdoc": {
    "kind": "user",
    "methods": {},
    "version": 1
  }
}