{
  "contractName": "Dystopia21",
  "abi": [
    {
      "inputs": [],
      "stateMutability": "nonpayable",
      "type": "constructor"
    },
    {
      "anonymous": false,
      "inputs": [
        {
          "indexed": true,
          "internalType": "address",
          "name": "owner",
          "type": "address"
        },
        {
          "indexed": true,
          "internalType": "address",
          "name": "approved",
          "type": "address"
        },
        {
          "indexed": true,
          "internalType": "uint256",
          "name": "tokenId",
          "type": "uint256"
        }
      ],
      "name": "Approval",
      "type": "event"
    },
    {
      "anonymous": false,
      "inputs": [
        {
          "indexed": true,
          "internalType": "address",
          "name": "owner",
          "type": "address"
        },
        {
          "indexed": true,
          "internalType": "address",
          "name": "operator",
          "type": "address"
        },
        {
          "indexed": false,
          "internalType": "bool",
          "name": "approved",
          "type": "bool"
        }
      ],
      "name": "ApprovalForAll",
      "type": "event"
    },
    {
      "anonymous": false,
      "inputs": [
        {
          "indexed": true,
          "internalType": "address",
          "name": "previousOwner",
          "type": "address"
        },
        {
          "indexed": true,
          "internalType": "address",
          "name": "newOwner",
          "type": "address"
        }
      ],
      "name": "OwnershipTransferred",
      "type": "event"
    },
    {
      "anonymous": false,
      "inputs": [
        {
          "indexed": true,
          "internalType": "address",
          "name": "from",
          "type": "address"
        },
        {
          "indexed": true,
          "internalType": "address",
          "name": "to",
          "type": "address"
        },
        {
          "indexed": true,
          "internalType": "uint256",
          "name": "tokenId",
          "type": "uint256"
        }
      ],
      "name": "Transfer",
      "type": "event"
    },
    {
      "inputs": [
        {
          "internalType": "address",
          "name": "to",
          "type": "address"
        },
        {
          "internalType": "uint256",
          "name": "tokenId",
          "type": "uint256"
        }
      ],
      "name": "approve",
      "outputs": [],
      "stateMutability": "nonpayable",
      "type": "function"
    },
    {
      "inputs": [
        {
          "internalType": "address",
          "name": "owner",
          "type": "address"
        }
      ],
      "name": "balanceOf",
      "outputs": [
        {
          "internalType": "uint256",
          "name": "",
          "type": "uint256"
        }
      ],
      "stateMutability": "view",
      "type": "function"
    },
    {
      "inputs": [
        {
          "internalType": "uint256",
          "name": "tokenId",
          "type": "uint256"
        }
      ],
      "name": "getApproved",
      "outputs": [
        {
          "internalType": "address",
          "name": "",
          "type": "address"
        }
      ],
      "stateMutability": "view",
      "type": "function"
    },
    {
      "inputs": [
        {
          "internalType": "address",
          "name": "owner",
          "type": "address"
        },
        {
          "internalType": "address",
          "name": "operator",
          "type": "address"
        }
      ],
      "name": "isApprovedForAll",
      "outputs": [
        {
          "internalType": "bool",
          "name": "",
          "type": "bool"
        }
      ],
      "stateMutability": "view",
      "type": "function"
    },
    {
      "inputs": [],
      "name": "name",
      "outputs": [
        {
          "internalType": "string",
          "name": "",
          "type": "string"
        }
      ],
      "stateMutability": "view",
      "type": "function"
    },
    {
      "inputs": [],
      "name": "owner",
      "outputs": [
        {
          "internalType": "address",
          "name": "",
          "type": "address"
        }
      ],
      "stateMutability": "view",
      "type": "function"
    },
    {
      "inputs": [
        {
          "internalType": "uint256",
          "name": "tokenId",
          "type": "uint256"
        }
      ],
      "name": "ownerOf",
      "outputs": [
        {
          "internalType": "address",
          "name": "",
          "type": "address"
        }
      ],
      "stateMutability": "view",
      "type": "function"
    },
    {
      "inputs": [],
      "name": "renounceOwnership",
      "outputs": [],
      "stateMutability": "nonpayable",
      "type": "function"
    },
    {
      "inputs": [
        {
          "internalType": "address",
          "name": "from",
          "type": "address"
        },
        {
          "internalType": "address",
          "name": "to",
          "type": "address"
        },
        {
          "internalType": "uint256",
          "name": "tokenId",
          "type": "uint256"
        }
      ],
      "name": "safeTransferFrom",
      "outputs": [],
      "stateMutability": "nonpayable",
      "type": "function"
    },
    {
      "inputs": [
        {
          "internalType": "address",
          "name": "from",
          "type": "address"
        },
        {
          "internalType": "address",
          "name": "to",
          "type": "address"
        },
        {
          "internalType": "uint256",
          "name": "tokenId",
          "type": "uint256"
        },
        {
          "internalType": "bytes",
          "name": "_data",
          "type": "bytes"
        }
      ],
      "name": "safeTransferFrom",
      "outputs": [],
      "stateMutability": "nonpayable",
      "type": "function"
    },
    {
      "inputs": [
        {
          "internalType": "address",
          "name": "operator",
          "type": "address"
        },
        {
          "internalType": "bool",
          "name": "approved",
          "type": "bool"
        }
      ],
      "name": "setApprovalForAll",
      "outputs": [],
      "stateMutability": "nonpayable",
      "type": "function"
    },
    {
      "inputs": [
        {
          "internalType": "bytes4",
          "name": "interfaceId",
          "type": "bytes4"
        }
      ],
      "name": "supportsInterface",
      "outputs": [
        {
          "internalType": "bool",
          "name": "",
          "type": "bool"
        }
      ],
      "stateMutability": "view",
      "type": "function"
    },
    {
      "inputs": [],
      "name": "symbol",
      "outputs": [
        {
          "internalType": "string",
          "name": "",
          "type": "string"
        }
      ],
      "stateMutability": "view",
      "type": "function"
    },
    {
      "inputs": [
        {
          "internalType": "uint256",
          "name": "index",
          "type": "uint256"
        }
      ],
      "name": "tokenByIndex",
      "outputs": [
        {
          "internalType": "uint256",
          "name": "",
          "type": "uint256"
        }
      ],
      "stateMutability": "view",
      "type": "function"
    },
    {
      "inputs": [
        {
          "internalType": "address",
          "name": "owner",
          "type": "address"
        },
        {
          "internalType": "uint256",
          "name": "index",
          "type": "uint256"
        }
      ],
      "name": "tokenOfOwnerByIndex",
      "outputs": [
        {
          "internalType": "uint256",
          "name": "",
          "type": "uint256"
        }
      ],
      "stateMutability": "view",
      "type": "function"
    },
    {
      "inputs": [],
      "name": "totalSupply",
      "outputs": [
        {
          "internalType": "uint256",
          "name": "",
          "type": "uint256"
        }
      ],
      "stateMutability": "view",
      "type": "function"
    },
    {
      "inputs": [
        {
          "internalType": "address",
          "name": "from",
          "type": "address"
        },
        {
          "internalType": "address",
          "name": "to",
          "type": "address"
        },
        {
          "internalType": "uint256",
          "name": "tokenId",
          "type": "uint256"
        }
      ],
      "name": "transferFrom",
      "outputs": [],
      "stateMutability": "nonpayable",
      "type": "function"
    },
    {
      "inputs": [
        {
          "internalType": "address",
          "name": "newOwner",
          "type": "address"
        }
      ],
      "name": "transferOwnership",
      "outputs": [],
      "stateMutability": "nonpayable",
      "type": "function"
    },
    {
      "inputs": [
        {
          "internalType": "uint256",
          "name": "tokenId",
          "type": "uint256"
        }
      ],
      "name": "getWeapon",
      "outputs": [
        {
          "internalType": "string",
          "name": "",
          "type": "string"
        }
      ],
      "stateMutability": "view",
      "type": "function"
    },
    {
      "inputs": [
        {
          "internalType": "uint256",
          "name": "tokenId",
          "type": "uint256"
        }
      ],
      "name": "tokenURI",
      "outputs": [
        {
          "internalType": "string",
          "name": "",
          "type": "string"
        }
      ],
      "stateMutability": "view",
      "type": "function"
    },
    {
      "inputs": [
        {
          "internalType": "uint256",
          "name": "tokenId",
          "type": "uint256"
        }
      ],
      "name": "mintPlayer",
      "outputs": [],
      "stateMutability": "nonpayable",
      "type": "function"
    }
  ],
  "bytecode": "0x608060405260405180604001604052806040518060400160405280600481526020017f6d616c650000000000000000000000000000000000000000000000000000000081525081526020016040518060400160405280600681526020017f66656d616c65000000000000000000000000000000000000000000000000000081525081525060109060026200009592919062000420565b5060405180606001604052806040518060400160405280600581526020017f68756d616e00000000000000000000000000000000000000000000000000000081525081526020016040518060400160405280600381526020017f646f67000000000000000000000000000000000000000000000000000000000081525081526020016040518060400160405280600781526020017f6d6f6e737465720000000000000000000000000000000000000000000000000081525081525060119060036200016292919062000487565b50604051806060016040528061040061ffff168152602001608061ffff16815260200161010061ffff168152506012906003620001a1929190620004ee565b5060405180606001604052806040518060400160405280600781526020017f68616e6467756e0000000000000000000000000000000000000000000000000081525081526020016040518060400160405280600781526020017f73686f7467756e0000000000000000000000000000000000000000000000000081525081526020016040518060400160405280600e81526020017f6d6f6e737465722d736c6179657200000000000000000000000000000000000081525081525060139060036200026e92919062000487565b503480156200027c57600080fd5b506040518060400160405280600881526020017f447973746f7069610000000000000000000000000000000000000000000000008152506040518060400160405280600881526020017f445953544f50494100000000000000000000000000000000000000000000000081525081600090805190602001906200030192919062000546565b5080600190805190602001906200031a92919062000546565b5050506001600a8190555062000345620003396200035260201b60201c565b6200035a60201b60201c565b42600c81905550620006c9565b600033905090565b6000600b60009054906101000a900473ffffffffffffffffffffffffffffffffffffffff16905081600b60006101000a81548173ffffffffffffffffffffffffffffffffffffffff021916908373ffffffffffffffffffffffffffffffffffffffff1602179055508173ffffffffffffffffffffffffffffffffffffffff168173ffffffffffffffffffffffffffffffffffffffff167f8be0079c531659141344cd1fd0a4f28419497f9722a3daafe3b4186f6b6457e060405160405180910390a35050565b82805482825590600052602060002090810192821562000474579160200282015b82811115620004735782518290805190602001906200046292919062000546565b509160200191906001019062000441565b5b509050620004839190620005d7565b5090565b828054828255906000526020600020908101928215620004db579160200282015b82811115620004da578251829080519060200190620004c992919062000546565b5091602001919060010190620004a8565b5b509050620004ea9190620005d7565b5090565b82805482825590600052602060002090810192821562000533579160200282015b8281111562000532578251829061ffff169055916020019190600101906200050f565b5b509050620005429190620005ff565b5090565b828054620005549062000664565b90600052602060002090601f016020900481019282620005785760008555620005c4565b82601f106200059357805160ff1916838001178555620005c4565b82800160010185558215620005c4579182015b82811115620005c3578251825591602001919060010190620005a6565b5b509050620005d39190620005ff565b5090565b5b80821115620005fb5760008181620005f191906200061e565b50600101620005d8565b5090565b5b808211156200061a57600081600090555060010162000600565b5090565b5080546200062c9062000664565b6000825580601f1062000640575062000661565b601f016020900490600052602060002090810190620006609190620005ff565b5b50565b600060028204905060018216806200067d57607f821691505b602082108114156200069457620006936200069a565b5b50919050565b7f4e487b7100000000000000000000000000000000000000000000000000000000600052602260045260246000fd5b61415d80620006d96000396000f3fe608060405234801561001057600080fd5b50600436106101375760003560e01c80636352211e116100b85780639e41b73f1161007c5780639e41b73f1461034e578063a22cb4651461037e578063b88d4fde1461039a578063c87b56dd146103b6578063e985e9c5146103e6578063f2fde38b1461041657610137565b80636352211e146102a857806370a08231146102d8578063715018a6146103085780638da5cb5b1461031257806395d89b411461033057610137565b806323b872dd116100ff57806323b872dd146101f45780632f745c59146102105780633de7439f1461024057806342842e0e1461025c5780634f6ccce71461027857610137565b806301ffc9a71461013c57806306fdde031461016c578063081812fc1461018a578063095ea7b3146101ba57806318160ddd146101d6575b600080fd5b61015660048036038101906101519190612af6565b610432565b60405161016391906130ee565b60405180910390f35b6101746104ac565b6040516101819190613109565b60405180910390f35b6101a4600480360381019061019f9190612b50565b61053e565b6040516101b19190613087565b60405180910390f35b6101d460048036038101906101cf9190612ab6565b6105c3565b005b6101de6106db565b6040516101eb919061338b565b60405180910390f35b61020e600480360381019061020991906129a0565b6106e8565b005b61022a60048036038101906102259190612ab6565b610748565b604051610237919061338b565b60405180910390f35b61025a60048036038101906102559190612b50565b6107ed565b005b610276600480360381019061027191906129a0565b610917565b005b610292600480360381019061028d9190612b50565b610937565b60405161029f919061338b565b60405180910390f35b6102c260048036038101906102bd9190612b50565b6109a8565b6040516102cf9190613087565b60405180910390f35b6102f260048036038101906102ed9190612933565b610a5a565b6040516102ff919061338b565b60405180910390f35b610310610b12565b005b61031a610b9a565b6040516103279190613087565b60405180910390f35b610338610bc4565b6040516103459190613109565b60405180910390f35b61036860048036038101906103639190612b50565b610c56565b6040516103759190613109565b60405180910390f35b61039860048036038101906103939190612a76565b610d70565b005b6103b460048036038101906103af91906129f3565b610ef1565b005b6103d060048036038101906103cb9190612b50565b610f53565b6040516103dd9190613109565b60405180910390f35b61040060048036038101906103fb9190612960565b611404565b60405161040d91906130ee565b60405180910390f35b610430600480360381019061042b9190612933565b611498565b005b60007f780e9d63000000000000000000000000000000000000000000000000000000007bffffffffffffffffffffffffffffffffffffffffffffffffffffffff1916827bffffffffffffffffffffffffffffffffffffffffffffffffffffffff191614806104a557506104a482611590565b5b9050919050565b6060600080546104bb9061360a565b80601f01602080910402602001604051908101604052809291908181526020018280546104e79061360a565b80156105345780601f1061050957610100808354040283529160200191610534565b820191906000526020600020905b81548152906001019060200180831161051757829003601f168201915b5050505050905090565b600061054982611672565b610588576040517f08c379a000000000000000000000000000000000000000000000000000000000815260040161057f9061328b565b60405180910390fd5b6004600083815260200190815260200160002060009054906101000a900473ffffffffffffffffffffffffffffffffffffffff169050919050565b60006105ce826109a8565b90508073ffffffffffffffffffffffffffffffffffffffff168373ffffffffffffffffffffffffffffffffffffffff16141561063f576040517f08c379a00000000000000000000000000000000000000000000000000000000081526004016106369061330b565b60405180910390fd5b8073ffffffffffffffffffffffffffffffffffffffff1661065e6116de565b73ffffffffffffffffffffffffffffffffffffffff16148061068d575061068c816106876116de565b611404565b5b6106cc576040517f08c379a00000000000000000000000000000000000000000000000000000000081526004016106c39061320b565b60405180910390fd5b6106d683836116e6565b505050565b6000600880549050905090565b6106f96106f36116de565b8261179f565b610738576040517f08c379a000000000000000000000000000000000000000000000000000000000815260040161072f9061332b565b60405180910390fd5b61074383838361187d565b505050565b600061075383610a5a565b8210610794576040517f08c379a000000000000000000000000000000000000000000000000000000000815260040161078b9061312b565b60405180910390fd5b600660008473ffffffffffffffffffffffffffffffffffffffff1673ffffffffffffffffffffffffffffffffffffffff168152602001908152602001600020600083815260200190815260200160002054905092915050565b6002600a541415610833576040517f08c379a000000000000000000000000000000000000000000000000000000000815260040161082a9061336b565b60405180910390fd5b6002600a819055506108436116de565b73ffffffffffffffffffffffffffffffffffffffff16610861610b9a565b73ffffffffffffffffffffffffffffffffffffffff16146108b7576040517f08c379a00000000000000000000000000000000000000000000000000000000081526004016108ae906132ab565b60405180910390fd5b611f4181106108fb576040517f08c379a00000000000000000000000000000000000000000000000000000000081526004016108f2906132cb565b60405180910390fd5b61090c610906610b9a565b82611ad9565b6001600a8190555050565b61093283838360405180602001604052806000815250610ef1565b505050565b60006109416106db565b8210610982576040517f08c379a00000000000000000000000000000000000000000000000000000000081526004016109799061334b565b60405180910390fd5b60088281548110610996576109956137a3565b5b90600052602060002001549050919050565b6000806002600084815260200190815260200160002060009054906101000a900473ffffffffffffffffffffffffffffffffffffffff169050600073ffffffffffffffffffffffffffffffffffffffff168173ffffffffffffffffffffffffffffffffffffffff161415610a51576040517f08c379a0000000000000000000000000000000000000000000000000000000008152600401610a489061324b565b60405180910390fd5b80915050919050565b60008073ffffffffffffffffffffffffffffffffffffffff168273ffffffffffffffffffffffffffffffffffffffff161415610acb576040517f08c379a0000000000000000000000000000000000000000000000000000000008152600401610ac29061322b565b60405180910390fd5b600360008373ffffffffffffffffffffffffffffffffffffffff1673ffffffffffffffffffffffffffffffffffffffff168152602001908152602001600020549050919050565b610b1a6116de565b73ffffffffffffffffffffffffffffffffffffffff16610b38610b9a565b73ffffffffffffffffffffffffffffffffffffffff1614610b8e576040517f08c379a0000000000000000000000000000000000000000000000000000000008152600401610b85906132ab565b60405180910390fd5b610b986000611af7565b565b6000600b60009054906101000a900473ffffffffffffffffffffffffffffffffffffffff16905090565b606060018054610bd39061360a565b80601f0160208091040260200160405190810160405280929190818152602001828054610bff9061360a565b8015610c4c5780601f10610c2157610100808354040283529160200191610c4c565b820191906000526020600020905b815481529060010190602001808311610c2f57829003601f168201915b5050505050905090565b6060610d69826040518060400160405280600681526020017f574541504f4e00000000000000000000000000000000000000000000000000008152506013805480602002602001604051908101604052809291908181526020016000905b82821015610d60578382906000526020600020018054610cd39061360a565b80601f0160208091040260200160405190810160405280929190818152602001828054610cff9061360a565b8015610d4c5780601f10610d2157610100808354040283529160200191610d4c565b820191906000526020600020905b815481529060010190602001808311610d2f57829003601f168201915b505050505081526020019060010190610cb4565b50505050611bbd565b9050919050565b610d786116de565b73ffffffffffffffffffffffffffffffffffffffff168273ffffffffffffffffffffffffffffffffffffffff161415610de6576040517f08c379a0000000000000000000000000000000000000000000000000000000008152600401610ddd906131cb565b60405180910390fd5b8060056000610df36116de565b73ffffffffffffffffffffffffffffffffffffffff1673ffffffffffffffffffffffffffffffffffffffff16815260200190815260200160002060008473ffffffffffffffffffffffffffffffffffffffff1673ffffffffffffffffffffffffffffffffffffffff16815260200190815260200160002060006101000a81548160ff0219169083151502179055508173ffffffffffffffffffffffffffffffffffffffff16610ea06116de565b73ffffffffffffffffffffffffffffffffffffffff167f17307eab39ab6107e8899845ad3d59bd9653f200f220920489ca2b5937696c3183604051610ee591906130ee565b60405180910390a35050565b610f02610efc6116de565b8361179f565b610f41576040517f08c379a0000000000000000000000000000000000000000000000000000000008152600401610f389061332b565b60405180910390fd5b610f4d84848484611c4e565b50505050565b6060610f5d612832565b60006040518060a0016040528060628152602001613f7660629139828280610f849061366d565b935060208110610f9757610f966137a3565b5b60200201819052506040518060800160405280604781526020016140bb60479139828280610fc49061366d565b935060208110610fd757610fd66137a3565b5b6020020181905250604051806080016040528060488152602001613fd8604891398282806110049061366d565b935060208110611017576110166137a3565b5b6020020181905250604051806060016040528060308152602001613f46603091398282806110449061366d565b935060208110611057576110566137a3565b5b6020020181905250604051806060016040528060268152602001614102602691398282806110849061366d565b935060208110611097576110966137a3565b5b60200201819052506110a884610c56565b8282806110b49061366d565b9350602081106110c7576110c66137a3565b5b60200201819052506040518060600160405280602d8152602001614020602d91398282806110f49061366d565b935060208110611107576111066137a3565b5b602002018190525061111884610c56565b8282806111249061366d565b935060208110611137576111366137a3565b5b60200201819052506040518060600160405280602d8152602001613ebe602d91398282806111649061366d565b935060208110611177576111766137a3565b5b602002018190525061118884610c56565b8282806111949061366d565b9350602081106111a7576111a66137a3565b5b60200201819052506040518060600160405280602d8152602001613eeb602d91398282806111d49061366d565b9350602081106111e7576111e66137a3565b5b60200201819052506111f884610c56565b8282806112049061366d565b935060208110611217576112166137a3565b5b60200201819052506040518060600160405280602e815260200161408d602e91398282806112449061366d565b935060208110611257576112566137a3565b5b602002018190525061126884610c56565b8282806112749061366d565b935060208110611287576112866137a3565b5b60200201819052506040518060600160405280602e8152602001613f18602e91398282806112b49061366d565b9350602081106112c7576112c66137a3565b5b60200201819052506040518060400160405280600d81526020017f3c2f746578743e3c2f7376673e000000000000000000000000000000000000008152508282806113119061366d565b935060208110611324576113236137a3565b5b6020020181905250600060405180602001604052806000815250905060005b82811015611397578184826020811061135f5761135e6137a3565b5b6020020151604051602001611375929190612fcf565b6040516020818303038152906040529150806113909061366d565b9050611343565b5060006113d46113a687611caa565b6113af84611e0b565b6040516020016113c0929190613020565b604051602081830303815290604052611e0b565b9050806040516020016113e79190613065565b604051602081830303815290604052915081945050505050919050565b6000600560008473ffffffffffffffffffffffffffffffffffffffff1673ffffffffffffffffffffffffffffffffffffffff16815260200190815260200160002060008373ffffffffffffffffffffffffffffffffffffffff1673ffffffffffffffffffffffffffffffffffffffff16815260200190815260200160002060009054906101000a900460ff16905092915050565b6114a06116de565b73ffffffffffffffffffffffffffffffffffffffff166114be610b9a565b73ffffffffffffffffffffffffffffffffffffffff1614611514576040517f08c379a000000000000000000000000000000000000000000000000000000000815260040161150b906132ab565b60405180910390fd5b600073ffffffffffffffffffffffffffffffffffffffff168173ffffffffffffffffffffffffffffffffffffffff161415611584576040517f08c379a000000000000000000000000000000000000000000000000000000000815260040161157b9061316b565b60405180910390fd5b61158d81611af7565b50565b60007f80ac58cd000000000000000000000000000000000000000000000000000000007bffffffffffffffffffffffffffffffffffffffffffffffffffffffff1916827bffffffffffffffffffffffffffffffffffffffffffffffffffffffff1916148061165b57507f5b5e139f000000000000000000000000000000000000000000000000000000007bffffffffffffffffffffffffffffffffffffffffffffffffffffffff1916827bffffffffffffffffffffffffffffffffffffffffffffffffffffffff1916145b8061166b575061166a82611fa3565b5b9050919050565b60008073ffffffffffffffffffffffffffffffffffffffff166002600084815260200190815260200160002060009054906101000a900473ffffffffffffffffffffffffffffffffffffffff1673ffffffffffffffffffffffffffffffffffffffff1614159050919050565b600033905090565b816004600083815260200190815260200160002060006101000a81548173ffffffffffffffffffffffffffffffffffffffff021916908373ffffffffffffffffffffffffffffffffffffffff160217905550808273ffffffffffffffffffffffffffffffffffffffff16611759836109a8565b73ffffffffffffffffffffffffffffffffffffffff167f8c5be1e5ebec7d5bd14f71427d1e84f3dd0314c0f7b2291e5b200ac8c7c3b92560405160405180910390a45050565b60006117aa82611672565b6117e9576040517f08c379a00000000000000000000000000000000000000000000000000000000081526004016117e0906131eb565b60405180910390fd5b60006117f4836109a8565b90508073ffffffffffffffffffffffffffffffffffffffff168473ffffffffffffffffffffffffffffffffffffffff16148061186357508373ffffffffffffffffffffffffffffffffffffffff1661184b8461053e565b73ffffffffffffffffffffffffffffffffffffffff16145b8061187457506118738185611404565b5b91505092915050565b8273ffffffffffffffffffffffffffffffffffffffff1661189d826109a8565b73ffffffffffffffffffffffffffffffffffffffff16146118f3576040517f08c379a00000000000000000000000000000000000000000000000000000000081526004016118ea906132eb565b60405180910390fd5b600073ffffffffffffffffffffffffffffffffffffffff168273ffffffffffffffffffffffffffffffffffffffff161415611963576040517f08c379a000000000000000000000000000000000000000000000000000000000815260040161195a906131ab565b60405180910390fd5b61196e83838361200d565b6119796000826116e6565b6001600360008573ffffffffffffffffffffffffffffffffffffffff1673ffffffffffffffffffffffffffffffffffffffff16815260200190815260200160002060008282546119c99190613520565b925050819055506001600360008473ffffffffffffffffffffffffffffffffffffffff1673ffffffffffffffffffffffffffffffffffffffff1681526020019081526020016000206000828254611a20919061343f565b92505081905550816002600083815260200190815260200160002060006101000a81548173ffffffffffffffffffffffffffffffffffffffff021916908373ffffffffffffffffffffffffffffffffffffffff160217905550808273ffffffffffffffffffffffffffffffffffffffff168473ffffffffffffffffffffffffffffffffffffffff167fddf252ad1be2c89b69c2b068fc378daa952ba7f163c4a11628f55a4df523b3ef60405160405180910390a4505050565b611af3828260405180602001604052806000815250612121565b5050565b6000600b60009054906101000a900473ffffffffffffffffffffffffffffffffffffffff16905081600b60006101000a81548173ffffffffffffffffffffffffffffffffffffffff021916908373ffffffffffffffffffffffffffffffffffffffff1602179055508173ffffffffffffffffffffffffffffffffffffffff168173ffffffffffffffffffffffffffffffffffffffff167f8be0079c531659141344cd1fd0a4f28419497f9722a3daafe3b4186f6b6457e060405160405180910390a35050565b60606000611bf384611bce87611caa565b604051602001611bdf929190612fcf565b60405160208183030381529060405261217c565b9050600083845183611c0591906136b6565b81518110611c1657611c156137a3565b5b6020026020010151905080604051602001611c319190612ff3565b604051602081830303815290604052905080925050509392505050565b611c5984848461187d565b611c65848484846121af565b611ca4576040517f08c379a0000000000000000000000000000000000000000000000000000000008152600401611c9b9061314b565b60405180910390fd5b50505050565b60606000821415611cf2576040518060400160405280600181526020017f30000000000000000000000000000000000000000000000000000000000000008152509050611e06565b600082905060005b60008214611d24578080611d0d9061366d565b915050600a82611d1d9190613495565b9150611cfa565b60008167ffffffffffffffff811115611d4057611d3f6137d2565b5b6040519080825280601f01601f191660200182016040528015611d725781602001600182028036833780820191505090505b5090505b60008514611dff57600182611d8b9190613520565b9150600a85611d9a91906136b6565b6030611da6919061343f565b60f81b818381518110611dbc57611dbb6137a3565b5b60200101907effffffffffffffffffffffffffffffffffffffffffffffffffffffffffffff1916908160001a905350600a85611df89190613495565b9450611d76565b8093505050505b919050565b60606000825190506000811415611e345760405180602001604052806000815250915050611f9e565b60006003600283611e45919061343f565b611e4f9190613495565b6004611e5b91906134c6565b90506000602082611e6c919061343f565b67ffffffffffffffff811115611e8557611e846137d2565b5b6040519080825280601f01601f191660200182016040528015611eb75781602001600182028036833780820191505090505b509050600060405180606001604052806040815260200161404d604091399050600181016020830160005b86811015611f5b5760038101905062ffffff818a015116603f8160121c168401518060081b905060ff603f83600c1c1686015116810190508060081b905060ff603f8360061c1686015116810190508060081b905060ff603f831686015116810190508060e01b90508084526004840193505050611ee2565b506003860660018114611f755760028114611f8557611f90565b613d3d60f01b6002830352611f90565b603d60f81b60018303525b508484525050819450505050505b919050565b60007f01ffc9a7000000000000000000000000000000000000000000000000000000007bffffffffffffffffffffffffffffffffffffffffffffffffffffffff1916827bffffffffffffffffffffffffffffffffffffffffffffffffffffffff1916149050919050565b612018838383612346565b600073ffffffffffffffffffffffffffffffffffffffff168373ffffffffffffffffffffffffffffffffffffffff16141561205b576120568161234b565b61209a565b8173ffffffffffffffffffffffffffffffffffffffff168373ffffffffffffffffffffffffffffffffffffffff1614612099576120988382612394565b5b5b600073ffffffffffffffffffffffffffffffffffffffff168273ffffffffffffffffffffffffffffffffffffffff1614156120dd576120d881612501565b61211c565b8273ffffffffffffffffffffffffffffffffffffffff168273ffffffffffffffffffffffffffffffffffffffff161461211b5761211a82826125d2565b5b5b505050565b61212b8383612651565b61213860008484846121af565b612177576040517f08c379a000000000000000000000000000000000000000000000000000000000815260040161216e9061314b565b60405180910390fd5b505050565b60008160405160200161218f9190612fb8565b6040516020818303038152906040528051906020012060001c9050919050565b60006121d08473ffffffffffffffffffffffffffffffffffffffff1661281f565b15612339578373ffffffffffffffffffffffffffffffffffffffff1663150b7a026121f96116de565b8786866040518563ffffffff1660e01b815260040161221b94939291906130a2565b602060405180830381600087803b15801561223557600080fd5b505af192505050801561226657506040513d601f19601f820116820180604052508101906122639190612b23565b60015b6122e9573d8060008114612296576040519150601f19603f3d011682016040523d82523d6000602084013e61229b565b606091505b506000815114156122e1576040517f08c379a00000000000000000000000000000000000000000000000000000000081526004016122d89061314b565b60405180910390fd5b805181602001fd5b63150b7a0260e01b7bffffffffffffffffffffffffffffffffffffffffffffffffffffffff1916817bffffffffffffffffffffffffffffffffffffffffffffffffffffffff19161491505061233e565b600190505b949350505050565b505050565b6008805490506009600083815260200190815260200160002081905550600881908060018154018082558091505060019003906000526020600020016000909190919091505550565b600060016123a184610a5a565b6123ab9190613520565b9050600060076000848152602001908152602001600020549050818114612490576000600660008673ffffffffffffffffffffffffffffffffffffffff1673ffffffffffffffffffffffffffffffffffffffff168152602001908152602001600020600084815260200190815260200160002054905080600660008773ffffffffffffffffffffffffffffffffffffffff1673ffffffffffffffffffffffffffffffffffffffff168152602001908152602001600020600084815260200190815260200160002081905550816007600083815260200190815260200160002081905550505b6007600084815260200190815260200160002060009055600660008573ffffffffffffffffffffffffffffffffffffffff1673ffffffffffffffffffffffffffffffffffffffff16815260200190815260200160002060008381526020019081526020016000206000905550505050565b600060016008805490506125159190613520565b9050600060096000848152602001908152602001600020549050600060088381548110612545576125446137a3565b5b906000526020600020015490508060088381548110612567576125666137a3565b5b9060005260206000200181905550816009600083815260200190815260200160002081905550600960008581526020019081526020016000206000905560088054806125b6576125b5613774565b5b6001900381819060005260206000200160009055905550505050565b60006125dd83610a5a565b905081600660008573ffffffffffffffffffffffffffffffffffffffff1673ffffffffffffffffffffffffffffffffffffffff168152602001908152602001600020600083815260200190815260200160002081905550806007600084815260200190815260200160002081905550505050565b600073ffffffffffffffffffffffffffffffffffffffff168273ffffffffffffffffffffffffffffffffffffffff1614156126c1576040517f08c379a00000000000000000000000000000000000000000000000000000000081526004016126b89061326b565b60405180910390fd5b6126ca81611672565b1561270a576040517f08c379a00000000000000000000000000000000000000000000000000000000081526004016127019061318b565b60405180910390fd5b6127166000838361200d565b6001600360008473ffffffffffffffffffffffffffffffffffffffff1673ffffffffffffffffffffffffffffffffffffffff1681526020019081526020016000206000828254612766919061343f565b92505081905550816002600083815260200190815260200160002060006101000a81548173ffffffffffffffffffffffffffffffffffffffff021916908373ffffffffffffffffffffffffffffffffffffffff160217905550808273ffffffffffffffffffffffffffffffffffffffff16600073ffffffffffffffffffffffffffffffffffffffff167fddf252ad1be2c89b69c2b068fc378daa952ba7f163c4a11628f55a4df523b3ef60405160405180910390a45050565b600080823b905060008111915050919050565b6040518061040001604052806020905b60608152602001906001900390816128425790505090565b600061286d612868846133cb565b6133a6565b90508281526020810184848401111561288957612888613806565b5b6128948482856135c8565b509392505050565b6000813590506128ab81613e61565b92915050565b6000813590506128c081613e78565b92915050565b6000813590506128d581613e8f565b92915050565b6000815190506128ea81613e8f565b92915050565b600082601f83011261290557612904613801565b5b813561291584826020860161285a565b91505092915050565b60008135905061292d81613ea6565b92915050565b60006020828403121561294957612948613810565b5b60006129578482850161289c565b91505092915050565b6000806040838503121561297757612976613810565b5b60006129858582860161289c565b92505060206129968582860161289c565b9150509250929050565b6000806000606084860312156129b9576129b8613810565b5b60006129c78682870161289c565b93505060206129d88682870161289c565b92505060406129e98682870161291e565b9150509250925092565b60008060008060808587031215612a0d57612a0c613810565b5b6000612a1b8782880161289c565b9450506020612a2c8782880161289c565b9350506040612a3d8782880161291e565b925050606085013567ffffffffffffffff811115612a5e57612a5d61380b565b5b612a6a878288016128f0565b91505092959194509250565b60008060408385031215612a8d57612a8c613810565b5b6000612a9b8582860161289c565b9250506020612aac858286016128b1565b9150509250929050565b60008060408385031215612acd57612acc613810565b5b6000612adb8582860161289c565b9250506020612aec8582860161291e565b9150509250929050565b600060208284031215612b0c57612b0b613810565b5b6000612b1a848285016128c6565b91505092915050565b600060208284031215612b3957612b38613810565b5b6000612b47848285016128db565b91505092915050565b600060208284031215612b6657612b65613810565b5b6000612b748482850161291e565b91505092915050565b612b8681613554565b82525050565b612b9581613566565b82525050565b6000612ba6826133fc565b612bb08185613412565b9350612bc08185602086016135d7565b612bc981613815565b840191505092915050565b6000612bdf82613407565b612be98185613423565b9350612bf98185602086016135d7565b612c0281613815565b840191505092915050565b6000612c1882613407565b612c228185613434565b9350612c328185602086016135d7565b80840191505092915050565b6000612c4b602b83613423565b9150612c5682613826565b604082019050919050565b6000612c6e603283613423565b9150612c7982613875565b604082019050919050565b6000612c91602683613423565b9150612c9c826138c4565b604082019050919050565b6000612cb4601c83613423565b9150612cbf82613913565b602082019050919050565b6000612cd7602483613423565b9150612ce28261393c565b604082019050919050565b6000612cfa601983613423565b9150612d058261398b565b602082019050919050565b6000612d1d602c83613423565b9150612d28826139b4565b604082019050919050565b6000612d40600183613434565b9150612d4b82613a03565b600182019050919050565b6000612d63603883613423565b9150612d6e82613a2c565b604082019050919050565b6000612d86602a83613423565b9150612d9182613a7b565b604082019050919050565b6000612da9602983613423565b9150612db482613aca565b604082019050919050565b6000612dcc600283613434565b9150612dd782613b19565b600282019050919050565b6000612def600f83613434565b9150612dfa82613b42565b600f82019050919050565b6000612e12602083613423565b9150612e1d82613b6b565b602082019050919050565b6000612e35602c83613423565b9150612e4082613b94565b604082019050919050565b6000612e58602083613423565b9150612e6382613be3565b602082019050919050565b6000612e7b600483613434565b9150612e8682613c0c565b600482019050919050565b6000612e9e601083613423565b9150612ea982613c35565b602082019050919050565b6000612ec1602983613423565b9150612ecc82613c5e565b604082019050919050565b6000612ee4604d83613434565b9150612eef82613cad565b604d82019050919050565b6000612f07602183613423565b9150612f1282613d22565b604082019050919050565b6000612f2a601d83613434565b9150612f3582613d71565b601d82019050919050565b6000612f4d603183613423565b9150612f5882613d9a565b604082019050919050565b6000612f70602c83613423565b9150612f7b82613de9565b604082019050919050565b6000612f93601f83613423565b9150612f9e82613e38565b602082019050919050565b612fb2816135be565b82525050565b6000612fc48284612c0d565b915081905092915050565b6000612fdb8285612c0d565b9150612fe78284612c0d565b91508190509392505050565b6000612fff8284612c0d565b915061300a82612d33565b915061301582612e6e565b915081905092915050565b600061302b82612de2565b91506130378285612c0d565b915061304282612ed7565b915061304e8284612c0d565b915061305982612dbf565b91508190509392505050565b600061307082612f1d565b915061307c8284612c0d565b915081905092915050565b600060208201905061309c6000830184612b7d565b92915050565b60006080820190506130b76000830187612b7d565b6130c46020830186612b7d565b6130d16040830185612fa9565b81810360608301526130e38184612b9b565b905095945050505050565b60006020820190506131036000830184612b8c565b92915050565b600060208201905081810360008301526131238184612bd4565b905092915050565b6000602082019050818103600083015261314481612c3e565b9050919050565b6000602082019050818103600083015261316481612c61565b9050919050565b6000602082019050818103600083015261318481612c84565b9050919050565b600060208201905081810360008301526131a481612ca7565b9050919050565b600060208201905081810360008301526131c481612cca565b9050919050565b600060208201905081810360008301526131e481612ced565b9050919050565b6000602082019050818103600083015261320481612d10565b9050919050565b6000602082019050818103600083015261322481612d56565b9050919050565b6000602082019050818103600083015261324481612d79565b9050919050565b6000602082019050818103600083015261326481612d9c565b9050919050565b6000602082019050818103600083015261328481612e05565b9050919050565b600060208201905081810360008301526132a481612e28565b9050919050565b600060208201905081810360008301526132c481612e4b565b9050919050565b600060208201905081810360008301526132e481612e91565b9050919050565b6000602082019050818103600083015261330481612eb4565b9050919050565b6000602082019050818103600083015261332481612efa565b9050919050565b6000602082019050818103600083015261334481612f40565b9050919050565b6000602082019050818103600083015261336481612f63565b9050919050565b6000602082019050818103600083015261338481612f86565b9050919050565b60006020820190506133a06000830184612fa9565b92915050565b60006133b06133c1565b90506133bc828261363c565b919050565b6000604051905090565b600067ffffffffffffffff8211156133e6576133e56137d2565b5b6133ef82613815565b9050602081019050919050565b600081519050919050565b600081519050919050565b600082825260208201905092915050565b600082825260208201905092915050565b600081905092915050565b600061344a826135be565b9150613455836135be565b9250827fffffffffffffffffffffffffffffffffffffffffffffffffffffffffffffffff0382111561348a576134896136e7565b5b828201905092915050565b60006134a0826135be565b91506134ab836135be565b9250826134bb576134ba613716565b5b828204905092915050565b60006134d1826135be565b91506134dc836135be565b9250817fffffffffffffffffffffffffffffffffffffffffffffffffffffffffffffffff0483118215151615613515576135146136e7565b5b828202905092915050565b600061352b826135be565b9150613536836135be565b925082821015613549576135486136e7565b5b828203905092915050565b600061355f8261359e565b9050919050565b60008115159050919050565b60007fffffffff0000000000000000000000000000000000000000000000000000000082169050919050565b600073ffffffffffffffffffffffffffffffffffffffff82169050919050565b6000819050919050565b82818337600083830152505050565b60005b838110156135f55780820151818401526020810190506135da565b83811115613604576000848401525b50505050565b6000600282049050600182168061362257607f821691505b6020821081141561363657613635613745565b5b50919050565b61364582613815565b810181811067ffffffffffffffff82111715613664576136636137d2565b5b80604052505050565b6000613678826135be565b91507fffffffffffffffffffffffffffffffffffffffffffffffffffffffffffffffff8214156136ab576136aa6136e7565b5b600182019050919050565b60006136c1826135be565b91506136cc836135be565b9250826136dc576136db613716565b5b828206905092915050565b7f4e487b7100000000000000000000000000000000000000000000000000000000600052601160045260246000fd5b7f4e487b7100000000000000000000000000000000000000000000000000000000600052601260045260246000fd5b7f4e487b7100000000000000000000000000000000000000000000000000000000600052602260045260246000fd5b7f4e487b7100000000000000000000000000000000000000000000000000000000600052603160045260246000fd5b7f4e487b7100000000000000000000000000000000000000000000000000000000600052603260045260246000fd5b7f4e487b7100000000000000000000000000000000000000000000000000000000600052604160045260246000fd5b600080fd5b600080fd5b600080fd5b600080fd5b6000601f19601f8301169050919050565b7f455243373231456e756d657261626c653a206f776e657220696e646578206f7560008201527f74206f6620626f756e6473000000000000000000000000000000000000000000602082015250565b7f4552433732313a207472616e7366657220746f206e6f6e20455243373231526560008201527f63656976657220696d706c656d656e7465720000000000000000000000000000602082015250565b7f4f776e61626c653a206e6577206f776e657220697320746865207a65726f206160008201527f6464726573730000000000000000000000000000000000000000000000000000602082015250565b7f4552433732313a20746f6b656e20616c7265616479206d696e74656400000000600082015250565b7f4552433732313a207472616e7366657220746f20746865207a65726f2061646460008201527f7265737300000000000000000000000000000000000000000000000000000000602082015250565b7f4552433732313a20617070726f766520746f2063616c6c657200000000000000600082015250565b7f4552433732313a206f70657261746f7220717565727920666f72206e6f6e657860008201527f697374656e7420746f6b656e0000000000000000000000000000000000000000602082015250565b7f2000000000000000000000000000000000000000000000000000000000000000600082015250565b7f4552433732313a20617070726f76652063616c6c6572206973206e6f74206f7760008201527f6e6572206e6f7220617070726f76656420666f7220616c6c0000000000000000602082015250565b7f4552433732313a2062616c616e636520717565727920666f7220746865207a6560008201527f726f206164647265737300000000000000000000000000000000000000000000602082015250565b7f4552433732313a206f776e657220717565727920666f72206e6f6e657869737460008201527f656e7420746f6b656e0000000000000000000000000000000000000000000000602082015250565b7f227d000000000000000000000000000000000000000000000000000000000000600082015250565b7f7b226e616d65223a202242616720230000000000000000000000000000000000600082015250565b7f4552433732313a206d696e7420746f20746865207a65726f2061646472657373600082015250565b7f4552433732313a20617070726f76656420717565727920666f72206e6f6e657860008201527f697374656e7420746f6b656e0000000000000000000000000000000000000000602082015250565b7f4f776e61626c653a2063616c6c6572206973206e6f7420746865206f776e6572600082015250565b7f7465737400000000000000000000000000000000000000000000000000000000600082015250565b7f546f6b656e20494420696e76616c696400000000000000000000000000000000600082015250565b7f4552433732313a207472616e73666572206f6620746f6b656e2074686174206960008201527f73206e6f74206f776e0000000000000000000000000000000000000000000000602082015250565b7f222c20226465736372697074696f6e223a2022447973746f706961206973206160008201527f2067616d652e222c2022696d616765223a2022646174613a696d6167652f737660208201527f672b786d6c3b6261736536342c00000000000000000000000000000000000000604082015250565b7f4552433732313a20617070726f76616c20746f2063757272656e74206f776e6560008201527f7200000000000000000000000000000000000000000000000000000000000000602082015250565b7f646174613a6170706c69636174696f6e2f6a736f6e3b6261736536342c000000600082015250565b7f4552433732313a207472616e736665722063616c6c6572206973206e6f74206f60008201527f776e6572206e6f7220617070726f766564000000000000000000000000000000602082015250565b7f455243373231456e756d657261626c653a20676c6f62616c20696e646578206f60008201527f7574206f6620626f756e64730000000000000000000000000000000000000000602082015250565b7f5265656e7472616e637947756172643a207265656e7472616e742063616c6c00600082015250565b613e6a81613554565b8114613e7557600080fd5b50565b613e8181613566565b8114613e8c57600080fd5b50565b613e9881613572565b8114613ea357600080fd5b50565b613eaf816135be565b8114613eba57600080fd5b5056fe3c2f746578743e3c7465787420783d2231302220793d2236302220636c6173733d22626173655768697465223e3c2f746578743e3c7465787420783d2231302220793d2238302220636c6173733d22626173655768697465223e3c2f746578743e3c7465787420783d2231302220793d223132302220636c6173733d22626173655768697465223e3c726563742077696474683d223130302522206865696768743d2231303025222066696c6c3d22626c61636b22202f3e3c73766720786d6c6e733d22687474703a2f2f7777772e77332e6f72672f323030302f73766722207072657365727665417370656374526174696f3d22784d696e594d696e206d656574222076696577426f783d223020302033353020333530223e2e62617365477265656e207b2066696c6c3a20677265656e3b20666f6e742d66616d696c793a2073657269663b20666f6e742d73697a653a20313470783b207d3c2f7374796c653e3c2f746578743e3c7465787420783d2231302220793d2234302220636c6173733d2262617365477265656e223e4142434445464748494a4b4c4d4e4f505152535455565758595a6162636465666768696a6b6c6d6e6f707172737475767778797a303132333435363738392b2f3c2f746578743e3c7465787420783d2231302220793d223130302220636c6173733d22626173655768697465223e3c7374796c653e2e626173655768697465207b2066696c6c3a2077686974653b20666f6e742d66616d696c793a2073657269663b20666f6e742d73697a653a20313470783b207d3c7465787420783d2231302220793d2232302220636c6173733d22626173655768697465223ea2646970667358221220c3e7079276af90572d4193d3a2827f81fe7441f6d8b3735108561f913ef5f3d264736f6c63430008070033",
  "immutableReferences": {},
  "source": "// SPDX-License-Identifier: MIT\n\npragma solidity ^0.8.0;\n\nimport \"./FullERC721.sol\";\n\ncontract Dystopia21 is ERC721Enumerable, ReentrancyGuard, Ownable {\n    \n\tuint256 private creationTime;\n\tuint256 private politicalSkill;\n\tuint256 private shootingSkill;\n\n\tuint256 private ageRemaining;\n\t\n\tstring[] private gender = [ \"male\", \"female\" ];\n\n\tstring[] private species = [ \"human\", \"dog\", \"monster\" ];\n\n\tuint256[] private maxAge = [ 1024, 128, 256];\n\n\tstring[] private weapons = [ \"handgun\", \"shotgun\", \"monster-slayer\" ];\n\n    constructor() ERC721(\"Dystopia\", \"DYSTOPIA\") Ownable() {\n\t\tcreationTime = block.timestamp;\n\t}\n\n    function random(string memory input) internal pure returns (uint256) {\n        return uint256(keccak256(abi.encodePacked(input)));\n    }\n\n    function getWeapon(uint256 tokenId) public view returns (string memory) {\n        return pluck(tokenId, \"WEAPON\", weapons);\n    }\n\n    function pluck(uint256 tokenId, string memory keyPrefix, string[] memory sourceArray) internal view returns (string memory) {\n        uint256 rand = random(string(abi.encodePacked(keyPrefix, Strings.toString(tokenId))));\n        string memory output = sourceArray[rand % sourceArray.length];\n        output = string(abi.encodePacked(output, \" \", \"test\"));\n        return output;\n    }\n\n    function tokenURI(uint256 tokenId) override public view returns (string memory) {\n        string[32] memory parts;\n\t\tuint256 counter = 0;\n        parts[counter++] = '<svg xmlns=\"http://www.w3.org/2000/svg\" preserveAspectRatio=\"xMinYMin meet\" viewBox=\"0 0 350 350\">';\n\t\tparts[counter++] = '<style>.baseWhite { fill: white; font-family: serif; font-size: 14px; }';\n\t\tparts[counter++] = '.baseGreen { fill: green; font-family: serif; font-size: 14px; }</style>';\n\t\tparts[counter++] = '<rect width=\"100%\" height=\"100%\" fill=\"black\" />';\n\t\tparts[counter++] = '<text x=\"10\" y=\"20\" class=\"baseWhite\">';\n\n        parts[counter++] = getWeapon(tokenId);\n\n        parts[counter++] = '</text><text x=\"10\" y=\"40\" class=\"baseGreen\">';\n\n        parts[counter++] = getWeapon(tokenId);\n\n        parts[counter++] = '</text><text x=\"10\" y=\"60\" class=\"baseWhite\">';\n\n        parts[counter++] = getWeapon(tokenId);\n\n        parts[counter++] = '</text><text x=\"10\" y=\"80\" class=\"baseWhite\">';\n\n        parts[counter++] = getWeapon(tokenId);\n\n        parts[counter++] = '</text><text x=\"10\" y=\"100\" class=\"baseWhite\">';\n\n        parts[counter++] = getWeapon(tokenId);\n\n        parts[counter++] = '</text><text x=\"10\" y=\"120\" class=\"baseWhite\">';\n\n        parts[counter++] = '</text></svg>';\n\n        string memory output = \"\";\n\t\tfor(uint256 i = 0; i < counter; ++i)\n\t\t{\n\t\t\toutput = string(abi.encodePacked(output, parts[i]));\n\t\t}\n\n        string memory json = Base64.encode(bytes(string(abi.encodePacked('{\"name\": \"Bag #', Strings.toString(tokenId), '\", \"description\": \"Dystopia is a game.\", \"image\": \"data:image/svg+xml;base64,', Base64.encode(bytes(output)), '\"}'))));\n        output = string(abi.encodePacked('data:application/json;base64,', json));\n\n        return output;\n    }\n\n    function mintPlayer(uint256 tokenId) public nonReentrant onlyOwner {\n        require(tokenId < 8001, \"Token ID invalid\");\n        _safeMint(owner(), tokenId);\n    }\n}\n",
  "sourcePath": "/home/ec2-user/github/fcc-dapp/src/contracts/Dystopia21.sol",
  "compiler": {
    "name": "solc",
    "version": "0.8.7+commit.e28d00a7.Emscripten.clang"
  },
  "schemaVersion": "3.4.3",
  "updatedAt": "2021-11-13T02:25:12.882Z",
  "devdoc": {
    "kind": "dev",
    "methods": {
      "approve(address,uint256)": {
        "details": "See {IERC721-approve}."
      },
      "balanceOf(address)": {
        "details": "See {IERC721-balanceOf}."
      },
      "getApproved(uint256)": {
        "details": "See {IERC721-getApproved}."
      },
      "isApprovedForAll(address,address)": {
        "details": "See {IERC721-isApprovedForAll}."
      },
      "name()": {
        "details": "See {IERC721Metadata-name}."
      },
      "owner()": {
        "details": "Returns the address of the current owner."
      },
      "ownerOf(uint256)": {
        "details": "See {IERC721-ownerOf}."
      },
      "renounceOwnership()": {
        "details": "Leaves the contract without owner. It will not be possible to call `onlyOwner` functions anymore. Can only be called by the current owner. NOTE: Renouncing ownership will leave the contract without an owner, thereby removing any functionality that is only available to the owner."
      },
      "safeTransferFrom(address,address,uint256)": {
        "details": "See {IERC721-safeTransferFrom}."
      },
      "safeTransferFrom(address,address,uint256,bytes)": {
        "details": "See {IERC721-safeTransferFrom}."
      },
      "setApprovalForAll(address,bool)": {
        "details": "See {IERC721-setApprovalForAll}."
      },
      "supportsInterface(bytes4)": {
        "details": "See {IERC165-supportsInterface}."
      },
      "symbol()": {
        "details": "See {IERC721Metadata-symbol}."
      },
      "tokenByIndex(uint256)": {
        "details": "See {IERC721Enumerable-tokenByIndex}."
      },
      "tokenOfOwnerByIndex(address,uint256)": {
        "details": "See {IERC721Enumerable-tokenOfOwnerByIndex}."
      },
      "tokenURI(uint256)": {
        "details": "See {IERC721Metadata-tokenURI}."
      },
      "totalSupply()": {
        "details": "See {IERC721Enumerable-totalSupply}."
      },
      "transferFrom(address,address,uint256)": {
        "details": "See {IERC721-transferFrom}."
      },
      "transferOwnership(address)": {
        "details": "Transfers ownership of the contract to a new account (`newOwner`). Can only be called by the current owner."
      }
    },
    "version": 1
  },
  "userdoc": {
    "kind": "user",
    "methods": {},
    "version": 1
  }
}