{
  "contractName": "FantasyCricketCoin",
  "abi": [
    {
      "inputs": [],
      "stateMutability": "nonpayable",
      "type": "constructor"
    },
    {
      "anonymous": false,
      "inputs": [
        {
          "indexed": true,
          "internalType": "address",
          "name": "owner",
          "type": "address"
        },
        {
          "indexed": true,
          "internalType": "address",
          "name": "spender",
          "type": "address"
        },
        {
          "indexed": false,
          "internalType": "uint256",
          "name": "value",
          "type": "uint256"
        }
      ],
      "name": "Approval",
      "type": "event"
    },
    {
      "anonymous": false,
      "inputs": [
        {
          "indexed": true,
          "internalType": "address",
          "name": "previousOwner",
          "type": "address"
        },
        {
          "indexed": true,
          "internalType": "address",
          "name": "newOwner",
          "type": "address"
        }
      ],
      "name": "OwnershipTransferred",
      "type": "event"
    },
    {
      "anonymous": false,
      "inputs": [
        {
          "indexed": true,
          "internalType": "address",
          "name": "from",
          "type": "address"
        },
        {
          "indexed": true,
          "internalType": "address",
          "name": "to",
          "type": "address"
        },
        {
          "indexed": false,
          "internalType": "uint256",
          "name": "value",
          "type": "uint256"
        }
      ],
      "name": "Transfer",
      "type": "event"
    },
    {
      "inputs": [
        {
          "internalType": "address",
          "name": "owner",
          "type": "address"
        },
        {
          "internalType": "address",
          "name": "spender",
          "type": "address"
        }
      ],
      "name": "allowance",
      "outputs": [
        {
          "internalType": "uint256",
          "name": "",
          "type": "uint256"
        }
      ],
      "stateMutability": "view",
      "type": "function"
    },
    {
      "inputs": [
        {
          "internalType": "address",
          "name": "spender",
          "type": "address"
        },
        {
          "internalType": "uint256",
          "name": "amount",
          "type": "uint256"
        }
      ],
      "name": "approve",
      "outputs": [
        {
          "internalType": "bool",
          "name": "",
          "type": "bool"
        }
      ],
      "stateMutability": "nonpayable",
      "type": "function"
    },
    {
      "inputs": [
        {
          "internalType": "address",
          "name": "account",
          "type": "address"
        }
      ],
      "name": "balanceOf",
      "outputs": [
        {
          "internalType": "uint256",
          "name": "",
          "type": "uint256"
        }
      ],
      "stateMutability": "view",
      "type": "function"
    },
    {
      "inputs": [],
      "name": "decimals",
      "outputs": [
        {
          "internalType": "uint8",
          "name": "",
          "type": "uint8"
        }
      ],
      "stateMutability": "view",
      "type": "function"
    },
    {
      "inputs": [],
      "name": "name",
      "outputs": [
        {
          "internalType": "string",
          "name": "",
          "type": "string"
        }
      ],
      "stateMutability": "view",
      "type": "function"
    },
    {
      "inputs": [],
      "name": "owner",
      "outputs": [
        {
          "internalType": "address",
          "name": "",
          "type": "address"
        }
      ],
      "stateMutability": "view",
      "type": "function"
    },
    {
      "inputs": [],
      "name": "renounceOwnership",
      "outputs": [],
      "stateMutability": "nonpayable",
      "type": "function"
    },
    {
      "inputs": [],
      "name": "symbol",
      "outputs": [
        {
          "internalType": "string",
          "name": "",
          "type": "string"
        }
      ],
      "stateMutability": "view",
      "type": "function"
    },
    {
      "inputs": [],
      "name": "totalSupply",
      "outputs": [
        {
          "internalType": "uint256",
          "name": "",
          "type": "uint256"
        }
      ],
      "stateMutability": "view",
      "type": "function"
    },
    {
      "inputs": [
        {
          "internalType": "address",
          "name": "recipient",
          "type": "address"
        },
        {
          "internalType": "uint256",
          "name": "amount",
          "type": "uint256"
        }
      ],
      "name": "transfer",
      "outputs": [
        {
          "internalType": "bool",
          "name": "",
          "type": "bool"
        }
      ],
      "stateMutability": "nonpayable",
      "type": "function"
    },
    {
      "inputs": [
        {
          "internalType": "address",
          "name": "sender",
          "type": "address"
        },
        {
          "internalType": "address",
          "name": "recipient",
          "type": "address"
        },
        {
          "internalType": "uint256",
          "name": "amount",
          "type": "uint256"
        }
      ],
      "name": "transferFrom",
      "outputs": [
        {
          "internalType": "bool",
          "name": "",
          "type": "bool"
        }
      ],
      "stateMutability": "nonpayable",
      "type": "function"
    },
    {
      "inputs": [
        {
          "internalType": "address",
          "name": "newOwner",
          "type": "address"
        }
      ],
      "name": "transferOwnership",
      "outputs": [],
      "stateMutability": "nonpayable",
      "type": "function"
    },
    {
      "inputs": [],
      "name": "mintCoin",
      "outputs": [],
      "stateMutability": "nonpayable",
      "type": "function"
    },
    {
      "inputs": [
        {
          "internalType": "uint256",
          "name": "amount",
          "type": "uint256"
        }
      ],
      "name": "ownerMintCoin",
      "outputs": [],
      "stateMutability": "nonpayable",
      "type": "function"
    }
  ],
  "bytecode": "0x608060405262a7d8c06006553480156200001857600080fd5b506040518060400160405280601281526020017f46616e74617379437269636b6574436f696e00000000000000000000000000008152506040518060400160405280600381526020017f4643430000000000000000000000000000000000000000000000000000000000815250620000a562000099620000df60201b60201c565b620000e760201b60201c565b8160049080519060200190620000bd929190620001ab565b508060059080519060200190620000d6929190620001ab565b505050620002c0565b600033905090565b60008060009054906101000a900473ffffffffffffffffffffffffffffffffffffffff169050816000806101000a81548173ffffffffffffffffffffffffffffffffffffffff021916908373ffffffffffffffffffffffffffffffffffffffff1602179055508173ffffffffffffffffffffffffffffffffffffffff168173ffffffffffffffffffffffffffffffffffffffff167f8be0079c531659141344cd1fd0a4f28419497f9722a3daafe3b4186f6b6457e060405160405180910390a35050565b828054620001b9906200025b565b90600052602060002090601f016020900481019282620001dd576000855562000229565b82601f10620001f857805160ff191683800117855562000229565b8280016001018555821562000229579182015b82811115620002285782518255916020019190600101906200020b565b5b5090506200023891906200023c565b5090565b5b80821115620002575760008160009055506001016200023d565b5090565b600060028204905060018216806200027457607f821691505b602082108114156200028b576200028a62000291565b5b50919050565b7f4e487b7100000000000000000000000000000000000000000000000000000000600052602260045260246000fd5b61199a80620002d06000396000f3fe608060405234801561001057600080fd5b50600436106100ea5760003560e01c806370a082311161008c57806395d89b411161006657806395d89b4114610227578063a9059cbb14610245578063dd62ed3e14610275578063f2fde38b146102a5576100ea565b806370a08231146101cf578063715018a6146101ff5780638da5cb5b14610209576100ea565b806323b872dd116100c857806323b872dd1461015b5780632b24b3bc1461018b578063313ce567146101a75780636fdfe456146101c5576100ea565b806306fdde03146100ef578063095ea7b31461010d57806318160ddd1461013d575b600080fd5b6100f76102c1565b60405161010491906112eb565b60405180910390f35b61012760048036038101906101229190611052565b610353565b60405161013491906112d0565b60405180910390f35b610145610371565b604051610152919061146d565b60405180910390f35b61017560048036038101906101709190610fff565b61037b565b60405161018291906112d0565b60405180910390f35b6101a560048036038101906101a09190611092565b610473565b005b6101af610503565b6040516101bc9190611488565b60405180910390f35b6101cd610508565b005b6101e960048036038101906101e49190610f92565b6105b9565b6040516101f6919061146d565b60405180910390f35b610207610602565b005b61021161068a565b60405161021e91906112b5565b60405180910390f35b61022f6106b3565b60405161023c91906112eb565b60405180910390f35b61025f600480360381019061025a9190611052565b610745565b60405161026c91906112d0565b60405180910390f35b61028f600480360381019061028a9190610fbf565b610763565b60405161029c919061146d565b60405180910390f35b6102bf60048036038101906102ba9190610f92565b6107ea565b005b6060600480546102d09061159d565b80601f01602080910402602001604051908101604052809291908181526020018280546102fc9061159d565b80156103495780601f1061031e57610100808354040283529160200191610349565b820191906000526020600020905b81548152906001019060200180831161032c57829003601f168201915b5050505050905090565b60006103676103606108e2565b84846108ea565b6001905092915050565b6000600354905090565b6000610388848484610ab5565b6000600260008673ffffffffffffffffffffffffffffffffffffffff1673ffffffffffffffffffffffffffffffffffffffff16815260200190815260200160002060006103d36108e2565b73ffffffffffffffffffffffffffffffffffffffff1673ffffffffffffffffffffffffffffffffffffffff16815260200190815260200160002054905082811015610453576040517f08c379a000000000000000000000000000000000000000000000000000000000815260040161044a906113cd565b60405180910390fd5b6104678561045f6108e2565b8584036108ea565b60019150509392505050565b61047b6108e2565b73ffffffffffffffffffffffffffffffffffffffff1661049961068a565b73ffffffffffffffffffffffffffffffffffffffff16146104ef576040517f08c379a00000000000000000000000000000000000000000000000000000000081526004016104e6906113ed565b60405180910390fd5b6105006104fa6108e2565b82610d39565b50565b600090565b600654610513610371565b10610553576040517f08c379a000000000000000000000000000000000000000000000000000000000815260040161054a9061138d565b60405180910390fd5b60006105656105606108e2565b6105b9565b146105a5576040517f08c379a000000000000000000000000000000000000000000000000000000000815260040161059c906113ad565b60405180910390fd5b6105b76105b06108e2565b6064610d39565b565b6000600160008373ffffffffffffffffffffffffffffffffffffffff1673ffffffffffffffffffffffffffffffffffffffff168152602001908152602001600020549050919050565b61060a6108e2565b73ffffffffffffffffffffffffffffffffffffffff1661062861068a565b73ffffffffffffffffffffffffffffffffffffffff161461067e576040517f08c379a0000000000000000000000000000000000000000000000000000000008152600401610675906113ed565b60405180910390fd5b6106886000610e9a565b565b60008060009054906101000a900473ffffffffffffffffffffffffffffffffffffffff16905090565b6060600580546106c29061159d565b80601f01602080910402602001604051908101604052809291908181526020018280546106ee9061159d565b801561073b5780601f106107105761010080835404028352916020019161073b565b820191906000526020600020905b81548152906001019060200180831161071e57829003601f168201915b5050505050905090565b60006107596107526108e2565b8484610ab5565b6001905092915050565b6000600260008473ffffffffffffffffffffffffffffffffffffffff1673ffffffffffffffffffffffffffffffffffffffff16815260200190815260200160002060008373ffffffffffffffffffffffffffffffffffffffff1673ffffffffffffffffffffffffffffffffffffffff16815260200190815260200160002054905092915050565b6107f26108e2565b73ffffffffffffffffffffffffffffffffffffffff1661081061068a565b73ffffffffffffffffffffffffffffffffffffffff1614610866576040517f08c379a000000000000000000000000000000000000000000000000000000000815260040161085d906113ed565b60405180910390fd5b600073ffffffffffffffffffffffffffffffffffffffff168173ffffffffffffffffffffffffffffffffffffffff1614156108d6576040517f08c379a00000000000000000000000000000000000000000000000000000000081526004016108cd9061132d565b60405180910390fd5b6108df81610e9a565b50565b600033905090565b600073ffffffffffffffffffffffffffffffffffffffff168373ffffffffffffffffffffffffffffffffffffffff16141561095a576040517f08c379a00000000000000000000000000000000000000000000000000000000081526004016109519061142d565b60405180910390fd5b600073ffffffffffffffffffffffffffffffffffffffff168273ffffffffffffffffffffffffffffffffffffffff1614156109ca576040517f08c379a00000000000000000000000000000000000000000000000000000000081526004016109c19061134d565b60405180910390fd5b80600260008573ffffffffffffffffffffffffffffffffffffffff1673ffffffffffffffffffffffffffffffffffffffff16815260200190815260200160002060008473ffffffffffffffffffffffffffffffffffffffff1673ffffffffffffffffffffffffffffffffffffffff168152602001908152602001600020819055508173ffffffffffffffffffffffffffffffffffffffff168373ffffffffffffffffffffffffffffffffffffffff167f8c5be1e5ebec7d5bd14f71427d1e84f3dd0314c0f7b2291e5b200ac8c7c3b92583604051610aa8919061146d565b60405180910390a3505050565b600073ffffffffffffffffffffffffffffffffffffffff168373ffffffffffffffffffffffffffffffffffffffff161415610b25576040517f08c379a0000000000000000000000000000000000000000000000000000000008152600401610b1c9061140d565b60405180910390fd5b600073ffffffffffffffffffffffffffffffffffffffff168273ffffffffffffffffffffffffffffffffffffffff161415610b95576040517f08c379a0000000000000000000000000000000000000000000000000000000008152600401610b8c9061130d565b60405180910390fd5b610ba0838383610f5e565b6000600160008573ffffffffffffffffffffffffffffffffffffffff1673ffffffffffffffffffffffffffffffffffffffff16815260200190815260200160002054905081811015610c27576040517f08c379a0000000000000000000000000000000000000000000000000000000008152600401610c1e9061136d565b60405180910390fd5b818103600160008673ffffffffffffffffffffffffffffffffffffffff1673ffffffffffffffffffffffffffffffffffffffff1681526020019081526020016000208190555081600160008573ffffffffffffffffffffffffffffffffffffffff1673ffffffffffffffffffffffffffffffffffffffff1681526020019081526020016000206000828254610cbc91906114bf565b925050819055508273ffffffffffffffffffffffffffffffffffffffff168473ffffffffffffffffffffffffffffffffffffffff167fddf252ad1be2c89b69c2b068fc378daa952ba7f163c4a11628f55a4df523b3ef84604051610d20919061146d565b60405180910390a3610d33848484610f63565b50505050565b600073ffffffffffffffffffffffffffffffffffffffff168273ffffffffffffffffffffffffffffffffffffffff161415610da9576040517f08c379a0000000000000000000000000000000000000000000000000000000008152600401610da09061144d565b60405180910390fd5b610db560008383610f5e565b8060036000828254610dc791906114bf565b9250508190555080600160008473ffffffffffffffffffffffffffffffffffffffff1673ffffffffffffffffffffffffffffffffffffffff1681526020019081526020016000206000828254610e1d91906114bf565b925050819055508173ffffffffffffffffffffffffffffffffffffffff16600073ffffffffffffffffffffffffffffffffffffffff167fddf252ad1be2c89b69c2b068fc378daa952ba7f163c4a11628f55a4df523b3ef83604051610e82919061146d565b60405180910390a3610e9660008383610f63565b5050565b60008060009054906101000a900473ffffffffffffffffffffffffffffffffffffffff169050816000806101000a81548173ffffffffffffffffffffffffffffffffffffffff021916908373ffffffffffffffffffffffffffffffffffffffff1602179055508173ffffffffffffffffffffffffffffffffffffffff168173ffffffffffffffffffffffffffffffffffffffff167f8be0079c531659141344cd1fd0a4f28419497f9722a3daafe3b4186f6b6457e060405160405180910390a35050565b505050565b505050565b600081359050610f7781611936565b92915050565b600081359050610f8c8161194d565b92915050565b600060208284031215610fa857610fa761162d565b5b6000610fb684828501610f68565b91505092915050565b60008060408385031215610fd657610fd561162d565b5b6000610fe485828601610f68565b9250506020610ff585828601610f68565b9150509250929050565b6000806000606084860312156110185761101761162d565b5b600061102686828701610f68565b935050602061103786828701610f68565b925050604061104886828701610f7d565b9150509250925092565b600080604083850312156110695761106861162d565b5b600061107785828601610f68565b925050602061108885828601610f7d565b9150509250929050565b6000602082840312156110a8576110a761162d565b5b60006110b684828501610f7d565b91505092915050565b6110c881611515565b82525050565b6110d781611527565b82525050565b60006110e8826114a3565b6110f281856114ae565b935061110281856020860161156a565b61110b81611632565b840191505092915050565b60006111236023836114ae565b915061112e82611643565b604082019050919050565b60006111466026836114ae565b915061115182611692565b604082019050919050565b60006111696022836114ae565b9150611174826116e1565b604082019050919050565b600061118c6026836114ae565b915061119782611730565b604082019050919050565b60006111af6019836114ae565b91506111ba8261177f565b602082019050919050565b60006111d26021836114ae565b91506111dd826117a8565b604082019050919050565b60006111f56028836114ae565b9150611200826117f7565b604082019050919050565b60006112186020836114ae565b915061122382611846565b602082019050919050565b600061123b6025836114ae565b91506112468261186f565b604082019050919050565b600061125e6024836114ae565b9150611269826118be565b604082019050919050565b6000611281601f836114ae565b915061128c8261190d565b602082019050919050565b6112a081611553565b82525050565b6112af8161155d565b82525050565b60006020820190506112ca60008301846110bf565b92915050565b60006020820190506112e560008301846110ce565b92915050565b6000602082019050818103600083015261130581846110dd565b905092915050565b6000602082019050818103600083015261132681611116565b9050919050565b6000602082019050818103600083015261134681611139565b9050919050565b600060208201905081810360008301526113668161115c565b9050919050565b600060208201905081810360008301526113868161117f565b9050919050565b600060208201905081810360008301526113a6816111a2565b9050919050565b600060208201905081810360008301526113c6816111c5565b9050919050565b600060208201905081810360008301526113e6816111e8565b9050919050565b600060208201905081810360008301526114068161120b565b9050919050565b600060208201905081810360008301526114268161122e565b9050919050565b6000602082019050818103600083015261144681611251565b9050919050565b6000602082019050818103600083015261146681611274565b9050919050565b60006020820190506114826000830184611297565b92915050565b600060208201905061149d60008301846112a6565b92915050565b600081519050919050565b600082825260208201905092915050565b60006114ca82611553565b91506114d583611553565b9250827fffffffffffffffffffffffffffffffffffffffffffffffffffffffffffffffff0382111561150a576115096115cf565b5b828201905092915050565b600061152082611533565b9050919050565b60008115159050919050565b600073ffffffffffffffffffffffffffffffffffffffff82169050919050565b6000819050919050565b600060ff82169050919050565b60005b8381101561158857808201518184015260208101905061156d565b83811115611597576000848401525b50505050565b600060028204905060018216806115b557607f821691505b602082108114156115c9576115c86115fe565b5b50919050565b7f4e487b7100000000000000000000000000000000000000000000000000000000600052601160045260246000fd5b7f4e487b7100000000000000000000000000000000000000000000000000000000600052602260045260246000fd5b600080fd5b6000601f19601f8301169050919050565b7f45524332303a207472616e7366657220746f20746865207a65726f206164647260008201527f6573730000000000000000000000000000000000000000000000000000000000602082015250565b7f4f776e61626c653a206e6577206f776e657220697320746865207a65726f206160008201527f6464726573730000000000000000000000000000000000000000000000000000602082015250565b7f45524332303a20617070726f766520746f20746865207a65726f20616464726560008201527f7373000000000000000000000000000000000000000000000000000000000000602082015250565b7f45524332303a207472616e7366657220616d6f756e742065786365656473206260008201527f616c616e63650000000000000000000000000000000000000000000000000000602082015250565b7f63616e6e6f74206d696e7420616e796d6f726520636f696e7300000000000000600082015250565b7f616464726573732063616e6e6f74206d696e7420616e796d6f726520636f696e60008201527f7300000000000000000000000000000000000000000000000000000000000000602082015250565b7f45524332303a207472616e7366657220616d6f756e742065786365656473206160008201527f6c6c6f77616e6365000000000000000000000000000000000000000000000000602082015250565b7f4f776e61626c653a2063616c6c6572206973206e6f7420746865206f776e6572600082015250565b7f45524332303a207472616e736665722066726f6d20746865207a65726f20616460008201527f6472657373000000000000000000000000000000000000000000000000000000602082015250565b7f45524332303a20617070726f76652066726f6d20746865207a65726f2061646460008201527f7265737300000000000000000000000000000000000000000000000000000000602082015250565b7f45524332303a206d696e7420746f20746865207a65726f206164647265737300600082015250565b61193f81611515565b811461194a57600080fd5b50565b61195681611553565b811461196157600080fd5b5056fea2646970667358221220347f24b86ffefa366705d4eea18f4a4dddba7841c89bbd60c64d91b519e531e264736f6c63430008070033",
  "immutableReferences": {},
  "source": "// SPDX-License-Identifier: MIT\n\npragma solidity ^0.8.0;\n\nimport \"./FullERC20.sol\";\n\ncontract FantasyCricketCoin is ERC20 {\n\n    constructor() ERC20(\"FantasyCricketCoin\", \"FCC\") {\n    }\n\n    uint256 private MAX_CURRENT_SUPPLY = 11 * 1000 * 1000;  //11 million\n\n    function mintCoin() external {\n        require(super.totalSupply() < MAX_CURRENT_SUPPLY, \"cannot mint anymore coins\");\n        require(super.balanceOf(_msgSender()) == 0, \"address cannot mint anymore coins\");\n        _mint(_msgSender(), 100);\n    }\n\n    function ownerMintCoin(uint256 amount) external onlyOwner {\n        _mint(_msgSender(), amount);\n    }\n}\n",
  "sourcePath": "/home/ec2-user/github/fcc-dapp/src/contracts/FCC.sol",
  "compiler": {
    "name": "solc",
    "version": "0.8.7+commit.e28d00a7.Emscripten.clang"
  },
  "schemaVersion": "3.4.3",
  "updatedAt": "2021-11-13T02:25:13.322Z",
  "devdoc": {
    "kind": "dev",
    "methods": {
      "allowance(address,address)": {
        "details": "See {IERC20-allowance}."
      },
      "approve(address,uint256)": {
        "details": "See {IERC20-approve}. Requirements: - `spender` cannot be the zero address."
      },
      "balanceOf(address)": {
        "details": "See {IERC20-balanceOf}."
      },
      "decimals()": {
        "details": "Returns the number of decimals used to get its user representation. For example, if `decimals` equals `2`, a balance of `505` tokens should be displayed to a user as `5.05` (`505 / 10 ** 2`). Tokens usually opt for a value of 18, imitating the relationship between Ether and Wei. This is the value {ERC20} uses, unless this function is overridden; NOTE: This information is only used for _display_ purposes: it in no way affects any of the arithmetic of the contract, including {IERC20-balanceOf} and {IERC20-transfer}."
      },
      "name()": {
        "details": "Returns the name of the token."
      },
      "owner()": {
        "details": "Returns the address of the current owner."
      },
      "renounceOwnership()": {
        "details": "Leaves the contract without owner. It will not be possible to call `onlyOwner` functions anymore. Can only be called by the current owner. NOTE: Renouncing ownership will leave the contract without an owner, thereby removing any functionality that is only available to the owner."
      },
      "symbol()": {
        "details": "Returns the symbol of the token, usually a shorter version of the name."
      },
      "totalSupply()": {
        "details": "See {IERC20-totalSupply}."
      },
      "transfer(address,uint256)": {
        "details": "See {IERC20-transfer}. Requirements: - `recipient` cannot be the zero address. - the caller must have a balance of at least `amount`."
      },
      "transferFrom(address,address,uint256)": {
        "details": "See {IERC20-transferFrom}. Emits an {Approval} event indicating the updated allowance. This is not required by the EIP. See the note at the beginning of {ERC20}. Requirements: - `sender` and `recipient` cannot be the zero address. - `sender` must have a balance of at least `amount`. - the caller must have allowance for ``sender``'s tokens of at least `amount`."
      },
      "transferOwnership(address)": {
        "details": "Transfers ownership of the contract to a new account (`newOwner`). Can only be called by the current owner."
      }
    },
    "version": 1
  },
  "userdoc": {
    "kind": "user",
    "methods": {},
    "version": 1
  }
}