{
  "contractName": "HungerVerse",
  "abi": [
    {
      "inputs": [],
      "stateMutability": "nonpayable",
      "type": "constructor"
    },
    {
      "anonymous": false,
      "inputs": [
        {
          "indexed": true,
          "internalType": "address",
          "name": "owner",
          "type": "address"
        },
        {
          "indexed": true,
          "internalType": "address",
          "name": "approved",
          "type": "address"
        },
        {
          "indexed": true,
          "internalType": "uint256",
          "name": "tokenId",
          "type": "uint256"
        }
      ],
      "name": "Approval",
      "type": "event"
    },
    {
      "anonymous": false,
      "inputs": [
        {
          "indexed": true,
          "internalType": "address",
          "name": "owner",
          "type": "address"
        },
        {
          "indexed": true,
          "internalType": "address",
          "name": "operator",
          "type": "address"
        },
        {
          "indexed": false,
          "internalType": "bool",
          "name": "approved",
          "type": "bool"
        }
      ],
      "name": "ApprovalForAll",
      "type": "event"
    },
    {
      "anonymous": false,
      "inputs": [
        {
          "indexed": true,
          "internalType": "address",
          "name": "previousOwner",
          "type": "address"
        },
        {
          "indexed": true,
          "internalType": "address",
          "name": "newOwner",
          "type": "address"
        }
      ],
      "name": "OwnershipTransferred",
      "type": "event"
    },
    {
      "anonymous": false,
      "inputs": [
        {
          "indexed": true,
          "internalType": "address",
          "name": "from",
          "type": "address"
        },
        {
          "indexed": true,
          "internalType": "address",
          "name": "to",
          "type": "address"
        },
        {
          "indexed": true,
          "internalType": "uint256",
          "name": "tokenId",
          "type": "uint256"
        }
      ],
      "name": "Transfer",
      "type": "event"
    },
    {
      "inputs": [],
      "name": "_matingPaused",
      "outputs": [
        {
          "internalType": "bool",
          "name": "",
          "type": "bool"
        }
      ],
      "stateMutability": "view",
      "type": "function"
    },
    {
      "inputs": [],
      "name": "_paused",
      "outputs": [
        {
          "internalType": "bool",
          "name": "",
          "type": "bool"
        }
      ],
      "stateMutability": "view",
      "type": "function"
    },
    {
      "inputs": [],
      "name": "_price",
      "outputs": [
        {
          "internalType": "uint256",
          "name": "",
          "type": "uint256"
        }
      ],
      "stateMutability": "view",
      "type": "function"
    },
    {
      "inputs": [],
      "name": "_reclaimPaused",
      "outputs": [
        {
          "internalType": "bool",
          "name": "",
          "type": "bool"
        }
      ],
      "stateMutability": "view",
      "type": "function"
    },
    {
      "inputs": [
        {
          "internalType": "address",
          "name": "to",
          "type": "address"
        },
        {
          "internalType": "uint256",
          "name": "tokenId",
          "type": "uint256"
        }
      ],
      "name": "approve",
      "outputs": [],
      "stateMutability": "nonpayable",
      "type": "function"
    },
    {
      "inputs": [
        {
          "internalType": "address",
          "name": "owner",
          "type": "address"
        }
      ],
      "name": "balanceOf",
      "outputs": [
        {
          "internalType": "uint256",
          "name": "",
          "type": "uint256"
        }
      ],
      "stateMutability": "view",
      "type": "function"
    },
    {
      "inputs": [
        {
          "internalType": "uint256",
          "name": "tokenId",
          "type": "uint256"
        }
      ],
      "name": "getApproved",
      "outputs": [
        {
          "internalType": "address",
          "name": "",
          "type": "address"
        }
      ],
      "stateMutability": "view",
      "type": "function"
    },
    {
      "inputs": [
        {
          "internalType": "address",
          "name": "owner",
          "type": "address"
        },
        {
          "internalType": "address",
          "name": "operator",
          "type": "address"
        }
      ],
      "name": "isApprovedForAll",
      "outputs": [
        {
          "internalType": "bool",
          "name": "",
          "type": "bool"
        }
      ],
      "stateMutability": "view",
      "type": "function"
    },
    {
      "inputs": [],
      "name": "name",
      "outputs": [
        {
          "internalType": "string",
          "name": "",
          "type": "string"
        }
      ],
      "stateMutability": "view",
      "type": "function"
    },
    {
      "inputs": [],
      "name": "otherContract",
      "outputs": [
        {
          "internalType": "address",
          "name": "",
          "type": "address"
        }
      ],
      "stateMutability": "view",
      "type": "function"
    },
    {
      "inputs": [],
      "name": "owner",
      "outputs": [
        {
          "internalType": "address",
          "name": "",
          "type": "address"
        }
      ],
      "stateMutability": "view",
      "type": "function"
    },
    {
      "inputs": [
        {
          "internalType": "uint256",
          "name": "tokenId",
          "type": "uint256"
        }
      ],
      "name": "ownerOf",
      "outputs": [
        {
          "internalType": "address",
          "name": "",
          "type": "address"
        }
      ],
      "stateMutability": "view",
      "type": "function"
    },
    {
      "inputs": [],
      "name": "renounceOwnership",
      "outputs": [],
      "stateMutability": "nonpayable",
      "type": "function"
    },
    {
      "inputs": [
        {
          "internalType": "address",
          "name": "from",
          "type": "address"
        },
        {
          "internalType": "address",
          "name": "to",
          "type": "address"
        },
        {
          "internalType": "uint256",
          "name": "tokenId",
          "type": "uint256"
        }
      ],
      "name": "safeTransferFrom",
      "outputs": [],
      "stateMutability": "nonpayable",
      "type": "function"
    },
    {
      "inputs": [
        {
          "internalType": "address",
          "name": "from",
          "type": "address"
        },
        {
          "internalType": "address",
          "name": "to",
          "type": "address"
        },
        {
          "internalType": "uint256",
          "name": "tokenId",
          "type": "uint256"
        },
        {
          "internalType": "bytes",
          "name": "_data",
          "type": "bytes"
        }
      ],
      "name": "safeTransferFrom",
      "outputs": [],
      "stateMutability": "nonpayable",
      "type": "function"
    },
    {
      "inputs": [
        {
          "internalType": "address",
          "name": "operator",
          "type": "address"
        },
        {
          "internalType": "bool",
          "name": "approved",
          "type": "bool"
        }
      ],
      "name": "setApprovalForAll",
      "outputs": [],
      "stateMutability": "nonpayable",
      "type": "function"
    },
    {
      "inputs": [
        {
          "internalType": "bytes4",
          "name": "interfaceId",
          "type": "bytes4"
        }
      ],
      "name": "supportsInterface",
      "outputs": [
        {
          "internalType": "bool",
          "name": "",
          "type": "bool"
        }
      ],
      "stateMutability": "view",
      "type": "function"
    },
    {
      "inputs": [],
      "name": "symbol",
      "outputs": [
        {
          "internalType": "string",
          "name": "",
          "type": "string"
        }
      ],
      "stateMutability": "view",
      "type": "function"
    },
    {
      "inputs": [
        {
          "internalType": "uint256",
          "name": "index",
          "type": "uint256"
        }
      ],
      "name": "tokenByIndex",
      "outputs": [
        {
          "internalType": "uint256",
          "name": "",
          "type": "uint256"
        }
      ],
      "stateMutability": "view",
      "type": "function"
    },
    {
      "inputs": [
        {
          "internalType": "address",
          "name": "owner",
          "type": "address"
        },
        {
          "internalType": "uint256",
          "name": "index",
          "type": "uint256"
        }
      ],
      "name": "tokenOfOwnerByIndex",
      "outputs": [
        {
          "internalType": "uint256",
          "name": "",
          "type": "uint256"
        }
      ],
      "stateMutability": "view",
      "type": "function"
    },
    {
      "inputs": [],
      "name": "totalSupply",
      "outputs": [
        {
          "internalType": "uint256",
          "name": "",
          "type": "uint256"
        }
      ],
      "stateMutability": "view",
      "type": "function"
    },
    {
      "inputs": [
        {
          "internalType": "address",
          "name": "from",
          "type": "address"
        },
        {
          "internalType": "address",
          "name": "to",
          "type": "address"
        },
        {
          "internalType": "uint256",
          "name": "tokenId",
          "type": "uint256"
        }
      ],
      "name": "transferFrom",
      "outputs": [],
      "stateMutability": "nonpayable",
      "type": "function"
    },
    {
      "inputs": [
        {
          "internalType": "address",
          "name": "newOwner",
          "type": "address"
        }
      ],
      "name": "transferOwnership",
      "outputs": [],
      "stateMutability": "nonpayable",
      "type": "function"
    },
    {
      "inputs": [
        {
          "internalType": "uint256",
          "name": "tokenId",
          "type": "uint256"
        }
      ],
      "name": "tokenURI",
      "outputs": [
        {
          "internalType": "string",
          "name": "",
          "type": "string"
        }
      ],
      "stateMutability": "view",
      "type": "function"
    },
    {
      "inputs": [
        {
          "internalType": "uint256",
          "name": "num",
          "type": "uint256"
        }
      ],
      "name": "ownHungerites",
      "outputs": [],
      "stateMutability": "payable",
      "type": "function"
    },
    {
      "inputs": [
        {
          "internalType": "uint256",
          "name": "num",
          "type": "uint256"
        }
      ],
      "name": "reclaimHungerites",
      "outputs": [],
      "stateMutability": "payable",
      "type": "function"
    },
    {
      "inputs": [
        {
          "internalType": "uint256",
          "name": "tokenIdM",
          "type": "uint256"
        },
        {
          "internalType": "uint256",
          "name": "tokenIdF",
          "type": "uint256"
        }
      ],
      "name": "mate",
      "outputs": [],
      "stateMutability": "nonpayable",
      "type": "function"
    },
    {
      "inputs": [
        {
          "internalType": "uint256",
          "name": "tokenId",
          "type": "uint256"
        }
      ],
      "name": "like",
      "outputs": [],
      "stateMutability": "nonpayable",
      "type": "function"
    },
    {
      "inputs": [
        {
          "internalType": "bool",
          "name": "val",
          "type": "bool"
        }
      ],
      "name": "setMatingPause",
      "outputs": [],
      "stateMutability": "nonpayable",
      "type": "function"
    },
    {
      "inputs": [
        {
          "internalType": "bool",
          "name": "val",
          "type": "bool"
        }
      ],
      "name": "setReclaimPause",
      "outputs": [],
      "stateMutability": "nonpayable",
      "type": "function"
    },
    {
      "inputs": [
        {
          "internalType": "uint256",
          "name": "tokenId",
          "type": "uint256"
        }
      ],
      "name": "getDistrict",
      "outputs": [
        {
          "internalType": "uint256",
          "name": "",
          "type": "uint256"
        }
      ],
      "stateMutability": "view",
      "type": "function"
    },
    {
      "inputs": [
        {
          "internalType": "uint256",
          "name": "tokenId",
          "type": "uint256"
        }
      ],
      "name": "burn",
      "outputs": [],
      "stateMutability": "nonpayable",
      "type": "function"
    },
    {
      "inputs": [
        {
          "internalType": "uint256",
          "name": "tokenId",
          "type": "uint256"
        },
        {
          "internalType": "string",
          "name": "val",
          "type": "string"
        }
      ],
      "name": "setName",
      "outputs": [],
      "stateMutability": "nonpayable",
      "type": "function"
    },
    {
      "inputs": [
        {
          "internalType": "uint256",
          "name": "_newPrice",
          "type": "uint256"
        }
      ],
      "name": "setPrice",
      "outputs": [],
      "stateMutability": "nonpayable",
      "type": "function"
    },
    {
      "inputs": [
        {
          "internalType": "bool",
          "name": "val",
          "type": "bool"
        }
      ],
      "name": "setPause",
      "outputs": [],
      "stateMutability": "nonpayable",
      "type": "function"
    },
    {
      "inputs": [
        {
          "internalType": "address",
          "name": "_otherContract",
          "type": "address"
        }
      ],
      "name": "setOtherContract",
      "outputs": [],
      "stateMutability": "nonpayable",
      "type": "function"
    },
    {
      "inputs": [],
      "name": "withdraw",
      "outputs": [],
      "stateMutability": "payable",
      "type": "function"
    }
  ],
  "bytecode": "0x608060405260405180604001604052806040518060400160405280600681526020017f46656d616c65000000000000000000000000000000000000000000000000000081525081526020016040518060400160405280600481526020017f4d616c6500000000000000000000000000000000000000000000000000000000815250815250600c90600262000095929190620003a4565b5060405180608001604052806040518060400160405280600d81526020017f42656c6f7720417665726167650000000000000000000000000000000000000081525081526020016040518060400160405280600781526020017f417665726167650000000000000000000000000000000000000000000000000081525081526020016040518060400160405280600d81526020017f41626f766520417665726167650000000000000000000000000000000000000081525081526020016040518060400160405280600681526020017f4769667465640000000000000000000000000000000000000000000000000000815250815250600d9060046200019d9291906200040b565b5066b1a2bc2ec50000600e556001600f60006101000a81548160ff0219169083151502179055506001600f60016101000a81548160ff0219169083151502179055506001600f60026101000a81548160ff0219169083151502179055503480156200020757600080fd5b506040518060400160405280600b81526020017f48756e67657256657273650000000000000000000000000000000000000000008152506040518060400160405280600681526020017f48554e474552000000000000000000000000000000000000000000000000000081525081600090805190602001906200028c92919062000472565b508060019080519060200190620002a592919062000472565b5050506001600a81905550620002d0620002c4620002d660201b60201c565b620002de60201b60201c565b620005f5565b600033905090565b6000600b60009054906101000a900473ffffffffffffffffffffffffffffffffffffffff16905081600b60006101000a81548173ffffffffffffffffffffffffffffffffffffffff021916908373ffffffffffffffffffffffffffffffffffffffff1602179055508173ffffffffffffffffffffffffffffffffffffffff168173ffffffffffffffffffffffffffffffffffffffff167f8be0079c531659141344cd1fd0a4f28419497f9722a3daafe3b4186f6b6457e060405160405180910390a35050565b828054828255906000526020600020908101928215620003f8579160200282015b82811115620003f7578251829080519060200190620003e692919062000472565b5091602001919060010190620003c5565b5b50905062000407919062000503565b5090565b8280548282559060005260206000209081019282156200045f579160200282015b828111156200045e5782518290805190602001906200044d92919062000472565b50916020019190600101906200042c565b5b5090506200046e919062000503565b5090565b828054620004809062000590565b90600052602060002090601f016020900481019282620004a45760008555620004f0565b82601f10620004bf57805160ff1916838001178555620004f0565b82800160010185558215620004f0579182015b82811115620004ef578251825591602001919060010190620004d2565b5b509050620004ff91906200052b565b5090565b5b808211156200052757600081816200051d91906200054a565b5060010162000504565b5090565b5b80821115620005465760008160009055506001016200052c565b5090565b508054620005589062000590565b6000825580601f106200056c57506200058d565b601f0160209004906000526020600020908101906200058c91906200052b565b5b50565b60006002820490506001821680620005a957607f821691505b60208210811415620005c057620005bf620005c6565b5b50919050565b7f4e487b7100000000000000000000000000000000000000000000000000000000600052602260045260246000fd5b61603c80620006056000396000f3fe60806040526004361061021a5760003560e01c806370a0823111610123578063bedb86fb116100ab578063e86a45931161006f578063e86a4593146107a4578063e985e9c5146107cd578063e98d36e11461080a578063f2fde38b14610835578063fe55932a1461085e5761021a565b8063bedb86fb146106c1578063c87b56dd146106ea578063d8eb356a14610727578063db4ec21a14610750578063e82935da1461077b5761021a565b806391b7f5ed116100f257806391b7f5ed146105f257806395d89b411461061b5780639c3f523714610646578063a22cb4651461066f578063b88d4fde146106985761021a565b806370a0823114610548578063715018a61461058557806384eb1f111461059c5780638da5cb5b146105c75761021a565b806323b872dd116101a65780633ccfd60b116101755780633ccfd60b1461047257806342842e0e1461047c57806342966c68146104a55780634f6ccce7146104ce5780636352211e1461050b5761021a565b806323b872dd146103c75780632c247945146103f05780632f745c591461040c57806335a28f3e146104495761021a565b80630a1952c3116101ed5780630a1952c3146102ed57806316c61ccc1461030957806318160ddd14610334578063227764781461035f578063235b6ea11461039c5761021a565b806301ffc9a71461021f57806306fdde031461025c578063081812fc14610287578063095ea7b3146102c4575b600080fd5b34801561022b57600080fd5b5061024660048036038101906102419190614576565b610887565b6040516102539190614cd2565b60405180910390f35b34801561026857600080fd5b50610271610901565b60405161027e9190614ced565b60405180910390f35b34801561029357600080fd5b506102ae60048036038101906102a991906145d0565b610993565b6040516102bb9190614c6b565b60405180910390f35b3480156102d057600080fd5b506102eb60048036038101906102e69190614509565b610a18565b005b610307600480360381019061030291906145d0565b610b30565b005b34801561031557600080fd5b5061031e610d20565b60405161032b9190614cd2565b60405180910390f35b34801561034057600080fd5b50610349610d33565b604051610356919061508f565b60405180910390f35b34801561036b57600080fd5b50610386600480360381019061038191906145d0565b610d40565b604051610393919061508f565b60405180910390f35b3480156103a857600080fd5b506103b1610d60565b6040516103be919061508f565b60405180910390f35b3480156103d357600080fd5b506103ee60048036038101906103e991906143f3565b610d66565b005b61040a600480360381019061040591906145d0565b610dc6565b005b34801561041857600080fd5b50610433600480360381019061042e9190614509565b610f8c565b604051610440919061508f565b60405180910390f35b34801561045557600080fd5b50610470600480360381019061046b9190614386565b611031565b005b61047a6110f1565b005b34801561048857600080fd5b506104a3600480360381019061049e91906143f3565b6111c7565b005b3480156104b157600080fd5b506104cc60048036038101906104c791906145d0565b6111e7565b005b3480156104da57600080fd5b506104f560048036038101906104f091906145d0565b6112d2565b604051610502919061508f565b60405180910390f35b34801561051757600080fd5b50610532600480360381019061052d91906145d0565b611343565b60405161053f9190614c6b565b60405180910390f35b34801561055457600080fd5b5061056f600480360381019061056a9190614386565b6113f5565b60405161057c919061508f565b60405180910390f35b34801561059157600080fd5b5061059a6114ad565b005b3480156105a857600080fd5b506105b1611535565b6040516105be9190614cd2565b60405180910390f35b3480156105d357600080fd5b506105dc611548565b6040516105e99190614c6b565b60405180910390f35b3480156105fe57600080fd5b50610619600480360381019061061491906145d0565b611572565b005b34801561062757600080fd5b506106306115f8565b60405161063d9190614ced565b60405180910390f35b34801561065257600080fd5b5061066d60048036038101906106689190614659565b61168a565b005b34801561067b57600080fd5b50610696600480360381019061069191906144c9565b611a53565b005b3480156106a457600080fd5b506106bf60048036038101906106ba9190614446565b611bd4565b005b3480156106cd57600080fd5b506106e860048036038101906106e39190614549565b611c36565b005b3480156106f657600080fd5b50610711600480360381019061070c91906145d0565b611ccf565b60405161071e9190614ced565b60405180910390f35b34801561073357600080fd5b5061074e60048036038101906107499190614549565b612850565b005b34801561075c57600080fd5b506107656128e9565b6040516107729190614cd2565b60405180910390f35b34801561078757600080fd5b506107a2600480360381019061079d91906145d0565b6128fc565b005b3480156107b057600080fd5b506107cb60048036038101906107c69190614549565b612931565b005b3480156107d957600080fd5b506107f460048036038101906107ef91906143b3565b6129ca565b6040516108019190614cd2565b60405180910390f35b34801561081657600080fd5b5061081f612a5e565b60405161082c9190614c6b565b60405180910390f35b34801561084157600080fd5b5061085c60048036038101906108579190614386565b612a84565b005b34801561086a57600080fd5b50610885600480360381019061088091906145fd565b612b7c565b005b60007f780e9d63000000000000000000000000000000000000000000000000000000007bffffffffffffffffffffffffffffffffffffffffffffffffffffffff1916827bffffffffffffffffffffffffffffffffffffffffffffffffffffffff191614806108fa57506108f982612bfa565b5b9050919050565b6060600080546109109061533f565b80601f016020809104026020016040519081016040528092919081815260200182805461093c9061533f565b80156109895780601f1061095e57610100808354040283529160200191610989565b820191906000526020600020905b81548152906001019060200180831161096c57829003601f168201915b5050505050905090565b600061099e82612cdc565b6109dd576040517f08c379a00000000000000000000000000000000000000000000000000000000081526004016109d490614eef565b60405180910390fd5b6004600083815260200190815260200160002060009054906101000a900473ffffffffffffffffffffffffffffffffffffffff169050919050565b6000610a2382611343565b90508073ffffffffffffffffffffffffffffffffffffffff168373ffffffffffffffffffffffffffffffffffffffff161415610a94576040517f08c379a0000000000000000000000000000000000000000000000000000000008152600401610a8b90614f6f565b60405180910390fd5b8073ffffffffffffffffffffffffffffffffffffffff16610ab3612d48565b73ffffffffffffffffffffffffffffffffffffffff161480610ae25750610ae181610adc612d48565b6129ca565b5b610b21576040517f08c379a0000000000000000000000000000000000000000000000000000000008152600401610b1890614e4f565b60405180910390fd5b610b2b8383612d50565b505050565b6002600a541415610b76576040517f08c379a0000000000000000000000000000000000000000000000000000000008152600401610b6d9061504f565b60405180910390fd5b6002600a819055506000610b88610d33565b9050600f60009054906101000a900460ff1615610bda576040517f08c379a0000000000000000000000000000000000000000000000000000000008152600401610bd190614d0f565b60405180910390fd5b600082118015610bea5750601582105b610c29576040517f08c379a0000000000000000000000000000000000000000000000000000000008152600401610c2090614e2f565b60405180910390fd5b615dc08282610c389190615174565b1115610c79576040517f08c379a0000000000000000000000000000000000000000000000000000000008152600401610c7090614f8f565b60405180910390fd5b81600e54610c8791906151fb565b341015610cc9576040517f08c379a0000000000000000000000000000000000000000000000000000000008152600401610cc090614faf565b60405180910390fd5b6000600190505b828111610d1357610ceb8183610ce69190615174565b612e09565b610d00338284610cfb9190615174565b613023565b8080610d0b906153a2565b915050610cd0565b50506001600a8190555050565b600f60009054906101000a900460ff1681565b6000600880549050905090565b600060106000838152602001908152602001600020600301549050919050565b600e5481565b610d77610d71612d48565b82613041565b610db6576040517f08c379a0000000000000000000000000000000000000000000000000000000008152600401610dad90614fcf565b60405180910390fd5b610dc183838361311f565b505050565b6000610dd0610d33565b9050600f60029054906101000a900460ff1615610e22576040517f08c379a0000000000000000000000000000000000000000000000000000000008152600401610e199061506f565b60405180910390fd5b600082118015610e325750601582105b610e71576040517f08c379a0000000000000000000000000000000000000000000000000000000008152600401610e6890614e2f565b60405180910390fd5b615dc08282610e809190615174565b1115610ec1576040517f08c379a0000000000000000000000000000000000000000000000000000000008152600401610eb890614f8f565b60405180910390fd5b81600e54610ecf91906151fb565b341015610f11576040517f08c379a0000000000000000000000000000000000000000000000000000000008152600401610f0890614faf565b60405180910390fd5b600080600190505b615dc08111610f8657600160106000838152602001908152602001600020600101541415610f4657610f73565b610f4f81612e09565b610f593382613023565b8382610f64906153a2565b9250821415610f7257610f86565b5b8080610f7e906153a2565b915050610f19565b50505050565b6000610f97836113f5565b8210610fd8576040517f08c379a0000000000000000000000000000000000000000000000000000000008152600401610fcf90614d2f565b60405180910390fd5b600660008473ffffffffffffffffffffffffffffffffffffffff1673ffffffffffffffffffffffffffffffffffffffff168152602001908152602001600020600083815260200190815260200160002054905092915050565b611039612d48565b73ffffffffffffffffffffffffffffffffffffffff16611057611548565b73ffffffffffffffffffffffffffffffffffffffff16146110ad576040517f08c379a00000000000000000000000000000000000000000000000000000000081526004016110a490614f2f565b60405180910390fd5b80600f60036101000a81548173ffffffffffffffffffffffffffffffffffffffff021916908373ffffffffffffffffffffffffffffffffffffffff16021790555050565b6110f9612d48565b73ffffffffffffffffffffffffffffffffffffffff16611117611548565b73ffffffffffffffffffffffffffffffffffffffff161461116d576040517f08c379a000000000000000000000000000000000000000000000000000000000815260040161116490614f2f565b60405180910390fd5b6000734af0bb035ffb1cbefa550530917e151a53034d7090508073ffffffffffffffffffffffffffffffffffffffff166108fc479081150290604051600060405180830381858888f193505050506111c457600080fd5b50565b6111e283838360405180602001604052806000815250611bd4565b505050565b600f60039054906101000a900473ffffffffffffffffffffffffffffffffffffffff1673ffffffffffffffffffffffffffffffffffffffff163373ffffffffffffffffffffffffffffffffffffffff161461124157600080fd5b61124b3382613041565b61128a576040517f08c379a000000000000000000000000000000000000000000000000000000000815260040161128190614ecf565b60405180910390fd5b6000601060008381526020019081526020016000209050600081600101819055508060090160008154809291906112c0906153a2565b91905055506112ce8261337b565b5050565b60006112dc610d33565b821061131d576040517f08c379a000000000000000000000000000000000000000000000000000000000815260040161131490614fef565b60405180910390fd5b60088281548110611331576113306154d8565b5b90600052602060002001549050919050565b6000806002600084815260200190815260200160002060009054906101000a900473ffffffffffffffffffffffffffffffffffffffff169050600073ffffffffffffffffffffffffffffffffffffffff168173ffffffffffffffffffffffffffffffffffffffff1614156113ec576040517f08c379a00000000000000000000000000000000000000000000000000000000081526004016113e390614e8f565b60405180910390fd5b80915050919050565b60008073ffffffffffffffffffffffffffffffffffffffff168273ffffffffffffffffffffffffffffffffffffffff161415611466576040517f08c379a000000000000000000000000000000000000000000000000000000000815260040161145d90614e6f565b60405180910390fd5b600360008373ffffffffffffffffffffffffffffffffffffffff1673ffffffffffffffffffffffffffffffffffffffff168152602001908152602001600020549050919050565b6114b5612d48565b73ffffffffffffffffffffffffffffffffffffffff166114d3611548565b73ffffffffffffffffffffffffffffffffffffffff1614611529576040517f08c379a000000000000000000000000000000000000000000000000000000000815260040161152090614f2f565b60405180910390fd5b611533600061348c565b565b600f60019054906101000a900460ff1681565b6000600b60009054906101000a900473ffffffffffffffffffffffffffffffffffffffff16905090565b61157a612d48565b73ffffffffffffffffffffffffffffffffffffffff16611598611548565b73ffffffffffffffffffffffffffffffffffffffff16146115ee576040517f08c379a00000000000000000000000000000000000000000000000000000000081526004016115e590614f2f565b60405180910390fd5b80600e8190555050565b6060600180546116079061533f565b80601f01602080910402602001604051908101604052809291908181526020018280546116339061533f565b80156116805780601f1061165557610100808354040283529160200191611680565b820191906000526020600020905b81548152906001019060200180831161166357829003601f168201915b5050505050905090565b6000611694610d33565b9050600f60019054906101000a900460ff16156116e6576040517f08c379a00000000000000000000000000000000000000000000000000000000081526004016116dd9061500f565b60405180910390fd5b6116f03384613041565b61172f576040517f08c379a000000000000000000000000000000000000000000000000000000000815260040161172690614ecf565b60405180910390fd5b6117393383613041565b611778576040517f08c379a000000000000000000000000000000000000000000000000000000000815260040161176f90614ecf565b60405180910390fd5b600060106000858152602001908152602001600020604051806101400160405290816000820180546117a99061533f565b80601f01602080910402602001604051908101604052809291908181526020018280546117d59061533f565b80156118225780601f106117f757610100808354040283529160200191611822565b820191906000526020600020905b81548152906001019060200180831161180557829003601f168201915b505050505081526020016001820154815260200160028201548152602001600382015481526020016004820154815260200160058201548152602001600682015481526020016007820154815260200160088201548152602001600982015481525050905060018160400151146118ce576040517f08c379a00000000000000000000000000000000000000000000000000000000081526004016118c59061502f565b60405180910390fd5b6000601060008581526020019081526020016000209050600081600201541461192c576040517f08c379a000000000000000000000000000000000000000000000000000000000815260040161192390614def565b60405180910390fd5b6000816004015411611973576040517f08c379a000000000000000000000000000000000000000000000000000000000815260040161196a90614f0f565b60405180910390fd5b615dc08160040154846119869190615174565b11156119c7576040517f08c379a00000000000000000000000000000000000000000000000000000000081526004016119be90614f8f565b60405180910390fd5b600080600190505b615dc08111611a40576001601060008381526020019081526020016000206001015414156119fc57611a2d565b611a0581612e09565b611a0f3382613023565b826004015482611a1e906153a2565b9250821415611a2c57611a40565b5b8080611a38906153a2565b9150506119cf565b5060008260040181905550505050505050565b611a5b612d48565b73ffffffffffffffffffffffffffffffffffffffff168273ffffffffffffffffffffffffffffffffffffffff161415611ac9576040517f08c379a0000000000000000000000000000000000000000000000000000000008152600401611ac090614dcf565b60405180910390fd5b8060056000611ad6612d48565b73ffffffffffffffffffffffffffffffffffffffff1673ffffffffffffffffffffffffffffffffffffffff16815260200190815260200160002060008473ffffffffffffffffffffffffffffffffffffffff1673ffffffffffffffffffffffffffffffffffffffff16815260200190815260200160002060006101000a81548160ff0219169083151502179055508173ffffffffffffffffffffffffffffffffffffffff16611b83612d48565b73ffffffffffffffffffffffffffffffffffffffff167f17307eab39ab6107e8899845ad3d59bd9653f200f220920489ca2b5937696c3183604051611bc89190614cd2565b60405180910390a35050565b611be5611bdf612d48565b83613041565b611c24576040517f08c379a0000000000000000000000000000000000000000000000000000000008152600401611c1b90614fcf565b60405180910390fd5b611c3084848484613552565b50505050565b611c3e612d48565b73ffffffffffffffffffffffffffffffffffffffff16611c5c611548565b73ffffffffffffffffffffffffffffffffffffffff1614611cb2576040517f08c379a0000000000000000000000000000000000000000000000000000000008152600401611ca990614f2f565b60405180910390fd5b80600f60006101000a81548160ff02191690831515021790555050565b606060006010600084815260200190815260200160002060405180610140016040529081600082018054611d029061533f565b80601f0160208091040260200160405190810160405280929190818152602001828054611d2e9061533f565b8015611d7b5780601f10611d5057610100808354040283529160200191611d7b565b820191906000526020600020905b815481529060010190602001808311611d5e57829003601f168201915b5050505050815260200160018201548152602001600282015481526020016003820154815260200160048201548152602001600582015481526020016006820154815260200160078201548152602001600882015481526020016009820154815250509050611de8614172565b60006040518060a0016040528060628152602001615e6660629139828280611e0f906153a2565b935060408110611e2257611e216154d8565b5b6020020181905250604051806080016040528060478152602001615f0860479139828280611e4f906153a2565b935060408110611e6257611e616154d8565b5b60200201819052506040518060800160405280604e8152602001615d8c604e9139828280611e8f906153a2565b935060408110611ea257611ea16154d8565b5b6020020181905250604051806060016040528060308152602001615e0860309139828280611ecf906153a2565b935060408110611ee257611ee16154d8565b5b6020020181905250604051806060016040528060268152602001615d3860269139828280611f0f906153a2565b935060408110611f2257611f216154d8565b5b6020020181905250600c836040015181548110611f4257611f416154d8565b5b906000526020600020018054611f579061533f565b80601f0160208091040260200160405190810160405280929190818152602001828054611f839061533f565b8015611fd05780601f10611fa557610100808354040283529160200191611fd0565b820191906000526020600020905b815481529060010190602001808311611fb357829003601f168201915b5050505050828280611fe1906153a2565b935060408110611ff457611ff36154d8565b5b60200201819052506040518060600160405280602e8152602001615f4f602e9139828280612021906153a2565b935060408110612034576120336154d8565b5b60200201819052506040518060400160405280600681526020017f4e616d653a09000000000000000000000000000000000000000000000000000081525082828061207e906153a2565b935060408110612091576120906154d8565b5b60200201819052506000836000015151116120bb57604051806020016040528060008152506120c1565b82600001515b8282806120cd906153a2565b9350604081106120e0576120df6154d8565b5b60200201819052506000836040015114156121c7576040518060600160405280602e8152602001615d5e602e913982828061211a906153a2565b93506040811061212d5761212c6154d8565b5b60200201819052506040518060400160405280600c81526020017f4f6666737072696e67733a090000000000000000000000000000000000000000815250828280612177906153a2565b93506040811061218a576121896154d8565b5b602002018190525061219f83608001516135ae565b8282806121ab906153a2565b9350604081106121be576121bd6154d8565b5b60200201819052505b6040518060600160405280602e8152602001615dda602e91398282806121ec906153a2565b9350604081106121ff576121fe6154d8565b5b60200201819052506040518060400160405280600f81526020017f48756e74696e67536b696c6c733a090000000000000000000000000000000000815250828280612249906153a2565b93506040811061225c5761225b6154d8565b5b6020020181905250600d8360a001518154811061227c5761227b6154d8565b5b9060005260206000200180546122919061533f565b80601f01602080910402602001604051908101604052809291908181526020018280546122bd9061533f565b801561230a5780601f106122df5761010080835404028352916020019161230a565b820191906000526020600020905b8154815290600101906020018083116122ed57829003601f168201915b505050505082828061231b906153a2565b93506040811061232e5761232d6154d8565b5b60200201819052506040518060600160405280602e8152602001615f7d602e913982828061235b906153a2565b93506040811061236e5761236d6154d8565b5b60200201819052506040518060400160405280600481526020017f49513a09000000000000000000000000000000000000000000000000000000008152508282806123b8906153a2565b9350604081106123cb576123ca6154d8565b5b6020020181905250600d8360c00151815481106123eb576123ea6154d8565b5b9060005260206000200180546124009061533f565b80601f016020809104026020016040519081016040528092919081815260200182805461242c9061533f565b80156124795780601f1061244e57610100808354040283529160200191612479565b820191906000526020600020905b81548152906001019060200180831161245c57829003601f168201915b505050505082828061248a906153a2565b93506040811061249d5761249c6154d8565b5b60200201819052506040518060600160405280602e8152602001615e38602e91398282806124ca906153a2565b9350604081106124dd576124dc6154d8565b5b60200201819052506040518060400160405280600781526020017f4c696b65733a0900000000000000000000000000000000000000000000000000815250828280612527906153a2565b93506040811061253a576125396154d8565b5b602002018190525061254f8360e001516135ae565b82828061255b906153a2565b93506040811061256e5761256d6154d8565b5b60200201819052506040518060600160405280602e8152602001615fd9602e913982828061259b906153a2565b9350604081106125ae576125ad6154d8565b5b60200201819052506040518060400160405280600681526020017f77696e733a0900000000000000000000000000000000000000000000000000008152508282806125f8906153a2565b93506040811061260b5761260a6154d8565b5b60200201819052506126218361010001516135ae565b82828061262d906153a2565b9350604081106126405761263f6154d8565b5b60200201819052506040518060600160405280602e8152602001615fab602e913982828061266d906153a2565b9350604081106126805761267f6154d8565b5b60200201819052506040518060400160405280600781526020017f6275726e733a09000000000000000000000000000000000000000000000000008152508282806126ca906153a2565b9350604081106126dd576126dc6154d8565b5b60200201819052506126f38361012001516135ae565b8282806126ff906153a2565b935060408110612712576127116154d8565b5b60200201819052506040518060400160405280600d81526020017f3c2f746578743e3c2f7376673e0000000000000000000000000000000000000081525082828061275c906153a2565b93506040811061276f5761276e6154d8565b5b6020020181905250600060405180602001604052806000815250905060005b828110156127e257818482604081106127aa576127a96154d8565b5b60200201516040516020016127c0929190614be0565b6040516020818303038152906040529150806127db906153a2565b905061278e565b50600061281f6127f1886135ae565b6127fa8461370f565b60405160200161280b929190614c26565b60405160208183030381529060405261370f565b9050806040516020016128329190614c04565b60405160208183030381529060405291508195505050505050919050565b612858612d48565b73ffffffffffffffffffffffffffffffffffffffff16612876611548565b73ffffffffffffffffffffffffffffffffffffffff16146128cc576040517f08c379a00000000000000000000000000000000000000000000000000000000081526004016128c390614f2f565b60405180910390fd5b80600f60026101000a81548160ff02191690831515021790555050565b600f60029054906101000a900460ff1681565b6000601060008381526020019081526020016000209050806007016000815480929190612928906153a2565b91905055505050565b612939612d48565b73ffffffffffffffffffffffffffffffffffffffff16612957611548565b73ffffffffffffffffffffffffffffffffffffffff16146129ad576040517f08c379a00000000000000000000000000000000000000000000000000000000081526004016129a490614f2f565b60405180910390fd5b80600f60016101000a81548160ff02191690831515021790555050565b6000600560008473ffffffffffffffffffffffffffffffffffffffff1673ffffffffffffffffffffffffffffffffffffffff16815260200190815260200160002060008373ffffffffffffffffffffffffffffffffffffffff1673ffffffffffffffffffffffffffffffffffffffff16815260200190815260200160002060009054906101000a900460ff16905092915050565b600f60039054906101000a900473ffffffffffffffffffffffffffffffffffffffff1681565b612a8c612d48565b73ffffffffffffffffffffffffffffffffffffffff16612aaa611548565b73ffffffffffffffffffffffffffffffffffffffff1614612b00576040517f08c379a0000000000000000000000000000000000000000000000000000000008152600401612af790614f2f565b60405180910390fd5b600073ffffffffffffffffffffffffffffffffffffffff168173ffffffffffffffffffffffffffffffffffffffff161415612b70576040517f08c379a0000000000000000000000000000000000000000000000000000000008152600401612b6790614d6f565b60405180910390fd5b612b798161348c565b50565b612b863383613041565b612bc5576040517f08c379a0000000000000000000000000000000000000000000000000000000008152600401612bbc90614ecf565b60405180910390fd5b600060106000848152602001908152602001600020905081816000019080519060200190612bf492919061419a565b50505050565b60007f80ac58cd000000000000000000000000000000000000000000000000000000007bffffffffffffffffffffffffffffffffffffffffffffffffffffffff1916827bffffffffffffffffffffffffffffffffffffffffffffffffffffffff19161480612cc557507f5b5e139f000000000000000000000000000000000000000000000000000000007bffffffffffffffffffffffffffffffffffffffffffffffffffffffff1916827bffffffffffffffffffffffffffffffffffffffffffffffffffffffff1916145b80612cd55750612cd4826138a7565b5b9050919050565b60008073ffffffffffffffffffffffffffffffffffffffff166002600084815260200190815260200160002060009054906101000a900473ffffffffffffffffffffffffffffffffffffffff1673ffffffffffffffffffffffffffffffffffffffff1614159050919050565b600033905090565b816004600083815260200190815260200160002060006101000a81548173ffffffffffffffffffffffffffffffffffffffff021916908373ffffffffffffffffffffffffffffffffffffffff160217905550808273ffffffffffffffffffffffffffffffffffffffff16612dc383611343565b73ffffffffffffffffffffffffffffffffffffffff167f8c5be1e5ebec7d5bd14f71427d1e84f3dd0314c0f7b2291e5b200ac8c7c3b92560405160405180910390a45050565b6000601060008381526020019081526020016000209050600181600101819055506002612e6b836040518060400160405280600681526020017f47454e4445520000000000000000000000000000000000000000000000000000815250613911565b612e7591906153eb565b8160020181905550600c612ebe836040518060400160405280600881526020017f4449535452494354000000000000000000000000000000000000000000000000815250613911565b612ec891906153eb565b6001612ed49190615174565b8160030181905550600081600201541415612f3d576009612f2a836040518060400160405280600a81526020017f4f4646535052494e475300000000000000000000000000000000000000000000815250613911565b612f3491906153eb565b81600401819055505b6004612f7e836040518060400160405280600781526020017f48554e54494e4700000000000000000000000000000000000000000000000000815250613911565b82600901548360080154612f929190615174565b612f9c9190615174565b612fa691906153eb565b81600501819055506004612fef836040518060400160405280600781526020017f495153434f524500000000000000000000000000000000000000000000000000815250613911565b826009015483600801546130039190615174565b61300d9190615174565b61301791906153eb565b81600601819055505050565b61303d82826040518060200160405280600081525061394d565b5050565b600061304c82612cdc565b61308b576040517f08c379a000000000000000000000000000000000000000000000000000000000815260040161308290614e0f565b60405180910390fd5b600061309683611343565b90508073ffffffffffffffffffffffffffffffffffffffff168473ffffffffffffffffffffffffffffffffffffffff16148061310557508373ffffffffffffffffffffffffffffffffffffffff166130ed84610993565b73ffffffffffffffffffffffffffffffffffffffff16145b80613116575061311581856129ca565b5b91505092915050565b8273ffffffffffffffffffffffffffffffffffffffff1661313f82611343565b73ffffffffffffffffffffffffffffffffffffffff1614613195576040517f08c379a000000000000000000000000000000000000000000000000000000000815260040161318c90614f4f565b60405180910390fd5b600073ffffffffffffffffffffffffffffffffffffffff168273ffffffffffffffffffffffffffffffffffffffff161415613205576040517f08c379a00000000000000000000000000000000000000000000000000000000081526004016131fc90614daf565b60405180910390fd5b6132108383836139a8565b61321b600082612d50565b6001600360008573ffffffffffffffffffffffffffffffffffffffff1673ffffffffffffffffffffffffffffffffffffffff168152602001908152602001600020600082825461326b9190615255565b925050819055506001600360008473ffffffffffffffffffffffffffffffffffffffff1673ffffffffffffffffffffffffffffffffffffffff16815260200190815260200160002060008282546132c29190615174565b92505081905550816002600083815260200190815260200160002060006101000a81548173ffffffffffffffffffffffffffffffffffffffff021916908373ffffffffffffffffffffffffffffffffffffffff160217905550808273ffffffffffffffffffffffffffffffffffffffff168473ffffffffffffffffffffffffffffffffffffffff167fddf252ad1be2c89b69c2b068fc378daa952ba7f163c4a11628f55a4df523b3ef60405160405180910390a4505050565b600061338682611343565b9050613394816000846139a8565b61339f600083612d50565b6001600360008373ffffffffffffffffffffffffffffffffffffffff1673ffffffffffffffffffffffffffffffffffffffff16815260200190815260200160002060008282546133ef9190615255565b925050819055506002600083815260200190815260200160002060006101000a81549073ffffffffffffffffffffffffffffffffffffffff021916905581600073ffffffffffffffffffffffffffffffffffffffff168273ffffffffffffffffffffffffffffffffffffffff167fddf252ad1be2c89b69c2b068fc378daa952ba7f163c4a11628f55a4df523b3ef60405160405180910390a45050565b6000600b60009054906101000a900473ffffffffffffffffffffffffffffffffffffffff16905081600b60006101000a81548173ffffffffffffffffffffffffffffffffffffffff021916908373ffffffffffffffffffffffffffffffffffffffff1602179055508173ffffffffffffffffffffffffffffffffffffffff168173ffffffffffffffffffffffffffffffffffffffff167f8be0079c531659141344cd1fd0a4f28419497f9722a3daafe3b4186f6b6457e060405160405180910390a35050565b61355d84848461311f565b61356984848484613abc565b6135a8576040517f08c379a000000000000000000000000000000000000000000000000000000000815260040161359f90614d4f565b60405180910390fd5b50505050565b606060008214156135f6576040518060400160405280600181526020017f3000000000000000000000000000000000000000000000000000000000000000815250905061370a565b600082905060005b60008214613628578080613611906153a2565b915050600a8261362191906151ca565b91506135fe565b60008167ffffffffffffffff81111561364457613643615507565b5b6040519080825280601f01601f1916602001820160405280156136765781602001600182028036833780820191505090505b5090505b600085146137035760018261368f9190615255565b9150600a8561369e91906153eb565b60306136aa9190615174565b60f81b8183815181106136c0576136bf6154d8565b5b60200101907effffffffffffffffffffffffffffffffffffffffffffffffffffffffffffff1916908160001a905350600a856136fc91906151ca565b945061367a565b8093505050505b919050565b6060600082519050600081141561373857604051806020016040528060008152509150506138a2565b600060036002836137499190615174565b61375391906151ca565b600461375f91906151fb565b905060006020826137709190615174565b67ffffffffffffffff81111561378957613788615507565b5b6040519080825280601f01601f1916602001820160405280156137bb5781602001600182028036833780820191505090505b5090506000604051806060016040528060408152602001615ec8604091399050600181016020830160005b8681101561385f5760038101905062ffffff818a015116603f8160121c168401518060081b905060ff603f83600c1c1686015116810190508060081b905060ff603f8360061c1686015116810190508060081b905060ff603f831686015116810190508060e01b905080845260048401935050506137e6565b506003860660018114613879576002811461388957613894565b613d3d60f01b6002830352613894565b603d60f81b60018303525b508484525050819450505050505b919050565b60007f01ffc9a7000000000000000000000000000000000000000000000000000000007bffffffffffffffffffffffffffffffffffffffffffffffffffffffff1916827bffffffffffffffffffffffffffffffffffffffffffffffffffffffff1916149050919050565b600061394582613920856135ae565b604051602001613931929190614be0565b604051602081830303815290604052613c53565b905092915050565b6139578383613c86565b6139646000848484613abc565b6139a3576040517f08c379a000000000000000000000000000000000000000000000000000000000815260040161399a90614d4f565b60405180910390fd5b505050565b6139b3838383613e54565b600073ffffffffffffffffffffffffffffffffffffffff168373ffffffffffffffffffffffffffffffffffffffff1614156139f6576139f181613e59565b613a35565b8173ffffffffffffffffffffffffffffffffffffffff168373ffffffffffffffffffffffffffffffffffffffff1614613a3457613a338382613ea2565b5b5b600073ffffffffffffffffffffffffffffffffffffffff168273ffffffffffffffffffffffffffffffffffffffff161415613a7857613a738161400f565b613ab7565b8273ffffffffffffffffffffffffffffffffffffffff168273ffffffffffffffffffffffffffffffffffffffff1614613ab657613ab582826140e0565b5b5b505050565b6000613add8473ffffffffffffffffffffffffffffffffffffffff1661415f565b15613c46578373ffffffffffffffffffffffffffffffffffffffff1663150b7a02613b06612d48565b8786866040518563ffffffff1660e01b8152600401613b289493929190614c86565b602060405180830381600087803b158015613b4257600080fd5b505af1925050508015613b7357506040513d601f19601f82011682018060405250810190613b7091906145a3565b60015b613bf6573d8060008114613ba3576040519150601f19603f3d011682016040523d82523d6000602084013e613ba8565b606091505b50600081511415613bee576040517f08c379a0000000000000000000000000000000000000000000000000000000008152600401613be590614d4f565b60405180910390fd5b805181602001fd5b63150b7a0260e01b7bffffffffffffffffffffffffffffffffffffffffffffffffffffffff1916817bffffffffffffffffffffffffffffffffffffffffffffffffffffffff191614915050613c4b565b600190505b949350505050565b600081604051602001613c669190614bc9565b6040516020818303038152906040528051906020012060001c9050919050565b600073ffffffffffffffffffffffffffffffffffffffff168273ffffffffffffffffffffffffffffffffffffffff161415613cf6576040517f08c379a0000000000000000000000000000000000000000000000000000000008152600401613ced90614eaf565b60405180910390fd5b613cff81612cdc565b15613d3f576040517f08c379a0000000000000000000000000000000000000000000000000000000008152600401613d3690614d8f565b60405180910390fd5b613d4b600083836139a8565b6001600360008473ffffffffffffffffffffffffffffffffffffffff1673ffffffffffffffffffffffffffffffffffffffff1681526020019081526020016000206000828254613d9b9190615174565b92505081905550816002600083815260200190815260200160002060006101000a81548173ffffffffffffffffffffffffffffffffffffffff021916908373ffffffffffffffffffffffffffffffffffffffff160217905550808273ffffffffffffffffffffffffffffffffffffffff16600073ffffffffffffffffffffffffffffffffffffffff167fddf252ad1be2c89b69c2b068fc378daa952ba7f163c4a11628f55a4df523b3ef60405160405180910390a45050565b505050565b6008805490506009600083815260200190815260200160002081905550600881908060018154018082558091505060019003906000526020600020016000909190919091505550565b60006001613eaf846113f5565b613eb99190615255565b9050600060076000848152602001908152602001600020549050818114613f9e576000600660008673ffffffffffffffffffffffffffffffffffffffff1673ffffffffffffffffffffffffffffffffffffffff168152602001908152602001600020600084815260200190815260200160002054905080600660008773ffffffffffffffffffffffffffffffffffffffff1673ffffffffffffffffffffffffffffffffffffffff168152602001908152602001600020600084815260200190815260200160002081905550816007600083815260200190815260200160002081905550505b6007600084815260200190815260200160002060009055600660008573ffffffffffffffffffffffffffffffffffffffff1673ffffffffffffffffffffffffffffffffffffffff16815260200190815260200160002060008381526020019081526020016000206000905550505050565b600060016008805490506140239190615255565b9050600060096000848152602001908152602001600020549050600060088381548110614053576140526154d8565b5b906000526020600020015490508060088381548110614075576140746154d8565b5b9060005260206000200181905550816009600083815260200190815260200160002081905550600960008581526020019081526020016000206000905560088054806140c4576140c36154a9565b5b6001900381819060005260206000200160009055905550505050565b60006140eb836113f5565b905081600660008573ffffffffffffffffffffffffffffffffffffffff1673ffffffffffffffffffffffffffffffffffffffff168152602001908152602001600020600083815260200190815260200160002081905550806007600084815260200190815260200160002081905550505050565b600080823b905060008111915050919050565b6040518061080001604052806040905b60608152602001906001900390816141825790505090565b8280546141a69061533f565b90600052602060002090601f0160209004810192826141c8576000855561420f565b82601f106141e157805160ff191683800117855561420f565b8280016001018555821561420f579182015b8281111561420e5782518255916020019190600101906141f3565b5b50905061421c9190614220565b5090565b5b80821115614239576000816000905550600101614221565b5090565b600061425061424b846150cf565b6150aa565b90508281526020810184848401111561426c5761426b61553b565b5b6142778482856152fd565b509392505050565b600061429261428d84615100565b6150aa565b9050828152602081018484840111156142ae576142ad61553b565b5b6142b98482856152fd565b509392505050565b6000813590506142d081615cdb565b92915050565b6000813590506142e581615cf2565b92915050565b6000813590506142fa81615d09565b92915050565b60008151905061430f81615d09565b92915050565b600082601f83011261432a57614329615536565b5b813561433a84826020860161423d565b91505092915050565b600082601f83011261435857614357615536565b5b813561436884826020860161427f565b91505092915050565b60008135905061438081615d20565b92915050565b60006020828403121561439c5761439b615545565b5b60006143aa848285016142c1565b91505092915050565b600080604083850312156143ca576143c9615545565b5b60006143d8858286016142c1565b92505060206143e9858286016142c1565b9150509250929050565b60008060006060848603121561440c5761440b615545565b5b600061441a868287016142c1565b935050602061442b868287016142c1565b925050604061443c86828701614371565b9150509250925092565b600080600080608085870312156144605761445f615545565b5b600061446e878288016142c1565b945050602061447f878288016142c1565b935050604061449087828801614371565b925050606085013567ffffffffffffffff8111156144b1576144b0615540565b5b6144bd87828801614315565b91505092959194509250565b600080604083850312156144e0576144df615545565b5b60006144ee858286016142c1565b92505060206144ff858286016142d6565b9150509250929050565b600080604083850312156145205761451f615545565b5b600061452e858286016142c1565b925050602061453f85828601614371565b9150509250929050565b60006020828403121561455f5761455e615545565b5b600061456d848285016142d6565b91505092915050565b60006020828403121561458c5761458b615545565b5b600061459a848285016142eb565b91505092915050565b6000602082840312156145b9576145b8615545565b5b60006145c784828501614300565b91505092915050565b6000602082840312156145e6576145e5615545565b5b60006145f484828501614371565b91505092915050565b6000806040838503121561461457614613615545565b5b600061462285828601614371565b925050602083013567ffffffffffffffff81111561464357614642615540565b5b61464f85828601614343565b9150509250929050565b600080604083850312156146705761466f615545565b5b600061467e85828601614371565b925050602061468f85828601614371565b9150509250929050565b6146a281615289565b82525050565b6146b18161529b565b82525050565b60006146c282615131565b6146cc8185615147565b93506146dc81856020860161530c565b6146e58161554a565b840191505092915050565b60006146fb8261513c565b6147058185615158565b935061471581856020860161530c565b61471e8161554a565b840191505092915050565b60006147348261513c565b61473e8185615169565b935061474e81856020860161530c565b80840191505092915050565b6000614767600b83615158565b91506147728261555b565b602082019050919050565b600061478a602b83615158565b915061479582615584565b604082019050919050565b60006147ad603283615158565b91506147b8826155d3565b604082019050919050565b60006147d0602683615158565b91506147db82615622565b604082019050919050565b60006147f3601c83615158565b91506147fe82615671565b602082019050919050565b6000614816602483615158565b91506148218261569a565b604082019050919050565b6000614839601983615158565b9150614844826156e9565b602082019050919050565b600061485c601d83615158565b915061486782615712565b602082019050919050565b600061487f602c83615158565b915061488a8261573b565b604082019050919050565b60006148a2602783615158565b91506148ad8261578a565b604082019050919050565b60006148c5603883615158565b91506148d0826157d9565b604082019050919050565b60006148e8602a83615158565b91506148f382615828565b604082019050919050565b600061490b602983615158565b915061491682615877565b604082019050919050565b600061492e600283615169565b9150614939826158c6565b600282019050919050565b6000614951602083615158565b915061495c826158ef565b602082019050919050565b6000614974600e83615158565b915061497f82615918565b602082019050919050565b6000614997602c83615158565b91506149a282615941565b604082019050919050565b60006149ba600d83615158565b91506149c582615990565b602082019050919050565b60006149dd602083615158565b91506149e8826159b9565b602082019050919050565b6000614a00602983615158565b9150614a0b826159e2565b604082019050919050565b6000614a23602183615158565b9150614a2e82615a31565b604082019050919050565b6000614a46601683615158565b9150614a5182615a80565b602082019050919050565b6000614a69601983615158565b9150614a7482615aa9565b602082019050919050565b6000614a8c601d83615169565b9150614a9782615ad2565b601d82019050919050565b6000614aaf601583615169565b9150614aba82615afb565b601582019050919050565b6000614ad2603183615158565b9150614add82615b24565b604082019050919050565b6000614af5602c83615158565b9150614b0082615b73565b604082019050919050565b6000614b18600d83615158565b9150614b2382615bc2565b602082019050919050565b6000614b3b601a83615158565b9150614b4682615beb565b602082019050919050565b6000614b5e601f83615158565b9150614b6982615c14565b602082019050919050565b6000614b81605c83615169565b9150614b8c82615c3d565b605c82019050919050565b6000614ba4600e83615158565b9150614baf82615cb2565b602082019050919050565b614bc3816152f3565b82525050565b6000614bd58284614729565b915081905092915050565b6000614bec8285614729565b9150614bf88284614729565b91508190509392505050565b6000614c0f82614a7f565b9150614c1b8284614729565b915081905092915050565b6000614c3182614aa2565b9150614c3d8285614729565b9150614c4882614b74565b9150614c548284614729565b9150614c5f82614921565b91508190509392505050565b6000602082019050614c806000830184614699565b92915050565b6000608082019050614c9b6000830187614699565b614ca86020830186614699565b614cb56040830185614bba565b8181036060830152614cc781846146b7565b905095945050505050565b6000602082019050614ce760008301846146a8565b92915050565b60006020820190508181036000830152614d0781846146f0565b905092915050565b60006020820190508181036000830152614d288161475a565b9050919050565b60006020820190508181036000830152614d488161477d565b9050919050565b60006020820190508181036000830152614d68816147a0565b9050919050565b60006020820190508181036000830152614d88816147c3565b9050919050565b60006020820190508181036000830152614da8816147e6565b9050919050565b60006020820190508181036000830152614dc881614809565b9050919050565b60006020820190508181036000830152614de88161482c565b9050919050565b60006020820190508181036000830152614e088161484f565b9050919050565b60006020820190508181036000830152614e2881614872565b9050919050565b60006020820190508181036000830152614e4881614895565b9050919050565b60006020820190508181036000830152614e68816148b8565b9050919050565b60006020820190508181036000830152614e88816148db565b9050919050565b60006020820190508181036000830152614ea8816148fe565b9050919050565b60006020820190508181036000830152614ec881614944565b9050919050565b60006020820190508181036000830152614ee881614967565b9050919050565b60006020820190508181036000830152614f088161498a565b9050919050565b60006020820190508181036000830152614f28816149ad565b9050919050565b60006020820190508181036000830152614f48816149d0565b9050919050565b60006020820190508181036000830152614f68816149f3565b9050919050565b60006020820190508181036000830152614f8881614a16565b9050919050565b60006020820190508181036000830152614fa881614a39565b9050919050565b60006020820190508181036000830152614fc881614a5c565b9050919050565b60006020820190508181036000830152614fe881614ac5565b9050919050565b6000602082019050818103600083015261500881614ae8565b9050919050565b6000602082019050818103600083015261502881614b0b565b9050919050565b6000602082019050818103600083015261504881614b2e565b9050919050565b6000602082019050818103600083015261506881614b51565b9050919050565b6000602082019050818103600083015261508881614b97565b9050919050565b60006020820190506150a46000830184614bba565b92915050565b60006150b46150c5565b90506150c08282615371565b919050565b6000604051905090565b600067ffffffffffffffff8211156150ea576150e9615507565b5b6150f38261554a565b9050602081019050919050565b600067ffffffffffffffff82111561511b5761511a615507565b5b6151248261554a565b9050602081019050919050565b600081519050919050565b600081519050919050565b600082825260208201905092915050565b600082825260208201905092915050565b600081905092915050565b600061517f826152f3565b915061518a836152f3565b9250827fffffffffffffffffffffffffffffffffffffffffffffffffffffffffffffffff038211156151bf576151be61541c565b5b828201905092915050565b60006151d5826152f3565b91506151e0836152f3565b9250826151f0576151ef61544b565b5b828204905092915050565b6000615206826152f3565b9150615211836152f3565b9250817fffffffffffffffffffffffffffffffffffffffffffffffffffffffffffffffff048311821515161561524a5761524961541c565b5b828202905092915050565b6000615260826152f3565b915061526b836152f3565b92508282101561527e5761527d61541c565b5b828203905092915050565b6000615294826152d3565b9050919050565b60008115159050919050565b60007fffffffff0000000000000000000000000000000000000000000000000000000082169050919050565b600073ffffffffffffffffffffffffffffffffffffffff82169050919050565b6000819050919050565b82818337600083830152505050565b60005b8381101561532a57808201518184015260208101905061530f565b83811115615339576000848401525b50505050565b6000600282049050600182168061535757607f821691505b6020821081141561536b5761536a61547a565b5b50919050565b61537a8261554a565b810181811067ffffffffffffffff8211171561539957615398615507565b5b80604052505050565b60006153ad826152f3565b91507fffffffffffffffffffffffffffffffffffffffffffffffffffffffffffffffff8214156153e0576153df61541c565b5b600182019050919050565b60006153f6826152f3565b9150615401836152f3565b9250826154115761541061544b565b5b828206905092915050565b7f4e487b7100000000000000000000000000000000000000000000000000000000600052601160045260246000fd5b7f4e487b7100000000000000000000000000000000000000000000000000000000600052601260045260246000fd5b7f4e487b7100000000000000000000000000000000000000000000000000000000600052602260045260246000fd5b7f4e487b7100000000000000000000000000000000000000000000000000000000600052603160045260246000fd5b7f4e487b7100000000000000000000000000000000000000000000000000000000600052603260045260246000fd5b7f4e487b7100000000000000000000000000000000000000000000000000000000600052604160045260246000fd5b600080fd5b600080fd5b600080fd5b600080fd5b6000601f19601f8301169050919050565b7f53616c6520706175736564000000000000000000000000000000000000000000600082015250565b7f455243373231456e756d657261626c653a206f776e657220696e646578206f7560008201527f74206f6620626f756e6473000000000000000000000000000000000000000000602082015250565b7f4552433732313a207472616e7366657220746f206e6f6e20455243373231526560008201527f63656976657220696d706c656d656e7465720000000000000000000000000000602082015250565b7f4f776e61626c653a206e6577206f776e657220697320746865207a65726f206160008201527f6464726573730000000000000000000000000000000000000000000000000000602082015250565b7f4552433732313a20746f6b656e20616c7265616479206d696e74656400000000600082015250565b7f4552433732313a207472616e7366657220746f20746865207a65726f2061646460008201527f7265737300000000000000000000000000000000000000000000000000000000602082015250565b7f4552433732313a20617070726f766520746f2063616c6c657200000000000000600082015250565b7f7365636f6e6420746f6b656e2073686f756c642062652066656d616c65000000600082015250565b7f4552433732313a206f70657261746f7220717565727920666f72206e6f6e657860008201527f697374656e7420746f6b656e0000000000000000000000000000000000000000602082015250565b7f596f752063616e2061646f70742061206d6178696d756d206f6620323020487560008201527f6e67657269746500000000000000000000000000000000000000000000000000602082015250565b7f4552433732313a20617070726f76652063616c6c6572206973206e6f74206f7760008201527f6e6572206e6f7220617070726f76656420666f7220616c6c0000000000000000602082015250565b7f4552433732313a2062616c616e636520717565727920666f7220746865207a6560008201527f726f206164647265737300000000000000000000000000000000000000000000602082015250565b7f4552433732313a206f776e657220717565727920666f72206e6f6e657869737460008201527f656e7420746f6b656e0000000000000000000000000000000000000000000000602082015250565b7f227d000000000000000000000000000000000000000000000000000000000000600082015250565b7f4552433732313a206d696e7420746f20746865207a65726f2061646472657373600082015250565b7f6e6f7420617574686f72697a6564000000000000000000000000000000000000600082015250565b7f4552433732313a20617070726f76656420717565727920666f72206e6f6e657860008201527f697374656e7420746f6b656e0000000000000000000000000000000000000000602082015250565b7f6e6f206f6666737072696e677300000000000000000000000000000000000000600082015250565b7f4f776e61626c653a2063616c6c6572206973206e6f7420746865206f776e6572600082015250565b7f4552433732313a207472616e73666572206f6620746f6b656e2074686174206960008201527f73206e6f74206f776e0000000000000000000000000000000000000000000000602082015250565b7f4552433732313a20617070726f76616c20746f2063757272656e74206f776e6560008201527f7200000000000000000000000000000000000000000000000000000000000000602082015250565b7f45786365656473206d6178696d756d20737570706c7900000000000000000000600082015250565b7f45746865722073656e74206973206e6f7420636f727265637400000000000000600082015250565b7f646174613a6170706c69636174696f6e2f6a736f6e3b6261736536342c000000600082015250565b7f7b226e616d65223a202248756e67657269746520230000000000000000000000600082015250565b7f4552433732313a207472616e736665722063616c6c6572206973206e6f74206f60008201527f776e6572206e6f7220617070726f766564000000000000000000000000000000602082015250565b7f455243373231456e756d657261626c653a20676c6f62616c20696e646578206f60008201527f7574206f6620626f756e64730000000000000000000000000000000000000000602082015250565b7f4d6174696e672070617573656400000000000000000000000000000000000000600082015250565b7f666972737420746f6b656e2073686f756c64206265206d616c65000000000000600082015250565b7f5265656e7472616e637947756172643a207265656e7472616e742063616c6c00600082015250565b7f222c20226465736372697074696f6e223a202248756e6765725665727365206960008201527f7320612067616d65206f6620737572766976616c2e222c2022696d616765223a60208201527f2022646174613a696d6167652f7376672b786d6c3b6261736536342c00000000604082015250565b7f7265636c61696d20706175736564000000000000000000000000000000000000600082015250565b615ce481615289565b8114615cef57600080fd5b50565b615cfb8161529b565b8114615d0657600080fd5b50565b615d12816152a7565b8114615d1d57600080fd5b50565b615d29816152f3565b8114615d3457600080fd5b5056fe3c7465787420783d2231302220793d2236302220636c6173733d2262617365477265656e223e3c2f746578743e3c7465787420783d2231302220793d223132302220636c6173733d22626173655768697465223e2e62617365477265656e207b2066696c6c3a20737072696e67677265656e3b20666f6e742d66616d696c793a2073657269663b20666f6e742d73697a653a20313670783b207d3c2f7374796c653e3c2f746578743e3c7465787420783d2231302220793d223138302220636c6173733d22626173655768697465223e3c726563742077696474683d223130302522206865696768743d2231303025222066696c6c3d22626c61636b22202f3e3c2f746578743e3c7465787420783d2231302220793d223232302220636c6173733d22626173655768697465223e3c73766720786d6c6e733d22687474703a2f2f7777772e77332e6f72672f323030302f73766722207072657365727665417370656374526174696f3d22784d696e594d696e206d656574222076696577426f783d223020302033353020333530223e4142434445464748494a4b4c4d4e4f505152535455565758595a6162636465666768696a6b6c6d6e6f707172737475767778797a303132333435363738392b2f3c7374796c653e2e626173655768697465207b2066696c6c3a2077686974653b20666f6e742d66616d696c793a2073657269663b20666f6e742d73697a653a20313670783b207d3c2f746578743e3c7465787420783d2231302220793d223130302220636c6173733d22626173655768697465223e3c2f746578743e3c7465787420783d2231302220793d223230302220636c6173733d22626173655768697465223e3c2f746578743e3c7465787420783d2231302220793d223238302220636c6173733d22626173655768697465223e3c2f746578743e3c7465787420783d2231302220793d223236302220636c6173733d22626173655768697465223ea264697066735822122068200a933d76f7b2348c420be1b6e11feea44b442f0a582ae040a8287b8b831764736f6c63430008070033",
  "immutableReferences": {},
  "source": "// SPDX-License-Identifier: MIT\n\npragma solidity ^0.8.0;\n\nimport \"./FullERC721.sol\";\n\ncontract HungerVerse is ERC721Enumerable, ReentrancyGuard, Ownable {\n\n\tstruct PlayerInfo {\n        string name;\n        uint256 state;       //0 - burnt, 1 - active\n        uint256 gender;      //0 - FEMALE, 1 - MALE\n        uint256 district;    //1 to 12\n\n        //only for females\n        uint256 offsprings;  // 0 to 8\n\n        //gifted = 3, above average = 2, average = 1, below average = 0\n        uint256 huntingSkills;\n        uint256 IQ;\n        uint256 likes;\n\n        uint256 wins;\n        uint256 burns;\n\t}\n    string[] private gender = [ \"Female\", \"Male\" ];\n    string[] private skills = [ \"Below Average\", \"Average\", \"Above Average\", \"Gifted\" ];\n\t\n    uint256 public _price = 0.05 ether;\n    bool public _paused = true;\n    bool public _matingPaused = true;\n    bool public _reclaimPaused = true;\n    address public otherContract;\n\n    mapping (uint256 => PlayerInfo) private _tokenId2Player;\n\n    constructor() ERC721(\"HungerVerse\", \"HUNGER\") Ownable() {\n\t}\n\n    function generatePlayer(uint256 tokenId) private {\n        PlayerInfo storage player = _tokenId2Player[tokenId];   //by reference\n\n        player.state = 1;\n        player.gender = pluck(tokenId, \"GENDER\") % 2;\n        player.district = 1 + pluck(tokenId, \"DISTRICT\") % 12;\n        if(player.gender == 0) {\n            player.offsprings = pluck(tokenId, \"OFFSPRINGS\") % 9;\n        }\n        player.huntingSkills = (player.wins + player.burns + pluck(tokenId, \"HUNTING\")) % 4;\n        player.IQ = (player.wins + player.burns + pluck(tokenId, \"IQSCORE\")) % 4;\n    }\n\n    function random(string memory input) private pure returns (uint256) {\n        return uint256(keccak256(abi.encodePacked(input)));\n    }\n    function pluck(uint256 tokenId, string memory keyPrefix) private pure returns (uint256) {\n        return random(string(abi.encodePacked(keyPrefix, Strings.toString(tokenId))));\n    }\n    function tokenURI(uint256 tokenId) override public view returns (string memory) {\n        PlayerInfo memory player = _tokenId2Player[tokenId];\n\n        string[64] memory parts;\n\t\tuint256 counter = 0;\n        parts[counter++] = '<svg xmlns=\"http://www.w3.org/2000/svg\" preserveAspectRatio=\"xMinYMin meet\" viewBox=\"0 0 350 350\">';\n\t\tparts[counter++] = '<style>.baseWhite { fill: white; font-family: serif; font-size: 16px; }';\n\t\tparts[counter++] = '.baseGreen { fill: springgreen; font-family: serif; font-size: 16px; }</style>';\n\t\tparts[counter++] = '<rect width=\"100%\" height=\"100%\" fill=\"black\" />';\n        parts[counter++] = '<text x=\"10\" y=\"60\" class=\"baseGreen\">';\n        parts[counter++] = gender[player.gender];\n        parts[counter++] = '</text><text x=\"10\" y=\"100\" class=\"baseWhite\">';\n        parts[counter++] = \"Name:\\t\";\n        parts[counter++] = bytes(player.name).length > 0 ? player.name : '';\n\n        if(player.gender == 0) {\n            parts[counter++] = '</text><text x=\"10\" y=\"120\" class=\"baseWhite\">';\n            parts[counter++] = \"Offsprings:\\t\";\n            parts[counter++] = Strings.toString(player.offsprings);\n        }\n        parts[counter++] = '</text><text x=\"10\" y=\"180\" class=\"baseWhite\">';\n        parts[counter++] = \"HuntingSkills:\\t\";\n        parts[counter++] = skills[player.huntingSkills];\n        parts[counter++] = '</text><text x=\"10\" y=\"200\" class=\"baseWhite\">';\n        parts[counter++] = \"IQ:\\t\";\n        parts[counter++] = skills[player.IQ];\n        parts[counter++] = '</text><text x=\"10\" y=\"220\" class=\"baseWhite\">';\n        parts[counter++] = \"Likes:\\t\";\n        parts[counter++] = Strings.toString(player.likes);\n        parts[counter++] = '</text><text x=\"10\" y=\"260\" class=\"baseWhite\">';\n        parts[counter++] = \"wins:\\t\";\n        parts[counter++] = Strings.toString(player.wins);\n        parts[counter++] = '</text><text x=\"10\" y=\"280\" class=\"baseWhite\">';\n        parts[counter++] = \"burns:\\t\";\n        parts[counter++] = Strings.toString(player.burns);\n\n        parts[counter++] = '</text></svg>';\n\n        string memory output = \"\";\n\t\tfor(uint256 i = 0; i < counter; ++i)\n\t\t{\n\t\t\toutput = string(abi.encodePacked(output, parts[i]));\n\t\t}\n\n        string memory json = Base64.encode(bytes(string(abi.encodePacked('{\"name\": \"Hungerite #', Strings.toString(tokenId), '\", \"description\": \"HungerVerse is a game of survival.\", \"image\": \"data:image/svg+xml;base64,', Base64.encode(bytes(output)), '\"}'))));\n        output = string(abi.encodePacked('data:application/json;base64,', json));\n\n        return output;\n    }\n    function ownHungerites(uint256 num) external nonReentrant payable {\n        uint256 supply = totalSupply();\n        require(!_paused, \"Sale paused\");\n        require(num > 0 && num < 21, \"You can adopt a maximum of 20 Hungerite\");\n        require(supply + num <= 24000, \"Exceeds maximum supply\");\n        require(msg.value >= _price * num, \"Ether sent is not correct\");\n\n        for(uint256 i = 1; i <= num; i++) {\n            generatePlayer(supply + i);\n            _safeMint(msg.sender, supply + i);\n        }\n    }\n    function reclaimHungerites(uint256 num) external payable {\n        uint256 supply = totalSupply();\n        require(!_reclaimPaused, \"reclaim paused\");\n        require(num > 0 && num < 21, \"You can adopt a maximum of 20 Hungerite\");\n        require(supply + num <= 24000, \"Exceeds maximum supply\");\n        require(msg.value >= _price * num, \"Ether sent is not correct\");\n\n        uint256 count = 0;\n        for(uint256 i = 1; i <= 24000; i++) {\n            if(_tokenId2Player[i].state == 1) continue;\n            generatePlayer(i);\n            _safeMint(msg.sender, i);\n            if(++count == num) break;\n        }\n    }\n    function mate(uint256 tokenIdM, uint256 tokenIdF) external {\n        uint256 supply = totalSupply();\n        require(!_matingPaused, \"Mating paused\");\n        require(_isApprovedOrOwner(msg.sender, tokenIdM), \"not authorized\");\n        require(_isApprovedOrOwner(msg.sender, tokenIdF), \"not authorized\");\n        PlayerInfo memory male = _tokenId2Player[tokenIdM];\n        require(male.gender == 1, \"first token should be male\");\n        PlayerInfo storage female = _tokenId2Player[tokenIdF];\n        require(female.gender == 0, \"second token should be female\");\n        require(female.offsprings > 0, \"no offsprings\");\n        require(supply + female.offsprings <= 24000, \"Exceeds maximum supply\");\n\n        uint256 count = 0;\n        for(uint256 i = 1; i <= 24000; i++) {\n            if(_tokenId2Player[i].state == 1) continue;\n            generatePlayer(i);\n            _safeMint(msg.sender, i);\n            if(++count == female.offsprings) break;\n        }\n        female.offsprings = 0;\n    }\n\tfunction like(uint256 tokenId) external {\n\t\tPlayerInfo storage player = _tokenId2Player[tokenId];\n\t\tplayer.likes++;\n\t}\n\tfunction setMatingPause(bool val) external onlyOwner {\n\t\t_matingPaused = val;\n\t}\n\tfunction setReclaimPause(bool val) external onlyOwner {\n\t\t_reclaimPaused = val;\n\t}\n    function getDistrict(uint256 tokenId) external view returns (uint256) {\n        return _tokenId2Player[tokenId].district;\n    }\n    function burn(uint256 tokenId) external {\n        require(msg.sender == otherContract);\n        require(_isApprovedOrOwner(msg.sender, tokenId), \"not authorized\");\n        PlayerInfo storage player = _tokenId2Player[tokenId];\n        player.state = 0;\n        player.burns++;\n        _burn(tokenId);\n    }\n    function setName(uint256 tokenId, string memory val) external {\n        require(_isApprovedOrOwner(msg.sender, tokenId), \"not authorized\");\n        PlayerInfo storage player = _tokenId2Player[tokenId];\n        player.name = val;\n    }\n    function setPrice(uint256 _newPrice) external onlyOwner {\n        _price = _newPrice;\n    }\n    function setPause(bool val) external onlyOwner {\n        _paused = val;\n    }\n    function setOtherContract(address _otherContract) external onlyOwner {\n        otherContract = _otherContract;\n    }\n    function withdraw() external payable onlyOwner {\n        address t1 = 0x4aF0BB035FfB1CbEFA550530917e151a53034d70;\n        require(payable(t1).send(address(this).balance));\n    }\n}\n",
  "sourcePath": "/home/ec2-user/github/fcc-dapp/src/contracts/HungerVerse.sol",
  "compiler": {
    "name": "solc",
    "version": "0.8.7+commit.e28d00a7.Emscripten.clang"
  },
  "schemaVersion": "3.4.3",
  "updatedAt": "2022-01-04T08:17:45.783Z",
  "devdoc": {
    "kind": "dev",
    "methods": {
      "approve(address,uint256)": {
        "details": "See {IERC721-approve}."
      },
      "balanceOf(address)": {
        "details": "See {IERC721-balanceOf}."
      },
      "getApproved(uint256)": {
        "details": "See {IERC721-getApproved}."
      },
      "isApprovedForAll(address,address)": {
        "details": "See {IERC721-isApprovedForAll}."
      },
      "name()": {
        "details": "See {IERC721Metadata-name}."
      },
      "owner()": {
        "details": "Returns the address of the current owner."
      },
      "ownerOf(uint256)": {
        "details": "See {IERC721-ownerOf}."
      },
      "renounceOwnership()": {
        "details": "Leaves the contract without owner. It will not be possible to call `onlyOwner` functions anymore. Can only be called by the current owner. NOTE: Renouncing ownership will leave the contract without an owner, thereby removing any functionality that is only available to the owner."
      },
      "safeTransferFrom(address,address,uint256)": {
        "details": "See {IERC721-safeTransferFrom}."
      },
      "safeTransferFrom(address,address,uint256,bytes)": {
        "details": "See {IERC721-safeTransferFrom}."
      },
      "setApprovalForAll(address,bool)": {
        "details": "See {IERC721-setApprovalForAll}."
      },
      "supportsInterface(bytes4)": {
        "details": "See {IERC165-supportsInterface}."
      },
      "symbol()": {
        "details": "See {IERC721Metadata-symbol}."
      },
      "tokenByIndex(uint256)": {
        "details": "See {IERC721Enumerable-tokenByIndex}."
      },
      "tokenOfOwnerByIndex(address,uint256)": {
        "details": "See {IERC721Enumerable-tokenOfOwnerByIndex}."
      },
      "tokenURI(uint256)": {
        "details": "See {IERC721Metadata-tokenURI}."
      },
      "totalSupply()": {
        "details": "See {IERC721Enumerable-totalSupply}."
      },
      "transferFrom(address,address,uint256)": {
        "details": "See {IERC721-transferFrom}."
      },
      "transferOwnership(address)": {
        "details": "Transfers ownership of the contract to a new account (`newOwner`). Can only be called by the current owner."
      }
    },
    "version": 1
  },
  "userdoc": {
    "kind": "user",
    "methods": {},
    "version": 1
  }
}