{
  "contractName": "HungerVerse",
  "abi": [
    {
      "inputs": [],
      "stateMutability": "nonpayable",
      "type": "constructor"
    },
    {
      "anonymous": false,
      "inputs": [
        {
          "indexed": true,
          "internalType": "address",
          "name": "owner",
          "type": "address"
        },
        {
          "indexed": true,
          "internalType": "address",
          "name": "approved",
          "type": "address"
        },
        {
          "indexed": true,
          "internalType": "uint256",
          "name": "tokenId",
          "type": "uint256"
        }
      ],
      "name": "Approval",
      "type": "event"
    },
    {
      "anonymous": false,
      "inputs": [
        {
          "indexed": true,
          "internalType": "address",
          "name": "owner",
          "type": "address"
        },
        {
          "indexed": true,
          "internalType": "address",
          "name": "operator",
          "type": "address"
        },
        {
          "indexed": false,
          "internalType": "bool",
          "name": "approved",
          "type": "bool"
        }
      ],
      "name": "ApprovalForAll",
      "type": "event"
    },
    {
      "anonymous": false,
      "inputs": [
        {
          "indexed": true,
          "internalType": "address",
          "name": "previousOwner",
          "type": "address"
        },
        {
          "indexed": true,
          "internalType": "address",
          "name": "newOwner",
          "type": "address"
        }
      ],
      "name": "OwnershipTransferred",
      "type": "event"
    },
    {
      "anonymous": false,
      "inputs": [
        {
          "indexed": true,
          "internalType": "address",
          "name": "from",
          "type": "address"
        },
        {
          "indexed": true,
          "internalType": "address",
          "name": "to",
          "type": "address"
        },
        {
          "indexed": true,
          "internalType": "uint256",
          "name": "tokenId",
          "type": "uint256"
        }
      ],
      "name": "Transfer",
      "type": "event"
    },
    {
      "inputs": [],
      "name": "_matingPaused",
      "outputs": [
        {
          "internalType": "bool",
          "name": "",
          "type": "bool"
        }
      ],
      "stateMutability": "view",
      "type": "function"
    },
    {
      "inputs": [],
      "name": "_paused",
      "outputs": [
        {
          "internalType": "bool",
          "name": "",
          "type": "bool"
        }
      ],
      "stateMutability": "view",
      "type": "function"
    },
    {
      "inputs": [],
      "name": "_reclaimPaused",
      "outputs": [
        {
          "internalType": "bool",
          "name": "",
          "type": "bool"
        }
      ],
      "stateMutability": "view",
      "type": "function"
    },
    {
      "inputs": [
        {
          "internalType": "address",
          "name": "to",
          "type": "address"
        },
        {
          "internalType": "uint256",
          "name": "tokenId",
          "type": "uint256"
        }
      ],
      "name": "approve",
      "outputs": [],
      "stateMutability": "nonpayable",
      "type": "function"
    },
    {
      "inputs": [
        {
          "internalType": "address",
          "name": "owner",
          "type": "address"
        }
      ],
      "name": "balanceOf",
      "outputs": [
        {
          "internalType": "uint256",
          "name": "",
          "type": "uint256"
        }
      ],
      "stateMutability": "view",
      "type": "function"
    },
    {
      "inputs": [
        {
          "internalType": "uint256",
          "name": "tokenId",
          "type": "uint256"
        }
      ],
      "name": "getApproved",
      "outputs": [
        {
          "internalType": "address",
          "name": "",
          "type": "address"
        }
      ],
      "stateMutability": "view",
      "type": "function"
    },
    {
      "inputs": [
        {
          "internalType": "address",
          "name": "owner",
          "type": "address"
        },
        {
          "internalType": "address",
          "name": "operator",
          "type": "address"
        }
      ],
      "name": "isApprovedForAll",
      "outputs": [
        {
          "internalType": "bool",
          "name": "",
          "type": "bool"
        }
      ],
      "stateMutability": "view",
      "type": "function"
    },
    {
      "inputs": [],
      "name": "name",
      "outputs": [
        {
          "internalType": "string",
          "name": "",
          "type": "string"
        }
      ],
      "stateMutability": "view",
      "type": "function"
    },
    {
      "inputs": [],
      "name": "owner",
      "outputs": [
        {
          "internalType": "address",
          "name": "",
          "type": "address"
        }
      ],
      "stateMutability": "view",
      "type": "function"
    },
    {
      "inputs": [
        {
          "internalType": "uint256",
          "name": "tokenId",
          "type": "uint256"
        }
      ],
      "name": "ownerOf",
      "outputs": [
        {
          "internalType": "address",
          "name": "",
          "type": "address"
        }
      ],
      "stateMutability": "view",
      "type": "function"
    },
    {
      "inputs": [],
      "name": "renounceOwnership",
      "outputs": [],
      "stateMutability": "nonpayable",
      "type": "function"
    },
    {
      "inputs": [
        {
          "internalType": "address",
          "name": "from",
          "type": "address"
        },
        {
          "internalType": "address",
          "name": "to",
          "type": "address"
        },
        {
          "internalType": "uint256",
          "name": "tokenId",
          "type": "uint256"
        }
      ],
      "name": "safeTransferFrom",
      "outputs": [],
      "stateMutability": "nonpayable",
      "type": "function"
    },
    {
      "inputs": [
        {
          "internalType": "address",
          "name": "from",
          "type": "address"
        },
        {
          "internalType": "address",
          "name": "to",
          "type": "address"
        },
        {
          "internalType": "uint256",
          "name": "tokenId",
          "type": "uint256"
        },
        {
          "internalType": "bytes",
          "name": "_data",
          "type": "bytes"
        }
      ],
      "name": "safeTransferFrom",
      "outputs": [],
      "stateMutability": "nonpayable",
      "type": "function"
    },
    {
      "inputs": [
        {
          "internalType": "address",
          "name": "operator",
          "type": "address"
        },
        {
          "internalType": "bool",
          "name": "approved",
          "type": "bool"
        }
      ],
      "name": "setApprovalForAll",
      "outputs": [],
      "stateMutability": "nonpayable",
      "type": "function"
    },
    {
      "inputs": [
        {
          "internalType": "bytes4",
          "name": "interfaceId",
          "type": "bytes4"
        }
      ],
      "name": "supportsInterface",
      "outputs": [
        {
          "internalType": "bool",
          "name": "",
          "type": "bool"
        }
      ],
      "stateMutability": "view",
      "type": "function"
    },
    {
      "inputs": [],
      "name": "symbol",
      "outputs": [
        {
          "internalType": "string",
          "name": "",
          "type": "string"
        }
      ],
      "stateMutability": "view",
      "type": "function"
    },
    {
      "inputs": [
        {
          "internalType": "uint256",
          "name": "index",
          "type": "uint256"
        }
      ],
      "name": "tokenByIndex",
      "outputs": [
        {
          "internalType": "uint256",
          "name": "",
          "type": "uint256"
        }
      ],
      "stateMutability": "view",
      "type": "function"
    },
    {
      "inputs": [
        {
          "internalType": "address",
          "name": "owner",
          "type": "address"
        },
        {
          "internalType": "uint256",
          "name": "index",
          "type": "uint256"
        }
      ],
      "name": "tokenOfOwnerByIndex",
      "outputs": [
        {
          "internalType": "uint256",
          "name": "",
          "type": "uint256"
        }
      ],
      "stateMutability": "view",
      "type": "function"
    },
    {
      "inputs": [],
      "name": "totalSupply",
      "outputs": [
        {
          "internalType": "uint256",
          "name": "",
          "type": "uint256"
        }
      ],
      "stateMutability": "view",
      "type": "function"
    },
    {
      "inputs": [
        {
          "internalType": "address",
          "name": "from",
          "type": "address"
        },
        {
          "internalType": "address",
          "name": "to",
          "type": "address"
        },
        {
          "internalType": "uint256",
          "name": "tokenId",
          "type": "uint256"
        }
      ],
      "name": "transferFrom",
      "outputs": [],
      "stateMutability": "nonpayable",
      "type": "function"
    },
    {
      "inputs": [
        {
          "internalType": "address",
          "name": "newOwner",
          "type": "address"
        }
      ],
      "name": "transferOwnership",
      "outputs": [],
      "stateMutability": "nonpayable",
      "type": "function"
    },
    {
      "inputs": [
        {
          "internalType": "uint256",
          "name": "tokenId",
          "type": "uint256"
        }
      ],
      "name": "tokenURI",
      "outputs": [
        {
          "internalType": "string",
          "name": "",
          "type": "string"
        }
      ],
      "stateMutability": "view",
      "type": "function"
    },
    {
      "inputs": [
        {
          "internalType": "uint256",
          "name": "num",
          "type": "uint256"
        }
      ],
      "name": "ownHungerites",
      "outputs": [],
      "stateMutability": "payable",
      "type": "function"
    },
    {
      "inputs": [
        {
          "internalType": "uint256",
          "name": "num",
          "type": "uint256"
        }
      ],
      "name": "reclaimHungerites",
      "outputs": [],
      "stateMutability": "payable",
      "type": "function"
    },
    {
      "inputs": [
        {
          "internalType": "uint256",
          "name": "tokenIdM",
          "type": "uint256"
        },
        {
          "internalType": "uint256",
          "name": "tokenIdF",
          "type": "uint256"
        }
      ],
      "name": "mate",
      "outputs": [],
      "stateMutability": "nonpayable",
      "type": "function"
    },
    {
      "inputs": [
        {
          "internalType": "uint256",
          "name": "tokenId",
          "type": "uint256"
        }
      ],
      "name": "burn",
      "outputs": [],
      "stateMutability": "nonpayable",
      "type": "function"
    },
    {
      "inputs": [
        {
          "internalType": "uint256",
          "name": "tokenId",
          "type": "uint256"
        },
        {
          "internalType": "string",
          "name": "val",
          "type": "string"
        }
      ],
      "name": "setName",
      "outputs": [],
      "stateMutability": "nonpayable",
      "type": "function"
    },
    {
      "inputs": [
        {
          "internalType": "uint256",
          "name": "tokenId",
          "type": "uint256"
        }
      ],
      "name": "like",
      "outputs": [],
      "stateMutability": "nonpayable",
      "type": "function"
    },
    {
      "inputs": [
        {
          "internalType": "uint256",
          "name": "_newPrice",
          "type": "uint256"
        }
      ],
      "name": "setPrice",
      "outputs": [],
      "stateMutability": "nonpayable",
      "type": "function"
    },
    {
      "inputs": [],
      "name": "getPrice",
      "outputs": [
        {
          "internalType": "uint256",
          "name": "",
          "type": "uint256"
        }
      ],
      "stateMutability": "view",
      "type": "function"
    },
    {
      "inputs": [
        {
          "internalType": "bool",
          "name": "val",
          "type": "bool"
        }
      ],
      "name": "setPause",
      "outputs": [],
      "stateMutability": "nonpayable",
      "type": "function"
    },
    {
      "inputs": [
        {
          "internalType": "bool",
          "name": "val",
          "type": "bool"
        }
      ],
      "name": "setMatingPause",
      "outputs": [],
      "stateMutability": "nonpayable",
      "type": "function"
    },
    {
      "inputs": [
        {
          "internalType": "bool",
          "name": "val",
          "type": "bool"
        }
      ],
      "name": "setReclaimPause",
      "outputs": [],
      "stateMutability": "nonpayable",
      "type": "function"
    },
    {
      "inputs": [],
      "name": "withdraw",
      "outputs": [],
      "stateMutability": "payable",
      "type": "function"
    }
  ],
  "bytecode": "0x608060405260405180604001604052806040518060400160405280600681526020017f46656d616c65000000000000000000000000000000000000000000000000000081525081526020016040518060400160405280600481526020017f4d616c6500000000000000000000000000000000000000000000000000000000815250815250600c90600262000095929190620003a4565b5060405180608001604052806040518060400160405280600d81526020017f42656c6f7720417665726167650000000000000000000000000000000000000081525081526020016040518060400160405280600781526020017f417665726167650000000000000000000000000000000000000000000000000081525081526020016040518060400160405280600d81526020017f41626f766520417665726167650000000000000000000000000000000000000081525081526020016040518060400160405280600681526020017f4769667465640000000000000000000000000000000000000000000000000000815250815250600d9060046200019d9291906200040b565b5066b1a2bc2ec50000600e556001600f60006101000a81548160ff0219169083151502179055506001600f60016101000a81548160ff0219169083151502179055506001600f60026101000a81548160ff0219169083151502179055503480156200020757600080fd5b506040518060400160405280600b81526020017f48756e67657256657273650000000000000000000000000000000000000000008152506040518060400160405280600681526020017f48554e474552000000000000000000000000000000000000000000000000000081525081600090805190602001906200028c92919062000472565b508060019080519060200190620002a592919062000472565b5050506001600a81905550620002d0620002c4620002d660201b60201c565b620002de60201b60201c565b620005f5565b600033905090565b6000600b60009054906101000a900473ffffffffffffffffffffffffffffffffffffffff16905081600b60006101000a81548173ffffffffffffffffffffffffffffffffffffffff021916908373ffffffffffffffffffffffffffffffffffffffff1602179055508173ffffffffffffffffffffffffffffffffffffffff168173ffffffffffffffffffffffffffffffffffffffff167f8be0079c531659141344cd1fd0a4f28419497f9722a3daafe3b4186f6b6457e060405160405180910390a35050565b828054828255906000526020600020908101928215620003f8579160200282015b82811115620003f7578251829080519060200190620003e692919062000472565b5091602001919060010190620003c5565b5b50905062000407919062000503565b5090565b8280548282559060005260206000209081019282156200045f579160200282015b828111156200045e5782518290805190602001906200044d92919062000472565b50916020019190600101906200042c565b5b5090506200046e919062000503565b5090565b828054620004809062000590565b90600052602060002090601f016020900481019282620004a45760008555620004f0565b82601f10620004bf57805160ff1916838001178555620004f0565b82800160010185558215620004f0579182015b82811115620004ef578251825591602001919060010190620004d2565b5b509050620004ff91906200052b565b5090565b5b808211156200052757600081816200051d91906200054a565b5060010162000504565b5090565b5b80821115620005465760008160009055506001016200052c565b5090565b508054620005589062000590565b6000825580601f106200056c57506200058d565b601f0160209004906000526020600020908101906200058c91906200052b565b5b50565b60006002820490506001821680620005a957607f821691505b60208210811415620005c057620005bf620005c6565b5b50919050565b7f4e487b7100000000000000000000000000000000000000000000000000000000600052602260045260246000fd5b615e3e80620006056000396000f3fe6080604052600436106101f95760003560e01c806384eb1f111161010d578063bedb86fb116100a0578063e82935da1161006f578063e82935da146106f4578063e86a45931461071d578063e985e9c514610746578063f2fde38b14610783578063fe55932a146107ac576101f9565b8063bedb86fb1461063a578063c87b56dd14610663578063d8eb356a146106a0578063db4ec21a146106c9576101f9565b806398d5fdca116100dc57806398d5fdca146105945780639c3f5237146105bf578063a22cb465146105e8578063b88d4fde14610611576101f9565b806384eb1f11146104ea5780638da5cb5b1461051557806391b7f5ed1461054057806395d89b4114610569576101f9565b80632c2479451161019057806342966c681161015f57806342966c68146103f35780634f6ccce71461041c5780636352211e1461045957806370a0823114610496578063715018a6146104d3576101f9565b80632c247945146103675780632f745c59146103835780633ccfd60b146103c057806342842e0e146103ca576101f9565b80630a1952c3116101cc5780630a1952c3146102cc57806316c61ccc146102e857806318160ddd1461031357806323b872dd1461033e576101f9565b806301ffc9a7146101fe57806306fdde031461023b578063081812fc14610266578063095ea7b3146102a3575b600080fd5b34801561020a57600080fd5b5061022560048036038101906102209190614360565b6107d5565b6040516102329190614aee565b60405180910390f35b34801561024757600080fd5b5061025061084f565b60405161025d9190614b09565b60405180910390f35b34801561027257600080fd5b5061028d600480360381019061028891906143ba565b6108e1565b60405161029a9190614a87565b60405180910390f35b3480156102af57600080fd5b506102ca60048036038101906102c591906142f3565b610966565b005b6102e660048036038101906102e191906143ba565b610a7e565b005b3480156102f457600080fd5b506102fd610c6a565b60405161030a9190614aee565b60405180910390f35b34801561031f57600080fd5b50610328610c7d565b6040516103359190614eab565b60405180910390f35b34801561034a57600080fd5b50610365600480360381019061036091906141dd565b610c8a565b005b610381600480360381019061037c91906143ba565b610cea565b005b34801561038f57600080fd5b506103aa60048036038101906103a591906142f3565b610f02565b6040516103b79190614eab565b60405180910390f35b6103c8610fa7565b005b3480156103d657600080fd5b506103f160048036038101906103ec91906141dd565b61107d565b005b3480156103ff57600080fd5b5061041a600480360381019061041591906143ba565b61109d565b005b34801561042857600080fd5b50610443600480360381019061043e91906143ba565b61112e565b6040516104509190614eab565b60405180910390f35b34801561046557600080fd5b50610480600480360381019061047b91906143ba565b61119f565b60405161048d9190614a87565b60405180910390f35b3480156104a257600080fd5b506104bd60048036038101906104b89190614170565b611251565b6040516104ca9190614eab565b60405180910390f35b3480156104df57600080fd5b506104e8611309565b005b3480156104f657600080fd5b506104ff611391565b60405161050c9190614aee565b60405180910390f35b34801561052157600080fd5b5061052a6113a4565b6040516105379190614a87565b60405180910390f35b34801561054c57600080fd5b50610567600480360381019061056291906143ba565b6113ce565b005b34801561057557600080fd5b5061057e611454565b60405161058b9190614b09565b60405180910390f35b3480156105a057600080fd5b506105a96114e6565b6040516105b69190614eab565b60405180910390f35b3480156105cb57600080fd5b506105e660048036038101906105e19190614443565b6114f0565b005b3480156105f457600080fd5b5061060f600480360381019061060a91906142b3565b611883565b005b34801561061d57600080fd5b5061063860048036038101906106339190614230565b611a04565b005b34801561064657600080fd5b50610661600480360381019061065c9190614333565b611a66565b005b34801561066f57600080fd5b5061068a600480360381019061068591906143ba565b611aff565b6040516106979190614b09565b60405180910390f35b3480156106ac57600080fd5b506106c760048036038101906106c29190614333565b611ba4565b005b3480156106d557600080fd5b506106de611c3d565b6040516106eb9190614aee565b60405180910390f35b34801561070057600080fd5b5061071b600480360381019061071691906143ba565b611c50565b005b34801561072957600080fd5b50610744600480360381019061073f9190614333565b611c8e565b005b34801561075257600080fd5b5061076d6004803603810190610768919061419d565b611d27565b60405161077a9190614aee565b60405180910390f35b34801561078f57600080fd5b506107aa60048036038101906107a59190614170565b611dbb565b005b3480156107b857600080fd5b506107d360048036038101906107ce91906143e7565b611eb3565b005b60007f780e9d63000000000000000000000000000000000000000000000000000000007bffffffffffffffffffffffffffffffffffffffffffffffffffffffff1916827bffffffffffffffffffffffffffffffffffffffffffffffffffffffff19161480610848575061084782611f32565b5b9050919050565b60606000805461085e90615165565b80601f016020809104026020016040519081016040528092919081815260200182805461088a90615165565b80156108d75780601f106108ac576101008083540402835291602001916108d7565b820191906000526020600020905b8154815290600101906020018083116108ba57829003601f168201915b5050505050905090565b60006108ec82612014565b61092b576040517f08c379a000000000000000000000000000000000000000000000000000000000815260040161092290614d0b565b60405180910390fd5b6004600083815260200190815260200160002060009054906101000a900473ffffffffffffffffffffffffffffffffffffffff169050919050565b60006109718261119f565b90508073ffffffffffffffffffffffffffffffffffffffff168373ffffffffffffffffffffffffffffffffffffffff1614156109e2576040517f08c379a00000000000000000000000000000000000000000000000000000000081526004016109d990614d8b565b60405180910390fd5b8073ffffffffffffffffffffffffffffffffffffffff16610a01612080565b73ffffffffffffffffffffffffffffffffffffffff161480610a305750610a2f81610a2a612080565b611d27565b5b610a6f576040517f08c379a0000000000000000000000000000000000000000000000000000000008152600401610a6690614c6b565b60405180910390fd5b610a798383612088565b505050565b6002600a541415610ac4576040517f08c379a0000000000000000000000000000000000000000000000000000000008152600401610abb90614e6b565b60405180910390fd5b6002600a819055506000610ad6610c7d565b9050600f60009054906101000a900460ff1615610b28576040517f08c379a0000000000000000000000000000000000000000000000000000000008152600401610b1f90614b2b565b60405180910390fd5b600082118015610b385750601582105b610b77576040517f08c379a0000000000000000000000000000000000000000000000000000000008152600401610b6e90614c4b565b60405180910390fd5b615dc08282610b869190614f90565b10610bc6576040517f08c379a0000000000000000000000000000000000000000000000000000000008152600401610bbd90614dab565b60405180910390fd5b81600e54610bd49190615017565b341015610c16576040517f08c379a0000000000000000000000000000000000000000000000000000000008152600401610c0d90614dcb565b60405180910390fd5b60005b82811015610c5d57610c358183610c309190614f90565b612141565b610c4a338284610c459190614f90565b61235b565b8080610c55906151c8565b915050610c19565b50506001600a8190555050565b600f60009054906101000a900460ff1681565b6000600880549050905090565b610c9b610c95612080565b82612379565b610cda576040517f08c379a0000000000000000000000000000000000000000000000000000000008152600401610cd190614deb565b60405180910390fd5b610ce5838383612457565b505050565b6002600a541415610d30576040517f08c379a0000000000000000000000000000000000000000000000000000000008152600401610d2790614e6b565b60405180910390fd5b6002600a819055506000610d42610c7d565b9050600f60029054906101000a900460ff1615610d94576040517f08c379a0000000000000000000000000000000000000000000000000000000008152600401610d8b90614e8b565b60405180910390fd5b600082118015610da45750601582105b610de3576040517f08c379a0000000000000000000000000000000000000000000000000000000008152600401610dda90614c4b565b60405180910390fd5b615dc08282610df29190614f90565b10610e32576040517f08c379a0000000000000000000000000000000000000000000000000000000008152600401610e2990614dab565b60405180910390fd5b81600e54610e409190615017565b341015610e82576040517f08c379a0000000000000000000000000000000000000000000000000000000008152600401610e7990614dcb565b60405180910390fd5b6000805b615dc0811015610ef457600160106000838152602001908152602001600020600101541415610eb457610ee1565b610ebd81612141565b610ec7338261235b565b8382610ed2906151c8565b9250821415610ee057610ef4565b5b8080610eec906151c8565b915050610e86565b5050506001600a8190555050565b6000610f0d83611251565b8210610f4e576040517f08c379a0000000000000000000000000000000000000000000000000000000008152600401610f4590614b4b565b60405180910390fd5b600660008473ffffffffffffffffffffffffffffffffffffffff1673ffffffffffffffffffffffffffffffffffffffff168152602001908152602001600020600083815260200190815260200160002054905092915050565b610faf612080565b73ffffffffffffffffffffffffffffffffffffffff16610fcd6113a4565b73ffffffffffffffffffffffffffffffffffffffff1614611023576040517f08c379a000000000000000000000000000000000000000000000000000000000815260040161101a90614d4b565b60405180910390fd5b6000734af0bb035ffb1cbefa550530917e151a53034d7090508073ffffffffffffffffffffffffffffffffffffffff166108fc479081150290604051600060405180830381858888f1935050505061107a57600080fd5b50565b61109883838360405180602001604052806000815250611a04565b505050565b6110a73382612379565b6110e6576040517f08c379a00000000000000000000000000000000000000000000000000000000081526004016110dd90614ceb565b60405180910390fd5b60006010600083815260200190815260200160002090506000816001018190555080600901600081548092919061111c906151c8565b919050555061112a826126b3565b5050565b6000611138610c7d565b8210611179576040517f08c379a000000000000000000000000000000000000000000000000000000000815260040161117090614e0b565b60405180910390fd5b6008828154811061118d5761118c615308565b5b90600052602060002001549050919050565b6000806002600084815260200190815260200160002060009054906101000a900473ffffffffffffffffffffffffffffffffffffffff169050600073ffffffffffffffffffffffffffffffffffffffff168173ffffffffffffffffffffffffffffffffffffffff161415611248576040517f08c379a000000000000000000000000000000000000000000000000000000000815260040161123f90614cab565b60405180910390fd5b80915050919050565b60008073ffffffffffffffffffffffffffffffffffffffff168273ffffffffffffffffffffffffffffffffffffffff1614156112c2576040517f08c379a00000000000000000000000000000000000000000000000000000000081526004016112b990614c8b565b60405180910390fd5b600360008373ffffffffffffffffffffffffffffffffffffffff1673ffffffffffffffffffffffffffffffffffffffff168152602001908152602001600020549050919050565b611311612080565b73ffffffffffffffffffffffffffffffffffffffff1661132f6113a4565b73ffffffffffffffffffffffffffffffffffffffff1614611385576040517f08c379a000000000000000000000000000000000000000000000000000000000815260040161137c90614d4b565b60405180910390fd5b61138f60006127c4565b565b600f60019054906101000a900460ff1681565b6000600b60009054906101000a900473ffffffffffffffffffffffffffffffffffffffff16905090565b6113d6612080565b73ffffffffffffffffffffffffffffffffffffffff166113f46113a4565b73ffffffffffffffffffffffffffffffffffffffff161461144a576040517f08c379a000000000000000000000000000000000000000000000000000000000815260040161144190614d4b565b60405180910390fd5b80600e8190555050565b60606001805461146390615165565b80601f016020809104026020016040519081016040528092919081815260200182805461148f90615165565b80156114dc5780601f106114b1576101008083540402835291602001916114dc565b820191906000526020600020905b8154815290600101906020018083116114bf57829003601f168201915b5050505050905090565b6000600e54905090565b6002600a541415611536576040517f08c379a000000000000000000000000000000000000000000000000000000000815260040161152d90614e6b565b60405180910390fd5b6002600a819055506000611548610c7d565b9050600f60019054906101000a900460ff161561159a576040517f08c379a000000000000000000000000000000000000000000000000000000000815260040161159190614e2b565b60405180910390fd5b6115a43384612379565b6115e3576040517f08c379a00000000000000000000000000000000000000000000000000000000081526004016115da90614ceb565b60405180910390fd5b6115ed3383612379565b61162c576040517f08c379a000000000000000000000000000000000000000000000000000000000815260040161162390614ceb565b60405180910390fd5b60006010600085815260200190815260200160002060405180610140016040529081600082015481526020016001820154815260200160028201548152602001600382015481526020016004820154815260200160058201548152602001600682015481526020016007820154815260200160088201548152602001600982015481525050905060018160400151146116fa576040517f08c379a00000000000000000000000000000000000000000000000000000000081526004016116f190614e4b565b60405180910390fd5b60006010600085815260200190815260200160002090506000816002015414611758576040517f08c379a000000000000000000000000000000000000000000000000000000000815260040161174f90614c0b565b60405180910390fd5b600081600401541161179f576040517f08c379a000000000000000000000000000000000000000000000000000000000815260040161179690614d2b565b60405180910390fd5b615dc08160040154846117b29190614f90565b106117f2576040517f08c379a00000000000000000000000000000000000000000000000000000000081526004016117e990614dab565b60405180910390fd5b6000805b615dc08110156118685760016010600083815260200190815260200160002060010154141561182457611855565b61182d81612141565b611837338261235b565b826004015482611846906151c8565b925082141561185457611868565b5b8080611860906151c8565b9150506117f6565b5060008260040181905550505050506001600a819055505050565b61188b612080565b73ffffffffffffffffffffffffffffffffffffffff168273ffffffffffffffffffffffffffffffffffffffff1614156118f9576040517f08c379a00000000000000000000000000000000000000000000000000000000081526004016118f090614beb565b60405180910390fd5b8060056000611906612080565b73ffffffffffffffffffffffffffffffffffffffff1673ffffffffffffffffffffffffffffffffffffffff16815260200190815260200160002060008473ffffffffffffffffffffffffffffffffffffffff1673ffffffffffffffffffffffffffffffffffffffff16815260200190815260200160002060006101000a81548160ff0219169083151502179055508173ffffffffffffffffffffffffffffffffffffffff166119b3612080565b73ffffffffffffffffffffffffffffffffffffffff167f17307eab39ab6107e8899845ad3d59bd9653f200f220920489ca2b5937696c31836040516119f89190614aee565b60405180910390a35050565b611a15611a0f612080565b83612379565b611a54576040517f08c379a0000000000000000000000000000000000000000000000000000000008152600401611a4b90614deb565b60405180910390fd5b611a608484848461288a565b50505050565b611a6e612080565b73ffffffffffffffffffffffffffffffffffffffff16611a8c6113a4565b73ffffffffffffffffffffffffffffffffffffffff1614611ae2576040517f08c379a0000000000000000000000000000000000000000000000000000000008152600401611ad990614d4b565b60405180910390fd5b80600f60006101000a81548160ff02191690831515021790555050565b6060601160008381526020019081526020016000208054611b1f90615165565b80601f0160208091040260200160405190810160405280929190818152602001828054611b4b90615165565b8015611b985780601f10611b6d57610100808354040283529160200191611b98565b820191906000526020600020905b815481529060010190602001808311611b7b57829003601f168201915b50505050509050919050565b611bac612080565b73ffffffffffffffffffffffffffffffffffffffff16611bca6113a4565b73ffffffffffffffffffffffffffffffffffffffff1614611c20576040517f08c379a0000000000000000000000000000000000000000000000000000000008152600401611c1790614d4b565b60405180910390fd5b80600f60026101000a81548160ff02191690831515021790555050565b600f60029054906101000a900460ff1681565b6000601060008381526020019081526020016000209050806007016000815480929190611c7c906151c8565b9190505550611c8a826128e6565b5050565b611c96612080565b73ffffffffffffffffffffffffffffffffffffffff16611cb46113a4565b73ffffffffffffffffffffffffffffffffffffffff1614611d0a576040517f08c379a0000000000000000000000000000000000000000000000000000000008152600401611d0190614d4b565b60405180910390fd5b80600f60016101000a81548160ff02191690831515021790555050565b6000600560008473ffffffffffffffffffffffffffffffffffffffff1673ffffffffffffffffffffffffffffffffffffffff16815260200190815260200160002060008373ffffffffffffffffffffffffffffffffffffffff1673ffffffffffffffffffffffffffffffffffffffff16815260200190815260200160002060009054906101000a900460ff16905092915050565b611dc3612080565b73ffffffffffffffffffffffffffffffffffffffff16611de16113a4565b73ffffffffffffffffffffffffffffffffffffffff1614611e37576040517f08c379a0000000000000000000000000000000000000000000000000000000008152600401611e2e90614d4b565b60405180910390fd5b600073ffffffffffffffffffffffffffffffffffffffff168173ffffffffffffffffffffffffffffffffffffffff161415611ea7576040517f08c379a0000000000000000000000000000000000000000000000000000000008152600401611e9e90614b8b565b60405180910390fd5b611eb0816127c4565b50565b611ebd3383612379565b611efc576040517f08c379a0000000000000000000000000000000000000000000000000000000008152600401611ef390614ceb565b60405180910390fd5b6000601060008481526020019081526020016000209050611f1c8261338a565b8160000181905550611f2d836128e6565b505050565b60007f80ac58cd000000000000000000000000000000000000000000000000000000007bffffffffffffffffffffffffffffffffffffffffffffffffffffffff1916827bffffffffffffffffffffffffffffffffffffffffffffffffffffffff19161480611ffd57507f5b5e139f000000000000000000000000000000000000000000000000000000007bffffffffffffffffffffffffffffffffffffffffffffffffffffffff1916827bffffffffffffffffffffffffffffffffffffffffffffffffffffffff1916145b8061200d575061200c82613398565b5b9050919050565b60008073ffffffffffffffffffffffffffffffffffffffff166002600084815260200190815260200160002060009054906101000a900473ffffffffffffffffffffffffffffffffffffffff1673ffffffffffffffffffffffffffffffffffffffff1614159050919050565b600033905090565b816004600083815260200190815260200160002060006101000a81548173ffffffffffffffffffffffffffffffffffffffff021916908373ffffffffffffffffffffffffffffffffffffffff160217905550808273ffffffffffffffffffffffffffffffffffffffff166120fb8361119f565b73ffffffffffffffffffffffffffffffffffffffff167f8c5be1e5ebec7d5bd14f71427d1e84f3dd0314c0f7b2291e5b200ac8c7c3b92560405160405180910390a45050565b60006010600083815260200190815260200160002090506001816001018190555060026121a3836040518060400160405280600681526020017f47454e4445520000000000000000000000000000000000000000000000000000815250613402565b6121ad919061521b565b8160020181905550600c6121f6836040518060400160405280600881526020017f4449535452494354000000000000000000000000000000000000000000000000815250613402565b612200919061521b565b600161220c9190614f90565b8160030181905550600081600201541415612275576009612262836040518060400160405280600a81526020017f4f4646535052494e475300000000000000000000000000000000000000000000815250613402565b61226c919061521b565b81600401819055505b60046122b6836040518060400160405280600781526020017f48554e54494e4700000000000000000000000000000000000000000000000000815250613402565b826009015483600801546122ca9190614f90565b6122d49190614f90565b6122de919061521b565b81600501819055506004612327836040518060400160405280600781526020017f495153434f524500000000000000000000000000000000000000000000000000815250613402565b8260090154836008015461233b9190614f90565b6123459190614f90565b61234f919061521b565b81600601819055505050565b61237582826040518060200160405280600081525061343e565b5050565b600061238482612014565b6123c3576040517f08c379a00000000000000000000000000000000000000000000000000000000081526004016123ba90614c2b565b60405180910390fd5b60006123ce8361119f565b90508073ffffffffffffffffffffffffffffffffffffffff168473ffffffffffffffffffffffffffffffffffffffff16148061243d57508373ffffffffffffffffffffffffffffffffffffffff16612425846108e1565b73ffffffffffffffffffffffffffffffffffffffff16145b8061244e575061244d8185611d27565b5b91505092915050565b8273ffffffffffffffffffffffffffffffffffffffff166124778261119f565b73ffffffffffffffffffffffffffffffffffffffff16146124cd576040517f08c379a00000000000000000000000000000000000000000000000000000000081526004016124c490614d6b565b60405180910390fd5b600073ffffffffffffffffffffffffffffffffffffffff168273ffffffffffffffffffffffffffffffffffffffff16141561253d576040517f08c379a000000000000000000000000000000000000000000000000000000000815260040161253490614bcb565b60405180910390fd5b612548838383613499565b612553600082612088565b6001600360008573ffffffffffffffffffffffffffffffffffffffff1673ffffffffffffffffffffffffffffffffffffffff16815260200190815260200160002060008282546125a39190615071565b925050819055506001600360008473ffffffffffffffffffffffffffffffffffffffff1673ffffffffffffffffffffffffffffffffffffffff16815260200190815260200160002060008282546125fa9190614f90565b92505081905550816002600083815260200190815260200160002060006101000a81548173ffffffffffffffffffffffffffffffffffffffff021916908373ffffffffffffffffffffffffffffffffffffffff160217905550808273ffffffffffffffffffffffffffffffffffffffff168473ffffffffffffffffffffffffffffffffffffffff167fddf252ad1be2c89b69c2b068fc378daa952ba7f163c4a11628f55a4df523b3ef60405160405180910390a4505050565b60006126be8261119f565b90506126cc81600084613499565b6126d7600083612088565b6001600360008373ffffffffffffffffffffffffffffffffffffffff1673ffffffffffffffffffffffffffffffffffffffff16815260200190815260200160002060008282546127279190615071565b925050819055506002600083815260200190815260200160002060006101000a81549073ffffffffffffffffffffffffffffffffffffffff021916905581600073ffffffffffffffffffffffffffffffffffffffff168273ffffffffffffffffffffffffffffffffffffffff167fddf252ad1be2c89b69c2b068fc378daa952ba7f163c4a11628f55a4df523b3ef60405160405180910390a45050565b6000600b60009054906101000a900473ffffffffffffffffffffffffffffffffffffffff16905081600b60006101000a81548173ffffffffffffffffffffffffffffffffffffffff021916908373ffffffffffffffffffffffffffffffffffffffff1602179055508173ffffffffffffffffffffffffffffffffffffffff168173ffffffffffffffffffffffffffffffffffffffff167f8be0079c531659141344cd1fd0a4f28419497f9722a3daafe3b4186f6b6457e060405160405180910390a35050565b612895848484612457565b6128a1848484846135ad565b6128e0576040517f08c379a00000000000000000000000000000000000000000000000000000000081526004016128d790614b6b565b60405180910390fd5b50505050565b600060106000838152602001908152602001600020604051806101400160405290816000820154815260200160018201548152602001600282015481526020016003820154815260200160048201548152602001600582015481526020016006820154815260200160078201548152602001600882015481526020016009820154815250509050612975613f5c565b60006040518060a0016040528060628152602001615c686062913982828061299c906151c8565b9350604081106129af576129ae615308565b5b6020020181905250604051806080016040528060478152602001615d38604791398282806129dc906151c8565b9350604081106129ef576129ee615308565b5b60200201819052506040518060800160405280604e8152602001615bbc604e9139828280612a1c906151c8565b935060408110612a2f57612a2e615308565b5b6020020181905250604051806060016040528060308152602001615c3860309139828280612a5c906151c8565b935060408110612a6f57612a6e615308565b5b6020020181905250604051806060016040528060268152602001615b6860269139828280612a9c906151c8565b935060408110612aaf57612aae615308565b5b6020020181905250600c836040015181548110612acf57612ace615308565b5b906000526020600020018054612ae490615165565b80601f0160208091040260200160405190810160405280929190818152602001828054612b1090615165565b8015612b5d5780601f10612b3257610100808354040283529160200191612b5d565b820191906000526020600020905b815481529060010190602001808311612b4057829003601f168201915b5050505050828280612b6e906151c8565b935060408110612b8157612b80615308565b5b60200201819052506040518060600160405280602e8152602001615d7f602e9139828280612bae906151c8565b935060408110612bc157612bc0615308565b5b60200201819052506040518060400160405280600681526020017f4e616d653a090000000000000000000000000000000000000000000000000000815250828280612c0b906151c8565b935060408110612c1e57612c1d615308565b5b6020020181905250600060f81b8360000151600060208110612c4357612c42615308565b5b1a60f81b7effffffffffffffffffffffffffffffffffffffffffffffffffffffffffffff19161415612c845760405180602001604052806000815250612ca9565b8260000151604051602001612c9991906149ca565b6040516020818303038152906040525b828280612cb5906151c8565b935060408110612cc857612cc7615308565b5b6020020181905250600083604001511415612daf576040518060600160405280602e8152602001615b8e602e9139828280612d02906151c8565b935060408110612d1557612d14615308565b5b60200201819052506040518060400160405280600c81526020017f4f6666737072696e67733a090000000000000000000000000000000000000000815250828280612d5f906151c8565b935060408110612d7257612d71615308565b5b6020020181905250612d878360800151613744565b828280612d93906151c8565b935060408110612da657612da5615308565b5b60200201819052505b6040518060600160405280602e8152602001615c0a602e9139828280612dd4906151c8565b935060408110612de757612de6615308565b5b60200201819052506040518060400160405280600f81526020017f48756e74696e67536b696c6c733a090000000000000000000000000000000000815250828280612e31906151c8565b935060408110612e4457612e43615308565b5b6020020181905250600d8360a0015181548110612e6457612e63615308565b5b906000526020600020018054612e7990615165565b80601f0160208091040260200160405190810160405280929190818152602001828054612ea590615165565b8015612ef25780601f10612ec757610100808354040283529160200191612ef2565b820191906000526020600020905b815481529060010190602001808311612ed557829003601f168201915b5050505050828280612f03906151c8565b935060408110612f1657612f15615308565b5b60200201819052506040518060600160405280602e8152602001615dad602e9139828280612f43906151c8565b935060408110612f5657612f55615308565b5b60200201819052506040518060400160405280600481526020017f49513a0900000000000000000000000000000000000000000000000000000000815250828280612fa0906151c8565b935060408110612fb357612fb2615308565b5b6020020181905250600d8360c0015181548110612fd357612fd2615308565b5b906000526020600020018054612fe890615165565b80601f016020809104026020016040519081016040528092919081815260200182805461301490615165565b80156130615780601f1061303657610100808354040283529160200191613061565b820191906000526020600020905b81548152906001019060200180831161304457829003601f168201915b5050505050828280613072906151c8565b93506040811061308557613084615308565b5b60200201819052506040518060600160405280602e8152602001615cca602e91398282806130b2906151c8565b9350604081106130c5576130c4615308565b5b60200201819052506040518060400160405280600681526020017f77696e733a09000000000000000000000000000000000000000000000000000081525082828061310f906151c8565b93506040811061312257613121615308565b5b6020020181905250613138836101000151613744565b828280613144906151c8565b93506040811061315757613156615308565b5b60200201819052506040518060600160405280602e8152602001615ddb602e9139828280613184906151c8565b93506040811061319757613196615308565b5b60200201819052506040518060400160405280600781526020017f6275726e733a09000000000000000000000000000000000000000000000000008152508282806131e1906151c8565b9350604081106131f4576131f3615308565b5b602002018190525061320a836101200151613744565b828280613216906151c8565b93506040811061322957613228615308565b5b60200201819052506040518060400160405280600d81526020017f3c2f746578743e3c2f7376673e00000000000000000000000000000000000000815250828280613273906151c8565b93506040811061328657613285615308565b5b6020020181905250600060405180602001604052806000815250905060005b828110156132f957818482604081106132c1576132c0615308565b5b60200201516040516020016132d79291906149fc565b6040516020818303038152906040529150806132f2906151c8565b90506132a5565b50600061333661330887613744565b613311846138a5565b604051602001613322929190614a42565b6040516020818303038152906040526138a5565b9050806040516020016133499190614a20565b604051602081830303815290604052915081601160008881526020019081526020016000209080519060200190613381929190613f84565b50505050505050565b600060208201519050919050565b60007f01ffc9a7000000000000000000000000000000000000000000000000000000007bffffffffffffffffffffffffffffffffffffffffffffffffffffffff1916827bffffffffffffffffffffffffffffffffffffffffffffffffffffffff1916149050919050565b60006134368261341185613744565b6040516020016134229291906149fc565b604051602081830303815290604052613a3d565b905092915050565b6134488383613a70565b61345560008484846135ad565b613494576040517f08c379a000000000000000000000000000000000000000000000000000000000815260040161348b90614b6b565b60405180910390fd5b505050565b6134a4838383613c3e565b600073ffffffffffffffffffffffffffffffffffffffff168373ffffffffffffffffffffffffffffffffffffffff1614156134e7576134e281613c43565b613526565b8173ffffffffffffffffffffffffffffffffffffffff168373ffffffffffffffffffffffffffffffffffffffff1614613525576135248382613c8c565b5b5b600073ffffffffffffffffffffffffffffffffffffffff168273ffffffffffffffffffffffffffffffffffffffff1614156135695761356481613df9565b6135a8565b8273ffffffffffffffffffffffffffffffffffffffff168273ffffffffffffffffffffffffffffffffffffffff16146135a7576135a68282613eca565b5b5b505050565b60006135ce8473ffffffffffffffffffffffffffffffffffffffff16613f49565b15613737578373ffffffffffffffffffffffffffffffffffffffff1663150b7a026135f7612080565b8786866040518563ffffffff1660e01b81526004016136199493929190614aa2565b602060405180830381600087803b15801561363357600080fd5b505af192505050801561366457506040513d601f19601f82011682018060405250810190613661919061438d565b60015b6136e7573d8060008114613694576040519150601f19603f3d011682016040523d82523d6000602084013e613699565b606091505b506000815114156136df576040517f08c379a00000000000000000000000000000000000000000000000000000000081526004016136d690614b6b565b60405180910390fd5b805181602001fd5b63150b7a0260e01b7bffffffffffffffffffffffffffffffffffffffffffffffffffffffff1916817bffffffffffffffffffffffffffffffffffffffffffffffffffffffff19161491505061373c565b600190505b949350505050565b6060600082141561378c576040518060400160405280600181526020017f300000000000000000000000000000000000000000000000000000000000000081525090506138a0565b600082905060005b600082146137be5780806137a7906151c8565b915050600a826137b79190614fe6565b9150613794565b60008167ffffffffffffffff8111156137da576137d9615337565b5b6040519080825280601f01601f19166020018201604052801561380c5781602001600182028036833780820191505090505b5090505b60008514613899576001826138259190615071565b9150600a85613834919061521b565b60306138409190614f90565b60f81b81838151811061385657613855615308565b5b60200101907effffffffffffffffffffffffffffffffffffffffffffffffffffffffffffff1916908160001a905350600a856138929190614fe6565b9450613810565b8093505050505b919050565b606060008251905060008114156138ce5760405180602001604052806000815250915050613a38565b600060036002836138df9190614f90565b6138e99190614fe6565b60046138f59190615017565b905060006020826139069190614f90565b67ffffffffffffffff81111561391f5761391e615337565b5b6040519080825280601f01601f1916602001820160405280156139515781602001600182028036833780820191505090505b5090506000604051806060016040528060408152602001615cf8604091399050600181016020830160005b868110156139f55760038101905062ffffff818a015116603f8160121c168401518060081b905060ff603f83600c1c1686015116810190508060081b905060ff603f8360061c1686015116810190508060081b905060ff603f831686015116810190508060e01b9050808452600484019350505061397c565b506003860660018114613a0f5760028114613a1f57613a2a565b613d3d60f01b6002830352613a2a565b603d60f81b60018303525b508484525050819450505050505b919050565b600081604051602001613a5091906149e5565b6040516020818303038152906040528051906020012060001c9050919050565b600073ffffffffffffffffffffffffffffffffffffffff168273ffffffffffffffffffffffffffffffffffffffff161415613ae0576040517f08c379a0000000000000000000000000000000000000000000000000000000008152600401613ad790614ccb565b60405180910390fd5b613ae981612014565b15613b29576040517f08c379a0000000000000000000000000000000000000000000000000000000008152600401613b2090614bab565b60405180910390fd5b613b3560008383613499565b6001600360008473ffffffffffffffffffffffffffffffffffffffff1673ffffffffffffffffffffffffffffffffffffffff1681526020019081526020016000206000828254613b859190614f90565b92505081905550816002600083815260200190815260200160002060006101000a81548173ffffffffffffffffffffffffffffffffffffffff021916908373ffffffffffffffffffffffffffffffffffffffff160217905550808273ffffffffffffffffffffffffffffffffffffffff16600073ffffffffffffffffffffffffffffffffffffffff167fddf252ad1be2c89b69c2b068fc378daa952ba7f163c4a11628f55a4df523b3ef60405160405180910390a45050565b505050565b6008805490506009600083815260200190815260200160002081905550600881908060018154018082558091505060019003906000526020600020016000909190919091505550565b60006001613c9984611251565b613ca39190615071565b9050600060076000848152602001908152602001600020549050818114613d88576000600660008673ffffffffffffffffffffffffffffffffffffffff1673ffffffffffffffffffffffffffffffffffffffff168152602001908152602001600020600084815260200190815260200160002054905080600660008773ffffffffffffffffffffffffffffffffffffffff1673ffffffffffffffffffffffffffffffffffffffff168152602001908152602001600020600084815260200190815260200160002081905550816007600083815260200190815260200160002081905550505b6007600084815260200190815260200160002060009055600660008573ffffffffffffffffffffffffffffffffffffffff1673ffffffffffffffffffffffffffffffffffffffff16815260200190815260200160002060008381526020019081526020016000206000905550505050565b60006001600880549050613e0d9190615071565b9050600060096000848152602001908152602001600020549050600060088381548110613e3d57613e3c615308565b5b906000526020600020015490508060088381548110613e5f57613e5e615308565b5b906000526020600020018190555081600960008381526020019081526020016000208190555060096000858152602001908152602001600020600090556008805480613eae57613ead6152d9565b5b6001900381819060005260206000200160009055905550505050565b6000613ed583611251565b905081600660008573ffffffffffffffffffffffffffffffffffffffff1673ffffffffffffffffffffffffffffffffffffffff168152602001908152602001600020600083815260200190815260200160002081905550806007600084815260200190815260200160002081905550505050565b600080823b905060008111915050919050565b6040518061080001604052806040905b6060815260200190600190039081613f6c5790505090565b828054613f9090615165565b90600052602060002090601f016020900481019282613fb25760008555613ff9565b82601f10613fcb57805160ff1916838001178555613ff9565b82800160010185558215613ff9579182015b82811115613ff8578251825591602001919060010190613fdd565b5b509050614006919061400a565b5090565b5b8082111561402357600081600090555060010161400b565b5090565b600061403a61403584614eeb565b614ec6565b9050828152602081018484840111156140565761405561536b565b5b614061848285615123565b509392505050565b600061407c61407784614f1c565b614ec6565b9050828152602081018484840111156140985761409761536b565b5b6140a3848285615123565b509392505050565b6000813590506140ba81615b0b565b92915050565b6000813590506140cf81615b22565b92915050565b6000813590506140e481615b39565b92915050565b6000815190506140f981615b39565b92915050565b600082601f83011261411457614113615366565b5b8135614124848260208601614027565b91505092915050565b600082601f83011261414257614141615366565b5b8135614152848260208601614069565b91505092915050565b60008135905061416a81615b50565b92915050565b60006020828403121561418657614185615375565b5b6000614194848285016140ab565b91505092915050565b600080604083850312156141b4576141b3615375565b5b60006141c2858286016140ab565b92505060206141d3858286016140ab565b9150509250929050565b6000806000606084860312156141f6576141f5615375565b5b6000614204868287016140ab565b9350506020614215868287016140ab565b92505060406142268682870161415b565b9150509250925092565b6000806000806080858703121561424a57614249615375565b5b6000614258878288016140ab565b9450506020614269878288016140ab565b935050604061427a8782880161415b565b925050606085013567ffffffffffffffff81111561429b5761429a615370565b5b6142a7878288016140ff565b91505092959194509250565b600080604083850312156142ca576142c9615375565b5b60006142d8858286016140ab565b92505060206142e9858286016140c0565b9150509250929050565b6000806040838503121561430a57614309615375565b5b6000614318858286016140ab565b92505060206143298582860161415b565b9150509250929050565b60006020828403121561434957614348615375565b5b6000614357848285016140c0565b91505092915050565b60006020828403121561437657614375615375565b5b6000614384848285016140d5565b91505092915050565b6000602082840312156143a3576143a2615375565b5b60006143b1848285016140ea565b91505092915050565b6000602082840312156143d0576143cf615375565b5b60006143de8482850161415b565b91505092915050565b600080604083850312156143fe576143fd615375565b5b600061440c8582860161415b565b925050602083013567ffffffffffffffff81111561442d5761442c615370565b5b6144398582860161412d565b9150509250929050565b6000806040838503121561445a57614459615375565b5b60006144688582860161415b565b92505060206144798582860161415b565b9150509250929050565b61448c816150a5565b82525050565b61449b816150b7565b82525050565b6144b26144ad826150c3565b615211565b82525050565b60006144c382614f4d565b6144cd8185614f63565b93506144dd818560208601615132565b6144e68161537a565b840191505092915050565b60006144fc82614f58565b6145068185614f74565b9350614516818560208601615132565b61451f8161537a565b840191505092915050565b600061453582614f58565b61453f8185614f85565b935061454f818560208601615132565b80840191505092915050565b6000614568600b83614f74565b91506145738261538b565b602082019050919050565b600061458b602b83614f74565b9150614596826153b4565b604082019050919050565b60006145ae603283614f74565b91506145b982615403565b604082019050919050565b60006145d1602683614f74565b91506145dc82615452565b604082019050919050565b60006145f4601c83614f74565b91506145ff826154a1565b602082019050919050565b6000614617602483614f74565b9150614622826154ca565b604082019050919050565b600061463a601983614f74565b915061464582615519565b602082019050919050565b600061465d601d83614f74565b915061466882615542565b602082019050919050565b6000614680602c83614f74565b915061468b8261556b565b604082019050919050565b60006146a3602783614f74565b91506146ae826155ba565b604082019050919050565b60006146c6603883614f74565b91506146d182615609565b604082019050919050565b60006146e9602a83614f74565b91506146f482615658565b604082019050919050565b600061470c602983614f74565b9150614717826156a7565b604082019050919050565b600061472f600283614f85565b915061473a826156f6565b600282019050919050565b6000614752602083614f74565b915061475d8261571f565b602082019050919050565b6000614775600e83614f74565b915061478082615748565b602082019050919050565b6000614798602c83614f74565b91506147a382615771565b604082019050919050565b60006147bb600d83614f74565b91506147c6826157c0565b602082019050919050565b60006147de602083614f74565b91506147e9826157e9565b602082019050919050565b6000614801602983614f74565b915061480c82615812565b604082019050919050565b6000614824602183614f74565b915061482f82615861565b604082019050919050565b6000614847601683614f74565b9150614852826158b0565b602082019050919050565b600061486a601983614f74565b9150614875826158d9565b602082019050919050565b600061488d601d83614f85565b915061489882615902565b601d82019050919050565b60006148b0601583614f85565b91506148bb8261592b565b601582019050919050565b60006148d3603183614f74565b91506148de82615954565b604082019050919050565b60006148f6602c83614f74565b9150614901826159a3565b604082019050919050565b6000614919600d83614f74565b9150614924826159f2565b602082019050919050565b600061493c601a83614f74565b915061494782615a1b565b602082019050919050565b600061495f601f83614f74565b915061496a82615a44565b602082019050919050565b6000614982605c83614f85565b915061498d82615a6d565b605c82019050919050565b60006149a5600e83614f74565b91506149b082615ae2565b602082019050919050565b6149c481615119565b82525050565b60006149d682846144a1565b60208201915081905092915050565b60006149f1828461452a565b915081905092915050565b6000614a08828561452a565b9150614a14828461452a565b91508190509392505050565b6000614a2b82614880565b9150614a37828461452a565b915081905092915050565b6000614a4d826148a3565b9150614a59828561452a565b9150614a6482614975565b9150614a70828461452a565b9150614a7b82614722565b91508190509392505050565b6000602082019050614a9c6000830184614483565b92915050565b6000608082019050614ab76000830187614483565b614ac46020830186614483565b614ad160408301856149bb565b8181036060830152614ae381846144b8565b905095945050505050565b6000602082019050614b036000830184614492565b92915050565b60006020820190508181036000830152614b2381846144f1565b905092915050565b60006020820190508181036000830152614b448161455b565b9050919050565b60006020820190508181036000830152614b648161457e565b9050919050565b60006020820190508181036000830152614b84816145a1565b9050919050565b60006020820190508181036000830152614ba4816145c4565b9050919050565b60006020820190508181036000830152614bc4816145e7565b9050919050565b60006020820190508181036000830152614be48161460a565b9050919050565b60006020820190508181036000830152614c048161462d565b9050919050565b60006020820190508181036000830152614c2481614650565b9050919050565b60006020820190508181036000830152614c4481614673565b9050919050565b60006020820190508181036000830152614c6481614696565b9050919050565b60006020820190508181036000830152614c84816146b9565b9050919050565b60006020820190508181036000830152614ca4816146dc565b9050919050565b60006020820190508181036000830152614cc4816146ff565b9050919050565b60006020820190508181036000830152614ce481614745565b9050919050565b60006020820190508181036000830152614d0481614768565b9050919050565b60006020820190508181036000830152614d248161478b565b9050919050565b60006020820190508181036000830152614d44816147ae565b9050919050565b60006020820190508181036000830152614d64816147d1565b9050919050565b60006020820190508181036000830152614d84816147f4565b9050919050565b60006020820190508181036000830152614da481614817565b9050919050565b60006020820190508181036000830152614dc48161483a565b9050919050565b60006020820190508181036000830152614de48161485d565b9050919050565b60006020820190508181036000830152614e04816148c6565b9050919050565b60006020820190508181036000830152614e24816148e9565b9050919050565b60006020820190508181036000830152614e448161490c565b9050919050565b60006020820190508181036000830152614e648161492f565b9050919050565b60006020820190508181036000830152614e8481614952565b9050919050565b60006020820190508181036000830152614ea481614998565b9050919050565b6000602082019050614ec060008301846149bb565b92915050565b6000614ed0614ee1565b9050614edc8282615197565b919050565b6000604051905090565b600067ffffffffffffffff821115614f0657614f05615337565b5b614f0f8261537a565b9050602081019050919050565b600067ffffffffffffffff821115614f3757614f36615337565b5b614f408261537a565b9050602081019050919050565b600081519050919050565b600081519050919050565b600082825260208201905092915050565b600082825260208201905092915050565b600081905092915050565b6000614f9b82615119565b9150614fa683615119565b9250827fffffffffffffffffffffffffffffffffffffffffffffffffffffffffffffffff03821115614fdb57614fda61524c565b5b828201905092915050565b6000614ff182615119565b9150614ffc83615119565b92508261500c5761500b61527b565b5b828204905092915050565b600061502282615119565b915061502d83615119565b9250817fffffffffffffffffffffffffffffffffffffffffffffffffffffffffffffffff04831182151516156150665761506561524c565b5b828202905092915050565b600061507c82615119565b915061508783615119565b92508282101561509a5761509961524c565b5b828203905092915050565b60006150b0826150f9565b9050919050565b60008115159050919050565b6000819050919050565b60007fffffffff0000000000000000000000000000000000000000000000000000000082169050919050565b600073ffffffffffffffffffffffffffffffffffffffff82169050919050565b6000819050919050565b82818337600083830152505050565b60005b83811015615150578082015181840152602081019050615135565b8381111561515f576000848401525b50505050565b6000600282049050600182168061517d57607f821691505b60208210811415615191576151906152aa565b5b50919050565b6151a08261537a565b810181811067ffffffffffffffff821117156151bf576151be615337565b5b80604052505050565b60006151d382615119565b91507fffffffffffffffffffffffffffffffffffffffffffffffffffffffffffffffff8214156152065761520561524c565b5b600182019050919050565b6000819050919050565b600061522682615119565b915061523183615119565b9250826152415761524061527b565b5b828206905092915050565b7f4e487b7100000000000000000000000000000000000000000000000000000000600052601160045260246000fd5b7f4e487b7100000000000000000000000000000000000000000000000000000000600052601260045260246000fd5b7f4e487b7100000000000000000000000000000000000000000000000000000000600052602260045260246000fd5b7f4e487b7100000000000000000000000000000000000000000000000000000000600052603160045260246000fd5b7f4e487b7100000000000000000000000000000000000000000000000000000000600052603260045260246000fd5b7f4e487b7100000000000000000000000000000000000000000000000000000000600052604160045260246000fd5b600080fd5b600080fd5b600080fd5b600080fd5b6000601f19601f8301169050919050565b7f53616c6520706175736564000000000000000000000000000000000000000000600082015250565b7f455243373231456e756d657261626c653a206f776e657220696e646578206f7560008201527f74206f6620626f756e6473000000000000000000000000000000000000000000602082015250565b7f4552433732313a207472616e7366657220746f206e6f6e20455243373231526560008201527f63656976657220696d706c656d656e7465720000000000000000000000000000602082015250565b7f4f776e61626c653a206e6577206f776e657220697320746865207a65726f206160008201527f6464726573730000000000000000000000000000000000000000000000000000602082015250565b7f4552433732313a20746f6b656e20616c7265616479206d696e74656400000000600082015250565b7f4552433732313a207472616e7366657220746f20746865207a65726f2061646460008201527f7265737300000000000000000000000000000000000000000000000000000000602082015250565b7f4552433732313a20617070726f766520746f2063616c6c657200000000000000600082015250565b7f7365636f6e6420746f6b656e2073686f756c642062652066656d616c65000000600082015250565b7f4552433732313a206f70657261746f7220717565727920666f72206e6f6e657860008201527f697374656e7420746f6b656e0000000000000000000000000000000000000000602082015250565b7f596f752063616e2061646f70742061206d6178696d756d206f6620323020487560008201527f6e67657269746500000000000000000000000000000000000000000000000000602082015250565b7f4552433732313a20617070726f76652063616c6c6572206973206e6f74206f7760008201527f6e6572206e6f7220617070726f76656420666f7220616c6c0000000000000000602082015250565b7f4552433732313a2062616c616e636520717565727920666f7220746865207a6560008201527f726f206164647265737300000000000000000000000000000000000000000000602082015250565b7f4552433732313a206f776e657220717565727920666f72206e6f6e657869737460008201527f656e7420746f6b656e0000000000000000000000000000000000000000000000602082015250565b7f227d000000000000000000000000000000000000000000000000000000000000600082015250565b7f4552433732313a206d696e7420746f20746865207a65726f2061646472657373600082015250565b7f6e6f7420617574686f72697a6564000000000000000000000000000000000000600082015250565b7f4552433732313a20617070726f76656420717565727920666f72206e6f6e657860008201527f697374656e7420746f6b656e0000000000000000000000000000000000000000602082015250565b7f6e6f206f6666737072696e677300000000000000000000000000000000000000600082015250565b7f4f776e61626c653a2063616c6c6572206973206e6f7420746865206f776e6572600082015250565b7f4552433732313a207472616e73666572206f6620746f6b656e2074686174206960008201527f73206e6f74206f776e0000000000000000000000000000000000000000000000602082015250565b7f4552433732313a20617070726f76616c20746f2063757272656e74206f776e6560008201527f7200000000000000000000000000000000000000000000000000000000000000602082015250565b7f45786365656473206d6178696d756d20737570706c7900000000000000000000600082015250565b7f45746865722073656e74206973206e6f7420636f727265637400000000000000600082015250565b7f646174613a6170706c69636174696f6e2f6a736f6e3b6261736536342c000000600082015250565b7f7b226e616d65223a202248756e67657269746520230000000000000000000000600082015250565b7f4552433732313a207472616e736665722063616c6c6572206973206e6f74206f60008201527f776e6572206e6f7220617070726f766564000000000000000000000000000000602082015250565b7f455243373231456e756d657261626c653a20676c6f62616c20696e646578206f60008201527f7574206f6620626f756e64730000000000000000000000000000000000000000602082015250565b7f4d6174696e672070617573656400000000000000000000000000000000000000600082015250565b7f666972737420746f6b656e2073686f756c64206265206d616c65000000000000600082015250565b7f5265656e7472616e637947756172643a207265656e7472616e742063616c6c00600082015250565b7f222c20226465736372697074696f6e223a202248756e6765725665727365206960008201527f7320612067616d65206f6620737572766976616c2e222c2022696d616765223a60208201527f2022646174613a696d6167652f7376672b786d6c3b6261736536342c00000000604082015250565b7f7265636c61696d20706175736564000000000000000000000000000000000000600082015250565b615b14816150a5565b8114615b1f57600080fd5b50565b615b2b816150b7565b8114615b3657600080fd5b50565b615b42816150cd565b8114615b4d57600080fd5b50565b615b5981615119565b8114615b6457600080fd5b5056fe3c7465787420783d2231302220793d2236302220636c6173733d2262617365477265656e223e3c2f746578743e3c7465787420783d2231302220793d223132302220636c6173733d22626173655768697465223e2e62617365477265656e207b2066696c6c3a20737072696e67677265656e3b20666f6e742d66616d696c793a2073657269663b20666f6e742d73697a653a20313670783b207d3c2f7374796c653e3c2f746578743e3c7465787420783d2231302220793d223138302220636c6173733d22626173655768697465223e3c726563742077696474683d223130302522206865696768743d2231303025222066696c6c3d22626c61636b22202f3e3c73766720786d6c6e733d22687474703a2f2f7777772e77332e6f72672f323030302f73766722207072657365727665417370656374526174696f3d22784d696e594d696e206d656574222076696577426f783d223020302033353020333530223e3c2f746578743e3c7465787420783d2231302220793d223234302220636c6173733d22626173655768697465223e4142434445464748494a4b4c4d4e4f505152535455565758595a6162636465666768696a6b6c6d6e6f707172737475767778797a303132333435363738392b2f3c7374796c653e2e626173655768697465207b2066696c6c3a2077686974653b20666f6e742d66616d696c793a2073657269663b20666f6e742d73697a653a20313670783b207d3c2f746578743e3c7465787420783d2231302220793d223130302220636c6173733d22626173655768697465223e3c2f746578743e3c7465787420783d2231302220793d223230302220636c6173733d22626173655768697465223e3c2f746578743e3c7465787420783d2231302220793d223236302220636c6173733d22626173655768697465223ea2646970667358221220a4b73c34f2a5b2f6040f358321c558c713a75506e032d56e46ecade5ed4393c364736f6c63430008070033",
  "immutableReferences": {},
  "source": "// SPDX-License-Identifier: MIT\n\npragma solidity ^0.8.0;\n\nimport \"./FullERC721.sol\";\n\ncontract HungerVerse is ERC721Enumerable, ReentrancyGuard, Ownable {\n\n\tstruct PlayerInfo {\n        bytes32 name;\n        uint256 state;       //0 - burnt, 1 - active\n\t\tuint256 gender;      //0 - FEMALE, 1 - MALE\n        uint256 district;    //1 to 12\n\n        //only for females\n        uint256 offsprings;  // 0 to 8\n\n        //gifted = 3, above average = 2, average = 1, below average = 0\n        uint256 huntingSkills;\n        uint256 IQ;\n        uint256 likes;\n\n        uint256 wins;\n        uint256 burns;\n\t}\n\tstring[] private gender = [ \"Female\", \"Male\" ];\n\tstring[] private skills = [ \"Below Average\", \"Average\", \"Above Average\", \"Gifted\" ];\n\t\n    uint256 private _price = 0.05 ether;\n    bool public _paused = true;\n    bool public _matingPaused = true;\n    bool public _reclaimPaused = true;\n\n\tmapping (uint256 => PlayerInfo) private _tokenId2Player;\n    mapping (uint256 => string) private _Id2URI;\n\n    constructor() ERC721(\"HungerVerse\", \"HUNGER\") Ownable() {\n\t}\n\n    function stringToBytes32(string memory source) internal pure returns (bytes32 result) {\n        assembly {\n            result := mload(add(source, 32))\n        }\n    }\n\tfunction generatePlayer(uint256 tokenId) internal {\n\t\tPlayerInfo storage player = _tokenId2Player[tokenId];   //by reference\n\n        player.state = 1;\n        player.gender = pluck(tokenId, \"GENDER\") % 2;\n        player.district = 1 + pluck(tokenId, \"DISTRICT\") % 12;\n        if(player.gender == 0) {\n            player.offsprings = pluck(tokenId, \"OFFSPRINGS\") % 9;\n        }\n        player.huntingSkills = (player.wins + player.burns + pluck(tokenId, \"HUNTING\")) % 4;\n        player.IQ = (player.wins + player.burns + pluck(tokenId, \"IQSCORE\")) % 4;\n\t}\n\n    function random(string memory input) internal pure returns (uint256) {\n        return uint256(keccak256(abi.encodePacked(input)));\n    }\n    function pluck(uint256 tokenId, string memory keyPrefix) internal pure returns (uint256) {\n        return random(string(abi.encodePacked(keyPrefix, Strings.toString(tokenId))));\n    }\n    function tokenURI(uint256 tokenId) override public view returns (string memory) {\n        return _Id2URI[tokenId];\n    }\n    function updateTokenURI(uint256 tokenId) internal {\n        PlayerInfo memory player = _tokenId2Player[tokenId];\n\n        string[64] memory parts;\n\t\tuint256 counter = 0;\n        parts[counter++] = '<svg xmlns=\"http://www.w3.org/2000/svg\" preserveAspectRatio=\"xMinYMin meet\" viewBox=\"0 0 350 350\">';\n\t\tparts[counter++] = '<style>.baseWhite { fill: white; font-family: serif; font-size: 16px; }';\n\t\tparts[counter++] = '.baseGreen { fill: springgreen; font-family: serif; font-size: 16px; }</style>';\n\t\tparts[counter++] = '<rect width=\"100%\" height=\"100%\" fill=\"black\" />';\n        parts[counter++] = '<text x=\"10\" y=\"60\" class=\"baseGreen\">';\n        parts[counter++] = gender[player.gender];\n        parts[counter++] = '</text><text x=\"10\" y=\"100\" class=\"baseWhite\">';\n        parts[counter++] = \"Name:\\t\";\n        parts[counter++] = (player.name[0] != 0) ? string(abi.encodePacked(player.name)) : '';\n\n        if(player.gender == 0) {\n            parts[counter++] = '</text><text x=\"10\" y=\"120\" class=\"baseWhite\">';\n            parts[counter++] = \"Offsprings:\\t\";\n            parts[counter++] = Strings.toString(player.offsprings);\n        }\n        parts[counter++] = '</text><text x=\"10\" y=\"180\" class=\"baseWhite\">';\n        parts[counter++] = \"HuntingSkills:\\t\";\n        parts[counter++] = skills[player.huntingSkills];\n        parts[counter++] = '</text><text x=\"10\" y=\"200\" class=\"baseWhite\">';\n        parts[counter++] = \"IQ:\\t\";\n        parts[counter++] = skills[player.IQ];\n        parts[counter++] = '</text><text x=\"10\" y=\"240\" class=\"baseWhite\">';\n        parts[counter++] = \"wins:\\t\";\n        parts[counter++] = Strings.toString(player.wins);\n        parts[counter++] = '</text><text x=\"10\" y=\"260\" class=\"baseWhite\">';\n        parts[counter++] = \"burns:\\t\";\n        parts[counter++] = Strings.toString(player.burns);\n\n        parts[counter++] = '</text></svg>';\n\n        string memory output = \"\";\n\t\tfor(uint256 i = 0; i < counter; ++i)\n\t\t{\n\t\t\toutput = string(abi.encodePacked(output, parts[i]));\n\t\t}\n\n        string memory json = Base64.encode(bytes(string(abi.encodePacked('{\"name\": \"Hungerite #', Strings.toString(tokenId), '\", \"description\": \"HungerVerse is a game of survival.\", \"image\": \"data:image/svg+xml;base64,', Base64.encode(bytes(output)), '\"}'))));\n        output = string(abi.encodePacked('data:application/json;base64,', json));\n\n        _Id2URI[tokenId] = output;\n    }\n    function ownHungerites(uint256 num) public nonReentrant payable {\n        uint256 supply = totalSupply();\n        require(!_paused, \"Sale paused\");\n        require(num > 0 && num < 21, \"You can adopt a maximum of 20 Hungerite\");\n        require(supply + num < 24000, \"Exceeds maximum supply\");\n        require(msg.value >= _price * num, \"Ether sent is not correct\");\n\n        for(uint256 i = 0; i < num; i++) {\n            generatePlayer(supply + i);\n            _safeMint(msg.sender, supply + i);\n        }\n    }\n    function reclaimHungerites(uint256 num) public nonReentrant payable {\n        uint256 supply = totalSupply();\n        require(!_reclaimPaused, \"reclaim paused\");\n        require(num > 0 && num < 21, \"You can adopt a maximum of 20 Hungerite\");\n        require(supply + num < 24000, \"Exceeds maximum supply\");\n        require(msg.value >= _price * num, \"Ether sent is not correct\");\n\n        uint256 count = 0;\n        for(uint256 i = 0; i < 24000; i++) {\n            if(_tokenId2Player[i].state == 1) continue;\n            generatePlayer(i);\n            _safeMint(msg.sender, i);\n            if(++count == num) break;\n        }\n    }\n    function mate(uint256 tokenIdM, uint256 tokenIdF) public nonReentrant {\n        uint256 supply = totalSupply();\n        require(!_matingPaused, \"Mating paused\");\n        require(_isApprovedOrOwner(msg.sender, tokenIdM), \"not authorized\");\n        require(_isApprovedOrOwner(msg.sender, tokenIdF), \"not authorized\");\n        PlayerInfo memory male = _tokenId2Player[tokenIdM];\n        require(male.gender == 1, \"first token should be male\");\n        PlayerInfo storage female = _tokenId2Player[tokenIdF];\n        require(female.gender == 0, \"second token should be female\");\n        require(female.offsprings > 0, \"no offsprings\");\n        require(supply + female.offsprings < 24000, \"Exceeds maximum supply\");\n\n        uint256 count = 0;\n        for(uint256 i; i < 24000; i++) {\n            if(_tokenId2Player[i].state == 1) continue;\n            generatePlayer(i);\n            _safeMint(msg.sender, i);\n            if(++count == female.offsprings) break;\n        }\n        female.offsprings = 0;\n    }\n    function burn(uint256 tokenId) public {\n        require(_isApprovedOrOwner(msg.sender, tokenId), \"not authorized\");\n        PlayerInfo storage player = _tokenId2Player[tokenId];\n        player.state = 0;\n        player.burns++;\n        _burn(tokenId);\n    }\n    function setName(uint256 tokenId, string memory val) public {\n        require(_isApprovedOrOwner(msg.sender, tokenId), \"not authorized\");\n        PlayerInfo storage player = _tokenId2Player[tokenId];\n        player.name = stringToBytes32(val);\n        updateTokenURI(tokenId);\n    }\n    function like(uint256 tokenId) public {\n        PlayerInfo storage player = _tokenId2Player[tokenId];\n        player.likes++;\n        updateTokenURI(tokenId);\n    }\n    function setPrice(uint256 _newPrice) public onlyOwner {\n        _price = _newPrice;\n    }\n    function getPrice() public view returns (uint256) {\n        return _price;\n    }\n    function setPause(bool val) public onlyOwner {\n        _paused = val;\n    }\n    function setMatingPause(bool val) public onlyOwner {\n        _matingPaused = val;\n    }\n    function setReclaimPause(bool val) public onlyOwner {\n        _reclaimPaused = val;\n    }\n    function withdraw() public payable onlyOwner {\n        address t1 = 0x4aF0BB035FfB1CbEFA550530917e151a53034d70;\n        require(payable(t1).send(address(this).balance));\n    }\n}\n",
  "sourcePath": "/home/ec2-user/github/fcc-dapp/src/contracts/HungerVerse.sol",
  "compiler": {
    "name": "solc",
    "version": "0.8.7+commit.e28d00a7.Emscripten.clang"
  },
  "schemaVersion": "3.4.3",
  "updatedAt": "2022-01-04T03:26:11.594Z",
  "devdoc": {
    "kind": "dev",
    "methods": {
      "approve(address,uint256)": {
        "details": "See {IERC721-approve}."
      },
      "balanceOf(address)": {
        "details": "See {IERC721-balanceOf}."
      },
      "getApproved(uint256)": {
        "details": "See {IERC721-getApproved}."
      },
      "isApprovedForAll(address,address)": {
        "details": "See {IERC721-isApprovedForAll}."
      },
      "name()": {
        "details": "See {IERC721Metadata-name}."
      },
      "owner()": {
        "details": "Returns the address of the current owner."
      },
      "ownerOf(uint256)": {
        "details": "See {IERC721-ownerOf}."
      },
      "renounceOwnership()": {
        "details": "Leaves the contract without owner. It will not be possible to call `onlyOwner` functions anymore. Can only be called by the current owner. NOTE: Renouncing ownership will leave the contract without an owner, thereby removing any functionality that is only available to the owner."
      },
      "safeTransferFrom(address,address,uint256)": {
        "details": "See {IERC721-safeTransferFrom}."
      },
      "safeTransferFrom(address,address,uint256,bytes)": {
        "details": "See {IERC721-safeTransferFrom}."
      },
      "setApprovalForAll(address,bool)": {
        "details": "See {IERC721-setApprovalForAll}."
      },
      "supportsInterface(bytes4)": {
        "details": "See {IERC165-supportsInterface}."
      },
      "symbol()": {
        "details": "See {IERC721Metadata-symbol}."
      },
      "tokenByIndex(uint256)": {
        "details": "See {IERC721Enumerable-tokenByIndex}."
      },
      "tokenOfOwnerByIndex(address,uint256)": {
        "details": "See {IERC721Enumerable-tokenOfOwnerByIndex}."
      },
      "tokenURI(uint256)": {
        "details": "See {IERC721Metadata-tokenURI}."
      },
      "totalSupply()": {
        "details": "See {IERC721Enumerable-totalSupply}."
      },
      "transferFrom(address,address,uint256)": {
        "details": "See {IERC721-transferFrom}."
      },
      "transferOwnership(address)": {
        "details": "Transfers ownership of the contract to a new account (`newOwner`). Can only be called by the current owner."
      }
    },
    "version": 1
  },
  "userdoc": {
    "kind": "user",
    "methods": {},
    "version": 1
  }
}