{
  "contractName": "HungerVerse",
  "abi": [
    {
      "inputs": [],
      "stateMutability": "nonpayable",
      "type": "constructor"
    },
    {
      "anonymous": false,
      "inputs": [
        {
          "indexed": true,
          "internalType": "address",
          "name": "owner",
          "type": "address"
        },
        {
          "indexed": true,
          "internalType": "address",
          "name": "approved",
          "type": "address"
        },
        {
          "indexed": true,
          "internalType": "uint256",
          "name": "tokenId",
          "type": "uint256"
        }
      ],
      "name": "Approval",
      "type": "event"
    },
    {
      "anonymous": false,
      "inputs": [
        {
          "indexed": true,
          "internalType": "address",
          "name": "owner",
          "type": "address"
        },
        {
          "indexed": true,
          "internalType": "address",
          "name": "operator",
          "type": "address"
        },
        {
          "indexed": false,
          "internalType": "bool",
          "name": "approved",
          "type": "bool"
        }
      ],
      "name": "ApprovalForAll",
      "type": "event"
    },
    {
      "anonymous": false,
      "inputs": [
        {
          "indexed": true,
          "internalType": "address",
          "name": "previousOwner",
          "type": "address"
        },
        {
          "indexed": true,
          "internalType": "address",
          "name": "newOwner",
          "type": "address"
        }
      ],
      "name": "OwnershipTransferred",
      "type": "event"
    },
    {
      "anonymous": false,
      "inputs": [
        {
          "indexed": true,
          "internalType": "address",
          "name": "from",
          "type": "address"
        },
        {
          "indexed": true,
          "internalType": "address",
          "name": "to",
          "type": "address"
        },
        {
          "indexed": true,
          "internalType": "uint256",
          "name": "tokenId",
          "type": "uint256"
        }
      ],
      "name": "Transfer",
      "type": "event"
    },
    {
      "inputs": [],
      "name": "_matingPaused",
      "outputs": [
        {
          "internalType": "bool",
          "name": "",
          "type": "bool"
        }
      ],
      "stateMutability": "view",
      "type": "function"
    },
    {
      "inputs": [],
      "name": "_paused",
      "outputs": [
        {
          "internalType": "bool",
          "name": "",
          "type": "bool"
        }
      ],
      "stateMutability": "view",
      "type": "function"
    },
    {
      "inputs": [],
      "name": "_price",
      "outputs": [
        {
          "internalType": "uint256",
          "name": "",
          "type": "uint256"
        }
      ],
      "stateMutability": "view",
      "type": "function"
    },
    {
      "inputs": [],
      "name": "_reclaimPaused",
      "outputs": [
        {
          "internalType": "bool",
          "name": "",
          "type": "bool"
        }
      ],
      "stateMutability": "view",
      "type": "function"
    },
    {
      "inputs": [
        {
          "internalType": "address",
          "name": "to",
          "type": "address"
        },
        {
          "internalType": "uint256",
          "name": "tokenId",
          "type": "uint256"
        }
      ],
      "name": "approve",
      "outputs": [],
      "stateMutability": "nonpayable",
      "type": "function"
    },
    {
      "inputs": [
        {
          "internalType": "address",
          "name": "owner",
          "type": "address"
        }
      ],
      "name": "balanceOf",
      "outputs": [
        {
          "internalType": "uint256",
          "name": "",
          "type": "uint256"
        }
      ],
      "stateMutability": "view",
      "type": "function"
    },
    {
      "inputs": [
        {
          "internalType": "uint256",
          "name": "tokenId",
          "type": "uint256"
        }
      ],
      "name": "getApproved",
      "outputs": [
        {
          "internalType": "address",
          "name": "",
          "type": "address"
        }
      ],
      "stateMutability": "view",
      "type": "function"
    },
    {
      "inputs": [
        {
          "internalType": "address",
          "name": "owner",
          "type": "address"
        },
        {
          "internalType": "address",
          "name": "operator",
          "type": "address"
        }
      ],
      "name": "isApprovedForAll",
      "outputs": [
        {
          "internalType": "bool",
          "name": "",
          "type": "bool"
        }
      ],
      "stateMutability": "view",
      "type": "function"
    },
    {
      "inputs": [],
      "name": "name",
      "outputs": [
        {
          "internalType": "string",
          "name": "",
          "type": "string"
        }
      ],
      "stateMutability": "view",
      "type": "function"
    },
    {
      "inputs": [],
      "name": "owner",
      "outputs": [
        {
          "internalType": "address",
          "name": "",
          "type": "address"
        }
      ],
      "stateMutability": "view",
      "type": "function"
    },
    {
      "inputs": [
        {
          "internalType": "uint256",
          "name": "tokenId",
          "type": "uint256"
        }
      ],
      "name": "ownerOf",
      "outputs": [
        {
          "internalType": "address",
          "name": "",
          "type": "address"
        }
      ],
      "stateMutability": "view",
      "type": "function"
    },
    {
      "inputs": [],
      "name": "renounceOwnership",
      "outputs": [],
      "stateMutability": "nonpayable",
      "type": "function"
    },
    {
      "inputs": [
        {
          "internalType": "address",
          "name": "from",
          "type": "address"
        },
        {
          "internalType": "address",
          "name": "to",
          "type": "address"
        },
        {
          "internalType": "uint256",
          "name": "tokenId",
          "type": "uint256"
        }
      ],
      "name": "safeTransferFrom",
      "outputs": [],
      "stateMutability": "nonpayable",
      "type": "function"
    },
    {
      "inputs": [
        {
          "internalType": "address",
          "name": "from",
          "type": "address"
        },
        {
          "internalType": "address",
          "name": "to",
          "type": "address"
        },
        {
          "internalType": "uint256",
          "name": "tokenId",
          "type": "uint256"
        },
        {
          "internalType": "bytes",
          "name": "_data",
          "type": "bytes"
        }
      ],
      "name": "safeTransferFrom",
      "outputs": [],
      "stateMutability": "nonpayable",
      "type": "function"
    },
    {
      "inputs": [
        {
          "internalType": "address",
          "name": "operator",
          "type": "address"
        },
        {
          "internalType": "bool",
          "name": "approved",
          "type": "bool"
        }
      ],
      "name": "setApprovalForAll",
      "outputs": [],
      "stateMutability": "nonpayable",
      "type": "function"
    },
    {
      "inputs": [
        {
          "internalType": "bytes4",
          "name": "interfaceId",
          "type": "bytes4"
        }
      ],
      "name": "supportsInterface",
      "outputs": [
        {
          "internalType": "bool",
          "name": "",
          "type": "bool"
        }
      ],
      "stateMutability": "view",
      "type": "function"
    },
    {
      "inputs": [],
      "name": "symbol",
      "outputs": [
        {
          "internalType": "string",
          "name": "",
          "type": "string"
        }
      ],
      "stateMutability": "view",
      "type": "function"
    },
    {
      "inputs": [
        {
          "internalType": "uint256",
          "name": "index",
          "type": "uint256"
        }
      ],
      "name": "tokenByIndex",
      "outputs": [
        {
          "internalType": "uint256",
          "name": "",
          "type": "uint256"
        }
      ],
      "stateMutability": "view",
      "type": "function"
    },
    {
      "inputs": [
        {
          "internalType": "address",
          "name": "owner",
          "type": "address"
        },
        {
          "internalType": "uint256",
          "name": "index",
          "type": "uint256"
        }
      ],
      "name": "tokenOfOwnerByIndex",
      "outputs": [
        {
          "internalType": "uint256",
          "name": "",
          "type": "uint256"
        }
      ],
      "stateMutability": "view",
      "type": "function"
    },
    {
      "inputs": [],
      "name": "totalSupply",
      "outputs": [
        {
          "internalType": "uint256",
          "name": "",
          "type": "uint256"
        }
      ],
      "stateMutability": "view",
      "type": "function"
    },
    {
      "inputs": [
        {
          "internalType": "address",
          "name": "from",
          "type": "address"
        },
        {
          "internalType": "address",
          "name": "to",
          "type": "address"
        },
        {
          "internalType": "uint256",
          "name": "tokenId",
          "type": "uint256"
        }
      ],
      "name": "transferFrom",
      "outputs": [],
      "stateMutability": "nonpayable",
      "type": "function"
    },
    {
      "inputs": [
        {
          "internalType": "address",
          "name": "newOwner",
          "type": "address"
        }
      ],
      "name": "transferOwnership",
      "outputs": [],
      "stateMutability": "nonpayable",
      "type": "function"
    },
    {
      "inputs": [
        {
          "internalType": "uint256",
          "name": "tokenId",
          "type": "uint256"
        }
      ],
      "name": "getPlayerInfo",
      "outputs": [
        {
          "internalType": "uint256",
          "name": "",
          "type": "uint256"
        },
        {
          "internalType": "uint256",
          "name": "",
          "type": "uint256"
        },
        {
          "internalType": "uint256",
          "name": "",
          "type": "uint256"
        },
        {
          "internalType": "uint256",
          "name": "",
          "type": "uint256"
        },
        {
          "internalType": "uint256",
          "name": "",
          "type": "uint256"
        },
        {
          "internalType": "uint256",
          "name": "",
          "type": "uint256"
        },
        {
          "internalType": "uint256",
          "name": "",
          "type": "uint256"
        },
        {
          "internalType": "uint256",
          "name": "",
          "type": "uint256"
        }
      ],
      "stateMutability": "view",
      "type": "function"
    },
    {
      "inputs": [
        {
          "internalType": "uint256",
          "name": "tokenId",
          "type": "uint256"
        }
      ],
      "name": "tokenURI",
      "outputs": [
        {
          "internalType": "string",
          "name": "",
          "type": "string"
        }
      ],
      "stateMutability": "view",
      "type": "function"
    },
    {
      "inputs": [
        {
          "internalType": "uint256",
          "name": "num",
          "type": "uint256"
        }
      ],
      "name": "own",
      "outputs": [],
      "stateMutability": "payable",
      "type": "function"
    },
    {
      "inputs": [
        {
          "internalType": "uint256",
          "name": "num",
          "type": "uint256"
        }
      ],
      "name": "reclaim",
      "outputs": [],
      "stateMutability": "payable",
      "type": "function"
    },
    {
      "inputs": [
        {
          "internalType": "uint256",
          "name": "tokenIdM",
          "type": "uint256"
        },
        {
          "internalType": "uint256",
          "name": "tokenIdF",
          "type": "uint256"
        }
      ],
      "name": "mate",
      "outputs": [],
      "stateMutability": "nonpayable",
      "type": "function"
    },
    {
      "inputs": [
        {
          "internalType": "uint256",
          "name": "tokenId",
          "type": "uint256"
        }
      ],
      "name": "like",
      "outputs": [],
      "stateMutability": "nonpayable",
      "type": "function"
    },
    {
      "inputs": [
        {
          "internalType": "bool",
          "name": "val",
          "type": "bool"
        }
      ],
      "name": "setMatingPause",
      "outputs": [],
      "stateMutability": "nonpayable",
      "type": "function"
    },
    {
      "inputs": [
        {
          "internalType": "bool",
          "name": "val",
          "type": "bool"
        }
      ],
      "name": "setReclaimPause",
      "outputs": [],
      "stateMutability": "nonpayable",
      "type": "function"
    },
    {
      "inputs": [
        {
          "internalType": "uint256",
          "name": "tokenId",
          "type": "uint256"
        }
      ],
      "name": "burn",
      "outputs": [],
      "stateMutability": "nonpayable",
      "type": "function"
    },
    {
      "inputs": [
        {
          "internalType": "uint256",
          "name": "tokenId",
          "type": "uint256"
        },
        {
          "internalType": "string",
          "name": "val",
          "type": "string"
        }
      ],
      "name": "setName",
      "outputs": [],
      "stateMutability": "nonpayable",
      "type": "function"
    },
    {
      "inputs": [
        {
          "internalType": "uint256",
          "name": "_newPrice",
          "type": "uint256"
        }
      ],
      "name": "setPrice",
      "outputs": [],
      "stateMutability": "nonpayable",
      "type": "function"
    },
    {
      "inputs": [
        {
          "internalType": "bool",
          "name": "val",
          "type": "bool"
        }
      ],
      "name": "setPause",
      "outputs": [],
      "stateMutability": "nonpayable",
      "type": "function"
    },
    {
      "inputs": [],
      "name": "withdraw",
      "outputs": [],
      "stateMutability": "payable",
      "type": "function"
    }
  ],
  "bytecode": "0x608060405260405180604001604052806040518060400160405280600681526020017f46656d616c65000000000000000000000000000000000000000000000000000081525081526020016040518060400160405280600481526020017f4d616c6500000000000000000000000000000000000000000000000000000000815250815250600c90600262000095929190620003a4565b5060405180608001604052806040518060400160405280600d81526020017f42656c6f7720417665726167650000000000000000000000000000000000000081525081526020016040518060400160405280600781526020017f417665726167650000000000000000000000000000000000000000000000000081525081526020016040518060400160405280600d81526020017f41626f766520417665726167650000000000000000000000000000000000000081525081526020016040518060400160405280600681526020017f4769667465640000000000000000000000000000000000000000000000000000815250815250600d9060046200019d9291906200040b565b5066b1a2bc2ec50000600e556001600f60006101000a81548160ff0219169083151502179055506001600f60016101000a81548160ff0219169083151502179055506001600f60026101000a81548160ff0219169083151502179055503480156200020757600080fd5b506040518060400160405280600b81526020017f48756e67657256657273650000000000000000000000000000000000000000008152506040518060400160405280600681526020017f48554e474552000000000000000000000000000000000000000000000000000081525081600090805190602001906200028c92919062000472565b508060019080519060200190620002a592919062000472565b5050506001600a81905550620002d0620002c4620002d660201b60201c565b620002de60201b60201c565b620005f5565b600033905090565b6000600b60009054906101000a900473ffffffffffffffffffffffffffffffffffffffff16905081600b60006101000a81548173ffffffffffffffffffffffffffffffffffffffff021916908373ffffffffffffffffffffffffffffffffffffffff1602179055508173ffffffffffffffffffffffffffffffffffffffff168173ffffffffffffffffffffffffffffffffffffffff167f8be0079c531659141344cd1fd0a4f28419497f9722a3daafe3b4186f6b6457e060405160405180910390a35050565b828054828255906000526020600020908101928215620003f8579160200282015b82811115620003f7578251829080519060200190620003e692919062000472565b5091602001919060010190620003c5565b5b50905062000407919062000503565b5090565b8280548282559060005260206000209081019282156200045f579160200282015b828111156200045e5782518290805190602001906200044d92919062000472565b50916020019190600101906200042c565b5b5090506200046e919062000503565b5090565b828054620004809062000590565b90600052602060002090601f016020900481019282620004a45760008555620004f0565b82601f10620004bf57805160ff1916838001178555620004f0565b82800160010185558215620004f0579182015b82811115620004ef578251825591602001919060010190620004d2565b5b509050620004ff91906200052b565b5090565b5b808211156200052757600081816200051d91906200054a565b5060010162000504565b5090565b5b80821115620005465760008160009055506001016200052c565b5090565b508054620005589062000590565b6000825580601f106200056c57506200058d565b601f0160209004906000526020600020908101906200058c91906200052b565b5b50565b60006002820490506001821680620005a957607f821691505b60208210811415620005c057620005bf620005c6565b5b50919050565b7f4e487b7100000000000000000000000000000000000000000000000000000000600052602260045260246000fd5b61612980620006056000396000f3fe6080604052600436106102045760003560e01c806384eb1f1111610118578063c87b56dd116100a0578063e86a45931161006f578063e86a459314610728578063e985e9c514610751578063ea17532e1461078e578063f2fde38b146107d2578063fe55932a146107fb57610204565b8063c87b56dd1461066e578063d8eb356a146106ab578063db4ec21a146106d4578063e82935da146106ff57610204565b80639c3f5237116100e75780639c3f5237146105ae578063a22cb465146105d7578063a912c43614610600578063b88d4fde1461061c578063bedb86fb1461064557610204565b806384eb1f11146105045780638da5cb5b1461052f57806391b7f5ed1461055a57806395d89b411461058357610204565b80632dabbeed1161019b57806342966c681161016a57806342966c681461040d5780634f6ccce7146104365780636352211e1461047357806370a08231146104b0578063715018a6146104ed57610204565b80632dabbeed146103815780632f745c591461039d5780633ccfd60b146103da57806342842e0e146103e457610204565b806316c61ccc116101d757806316c61ccc146102d757806318160ddd14610302578063235b6ea11461032d57806323b872dd1461035857610204565b806301ffc9a71461020957806306fdde0314610246578063081812fc14610271578063095ea7b3146102ae575b600080fd5b34801561021557600080fd5b50610230600480360381019061022b91906145e5565b610824565b60405161023d9190614d41565b60405180910390f35b34801561025257600080fd5b5061025b61089e565b6040516102689190614d5c565b60405180910390f35b34801561027d57600080fd5b506102986004803603810190610293919061463f565b610930565b6040516102a59190614cda565b60405180910390f35b3480156102ba57600080fd5b506102d560048036038101906102d09190614578565b6109b5565b005b3480156102e357600080fd5b506102ec610acd565b6040516102f99190614d41565b60405180910390f35b34801561030e57600080fd5b50610317610ae0565b60405161032491906150fe565b60405180910390f35b34801561033957600080fd5b50610342610aed565b60405161034f91906150fe565b60405180910390f35b34801561036457600080fd5b5061037f600480360381019061037a9190614462565b610af3565b005b61039b6004803603810190610396919061463f565b610b53565b005b3480156103a957600080fd5b506103c460048036038101906103bf9190614578565b610d19565b6040516103d191906150fe565b60405180910390f35b6103e2610dbe565b005b3480156103f057600080fd5b5061040b60048036038101906104069190614462565b610e94565b005b34801561041957600080fd5b50610434600480360381019061042f919061463f565b610eb4565b005b34801561044257600080fd5b5061045d6004803603810190610458919061463f565b610f45565b60405161046a91906150fe565b60405180910390f35b34801561047f57600080fd5b5061049a6004803603810190610495919061463f565b610fb6565b6040516104a79190614cda565b60405180910390f35b3480156104bc57600080fd5b506104d760048036038101906104d291906143f5565b611068565b6040516104e491906150fe565b60405180910390f35b3480156104f957600080fd5b50610502611120565b005b34801561051057600080fd5b506105196111a8565b6040516105269190614d41565b60405180910390f35b34801561053b57600080fd5b506105446111bb565b6040516105519190614cda565b60405180910390f35b34801561056657600080fd5b50610581600480360381019061057c919061463f565b6111e5565b005b34801561058f57600080fd5b5061059861126b565b6040516105a59190614d5c565b60405180910390f35b3480156105ba57600080fd5b506105d560048036038101906105d091906146c8565b6112fd565b005b3480156105e357600080fd5b506105fe60048036038101906105f99190614538565b6116c6565b005b61061a6004803603810190610615919061463f565b611847565b005b34801561062857600080fd5b50610643600480360381019061063e91906144b5565b611a37565b005b34801561065157600080fd5b5061066c600480360381019061066791906145b8565b611a99565b005b34801561067a57600080fd5b506106956004803603810190610690919061463f565b611b32565b6040516106a29190614d5c565b60405180910390f35b3480156106b757600080fd5b506106d260048036038101906106cd91906145b8565b612784565b005b3480156106e057600080fd5b506106e961281d565b6040516106f69190614d41565b60405180910390f35b34801561070b57600080fd5b506107266004803603810190610721919061463f565b612830565b005b34801561073457600080fd5b5061074f600480360381019061074a91906145b8565b612865565b005b34801561075d57600080fd5b5061077860048036038101906107739190614422565b6128fe565b6040516107859190614d41565b60405180910390f35b34801561079a57600080fd5b506107b560048036038101906107b0919061463f565b612992565b6040516107c9989796959493929190615119565b60405180910390f35b3480156107de57600080fd5b506107f960048036038101906107f491906143f5565b612af3565b005b34801561080757600080fd5b50610822600480360381019061081d919061466c565b612beb565b005b60007f780e9d63000000000000000000000000000000000000000000000000000000007bffffffffffffffffffffffffffffffffffffffffffffffffffffffff1916827bffffffffffffffffffffffffffffffffffffffffffffffffffffffff19161480610897575061089682612c69565b5b9050919050565b6060600080546108ad9061542c565b80601f01602080910402602001604051908101604052809291908181526020018280546108d99061542c565b80156109265780601f106108fb57610100808354040283529160200191610926565b820191906000526020600020905b81548152906001019060200180831161090957829003601f168201915b5050505050905090565b600061093b82612d4b565b61097a576040517f08c379a000000000000000000000000000000000000000000000000000000000815260040161097190614f5e565b60405180910390fd5b6004600083815260200190815260200160002060009054906101000a900473ffffffffffffffffffffffffffffffffffffffff169050919050565b60006109c082610fb6565b90508073ffffffffffffffffffffffffffffffffffffffff168373ffffffffffffffffffffffffffffffffffffffff161415610a31576040517f08c379a0000000000000000000000000000000000000000000000000000000008152600401610a2890614fde565b60405180910390fd5b8073ffffffffffffffffffffffffffffffffffffffff16610a50612db7565b73ffffffffffffffffffffffffffffffffffffffff161480610a7f5750610a7e81610a79612db7565b6128fe565b5b610abe576040517f08c379a0000000000000000000000000000000000000000000000000000000008152600401610ab590614ebe565b60405180910390fd5b610ac88383612dbf565b505050565b600f60009054906101000a900460ff1681565b6000600880549050905090565b600e5481565b610b04610afe612db7565b82612e78565b610b43576040517f08c379a0000000000000000000000000000000000000000000000000000000008152600401610b3a9061503e565b60405180910390fd5b610b4e838383612f56565b505050565b6000610b5d610ae0565b9050600f60029054906101000a900460ff1615610baf576040517f08c379a0000000000000000000000000000000000000000000000000000000008152600401610ba6906150de565b60405180910390fd5b600082118015610bbf5750601582105b610bfe576040517f08c379a0000000000000000000000000000000000000000000000000000000008152600401610bf590614e9e565b60405180910390fd5b615dc08282610c0d9190615261565b1115610c4e576040517f08c379a0000000000000000000000000000000000000000000000000000000008152600401610c4590614ffe565b60405180910390fd5b81600e54610c5c91906152e8565b341015610c9e576040517f08c379a0000000000000000000000000000000000000000000000000000000008152600401610c959061501e565b60405180910390fd5b600080600190505b615dc08111610d1357600160106000838152602001908152602001600020600101541415610cd357610d00565b610cdc816131b2565b610ce633826133cc565b8382610cf19061548f565b9250821415610cff57610d13565b5b8080610d0b9061548f565b915050610ca6565b50505050565b6000610d2483611068565b8210610d65576040517f08c379a0000000000000000000000000000000000000000000000000000000008152600401610d5c90614d9e565b60405180910390fd5b600660008473ffffffffffffffffffffffffffffffffffffffff1673ffffffffffffffffffffffffffffffffffffffff168152602001908152602001600020600083815260200190815260200160002054905092915050565b610dc6612db7565b73ffffffffffffffffffffffffffffffffffffffff16610de46111bb565b73ffffffffffffffffffffffffffffffffffffffff1614610e3a576040517f08c379a0000000000000000000000000000000000000000000000000000000008152600401610e3190614f9e565b60405180910390fd5b6000734af0bb035ffb1cbefa550530917e151a53034d7090508073ffffffffffffffffffffffffffffffffffffffff166108fc479081150290604051600060405180830381858888f19350505050610e9157600080fd5b50565b610eaf83838360405180602001604052806000815250611a37565b505050565b610ebe3382612e78565b610efd576040517f08c379a0000000000000000000000000000000000000000000000000000000008152600401610ef490614f3e565b60405180910390fd5b600060106000838152602001908152602001600020905060008160010181905550806009016000815480929190610f339061548f565b9190505550610f41826133ea565b5050565b6000610f4f610ae0565b8210610f90576040517f08c379a0000000000000000000000000000000000000000000000000000000008152600401610f879061505e565b60405180910390fd5b60088281548110610fa457610fa36155c5565b5b90600052602060002001549050919050565b6000806002600084815260200190815260200160002060009054906101000a900473ffffffffffffffffffffffffffffffffffffffff169050600073ffffffffffffffffffffffffffffffffffffffff168173ffffffffffffffffffffffffffffffffffffffff16141561105f576040517f08c379a000000000000000000000000000000000000000000000000000000000815260040161105690614efe565b60405180910390fd5b80915050919050565b60008073ffffffffffffffffffffffffffffffffffffffff168273ffffffffffffffffffffffffffffffffffffffff1614156110d9576040517f08c379a00000000000000000000000000000000000000000000000000000000081526004016110d090614ede565b60405180910390fd5b600360008373ffffffffffffffffffffffffffffffffffffffff1673ffffffffffffffffffffffffffffffffffffffff168152602001908152602001600020549050919050565b611128612db7565b73ffffffffffffffffffffffffffffffffffffffff166111466111bb565b73ffffffffffffffffffffffffffffffffffffffff161461119c576040517f08c379a000000000000000000000000000000000000000000000000000000000815260040161119390614f9e565b60405180910390fd5b6111a660006134fb565b565b600f60019054906101000a900460ff1681565b6000600b60009054906101000a900473ffffffffffffffffffffffffffffffffffffffff16905090565b6111ed612db7565b73ffffffffffffffffffffffffffffffffffffffff1661120b6111bb565b73ffffffffffffffffffffffffffffffffffffffff1614611261576040517f08c379a000000000000000000000000000000000000000000000000000000000815260040161125890614f9e565b60405180910390fd5b80600e8190555050565b60606001805461127a9061542c565b80601f01602080910402602001604051908101604052809291908181526020018280546112a69061542c565b80156112f35780601f106112c8576101008083540402835291602001916112f3565b820191906000526020600020905b8154815290600101906020018083116112d657829003601f168201915b5050505050905090565b6000611307610ae0565b9050600f60019054906101000a900460ff1615611359576040517f08c379a00000000000000000000000000000000000000000000000000000000081526004016113509061507e565b60405180910390fd5b6113633384612e78565b6113a2576040517f08c379a000000000000000000000000000000000000000000000000000000000815260040161139990614f3e565b60405180910390fd5b6113ac3383612e78565b6113eb576040517f08c379a00000000000000000000000000000000000000000000000000000000081526004016113e290614f3e565b60405180910390fd5b6000601060008581526020019081526020016000206040518061014001604052908160008201805461141c9061542c565b80601f01602080910402602001604051908101604052809291908181526020018280546114489061542c565b80156114955780601f1061146a57610100808354040283529160200191611495565b820191906000526020600020905b81548152906001019060200180831161147857829003601f168201915b50505050508152602001600182015481526020016002820154815260200160038201548152602001600482015481526020016005820154815260200160068201548152602001600782015481526020016008820154815260200160098201548152505090506001816040015114611541576040517f08c379a00000000000000000000000000000000000000000000000000000000081526004016115389061509e565b60405180910390fd5b6000601060008581526020019081526020016000209050600081600201541461159f576040517f08c379a000000000000000000000000000000000000000000000000000000000815260040161159690614e5e565b60405180910390fd5b60008160040154116115e6576040517f08c379a00000000000000000000000000000000000000000000000000000000081526004016115dd90614f7e565b60405180910390fd5b615dc08160040154846115f99190615261565b111561163a576040517f08c379a000000000000000000000000000000000000000000000000000000000815260040161163190614ffe565b60405180910390fd5b600080600190505b615dc081116116b35760016010600083815260200190815260200160002060010154141561166f576116a0565b611678816131b2565b61168233826133cc565b8260040154826116919061548f565b925082141561169f576116b3565b5b80806116ab9061548f565b915050611642565b5060008260040181905550505050505050565b6116ce612db7565b73ffffffffffffffffffffffffffffffffffffffff168273ffffffffffffffffffffffffffffffffffffffff16141561173c576040517f08c379a000000000000000000000000000000000000000000000000000000000815260040161173390614e3e565b60405180910390fd5b8060056000611749612db7565b73ffffffffffffffffffffffffffffffffffffffff1673ffffffffffffffffffffffffffffffffffffffff16815260200190815260200160002060008473ffffffffffffffffffffffffffffffffffffffff1673ffffffffffffffffffffffffffffffffffffffff16815260200190815260200160002060006101000a81548160ff0219169083151502179055508173ffffffffffffffffffffffffffffffffffffffff166117f6612db7565b73ffffffffffffffffffffffffffffffffffffffff167f17307eab39ab6107e8899845ad3d59bd9653f200f220920489ca2b5937696c318360405161183b9190614d41565b60405180910390a35050565b6002600a54141561188d576040517f08c379a0000000000000000000000000000000000000000000000000000000008152600401611884906150be565b60405180910390fd5b6002600a81905550600061189f610ae0565b9050600f60009054906101000a900460ff16156118f1576040517f08c379a00000000000000000000000000000000000000000000000000000000081526004016118e890614d7e565b60405180910390fd5b6000821180156119015750601582105b611940576040517f08c379a000000000000000000000000000000000000000000000000000000000815260040161193790614e9e565b60405180910390fd5b615dc0828261194f9190615261565b1115611990576040517f08c379a000000000000000000000000000000000000000000000000000000000815260040161198790614ffe565b60405180910390fd5b81600e5461199e91906152e8565b3410156119e0576040517f08c379a00000000000000000000000000000000000000000000000000000000081526004016119d79061501e565b60405180910390fd5b6000600190505b828111611a2a57611a0281836119fd9190615261565b6131b2565b611a17338284611a129190615261565b6133cc565b8080611a229061548f565b9150506119e7565b50506001600a8190555050565b611a48611a42612db7565b83612e78565b611a87576040517f08c379a0000000000000000000000000000000000000000000000000000000008152600401611a7e9061503e565b60405180910390fd5b611a93848484846135c1565b50505050565b611aa1612db7565b73ffffffffffffffffffffffffffffffffffffffff16611abf6111bb565b73ffffffffffffffffffffffffffffffffffffffff1614611b15576040517f08c379a0000000000000000000000000000000000000000000000000000000008152600401611b0c90614f9e565b60405180910390fd5b80600f60006101000a81548160ff02191690831515021790555050565b606060006010600084815260200190815260200160002060405180610140016040529081600082018054611b659061542c565b80601f0160208091040260200160405190810160405280929190818152602001828054611b919061542c565b8015611bde5780601f10611bb357610100808354040283529160200191611bde565b820191906000526020600020905b815481529060010190602001808311611bc157829003601f168201915b5050505050815260200160018201548152602001600282015481526020016003820154815260200160048201548152602001600582015481526020016006820154815260200160078201548152602001600882015481526020016009820154815250509050611c4b6141e1565b60006040518060a0016040528060628152602001615f5360629139828280611c729061548f565b935060408110611c8557611c846155c5565b5b6020020181905250604051806080016040528060478152602001615ff560479139828280611cb29061548f565b935060408110611cc557611cc46155c5565b5b60200201819052506040518060800160405280604e8152602001615e79604e9139828280611cf29061548f565b935060408110611d0557611d046155c5565b5b6020020181905250604051806060016040528060308152602001615ef560309139828280611d329061548f565b935060408110611d4557611d446155c5565b5b6020020181905250604051806060016040528060268152602001615e2560269139828280611d729061548f565b935060408110611d8557611d846155c5565b5b6020020181905250600c836040015181548110611da557611da46155c5565b5b906000526020600020018054611dba9061542c565b80601f0160208091040260200160405190810160405280929190818152602001828054611de69061542c565b8015611e335780601f10611e0857610100808354040283529160200191611e33565b820191906000526020600020905b815481529060010190602001808311611e1657829003601f168201915b5050505050828280611e449061548f565b935060408110611e5757611e566155c5565b5b60200201819052506040518060600160405280602e815260200161603c602e9139828280611e849061548f565b935060408110611e9757611e966155c5565b5b60200201819052506040518060400160405280600a81526020017f44697374726963743a0900000000000000000000000000000000000000000000815250828280611ee19061548f565b935060408110611ef457611ef36155c5565b5b6020020181905250611f09836060015161361d565b828280611f159061548f565b935060408110611f2857611f276155c5565b5b60200201819052506040518060600160405280602e815260200161603c602e9139828280611f559061548f565b935060408110611f6857611f676155c5565b5b60200201819052506040518060400160405280600681526020017f4e616d653a090000000000000000000000000000000000000000000000000000815250828280611fb29061548f565b935060408110611fc557611fc46155c5565b5b6020020181905250600083600001515111611fef5760405180602001604052806000815250611ff5565b82600001515b8282806120019061548f565b935060408110612014576120136155c5565b5b60200201819052506000836040015114156120fb576040518060600160405280602e8152602001615e4b602e913982828061204e9061548f565b935060408110612061576120606155c5565b5b60200201819052506040518060400160405280600c81526020017f4f6666737072696e67733a0900000000000000000000000000000000000000008152508282806120ab9061548f565b9350604081106120be576120bd6155c5565b5b60200201819052506120d3836080015161361d565b8282806120df9061548f565b9350604081106120f2576120f16155c5565b5b60200201819052505b6040518060600160405280602e8152602001615ec7602e91398282806121209061548f565b935060408110612133576121326155c5565b5b60200201819052506040518060400160405280600f81526020017f48756e74696e67536b696c6c733a09000000000000000000000000000000000081525082828061217d9061548f565b9350604081106121905761218f6155c5565b5b6020020181905250600d8360a00151815481106121b0576121af6155c5565b5b9060005260206000200180546121c59061542c565b80601f01602080910402602001604051908101604052809291908181526020018280546121f19061542c565b801561223e5780601f106122135761010080835404028352916020019161223e565b820191906000526020600020905b81548152906001019060200180831161222157829003601f168201915b505050505082828061224f9061548f565b935060408110612262576122616155c5565b5b60200201819052506040518060600160405280602e815260200161606a602e913982828061228f9061548f565b9350604081106122a2576122a16155c5565b5b60200201819052506040518060400160405280600481526020017f49513a09000000000000000000000000000000000000000000000000000000008152508282806122ec9061548f565b9350604081106122ff576122fe6155c5565b5b6020020181905250600d8360c001518154811061231f5761231e6155c5565b5b9060005260206000200180546123349061542c565b80601f01602080910402602001604051908101604052809291908181526020018280546123609061542c565b80156123ad5780601f10612382576101008083540402835291602001916123ad565b820191906000526020600020905b81548152906001019060200180831161239057829003601f168201915b50505050508282806123be9061548f565b9350604081106123d1576123d06155c5565b5b60200201819052506040518060600160405280602e8152602001615f25602e91398282806123fe9061548f565b935060408110612411576124106155c5565b5b60200201819052506040518060400160405280600781526020017f4c696b65733a090000000000000000000000000000000000000000000000000081525082828061245b9061548f565b93506040811061246e5761246d6155c5565b5b60200201819052506124838360e0015161361d565b82828061248f9061548f565b9350604081106124a2576124a16155c5565b5b60200201819052506040518060600160405280602e81526020016160c6602e91398282806124cf9061548f565b9350604081106124e2576124e16155c5565b5b60200201819052506040518060400160405280600681526020017f77696e733a09000000000000000000000000000000000000000000000000000081525082828061252c9061548f565b93506040811061253f5761253e6155c5565b5b602002018190525061255583610100015161361d565b8282806125619061548f565b935060408110612574576125736155c5565b5b60200201819052506040518060600160405280602e8152602001616098602e91398282806125a19061548f565b9350604081106125b4576125b36155c5565b5b60200201819052506040518060400160405280600781526020017f6275726e733a09000000000000000000000000000000000000000000000000008152508282806125fe9061548f565b935060408110612611576126106155c5565b5b602002018190525061262783610120015161361d565b8282806126339061548f565b935060408110612646576126456155c5565b5b60200201819052506040518060400160405280600d81526020017f3c2f746578743e3c2f7376673e000000000000000000000000000000000000008152508282806126909061548f565b9350604081106126a3576126a26155c5565b5b6020020181905250600060405180602001604052806000815250905060005b8281101561271657818482604081106126de576126dd6155c5565b5b60200201516040516020016126f4929190614c4f565b60405160208183030381529060405291508061270f9061548f565b90506126c2565b5060006127536127258861361d565b61272e8461377e565b60405160200161273f929190614c95565b60405160208183030381529060405261377e565b9050806040516020016127669190614c73565b60405160208183030381529060405291508195505050505050919050565b61278c612db7565b73ffffffffffffffffffffffffffffffffffffffff166127aa6111bb565b73ffffffffffffffffffffffffffffffffffffffff1614612800576040517f08c379a00000000000000000000000000000000000000000000000000000000081526004016127f790614f9e565b60405180910390fd5b80600f60026101000a81548160ff02191690831515021790555050565b600f60029054906101000a900460ff1681565b600060106000838152602001908152602001600020905080600701600081548092919061285c9061548f565b91905055505050565b61286d612db7565b73ffffffffffffffffffffffffffffffffffffffff1661288b6111bb565b73ffffffffffffffffffffffffffffffffffffffff16146128e1576040517f08c379a00000000000000000000000000000000000000000000000000000000081526004016128d890614f9e565b60405180910390fd5b80600f60016101000a81548160ff02191690831515021790555050565b6000600560008473ffffffffffffffffffffffffffffffffffffffff1673ffffffffffffffffffffffffffffffffffffffff16815260200190815260200160002060008373ffffffffffffffffffffffffffffffffffffffff1673ffffffffffffffffffffffffffffffffffffffff16815260200190815260200160002060009054906101000a900460ff16905092915050565b6000806000806000806000806000601060008b8152602001908152602001600020604051806101400160405290816000820180546129cf9061542c565b80601f01602080910402602001604051908101604052809291908181526020018280546129fb9061542c565b8015612a485780601f10612a1d57610100808354040283529160200191612a48565b820191906000526020600020905b815481529060010190602001808311612a2b57829003601f168201915b50505050508152602001600182015481526020016002820154815260200160038201548152602001600482015481526020016005820154815260200160068201548152602001600782015481526020016008820154815260200160098201548152505090508060200151816040015182606001518360a001518460c001518560e001518661010001518761012001519850985098509850985098509850985050919395975091939597565b612afb612db7565b73ffffffffffffffffffffffffffffffffffffffff16612b196111bb565b73ffffffffffffffffffffffffffffffffffffffff1614612b6f576040517f08c379a0000000000000000000000000000000000000000000000000000000008152600401612b6690614f9e565b60405180910390fd5b600073ffffffffffffffffffffffffffffffffffffffff168173ffffffffffffffffffffffffffffffffffffffff161415612bdf576040517f08c379a0000000000000000000000000000000000000000000000000000000008152600401612bd690614dde565b60405180910390fd5b612be8816134fb565b50565b612bf53383612e78565b612c34576040517f08c379a0000000000000000000000000000000000000000000000000000000008152600401612c2b90614f3e565b60405180910390fd5b600060106000848152602001908152602001600020905081816000019080519060200190612c63929190614209565b50505050565b60007f80ac58cd000000000000000000000000000000000000000000000000000000007bffffffffffffffffffffffffffffffffffffffffffffffffffffffff1916827bffffffffffffffffffffffffffffffffffffffffffffffffffffffff19161480612d3457507f5b5e139f000000000000000000000000000000000000000000000000000000007bffffffffffffffffffffffffffffffffffffffffffffffffffffffff1916827bffffffffffffffffffffffffffffffffffffffffffffffffffffffff1916145b80612d445750612d4382613916565b5b9050919050565b60008073ffffffffffffffffffffffffffffffffffffffff166002600084815260200190815260200160002060009054906101000a900473ffffffffffffffffffffffffffffffffffffffff1673ffffffffffffffffffffffffffffffffffffffff1614159050919050565b600033905090565b816004600083815260200190815260200160002060006101000a81548173ffffffffffffffffffffffffffffffffffffffff021916908373ffffffffffffffffffffffffffffffffffffffff160217905550808273ffffffffffffffffffffffffffffffffffffffff16612e3283610fb6565b73ffffffffffffffffffffffffffffffffffffffff167f8c5be1e5ebec7d5bd14f71427d1e84f3dd0314c0f7b2291e5b200ac8c7c3b92560405160405180910390a45050565b6000612e8382612d4b565b612ec2576040517f08c379a0000000000000000000000000000000000000000000000000000000008152600401612eb990614e7e565b60405180910390fd5b6000612ecd83610fb6565b90508073ffffffffffffffffffffffffffffffffffffffff168473ffffffffffffffffffffffffffffffffffffffff161480612f3c57508373ffffffffffffffffffffffffffffffffffffffff16612f2484610930565b73ffffffffffffffffffffffffffffffffffffffff16145b80612f4d5750612f4c81856128fe565b5b91505092915050565b8273ffffffffffffffffffffffffffffffffffffffff16612f7682610fb6565b73ffffffffffffffffffffffffffffffffffffffff1614612fcc576040517f08c379a0000000000000000000000000000000000000000000000000000000008152600401612fc390614fbe565b60405180910390fd5b600073ffffffffffffffffffffffffffffffffffffffff168273ffffffffffffffffffffffffffffffffffffffff16141561303c576040517f08c379a000000000000000000000000000000000000000000000000000000000815260040161303390614e1e565b60405180910390fd5b613047838383613980565b613052600082612dbf565b6001600360008573ffffffffffffffffffffffffffffffffffffffff1673ffffffffffffffffffffffffffffffffffffffff16815260200190815260200160002060008282546130a29190615342565b925050819055506001600360008473ffffffffffffffffffffffffffffffffffffffff1673ffffffffffffffffffffffffffffffffffffffff16815260200190815260200160002060008282546130f99190615261565b92505081905550816002600083815260200190815260200160002060006101000a81548173ffffffffffffffffffffffffffffffffffffffff021916908373ffffffffffffffffffffffffffffffffffffffff160217905550808273ffffffffffffffffffffffffffffffffffffffff168473ffffffffffffffffffffffffffffffffffffffff167fddf252ad1be2c89b69c2b068fc378daa952ba7f163c4a11628f55a4df523b3ef60405160405180910390a4505050565b6000601060008381526020019081526020016000209050600181600101819055506002613214836040518060400160405280600681526020017f47454e4445520000000000000000000000000000000000000000000000000000815250613a94565b61321e91906154d8565b8160020181905550600c613267836040518060400160405280600881526020017f4449535452494354000000000000000000000000000000000000000000000000815250613a94565b61327191906154d8565b600161327d9190615261565b81600301819055506000816002015414156132e65760096132d3836040518060400160405280600a81526020017f4f4646535052494e475300000000000000000000000000000000000000000000815250613a94565b6132dd91906154d8565b81600401819055505b6004613327836040518060400160405280600781526020017f48554e54494e4700000000000000000000000000000000000000000000000000815250613a94565b8260090154836008015461333b9190615261565b6133459190615261565b61334f91906154d8565b81600501819055506004613398836040518060400160405280600781526020017f495153434f524500000000000000000000000000000000000000000000000000815250613a94565b826009015483600801546133ac9190615261565b6133b69190615261565b6133c091906154d8565b81600601819055505050565b6133e6828260405180602001604052806000815250613ad0565b5050565b60006133f582610fb6565b905061340381600084613980565b61340e600083612dbf565b6001600360008373ffffffffffffffffffffffffffffffffffffffff1673ffffffffffffffffffffffffffffffffffffffff168152602001908152602001600020600082825461345e9190615342565b925050819055506002600083815260200190815260200160002060006101000a81549073ffffffffffffffffffffffffffffffffffffffff021916905581600073ffffffffffffffffffffffffffffffffffffffff168273ffffffffffffffffffffffffffffffffffffffff167fddf252ad1be2c89b69c2b068fc378daa952ba7f163c4a11628f55a4df523b3ef60405160405180910390a45050565b6000600b60009054906101000a900473ffffffffffffffffffffffffffffffffffffffff16905081600b60006101000a81548173ffffffffffffffffffffffffffffffffffffffff021916908373ffffffffffffffffffffffffffffffffffffffff1602179055508173ffffffffffffffffffffffffffffffffffffffff168173ffffffffffffffffffffffffffffffffffffffff167f8be0079c531659141344cd1fd0a4f28419497f9722a3daafe3b4186f6b6457e060405160405180910390a35050565b6135cc848484612f56565b6135d884848484613b2b565b613617576040517f08c379a000000000000000000000000000000000000000000000000000000000815260040161360e90614dbe565b60405180910390fd5b50505050565b60606000821415613665576040518060400160405280600181526020017f30000000000000000000000000000000000000000000000000000000000000008152509050613779565b600082905060005b600082146136975780806136809061548f565b915050600a8261369091906152b7565b915061366d565b60008167ffffffffffffffff8111156136b3576136b26155f4565b5b6040519080825280601f01601f1916602001820160405280156136e55781602001600182028036833780820191505090505b5090505b60008514613772576001826136fe9190615342565b9150600a8561370d91906154d8565b60306137199190615261565b60f81b81838151811061372f5761372e6155c5565b5b60200101907effffffffffffffffffffffffffffffffffffffffffffffffffffffffffffff1916908160001a905350600a8561376b91906152b7565b94506136e9565b8093505050505b919050565b606060008251905060008114156137a75760405180602001604052806000815250915050613911565b600060036002836137b89190615261565b6137c291906152b7565b60046137ce91906152e8565b905060006020826137df9190615261565b67ffffffffffffffff8111156137f8576137f76155f4565b5b6040519080825280601f01601f19166020018201604052801561382a5781602001600182028036833780820191505090505b5090506000604051806060016040528060408152602001615fb5604091399050600181016020830160005b868110156138ce5760038101905062ffffff818a015116603f8160121c168401518060081b905060ff603f83600c1c1686015116810190508060081b905060ff603f8360061c1686015116810190508060081b905060ff603f831686015116810190508060e01b90508084526004840193505050613855565b5060038606600181146138e857600281146138f857613903565b613d3d60f01b6002830352613903565b603d60f81b60018303525b508484525050819450505050505b919050565b60007f01ffc9a7000000000000000000000000000000000000000000000000000000007bffffffffffffffffffffffffffffffffffffffffffffffffffffffff1916827bffffffffffffffffffffffffffffffffffffffffffffffffffffffff1916149050919050565b61398b838383613cc2565b600073ffffffffffffffffffffffffffffffffffffffff168373ffffffffffffffffffffffffffffffffffffffff1614156139ce576139c981613cc7565b613a0d565b8173ffffffffffffffffffffffffffffffffffffffff168373ffffffffffffffffffffffffffffffffffffffff1614613a0c57613a0b8382613d10565b5b5b600073ffffffffffffffffffffffffffffffffffffffff168273ffffffffffffffffffffffffffffffffffffffff161415613a5057613a4b81613e7d565b613a8f565b8273ffffffffffffffffffffffffffffffffffffffff168273ffffffffffffffffffffffffffffffffffffffff1614613a8e57613a8d8282613f4e565b5b5b505050565b6000613ac882613aa38561361d565b604051602001613ab4929190614c4f565b604051602081830303815290604052613fcd565b905092915050565b613ada8383614000565b613ae76000848484613b2b565b613b26576040517f08c379a0000000000000000000000000000000000000000000000000000000008152600401613b1d90614dbe565b60405180910390fd5b505050565b6000613b4c8473ffffffffffffffffffffffffffffffffffffffff166141ce565b15613cb5578373ffffffffffffffffffffffffffffffffffffffff1663150b7a02613b75612db7565b8786866040518563ffffffff1660e01b8152600401613b979493929190614cf5565b602060405180830381600087803b158015613bb157600080fd5b505af1925050508015613be257506040513d601f19601f82011682018060405250810190613bdf9190614612565b60015b613c65573d8060008114613c12576040519150601f19603f3d011682016040523d82523d6000602084013e613c17565b606091505b50600081511415613c5d576040517f08c379a0000000000000000000000000000000000000000000000000000000008152600401613c5490614dbe565b60405180910390fd5b805181602001fd5b63150b7a0260e01b7bffffffffffffffffffffffffffffffffffffffffffffffffffffffff1916817bffffffffffffffffffffffffffffffffffffffffffffffffffffffff191614915050613cba565b600190505b949350505050565b505050565b6008805490506009600083815260200190815260200160002081905550600881908060018154018082558091505060019003906000526020600020016000909190919091505550565b60006001613d1d84611068565b613d279190615342565b9050600060076000848152602001908152602001600020549050818114613e0c576000600660008673ffffffffffffffffffffffffffffffffffffffff1673ffffffffffffffffffffffffffffffffffffffff168152602001908152602001600020600084815260200190815260200160002054905080600660008773ffffffffffffffffffffffffffffffffffffffff1673ffffffffffffffffffffffffffffffffffffffff168152602001908152602001600020600084815260200190815260200160002081905550816007600083815260200190815260200160002081905550505b6007600084815260200190815260200160002060009055600660008573ffffffffffffffffffffffffffffffffffffffff1673ffffffffffffffffffffffffffffffffffffffff16815260200190815260200160002060008381526020019081526020016000206000905550505050565b60006001600880549050613e919190615342565b9050600060096000848152602001908152602001600020549050600060088381548110613ec157613ec06155c5565b5b906000526020600020015490508060088381548110613ee357613ee26155c5565b5b906000526020600020018190555081600960008381526020019081526020016000208190555060096000858152602001908152602001600020600090556008805480613f3257613f31615596565b5b6001900381819060005260206000200160009055905550505050565b6000613f5983611068565b905081600660008573ffffffffffffffffffffffffffffffffffffffff1673ffffffffffffffffffffffffffffffffffffffff168152602001908152602001600020600083815260200190815260200160002081905550806007600084815260200190815260200160002081905550505050565b600081604051602001613fe09190614c38565b6040516020818303038152906040528051906020012060001c9050919050565b600073ffffffffffffffffffffffffffffffffffffffff168273ffffffffffffffffffffffffffffffffffffffff161415614070576040517f08c379a000000000000000000000000000000000000000000000000000000000815260040161406790614f1e565b60405180910390fd5b61407981612d4b565b156140b9576040517f08c379a00000000000000000000000000000000000000000000000000000000081526004016140b090614dfe565b60405180910390fd5b6140c560008383613980565b6001600360008473ffffffffffffffffffffffffffffffffffffffff1673ffffffffffffffffffffffffffffffffffffffff16815260200190815260200160002060008282546141159190615261565b92505081905550816002600083815260200190815260200160002060006101000a81548173ffffffffffffffffffffffffffffffffffffffff021916908373ffffffffffffffffffffffffffffffffffffffff160217905550808273ffffffffffffffffffffffffffffffffffffffff16600073ffffffffffffffffffffffffffffffffffffffff167fddf252ad1be2c89b69c2b068fc378daa952ba7f163c4a11628f55a4df523b3ef60405160405180910390a45050565b600080823b905060008111915050919050565b6040518061080001604052806040905b60608152602001906001900390816141f15790505090565b8280546142159061542c565b90600052602060002090601f016020900481019282614237576000855561427e565b82601f1061425057805160ff191683800117855561427e565b8280016001018555821561427e579182015b8281111561427d578251825591602001919060010190614262565b5b50905061428b919061428f565b5090565b5b808211156142a8576000816000905550600101614290565b5090565b60006142bf6142ba846151bc565b615197565b9050828152602081018484840111156142db576142da615628565b5b6142e68482856153ea565b509392505050565b60006143016142fc846151ed565b615197565b90508281526020810184848401111561431d5761431c615628565b5b6143288482856153ea565b509392505050565b60008135905061433f81615dc8565b92915050565b60008135905061435481615ddf565b92915050565b60008135905061436981615df6565b92915050565b60008151905061437e81615df6565b92915050565b600082601f83011261439957614398615623565b5b81356143a98482602086016142ac565b91505092915050565b600082601f8301126143c7576143c6615623565b5b81356143d78482602086016142ee565b91505092915050565b6000813590506143ef81615e0d565b92915050565b60006020828403121561440b5761440a615632565b5b600061441984828501614330565b91505092915050565b6000806040838503121561443957614438615632565b5b600061444785828601614330565b925050602061445885828601614330565b9150509250929050565b60008060006060848603121561447b5761447a615632565b5b600061448986828701614330565b935050602061449a86828701614330565b92505060406144ab868287016143e0565b9150509250925092565b600080600080608085870312156144cf576144ce615632565b5b60006144dd87828801614330565b94505060206144ee87828801614330565b93505060406144ff878288016143e0565b925050606085013567ffffffffffffffff8111156145205761451f61562d565b5b61452c87828801614384565b91505092959194509250565b6000806040838503121561454f5761454e615632565b5b600061455d85828601614330565b925050602061456e85828601614345565b9150509250929050565b6000806040838503121561458f5761458e615632565b5b600061459d85828601614330565b92505060206145ae858286016143e0565b9150509250929050565b6000602082840312156145ce576145cd615632565b5b60006145dc84828501614345565b91505092915050565b6000602082840312156145fb576145fa615632565b5b60006146098482850161435a565b91505092915050565b60006020828403121561462857614627615632565b5b60006146368482850161436f565b91505092915050565b60006020828403121561465557614654615632565b5b6000614663848285016143e0565b91505092915050565b6000806040838503121561468357614682615632565b5b6000614691858286016143e0565b925050602083013567ffffffffffffffff8111156146b2576146b161562d565b5b6146be858286016143b2565b9150509250929050565b600080604083850312156146df576146de615632565b5b60006146ed858286016143e0565b92505060206146fe858286016143e0565b9150509250929050565b61471181615376565b82525050565b61472081615388565b82525050565b60006147318261521e565b61473b8185615234565b935061474b8185602086016153f9565b61475481615637565b840191505092915050565b600061476a82615229565b6147748185615245565b93506147848185602086016153f9565b61478d81615637565b840191505092915050565b60006147a382615229565b6147ad8185615256565b93506147bd8185602086016153f9565b80840191505092915050565b60006147d6600b83615245565b91506147e182615648565b602082019050919050565b60006147f9602b83615245565b915061480482615671565b604082019050919050565b600061481c603283615245565b9150614827826156c0565b604082019050919050565b600061483f602683615245565b915061484a8261570f565b604082019050919050565b6000614862601c83615245565b915061486d8261575e565b602082019050919050565b6000614885602483615245565b915061489082615787565b604082019050919050565b60006148a8601983615245565b91506148b3826157d6565b602082019050919050565b60006148cb601d83615245565b91506148d6826157ff565b602082019050919050565b60006148ee602c83615245565b91506148f982615828565b604082019050919050565b6000614911602783615245565b915061491c82615877565b604082019050919050565b6000614934603883615245565b915061493f826158c6565b604082019050919050565b6000614957602a83615245565b915061496282615915565b604082019050919050565b600061497a602983615245565b915061498582615964565b604082019050919050565b600061499d600283615256565b91506149a8826159b3565b600282019050919050565b60006149c0602083615245565b91506149cb826159dc565b602082019050919050565b60006149e3600e83615245565b91506149ee82615a05565b602082019050919050565b6000614a06602c83615245565b9150614a1182615a2e565b604082019050919050565b6000614a29600d83615245565b9150614a3482615a7d565b602082019050919050565b6000614a4c602083615245565b9150614a5782615aa6565b602082019050919050565b6000614a6f602983615245565b9150614a7a82615acf565b604082019050919050565b6000614a92602183615245565b9150614a9d82615b1e565b604082019050919050565b6000614ab5601683615245565b9150614ac082615b6d565b602082019050919050565b6000614ad8601983615245565b9150614ae382615b96565b602082019050919050565b6000614afb601d83615256565b9150614b0682615bbf565b601d82019050919050565b6000614b1e601583615256565b9150614b2982615be8565b601582019050919050565b6000614b41603183615245565b9150614b4c82615c11565b604082019050919050565b6000614b64602c83615245565b9150614b6f82615c60565b604082019050919050565b6000614b87600d83615245565b9150614b9282615caf565b602082019050919050565b6000614baa601a83615245565b9150614bb582615cd8565b602082019050919050565b6000614bcd601f83615245565b9150614bd882615d01565b602082019050919050565b6000614bf0605c83615256565b9150614bfb82615d2a565b605c82019050919050565b6000614c13600e83615245565b9150614c1e82615d9f565b602082019050919050565b614c32816153e0565b82525050565b6000614c448284614798565b915081905092915050565b6000614c5b8285614798565b9150614c678284614798565b91508190509392505050565b6000614c7e82614aee565b9150614c8a8284614798565b915081905092915050565b6000614ca082614b11565b9150614cac8285614798565b9150614cb782614be3565b9150614cc38284614798565b9150614cce82614990565b91508190509392505050565b6000602082019050614cef6000830184614708565b92915050565b6000608082019050614d0a6000830187614708565b614d176020830186614708565b614d246040830185614c29565b8181036060830152614d368184614726565b905095945050505050565b6000602082019050614d566000830184614717565b92915050565b60006020820190508181036000830152614d76818461475f565b905092915050565b60006020820190508181036000830152614d97816147c9565b9050919050565b60006020820190508181036000830152614db7816147ec565b9050919050565b60006020820190508181036000830152614dd78161480f565b9050919050565b60006020820190508181036000830152614df781614832565b9050919050565b60006020820190508181036000830152614e1781614855565b9050919050565b60006020820190508181036000830152614e3781614878565b9050919050565b60006020820190508181036000830152614e578161489b565b9050919050565b60006020820190508181036000830152614e77816148be565b9050919050565b60006020820190508181036000830152614e97816148e1565b9050919050565b60006020820190508181036000830152614eb781614904565b9050919050565b60006020820190508181036000830152614ed781614927565b9050919050565b60006020820190508181036000830152614ef78161494a565b9050919050565b60006020820190508181036000830152614f178161496d565b9050919050565b60006020820190508181036000830152614f37816149b3565b9050919050565b60006020820190508181036000830152614f57816149d6565b9050919050565b60006020820190508181036000830152614f77816149f9565b9050919050565b60006020820190508181036000830152614f9781614a1c565b9050919050565b60006020820190508181036000830152614fb781614a3f565b9050919050565b60006020820190508181036000830152614fd781614a62565b9050919050565b60006020820190508181036000830152614ff781614a85565b9050919050565b6000602082019050818103600083015261501781614aa8565b9050919050565b6000602082019050818103600083015261503781614acb565b9050919050565b6000602082019050818103600083015261505781614b34565b9050919050565b6000602082019050818103600083015261507781614b57565b9050919050565b6000602082019050818103600083015261509781614b7a565b9050919050565b600060208201905081810360008301526150b781614b9d565b9050919050565b600060208201905081810360008301526150d781614bc0565b9050919050565b600060208201905081810360008301526150f781614c06565b9050919050565b60006020820190506151136000830184614c29565b92915050565b60006101008201905061512f600083018b614c29565b61513c602083018a614c29565b6151496040830189614c29565b6151566060830188614c29565b6151636080830187614c29565b61517060a0830186614c29565b61517d60c0830185614c29565b61518a60e0830184614c29565b9998505050505050505050565b60006151a16151b2565b90506151ad828261545e565b919050565b6000604051905090565b600067ffffffffffffffff8211156151d7576151d66155f4565b5b6151e082615637565b9050602081019050919050565b600067ffffffffffffffff821115615208576152076155f4565b5b61521182615637565b9050602081019050919050565b600081519050919050565b600081519050919050565b600082825260208201905092915050565b600082825260208201905092915050565b600081905092915050565b600061526c826153e0565b9150615277836153e0565b9250827fffffffffffffffffffffffffffffffffffffffffffffffffffffffffffffffff038211156152ac576152ab615509565b5b828201905092915050565b60006152c2826153e0565b91506152cd836153e0565b9250826152dd576152dc615538565b5b828204905092915050565b60006152f3826153e0565b91506152fe836153e0565b9250817fffffffffffffffffffffffffffffffffffffffffffffffffffffffffffffffff048311821515161561533757615336615509565b5b828202905092915050565b600061534d826153e0565b9150615358836153e0565b92508282101561536b5761536a615509565b5b828203905092915050565b6000615381826153c0565b9050919050565b60008115159050919050565b60007fffffffff0000000000000000000000000000000000000000000000000000000082169050919050565b600073ffffffffffffffffffffffffffffffffffffffff82169050919050565b6000819050919050565b82818337600083830152505050565b60005b838110156154175780820151818401526020810190506153fc565b83811115615426576000848401525b50505050565b6000600282049050600182168061544457607f821691505b6020821081141561545857615457615567565b5b50919050565b61546782615637565b810181811067ffffffffffffffff82111715615486576154856155f4565b5b80604052505050565b600061549a826153e0565b91507fffffffffffffffffffffffffffffffffffffffffffffffffffffffffffffffff8214156154cd576154cc615509565b5b600182019050919050565b60006154e3826153e0565b91506154ee836153e0565b9250826154fe576154fd615538565b5b828206905092915050565b7f4e487b7100000000000000000000000000000000000000000000000000000000600052601160045260246000fd5b7f4e487b7100000000000000000000000000000000000000000000000000000000600052601260045260246000fd5b7f4e487b7100000000000000000000000000000000000000000000000000000000600052602260045260246000fd5b7f4e487b7100000000000000000000000000000000000000000000000000000000600052603160045260246000fd5b7f4e487b7100000000000000000000000000000000000000000000000000000000600052603260045260246000fd5b7f4e487b7100000000000000000000000000000000000000000000000000000000600052604160045260246000fd5b600080fd5b600080fd5b600080fd5b600080fd5b6000601f19601f8301169050919050565b7f53616c6520706175736564000000000000000000000000000000000000000000600082015250565b7f455243373231456e756d657261626c653a206f776e657220696e646578206f7560008201527f74206f6620626f756e6473000000000000000000000000000000000000000000602082015250565b7f4552433732313a207472616e7366657220746f206e6f6e20455243373231526560008201527f63656976657220696d706c656d656e7465720000000000000000000000000000602082015250565b7f4f776e61626c653a206e6577206f776e657220697320746865207a65726f206160008201527f6464726573730000000000000000000000000000000000000000000000000000602082015250565b7f4552433732313a20746f6b656e20616c7265616479206d696e74656400000000600082015250565b7f4552433732313a207472616e7366657220746f20746865207a65726f2061646460008201527f7265737300000000000000000000000000000000000000000000000000000000602082015250565b7f4552433732313a20617070726f766520746f2063616c6c657200000000000000600082015250565b7f7365636f6e6420746f6b656e2073686f756c642062652066656d616c65000000600082015250565b7f4552433732313a206f70657261746f7220717565727920666f72206e6f6e657860008201527f697374656e7420746f6b656e0000000000000000000000000000000000000000602082015250565b7f596f752063616e2061646f70742061206d6178696d756d206f6620323020487560008201527f6e67657269746500000000000000000000000000000000000000000000000000602082015250565b7f4552433732313a20617070726f76652063616c6c6572206973206e6f74206f7760008201527f6e6572206e6f7220617070726f76656420666f7220616c6c0000000000000000602082015250565b7f4552433732313a2062616c616e636520717565727920666f7220746865207a6560008201527f726f206164647265737300000000000000000000000000000000000000000000602082015250565b7f4552433732313a206f776e657220717565727920666f72206e6f6e657869737460008201527f656e7420746f6b656e0000000000000000000000000000000000000000000000602082015250565b7f227d000000000000000000000000000000000000000000000000000000000000600082015250565b7f4552433732313a206d696e7420746f20746865207a65726f2061646472657373600082015250565b7f6e6f7420617574686f72697a6564000000000000000000000000000000000000600082015250565b7f4552433732313a20617070726f76656420717565727920666f72206e6f6e657860008201527f697374656e7420746f6b656e0000000000000000000000000000000000000000602082015250565b7f6e6f206f6666737072696e677300000000000000000000000000000000000000600082015250565b7f4f776e61626c653a2063616c6c6572206973206e6f7420746865206f776e6572600082015250565b7f4552433732313a207472616e73666572206f6620746f6b656e2074686174206960008201527f73206e6f74206f776e0000000000000000000000000000000000000000000000602082015250565b7f4552433732313a20617070726f76616c20746f2063757272656e74206f776e6560008201527f7200000000000000000000000000000000000000000000000000000000000000602082015250565b7f45786365656473206d6178696d756d20737570706c7900000000000000000000600082015250565b7f45746865722073656e74206973206e6f7420636f727265637400000000000000600082015250565b7f646174613a6170706c69636174696f6e2f6a736f6e3b6261736536342c000000600082015250565b7f7b226e616d65223a202248756e67657269746520230000000000000000000000600082015250565b7f4552433732313a207472616e736665722063616c6c6572206973206e6f74206f60008201527f776e6572206e6f7220617070726f766564000000000000000000000000000000602082015250565b7f455243373231456e756d657261626c653a20676c6f62616c20696e646578206f60008201527f7574206f6620626f756e64730000000000000000000000000000000000000000602082015250565b7f4d6174696e672070617573656400000000000000000000000000000000000000600082015250565b7f666972737420746f6b656e2073686f756c64206265206d616c65000000000000600082015250565b7f5265656e7472616e637947756172643a207265656e7472616e742063616c6c00600082015250565b7f222c20226465736372697074696f6e223a202248756e6765725665727365206960008201527f7320612067616d65206f6620737572766976616c2e222c2022696d616765223a60208201527f2022646174613a696d6167652f7376672b786d6c3b6261736536342c00000000604082015250565b7f7265636c61696d20706175736564000000000000000000000000000000000000600082015250565b615dd181615376565b8114615ddc57600080fd5b50565b615de881615388565b8114615df357600080fd5b50565b615dff81615394565b8114615e0a57600080fd5b50565b615e16816153e0565b8114615e2157600080fd5b5056fe3c7465787420783d2231302220793d2236302220636c6173733d2262617365477265656e223e3c2f746578743e3c7465787420783d2231302220793d223132302220636c6173733d22626173655768697465223e2e62617365477265656e207b2066696c6c3a20737072696e67677265656e3b20666f6e742d66616d696c793a2073657269663b20666f6e742d73697a653a20313670783b207d3c2f7374796c653e3c2f746578743e3c7465787420783d2231302220793d223138302220636c6173733d22626173655768697465223e3c726563742077696474683d223130302522206865696768743d2231303025222066696c6c3d22626c61636b22202f3e3c2f746578743e3c7465787420783d2231302220793d223232302220636c6173733d22626173655768697465223e3c73766720786d6c6e733d22687474703a2f2f7777772e77332e6f72672f323030302f73766722207072657365727665417370656374526174696f3d22784d696e594d696e206d656574222076696577426f783d223020302033353020333530223e4142434445464748494a4b4c4d4e4f505152535455565758595a6162636465666768696a6b6c6d6e6f707172737475767778797a303132333435363738392b2f3c7374796c653e2e626173655768697465207b2066696c6c3a2077686974653b20666f6e742d66616d696c793a2073657269663b20666f6e742d73697a653a20313670783b207d3c2f746578743e3c7465787420783d2231302220793d223130302220636c6173733d22626173655768697465223e3c2f746578743e3c7465787420783d2231302220793d223230302220636c6173733d22626173655768697465223e3c2f746578743e3c7465787420783d2231302220793d223238302220636c6173733d22626173655768697465223e3c2f746578743e3c7465787420783d2231302220793d223236302220636c6173733d22626173655768697465223ea2646970667358221220e2b4f0e5e71a97c3b4d0c7a719c4911ec77a60afe9ba4e98c81d570fd811c36164736f6c63430008070033",
  "immutableReferences": {},
  "source": "// SPDX-License-Identifier: MIT\n\npragma solidity ^0.8.0;\n\nimport \"./FullERC721.sol\";\n\ncontract HungerVerse is ERC721Enumerable, ReentrancyGuard, Ownable {\n\n\tstruct PlayerInfo {\n        string name;\n        uint256 state;       //0 - burnt, 1 - active\n        uint256 gender;\n        uint256 district;    //1 to 12\n\n        //only for females\n        uint256 offsprings;  // 0 to 8\n\n        uint256 HS;         //hunting skills\n        uint256 IQ;\n        uint256 likes;\n\n        uint256 wins;\n        uint256 burns;\n\t}\n    string[] private gender = [ \"Female\", \"Male\" ];\n    string[] private skills = [ \"Below Average\", \"Average\", \"Above Average\", \"Gifted\" ];\n\t\n    uint256 public _price = 0.05 ether;\n    bool public _paused = true;\n    bool public _matingPaused = true;\n    bool public _reclaimPaused = true;\n\n    mapping (uint256 => PlayerInfo) private _tokenId2Player;\n\n    constructor() ERC721(\"HungerVerse\", \"HUNGER\") Ownable() {\n\t}\n    function generatePlayer(uint256 tokenId) private {\n        PlayerInfo storage player = _tokenId2Player[tokenId];   //by reference\n\n        player.state = 1;\n        player.gender = pluck(tokenId, \"GENDER\") % 2;\n        player.district = 1 + pluck(tokenId, \"DISTRICT\") % 12;\n        if(player.gender == 0) {\n            player.offsprings = pluck(tokenId, \"OFFSPRINGS\") % 9;\n        }\n        player.HS = (player.wins + player.burns + pluck(tokenId, \"HUNTING\")) % 4;\n        player.IQ = (player.wins + player.burns + pluck(tokenId, \"IQSCORE\")) % 4;\n    }\n    function getPlayerInfo(uint256 tokenId) external view returns (uint256,uint256,uint256,uint256,uint256,uint256,uint256,uint256) {\n        PlayerInfo memory player = _tokenId2Player[tokenId];\n        return (player.state, player.gender, player.district, player.HS, player.IQ, player.likes, player.wins, player.burns);\n    }\n    function random(string memory input) private pure returns (uint256) {\n        return uint256(keccak256(abi.encodePacked(input)));\n    }\n    function pluck(uint256 tokenId, string memory keyPrefix) private pure returns (uint256) {\n        return random(string(abi.encodePacked(keyPrefix, Strings.toString(tokenId))));\n    }\n    function tokenURI(uint256 tokenId) override public view returns (string memory) {\n        PlayerInfo memory player = _tokenId2Player[tokenId];\n\n        string[64] memory parts;\n\t\tuint256 counter = 0;\n        parts[counter++] = '<svg xmlns=\"http://www.w3.org/2000/svg\" preserveAspectRatio=\"xMinYMin meet\" viewBox=\"0 0 350 350\">';\n\t\tparts[counter++] = '<style>.baseWhite { fill: white; font-family: serif; font-size: 16px; }';\n\t\tparts[counter++] = '.baseGreen { fill: springgreen; font-family: serif; font-size: 16px; }</style>';\n\t\tparts[counter++] = '<rect width=\"100%\" height=\"100%\" fill=\"black\" />';\n        parts[counter++] = '<text x=\"10\" y=\"60\" class=\"baseGreen\">';\n        parts[counter++] = gender[player.gender];\n        parts[counter++] = '</text><text x=\"10\" y=\"100\" class=\"baseWhite\">';\n        parts[counter++] = \"District:\\t\";\n        parts[counter++] = Strings.toString(player.district);\n        parts[counter++] = '</text><text x=\"10\" y=\"100\" class=\"baseWhite\">';\n        parts[counter++] = \"Name:\\t\";\n        parts[counter++] = bytes(player.name).length > 0 ? player.name : '';\n\n        if(player.gender == 0) {\n            parts[counter++] = '</text><text x=\"10\" y=\"120\" class=\"baseWhite\">';\n            parts[counter++] = \"Offsprings:\\t\";\n            parts[counter++] = Strings.toString(player.offsprings);\n        }\n        parts[counter++] = '</text><text x=\"10\" y=\"180\" class=\"baseWhite\">';\n        parts[counter++] = \"HuntingSkills:\\t\";\n        parts[counter++] = skills[player.HS];\n        parts[counter++] = '</text><text x=\"10\" y=\"200\" class=\"baseWhite\">';\n        parts[counter++] = \"IQ:\\t\";\n        parts[counter++] = skills[player.IQ];\n        parts[counter++] = '</text><text x=\"10\" y=\"220\" class=\"baseWhite\">';\n        parts[counter++] = \"Likes:\\t\";\n        parts[counter++] = Strings.toString(player.likes);\n        parts[counter++] = '</text><text x=\"10\" y=\"260\" class=\"baseWhite\">';\n        parts[counter++] = \"wins:\\t\";\n        parts[counter++] = Strings.toString(player.wins);\n        parts[counter++] = '</text><text x=\"10\" y=\"280\" class=\"baseWhite\">';\n        parts[counter++] = \"burns:\\t\";\n        parts[counter++] = Strings.toString(player.burns);\n\n        parts[counter++] = '</text></svg>';\n\n        string memory output = \"\";\n\t\tfor(uint256 i = 0; i < counter; ++i)\n\t\t{\n\t\t\toutput = string(abi.encodePacked(output, parts[i]));\n\t\t}\n\n        string memory json = Base64.encode(bytes(string(abi.encodePacked('{\"name\": \"Hungerite #', Strings.toString(tokenId), '\", \"description\": \"HungerVerse is a game of survival.\", \"image\": \"data:image/svg+xml;base64,', Base64.encode(bytes(output)), '\"}'))));\n        output = string(abi.encodePacked('data:application/json;base64,', json));\n\n        return output;\n    }\n    function own(uint256 num) external nonReentrant payable {\n        uint256 supply = totalSupply();\n        require(!_paused, \"Sale paused\");\n        require(num > 0 && num < 21, \"You can adopt a maximum of 20 Hungerite\");\n        require(supply + num <= 24000, \"Exceeds maximum supply\");\n        require(msg.value >= _price * num, \"Ether sent is not correct\");\n\n        for(uint256 i = 1; i <= num; i++) {\n            generatePlayer(supply + i);\n            _safeMint(msg.sender, supply + i);\n        }\n    }\n    function reclaim(uint256 num) external payable {\n        uint256 supply = totalSupply();\n        require(!_reclaimPaused, \"reclaim paused\");\n        require(num > 0 && num < 21, \"You can adopt a maximum of 20 Hungerite\");\n        require(supply + num <= 24000, \"Exceeds maximum supply\");\n        require(msg.value >= _price * num, \"Ether sent is not correct\");\n\n        uint256 count = 0;\n        for(uint256 i = 1; i <= 24000; i++) {\n            if(_tokenId2Player[i].state == 1) continue;\n            generatePlayer(i);\n            _safeMint(msg.sender, i);\n            if(++count == num) break;\n        }\n    }\n    function mate(uint256 tokenIdM, uint256 tokenIdF) external {\n        uint256 supply = totalSupply();\n        require(!_matingPaused, \"Mating paused\");\n        require(_isApprovedOrOwner(msg.sender, tokenIdM), \"not authorized\");\n        require(_isApprovedOrOwner(msg.sender, tokenIdF), \"not authorized\");\n        PlayerInfo memory male = _tokenId2Player[tokenIdM];\n        require(male.gender == 1, \"first token should be male\");\n        PlayerInfo storage female = _tokenId2Player[tokenIdF];\n        require(female.gender == 0, \"second token should be female\");\n        require(female.offsprings > 0, \"no offsprings\");\n        require(supply + female.offsprings <= 24000, \"Exceeds maximum supply\");\n\n        uint256 count = 0;\n        for(uint256 i = 1; i <= 24000; i++) {\n            if(_tokenId2Player[i].state == 1) continue;\n            generatePlayer(i);\n            _safeMint(msg.sender, i);\n            if(++count == female.offsprings) break;\n        }\n        female.offsprings = 0;\n    }\n\tfunction like(uint256 tokenId) external {\n\t\tPlayerInfo storage player = _tokenId2Player[tokenId];\n\t\tplayer.likes++;\n\t}\n\tfunction setMatingPause(bool val) external onlyOwner {\n\t\t_matingPaused = val;\n\t}\n\tfunction setReclaimPause(bool val) external onlyOwner {\n\t\t_reclaimPaused = val;\n\t}\n    function burn(uint256 tokenId) external {\n        require(_isApprovedOrOwner(msg.sender, tokenId), \"not authorized\");\n        PlayerInfo storage player = _tokenId2Player[tokenId];\n        player.state = 0;\n        player.burns++;\n        _burn(tokenId);\n    }\n    function setName(uint256 tokenId, string memory val) external {\n        require(_isApprovedOrOwner(msg.sender, tokenId), \"not authorized\");\n        PlayerInfo storage player = _tokenId2Player[tokenId];\n        player.name = val;\n    }\n    function setPrice(uint256 _newPrice) external onlyOwner {\n        _price = _newPrice;\n    }\n    function setPause(bool val) external onlyOwner {\n        _paused = val;\n    }\n    function withdraw() external payable onlyOwner {\n        address t1 = 0x4aF0BB035FfB1CbEFA550530917e151a53034d70;\n        require(payable(t1).send(address(this).balance));\n    }\n}\n",
  "sourcePath": "/home/ec2-user/github/fcc-dapp/src/contracts/HungerVerse.sol",
  "compiler": {
    "name": "solc",
    "version": "0.8.7+commit.e28d00a7.Emscripten.clang"
  },
  "schemaVersion": "3.4.3",
  "updatedAt": "2022-01-04T10:52:40.998Z",
  "devdoc": {
    "kind": "dev",
    "methods": {
      "approve(address,uint256)": {
        "details": "See {IERC721-approve}."
      },
      "balanceOf(address)": {
        "details": "See {IERC721-balanceOf}."
      },
      "getApproved(uint256)": {
        "details": "See {IERC721-getApproved}."
      },
      "isApprovedForAll(address,address)": {
        "details": "See {IERC721-isApprovedForAll}."
      },
      "name()": {
        "details": "See {IERC721Metadata-name}."
      },
      "owner()": {
        "details": "Returns the address of the current owner."
      },
      "ownerOf(uint256)": {
        "details": "See {IERC721-ownerOf}."
      },
      "renounceOwnership()": {
        "details": "Leaves the contract without owner. It will not be possible to call `onlyOwner` functions anymore. Can only be called by the current owner. NOTE: Renouncing ownership will leave the contract without an owner, thereby removing any functionality that is only available to the owner."
      },
      "safeTransferFrom(address,address,uint256)": {
        "details": "See {IERC721-safeTransferFrom}."
      },
      "safeTransferFrom(address,address,uint256,bytes)": {
        "details": "See {IERC721-safeTransferFrom}."
      },
      "setApprovalForAll(address,bool)": {
        "details": "See {IERC721-setApprovalForAll}."
      },
      "supportsInterface(bytes4)": {
        "details": "See {IERC165-supportsInterface}."
      },
      "symbol()": {
        "details": "See {IERC721Metadata-symbol}."
      },
      "tokenByIndex(uint256)": {
        "details": "See {IERC721Enumerable-tokenByIndex}."
      },
      "tokenOfOwnerByIndex(address,uint256)": {
        "details": "See {IERC721Enumerable-tokenOfOwnerByIndex}."
      },
      "tokenURI(uint256)": {
        "details": "See {IERC721Metadata-tokenURI}."
      },
      "totalSupply()": {
        "details": "See {IERC721Enumerable-totalSupply}."
      },
      "transferFrom(address,address,uint256)": {
        "details": "See {IERC721-transferFrom}."
      },
      "transferOwnership(address)": {
        "details": "Transfers ownership of the contract to a new account (`newOwner`). Can only be called by the current owner."
      }
    },
    "version": 1
  },
  "userdoc": {
    "kind": "user",
    "methods": {},
    "version": 1
  }
}