{
  "contractName": "HungerVerse",
  "abi": [
    {
      "inputs": [],
      "stateMutability": "nonpayable",
      "type": "constructor"
    },
    {
      "anonymous": false,
      "inputs": [
        {
          "indexed": true,
          "internalType": "address",
          "name": "owner",
          "type": "address"
        },
        {
          "indexed": true,
          "internalType": "address",
          "name": "approved",
          "type": "address"
        },
        {
          "indexed": true,
          "internalType": "uint256",
          "name": "tokenId",
          "type": "uint256"
        }
      ],
      "name": "Approval",
      "type": "event"
    },
    {
      "anonymous": false,
      "inputs": [
        {
          "indexed": true,
          "internalType": "address",
          "name": "owner",
          "type": "address"
        },
        {
          "indexed": true,
          "internalType": "address",
          "name": "operator",
          "type": "address"
        },
        {
          "indexed": false,
          "internalType": "bool",
          "name": "approved",
          "type": "bool"
        }
      ],
      "name": "ApprovalForAll",
      "type": "event"
    },
    {
      "anonymous": false,
      "inputs": [
        {
          "indexed": true,
          "internalType": "address",
          "name": "previousOwner",
          "type": "address"
        },
        {
          "indexed": true,
          "internalType": "address",
          "name": "newOwner",
          "type": "address"
        }
      ],
      "name": "OwnershipTransferred",
      "type": "event"
    },
    {
      "anonymous": false,
      "inputs": [
        {
          "indexed": true,
          "internalType": "address",
          "name": "from",
          "type": "address"
        },
        {
          "indexed": true,
          "internalType": "address",
          "name": "to",
          "type": "address"
        },
        {
          "indexed": true,
          "internalType": "uint256",
          "name": "tokenId",
          "type": "uint256"
        }
      ],
      "name": "Transfer",
      "type": "event"
    },
    {
      "inputs": [],
      "name": "_matingPaused",
      "outputs": [
        {
          "internalType": "bool",
          "name": "",
          "type": "bool"
        }
      ],
      "stateMutability": "view",
      "type": "function"
    },
    {
      "inputs": [],
      "name": "_paused",
      "outputs": [
        {
          "internalType": "bool",
          "name": "",
          "type": "bool"
        }
      ],
      "stateMutability": "view",
      "type": "function"
    },
    {
      "inputs": [],
      "name": "_price",
      "outputs": [
        {
          "internalType": "uint256",
          "name": "",
          "type": "uint256"
        }
      ],
      "stateMutability": "view",
      "type": "function"
    },
    {
      "inputs": [],
      "name": "_reclaimPaused",
      "outputs": [
        {
          "internalType": "bool",
          "name": "",
          "type": "bool"
        }
      ],
      "stateMutability": "view",
      "type": "function"
    },
    {
      "inputs": [
        {
          "internalType": "address",
          "name": "to",
          "type": "address"
        },
        {
          "internalType": "uint256",
          "name": "tokenId",
          "type": "uint256"
        }
      ],
      "name": "approve",
      "outputs": [],
      "stateMutability": "nonpayable",
      "type": "function"
    },
    {
      "inputs": [
        {
          "internalType": "address",
          "name": "owner",
          "type": "address"
        }
      ],
      "name": "balanceOf",
      "outputs": [
        {
          "internalType": "uint256",
          "name": "",
          "type": "uint256"
        }
      ],
      "stateMutability": "view",
      "type": "function"
    },
    {
      "inputs": [
        {
          "internalType": "uint256",
          "name": "tokenId",
          "type": "uint256"
        }
      ],
      "name": "getApproved",
      "outputs": [
        {
          "internalType": "address",
          "name": "",
          "type": "address"
        }
      ],
      "stateMutability": "view",
      "type": "function"
    },
    {
      "inputs": [],
      "name": "name",
      "outputs": [
        {
          "internalType": "string",
          "name": "",
          "type": "string"
        }
      ],
      "stateMutability": "view",
      "type": "function"
    },
    {
      "inputs": [],
      "name": "owner",
      "outputs": [
        {
          "internalType": "address",
          "name": "",
          "type": "address"
        }
      ],
      "stateMutability": "view",
      "type": "function"
    },
    {
      "inputs": [
        {
          "internalType": "uint256",
          "name": "tokenId",
          "type": "uint256"
        }
      ],
      "name": "ownerOf",
      "outputs": [
        {
          "internalType": "address",
          "name": "",
          "type": "address"
        }
      ],
      "stateMutability": "view",
      "type": "function"
    },
    {
      "inputs": [],
      "name": "renounceOwnership",
      "outputs": [],
      "stateMutability": "nonpayable",
      "type": "function"
    },
    {
      "inputs": [
        {
          "internalType": "address",
          "name": "from",
          "type": "address"
        },
        {
          "internalType": "address",
          "name": "to",
          "type": "address"
        },
        {
          "internalType": "uint256",
          "name": "tokenId",
          "type": "uint256"
        }
      ],
      "name": "safeTransferFrom",
      "outputs": [],
      "stateMutability": "nonpayable",
      "type": "function"
    },
    {
      "inputs": [
        {
          "internalType": "address",
          "name": "from",
          "type": "address"
        },
        {
          "internalType": "address",
          "name": "to",
          "type": "address"
        },
        {
          "internalType": "uint256",
          "name": "tokenId",
          "type": "uint256"
        },
        {
          "internalType": "bytes",
          "name": "_data",
          "type": "bytes"
        }
      ],
      "name": "safeTransferFrom",
      "outputs": [],
      "stateMutability": "nonpayable",
      "type": "function"
    },
    {
      "inputs": [
        {
          "internalType": "address",
          "name": "operator",
          "type": "address"
        },
        {
          "internalType": "bool",
          "name": "approved",
          "type": "bool"
        }
      ],
      "name": "setApprovalForAll",
      "outputs": [],
      "stateMutability": "nonpayable",
      "type": "function"
    },
    {
      "inputs": [
        {
          "internalType": "bytes4",
          "name": "interfaceId",
          "type": "bytes4"
        }
      ],
      "name": "supportsInterface",
      "outputs": [
        {
          "internalType": "bool",
          "name": "",
          "type": "bool"
        }
      ],
      "stateMutability": "view",
      "type": "function"
    },
    {
      "inputs": [],
      "name": "symbol",
      "outputs": [
        {
          "internalType": "string",
          "name": "",
          "type": "string"
        }
      ],
      "stateMutability": "view",
      "type": "function"
    },
    {
      "inputs": [
        {
          "internalType": "uint256",
          "name": "index",
          "type": "uint256"
        }
      ],
      "name": "tokenByIndex",
      "outputs": [
        {
          "internalType": "uint256",
          "name": "",
          "type": "uint256"
        }
      ],
      "stateMutability": "view",
      "type": "function"
    },
    {
      "inputs": [
        {
          "internalType": "address",
          "name": "owner",
          "type": "address"
        },
        {
          "internalType": "uint256",
          "name": "index",
          "type": "uint256"
        }
      ],
      "name": "tokenOfOwnerByIndex",
      "outputs": [
        {
          "internalType": "uint256",
          "name": "",
          "type": "uint256"
        }
      ],
      "stateMutability": "view",
      "type": "function"
    },
    {
      "inputs": [],
      "name": "totalSupply",
      "outputs": [
        {
          "internalType": "uint256",
          "name": "",
          "type": "uint256"
        }
      ],
      "stateMutability": "view",
      "type": "function"
    },
    {
      "inputs": [
        {
          "internalType": "address",
          "name": "from",
          "type": "address"
        },
        {
          "internalType": "address",
          "name": "to",
          "type": "address"
        },
        {
          "internalType": "uint256",
          "name": "tokenId",
          "type": "uint256"
        }
      ],
      "name": "transferFrom",
      "outputs": [],
      "stateMutability": "nonpayable",
      "type": "function"
    },
    {
      "inputs": [
        {
          "internalType": "address",
          "name": "newOwner",
          "type": "address"
        }
      ],
      "name": "transferOwnership",
      "outputs": [],
      "stateMutability": "nonpayable",
      "type": "function"
    },
    {
      "inputs": [
        {
          "internalType": "uint256",
          "name": "tokenId",
          "type": "uint256"
        }
      ],
      "name": "getPlayerInfo",
      "outputs": [
        {
          "internalType": "uint256",
          "name": "",
          "type": "uint256"
        },
        {
          "internalType": "uint256",
          "name": "",
          "type": "uint256"
        },
        {
          "internalType": "uint256",
          "name": "",
          "type": "uint256"
        },
        {
          "internalType": "uint256",
          "name": "",
          "type": "uint256"
        },
        {
          "internalType": "uint256",
          "name": "",
          "type": "uint256"
        },
        {
          "internalType": "uint256",
          "name": "",
          "type": "uint256"
        },
        {
          "internalType": "uint256",
          "name": "",
          "type": "uint256"
        },
        {
          "internalType": "uint256",
          "name": "",
          "type": "uint256"
        }
      ],
      "stateMutability": "view",
      "type": "function"
    },
    {
      "inputs": [
        {
          "internalType": "uint256",
          "name": "tokenId",
          "type": "uint256"
        }
      ],
      "name": "tokenURI",
      "outputs": [
        {
          "internalType": "string",
          "name": "",
          "type": "string"
        }
      ],
      "stateMutability": "view",
      "type": "function"
    },
    {
      "inputs": [
        {
          "internalType": "uint256",
          "name": "num",
          "type": "uint256"
        }
      ],
      "name": "own",
      "outputs": [],
      "stateMutability": "payable",
      "type": "function"
    },
    {
      "inputs": [
        {
          "internalType": "uint256",
          "name": "num",
          "type": "uint256"
        }
      ],
      "name": "reclaim",
      "outputs": [],
      "stateMutability": "payable",
      "type": "function"
    },
    {
      "inputs": [
        {
          "internalType": "uint256",
          "name": "tokenIdM",
          "type": "uint256"
        },
        {
          "internalType": "uint256",
          "name": "tokenIdF",
          "type": "uint256"
        }
      ],
      "name": "mate",
      "outputs": [],
      "stateMutability": "nonpayable",
      "type": "function"
    },
    {
      "inputs": [
        {
          "internalType": "uint256",
          "name": "tokenId",
          "type": "uint256"
        }
      ],
      "name": "like",
      "outputs": [],
      "stateMutability": "nonpayable",
      "type": "function"
    },
    {
      "inputs": [
        {
          "internalType": "bool",
          "name": "val",
          "type": "bool"
        }
      ],
      "name": "setMatingPause",
      "outputs": [],
      "stateMutability": "nonpayable",
      "type": "function"
    },
    {
      "inputs": [
        {
          "internalType": "bool",
          "name": "val",
          "type": "bool"
        }
      ],
      "name": "setReclaimPause",
      "outputs": [],
      "stateMutability": "nonpayable",
      "type": "function"
    },
    {
      "inputs": [
        {
          "internalType": "address",
          "name": "spender",
          "type": "address"
        },
        {
          "internalType": "uint256",
          "name": "tokenId",
          "type": "uint256"
        }
      ],
      "name": "isApprovedOrOwner",
      "outputs": [
        {
          "internalType": "bool",
          "name": "",
          "type": "bool"
        }
      ],
      "stateMutability": "view",
      "type": "function"
    },
    {
      "inputs": [
        {
          "internalType": "address",
          "name": "owner",
          "type": "address"
        },
        {
          "internalType": "address",
          "name": "operator",
          "type": "address"
        }
      ],
      "name": "isApprovedForAll",
      "outputs": [
        {
          "internalType": "bool",
          "name": "",
          "type": "bool"
        }
      ],
      "stateMutability": "view",
      "type": "function"
    },
    {
      "inputs": [
        {
          "internalType": "uint256",
          "name": "tokenId",
          "type": "uint256"
        }
      ],
      "name": "burn",
      "outputs": [],
      "stateMutability": "nonpayable",
      "type": "function"
    },
    {
      "inputs": [
        {
          "internalType": "uint256",
          "name": "tokenId",
          "type": "uint256"
        },
        {
          "internalType": "string",
          "name": "val",
          "type": "string"
        }
      ],
      "name": "setName",
      "outputs": [],
      "stateMutability": "nonpayable",
      "type": "function"
    },
    {
      "inputs": [
        {
          "internalType": "uint256",
          "name": "_newPrice",
          "type": "uint256"
        }
      ],
      "name": "setPrice",
      "outputs": [],
      "stateMutability": "nonpayable",
      "type": "function"
    },
    {
      "inputs": [
        {
          "internalType": "bool",
          "name": "val",
          "type": "bool"
        }
      ],
      "name": "setPause",
      "outputs": [],
      "stateMutability": "nonpayable",
      "type": "function"
    },
    {
      "inputs": [
        {
          "internalType": "address",
          "name": "val",
          "type": "address"
        }
      ],
      "name": "setOtherContract",
      "outputs": [],
      "stateMutability": "nonpayable",
      "type": "function"
    },
    {
      "inputs": [],
      "name": "withdraw",
      "outputs": [],
      "stateMutability": "payable",
      "type": "function"
    }
  ],
  "bytecode": "0x608060405260405180604001604052806040518060400160405280600681526020017f46656d616c65000000000000000000000000000000000000000000000000000081525081526020016040518060400160405280600481526020017f4d616c6500000000000000000000000000000000000000000000000000000000815250815250600b906002620000959291906200039c565b5060405180608001604052806040518060400160405280600d81526020017f42656c6f7720417665726167650000000000000000000000000000000000000081525081526020016040518060400160405280600781526020017f417665726167650000000000000000000000000000000000000000000000000081525081526020016040518060400160405280600d81526020017f41626f766520417665726167650000000000000000000000000000000000000081525081526020016040518060400160405280600681526020017f4769667465640000000000000000000000000000000000000000000000000000815250815250600c9060046200019d92919062000403565b5066b1a2bc2ec50000600d556001600e60006101000a81548160ff0219169083151502179055506001600e60016101000a81548160ff0219169083151502179055506001600e60026101000a81548160ff0219169083151502179055503480156200020757600080fd5b506040518060400160405280600b81526020017f48756e67657256657273650000000000000000000000000000000000000000008152506040518060400160405280600681526020017f48554e474552000000000000000000000000000000000000000000000000000081525081600090805190602001906200028c9291906200046a565b508060019080519060200190620002a59291906200046a565b505050620002c8620002bc620002ce60201b60201c565b620002d660201b60201c565b620005ed565b600033905090565b6000600a60009054906101000a900473ffffffffffffffffffffffffffffffffffffffff16905081600a60006101000a81548173ffffffffffffffffffffffffffffffffffffffff021916908373ffffffffffffffffffffffffffffffffffffffff1602179055508173ffffffffffffffffffffffffffffffffffffffff168173ffffffffffffffffffffffffffffffffffffffff167f8be0079c531659141344cd1fd0a4f28419497f9722a3daafe3b4186f6b6457e060405160405180910390a35050565b828054828255906000526020600020908101928215620003f0579160200282015b82811115620003ef578251829080519060200190620003de9291906200046a565b5091602001919060010190620003bd565b5b509050620003ff9190620004fb565b5090565b82805482825590600052602060002090810192821562000457579160200282015b8281111562000456578251829080519060200190620004459291906200046a565b509160200191906001019062000424565b5b509050620004669190620004fb565b5090565b828054620004789062000588565b90600052602060002090601f0160209004810192826200049c5760008555620004e8565b82601f10620004b757805160ff1916838001178555620004e8565b82800160010185558215620004e8579182015b82811115620004e7578251825591602001919060010190620004ca565b5b509050620004f7919062000523565b5090565b5b808211156200051f576000818162000515919062000542565b50600101620004fc565b5090565b5b808211156200053e57600081600090555060010162000524565b5090565b508054620005509062000588565b6000825580601f1062000564575062000585565b601f01602090049060005260206000209081019062000584919062000523565b5b50565b60006002820490506001821680620005a157607f821691505b60208210811415620005b857620005b7620005be565b5b50919050565b7f4e487b7100000000000000000000000000000000000000000000000000000000600052602260045260246000fd5b61620780620005fd6000396000f3fe60806040526004361061021a5760003560e01c8063715018a611610123578063bedb86fb116100ab578063e86a45931161006f578063e86a4593146107a4578063e985e9c5146107cd578063ea17532e1461080a578063f2fde38b1461084e578063fe55932a146108775761021a565b8063bedb86fb146106c1578063c87b56dd146106ea578063d8eb356a14610727578063db4ec21a14610750578063e82935da1461077b5761021a565b806395d89b41116100f257806395d89b41146105ff5780639c3f52371461062a578063a22cb46514610653578063a912c4361461067c578063b88d4fde146106985761021a565b8063715018a61461056957806384eb1f11146105805780638da5cb5b146105ab57806391b7f5ed146105d65761021a565b80632f745c59116101a657806342966c681161017557806342966c681461044c578063430c2081146104755780634f6ccce7146104b25780636352211e146104ef57806370a082311461052c5761021a565b80632f745c59146103b357806335a28f3e146103f05780633ccfd60b1461041957806342842e0e146104235761021a565b806316c61ccc116101ed57806316c61ccc146102ed57806318160ddd14610318578063235b6ea11461034357806323b872dd1461036e5780632dabbeed146103975761021a565b806301ffc9a71461021f57806306fdde031461025c578063081812fc14610287578063095ea7b3146102c4575b600080fd5b34801561022b57600080fd5b5061024660048036038101906102419190614702565b6108a0565b6040516102539190614e3b565b60405180910390f35b34801561026857600080fd5b5061027161091a565b60405161027e9190614e56565b60405180910390f35b34801561029357600080fd5b506102ae60048036038101906102a9919061475c565b6109ac565b6040516102bb9190614dd4565b60405180910390f35b3480156102d057600080fd5b506102eb60048036038101906102e69190614695565b610a31565b005b3480156102f957600080fd5b50610302610b49565b60405161030f9190614e3b565b60405180910390f35b34801561032457600080fd5b5061032d610b5c565b60405161033a91906151d8565b60405180910390f35b34801561034f57600080fd5b50610358610b69565b60405161036591906151d8565b60405180910390f35b34801561037a57600080fd5b506103956004803603810190610390919061457f565b610b6f565b005b6103b160048036038101906103ac919061475c565b610bcf565b005b3480156103bf57600080fd5b506103da60048036038101906103d59190614695565b610d95565b6040516103e791906151d8565b60405180910390f35b3480156103fc57600080fd5b5061041760048036038101906104129190614512565b610e3a565b005b610421610efa565b005b34801561042f57600080fd5b5061044a6004803603810190610445919061457f565b610fd0565b005b34801561045857600080fd5b50610473600480360381019061046e919061475c565b610ff0565b005b34801561048157600080fd5b5061049c60048036038101906104979190614695565b611038565b6040516104a99190614e3b565b60405180910390f35b3480156104be57600080fd5b506104d960048036038101906104d4919061475c565b61104c565b6040516104e691906151d8565b60405180910390f35b3480156104fb57600080fd5b506105166004803603810190610511919061475c565b6110bd565b6040516105239190614dd4565b60405180910390f35b34801561053857600080fd5b50610553600480360381019061054e9190614512565b61116f565b60405161056091906151d8565b60405180910390f35b34801561057557600080fd5b5061057e611227565b005b34801561058c57600080fd5b506105956112af565b6040516105a29190614e3b565b60405180910390f35b3480156105b757600080fd5b506105c06112c2565b6040516105cd9190614dd4565b60405180910390f35b3480156105e257600080fd5b506105fd60048036038101906105f8919061475c565b6112ec565b005b34801561060b57600080fd5b50610614611372565b6040516106219190614e56565b60405180910390f35b34801561063657600080fd5b50610651600480360381019061064c91906147e5565b611404565b005b34801561065f57600080fd5b5061067a60048036038101906106759190614655565b6117cd565b005b6106966004803603810190610691919061475c565b61194e565b005b3480156106a457600080fd5b506106bf60048036038101906106ba91906145d2565b611ae8565b005b3480156106cd57600080fd5b506106e860048036038101906106e391906146d5565b611b4a565b005b3480156106f657600080fd5b50610711600480360381019061070c919061475c565b611be3565b60405161071e9190614e56565b60405180910390f35b34801561073357600080fd5b5061074e600480360381019061074991906146d5565b612835565b005b34801561075c57600080fd5b506107656128ce565b6040516107729190614e3b565b60405180910390f35b34801561078757600080fd5b506107a2600480360381019061079d919061475c565b6128e1565b005b3480156107b057600080fd5b506107cb60048036038101906107c691906146d5565b612916565b005b3480156107d957600080fd5b506107f460048036038101906107ef919061453f565b6129af565b6040516108019190614e3b565b60405180910390f35b34801561081657600080fd5b50610831600480360381019061082c919061475c565b612a1b565b6040516108459897969594939291906151f3565b60405180910390f35b34801561085a57600080fd5b5061087560048036038101906108709190614512565b612b7c565b005b34801561088357600080fd5b5061089e60048036038101906108999190614789565b612c74565b005b60007f780e9d63000000000000000000000000000000000000000000000000000000007bffffffffffffffffffffffffffffffffffffffffffffffffffffffff1916827bffffffffffffffffffffffffffffffffffffffffffffffffffffffff19161480610913575061091282612cf2565b5b9050919050565b60606000805461092990615506565b80601f016020809104026020016040519081016040528092919081815260200182805461095590615506565b80156109a25780601f10610977576101008083540402835291602001916109a2565b820191906000526020600020905b81548152906001019060200180831161098557829003601f168201915b5050505050905090565b60006109b782612dd4565b6109f6576040517f08c379a00000000000000000000000000000000000000000000000000000000081526004016109ed90615058565b60405180910390fd5b6004600083815260200190815260200160002060009054906101000a900473ffffffffffffffffffffffffffffffffffffffff169050919050565b6000610a3c826110bd565b90508073ffffffffffffffffffffffffffffffffffffffff168373ffffffffffffffffffffffffffffffffffffffff161415610aad576040517f08c379a0000000000000000000000000000000000000000000000000000000008152600401610aa4906150d8565b60405180910390fd5b8073ffffffffffffffffffffffffffffffffffffffff16610acc612e40565b73ffffffffffffffffffffffffffffffffffffffff161480610afb5750610afa81610af5612e40565b6129af565b5b610b3a576040517f08c379a0000000000000000000000000000000000000000000000000000000008152600401610b3190614fb8565b60405180910390fd5b610b448383612e48565b505050565b600e60009054906101000a900460ff1681565b6000600880549050905090565b600d5481565b610b80610b7a612e40565b82612f01565b610bbf576040517f08c379a0000000000000000000000000000000000000000000000000000000008152600401610bb690615138565b60405180910390fd5b610bca838383612fdf565b505050565b6000610bd9610b5c565b9050600e60029054906101000a900460ff1615610c2b576040517f08c379a0000000000000000000000000000000000000000000000000000000008152600401610c22906151b8565b60405180910390fd5b600082118015610c3b5750601582105b610c7a576040517f08c379a0000000000000000000000000000000000000000000000000000000008152600401610c7190614f98565b60405180910390fd5b615dc08282610c89919061533b565b1115610cca576040517f08c379a0000000000000000000000000000000000000000000000000000000008152600401610cc1906150f8565b60405180910390fd5b81600d54610cd891906153c2565b341015610d1a576040517f08c379a0000000000000000000000000000000000000000000000000000000008152600401610d1190615118565b60405180910390fd5b600080600190505b615dc08111610d8f576001600f6000838152602001908152602001600020600101541415610d4f57610d7c565b610d588161323b565b610d623382613455565b8382610d6d90615569565b9250821415610d7b57610d8f565b5b8080610d8790615569565b915050610d22565b50505050565b6000610da08361116f565b8210610de1576040517f08c379a0000000000000000000000000000000000000000000000000000000008152600401610dd890614e98565b60405180910390fd5b600660008473ffffffffffffffffffffffffffffffffffffffff1673ffffffffffffffffffffffffffffffffffffffff168152602001908152602001600020600083815260200190815260200160002054905092915050565b610e42612e40565b73ffffffffffffffffffffffffffffffffffffffff16610e606112c2565b73ffffffffffffffffffffffffffffffffffffffff1614610eb6576040517f08c379a0000000000000000000000000000000000000000000000000000000008152600401610ead90615098565b60405180910390fd5b80600e60036101000a81548173ffffffffffffffffffffffffffffffffffffffff021916908373ffffffffffffffffffffffffffffffffffffffff16021790555050565b610f02612e40565b73ffffffffffffffffffffffffffffffffffffffff16610f206112c2565b73ffffffffffffffffffffffffffffffffffffffff1614610f76576040517f08c379a0000000000000000000000000000000000000000000000000000000008152600401610f6d90615098565b60405180910390fd5b6000734af0bb035ffb1cbefa550530917e151a53034d7090508073ffffffffffffffffffffffffffffffffffffffff166108fc479081150290604051600060405180830381858888f19350505050610fcd57600080fd5b50565b610feb83838360405180602001604052806000815250611ae8565b505050565b6000600f600083815260200190815260200160002090506000816001018190555080600901600081548092919061102690615569565b919050555061103482613473565b5050565b60006110448383612f01565b905092915050565b6000611056610b5c565b8210611097576040517f08c379a000000000000000000000000000000000000000000000000000000000815260040161108e90615158565b60405180910390fd5b600882815481106110ab576110aa61569f565b5b90600052602060002001549050919050565b6000806002600084815260200190815260200160002060009054906101000a900473ffffffffffffffffffffffffffffffffffffffff169050600073ffffffffffffffffffffffffffffffffffffffff168173ffffffffffffffffffffffffffffffffffffffff161415611166576040517f08c379a000000000000000000000000000000000000000000000000000000000815260040161115d90614ff8565b60405180910390fd5b80915050919050565b60008073ffffffffffffffffffffffffffffffffffffffff168273ffffffffffffffffffffffffffffffffffffffff1614156111e0576040517f08c379a00000000000000000000000000000000000000000000000000000000081526004016111d790614fd8565b60405180910390fd5b600360008373ffffffffffffffffffffffffffffffffffffffff1673ffffffffffffffffffffffffffffffffffffffff168152602001908152602001600020549050919050565b61122f612e40565b73ffffffffffffffffffffffffffffffffffffffff1661124d6112c2565b73ffffffffffffffffffffffffffffffffffffffff16146112a3576040517f08c379a000000000000000000000000000000000000000000000000000000000815260040161129a90615098565b60405180910390fd5b6112ad6000613584565b565b600e60019054906101000a900460ff1681565b6000600a60009054906101000a900473ffffffffffffffffffffffffffffffffffffffff16905090565b6112f4612e40565b73ffffffffffffffffffffffffffffffffffffffff166113126112c2565b73ffffffffffffffffffffffffffffffffffffffff1614611368576040517f08c379a000000000000000000000000000000000000000000000000000000000815260040161135f90615098565b60405180910390fd5b80600d8190555050565b60606001805461138190615506565b80601f01602080910402602001604051908101604052809291908181526020018280546113ad90615506565b80156113fa5780601f106113cf576101008083540402835291602001916113fa565b820191906000526020600020905b8154815290600101906020018083116113dd57829003601f168201915b5050505050905090565b600061140e610b5c565b9050600e60019054906101000a900460ff1615611460576040517f08c379a000000000000000000000000000000000000000000000000000000000815260040161145790615178565b60405180910390fd5b61146a3384612f01565b6114a9576040517f08c379a00000000000000000000000000000000000000000000000000000000081526004016114a090615038565b60405180910390fd5b6114b33383612f01565b6114f2576040517f08c379a00000000000000000000000000000000000000000000000000000000081526004016114e990615038565b60405180910390fd5b6000600f60008581526020019081526020016000206040518061014001604052908160008201805461152390615506565b80601f016020809104026020016040519081016040528092919081815260200182805461154f90615506565b801561159c5780601f106115715761010080835404028352916020019161159c565b820191906000526020600020905b81548152906001019060200180831161157f57829003601f168201915b50505050508152602001600182015481526020016002820154815260200160038201548152602001600482015481526020016005820154815260200160068201548152602001600782015481526020016008820154815260200160098201548152505090506001816040015114611648576040517f08c379a000000000000000000000000000000000000000000000000000000000815260040161163f90615198565b60405180910390fd5b6000600f6000858152602001908152602001600020905060008160020154146116a6576040517f08c379a000000000000000000000000000000000000000000000000000000000815260040161169d90614f58565b60405180910390fd5b60008160040154116116ed576040517f08c379a00000000000000000000000000000000000000000000000000000000081526004016116e490615078565b60405180910390fd5b615dc0816004015484611700919061533b565b1115611741576040517f08c379a0000000000000000000000000000000000000000000000000000000008152600401611738906150f8565b60405180910390fd5b600080600190505b615dc081116117ba576001600f6000838152602001908152602001600020600101541415611776576117a7565b61177f8161323b565b6117893382613455565b82600401548261179890615569565b92508214156117a6576117ba565b5b80806117b290615569565b915050611749565b5060008260040181905550505050505050565b6117d5612e40565b73ffffffffffffffffffffffffffffffffffffffff168273ffffffffffffffffffffffffffffffffffffffff161415611843576040517f08c379a000000000000000000000000000000000000000000000000000000000815260040161183a90614f38565b60405180910390fd5b8060056000611850612e40565b73ffffffffffffffffffffffffffffffffffffffff1673ffffffffffffffffffffffffffffffffffffffff16815260200190815260200160002060008473ffffffffffffffffffffffffffffffffffffffff1673ffffffffffffffffffffffffffffffffffffffff16815260200190815260200160002060006101000a81548160ff0219169083151502179055508173ffffffffffffffffffffffffffffffffffffffff166118fd612e40565b73ffffffffffffffffffffffffffffffffffffffff167f17307eab39ab6107e8899845ad3d59bd9653f200f220920489ca2b5937696c31836040516119429190614e3b565b60405180910390a35050565b6000611958610b5c565b9050600e60009054906101000a900460ff16156119aa576040517f08c379a00000000000000000000000000000000000000000000000000000000081526004016119a190614e78565b60405180910390fd5b6000821180156119ba5750601582105b6119f9576040517f08c379a00000000000000000000000000000000000000000000000000000000081526004016119f090614f98565b60405180910390fd5b615dc08282611a08919061533b565b1115611a49576040517f08c379a0000000000000000000000000000000000000000000000000000000008152600401611a40906150f8565b60405180910390fd5b81600d54611a5791906153c2565b341015611a99576040517f08c379a0000000000000000000000000000000000000000000000000000000008152600401611a9090615118565b60405180910390fd5b6000600190505b828111611ae357611abb8183611ab6919061533b565b61323b565b611ad0338284611acb919061533b565b613455565b8080611adb90615569565b915050611aa0565b505050565b611af9611af3612e40565b83612f01565b611b38576040517f08c379a0000000000000000000000000000000000000000000000000000000008152600401611b2f90615138565b60405180910390fd5b611b448484848461364a565b50505050565b611b52612e40565b73ffffffffffffffffffffffffffffffffffffffff16611b706112c2565b73ffffffffffffffffffffffffffffffffffffffff1614611bc6576040517f08c379a0000000000000000000000000000000000000000000000000000000008152600401611bbd90615098565b60405180910390fd5b80600e60006101000a81548160ff02191690831515021790555050565b60606000600f600084815260200190815260200160002060405180610140016040529081600082018054611c1690615506565b80601f0160208091040260200160405190810160405280929190818152602001828054611c4290615506565b8015611c8f5780601f10611c6457610100808354040283529160200191611c8f565b820191906000526020600020905b815481529060010190602001808311611c7257829003601f168201915b5050505050815260200160018201548152602001600282015481526020016003820154815260200160048201548152602001600582015481526020016006820154815260200160078201548152602001600882015481526020016009820154815250509050611cfc6142fe565b60006040518060a001604052806062815260200161602a60629139828280611d2390615569565b935060408110611d3657611d3561569f565b5b6020020181905250604051806080016040528060478152602001615f8560479139828280611d6390615569565b935060408110611d7657611d7561569f565b5b60200201819052506040518060800160405280604e8152602001616156604e9139828280611da390615569565b935060408110611db657611db561569f565b5b6020020181905250604051806060016040528060308152602001615ffa60309139828280611de390615569565b935060408110611df657611df561569f565b5b6020020181905250604051806060016040528060268152602001615f0360269139828280611e2390615569565b935060408110611e3657611e3561569f565b5b6020020181905250600b836040015181548110611e5657611e5561569f565b5b906000526020600020018054611e6b90615506565b80601f0160208091040260200160405190810160405280929190818152602001828054611e9790615506565b8015611ee45780601f10611eb957610100808354040283529160200191611ee4565b820191906000526020600020905b815481529060010190602001808311611ec757829003601f168201915b5050505050828280611ef590615569565b935060408110611f0857611f0761569f565b5b60200201819052506040518060600160405280602d8152602001615ed6602d9139828280611f3590615569565b935060408110611f4857611f4761569f565b5b60200201819052506040518060400160405280600a81526020017f44697374726963743a0900000000000000000000000000000000000000000000815250828280611f9290615569565b935060408110611fa557611fa461569f565b5b6020020181905250611fba83606001516136a6565b828280611fc690615569565b935060408110611fd957611fd861569f565b5b60200201819052506040518060600160405280602e81526020016160fa602e913982828061200690615569565b9350604081106120195761201861569f565b5b60200201819052506040518060400160405280600681526020017f4e616d653a09000000000000000000000000000000000000000000000000000081525082828061206390615569565b9350604081106120765761207561569f565b5b60200201819052506000836000015151116120a057604051806020016040528060008152506120a6565b82600001515b8282806120b290615569565b9350604081106120c5576120c461569f565b5b60200201819052506000836040015114156121ac576040518060600160405280602e8152602001615f57602e91398282806120ff90615569565b9350604081106121125761211161569f565b5b60200201819052506040518060400160405280600c81526020017f4f6666737072696e67733a09000000000000000000000000000000000000000081525082828061215c90615569565b93506040811061216f5761216e61569f565b5b602002018190525061218483608001516136a6565b82828061219090615569565b9350604081106121a3576121a261569f565b5b60200201819052505b6040518060600160405280602e8152602001615f29602e91398282806121d190615569565b9350604081106121e4576121e361569f565b5b60200201819052506040518060400160405280600f81526020017f48756e74696e67536b696c6c733a09000000000000000000000000000000000081525082828061222e90615569565b9350604081106122415761224061569f565b5b6020020181905250600c8360a00151815481106122615761226061569f565b5b90600052602060002001805461227690615506565b80601f01602080910402602001604051908101604052809291908181526020018280546122a290615506565b80156122ef5780601f106122c4576101008083540402835291602001916122ef565b820191906000526020600020905b8154815290600101906020018083116122d257829003601f168201915b505050505082828061230090615569565b9350604081106123135761231261569f565b5b60200201819052506040518060600160405280602e8152602001615fcc602e913982828061234090615569565b9350604081106123535761235261569f565b5b60200201819052506040518060400160405280600481526020017f49513a090000000000000000000000000000000000000000000000000000000081525082828061239d90615569565b9350604081106123b0576123af61569f565b5b6020020181905250600c8360c00151815481106123d0576123cf61569f565b5b9060005260206000200180546123e590615506565b80601f016020809104026020016040519081016040528092919081815260200182805461241190615506565b801561245e5780601f106124335761010080835404028352916020019161245e565b820191906000526020600020905b81548152906001019060200180831161244157829003601f168201915b505050505082828061246f90615569565b9350604081106124825761248161569f565b5b60200201819052506040518060600160405280602e8152602001616128602e91398282806124af90615569565b9350604081106124c2576124c161569f565b5b60200201819052506040518060400160405280600781526020017f4c696b65733a090000000000000000000000000000000000000000000000000081525082828061250c90615569565b93506040811061251f5761251e61569f565b5b60200201819052506125348360e001516136a6565b82828061254090615569565b9350604081106125535761255261569f565b5b60200201819052506040518060600160405280602e815260200161608c602e913982828061258090615569565b9350604081106125935761259261569f565b5b60200201819052506040518060400160405280600681526020017f77696e733a0900000000000000000000000000000000000000000000000000008152508282806125dd90615569565b9350604081106125f0576125ef61569f565b5b60200201819052506126068361010001516136a6565b82828061261290615569565b9350604081106126255761262461569f565b5b60200201819052506040518060600160405280602e81526020016161a4602e913982828061265290615569565b9350604081106126655761266461569f565b5b60200201819052506040518060400160405280600781526020017f6275726e733a09000000000000000000000000000000000000000000000000008152508282806126af90615569565b9350604081106126c2576126c161569f565b5b60200201819052506126d88361012001516136a6565b8282806126e490615569565b9350604081106126f7576126f661569f565b5b60200201819052506040518060400160405280600d81526020017f3c2f746578743e3c2f7376673e0000000000000000000000000000000000000081525082828061274190615569565b9350604081106127545761275361569f565b5b6020020181905250600060405180602001604052806000815250905060005b828110156127c7578184826040811061278f5761278e61569f565b5b60200201516040516020016127a5929190614d49565b6040516020818303038152906040529150806127c090615569565b9050612773565b5060006128046127d6886136a6565b6127df84613807565b6040516020016127f0929190614d8f565b604051602081830303815290604052613807565b9050806040516020016128179190614d6d565b60405160208183030381529060405291508195505050505050919050565b61283d612e40565b73ffffffffffffffffffffffffffffffffffffffff1661285b6112c2565b73ffffffffffffffffffffffffffffffffffffffff16146128b1576040517f08c379a00000000000000000000000000000000000000000000000000000000081526004016128a890615098565b60405180910390fd5b80600e60026101000a81548160ff02191690831515021790555050565b600e60029054906101000a900460ff1681565b6000600f6000838152602001908152602001600020905080600701600081548092919061290d90615569565b91905055505050565b61291e612e40565b73ffffffffffffffffffffffffffffffffffffffff1661293c6112c2565b73ffffffffffffffffffffffffffffffffffffffff1614612992576040517f08c379a000000000000000000000000000000000000000000000000000000000815260040161298990615098565b60405180910390fd5b80600e60016101000a81548160ff02191690831515021790555050565b6000600e60039054906101000a900473ffffffffffffffffffffffffffffffffffffffff1673ffffffffffffffffffffffffffffffffffffffff168273ffffffffffffffffffffffffffffffffffffffff161480612a135750612a12838361399f565b5b905092915050565b6000806000806000806000806000600f60008b815260200190815260200160002060405180610140016040529081600082018054612a5890615506565b80601f0160208091040260200160405190810160405280929190818152602001828054612a8490615506565b8015612ad15780601f10612aa657610100808354040283529160200191612ad1565b820191906000526020600020905b815481529060010190602001808311612ab457829003601f168201915b50505050508152602001600182015481526020016002820154815260200160038201548152602001600482015481526020016005820154815260200160068201548152602001600782015481526020016008820154815260200160098201548152505090508060200151816040015182606001518360a001518460c001518560e001518661010001518761012001519850985098509850985098509850985050919395975091939597565b612b84612e40565b73ffffffffffffffffffffffffffffffffffffffff16612ba26112c2565b73ffffffffffffffffffffffffffffffffffffffff1614612bf8576040517f08c379a0000000000000000000000000000000000000000000000000000000008152600401612bef90615098565b60405180910390fd5b600073ffffffffffffffffffffffffffffffffffffffff168173ffffffffffffffffffffffffffffffffffffffff161415612c68576040517f08c379a0000000000000000000000000000000000000000000000000000000008152600401612c5f90614ed8565b60405180910390fd5b612c7181613584565b50565b612c7e3383612f01565b612cbd576040517f08c379a0000000000000000000000000000000000000000000000000000000008152600401612cb490615038565b60405180910390fd5b6000600f6000848152602001908152602001600020905081816000019080519060200190612cec929190614326565b50505050565b60007f80ac58cd000000000000000000000000000000000000000000000000000000007bffffffffffffffffffffffffffffffffffffffffffffffffffffffff1916827bffffffffffffffffffffffffffffffffffffffffffffffffffffffff19161480612dbd57507f5b5e139f000000000000000000000000000000000000000000000000000000007bffffffffffffffffffffffffffffffffffffffffffffffffffffffff1916827bffffffffffffffffffffffffffffffffffffffffffffffffffffffff1916145b80612dcd5750612dcc82613a33565b5b9050919050565b60008073ffffffffffffffffffffffffffffffffffffffff166002600084815260200190815260200160002060009054906101000a900473ffffffffffffffffffffffffffffffffffffffff1673ffffffffffffffffffffffffffffffffffffffff1614159050919050565b600033905090565b816004600083815260200190815260200160002060006101000a81548173ffffffffffffffffffffffffffffffffffffffff021916908373ffffffffffffffffffffffffffffffffffffffff160217905550808273ffffffffffffffffffffffffffffffffffffffff16612ebb836110bd565b73ffffffffffffffffffffffffffffffffffffffff167f8c5be1e5ebec7d5bd14f71427d1e84f3dd0314c0f7b2291e5b200ac8c7c3b92560405160405180910390a45050565b6000612f0c82612dd4565b612f4b576040517f08c379a0000000000000000000000000000000000000000000000000000000008152600401612f4290614f78565b60405180910390fd5b6000612f56836110bd565b90508073ffffffffffffffffffffffffffffffffffffffff168473ffffffffffffffffffffffffffffffffffffffff161480612fc557508373ffffffffffffffffffffffffffffffffffffffff16612fad846109ac565b73ffffffffffffffffffffffffffffffffffffffff16145b80612fd65750612fd581856129af565b5b91505092915050565b8273ffffffffffffffffffffffffffffffffffffffff16612fff826110bd565b73ffffffffffffffffffffffffffffffffffffffff1614613055576040517f08c379a000000000000000000000000000000000000000000000000000000000815260040161304c906150b8565b60405180910390fd5b600073ffffffffffffffffffffffffffffffffffffffff168273ffffffffffffffffffffffffffffffffffffffff1614156130c5576040517f08c379a00000000000000000000000000000000000000000000000000000000081526004016130bc90614f18565b60405180910390fd5b6130d0838383613a9d565b6130db600082612e48565b6001600360008573ffffffffffffffffffffffffffffffffffffffff1673ffffffffffffffffffffffffffffffffffffffff168152602001908152602001600020600082825461312b919061541c565b925050819055506001600360008473ffffffffffffffffffffffffffffffffffffffff1673ffffffffffffffffffffffffffffffffffffffff1681526020019081526020016000206000828254613182919061533b565b92505081905550816002600083815260200190815260200160002060006101000a81548173ffffffffffffffffffffffffffffffffffffffff021916908373ffffffffffffffffffffffffffffffffffffffff160217905550808273ffffffffffffffffffffffffffffffffffffffff168473ffffffffffffffffffffffffffffffffffffffff167fddf252ad1be2c89b69c2b068fc378daa952ba7f163c4a11628f55a4df523b3ef60405160405180910390a4505050565b6000600f6000838152602001908152602001600020905060018160010181905550600261329d836040518060400160405280600681526020017f47454e4445520000000000000000000000000000000000000000000000000000815250613bb1565b6132a791906155b2565b8160020181905550600c6132f0836040518060400160405280600881526020017f4449535452494354000000000000000000000000000000000000000000000000815250613bb1565b6132fa91906155b2565b6001613306919061533b565b816003018190555060008160020154141561336f57600961335c836040518060400160405280600a81526020017f4f4646535052494e475300000000000000000000000000000000000000000000815250613bb1565b61336691906155b2565b81600401819055505b60046133b0836040518060400160405280600781526020017f48554e54494e4700000000000000000000000000000000000000000000000000815250613bb1565b826009015483600801546133c4919061533b565b6133ce919061533b565b6133d891906155b2565b81600501819055506004613421836040518060400160405280600781526020017f495153434f524500000000000000000000000000000000000000000000000000815250613bb1565b82600901548360080154613435919061533b565b61343f919061533b565b61344991906155b2565b81600601819055505050565b61346f828260405180602001604052806000815250613bed565b5050565b600061347e826110bd565b905061348c81600084613a9d565b613497600083612e48565b6001600360008373ffffffffffffffffffffffffffffffffffffffff1673ffffffffffffffffffffffffffffffffffffffff16815260200190815260200160002060008282546134e7919061541c565b925050819055506002600083815260200190815260200160002060006101000a81549073ffffffffffffffffffffffffffffffffffffffff021916905581600073ffffffffffffffffffffffffffffffffffffffff168273ffffffffffffffffffffffffffffffffffffffff167fddf252ad1be2c89b69c2b068fc378daa952ba7f163c4a11628f55a4df523b3ef60405160405180910390a45050565b6000600a60009054906101000a900473ffffffffffffffffffffffffffffffffffffffff16905081600a60006101000a81548173ffffffffffffffffffffffffffffffffffffffff021916908373ffffffffffffffffffffffffffffffffffffffff1602179055508173ffffffffffffffffffffffffffffffffffffffff168173ffffffffffffffffffffffffffffffffffffffff167f8be0079c531659141344cd1fd0a4f28419497f9722a3daafe3b4186f6b6457e060405160405180910390a35050565b613655848484612fdf565b61366184848484613c48565b6136a0576040517f08c379a000000000000000000000000000000000000000000000000000000000815260040161369790614eb8565b60405180910390fd5b50505050565b606060008214156136ee576040518060400160405280600181526020017f30000000000000000000000000000000000000000000000000000000000000008152509050613802565b600082905060005b6000821461372057808061370990615569565b915050600a826137199190615391565b91506136f6565b60008167ffffffffffffffff81111561373c5761373b6156ce565b5b6040519080825280601f01601f19166020018201604052801561376e5781602001600182028036833780820191505090505b5090505b600085146137fb57600182613787919061541c565b9150600a8561379691906155b2565b60306137a2919061533b565b60f81b8183815181106137b8576137b761569f565b5b60200101907effffffffffffffffffffffffffffffffffffffffffffffffffffffffffffff1916908160001a905350600a856137f49190615391565b9450613772565b8093505050505b919050565b60606000825190506000811415613830576040518060200160405280600081525091505061399a565b60006003600283613841919061533b565b61384b9190615391565b600461385791906153c2565b90506000602082613868919061533b565b67ffffffffffffffff811115613881576138806156ce565b5b6040519080825280601f01601f1916602001820160405280156138b35781602001600182028036833780820191505090505b50905060006040518060600160405280604081526020016160ba604091399050600181016020830160005b868110156139575760038101905062ffffff818a015116603f8160121c168401518060081b905060ff603f83600c1c1686015116810190508060081b905060ff603f8360061c1686015116810190508060081b905060ff603f831686015116810190508060e01b905080845260048401935050506138de565b50600386066001811461397157600281146139815761398c565b613d3d60f01b600283035261398c565b603d60f81b60018303525b508484525050819450505050505b919050565b6000600560008473ffffffffffffffffffffffffffffffffffffffff1673ffffffffffffffffffffffffffffffffffffffff16815260200190815260200160002060008373ffffffffffffffffffffffffffffffffffffffff1673ffffffffffffffffffffffffffffffffffffffff16815260200190815260200160002060009054906101000a900460ff16905092915050565b60007f01ffc9a7000000000000000000000000000000000000000000000000000000007bffffffffffffffffffffffffffffffffffffffffffffffffffffffff1916827bffffffffffffffffffffffffffffffffffffffffffffffffffffffff1916149050919050565b613aa8838383613ddf565b600073ffffffffffffffffffffffffffffffffffffffff168373ffffffffffffffffffffffffffffffffffffffff161415613aeb57613ae681613de4565b613b2a565b8173ffffffffffffffffffffffffffffffffffffffff168373ffffffffffffffffffffffffffffffffffffffff1614613b2957613b288382613e2d565b5b5b600073ffffffffffffffffffffffffffffffffffffffff168273ffffffffffffffffffffffffffffffffffffffff161415613b6d57613b6881613f9a565b613bac565b8273ffffffffffffffffffffffffffffffffffffffff168273ffffffffffffffffffffffffffffffffffffffff1614613bab57613baa828261406b565b5b5b505050565b6000613be582613bc0856136a6565b604051602001613bd1929190614d49565b6040516020818303038152906040526140ea565b905092915050565b613bf7838361411d565b613c046000848484613c48565b613c43576040517f08c379a0000000000000000000000000000000000000000000000000000000008152600401613c3a90614eb8565b60405180910390fd5b505050565b6000613c698473ffffffffffffffffffffffffffffffffffffffff166142eb565b15613dd2578373ffffffffffffffffffffffffffffffffffffffff1663150b7a02613c92612e40565b8786866040518563ffffffff1660e01b8152600401613cb49493929190614def565b602060405180830381600087803b158015613cce57600080fd5b505af1925050508015613cff57506040513d601f19601f82011682018060405250810190613cfc919061472f565b60015b613d82573d8060008114613d2f576040519150601f19603f3d011682016040523d82523d6000602084013e613d34565b606091505b50600081511415613d7a576040517f08c379a0000000000000000000000000000000000000000000000000000000008152600401613d7190614eb8565b60405180910390fd5b805181602001fd5b63150b7a0260e01b7bffffffffffffffffffffffffffffffffffffffffffffffffffffffff1916817bffffffffffffffffffffffffffffffffffffffffffffffffffffffff191614915050613dd7565b600190505b949350505050565b505050565b6008805490506009600083815260200190815260200160002081905550600881908060018154018082558091505060019003906000526020600020016000909190919091505550565b60006001613e3a8461116f565b613e44919061541c565b9050600060076000848152602001908152602001600020549050818114613f29576000600660008673ffffffffffffffffffffffffffffffffffffffff1673ffffffffffffffffffffffffffffffffffffffff168152602001908152602001600020600084815260200190815260200160002054905080600660008773ffffffffffffffffffffffffffffffffffffffff1673ffffffffffffffffffffffffffffffffffffffff168152602001908152602001600020600084815260200190815260200160002081905550816007600083815260200190815260200160002081905550505b6007600084815260200190815260200160002060009055600660008573ffffffffffffffffffffffffffffffffffffffff1673ffffffffffffffffffffffffffffffffffffffff16815260200190815260200160002060008381526020019081526020016000206000905550505050565b60006001600880549050613fae919061541c565b9050600060096000848152602001908152602001600020549050600060088381548110613fde57613fdd61569f565b5b90600052602060002001549050806008838154811061400057613fff61569f565b5b90600052602060002001819055508160096000838152602001908152602001600020819055506009600085815260200190815260200160002060009055600880548061404f5761404e615670565b5b6001900381819060005260206000200160009055905550505050565b60006140768361116f565b905081600660008573ffffffffffffffffffffffffffffffffffffffff1673ffffffffffffffffffffffffffffffffffffffff168152602001908152602001600020600083815260200190815260200160002081905550806007600084815260200190815260200160002081905550505050565b6000816040516020016140fd9190614d32565b6040516020818303038152906040528051906020012060001c9050919050565b600073ffffffffffffffffffffffffffffffffffffffff168273ffffffffffffffffffffffffffffffffffffffff16141561418d576040517f08c379a000000000000000000000000000000000000000000000000000000000815260040161418490615018565b60405180910390fd5b61419681612dd4565b156141d6576040517f08c379a00000000000000000000000000000000000000000000000000000000081526004016141cd90614ef8565b60405180910390fd5b6141e260008383613a9d565b6001600360008473ffffffffffffffffffffffffffffffffffffffff1673ffffffffffffffffffffffffffffffffffffffff1681526020019081526020016000206000828254614232919061533b565b92505081905550816002600083815260200190815260200160002060006101000a81548173ffffffffffffffffffffffffffffffffffffffff021916908373ffffffffffffffffffffffffffffffffffffffff160217905550808273ffffffffffffffffffffffffffffffffffffffff16600073ffffffffffffffffffffffffffffffffffffffff167fddf252ad1be2c89b69c2b068fc378daa952ba7f163c4a11628f55a4df523b3ef60405160405180910390a45050565b600080823b905060008111915050919050565b6040518061080001604052806040905b606081526020019060019003908161430e5790505090565b82805461433290615506565b90600052602060002090601f016020900481019282614354576000855561439b565b82601f1061436d57805160ff191683800117855561439b565b8280016001018555821561439b579182015b8281111561439a57825182559160200191906001019061437f565b5b5090506143a891906143ac565b5090565b5b808211156143c55760008160009055506001016143ad565b5090565b60006143dc6143d784615296565b615271565b9050828152602081018484840111156143f8576143f7615702565b5b6144038482856154c4565b509392505050565b600061441e614419846152c7565b615271565b90508281526020810184848401111561443a57614439615702565b5b6144458482856154c4565b509392505050565b60008135905061445c81615e79565b92915050565b60008135905061447181615e90565b92915050565b60008135905061448681615ea7565b92915050565b60008151905061449b81615ea7565b92915050565b600082601f8301126144b6576144b56156fd565b5b81356144c68482602086016143c9565b91505092915050565b600082601f8301126144e4576144e36156fd565b5b81356144f484826020860161440b565b91505092915050565b60008135905061450c81615ebe565b92915050565b6000602082840312156145285761452761570c565b5b60006145368482850161444d565b91505092915050565b600080604083850312156145565761455561570c565b5b60006145648582860161444d565b92505060206145758582860161444d565b9150509250929050565b6000806000606084860312156145985761459761570c565b5b60006145a68682870161444d565b93505060206145b78682870161444d565b92505060406145c8868287016144fd565b9150509250925092565b600080600080608085870312156145ec576145eb61570c565b5b60006145fa8782880161444d565b945050602061460b8782880161444d565b935050604061461c878288016144fd565b925050606085013567ffffffffffffffff81111561463d5761463c615707565b5b614649878288016144a1565b91505092959194509250565b6000806040838503121561466c5761466b61570c565b5b600061467a8582860161444d565b925050602061468b85828601614462565b9150509250929050565b600080604083850312156146ac576146ab61570c565b5b60006146ba8582860161444d565b92505060206146cb858286016144fd565b9150509250929050565b6000602082840312156146eb576146ea61570c565b5b60006146f984828501614462565b91505092915050565b6000602082840312156147185761471761570c565b5b600061472684828501614477565b91505092915050565b6000602082840312156147455761474461570c565b5b60006147538482850161448c565b91505092915050565b6000602082840312156147725761477161570c565b5b6000614780848285016144fd565b91505092915050565b600080604083850312156147a05761479f61570c565b5b60006147ae858286016144fd565b925050602083013567ffffffffffffffff8111156147cf576147ce615707565b5b6147db858286016144cf565b9150509250929050565b600080604083850312156147fc576147fb61570c565b5b600061480a858286016144fd565b925050602061481b858286016144fd565b9150509250929050565b61482e81615450565b82525050565b61483d81615462565b82525050565b600061484e826152f8565b614858818561530e565b93506148688185602086016154d3565b61487181615711565b840191505092915050565b600061488782615303565b614891818561531f565b93506148a18185602086016154d3565b6148aa81615711565b840191505092915050565b60006148c082615303565b6148ca8185615330565b93506148da8185602086016154d3565b80840191505092915050565b60006148f3600b8361531f565b91506148fe82615722565b602082019050919050565b6000614916602b8361531f565b91506149218261574b565b604082019050919050565b600061493960328361531f565b91506149448261579a565b604082019050919050565b600061495c60268361531f565b9150614967826157e9565b604082019050919050565b600061497f601c8361531f565b915061498a82615838565b602082019050919050565b60006149a260248361531f565b91506149ad82615861565b604082019050919050565b60006149c560198361531f565b91506149d0826158b0565b602082019050919050565b60006149e8601d8361531f565b91506149f3826158d9565b602082019050919050565b6000614a0b602c8361531f565b9150614a1682615902565b604082019050919050565b6000614a2e60278361531f565b9150614a3982615951565b604082019050919050565b6000614a5160388361531f565b9150614a5c826159a0565b604082019050919050565b6000614a74602a8361531f565b9150614a7f826159ef565b604082019050919050565b6000614a9760298361531f565b9150614aa282615a3e565b604082019050919050565b6000614aba600283615330565b9150614ac582615a8d565b600282019050919050565b6000614add60208361531f565b9150614ae882615ab6565b602082019050919050565b6000614b00600e8361531f565b9150614b0b82615adf565b602082019050919050565b6000614b23602c8361531f565b9150614b2e82615b08565b604082019050919050565b6000614b46600d8361531f565b9150614b5182615b57565b602082019050919050565b6000614b6960208361531f565b9150614b7482615b80565b602082019050919050565b6000614b8c60298361531f565b9150614b9782615ba9565b604082019050919050565b6000614baf60218361531f565b9150614bba82615bf8565b604082019050919050565b6000614bd260168361531f565b9150614bdd82615c47565b602082019050919050565b6000614bf560198361531f565b9150614c0082615c70565b602082019050919050565b6000614c18601d83615330565b9150614c2382615c99565b601d82019050919050565b6000614c3b601583615330565b9150614c4682615cc2565b601582019050919050565b6000614c5e60318361531f565b9150614c6982615ceb565b604082019050919050565b6000614c81602c8361531f565b9150614c8c82615d3a565b604082019050919050565b6000614ca4600d8361531f565b9150614caf82615d89565b602082019050919050565b6000614cc7601a8361531f565b9150614cd282615db2565b602082019050919050565b6000614cea605c83615330565b9150614cf582615ddb565b605c82019050919050565b6000614d0d600e8361531f565b9150614d1882615e50565b602082019050919050565b614d2c816154ba565b82525050565b6000614d3e82846148b5565b915081905092915050565b6000614d5582856148b5565b9150614d6182846148b5565b91508190509392505050565b6000614d7882614c0b565b9150614d8482846148b5565b915081905092915050565b6000614d9a82614c2e565b9150614da682856148b5565b9150614db182614cdd565b9150614dbd82846148b5565b9150614dc882614aad565b91508190509392505050565b6000602082019050614de96000830184614825565b92915050565b6000608082019050614e046000830187614825565b614e116020830186614825565b614e1e6040830185614d23565b8181036060830152614e308184614843565b905095945050505050565b6000602082019050614e506000830184614834565b92915050565b60006020820190508181036000830152614e70818461487c565b905092915050565b60006020820190508181036000830152614e91816148e6565b9050919050565b60006020820190508181036000830152614eb181614909565b9050919050565b60006020820190508181036000830152614ed18161492c565b9050919050565b60006020820190508181036000830152614ef18161494f565b9050919050565b60006020820190508181036000830152614f1181614972565b9050919050565b60006020820190508181036000830152614f3181614995565b9050919050565b60006020820190508181036000830152614f51816149b8565b9050919050565b60006020820190508181036000830152614f71816149db565b9050919050565b60006020820190508181036000830152614f91816149fe565b9050919050565b60006020820190508181036000830152614fb181614a21565b9050919050565b60006020820190508181036000830152614fd181614a44565b9050919050565b60006020820190508181036000830152614ff181614a67565b9050919050565b6000602082019050818103600083015261501181614a8a565b9050919050565b6000602082019050818103600083015261503181614ad0565b9050919050565b6000602082019050818103600083015261505181614af3565b9050919050565b6000602082019050818103600083015261507181614b16565b9050919050565b6000602082019050818103600083015261509181614b39565b9050919050565b600060208201905081810360008301526150b181614b5c565b9050919050565b600060208201905081810360008301526150d181614b7f565b9050919050565b600060208201905081810360008301526150f181614ba2565b9050919050565b6000602082019050818103600083015261511181614bc5565b9050919050565b6000602082019050818103600083015261513181614be8565b9050919050565b6000602082019050818103600083015261515181614c51565b9050919050565b6000602082019050818103600083015261517181614c74565b9050919050565b6000602082019050818103600083015261519181614c97565b9050919050565b600060208201905081810360008301526151b181614cba565b9050919050565b600060208201905081810360008301526151d181614d00565b9050919050565b60006020820190506151ed6000830184614d23565b92915050565b600061010082019050615209600083018b614d23565b615216602083018a614d23565b6152236040830189614d23565b6152306060830188614d23565b61523d6080830187614d23565b61524a60a0830186614d23565b61525760c0830185614d23565b61526460e0830184614d23565b9998505050505050505050565b600061527b61528c565b90506152878282615538565b919050565b6000604051905090565b600067ffffffffffffffff8211156152b1576152b06156ce565b5b6152ba82615711565b9050602081019050919050565b600067ffffffffffffffff8211156152e2576152e16156ce565b5b6152eb82615711565b9050602081019050919050565b600081519050919050565b600081519050919050565b600082825260208201905092915050565b600082825260208201905092915050565b600081905092915050565b6000615346826154ba565b9150615351836154ba565b9250827fffffffffffffffffffffffffffffffffffffffffffffffffffffffffffffffff03821115615386576153856155e3565b5b828201905092915050565b600061539c826154ba565b91506153a7836154ba565b9250826153b7576153b6615612565b5b828204905092915050565b60006153cd826154ba565b91506153d8836154ba565b9250817fffffffffffffffffffffffffffffffffffffffffffffffffffffffffffffffff0483118215151615615411576154106155e3565b5b828202905092915050565b6000615427826154ba565b9150615432836154ba565b925082821015615445576154446155e3565b5b828203905092915050565b600061545b8261549a565b9050919050565b60008115159050919050565b60007fffffffff0000000000000000000000000000000000000000000000000000000082169050919050565b600073ffffffffffffffffffffffffffffffffffffffff82169050919050565b6000819050919050565b82818337600083830152505050565b60005b838110156154f15780820151818401526020810190506154d6565b83811115615500576000848401525b50505050565b6000600282049050600182168061551e57607f821691505b6020821081141561553257615531615641565b5b50919050565b61554182615711565b810181811067ffffffffffffffff821117156155605761555f6156ce565b5b80604052505050565b6000615574826154ba565b91507fffffffffffffffffffffffffffffffffffffffffffffffffffffffffffffffff8214156155a7576155a66155e3565b5b600182019050919050565b60006155bd826154ba565b91506155c8836154ba565b9250826155d8576155d7615612565b5b828206905092915050565b7f4e487b7100000000000000000000000000000000000000000000000000000000600052601160045260246000fd5b7f4e487b7100000000000000000000000000000000000000000000000000000000600052601260045260246000fd5b7f4e487b7100000000000000000000000000000000000000000000000000000000600052602260045260246000fd5b7f4e487b7100000000000000000000000000000000000000000000000000000000600052603160045260246000fd5b7f4e487b7100000000000000000000000000000000000000000000000000000000600052603260045260246000fd5b7f4e487b7100000000000000000000000000000000000000000000000000000000600052604160045260246000fd5b600080fd5b600080fd5b600080fd5b600080fd5b6000601f19601f8301169050919050565b7f53616c6520706175736564000000000000000000000000000000000000000000600082015250565b7f455243373231456e756d657261626c653a206f776e657220696e646578206f7560008201527f74206f6620626f756e6473000000000000000000000000000000000000000000602082015250565b7f4552433732313a207472616e7366657220746f206e6f6e20455243373231526560008201527f63656976657220696d706c656d656e7465720000000000000000000000000000602082015250565b7f4f776e61626c653a206e6577206f776e657220697320746865207a65726f206160008201527f6464726573730000000000000000000000000000000000000000000000000000602082015250565b7f4552433732313a20746f6b656e20616c7265616479206d696e74656400000000600082015250565b7f4552433732313a207472616e7366657220746f20746865207a65726f2061646460008201527f7265737300000000000000000000000000000000000000000000000000000000602082015250565b7f4552433732313a20617070726f766520746f2063616c6c657200000000000000600082015250565b7f7365636f6e6420746f6b656e2073686f756c642062652066656d616c65000000600082015250565b7f4552433732313a206f70657261746f7220717565727920666f72206e6f6e657860008201527f697374656e7420746f6b656e0000000000000000000000000000000000000000602082015250565b7f596f752063616e2061646f70742061206d6178696d756d206f6620323020487560008201527f6e67657269746500000000000000000000000000000000000000000000000000602082015250565b7f4552433732313a20617070726f76652063616c6c6572206973206e6f74206f7760008201527f6e6572206e6f7220617070726f76656420666f7220616c6c0000000000000000602082015250565b7f4552433732313a2062616c616e636520717565727920666f7220746865207a6560008201527f726f206164647265737300000000000000000000000000000000000000000000602082015250565b7f4552433732313a206f776e657220717565727920666f72206e6f6e657869737460008201527f656e7420746f6b656e0000000000000000000000000000000000000000000000602082015250565b7f227d000000000000000000000000000000000000000000000000000000000000600082015250565b7f4552433732313a206d696e7420746f20746865207a65726f2061646472657373600082015250565b7f6e6f7420617574686f72697a6564000000000000000000000000000000000000600082015250565b7f4552433732313a20617070726f76656420717565727920666f72206e6f6e657860008201527f697374656e7420746f6b656e0000000000000000000000000000000000000000602082015250565b7f6e6f206f6666737072696e677300000000000000000000000000000000000000600082015250565b7f4f776e61626c653a2063616c6c6572206973206e6f7420746865206f776e6572600082015250565b7f4552433732313a207472616e73666572206f6620746f6b656e2074686174206960008201527f73206e6f74206f776e0000000000000000000000000000000000000000000000602082015250565b7f4552433732313a20617070726f76616c20746f2063757272656e74206f776e6560008201527f7200000000000000000000000000000000000000000000000000000000000000602082015250565b7f45786365656473206d6178696d756d20737570706c7900000000000000000000600082015250565b7f45746865722073656e74206973206e6f7420636f727265637400000000000000600082015250565b7f646174613a6170706c69636174696f6e2f6a736f6e3b6261736536342c000000600082015250565b7f7b226e616d65223a202248756e67657269746520230000000000000000000000600082015250565b7f4552433732313a207472616e736665722063616c6c6572206973206e6f74206f60008201527f776e6572206e6f7220617070726f766564000000000000000000000000000000602082015250565b7f455243373231456e756d657261626c653a20676c6f62616c20696e646578206f60008201527f7574206f6620626f756e64730000000000000000000000000000000000000000602082015250565b7f4d6174696e672070617573656400000000000000000000000000000000000000600082015250565b7f666972737420746f6b656e2073686f756c64206265206d616c65000000000000600082015250565b7f222c20226465736372697074696f6e223a202248756e6765725665727365206960008201527f7320612067616d65206f6620737572766976616c2e222c2022696d616765223a60208201527f2022646174613a696d6167652f7376672b786d6c3b6261736536342c00000000604082015250565b7f7265636c61696d20706175736564000000000000000000000000000000000000600082015250565b615e8281615450565b8114615e8d57600080fd5b50565b615e9981615462565b8114615ea457600080fd5b50565b615eb08161546e565b8114615ebb57600080fd5b50565b615ec7816154ba565b8114615ed257600080fd5b5056fe3c2f746578743e3c7465787420783d2231302220793d2238302220636c6173733d22626173655768697465223e3c7465787420783d2231302220793d2236302220636c6173733d2262617365477265656e223e3c2f746578743e3c7465787420783d2231302220793d223136302220636c6173733d22626173655768697465223e3c2f746578743e3c7465787420783d2231302220793d223132302220636c6173733d22626173655768697465223e3c7374796c653e2e626173655768697465207b2066696c6c3a2077686974653b20666f6e742d66616d696c793a2073657269663b20666f6e742d73697a653a20323070783b207d3c2f746578743e3c7465787420783d2231302220793d223138302220636c6173733d22626173655768697465223e3c726563742077696474683d223130302522206865696768743d2231303025222066696c6c3d22626c61636b22202f3e3c73766720786d6c6e733d22687474703a2f2f7777772e77332e6f72672f323030302f73766722207072657365727665417370656374526174696f3d22784d696e594d696e206d656574222076696577426f783d223020302033353020333530223e3c2f746578743e3c7465787420783d2231302220793d223234302220636c6173733d22626173655768697465223e4142434445464748494a4b4c4d4e4f505152535455565758595a6162636465666768696a6b6c6d6e6f707172737475767778797a303132333435363738392b2f3c2f746578743e3c7465787420783d2231302220793d223130302220636c6173733d22626173655768697465223e3c2f746578743e3c7465787420783d2231302220793d223230302220636c6173733d22626173655768697465223e2e62617365477265656e207b2066696c6c3a20737072696e67677265656e3b20666f6e742d66616d696c793a2073657269663b20666f6e742d73697a653a20323070783b207d3c2f7374796c653e3c2f746578743e3c7465787420783d2231302220793d223236302220636c6173733d22626173655768697465223ea2646970667358221220971d0f9d8a7b5eed7c158c16e002e6475daedd13e74592041405423b9c2d0ca464736f6c63430008070033",
  "immutableReferences": {},
  "source": "// SPDX-License-Identifier: MIT\n\npragma solidity ^0.8.0;\n\nimport \"./FullERC721.sol\";\n\ncontract HungerVerse is ERC721Enumerable, Ownable {\n\n\tstruct PlayerInfo {\n        string name;\n        uint256 state;       //0 - burnt, 1 - active\n        uint256 gender;\n        uint256 district;    //1 to 12\n\n        //only for females\n        uint256 offsprings;  // 0 to 8\n\n        uint256 HS;         //hunting skills\n        uint256 IQ;\n        uint256 likes;\n\n        uint256 wins;\n        uint256 burns;\n\t}\n    string[] private gender = [ \"Female\", \"Male\" ];\n    string[] private skills = [ \"Below Average\", \"Average\", \"Above Average\", \"Gifted\" ];\n\t\n    uint256 public _price = 0.05 ether;\n    bool public _paused = true;\n    bool public _matingPaused = true;\n    bool public _reclaimPaused = true;\n\n    address private _otherContract;\n\n    mapping (uint256 => PlayerInfo) private _tokenId2Player;\n\n    constructor() ERC721(\"HungerVerse\", \"HUNGER\") Ownable() {\n\t}\n    function generatePlayer(uint256 tokenId) private {\n        PlayerInfo storage player = _tokenId2Player[tokenId];   //by reference\n\n        player.state = 1;\n        player.gender = pluck(tokenId, \"GENDER\") % 2;\n        player.district = 1 + pluck(tokenId, \"DISTRICT\") % 12;\n        if(player.gender == 0) {\n            player.offsprings = pluck(tokenId, \"OFFSPRINGS\") % 9;\n        }\n        player.HS = (player.wins + player.burns + pluck(tokenId, \"HUNTING\")) % 4;\n        player.IQ = (player.wins + player.burns + pluck(tokenId, \"IQSCORE\")) % 4;\n    }\n    function getPlayerInfo(uint256 tokenId) external view returns (uint256,uint256,uint256,uint256,uint256,uint256,uint256,uint256) {\n        PlayerInfo memory player = _tokenId2Player[tokenId];\n        return (player.state, player.gender, player.district, player.HS, player.IQ, player.likes, player.wins, player.burns);\n    }\n    function random(string memory input) private pure returns (uint256) {\n        return uint256(keccak256(abi.encodePacked(input)));\n    }\n    function pluck(uint256 tokenId, string memory keyPrefix) private pure returns (uint256) {\n        return random(string(abi.encodePacked(keyPrefix, Strings.toString(tokenId))));\n    }\n    function tokenURI(uint256 tokenId) override public view returns (string memory) {\n        PlayerInfo memory player = _tokenId2Player[tokenId];\n\n        string[64] memory parts;\n\t\tuint256 counter = 0;\n        parts[counter++] = '<svg xmlns=\"http://www.w3.org/2000/svg\" preserveAspectRatio=\"xMinYMin meet\" viewBox=\"0 0 350 350\">';\n\t\tparts[counter++] = '<style>.baseWhite { fill: white; font-family: serif; font-size: 20px; }';\n\t\tparts[counter++] = '.baseGreen { fill: springgreen; font-family: serif; font-size: 20px; }</style>';\n\t\tparts[counter++] = '<rect width=\"100%\" height=\"100%\" fill=\"black\" />';\n        parts[counter++] = '<text x=\"10\" y=\"60\" class=\"baseGreen\">';\n        parts[counter++] = gender[player.gender];\n        parts[counter++] = '</text><text x=\"10\" y=\"80\" class=\"baseWhite\">';\n        parts[counter++] = \"District:\\t\";\n        parts[counter++] = Strings.toString(player.district);\n        parts[counter++] = '</text><text x=\"10\" y=\"100\" class=\"baseWhite\">';\n        parts[counter++] = \"Name:\\t\";\n        parts[counter++] = bytes(player.name).length > 0 ? player.name : '';\n\n        if(player.gender == 0) {\n            parts[counter++] = '</text><text x=\"10\" y=\"120\" class=\"baseWhite\">';\n            parts[counter++] = \"Offsprings:\\t\";\n            parts[counter++] = Strings.toString(player.offsprings);\n        }\n        parts[counter++] = '</text><text x=\"10\" y=\"160\" class=\"baseWhite\">';\n        parts[counter++] = \"HuntingSkills:\\t\";\n        parts[counter++] = skills[player.HS];\n        parts[counter++] = '</text><text x=\"10\" y=\"180\" class=\"baseWhite\">';\n        parts[counter++] = \"IQ:\\t\";\n        parts[counter++] = skills[player.IQ];\n        parts[counter++] = '</text><text x=\"10\" y=\"200\" class=\"baseWhite\">';\n        parts[counter++] = \"Likes:\\t\";\n        parts[counter++] = Strings.toString(player.likes);\n        parts[counter++] = '</text><text x=\"10\" y=\"240\" class=\"baseWhite\">';\n        parts[counter++] = \"wins:\\t\";\n        parts[counter++] = Strings.toString(player.wins);\n        parts[counter++] = '</text><text x=\"10\" y=\"260\" class=\"baseWhite\">';\n        parts[counter++] = \"burns:\\t\";\n        parts[counter++] = Strings.toString(player.burns);\n\n        parts[counter++] = '</text></svg>';\n\n        string memory output = \"\";\n\t\tfor(uint256 i = 0; i < counter; ++i)\n\t\t{\n\t\t\toutput = string(abi.encodePacked(output, parts[i]));\n\t\t}\n\n        string memory json = Base64.encode(bytes(string(abi.encodePacked('{\"name\": \"Hungerite #', Strings.toString(tokenId), '\", \"description\": \"HungerVerse is a game of survival.\", \"image\": \"data:image/svg+xml;base64,', Base64.encode(bytes(output)), '\"}'))));\n        output = string(abi.encodePacked('data:application/json;base64,', json));\n\n        return output;\n    }\n    function own(uint256 num) external payable {\n        uint256 supply = totalSupply();\n        require(!_paused, \"Sale paused\");\n        require(num > 0 && num < 21, \"You can adopt a maximum of 20 Hungerite\");\n        require(supply + num <= 24000, \"Exceeds maximum supply\");\n        require(msg.value >= _price * num, \"Ether sent is not correct\");\n\n        for(uint256 i = 1; i <= num; i++) {\n            generatePlayer(supply + i);\n            _safeMint(msg.sender, supply + i);\n        }\n    }\n    function reclaim(uint256 num) external payable {\n        uint256 supply = totalSupply();\n        require(!_reclaimPaused, \"reclaim paused\");\n        require(num > 0 && num < 21, \"You can adopt a maximum of 20 Hungerite\");\n        require(supply + num <= 24000, \"Exceeds maximum supply\");\n        require(msg.value >= _price * num, \"Ether sent is not correct\");\n\n        uint256 count = 0;\n        for(uint256 i = 1; i <= 24000; i++) {\n            if(_tokenId2Player[i].state == 1) continue;\n            generatePlayer(i);\n            _safeMint(msg.sender, i);\n            if(++count == num) break;\n        }\n    }\n    function mate(uint256 tokenIdM, uint256 tokenIdF) external {\n        uint256 supply = totalSupply();\n        require(!_matingPaused, \"Mating paused\");\n        require(_isApprovedOrOwner(msg.sender, tokenIdM), \"not authorized\");\n        require(_isApprovedOrOwner(msg.sender, tokenIdF), \"not authorized\");\n        PlayerInfo memory male = _tokenId2Player[tokenIdM];\n        require(male.gender == 1, \"first token should be male\");\n        PlayerInfo storage female = _tokenId2Player[tokenIdF];\n        require(female.gender == 0, \"second token should be female\");\n        require(female.offsprings > 0, \"no offsprings\");\n        require(supply + female.offsprings <= 24000, \"Exceeds maximum supply\");\n\n        uint256 count = 0;\n        for(uint256 i = 1; i <= 24000; i++) {\n            if(_tokenId2Player[i].state == 1) continue;\n            generatePlayer(i);\n            _safeMint(msg.sender, i);\n            if(++count == female.offsprings) break;\n        }\n        female.offsprings = 0;\n    }\n\tfunction like(uint256 tokenId) external {\n\t\tPlayerInfo storage player = _tokenId2Player[tokenId];\n\t\tplayer.likes++;\n\t}\n\tfunction setMatingPause(bool val) external onlyOwner {\n\t\t_matingPaused = val;\n\t}\n\tfunction setReclaimPause(bool val) external onlyOwner {\n\t\t_reclaimPaused = val;\n\t}\n    function isApprovedOrOwner(address spender, uint256 tokenId) external view virtual returns (bool) {\n        return super._isApprovedOrOwner(spender, tokenId);\n    }\n    function isApprovedForAll(address owner, address operator) public view virtual override returns (bool) {\n        return (operator == _otherContract || super.isApprovedForAll(owner, operator));\n    }\n    function burn(uint256 tokenId) external {\n        PlayerInfo storage player = _tokenId2Player[tokenId];\n        player.state = 0;\n        player.burns++;\n        _burn(tokenId);\n    }\n    function setName(uint256 tokenId, string memory val) external {\n        require(_isApprovedOrOwner(msg.sender, tokenId), \"not authorized\");\n        PlayerInfo storage player = _tokenId2Player[tokenId];\n        player.name = val;\n    }\n    function setPrice(uint256 _newPrice) external onlyOwner {\n        _price = _newPrice;\n    }\n    function setPause(bool val) external onlyOwner {\n        _paused = val;\n    }\n    function setOtherContract(address val) external onlyOwner {\n        _otherContract = val;\n    }\n    function withdraw() external payable onlyOwner {\n        address t1 = 0x4aF0BB035FfB1CbEFA550530917e151a53034d70;\n        require(payable(t1).send(address(this).balance));\n    }\n}\n",
  "sourcePath": "/home/ec2-user/github/fcc-dapp/src/contracts/HungerVerse.sol",
  "compiler": {
    "name": "solc",
    "version": "0.8.7+commit.e28d00a7.Emscripten.clang"
  },
  "schemaVersion": "3.4.3",
  "updatedAt": "2022-01-05T10:08:47.763Z",
  "devdoc": {
    "kind": "dev",
    "methods": {
      "approve(address,uint256)": {
        "details": "See {IERC721-approve}."
      },
      "balanceOf(address)": {
        "details": "See {IERC721-balanceOf}."
      },
      "getApproved(uint256)": {
        "details": "See {IERC721-getApproved}."
      },
      "isApprovedForAll(address,address)": {
        "details": "See {IERC721-isApprovedForAll}."
      },
      "name()": {
        "details": "See {IERC721Metadata-name}."
      },
      "owner()": {
        "details": "Returns the address of the current owner."
      },
      "ownerOf(uint256)": {
        "details": "See {IERC721-ownerOf}."
      },
      "renounceOwnership()": {
        "details": "Leaves the contract without owner. It will not be possible to call `onlyOwner` functions anymore. Can only be called by the current owner. NOTE: Renouncing ownership will leave the contract without an owner, thereby removing any functionality that is only available to the owner."
      },
      "safeTransferFrom(address,address,uint256)": {
        "details": "See {IERC721-safeTransferFrom}."
      },
      "safeTransferFrom(address,address,uint256,bytes)": {
        "details": "See {IERC721-safeTransferFrom}."
      },
      "setApprovalForAll(address,bool)": {
        "details": "See {IERC721-setApprovalForAll}."
      },
      "supportsInterface(bytes4)": {
        "details": "See {IERC165-supportsInterface}."
      },
      "symbol()": {
        "details": "See {IERC721Metadata-symbol}."
      },
      "tokenByIndex(uint256)": {
        "details": "See {IERC721Enumerable-tokenByIndex}."
      },
      "tokenOfOwnerByIndex(address,uint256)": {
        "details": "See {IERC721Enumerable-tokenOfOwnerByIndex}."
      },
      "tokenURI(uint256)": {
        "details": "See {IERC721Metadata-tokenURI}."
      },
      "totalSupply()": {
        "details": "See {IERC721Enumerable-totalSupply}."
      },
      "transferFrom(address,address,uint256)": {
        "details": "See {IERC721-transferFrom}."
      },
      "transferOwnership(address)": {
        "details": "Transfers ownership of the contract to a new account (`newOwner`). Can only be called by the current owner."
      }
    },
    "version": 1
  },
  "userdoc": {
    "kind": "user",
    "methods": {},
    "version": 1
  }
}