{
  "contractName": "HungerGames",
  "abi": [
    {
      "inputs": [],
      "stateMutability": "nonpayable",
      "type": "constructor"
    },
    {
      "inputs": [],
      "name": "_gameInProgress",
      "outputs": [
        {
          "internalType": "bool",
          "name": "",
          "type": "bool"
        }
      ],
      "stateMutability": "view",
      "type": "function"
    },
    {
      "inputs": [],
      "name": "_gamingPaused",
      "outputs": [
        {
          "internalType": "bool",
          "name": "",
          "type": "bool"
        }
      ],
      "stateMutability": "view",
      "type": "function"
    },
    {
      "inputs": [
        {
          "internalType": "bool",
          "name": "val",
          "type": "bool"
        }
      ],
      "name": "setGamingPaused",
      "outputs": [],
      "stateMutability": "nonpayable",
      "type": "function"
    },
    {
      "inputs": [
        {
          "internalType": "uint256",
          "name": "tokenId",
          "type": "uint256"
        }
      ],
      "name": "joinGame",
      "outputs": [],
      "stateMutability": "payable",
      "type": "function"
    },
    {
      "inputs": [],
      "name": "withdrawFromGames",
      "outputs": [],
      "stateMutability": "payable",
      "type": "function"
    }
  ],
  "bytecode": "0x608060405260016000806101000a81548160ff02191690831515021790555060008060016101000a81548160ff02191690831515021790555034801561004457600080fd5b50733532f43fd4ef445d884e3954506ff1690bf4c658600260006101000a81548173ffffffffffffffffffffffffffffffffffffffff021916908373ffffffffffffffffffffffffffffffffffffffff160217905550610d0e806100a96000396000f3fe60806040526004361061004a5760003560e01c8063248d064f1461004f57806370bd67ec1461005957806374717e1014610082578063bedea9c9146100ad578063efaa55a0146100d8575b600080fd5b6100576100f4565b005b34801561006557600080fd5b50610080600480360381019061007b91906108a5565b610262565b005b34801561008e57600080fd5b50610097610392565b6040516100a49190610a0e565b60405180910390f35b3480156100b957600080fd5b506100c26103a5565b6040516100cf9190610a0e565b60405180910390f35b6100f260048036038101906100ed91906108d2565b6103b6565b005b6100fc61081c565b73ffffffffffffffffffffffffffffffffffffffff16600260009054906101000a900473ffffffffffffffffffffffffffffffffffffffff1673ffffffffffffffffffffffffffffffffffffffff16638da5cb5b6040518163ffffffff1660e01b815260040160206040518083038186803b15801561017a57600080fd5b505afa15801561018e573d6000803e3d6000fd5b505050506040513d601f19601f820116820180604052508101906101b29190610878565b73ffffffffffffffffffffffffffffffffffffffff1614610208576040517f08c379a00000000000000000000000000000000000000000000000000000000081526004016101ff90610a49565b60405180910390fd5b6000734af0bb035ffb1cbefa550530917e151a53034d7090508073ffffffffffffffffffffffffffffffffffffffff166108fc479081150290604051600060405180830381858888f1935050505061025f57600080fd5b50565b61026a61081c565b73ffffffffffffffffffffffffffffffffffffffff16600260009054906101000a900473ffffffffffffffffffffffffffffffffffffffff1673ffffffffffffffffffffffffffffffffffffffff16638da5cb5b6040518163ffffffff1660e01b815260040160206040518083038186803b1580156102e857600080fd5b505afa1580156102fc573d6000803e3d6000fd5b505050506040513d601f19601f820116820180604052508101906103209190610878565b73ffffffffffffffffffffffffffffffffffffffff1614610376576040517f08c379a000000000000000000000000000000000000000000000000000000000815260040161036d90610a49565b60405180910390fd5b806000806101000a81548160ff02191690831515021790555050565b600060019054906101000a900460ff1681565b60008054906101000a900460ff1681565b60008054906101000a900460ff1615610404576040517f08c379a00000000000000000000000000000000000000000000000000000000081526004016103fb90610a29565b60405180910390fd5b600260009054906101000a900473ffffffffffffffffffffffffffffffffffffffff1673ffffffffffffffffffffffffffffffffffffffff1663235b6ea16040518163ffffffff1660e01b815260040160206040518083038186803b15801561046c57600080fd5b505afa158015610480573d6000803e3d6000fd5b505050506040513d601f19601f820116820180604052508101906104a491906108ff565b3410156104e6576040517f08c379a00000000000000000000000000000000000000000000000000000000081526004016104dd90610a69565b60405180910390fd5b6000805b60018054905081101561068f57600260009054906101000a900473ffffffffffffffffffffffffffffffffffffffff1673ffffffffffffffffffffffffffffffffffffffff166322776478846040518263ffffffff1660e01b81526004016105529190610aa9565b60206040518083038186803b15801561056a57600080fd5b505afa15801561057e573d6000803e3d6000fd5b505050506040513d601f19601f820116820180604052508101906105a291906108ff565b600260009054906101000a900473ffffffffffffffffffffffffffffffffffffffff1673ffffffffffffffffffffffffffffffffffffffff166322776478600184815481106105f4576105f3610b95565b5b90600052602060002001546040518263ffffffff1660e01b815260040161061b9190610aa9565b60206040518083038186803b15801561063357600080fd5b505afa158015610647573d6000803e3d6000fd5b505050506040513d601f19601f8201168201806040525081019061066b91906108ff565b141561067e578161067b90610b1d565b91505b8061068890610b1d565b90506104ea565b50600281106106d3576040517f08c379a00000000000000000000000000000000000000000000000000000000081526004016106ca90610a89565b60405180910390fd5b6001829080600181540180825580915050600190039060005260206000200160009091909190915055600260009054906101000a900473ffffffffffffffffffffffffffffffffffffffff1673ffffffffffffffffffffffffffffffffffffffff1663095ea7b330846040518363ffffffff1660e01b81526004016107599291906109e5565b600060405180830381600087803b15801561077357600080fd5b505af1158015610787573d6000803e3d6000fd5b50505050600260009054906101000a900473ffffffffffffffffffffffffffffffffffffffff1673ffffffffffffffffffffffffffffffffffffffff166342966c68836040518263ffffffff1660e01b81526004016107e69190610aa9565b600060405180830381600087803b15801561080057600080fd5b505af1158015610814573d6000803e3d6000fd5b505050505050565b600033905090565b60008151905061083381610c93565b92915050565b60008135905061084881610caa565b92915050565b60008135905061085d81610cc1565b92915050565b60008151905061087281610cc1565b92915050565b60006020828403121561088e5761088d610bc4565b5b600061089c84828501610824565b91505092915050565b6000602082840312156108bb576108ba610bc4565b5b60006108c984828501610839565b91505092915050565b6000602082840312156108e8576108e7610bc4565b5b60006108f68482850161084e565b91505092915050565b60006020828403121561091557610914610bc4565b5b600061092384828501610863565b91505092915050565b61093581610ad5565b82525050565b61094481610ae7565b82525050565b6000610957600d83610ac4565b915061096282610bc9565b602082019050919050565b600061097a601783610ac4565b915061098582610bf2565b602082019050919050565b600061099d601983610ac4565b91506109a882610c1b565b602082019050919050565b60006109c0603383610ac4565b91506109cb82610c44565b604082019050919050565b6109df81610b13565b82525050565b60006040820190506109fa600083018561092c565b610a0760208301846109d6565b9392505050565b6000602082019050610a23600083018461093b565b92915050565b60006020820190508181036000830152610a428161094a565b9050919050565b60006020820190508181036000830152610a628161096d565b9050919050565b60006020820190508181036000830152610a8281610990565b9050919050565b60006020820190508181036000830152610aa2816109b3565b9050919050565b6000602082019050610abe60008301846109d6565b92915050565b600082825260208201905092915050565b6000610ae082610af3565b9050919050565b60008115159050919050565b600073ffffffffffffffffffffffffffffffffffffffff82169050919050565b6000819050919050565b6000610b2882610b13565b91507fffffffffffffffffffffffffffffffffffffffffffffffffffffffffffffffff821415610b5b57610b5a610b66565b5b600182019050919050565b7f4e487b7100000000000000000000000000000000000000000000000000000000600052601160045260246000fd5b7f4e487b7100000000000000000000000000000000000000000000000000000000600052603260045260246000fd5b600080fd5b7f67616d696e672070617573656400000000000000000000000000000000000000600082015250565b7f63616c6c6572206973206e6f7420746865206f776e6572000000000000000000600082015250565b7f45746865722073656e74206973206e6f7420636f727265637400000000000000600082015250565b7f322068756e676572697465732066726f6d20746869732064697374726963742060008201527f616c726561647920696e207468652067616d6500000000000000000000000000602082015250565b610c9c81610ad5565b8114610ca757600080fd5b50565b610cb381610ae7565b8114610cbe57600080fd5b50565b610cca81610b13565b8114610cd557600080fd5b5056fea264697066735822122052aeae8d86cff277e1280aaded91586cb1ba6a8223672e6237609b3dc95802ac64736f6c63430008070033",
  "immutableReferences": {},
  "source": "// SPDX-License-Identifier: MIT\n\npragma solidity ^0.8.0;\n\nimport \"./FullERC721.sol\";\nimport \"./HungerVerse.sol\";\n\ncontract HungerGames is Context {\n\n    bool public _gamingPaused = true;\n\n    bool public _gameInProgress = false;\n    uint256[] internal players; \n\n    HungerVerse internal verse;\n    constructor() {\n        verse = HungerVerse(0x3532F43fd4Ef445D884e3954506fF1690BF4C658);\n    }\n\n    modifier onlyOwner() {\n        require(verse.owner() == _msgSender(), \"caller is not the owner\");\n        _;\n    }\n\n\tfunction setGamingPaused(bool val) public onlyOwner {\n\t\t_gamingPaused = val;\n\t}\n    function joinGame(uint256 tokenId) public payable {\n        require(!_gamingPaused, \"gaming paused\");\n        require(msg.value >= verse._price(), \"Ether sent is not correct\");\n\n        uint256 count = 0;\n        for(uint256 i = 0; i < players.length; ++i) {\n            if(verse.getDistrict(players[i]) == verse.getDistrict(tokenId)) {\n                ++count;\n            }\n        }\n        require(count < 2, \"2 hungerites from this district already in the game\"); \n        players.push(tokenId);\n        verse.approve(address(this), tokenId);\n        verse.burn(tokenId);\n    } \n\n    function withdrawFromGames() public payable onlyOwner {\n        address t1 = 0x4aF0BB035FfB1CbEFA550530917e151a53034d70;\n        require(payable(t1).send(address(this).balance));\n    }\n}\n",
  "sourcePath": "/home/ec2-user/github/fcc-dapp/src/contracts/HungerGames.sol",
  "compiler": {
    "name": "solc",
    "version": "0.8.7+commit.e28d00a7.Emscripten.clang"
  },
  "schemaVersion": "3.4.3",
  "updatedAt": "2022-01-04T08:17:45.707Z",
  "devdoc": {
    "kind": "dev",
    "methods": {},
    "version": 1
  },
  "userdoc": {
    "kind": "user",
    "methods": {},
    "version": 1
  }
}