{
  "contractName": "HungerVerse",
  "abi": [
    {
      "inputs": [],
      "stateMutability": "nonpayable",
      "type": "constructor"
    },
    {
      "anonymous": false,
      "inputs": [
        {
          "indexed": true,
          "internalType": "address",
          "name": "owner",
          "type": "address"
        },
        {
          "indexed": true,
          "internalType": "address",
          "name": "approved",
          "type": "address"
        },
        {
          "indexed": true,
          "internalType": "uint256",
          "name": "tokenId",
          "type": "uint256"
        }
      ],
      "name": "Approval",
      "type": "event"
    },
    {
      "anonymous": false,
      "inputs": [
        {
          "indexed": true,
          "internalType": "address",
          "name": "owner",
          "type": "address"
        },
        {
          "indexed": true,
          "internalType": "address",
          "name": "operator",
          "type": "address"
        },
        {
          "indexed": false,
          "internalType": "bool",
          "name": "approved",
          "type": "bool"
        }
      ],
      "name": "ApprovalForAll",
      "type": "event"
    },
    {
      "anonymous": false,
      "inputs": [
        {
          "indexed": true,
          "internalType": "address",
          "name": "previousOwner",
          "type": "address"
        },
        {
          "indexed": true,
          "internalType": "address",
          "name": "newOwner",
          "type": "address"
        }
      ],
      "name": "OwnershipTransferred",
      "type": "event"
    },
    {
      "anonymous": false,
      "inputs": [
        {
          "indexed": true,
          "internalType": "address",
          "name": "from",
          "type": "address"
        },
        {
          "indexed": true,
          "internalType": "address",
          "name": "to",
          "type": "address"
        },
        {
          "indexed": true,
          "internalType": "uint256",
          "name": "tokenId",
          "type": "uint256"
        }
      ],
      "name": "Transfer",
      "type": "event"
    },
    {
      "inputs": [],
      "name": "_matingPaused",
      "outputs": [
        {
          "internalType": "bool",
          "name": "",
          "type": "bool"
        }
      ],
      "stateMutability": "view",
      "type": "function"
    },
    {
      "inputs": [],
      "name": "_paused",
      "outputs": [
        {
          "internalType": "bool",
          "name": "",
          "type": "bool"
        }
      ],
      "stateMutability": "view",
      "type": "function"
    },
    {
      "inputs": [],
      "name": "_reclaimPaused",
      "outputs": [
        {
          "internalType": "bool",
          "name": "",
          "type": "bool"
        }
      ],
      "stateMutability": "view",
      "type": "function"
    },
    {
      "inputs": [
        {
          "internalType": "address",
          "name": "to",
          "type": "address"
        },
        {
          "internalType": "uint256",
          "name": "tokenId",
          "type": "uint256"
        }
      ],
      "name": "approve",
      "outputs": [],
      "stateMutability": "nonpayable",
      "type": "function"
    },
    {
      "inputs": [
        {
          "internalType": "address",
          "name": "owner",
          "type": "address"
        }
      ],
      "name": "balanceOf",
      "outputs": [
        {
          "internalType": "uint256",
          "name": "",
          "type": "uint256"
        }
      ],
      "stateMutability": "view",
      "type": "function"
    },
    {
      "inputs": [
        {
          "internalType": "uint256",
          "name": "tokenId",
          "type": "uint256"
        }
      ],
      "name": "getApproved",
      "outputs": [
        {
          "internalType": "address",
          "name": "",
          "type": "address"
        }
      ],
      "stateMutability": "view",
      "type": "function"
    },
    {
      "inputs": [
        {
          "internalType": "address",
          "name": "owner",
          "type": "address"
        },
        {
          "internalType": "address",
          "name": "operator",
          "type": "address"
        }
      ],
      "name": "isApprovedForAll",
      "outputs": [
        {
          "internalType": "bool",
          "name": "",
          "type": "bool"
        }
      ],
      "stateMutability": "view",
      "type": "function"
    },
    {
      "inputs": [],
      "name": "name",
      "outputs": [
        {
          "internalType": "string",
          "name": "",
          "type": "string"
        }
      ],
      "stateMutability": "view",
      "type": "function"
    },
    {
      "inputs": [],
      "name": "owner",
      "outputs": [
        {
          "internalType": "address",
          "name": "",
          "type": "address"
        }
      ],
      "stateMutability": "view",
      "type": "function"
    },
    {
      "inputs": [
        {
          "internalType": "uint256",
          "name": "tokenId",
          "type": "uint256"
        }
      ],
      "name": "ownerOf",
      "outputs": [
        {
          "internalType": "address",
          "name": "",
          "type": "address"
        }
      ],
      "stateMutability": "view",
      "type": "function"
    },
    {
      "inputs": [],
      "name": "renounceOwnership",
      "outputs": [],
      "stateMutability": "nonpayable",
      "type": "function"
    },
    {
      "inputs": [
        {
          "internalType": "address",
          "name": "from",
          "type": "address"
        },
        {
          "internalType": "address",
          "name": "to",
          "type": "address"
        },
        {
          "internalType": "uint256",
          "name": "tokenId",
          "type": "uint256"
        }
      ],
      "name": "safeTransferFrom",
      "outputs": [],
      "stateMutability": "nonpayable",
      "type": "function"
    },
    {
      "inputs": [
        {
          "internalType": "address",
          "name": "from",
          "type": "address"
        },
        {
          "internalType": "address",
          "name": "to",
          "type": "address"
        },
        {
          "internalType": "uint256",
          "name": "tokenId",
          "type": "uint256"
        },
        {
          "internalType": "bytes",
          "name": "_data",
          "type": "bytes"
        }
      ],
      "name": "safeTransferFrom",
      "outputs": [],
      "stateMutability": "nonpayable",
      "type": "function"
    },
    {
      "inputs": [
        {
          "internalType": "address",
          "name": "operator",
          "type": "address"
        },
        {
          "internalType": "bool",
          "name": "approved",
          "type": "bool"
        }
      ],
      "name": "setApprovalForAll",
      "outputs": [],
      "stateMutability": "nonpayable",
      "type": "function"
    },
    {
      "inputs": [
        {
          "internalType": "bytes4",
          "name": "interfaceId",
          "type": "bytes4"
        }
      ],
      "name": "supportsInterface",
      "outputs": [
        {
          "internalType": "bool",
          "name": "",
          "type": "bool"
        }
      ],
      "stateMutability": "view",
      "type": "function"
    },
    {
      "inputs": [],
      "name": "symbol",
      "outputs": [
        {
          "internalType": "string",
          "name": "",
          "type": "string"
        }
      ],
      "stateMutability": "view",
      "type": "function"
    },
    {
      "inputs": [
        {
          "internalType": "uint256",
          "name": "index",
          "type": "uint256"
        }
      ],
      "name": "tokenByIndex",
      "outputs": [
        {
          "internalType": "uint256",
          "name": "",
          "type": "uint256"
        }
      ],
      "stateMutability": "view",
      "type": "function"
    },
    {
      "inputs": [
        {
          "internalType": "address",
          "name": "owner",
          "type": "address"
        },
        {
          "internalType": "uint256",
          "name": "index",
          "type": "uint256"
        }
      ],
      "name": "tokenOfOwnerByIndex",
      "outputs": [
        {
          "internalType": "uint256",
          "name": "",
          "type": "uint256"
        }
      ],
      "stateMutability": "view",
      "type": "function"
    },
    {
      "inputs": [],
      "name": "totalSupply",
      "outputs": [
        {
          "internalType": "uint256",
          "name": "",
          "type": "uint256"
        }
      ],
      "stateMutability": "view",
      "type": "function"
    },
    {
      "inputs": [
        {
          "internalType": "address",
          "name": "from",
          "type": "address"
        },
        {
          "internalType": "address",
          "name": "to",
          "type": "address"
        },
        {
          "internalType": "uint256",
          "name": "tokenId",
          "type": "uint256"
        }
      ],
      "name": "transferFrom",
      "outputs": [],
      "stateMutability": "nonpayable",
      "type": "function"
    },
    {
      "inputs": [
        {
          "internalType": "address",
          "name": "newOwner",
          "type": "address"
        }
      ],
      "name": "transferOwnership",
      "outputs": [],
      "stateMutability": "nonpayable",
      "type": "function"
    },
    {
      "inputs": [
        {
          "internalType": "uint256",
          "name": "tokenId",
          "type": "uint256"
        }
      ],
      "name": "tokenURI",
      "outputs": [
        {
          "internalType": "string",
          "name": "",
          "type": "string"
        }
      ],
      "stateMutability": "view",
      "type": "function"
    },
    {
      "inputs": [
        {
          "internalType": "uint256",
          "name": "num",
          "type": "uint256"
        }
      ],
      "name": "ownHungerites",
      "outputs": [],
      "stateMutability": "payable",
      "type": "function"
    },
    {
      "inputs": [
        {
          "internalType": "uint256",
          "name": "num",
          "type": "uint256"
        }
      ],
      "name": "reclaimHungerites",
      "outputs": [],
      "stateMutability": "payable",
      "type": "function"
    },
    {
      "inputs": [
        {
          "internalType": "uint256",
          "name": "tokenIdM",
          "type": "uint256"
        },
        {
          "internalType": "uint256",
          "name": "tokenIdF",
          "type": "uint256"
        }
      ],
      "name": "mate",
      "outputs": [],
      "stateMutability": "nonpayable",
      "type": "function"
    },
    {
      "inputs": [
        {
          "internalType": "uint256",
          "name": "tokenId",
          "type": "uint256"
        }
      ],
      "name": "burn",
      "outputs": [],
      "stateMutability": "nonpayable",
      "type": "function"
    },
    {
      "inputs": [
        {
          "internalType": "uint256",
          "name": "_newPrice",
          "type": "uint256"
        }
      ],
      "name": "setPrice",
      "outputs": [],
      "stateMutability": "nonpayable",
      "type": "function"
    },
    {
      "inputs": [],
      "name": "getPrice",
      "outputs": [
        {
          "internalType": "uint256",
          "name": "",
          "type": "uint256"
        }
      ],
      "stateMutability": "view",
      "type": "function"
    },
    {
      "inputs": [
        {
          "internalType": "bool",
          "name": "val",
          "type": "bool"
        }
      ],
      "name": "setPause",
      "outputs": [],
      "stateMutability": "nonpayable",
      "type": "function"
    },
    {
      "inputs": [
        {
          "internalType": "bool",
          "name": "val",
          "type": "bool"
        }
      ],
      "name": "setMatingPause",
      "outputs": [],
      "stateMutability": "nonpayable",
      "type": "function"
    },
    {
      "inputs": [
        {
          "internalType": "bool",
          "name": "val",
          "type": "bool"
        }
      ],
      "name": "setReclaimPause",
      "outputs": [],
      "stateMutability": "nonpayable",
      "type": "function"
    },
    {
      "inputs": [],
      "name": "withdraw",
      "outputs": [],
      "stateMutability": "payable",
      "type": "function"
    }
  ],
  "bytecode": "0x608060405266b1a2bc2ec50000600c556001600d60006101000a81548160ff0219169083151502179055506001600d60016101000a81548160ff0219169083151502179055506001600d60026101000a81548160ff0219169083151502179055503480156200006d57600080fd5b506040518060400160405280600b81526020017f48756e67657256657273650000000000000000000000000000000000000000008152506040518060400160405280600681526020017f48554e47455200000000000000000000000000000000000000000000000000008152508160009080519060200190620000f29291906200020a565b5080600190805190602001906200010b9291906200020a565b5050506001600a81905550620001366200012a6200013c60201b60201c565b6200014460201b60201c565b6200031f565b600033905090565b6000600b60009054906101000a900473ffffffffffffffffffffffffffffffffffffffff16905081600b60006101000a81548173ffffffffffffffffffffffffffffffffffffffff021916908373ffffffffffffffffffffffffffffffffffffffff1602179055508173ffffffffffffffffffffffffffffffffffffffff168173ffffffffffffffffffffffffffffffffffffffff167f8be0079c531659141344cd1fd0a4f28419497f9722a3daafe3b4186f6b6457e060405160405180910390a35050565b8280546200021890620002ba565b90600052602060002090601f0160209004810192826200023c576000855562000288565b82601f106200025757805160ff191683800117855562000288565b8280016001018555821562000288579182015b82811115620002875782518255916020019190600101906200026a565b5b5090506200029791906200029b565b5090565b5b80821115620002b65760008160009055506001016200029c565b5090565b60006002820490506001821680620002d357607f821691505b60208210811415620002ea57620002e9620002f0565b5b50919050565b7f4e487b7100000000000000000000000000000000000000000000000000000000600052602260045260246000fd5b6153e4806200032f6000396000f3fe6080604052600436106101e35760003560e01c8063715018a611610102578063b88d4fde11610095578063db4ec21a11610064578063db4ec21a146106b3578063e86a4593146106de578063e985e9c514610707578063f2fde38b14610744576101e3565b8063b88d4fde146105fb578063bedb86fb14610624578063c87b56dd1461064d578063d8eb356a1461068a576101e3565b806395d89b41116100d157806395d89b411461055357806398d5fdca1461057e5780639c3f5237146105a9578063a22cb465146105d2576101e3565b8063715018a6146104bd57806384eb1f11146104d45780638da5cb5b146104ff57806391b7f5ed1461052a576101e3565b80632c2479451161017a57806342966c681161014957806342966c68146103dd5780634f6ccce7146104065780636352211e1461044357806370a0823114610480576101e3565b80632c247945146103515780632f745c591461036d5780633ccfd60b146103aa57806342842e0e146103b4576101e3565b80630a1952c3116101b65780630a1952c3146102b657806316c61ccc146102d257806318160ddd146102fd57806323b872dd14610328576101e3565b806301ffc9a7146101e857806306fdde0314610225578063081812fc14610250578063095ea7b31461028d575b600080fd5b3480156101f457600080fd5b5061020f600480360381019061020a9190613abf565b61076d565b60405161021c91906141bf565b60405180910390f35b34801561023157600080fd5b5061023a6107e7565b60405161024791906141da565b60405180910390f35b34801561025c57600080fd5b5061027760048036038101906102729190613b19565b610879565b6040516102849190614158565b60405180910390f35b34801561029957600080fd5b506102b460048036038101906102af9190613a52565b6108fe565b005b6102d060048036038101906102cb9190613b19565b610a16565b005b3480156102de57600080fd5b506102e7610c02565b6040516102f491906141bf565b60405180910390f35b34801561030957600080fd5b50610312610c15565b60405161031f919061457c565b60405180910390f35b34801561033457600080fd5b5061034f600480360381019061034a919061393c565b610c22565b005b61036b60048036038101906103669190613b19565b610c82565b005b34801561037957600080fd5b50610394600480360381019061038f9190613a52565b610e9a565b6040516103a1919061457c565b60405180910390f35b6103b2610f3f565b005b3480156103c057600080fd5b506103db60048036038101906103d6919061393c565b611015565b005b3480156103e957600080fd5b5061040460048036038101906103ff9190613b19565b611035565b005b34801561041257600080fd5b5061042d60048036038101906104289190613b19565b6110c6565b60405161043a919061457c565b60405180910390f35b34801561044f57600080fd5b5061046a60048036038101906104659190613b19565b611137565b6040516104779190614158565b60405180910390f35b34801561048c57600080fd5b506104a760048036038101906104a291906138cf565b6111e9565b6040516104b4919061457c565b60405180910390f35b3480156104c957600080fd5b506104d26112a1565b005b3480156104e057600080fd5b506104e9611329565b6040516104f691906141bf565b60405180910390f35b34801561050b57600080fd5b5061051461133c565b6040516105219190614158565b60405180910390f35b34801561053657600080fd5b50610551600480360381019061054c9190613b19565b611366565b005b34801561055f57600080fd5b506105686113ec565b60405161057591906141da565b60405180910390f35b34801561058a57600080fd5b5061059361147e565b6040516105a0919061457c565b60405180910390f35b3480156105b557600080fd5b506105d060048036038101906105cb9190613b46565b611488565b005b3480156105de57600080fd5b506105f960048036038101906105f49190613a12565b61181b565b005b34801561060757600080fd5b50610622600480360381019061061d919061398f565b61199c565b005b34801561063057600080fd5b5061064b60048036038101906106469190613a92565b6119fe565b005b34801561065957600080fd5b50610674600480360381019061066f9190613b19565b611a97565b60405161068191906141da565b60405180910390f35b34801561069657600080fd5b506106b160048036038101906106ac9190613a92565b611f81565b005b3480156106bf57600080fd5b506106c861201a565b6040516106d591906141bf565b60405180910390f35b3480156106ea57600080fd5b5061070560048036038101906107009190613a92565b61202d565b005b34801561071357600080fd5b5061072e600480360381019061072991906138fc565b6120c6565b60405161073b91906141bf565b60405180910390f35b34801561075057600080fd5b5061076b600480360381019061076691906138cf565b61215a565b005b60007f780e9d63000000000000000000000000000000000000000000000000000000007bffffffffffffffffffffffffffffffffffffffffffffffffffffffff1916827bffffffffffffffffffffffffffffffffffffffffffffffffffffffff191614806107e057506107df82612252565b5b9050919050565b6060600080546107f6906147fb565b80601f0160208091040260200160405190810160405280929190818152602001828054610822906147fb565b801561086f5780601f106108445761010080835404028352916020019161086f565b820191906000526020600020905b81548152906001019060200180831161085257829003601f168201915b5050505050905090565b600061088482612334565b6108c3576040517f08c379a00000000000000000000000000000000000000000000000000000000081526004016108ba906143dc565b60405180910390fd5b6004600083815260200190815260200160002060009054906101000a900473ffffffffffffffffffffffffffffffffffffffff169050919050565b600061090982611137565b90508073ffffffffffffffffffffffffffffffffffffffff168373ffffffffffffffffffffffffffffffffffffffff16141561097a576040517f08c379a00000000000000000000000000000000000000000000000000000000081526004016109719061445c565b60405180910390fd5b8073ffffffffffffffffffffffffffffffffffffffff166109996123a0565b73ffffffffffffffffffffffffffffffffffffffff1614806109c857506109c7816109c26123a0565b6120c6565b5b610a07576040517f08c379a00000000000000000000000000000000000000000000000000000000081526004016109fe9061433c565b60405180910390fd5b610a1183836123a8565b505050565b6002600a541415610a5c576040517f08c379a0000000000000000000000000000000000000000000000000000000008152600401610a539061453c565b60405180910390fd5b6002600a819055506000610a6e610c15565b9050600d60009054906101000a900460ff1615610ac0576040517f08c379a0000000000000000000000000000000000000000000000000000000008152600401610ab7906141fc565b60405180910390fd5b600082118015610ad05750601582105b610b0f576040517f08c379a0000000000000000000000000000000000000000000000000000000008152600401610b069061431c565b60405180910390fd5b615dc08282610b1e9190614630565b10610b5e576040517f08c379a0000000000000000000000000000000000000000000000000000000008152600401610b559061447c565b60405180910390fd5b81600c54610b6c91906146b7565b341015610bae576040517f08c379a0000000000000000000000000000000000000000000000000000000008152600401610ba59061449c565b60405180910390fd5b60005b82811015610bf557610bcd8183610bc89190614630565b612461565b610be2338284610bdd9190614630565b61267f565b8080610bed9061485e565b915050610bb1565b50506001600a8190555050565b600d60009054906101000a900460ff1681565b6000600880549050905090565b610c33610c2d6123a0565b8261269d565b610c72576040517f08c379a0000000000000000000000000000000000000000000000000000000008152600401610c69906144bc565b60405180910390fd5b610c7d83838361277b565b505050565b6002600a541415610cc8576040517f08c379a0000000000000000000000000000000000000000000000000000000008152600401610cbf9061453c565b60405180910390fd5b6002600a819055506000610cda610c15565b9050600d60029054906101000a900460ff1615610d2c576040517f08c379a0000000000000000000000000000000000000000000000000000000008152600401610d239061455c565b60405180910390fd5b600082118015610d3c5750601582105b610d7b576040517f08c379a0000000000000000000000000000000000000000000000000000000008152600401610d729061431c565b60405180910390fd5b615dc08282610d8a9190614630565b10610dca576040517f08c379a0000000000000000000000000000000000000000000000000000000008152600401610dc19061447c565b60405180910390fd5b81600c54610dd891906146b7565b341015610e1a576040517f08c379a0000000000000000000000000000000000000000000000000000000008152600401610e119061449c565b60405180910390fd5b6000805b615dc0811015610e8c576001600e6000838152602001908152602001600020600001541415610e4c57610e79565b610e5581612461565b610e5f338261267f565b8382610e6a9061485e565b9250821415610e7857610e8c565b5b8080610e849061485e565b915050610e1e565b5050506001600a8190555050565b6000610ea5836111e9565b8210610ee6576040517f08c379a0000000000000000000000000000000000000000000000000000000008152600401610edd9061421c565b60405180910390fd5b600660008473ffffffffffffffffffffffffffffffffffffffff1673ffffffffffffffffffffffffffffffffffffffff168152602001908152602001600020600083815260200190815260200160002054905092915050565b610f476123a0565b73ffffffffffffffffffffffffffffffffffffffff16610f6561133c565b73ffffffffffffffffffffffffffffffffffffffff1614610fbb576040517f08c379a0000000000000000000000000000000000000000000000000000000008152600401610fb29061441c565b60405180910390fd5b6000734af0bb035ffb1cbefa550530917e151a53034d7090508073ffffffffffffffffffffffffffffffffffffffff166108fc479081150290604051600060405180830381858888f1935050505061101257600080fd5b50565b6110308383836040518060200160405280600081525061199c565b505050565b61103f338261269d565b61107e576040517f08c379a0000000000000000000000000000000000000000000000000000000008152600401611075906143bc565b60405180910390fd5b6000600e60008381526020019081526020016000209050600081600001819055508060080160008154809291906110b49061485e565b91905055506110c2826129d7565b5050565b60006110d0610c15565b8210611111576040517f08c379a0000000000000000000000000000000000000000000000000000000008152600401611108906144dc565b60405180910390fd5b6008828154811061112557611124614994565b5b90600052602060002001549050919050565b6000806002600084815260200190815260200160002060009054906101000a900473ffffffffffffffffffffffffffffffffffffffff169050600073ffffffffffffffffffffffffffffffffffffffff168173ffffffffffffffffffffffffffffffffffffffff1614156111e0576040517f08c379a00000000000000000000000000000000000000000000000000000000081526004016111d79061437c565b60405180910390fd5b80915050919050565b60008073ffffffffffffffffffffffffffffffffffffffff168273ffffffffffffffffffffffffffffffffffffffff16141561125a576040517f08c379a00000000000000000000000000000000000000000000000000000000081526004016112519061435c565b60405180910390fd5b600360008373ffffffffffffffffffffffffffffffffffffffff1673ffffffffffffffffffffffffffffffffffffffff168152602001908152602001600020549050919050565b6112a96123a0565b73ffffffffffffffffffffffffffffffffffffffff166112c761133c565b73ffffffffffffffffffffffffffffffffffffffff161461131d576040517f08c379a00000000000000000000000000000000000000000000000000000000081526004016113149061441c565b60405180910390fd5b6113276000612ae8565b565b600d60019054906101000a900460ff1681565b6000600b60009054906101000a900473ffffffffffffffffffffffffffffffffffffffff16905090565b61136e6123a0565b73ffffffffffffffffffffffffffffffffffffffff1661138c61133c565b73ffffffffffffffffffffffffffffffffffffffff16146113e2576040517f08c379a00000000000000000000000000000000000000000000000000000000081526004016113d99061441c565b60405180910390fd5b80600c8190555050565b6060600180546113fb906147fb565b80601f0160208091040260200160405190810160405280929190818152602001828054611427906147fb565b80156114745780601f1061144957610100808354040283529160200191611474565b820191906000526020600020905b81548152906001019060200180831161145757829003601f168201915b5050505050905090565b6000600c54905090565b6002600a5414156114ce576040517f08c379a00000000000000000000000000000000000000000000000000000000081526004016114c59061453c565b60405180910390fd5b6002600a8190555060006114e0610c15565b9050600d60019054906101000a900460ff1615611532576040517f08c379a0000000000000000000000000000000000000000000000000000000008152600401611529906144fc565b60405180910390fd5b61153c338461269d565b61157b576040517f08c379a0000000000000000000000000000000000000000000000000000000008152600401611572906143bc565b60405180910390fd5b611585338361269d565b6115c4576040517f08c379a00000000000000000000000000000000000000000000000000000000081526004016115bb906143bc565b60405180910390fd5b6000600e60008581526020019081526020016000206040518061014001604052908160008201548152602001600182015481526020016002820154815260200160038201548152602001600482015481526020016005820154815260200160068201548152602001600782015481526020016008820154815260200160098201548152505090506001816020015114611692576040517f08c379a00000000000000000000000000000000000000000000000000000000081526004016116899061451c565b60405180910390fd5b6000600e6000858152602001908152602001600020905060008160010154146116f0576040517f08c379a00000000000000000000000000000000000000000000000000000000081526004016116e7906142dc565b60405180910390fd5b6000816003015411611737576040517f08c379a000000000000000000000000000000000000000000000000000000000815260040161172e906143fc565b60405180910390fd5b615dc081600301548461174a9190614630565b1061178a576040517f08c379a00000000000000000000000000000000000000000000000000000000081526004016117819061447c565b60405180910390fd5b6000805b615dc0811015611800576001600e60008381526020019081526020016000206000015414156117bc576117ed565b6117c581612461565b6117cf338261267f565b8260030154826117de9061485e565b92508214156117ec57611800565b5b80806117f89061485e565b91505061178e565b5060008260030181905550505050506001600a819055505050565b6118236123a0565b73ffffffffffffffffffffffffffffffffffffffff168273ffffffffffffffffffffffffffffffffffffffff161415611891576040517f08c379a0000000000000000000000000000000000000000000000000000000008152600401611888906142bc565b60405180910390fd5b806005600061189e6123a0565b73ffffffffffffffffffffffffffffffffffffffff1673ffffffffffffffffffffffffffffffffffffffff16815260200190815260200160002060008473ffffffffffffffffffffffffffffffffffffffff1673ffffffffffffffffffffffffffffffffffffffff16815260200190815260200160002060006101000a81548160ff0219169083151502179055508173ffffffffffffffffffffffffffffffffffffffff1661194b6123a0565b73ffffffffffffffffffffffffffffffffffffffff167f17307eab39ab6107e8899845ad3d59bd9653f200f220920489ca2b5937696c318360405161199091906141bf565b60405180910390a35050565b6119ad6119a76123a0565b8361269d565b6119ec576040517f08c379a00000000000000000000000000000000000000000000000000000000081526004016119e3906144bc565b60405180910390fd5b6119f884848484612bae565b50505050565b611a066123a0565b73ffffffffffffffffffffffffffffffffffffffff16611a2461133c565b73ffffffffffffffffffffffffffffffffffffffff1614611a7a576040517f08c379a0000000000000000000000000000000000000000000000000000000008152600401611a719061441c565b60405180910390fd5b80600d60006101000a81548160ff02191690831515021790555050565b60606000600e6000848152602001908152602001600020604051806101400160405290816000820154815260200160018201548152602001600282015481526020016003820154815260200160048201548152602001600582015481526020016006820154815260200160078201548152602001600882015481526020016009820154815250509050611b286137ce565b60006040518060a001604052806062815260200161529860629139828280611b4f9061485e565b935060408110611b6257611b61614994565b5b602002018190525060405180608001604052806047815260200161533a60479139828280611b8f9061485e565b935060408110611ba257611ba1614994565b5b60200201819052506040518060800160405280604e815260200161521a604e9139828280611bcf9061485e565b935060408110611be257611be1614994565b5b602002018190525060405180606001604052806030815260200161526860309139828280611c0f9061485e565b935060408110611c2257611c21614994565b5b60200201819052506040518060600160405280602681526020016151f460269139828280611c4f9061485e565b935060408110611c6257611c61614994565b5b60200201819052506040518060400160405280600881526020017f47656e6465723a09000000000000000000000000000000000000000000000000815250828280611cac9061485e565b935060408110611cbf57611cbe614994565b5b60200201819052506000836020015114611d0e576040518060400160405280600481526020017f4d616c6500000000000000000000000000000000000000000000000000000000815250611d45565b6040518060400160405280600681526020017f46656d616c6500000000000000000000000000000000000000000000000000008152505b828280611d519061485e565b935060408110611d6457611d63614994565b5b6020020181905250600083602001511415611e4b576040518060600160405280602e8152602001615381602e9139828280611d9e9061485e565b935060408110611db157611db0614994565b5b60200201819052506040518060400160405280600f81526020017f4d61784f6666737072696e67733a090000000000000000000000000000000000815250828280611dfb9061485e565b935060408110611e0e57611e0d614994565b5b6020020181905250611e238360600151612c0a565b828280611e2f9061485e565b935060408110611e4257611e41614994565b5b60200201819052505b6040518060400160405280600d81526020017f3c2f746578743e3c2f7376673e00000000000000000000000000000000000000815250828280611e8d9061485e565b935060408110611ea057611e9f614994565b5b6020020181905250600060405180602001604052806000815250905060005b82811015611f135781848260408110611edb57611eda614994565b5b6020020151604051602001611ef19291906140cd565b604051602081830303815290604052915080611f0c9061485e565b9050611ebf565b506000611f50611f2288612c0a565b611f2b84612d6b565b604051602001611f3c929190614113565b604051602081830303815290604052612d6b565b905080604051602001611f6391906140f1565b60405160208183030381529060405291508195505050505050919050565b611f896123a0565b73ffffffffffffffffffffffffffffffffffffffff16611fa761133c565b73ffffffffffffffffffffffffffffffffffffffff1614611ffd576040517f08c379a0000000000000000000000000000000000000000000000000000000008152600401611ff49061441c565b60405180910390fd5b80600d60026101000a81548160ff02191690831515021790555050565b600d60029054906101000a900460ff1681565b6120356123a0565b73ffffffffffffffffffffffffffffffffffffffff1661205361133c565b73ffffffffffffffffffffffffffffffffffffffff16146120a9576040517f08c379a00000000000000000000000000000000000000000000000000000000081526004016120a09061441c565b60405180910390fd5b80600d60016101000a81548160ff02191690831515021790555050565b6000600560008473ffffffffffffffffffffffffffffffffffffffff1673ffffffffffffffffffffffffffffffffffffffff16815260200190815260200160002060008373ffffffffffffffffffffffffffffffffffffffff1673ffffffffffffffffffffffffffffffffffffffff16815260200190815260200160002060009054906101000a900460ff16905092915050565b6121626123a0565b73ffffffffffffffffffffffffffffffffffffffff1661218061133c565b73ffffffffffffffffffffffffffffffffffffffff16146121d6576040517f08c379a00000000000000000000000000000000000000000000000000000000081526004016121cd9061441c565b60405180910390fd5b600073ffffffffffffffffffffffffffffffffffffffff168173ffffffffffffffffffffffffffffffffffffffff161415612246576040517f08c379a000000000000000000000000000000000000000000000000000000000815260040161223d9061425c565b60405180910390fd5b61224f81612ae8565b50565b60007f80ac58cd000000000000000000000000000000000000000000000000000000007bffffffffffffffffffffffffffffffffffffffffffffffffffffffff1916827bffffffffffffffffffffffffffffffffffffffffffffffffffffffff1916148061231d57507f5b5e139f000000000000000000000000000000000000000000000000000000007bffffffffffffffffffffffffffffffffffffffffffffffffffffffff1916827bffffffffffffffffffffffffffffffffffffffffffffffffffffffff1916145b8061232d575061232c82612f03565b5b9050919050565b60008073ffffffffffffffffffffffffffffffffffffffff166002600084815260200190815260200160002060009054906101000a900473ffffffffffffffffffffffffffffffffffffffff1673ffffffffffffffffffffffffffffffffffffffff1614159050919050565b600033905090565b816004600083815260200190815260200160002060006101000a81548173ffffffffffffffffffffffffffffffffffffffff021916908373ffffffffffffffffffffffffffffffffffffffff160217905550808273ffffffffffffffffffffffffffffffffffffffff1661241b83611137565b73ffffffffffffffffffffffffffffffffffffffff167f8c5be1e5ebec7d5bd14f71427d1e84f3dd0314c0f7b2291e5b200ac8c7c3b92560405160405180910390a45050565b6000600e600083815260200190815260200160002090506001816000018190555060026124c3836040518060400160405280600681526020017f47454e4445520000000000000000000000000000000000000000000000000000815250612f6d565b6124cd91906148a7565b8160010181905550600c612516836040518060400160405280600881526020017f4449535452494354000000000000000000000000000000000000000000000000815250612f6d565b61252091906148a7565b600161252c9190614630565b8160020181905550600081600101541415612595576009612582836040518060400160405280600a81526020017f4f4646535052494e475300000000000000000000000000000000000000000000815250612f6d565b61258c91906148a7565b81600301819055505b60046125d6836040518060400160405280600781526020017f48554e54494e4700000000000000000000000000000000000000000000000000815250612f6d565b82600801546125e59190614630565b6125ef91906148a7565b60016125fb9190614630565b81600401819055506004612644836040518060400160405280600781526020017f495153434f524500000000000000000000000000000000000000000000000000815250612f6d565b82600801546126539190614630565b61265d91906148a7565b60016126699190614630565b8160050181905550600081600901819055505050565b612699828260405180602001604052806000815250612fa9565b5050565b60006126a882612334565b6126e7576040517f08c379a00000000000000000000000000000000000000000000000000000000081526004016126de906142fc565b60405180910390fd5b60006126f283611137565b90508073ffffffffffffffffffffffffffffffffffffffff168473ffffffffffffffffffffffffffffffffffffffff16148061276157508373ffffffffffffffffffffffffffffffffffffffff1661274984610879565b73ffffffffffffffffffffffffffffffffffffffff16145b80612772575061277181856120c6565b5b91505092915050565b8273ffffffffffffffffffffffffffffffffffffffff1661279b82611137565b73ffffffffffffffffffffffffffffffffffffffff16146127f1576040517f08c379a00000000000000000000000000000000000000000000000000000000081526004016127e89061443c565b60405180910390fd5b600073ffffffffffffffffffffffffffffffffffffffff168273ffffffffffffffffffffffffffffffffffffffff161415612861576040517f08c379a00000000000000000000000000000000000000000000000000000000081526004016128589061429c565b60405180910390fd5b61286c838383613004565b6128776000826123a8565b6001600360008573ffffffffffffffffffffffffffffffffffffffff1673ffffffffffffffffffffffffffffffffffffffff16815260200190815260200160002060008282546128c79190614711565b925050819055506001600360008473ffffffffffffffffffffffffffffffffffffffff1673ffffffffffffffffffffffffffffffffffffffff168152602001908152602001600020600082825461291e9190614630565b92505081905550816002600083815260200190815260200160002060006101000a81548173ffffffffffffffffffffffffffffffffffffffff021916908373ffffffffffffffffffffffffffffffffffffffff160217905550808273ffffffffffffffffffffffffffffffffffffffff168473ffffffffffffffffffffffffffffffffffffffff167fddf252ad1be2c89b69c2b068fc378daa952ba7f163c4a11628f55a4df523b3ef60405160405180910390a4505050565b60006129e282611137565b90506129f081600084613004565b6129fb6000836123a8565b6001600360008373ffffffffffffffffffffffffffffffffffffffff1673ffffffffffffffffffffffffffffffffffffffff1681526020019081526020016000206000828254612a4b9190614711565b925050819055506002600083815260200190815260200160002060006101000a81549073ffffffffffffffffffffffffffffffffffffffff021916905581600073ffffffffffffffffffffffffffffffffffffffff168273ffffffffffffffffffffffffffffffffffffffff167fddf252ad1be2c89b69c2b068fc378daa952ba7f163c4a11628f55a4df523b3ef60405160405180910390a45050565b6000600b60009054906101000a900473ffffffffffffffffffffffffffffffffffffffff16905081600b60006101000a81548173ffffffffffffffffffffffffffffffffffffffff021916908373ffffffffffffffffffffffffffffffffffffffff1602179055508173ffffffffffffffffffffffffffffffffffffffff168173ffffffffffffffffffffffffffffffffffffffff167f8be0079c531659141344cd1fd0a4f28419497f9722a3daafe3b4186f6b6457e060405160405180910390a35050565b612bb984848461277b565b612bc584848484613118565b612c04576040517f08c379a0000000000000000000000000000000000000000000000000000000008152600401612bfb9061423c565b60405180910390fd5b50505050565b60606000821415612c52576040518060400160405280600181526020017f30000000000000000000000000000000000000000000000000000000000000008152509050612d66565b600082905060005b60008214612c84578080612c6d9061485e565b915050600a82612c7d9190614686565b9150612c5a565b60008167ffffffffffffffff811115612ca057612c9f6149c3565b5b6040519080825280601f01601f191660200182016040528015612cd25781602001600182028036833780820191505090505b5090505b60008514612d5f57600182612ceb9190614711565b9150600a85612cfa91906148a7565b6030612d069190614630565b60f81b818381518110612d1c57612d1b614994565b5b60200101907effffffffffffffffffffffffffffffffffffffffffffffffffffffffffffff1916908160001a905350600a85612d589190614686565b9450612cd6565b8093505050505b919050565b60606000825190506000811415612d945760405180602001604052806000815250915050612efe565b60006003600283612da59190614630565b612daf9190614686565b6004612dbb91906146b7565b90506000602082612dcc9190614630565b67ffffffffffffffff811115612de557612de46149c3565b5b6040519080825280601f01601f191660200182016040528015612e175781602001600182028036833780820191505090505b50905060006040518060600160405280604081526020016152fa604091399050600181016020830160005b86811015612ebb5760038101905062ffffff818a015116603f8160121c168401518060081b905060ff603f83600c1c1686015116810190508060081b905060ff603f8360061c1686015116810190508060081b905060ff603f831686015116810190508060e01b90508084526004840193505050612e42565b506003860660018114612ed55760028114612ee557612ef0565b613d3d60f01b6002830352612ef0565b603d60f81b60018303525b508484525050819450505050505b919050565b60007f01ffc9a7000000000000000000000000000000000000000000000000000000007bffffffffffffffffffffffffffffffffffffffffffffffffffffffff1916827bffffffffffffffffffffffffffffffffffffffffffffffffffffffff1916149050919050565b6000612fa182612f7c85612c0a565b604051602001612f8d9291906140cd565b6040516020818303038152906040526132af565b905092915050565b612fb383836132e2565b612fc06000848484613118565b612fff576040517f08c379a0000000000000000000000000000000000000000000000000000000008152600401612ff69061423c565b60405180910390fd5b505050565b61300f8383836134b0565b600073ffffffffffffffffffffffffffffffffffffffff168373ffffffffffffffffffffffffffffffffffffffff1614156130525761304d816134b5565b613091565b8173ffffffffffffffffffffffffffffffffffffffff168373ffffffffffffffffffffffffffffffffffffffff16146130905761308f83826134fe565b5b5b600073ffffffffffffffffffffffffffffffffffffffff168273ffffffffffffffffffffffffffffffffffffffff1614156130d4576130cf8161366b565b613113565b8273ffffffffffffffffffffffffffffffffffffffff168273ffffffffffffffffffffffffffffffffffffffff161461311257613111828261373c565b5b5b505050565b60006131398473ffffffffffffffffffffffffffffffffffffffff166137bb565b156132a2578373ffffffffffffffffffffffffffffffffffffffff1663150b7a026131626123a0565b8786866040518563ffffffff1660e01b81526004016131849493929190614173565b602060405180830381600087803b15801561319e57600080fd5b505af19250505080156131cf57506040513d601f19601f820116820180604052508101906131cc9190613aec565b60015b613252573d80600081146131ff576040519150601f19603f3d011682016040523d82523d6000602084013e613204565b606091505b5060008151141561324a576040517f08c379a00000000000000000000000000000000000000000000000000000000081526004016132419061423c565b60405180910390fd5b805181602001fd5b63150b7a0260e01b7bffffffffffffffffffffffffffffffffffffffffffffffffffffffff1916817bffffffffffffffffffffffffffffffffffffffffffffffffffffffff1916149150506132a7565b600190505b949350505050565b6000816040516020016132c291906140b6565b6040516020818303038152906040528051906020012060001c9050919050565b600073ffffffffffffffffffffffffffffffffffffffff168273ffffffffffffffffffffffffffffffffffffffff161415613352576040517f08c379a00000000000000000000000000000000000000000000000000000000081526004016133499061439c565b60405180910390fd5b61335b81612334565b1561339b576040517f08c379a00000000000000000000000000000000000000000000000000000000081526004016133929061427c565b60405180910390fd5b6133a760008383613004565b6001600360008473ffffffffffffffffffffffffffffffffffffffff1673ffffffffffffffffffffffffffffffffffffffff16815260200190815260200160002060008282546133f79190614630565b92505081905550816002600083815260200190815260200160002060006101000a81548173ffffffffffffffffffffffffffffffffffffffff021916908373ffffffffffffffffffffffffffffffffffffffff160217905550808273ffffffffffffffffffffffffffffffffffffffff16600073ffffffffffffffffffffffffffffffffffffffff167fddf252ad1be2c89b69c2b068fc378daa952ba7f163c4a11628f55a4df523b3ef60405160405180910390a45050565b505050565b6008805490506009600083815260200190815260200160002081905550600881908060018154018082558091505060019003906000526020600020016000909190919091505550565b6000600161350b846111e9565b6135159190614711565b90506000600760008481526020019081526020016000205490508181146135fa576000600660008673ffffffffffffffffffffffffffffffffffffffff1673ffffffffffffffffffffffffffffffffffffffff168152602001908152602001600020600084815260200190815260200160002054905080600660008773ffffffffffffffffffffffffffffffffffffffff1673ffffffffffffffffffffffffffffffffffffffff168152602001908152602001600020600084815260200190815260200160002081905550816007600083815260200190815260200160002081905550505b6007600084815260200190815260200160002060009055600660008573ffffffffffffffffffffffffffffffffffffffff1673ffffffffffffffffffffffffffffffffffffffff16815260200190815260200160002060008381526020019081526020016000206000905550505050565b6000600160088054905061367f9190614711565b90506000600960008481526020019081526020016000205490506000600883815481106136af576136ae614994565b5b9060005260206000200154905080600883815481106136d1576136d0614994565b5b9060005260206000200181905550816009600083815260200190815260200160002081905550600960008581526020019081526020016000206000905560088054806137205761371f614965565b5b6001900381819060005260206000200160009055905550505050565b6000613747836111e9565b905081600660008573ffffffffffffffffffffffffffffffffffffffff1673ffffffffffffffffffffffffffffffffffffffff168152602001908152602001600020600083815260200190815260200160002081905550806007600084815260200190815260200160002081905550505050565b600080823b905060008111915050919050565b6040518061080001604052806040905b60608152602001906001900390816137de5790505090565b6000613809613804846145bc565b614597565b905082815260208101848484011115613825576138246149f7565b5b6138308482856147b9565b509392505050565b60008135905061384781615197565b92915050565b60008135905061385c816151ae565b92915050565b600081359050613871816151c5565b92915050565b600081519050613886816151c5565b92915050565b600082601f8301126138a1576138a06149f2565b5b81356138b18482602086016137f6565b91505092915050565b6000813590506138c9816151dc565b92915050565b6000602082840312156138e5576138e4614a01565b5b60006138f384828501613838565b91505092915050565b6000806040838503121561391357613912614a01565b5b600061392185828601613838565b925050602061393285828601613838565b9150509250929050565b60008060006060848603121561395557613954614a01565b5b600061396386828701613838565b935050602061397486828701613838565b9250506040613985868287016138ba565b9150509250925092565b600080600080608085870312156139a9576139a8614a01565b5b60006139b787828801613838565b94505060206139c887828801613838565b93505060406139d9878288016138ba565b925050606085013567ffffffffffffffff8111156139fa576139f96149fc565b5b613a068782880161388c565b91505092959194509250565b60008060408385031215613a2957613a28614a01565b5b6000613a3785828601613838565b9250506020613a488582860161384d565b9150509250929050565b60008060408385031215613a6957613a68614a01565b5b6000613a7785828601613838565b9250506020613a88858286016138ba565b9150509250929050565b600060208284031215613aa857613aa7614a01565b5b6000613ab68482850161384d565b91505092915050565b600060208284031215613ad557613ad4614a01565b5b6000613ae384828501613862565b91505092915050565b600060208284031215613b0257613b01614a01565b5b6000613b1084828501613877565b91505092915050565b600060208284031215613b2f57613b2e614a01565b5b6000613b3d848285016138ba565b91505092915050565b60008060408385031215613b5d57613b5c614a01565b5b6000613b6b858286016138ba565b9250506020613b7c858286016138ba565b9150509250929050565b613b8f81614745565b82525050565b613b9e81614757565b82525050565b6000613baf826145ed565b613bb98185614603565b9350613bc98185602086016147c8565b613bd281614a06565b840191505092915050565b6000613be8826145f8565b613bf28185614614565b9350613c028185602086016147c8565b613c0b81614a06565b840191505092915050565b6000613c21826145f8565b613c2b8185614625565b9350613c3b8185602086016147c8565b80840191505092915050565b6000613c54600b83614614565b9150613c5f82614a17565b602082019050919050565b6000613c77602b83614614565b9150613c8282614a40565b604082019050919050565b6000613c9a603283614614565b9150613ca582614a8f565b604082019050919050565b6000613cbd602683614614565b9150613cc882614ade565b604082019050919050565b6000613ce0601c83614614565b9150613ceb82614b2d565b602082019050919050565b6000613d03602483614614565b9150613d0e82614b56565b604082019050919050565b6000613d26601983614614565b9150613d3182614ba5565b602082019050919050565b6000613d49601d83614614565b9150613d5482614bce565b602082019050919050565b6000613d6c602c83614614565b9150613d7782614bf7565b604082019050919050565b6000613d8f602783614614565b9150613d9a82614c46565b604082019050919050565b6000613db2603883614614565b9150613dbd82614c95565b604082019050919050565b6000613dd5602a83614614565b9150613de082614ce4565b604082019050919050565b6000613df8602983614614565b9150613e0382614d33565b604082019050919050565b6000613e1b600283614625565b9150613e2682614d82565b600282019050919050565b6000613e3e602083614614565b9150613e4982614dab565b602082019050919050565b6000613e61600e83614614565b9150613e6c82614dd4565b602082019050919050565b6000613e84602c83614614565b9150613e8f82614dfd565b604082019050919050565b6000613ea7600d83614614565b9150613eb282614e4c565b602082019050919050565b6000613eca602083614614565b9150613ed582614e75565b602082019050919050565b6000613eed602983614614565b9150613ef882614e9e565b604082019050919050565b6000613f10602183614614565b9150613f1b82614eed565b604082019050919050565b6000613f33601683614614565b9150613f3e82614f3c565b602082019050919050565b6000613f56601983614614565b9150613f6182614f65565b602082019050919050565b6000613f79601d83614625565b9150613f8482614f8e565b601d82019050919050565b6000613f9c601583614625565b9150613fa782614fb7565b601582019050919050565b6000613fbf603183614614565b9150613fca82614fe0565b604082019050919050565b6000613fe2602c83614614565b9150613fed8261502f565b604082019050919050565b6000614005600d83614614565b91506140108261507e565b602082019050919050565b6000614028601a83614614565b9150614033826150a7565b602082019050919050565b600061404b601f83614614565b9150614056826150d0565b602082019050919050565b600061406e605c83614625565b9150614079826150f9565b605c82019050919050565b6000614091600e83614614565b915061409c8261516e565b602082019050919050565b6140b0816147af565b82525050565b60006140c28284613c16565b915081905092915050565b60006140d98285613c16565b91506140e58284613c16565b91508190509392505050565b60006140fc82613f6c565b91506141088284613c16565b915081905092915050565b600061411e82613f8f565b915061412a8285613c16565b915061413582614061565b91506141418284613c16565b915061414c82613e0e565b91508190509392505050565b600060208201905061416d6000830184613b86565b92915050565b60006080820190506141886000830187613b86565b6141956020830186613b86565b6141a260408301856140a7565b81810360608301526141b48184613ba4565b905095945050505050565b60006020820190506141d46000830184613b95565b92915050565b600060208201905081810360008301526141f48184613bdd565b905092915050565b6000602082019050818103600083015261421581613c47565b9050919050565b6000602082019050818103600083015261423581613c6a565b9050919050565b6000602082019050818103600083015261425581613c8d565b9050919050565b6000602082019050818103600083015261427581613cb0565b9050919050565b6000602082019050818103600083015261429581613cd3565b9050919050565b600060208201905081810360008301526142b581613cf6565b9050919050565b600060208201905081810360008301526142d581613d19565b9050919050565b600060208201905081810360008301526142f581613d3c565b9050919050565b6000602082019050818103600083015261431581613d5f565b9050919050565b6000602082019050818103600083015261433581613d82565b9050919050565b6000602082019050818103600083015261435581613da5565b9050919050565b6000602082019050818103600083015261437581613dc8565b9050919050565b6000602082019050818103600083015261439581613deb565b9050919050565b600060208201905081810360008301526143b581613e31565b9050919050565b600060208201905081810360008301526143d581613e54565b9050919050565b600060208201905081810360008301526143f581613e77565b9050919050565b6000602082019050818103600083015261441581613e9a565b9050919050565b6000602082019050818103600083015261443581613ebd565b9050919050565b6000602082019050818103600083015261445581613ee0565b9050919050565b6000602082019050818103600083015261447581613f03565b9050919050565b6000602082019050818103600083015261449581613f26565b9050919050565b600060208201905081810360008301526144b581613f49565b9050919050565b600060208201905081810360008301526144d581613fb2565b9050919050565b600060208201905081810360008301526144f581613fd5565b9050919050565b6000602082019050818103600083015261451581613ff8565b9050919050565b600060208201905081810360008301526145358161401b565b9050919050565b600060208201905081810360008301526145558161403e565b9050919050565b6000602082019050818103600083015261457581614084565b9050919050565b600060208201905061459160008301846140a7565b92915050565b60006145a16145b2565b90506145ad828261482d565b919050565b6000604051905090565b600067ffffffffffffffff8211156145d7576145d66149c3565b5b6145e082614a06565b9050602081019050919050565b600081519050919050565b600081519050919050565b600082825260208201905092915050565b600082825260208201905092915050565b600081905092915050565b600061463b826147af565b9150614646836147af565b9250827fffffffffffffffffffffffffffffffffffffffffffffffffffffffffffffffff0382111561467b5761467a6148d8565b5b828201905092915050565b6000614691826147af565b915061469c836147af565b9250826146ac576146ab614907565b5b828204905092915050565b60006146c2826147af565b91506146cd836147af565b9250817fffffffffffffffffffffffffffffffffffffffffffffffffffffffffffffffff0483118215151615614706576147056148d8565b5b828202905092915050565b600061471c826147af565b9150614727836147af565b92508282101561473a576147396148d8565b5b828203905092915050565b60006147508261478f565b9050919050565b60008115159050919050565b60007fffffffff0000000000000000000000000000000000000000000000000000000082169050919050565b600073ffffffffffffffffffffffffffffffffffffffff82169050919050565b6000819050919050565b82818337600083830152505050565b60005b838110156147e65780820151818401526020810190506147cb565b838111156147f5576000848401525b50505050565b6000600282049050600182168061481357607f821691505b6020821081141561482757614826614936565b5b50919050565b61483682614a06565b810181811067ffffffffffffffff82111715614855576148546149c3565b5b80604052505050565b6000614869826147af565b91507fffffffffffffffffffffffffffffffffffffffffffffffffffffffffffffffff82141561489c5761489b6148d8565b5b600182019050919050565b60006148b2826147af565b91506148bd836147af565b9250826148cd576148cc614907565b5b828206905092915050565b7f4e487b7100000000000000000000000000000000000000000000000000000000600052601160045260246000fd5b7f4e487b7100000000000000000000000000000000000000000000000000000000600052601260045260246000fd5b7f4e487b7100000000000000000000000000000000000000000000000000000000600052602260045260246000fd5b7f4e487b7100000000000000000000000000000000000000000000000000000000600052603160045260246000fd5b7f4e487b7100000000000000000000000000000000000000000000000000000000600052603260045260246000fd5b7f4e487b7100000000000000000000000000000000000000000000000000000000600052604160045260246000fd5b600080fd5b600080fd5b600080fd5b600080fd5b6000601f19601f8301169050919050565b7f53616c6520706175736564000000000000000000000000000000000000000000600082015250565b7f455243373231456e756d657261626c653a206f776e657220696e646578206f7560008201527f74206f6620626f756e6473000000000000000000000000000000000000000000602082015250565b7f4552433732313a207472616e7366657220746f206e6f6e20455243373231526560008201527f63656976657220696d706c656d656e7465720000000000000000000000000000602082015250565b7f4f776e61626c653a206e6577206f776e657220697320746865207a65726f206160008201527f6464726573730000000000000000000000000000000000000000000000000000602082015250565b7f4552433732313a20746f6b656e20616c7265616479206d696e74656400000000600082015250565b7f4552433732313a207472616e7366657220746f20746865207a65726f2061646460008201527f7265737300000000000000000000000000000000000000000000000000000000602082015250565b7f4552433732313a20617070726f766520746f2063616c6c657200000000000000600082015250565b7f7365636f6e6420746f6b656e2073686f756c642062652066656d616c65000000600082015250565b7f4552433732313a206f70657261746f7220717565727920666f72206e6f6e657860008201527f697374656e7420746f6b656e0000000000000000000000000000000000000000602082015250565b7f596f752063616e2061646f70742061206d6178696d756d206f6620323020487560008201527f6e67657269746500000000000000000000000000000000000000000000000000602082015250565b7f4552433732313a20617070726f76652063616c6c6572206973206e6f74206f7760008201527f6e6572206e6f7220617070726f76656420666f7220616c6c0000000000000000602082015250565b7f4552433732313a2062616c616e636520717565727920666f7220746865207a6560008201527f726f206164647265737300000000000000000000000000000000000000000000602082015250565b7f4552433732313a206f776e657220717565727920666f72206e6f6e657869737460008201527f656e7420746f6b656e0000000000000000000000000000000000000000000000602082015250565b7f227d000000000000000000000000000000000000000000000000000000000000600082015250565b7f4552433732313a206d696e7420746f20746865207a65726f2061646472657373600082015250565b7f6e6f7420617574686f72697a6564000000000000000000000000000000000000600082015250565b7f4552433732313a20617070726f76656420717565727920666f72206e6f6e657860008201527f697374656e7420746f6b656e0000000000000000000000000000000000000000602082015250565b7f6e6f206f6666737072696e677300000000000000000000000000000000000000600082015250565b7f4f776e61626c653a2063616c6c6572206973206e6f7420746865206f776e6572600082015250565b7f4552433732313a207472616e73666572206f6620746f6b656e2074686174206960008201527f73206e6f74206f776e0000000000000000000000000000000000000000000000602082015250565b7f4552433732313a20617070726f76616c20746f2063757272656e74206f776e6560008201527f7200000000000000000000000000000000000000000000000000000000000000602082015250565b7f45786365656473206d6178696d756d20737570706c7900000000000000000000600082015250565b7f45746865722073656e74206973206e6f7420636f727265637400000000000000600082015250565b7f646174613a6170706c69636174696f6e2f6a736f6e3b6261736536342c000000600082015250565b7f7b226e616d65223a202248756e67657269746520230000000000000000000000600082015250565b7f4552433732313a207472616e736665722063616c6c6572206973206e6f74206f60008201527f776e6572206e6f7220617070726f766564000000000000000000000000000000602082015250565b7f455243373231456e756d657261626c653a20676c6f62616c20696e646578206f60008201527f7574206f6620626f756e64730000000000000000000000000000000000000000602082015250565b7f4d6174696e672070617573656400000000000000000000000000000000000000600082015250565b7f666972737420746f6b656e2073686f756c64206265206d616c65000000000000600082015250565b7f5265656e7472616e637947756172643a207265656e7472616e742063616c6c00600082015250565b7f222c20226465736372697074696f6e223a202248756e6765725665727365206960008201527f7320612067616d65206f6620737572766976616c2e222c2022696d616765223a60208201527f2022646174613a696d6167652f7376672b786d6c3b6261736536342c00000000604082015250565b7f7265636c61696d20706175736564000000000000000000000000000000000000600082015250565b6151a081614745565b81146151ab57600080fd5b50565b6151b781614757565b81146151c257600080fd5b50565b6151ce81614763565b81146151d957600080fd5b50565b6151e5816147af565b81146151f057600080fd5b5056fe3c7465787420783d2231302220793d2236302220636c6173733d2262617365477265656e223e2e62617365477265656e207b2066696c6c3a20737072696e67677265656e3b20666f6e742d66616d696c793a2073657269663b20666f6e742d73697a653a20313670783b207d3c2f7374796c653e3c726563742077696474683d223130302522206865696768743d2231303025222066696c6c3d22626c61636b22202f3e3c73766720786d6c6e733d22687474703a2f2f7777772e77332e6f72672f323030302f73766722207072657365727665417370656374526174696f3d22784d696e594d696e206d656574222076696577426f783d223020302033353020333530223e4142434445464748494a4b4c4d4e4f505152535455565758595a6162636465666768696a6b6c6d6e6f707172737475767778797a303132333435363738392b2f3c7374796c653e2e626173655768697465207b2066696c6c3a2077686974653b20666f6e742d66616d696c793a2073657269663b20666f6e742d73697a653a20313670783b207d3c2f746578743e3c7465787420783d2231302220793d223130302220636c6173733d22626173655768697465223ea2646970667358221220b1b309f06df4aa385d542ef7435404b18b46994ac6b0635af7d2d372d019b6c064736f6c63430008070033",
  "immutableReferences": {},
  "source": "// SPDX-License-Identifier: MIT\n\npragma solidity ^0.8.0;\n\nimport \"./FullERC721.sol\";\n\ncontract HungerVerse is ERC721Enumerable, ReentrancyGuard, Ownable {\n\n\tstruct PlayerInfo {\n        uint256 state;       //0 - burnt, 1 - active\n\t\tuint256 gender;      //0 - FEMALE, 1 - MALE\n        uint256 district;    //1 to 12\n\n        //only for females\n        uint256 offsprings;  // 0 to 8\n\n        //gifted = 4, above average = 3, average = 2, below average = 1\n        uint256 huntingSkills;\n        uint256 IQ;\n        uint256 likes;\n\n        uint256 wins;\n        uint256 burns;\n        uint256 winsSinceLastBurn;\n\t}\n\t\n    uint256 private _price = 0.05 ether;\n    bool public _paused = true;\n    bool public _matingPaused = true;\n    bool public _reclaimPaused = true;\n\n\tmapping (uint256 => PlayerInfo) private _tokenId2Player;\n\n    constructor() ERC721(\"HungerVerse\", \"HUNGER\") Ownable() {\n\t}\n\n\tfunction generatePlayer(uint256 tokenId) internal {\n\t\tPlayerInfo storage player = _tokenId2Player[tokenId];   //by reference\n\n        player.state = 1;\n        player.gender = pluck(tokenId, \"GENDER\") % 2;\n        player.district = 1 + pluck(tokenId, \"DISTRICT\") % 12;\n        if(player.gender == 0) {\n            player.offsprings = pluck(tokenId, \"OFFSPRINGS\") % 9;\n        }\n        player.huntingSkills = 1 + (player.burns + pluck(tokenId, \"HUNTING\")) % 4;\n        player.IQ = 1 + (player.burns + pluck(tokenId, \"IQSCORE\")) % 4;\n        player.winsSinceLastBurn = 0;\n\t}\n\n    function random(string memory input) internal pure returns (uint256) {\n        return uint256(keccak256(abi.encodePacked(input)));\n    }\n\n    function pluck(uint256 tokenId, string memory keyPrefix) internal pure returns (uint256) {\n        return random(string(abi.encodePacked(keyPrefix, Strings.toString(tokenId))));\n    }\n\n    function tokenURI(uint256 tokenId) override public view returns (string memory) {\n\n        PlayerInfo memory player = _tokenId2Player[tokenId];\n\n        string[64] memory parts;\n\t\tuint256 counter = 0;\n        parts[counter++] = '<svg xmlns=\"http://www.w3.org/2000/svg\" preserveAspectRatio=\"xMinYMin meet\" viewBox=\"0 0 350 350\">';\n\t\tparts[counter++] = '<style>.baseWhite { fill: white; font-family: serif; font-size: 16px; }';\n\t\tparts[counter++] = '.baseGreen { fill: springgreen; font-family: serif; font-size: 16px; }</style>';\n\t\tparts[counter++] = '<rect width=\"100%\" height=\"100%\" fill=\"black\" />';\n        parts[counter++] = '<text x=\"10\" y=\"60\" class=\"baseGreen\">';\n        parts[counter++] = \"Gender:\\t\";\n        parts[counter++] = (player.gender == 0 ? \"Female\" : \"Male\");\n        if(player.gender == 0) {\n            parts[counter++] = '</text><text x=\"10\" y=\"100\" class=\"baseWhite\">';\n            parts[counter++] = \"MaxOffsprings:\\t\";\n            parts[counter++] = Strings.toString(player.offsprings);\n        }\n\n        parts[counter++] = '</text></svg>';\n\n        string memory output = \"\";\n\t\tfor(uint256 i = 0; i < counter; ++i)\n\t\t{\n\t\t\toutput = string(abi.encodePacked(output, parts[i]));\n\t\t}\n\n        string memory json = Base64.encode(bytes(string(abi.encodePacked('{\"name\": \"Hungerite #', Strings.toString(tokenId), '\", \"description\": \"HungerVerse is a game of survival.\", \"image\": \"data:image/svg+xml;base64,', Base64.encode(bytes(output)), '\"}'))));\n        output = string(abi.encodePacked('data:application/json;base64,', json));\n\n        return output;\n    }\n\n    function ownHungerites(uint256 num) public nonReentrant payable {\n        uint256 supply = totalSupply();\n        require(!_paused, \"Sale paused\");\n        require(num > 0 && num < 21, \"You can adopt a maximum of 20 Hungerite\");\n        require(supply + num < 24000, \"Exceeds maximum supply\");\n        require(msg.value >= _price * num, \"Ether sent is not correct\");\n\n        for(uint256 i = 0; i < num; i++) {\n            generatePlayer(supply + i);\n            _safeMint(msg.sender, supply + i);\n        }\n    }\n    function reclaimHungerites(uint256 num) public nonReentrant payable {\n        uint256 supply = totalSupply();\n        require(!_reclaimPaused, \"reclaim paused\");\n        require(num > 0 && num < 21, \"You can adopt a maximum of 20 Hungerite\");\n        require(supply + num < 24000, \"Exceeds maximum supply\");\n        require(msg.value >= _price * num, \"Ether sent is not correct\");\n\n        uint256 count = 0;\n        for(uint256 i = 0; i < 24000; i++) {\n            if(_tokenId2Player[i].state == 1) continue;\n            generatePlayer(i);\n            _safeMint(msg.sender, i);\n            if(++count == num) break;\n        }\n    }\n    function mate(uint256 tokenIdM, uint256 tokenIdF) public nonReentrant {\n        uint256 supply = totalSupply();\n        require(!_matingPaused, \"Mating paused\");\n        require(_isApprovedOrOwner(msg.sender, tokenIdM), \"not authorized\");\n        require(_isApprovedOrOwner(msg.sender, tokenIdF), \"not authorized\");\n        PlayerInfo memory male = _tokenId2Player[tokenIdM];\n        require(male.gender == 1, \"first token should be male\");\n        PlayerInfo storage female = _tokenId2Player[tokenIdF];\n        require(female.gender == 0, \"second token should be female\");\n        require(female.offsprings > 0, \"no offsprings\");\n        require(supply + female.offsprings < 24000, \"Exceeds maximum supply\");\n\n        uint256 count = 0;\n        for(uint256 i; i < 24000; i++) {\n            if(_tokenId2Player[i].state == 1) continue;\n            generatePlayer(i);\n            _safeMint(msg.sender, i);\n            if(++count == female.offsprings) break;\n        }\n        female.offsprings = 0;\n    }\n    function burn(uint256 tokenId) public {\n        require(_isApprovedOrOwner(msg.sender, tokenId), \"not authorized\");\n        PlayerInfo storage player = _tokenId2Player[tokenId];\n        player.state = 0;\n        player.burns++;\n        _burn(tokenId);\n    }\n    function setPrice(uint256 _newPrice) public onlyOwner {\n        _price = _newPrice;\n    }\n    function getPrice() public view returns (uint256) {\n        return _price;\n    }\n    function setPause(bool val) public onlyOwner {\n        _paused = val;\n    }\n    function setMatingPause(bool val) public onlyOwner {\n        _matingPaused = val;\n    }\n    function setReclaimPause(bool val) public onlyOwner {\n        _reclaimPaused = val;\n    }\n    function withdraw() public payable onlyOwner {\n        address ownerAddress = 0x4aF0BB035FfB1CbEFA550530917e151a53034d70;\n        require(payable(ownerAddress).send(address(this).balance));\n    }\n}\n",
  "sourcePath": "/home/ec2-user/github/fcc-dapp/src/contracts/HungerVerse.sol",
  "compiler": {
    "name": "solc",
    "version": "0.8.7+commit.e28d00a7.Emscripten.clang"
  },
  "schemaVersion": "3.4.3",
  "updatedAt": "2022-01-04T01:30:00.925Z",
  "devdoc": {
    "kind": "dev",
    "methods": {
      "approve(address,uint256)": {
        "details": "See {IERC721-approve}."
      },
      "balanceOf(address)": {
        "details": "See {IERC721-balanceOf}."
      },
      "getApproved(uint256)": {
        "details": "See {IERC721-getApproved}."
      },
      "isApprovedForAll(address,address)": {
        "details": "See {IERC721-isApprovedForAll}."
      },
      "name()": {
        "details": "See {IERC721Metadata-name}."
      },
      "owner()": {
        "details": "Returns the address of the current owner."
      },
      "ownerOf(uint256)": {
        "details": "See {IERC721-ownerOf}."
      },
      "renounceOwnership()": {
        "details": "Leaves the contract without owner. It will not be possible to call `onlyOwner` functions anymore. Can only be called by the current owner. NOTE: Renouncing ownership will leave the contract without an owner, thereby removing any functionality that is only available to the owner."
      },
      "safeTransferFrom(address,address,uint256)": {
        "details": "See {IERC721-safeTransferFrom}."
      },
      "safeTransferFrom(address,address,uint256,bytes)": {
        "details": "See {IERC721-safeTransferFrom}."
      },
      "setApprovalForAll(address,bool)": {
        "details": "See {IERC721-setApprovalForAll}."
      },
      "supportsInterface(bytes4)": {
        "details": "See {IERC165-supportsInterface}."
      },
      "symbol()": {
        "details": "See {IERC721Metadata-symbol}."
      },
      "tokenByIndex(uint256)": {
        "details": "See {IERC721Enumerable-tokenByIndex}."
      },
      "tokenOfOwnerByIndex(address,uint256)": {
        "details": "See {IERC721Enumerable-tokenOfOwnerByIndex}."
      },
      "tokenURI(uint256)": {
        "details": "See {IERC721Metadata-tokenURI}."
      },
      "totalSupply()": {
        "details": "See {IERC721Enumerable-totalSupply}."
      },
      "transferFrom(address,address,uint256)": {
        "details": "See {IERC721-transferFrom}."
      },
      "transferOwnership(address)": {
        "details": "Transfers ownership of the contract to a new account (`newOwner`). Can only be called by the current owner."
      }
    },
    "version": 1
  },
  "userdoc": {
    "kind": "user",
    "methods": {},
    "version": 1
  }
}