{
  "contractName": "HungerVerse",
  "abi": [
    {
      "inputs": [],
      "stateMutability": "nonpayable",
      "type": "constructor"
    },
    {
      "anonymous": false,
      "inputs": [
        {
          "indexed": true,
          "internalType": "address",
          "name": "owner",
          "type": "address"
        },
        {
          "indexed": true,
          "internalType": "address",
          "name": "approved",
          "type": "address"
        },
        {
          "indexed": true,
          "internalType": "uint256",
          "name": "tokenId",
          "type": "uint256"
        }
      ],
      "name": "Approval",
      "type": "event"
    },
    {
      "anonymous": false,
      "inputs": [
        {
          "indexed": true,
          "internalType": "address",
          "name": "owner",
          "type": "address"
        },
        {
          "indexed": true,
          "internalType": "address",
          "name": "operator",
          "type": "address"
        },
        {
          "indexed": false,
          "internalType": "bool",
          "name": "approved",
          "type": "bool"
        }
      ],
      "name": "ApprovalForAll",
      "type": "event"
    },
    {
      "anonymous": false,
      "inputs": [
        {
          "indexed": true,
          "internalType": "address",
          "name": "previousOwner",
          "type": "address"
        },
        {
          "indexed": true,
          "internalType": "address",
          "name": "newOwner",
          "type": "address"
        }
      ],
      "name": "OwnershipTransferred",
      "type": "event"
    },
    {
      "anonymous": false,
      "inputs": [
        {
          "indexed": true,
          "internalType": "address",
          "name": "from",
          "type": "address"
        },
        {
          "indexed": true,
          "internalType": "address",
          "name": "to",
          "type": "address"
        },
        {
          "indexed": true,
          "internalType": "uint256",
          "name": "tokenId",
          "type": "uint256"
        }
      ],
      "name": "Transfer",
      "type": "event"
    },
    {
      "inputs": [],
      "name": "_matingPaused",
      "outputs": [
        {
          "internalType": "bool",
          "name": "",
          "type": "bool"
        }
      ],
      "stateMutability": "view",
      "type": "function"
    },
    {
      "inputs": [],
      "name": "_paused",
      "outputs": [
        {
          "internalType": "bool",
          "name": "",
          "type": "bool"
        }
      ],
      "stateMutability": "view",
      "type": "function"
    },
    {
      "inputs": [],
      "name": "_price",
      "outputs": [
        {
          "internalType": "uint256",
          "name": "",
          "type": "uint256"
        }
      ],
      "stateMutability": "view",
      "type": "function"
    },
    {
      "inputs": [],
      "name": "_reclaimPaused",
      "outputs": [
        {
          "internalType": "bool",
          "name": "",
          "type": "bool"
        }
      ],
      "stateMutability": "view",
      "type": "function"
    },
    {
      "inputs": [
        {
          "internalType": "address",
          "name": "to",
          "type": "address"
        },
        {
          "internalType": "uint256",
          "name": "tokenId",
          "type": "uint256"
        }
      ],
      "name": "approve",
      "outputs": [],
      "stateMutability": "nonpayable",
      "type": "function"
    },
    {
      "inputs": [
        {
          "internalType": "address",
          "name": "owner",
          "type": "address"
        }
      ],
      "name": "balanceOf",
      "outputs": [
        {
          "internalType": "uint256",
          "name": "",
          "type": "uint256"
        }
      ],
      "stateMutability": "view",
      "type": "function"
    },
    {
      "inputs": [
        {
          "internalType": "uint256",
          "name": "tokenId",
          "type": "uint256"
        }
      ],
      "name": "getApproved",
      "outputs": [
        {
          "internalType": "address",
          "name": "",
          "type": "address"
        }
      ],
      "stateMutability": "view",
      "type": "function"
    },
    {
      "inputs": [],
      "name": "name",
      "outputs": [
        {
          "internalType": "string",
          "name": "",
          "type": "string"
        }
      ],
      "stateMutability": "view",
      "type": "function"
    },
    {
      "inputs": [],
      "name": "owner",
      "outputs": [
        {
          "internalType": "address",
          "name": "",
          "type": "address"
        }
      ],
      "stateMutability": "view",
      "type": "function"
    },
    {
      "inputs": [
        {
          "internalType": "uint256",
          "name": "tokenId",
          "type": "uint256"
        }
      ],
      "name": "ownerOf",
      "outputs": [
        {
          "internalType": "address",
          "name": "",
          "type": "address"
        }
      ],
      "stateMutability": "view",
      "type": "function"
    },
    {
      "inputs": [],
      "name": "renounceOwnership",
      "outputs": [],
      "stateMutability": "nonpayable",
      "type": "function"
    },
    {
      "inputs": [
        {
          "internalType": "address",
          "name": "from",
          "type": "address"
        },
        {
          "internalType": "address",
          "name": "to",
          "type": "address"
        },
        {
          "internalType": "uint256",
          "name": "tokenId",
          "type": "uint256"
        }
      ],
      "name": "safeTransferFrom",
      "outputs": [],
      "stateMutability": "nonpayable",
      "type": "function"
    },
    {
      "inputs": [
        {
          "internalType": "address",
          "name": "from",
          "type": "address"
        },
        {
          "internalType": "address",
          "name": "to",
          "type": "address"
        },
        {
          "internalType": "uint256",
          "name": "tokenId",
          "type": "uint256"
        },
        {
          "internalType": "bytes",
          "name": "_data",
          "type": "bytes"
        }
      ],
      "name": "safeTransferFrom",
      "outputs": [],
      "stateMutability": "nonpayable",
      "type": "function"
    },
    {
      "inputs": [
        {
          "internalType": "address",
          "name": "operator",
          "type": "address"
        },
        {
          "internalType": "bool",
          "name": "approved",
          "type": "bool"
        }
      ],
      "name": "setApprovalForAll",
      "outputs": [],
      "stateMutability": "nonpayable",
      "type": "function"
    },
    {
      "inputs": [
        {
          "internalType": "bytes4",
          "name": "interfaceId",
          "type": "bytes4"
        }
      ],
      "name": "supportsInterface",
      "outputs": [
        {
          "internalType": "bool",
          "name": "",
          "type": "bool"
        }
      ],
      "stateMutability": "view",
      "type": "function"
    },
    {
      "inputs": [],
      "name": "symbol",
      "outputs": [
        {
          "internalType": "string",
          "name": "",
          "type": "string"
        }
      ],
      "stateMutability": "view",
      "type": "function"
    },
    {
      "inputs": [
        {
          "internalType": "uint256",
          "name": "index",
          "type": "uint256"
        }
      ],
      "name": "tokenByIndex",
      "outputs": [
        {
          "internalType": "uint256",
          "name": "",
          "type": "uint256"
        }
      ],
      "stateMutability": "view",
      "type": "function"
    },
    {
      "inputs": [
        {
          "internalType": "address",
          "name": "owner",
          "type": "address"
        },
        {
          "internalType": "uint256",
          "name": "index",
          "type": "uint256"
        }
      ],
      "name": "tokenOfOwnerByIndex",
      "outputs": [
        {
          "internalType": "uint256",
          "name": "",
          "type": "uint256"
        }
      ],
      "stateMutability": "view",
      "type": "function"
    },
    {
      "inputs": [],
      "name": "totalSupply",
      "outputs": [
        {
          "internalType": "uint256",
          "name": "",
          "type": "uint256"
        }
      ],
      "stateMutability": "view",
      "type": "function"
    },
    {
      "inputs": [
        {
          "internalType": "address",
          "name": "from",
          "type": "address"
        },
        {
          "internalType": "address",
          "name": "to",
          "type": "address"
        },
        {
          "internalType": "uint256",
          "name": "tokenId",
          "type": "uint256"
        }
      ],
      "name": "transferFrom",
      "outputs": [],
      "stateMutability": "nonpayable",
      "type": "function"
    },
    {
      "inputs": [
        {
          "internalType": "address",
          "name": "newOwner",
          "type": "address"
        }
      ],
      "name": "transferOwnership",
      "outputs": [],
      "stateMutability": "nonpayable",
      "type": "function"
    },
    {
      "inputs": [
        {
          "internalType": "uint256",
          "name": "tokenId",
          "type": "uint256"
        }
      ],
      "name": "getPlayerInfo",
      "outputs": [
        {
          "internalType": "uint256",
          "name": "",
          "type": "uint256"
        },
        {
          "internalType": "uint256",
          "name": "",
          "type": "uint256"
        },
        {
          "internalType": "uint256",
          "name": "",
          "type": "uint256"
        },
        {
          "internalType": "uint256",
          "name": "",
          "type": "uint256"
        },
        {
          "internalType": "uint256",
          "name": "",
          "type": "uint256"
        },
        {
          "internalType": "uint256",
          "name": "",
          "type": "uint256"
        },
        {
          "internalType": "uint256",
          "name": "",
          "type": "uint256"
        },
        {
          "internalType": "uint256",
          "name": "",
          "type": "uint256"
        }
      ],
      "stateMutability": "view",
      "type": "function"
    },
    {
      "inputs": [
        {
          "internalType": "uint256",
          "name": "tokenId",
          "type": "uint256"
        }
      ],
      "name": "tokenURI",
      "outputs": [
        {
          "internalType": "string",
          "name": "",
          "type": "string"
        }
      ],
      "stateMutability": "view",
      "type": "function"
    },
    {
      "inputs": [
        {
          "internalType": "uint256",
          "name": "num",
          "type": "uint256"
        }
      ],
      "name": "own",
      "outputs": [],
      "stateMutability": "payable",
      "type": "function"
    },
    {
      "inputs": [
        {
          "internalType": "uint256",
          "name": "num",
          "type": "uint256"
        }
      ],
      "name": "reclaim",
      "outputs": [],
      "stateMutability": "payable",
      "type": "function"
    },
    {
      "inputs": [
        {
          "internalType": "uint256",
          "name": "tokenIdM",
          "type": "uint256"
        },
        {
          "internalType": "uint256",
          "name": "tokenIdF",
          "type": "uint256"
        }
      ],
      "name": "mate",
      "outputs": [],
      "stateMutability": "nonpayable",
      "type": "function"
    },
    {
      "inputs": [
        {
          "internalType": "uint256",
          "name": "tokenId",
          "type": "uint256"
        }
      ],
      "name": "like",
      "outputs": [],
      "stateMutability": "nonpayable",
      "type": "function"
    },
    {
      "inputs": [
        {
          "internalType": "bool",
          "name": "val",
          "type": "bool"
        }
      ],
      "name": "setMatingPause",
      "outputs": [],
      "stateMutability": "nonpayable",
      "type": "function"
    },
    {
      "inputs": [
        {
          "internalType": "bool",
          "name": "val",
          "type": "bool"
        }
      ],
      "name": "setReclaimPause",
      "outputs": [],
      "stateMutability": "nonpayable",
      "type": "function"
    },
    {
      "inputs": [
        {
          "internalType": "address",
          "name": "owner",
          "type": "address"
        },
        {
          "internalType": "address",
          "name": "operator",
          "type": "address"
        }
      ],
      "name": "isApprovedForAll",
      "outputs": [
        {
          "internalType": "bool",
          "name": "",
          "type": "bool"
        }
      ],
      "stateMutability": "view",
      "type": "function"
    },
    {
      "inputs": [
        {
          "internalType": "uint256",
          "name": "tokenId",
          "type": "uint256"
        }
      ],
      "name": "burn",
      "outputs": [],
      "stateMutability": "nonpayable",
      "type": "function"
    },
    {
      "inputs": [
        {
          "internalType": "uint256",
          "name": "tokenId",
          "type": "uint256"
        },
        {
          "internalType": "string",
          "name": "val",
          "type": "string"
        }
      ],
      "name": "setName",
      "outputs": [],
      "stateMutability": "nonpayable",
      "type": "function"
    },
    {
      "inputs": [
        {
          "internalType": "uint256",
          "name": "_newPrice",
          "type": "uint256"
        }
      ],
      "name": "setPrice",
      "outputs": [],
      "stateMutability": "nonpayable",
      "type": "function"
    },
    {
      "inputs": [
        {
          "internalType": "bool",
          "name": "val",
          "type": "bool"
        }
      ],
      "name": "setPause",
      "outputs": [],
      "stateMutability": "nonpayable",
      "type": "function"
    },
    {
      "inputs": [
        {
          "internalType": "address",
          "name": "val",
          "type": "address"
        }
      ],
      "name": "setOtherContract",
      "outputs": [],
      "stateMutability": "nonpayable",
      "type": "function"
    },
    {
      "inputs": [],
      "name": "withdraw",
      "outputs": [],
      "stateMutability": "payable",
      "type": "function"
    }
  ],
  "bytecode": "0x608060405260405180604001604052806040518060400160405280600681526020017f46656d616c65000000000000000000000000000000000000000000000000000081525081526020016040518060400160405280600481526020017f4d616c6500000000000000000000000000000000000000000000000000000000815250815250600b906002620000959291906200039c565b5060405180608001604052806040518060400160405280600d81526020017f42656c6f7720417665726167650000000000000000000000000000000000000081525081526020016040518060400160405280600781526020017f417665726167650000000000000000000000000000000000000000000000000081525081526020016040518060400160405280600d81526020017f41626f766520417665726167650000000000000000000000000000000000000081525081526020016040518060400160405280600681526020017f4769667465640000000000000000000000000000000000000000000000000000815250815250600c9060046200019d92919062000403565b5066b1a2bc2ec50000600d556001600e60006101000a81548160ff0219169083151502179055506001600e60016101000a81548160ff0219169083151502179055506001600e60026101000a81548160ff0219169083151502179055503480156200020757600080fd5b506040518060400160405280600b81526020017f48756e67657256657273650000000000000000000000000000000000000000008152506040518060400160405280600681526020017f48554e474552000000000000000000000000000000000000000000000000000081525081600090805190602001906200028c9291906200046a565b508060019080519060200190620002a59291906200046a565b505050620002c8620002bc620002ce60201b60201c565b620002d660201b60201c565b620005ed565b600033905090565b6000600a60009054906101000a900473ffffffffffffffffffffffffffffffffffffffff16905081600a60006101000a81548173ffffffffffffffffffffffffffffffffffffffff021916908373ffffffffffffffffffffffffffffffffffffffff1602179055508173ffffffffffffffffffffffffffffffffffffffff168173ffffffffffffffffffffffffffffffffffffffff167f8be0079c531659141344cd1fd0a4f28419497f9722a3daafe3b4186f6b6457e060405160405180910390a35050565b828054828255906000526020600020908101928215620003f0579160200282015b82811115620003ef578251829080519060200190620003de9291906200046a565b5091602001919060010190620003bd565b5b509050620003ff9190620004fb565b5090565b82805482825590600052602060002090810192821562000457579160200282015b8281111562000456578251829080519060200190620004459291906200046a565b509160200191906001019062000424565b5b509050620004669190620004fb565b5090565b828054620004789062000588565b90600052602060002090601f0160209004810192826200049c5760008555620004e8565b82601f10620004b757805160ff1916838001178555620004e8565b82800160010185558215620004e8579182015b82811115620004e7578251825591602001919060010190620004ca565b5b509050620004f7919062000523565b5090565b5b808211156200051f576000818162000515919062000542565b50600101620004fc565b5090565b5b808211156200053e57600081600090555060010162000524565b5090565b508054620005509062000588565b6000825580601f1062000564575062000585565b601f01602090049060005260206000209081019062000584919062000523565b5b50565b60006002820490506001821680620005a157607f821691505b60208210811415620005b857620005b7620005be565b5b50919050565b7f4e487b7100000000000000000000000000000000000000000000000000000000600052602260045260246000fd5b61617e80620005fd6000396000f3fe60806040526004361061020f5760003560e01c806384eb1f1111610118578063c87b56dd116100a0578063e86a45931161006f578063e86a45931461075c578063e985e9c514610785578063ea17532e146107c2578063f2fde38b14610806578063fe55932a1461082f5761020f565b8063c87b56dd146106a2578063d8eb356a146106df578063db4ec21a14610708578063e82935da146107335761020f565b80639c3f5237116100e75780639c3f5237146105e2578063a22cb4651461060b578063a912c43614610634578063b88d4fde14610650578063bedb86fb146106795761020f565b806384eb1f11146105385780638da5cb5b1461056357806391b7f5ed1461058e57806395d89b41146105b75761020f565b80632f745c591161019b57806342966c681161016a57806342966c68146104415780634f6ccce71461046a5780636352211e146104a757806370a08231146104e4578063715018a6146105215761020f565b80632f745c59146103a857806335a28f3e146103e55780633ccfd60b1461040e57806342842e0e146104185761020f565b806316c61ccc116101e257806316c61ccc146102e257806318160ddd1461030d578063235b6ea11461033857806323b872dd146103635780632dabbeed1461038c5761020f565b806301ffc9a71461021457806306fdde0314610251578063081812fc1461027c578063095ea7b3146102b9575b600080fd5b34801561022057600080fd5b5061023b600480360381019061023691906146a6565b610858565b6040516102489190614ddf565b60405180910390f35b34801561025d57600080fd5b506102666108d2565b6040516102739190614dfa565b60405180910390f35b34801561028857600080fd5b506102a3600480360381019061029e9190614700565b610964565b6040516102b09190614d78565b60405180910390f35b3480156102c557600080fd5b506102e060048036038101906102db9190614639565b6109e9565b005b3480156102ee57600080fd5b506102f7610b01565b6040516103049190614ddf565b60405180910390f35b34801561031957600080fd5b50610322610b14565b60405161032f919061517c565b60405180910390f35b34801561034457600080fd5b5061034d610b21565b60405161035a919061517c565b60405180910390f35b34801561036f57600080fd5b5061038a60048036038101906103859190614523565b610b27565b005b6103a660048036038101906103a19190614700565b610b87565b005b3480156103b457600080fd5b506103cf60048036038101906103ca9190614639565b610d4d565b6040516103dc919061517c565b60405180910390f35b3480156103f157600080fd5b5061040c600480360381019061040791906144b6565b610df2565b005b610416610eb2565b005b34801561042457600080fd5b5061043f600480360381019061043a9190614523565b610f88565b005b34801561044d57600080fd5b5061046860048036038101906104639190614700565b610fa8565b005b34801561047657600080fd5b50610491600480360381019061048c9190614700565b610ff0565b60405161049e919061517c565b60405180910390f35b3480156104b357600080fd5b506104ce60048036038101906104c99190614700565b611061565b6040516104db9190614d78565b60405180910390f35b3480156104f057600080fd5b5061050b600480360381019061050691906144b6565b611113565b604051610518919061517c565b60405180910390f35b34801561052d57600080fd5b506105366111cb565b005b34801561054457600080fd5b5061054d611253565b60405161055a9190614ddf565b60405180910390f35b34801561056f57600080fd5b50610578611266565b6040516105859190614d78565b60405180910390f35b34801561059a57600080fd5b506105b560048036038101906105b09190614700565b611290565b005b3480156105c357600080fd5b506105cc611316565b6040516105d99190614dfa565b60405180910390f35b3480156105ee57600080fd5b5061060960048036038101906106049190614789565b6113a8565b005b34801561061757600080fd5b50610632600480360381019061062d91906145f9565b611771565b005b61064e60048036038101906106499190614700565b6118f2565b005b34801561065c57600080fd5b5061067760048036038101906106729190614576565b611a8c565b005b34801561068557600080fd5b506106a0600480360381019061069b9190614679565b611aee565b005b3480156106ae57600080fd5b506106c960048036038101906106c49190614700565b611b87565b6040516106d69190614dfa565b60405180910390f35b3480156106eb57600080fd5b5061070660048036038101906107019190614679565b6127d9565b005b34801561071457600080fd5b5061071d612872565b60405161072a9190614ddf565b60405180910390f35b34801561073f57600080fd5b5061075a60048036038101906107559190614700565b612885565b005b34801561076857600080fd5b50610783600480360381019061077e9190614679565b6128ba565b005b34801561079157600080fd5b506107ac60048036038101906107a791906144e3565b612953565b6040516107b99190614ddf565b60405180910390f35b3480156107ce57600080fd5b506107e960048036038101906107e49190614700565b6129bf565b6040516107fd989796959493929190615197565b60405180910390f35b34801561081257600080fd5b5061082d600480360381019061082891906144b6565b612b20565b005b34801561083b57600080fd5b506108566004803603810190610851919061472d565b612c18565b005b60007f780e9d63000000000000000000000000000000000000000000000000000000007bffffffffffffffffffffffffffffffffffffffffffffffffffffffff1916827bffffffffffffffffffffffffffffffffffffffffffffffffffffffff191614806108cb57506108ca82612c96565b5b9050919050565b6060600080546108e1906154aa565b80601f016020809104026020016040519081016040528092919081815260200182805461090d906154aa565b801561095a5780601f1061092f5761010080835404028352916020019161095a565b820191906000526020600020905b81548152906001019060200180831161093d57829003601f168201915b5050505050905090565b600061096f82612d78565b6109ae576040517f08c379a00000000000000000000000000000000000000000000000000000000081526004016109a590614ffc565b60405180910390fd5b6004600083815260200190815260200160002060009054906101000a900473ffffffffffffffffffffffffffffffffffffffff169050919050565b60006109f482611061565b90508073ffffffffffffffffffffffffffffffffffffffff168373ffffffffffffffffffffffffffffffffffffffff161415610a65576040517f08c379a0000000000000000000000000000000000000000000000000000000008152600401610a5c9061507c565b60405180910390fd5b8073ffffffffffffffffffffffffffffffffffffffff16610a84612de4565b73ffffffffffffffffffffffffffffffffffffffff161480610ab35750610ab281610aad612de4565b612953565b5b610af2576040517f08c379a0000000000000000000000000000000000000000000000000000000008152600401610ae990614f5c565b60405180910390fd5b610afc8383612dec565b505050565b600e60009054906101000a900460ff1681565b6000600880549050905090565b600d5481565b610b38610b32612de4565b82612ea5565b610b77576040517f08c379a0000000000000000000000000000000000000000000000000000000008152600401610b6e906150dc565b60405180910390fd5b610b82838383612f83565b505050565b6000610b91610b14565b9050600e60029054906101000a900460ff1615610be3576040517f08c379a0000000000000000000000000000000000000000000000000000000008152600401610bda9061515c565b60405180910390fd5b600082118015610bf35750601582105b610c32576040517f08c379a0000000000000000000000000000000000000000000000000000000008152600401610c2990614f3c565b60405180910390fd5b615dc08282610c4191906152df565b1115610c82576040517f08c379a0000000000000000000000000000000000000000000000000000000008152600401610c799061509c565b60405180910390fd5b81600d54610c909190615366565b341015610cd2576040517f08c379a0000000000000000000000000000000000000000000000000000000008152600401610cc9906150bc565b60405180910390fd5b600080600190505b615dc08111610d47576001600f6000838152602001908152602001600020600101541415610d0757610d34565b610d10816131df565b610d1a33826133f9565b8382610d259061550d565b9250821415610d3357610d47565b5b8080610d3f9061550d565b915050610cda565b50505050565b6000610d5883611113565b8210610d99576040517f08c379a0000000000000000000000000000000000000000000000000000000008152600401610d9090614e3c565b60405180910390fd5b600660008473ffffffffffffffffffffffffffffffffffffffff1673ffffffffffffffffffffffffffffffffffffffff168152602001908152602001600020600083815260200190815260200160002054905092915050565b610dfa612de4565b73ffffffffffffffffffffffffffffffffffffffff16610e18611266565b73ffffffffffffffffffffffffffffffffffffffff1614610e6e576040517f08c379a0000000000000000000000000000000000000000000000000000000008152600401610e659061503c565b60405180910390fd5b80600e60036101000a81548173ffffffffffffffffffffffffffffffffffffffff021916908373ffffffffffffffffffffffffffffffffffffffff16021790555050565b610eba612de4565b73ffffffffffffffffffffffffffffffffffffffff16610ed8611266565b73ffffffffffffffffffffffffffffffffffffffff1614610f2e576040517f08c379a0000000000000000000000000000000000000000000000000000000008152600401610f259061503c565b60405180910390fd5b6000734af0bb035ffb1cbefa550530917e151a53034d7090508073ffffffffffffffffffffffffffffffffffffffff166108fc479081150290604051600060405180830381858888f19350505050610f8557600080fd5b50565b610fa383838360405180602001604052806000815250611a8c565b505050565b6000600f6000838152602001908152602001600020905060008160010181905550806009016000815480929190610fde9061550d565b9190505550610fec82613417565b5050565b6000610ffa610b14565b821061103b576040517f08c379a0000000000000000000000000000000000000000000000000000000008152600401611032906150fc565b60405180910390fd5b6008828154811061104f5761104e615643565b5b90600052602060002001549050919050565b6000806002600084815260200190815260200160002060009054906101000a900473ffffffffffffffffffffffffffffffffffffffff169050600073ffffffffffffffffffffffffffffffffffffffff168173ffffffffffffffffffffffffffffffffffffffff16141561110a576040517f08c379a000000000000000000000000000000000000000000000000000000000815260040161110190614f9c565b60405180910390fd5b80915050919050565b60008073ffffffffffffffffffffffffffffffffffffffff168273ffffffffffffffffffffffffffffffffffffffff161415611184576040517f08c379a000000000000000000000000000000000000000000000000000000000815260040161117b90614f7c565b60405180910390fd5b600360008373ffffffffffffffffffffffffffffffffffffffff1673ffffffffffffffffffffffffffffffffffffffff168152602001908152602001600020549050919050565b6111d3612de4565b73ffffffffffffffffffffffffffffffffffffffff166111f1611266565b73ffffffffffffffffffffffffffffffffffffffff1614611247576040517f08c379a000000000000000000000000000000000000000000000000000000000815260040161123e9061503c565b60405180910390fd5b6112516000613528565b565b600e60019054906101000a900460ff1681565b6000600a60009054906101000a900473ffffffffffffffffffffffffffffffffffffffff16905090565b611298612de4565b73ffffffffffffffffffffffffffffffffffffffff166112b6611266565b73ffffffffffffffffffffffffffffffffffffffff161461130c576040517f08c379a00000000000000000000000000000000000000000000000000000000081526004016113039061503c565b60405180910390fd5b80600d8190555050565b606060018054611325906154aa565b80601f0160208091040260200160405190810160405280929190818152602001828054611351906154aa565b801561139e5780601f106113735761010080835404028352916020019161139e565b820191906000526020600020905b81548152906001019060200180831161138157829003601f168201915b5050505050905090565b60006113b2610b14565b9050600e60019054906101000a900460ff1615611404576040517f08c379a00000000000000000000000000000000000000000000000000000000081526004016113fb9061511c565b60405180910390fd5b61140e3384612ea5565b61144d576040517f08c379a000000000000000000000000000000000000000000000000000000000815260040161144490614fdc565b60405180910390fd5b6114573383612ea5565b611496576040517f08c379a000000000000000000000000000000000000000000000000000000000815260040161148d90614fdc565b60405180910390fd5b6000600f6000858152602001908152602001600020604051806101400160405290816000820180546114c7906154aa565b80601f01602080910402602001604051908101604052809291908181526020018280546114f3906154aa565b80156115405780601f1061151557610100808354040283529160200191611540565b820191906000526020600020905b81548152906001019060200180831161152357829003601f168201915b505050505081526020016001820154815260200160028201548152602001600382015481526020016004820154815260200160058201548152602001600682015481526020016007820154815260200160088201548152602001600982015481525050905060018160400151146115ec576040517f08c379a00000000000000000000000000000000000000000000000000000000081526004016115e39061513c565b60405180910390fd5b6000600f60008581526020019081526020016000209050600081600201541461164a576040517f08c379a000000000000000000000000000000000000000000000000000000000815260040161164190614efc565b60405180910390fd5b6000816004015411611691576040517f08c379a00000000000000000000000000000000000000000000000000000000081526004016116889061501c565b60405180910390fd5b615dc08160040154846116a491906152df565b11156116e5576040517f08c379a00000000000000000000000000000000000000000000000000000000081526004016116dc9061509c565b60405180910390fd5b600080600190505b615dc0811161175e576001600f600083815260200190815260200160002060010154141561171a5761174b565b611723816131df565b61172d33826133f9565b82600401548261173c9061550d565b925082141561174a5761175e565b5b80806117569061550d565b9150506116ed565b5060008260040181905550505050505050565b611779612de4565b73ffffffffffffffffffffffffffffffffffffffff168273ffffffffffffffffffffffffffffffffffffffff1614156117e7576040517f08c379a00000000000000000000000000000000000000000000000000000000081526004016117de90614edc565b60405180910390fd5b80600560006117f4612de4565b73ffffffffffffffffffffffffffffffffffffffff1673ffffffffffffffffffffffffffffffffffffffff16815260200190815260200160002060008473ffffffffffffffffffffffffffffffffffffffff1673ffffffffffffffffffffffffffffffffffffffff16815260200190815260200160002060006101000a81548160ff0219169083151502179055508173ffffffffffffffffffffffffffffffffffffffff166118a1612de4565b73ffffffffffffffffffffffffffffffffffffffff167f17307eab39ab6107e8899845ad3d59bd9653f200f220920489ca2b5937696c31836040516118e69190614ddf565b60405180910390a35050565b60006118fc610b14565b9050600e60009054906101000a900460ff161561194e576040517f08c379a000000000000000000000000000000000000000000000000000000000815260040161194590614e1c565b60405180910390fd5b60008211801561195e5750601582105b61199d576040517f08c379a000000000000000000000000000000000000000000000000000000000815260040161199490614f3c565b60405180910390fd5b615dc082826119ac91906152df565b11156119ed576040517f08c379a00000000000000000000000000000000000000000000000000000000081526004016119e49061509c565b60405180910390fd5b81600d546119fb9190615366565b341015611a3d576040517f08c379a0000000000000000000000000000000000000000000000000000000008152600401611a34906150bc565b60405180910390fd5b6000600190505b828111611a8757611a5f8183611a5a91906152df565b6131df565b611a74338284611a6f91906152df565b6133f9565b8080611a7f9061550d565b915050611a44565b505050565b611a9d611a97612de4565b83612ea5565b611adc576040517f08c379a0000000000000000000000000000000000000000000000000000000008152600401611ad3906150dc565b60405180910390fd5b611ae8848484846135ee565b50505050565b611af6612de4565b73ffffffffffffffffffffffffffffffffffffffff16611b14611266565b73ffffffffffffffffffffffffffffffffffffffff1614611b6a576040517f08c379a0000000000000000000000000000000000000000000000000000000008152600401611b619061503c565b60405180910390fd5b80600e60006101000a81548160ff02191690831515021790555050565b60606000600f600084815260200190815260200160002060405180610140016040529081600082018054611bba906154aa565b80601f0160208091040260200160405190810160405280929190818152602001828054611be6906154aa565b8015611c335780601f10611c0857610100808354040283529160200191611c33565b820191906000526020600020905b815481529060010190602001808311611c1657829003601f168201915b5050505050815260200160018201548152602001600282015481526020016003820154815260200160048201548152602001600582015481526020016006820154815260200160078201548152602001600882015481526020016009820154815250509050611ca06142a2565b60006040518060a0016040528060628152602001615fa860629139828280611cc79061550d565b935060408110611cda57611cd9615643565b5b602002018190525060405180608001604052806047815260200161604a60479139828280611d079061550d565b935060408110611d1a57611d19615643565b5b60200201819052506040518060800160405280604e8152602001615ece604e9139828280611d479061550d565b935060408110611d5a57611d59615643565b5b6020020181905250604051806060016040528060308152602001615f4a60309139828280611d879061550d565b935060408110611d9a57611d99615643565b5b6020020181905250604051806060016040528060268152602001615e7a60269139828280611dc79061550d565b935060408110611dda57611dd9615643565b5b6020020181905250600b836040015181548110611dfa57611df9615643565b5b906000526020600020018054611e0f906154aa565b80601f0160208091040260200160405190810160405280929190818152602001828054611e3b906154aa565b8015611e885780601f10611e5d57610100808354040283529160200191611e88565b820191906000526020600020905b815481529060010190602001808311611e6b57829003601f168201915b5050505050828280611e999061550d565b935060408110611eac57611eab615643565b5b60200201819052506040518060600160405280602e8152602001616091602e9139828280611ed99061550d565b935060408110611eec57611eeb615643565b5b60200201819052506040518060400160405280600a81526020017f44697374726963743a0900000000000000000000000000000000000000000000815250828280611f369061550d565b935060408110611f4957611f48615643565b5b6020020181905250611f5e836060015161364a565b828280611f6a9061550d565b935060408110611f7d57611f7c615643565b5b60200201819052506040518060600160405280602e8152602001616091602e9139828280611faa9061550d565b935060408110611fbd57611fbc615643565b5b60200201819052506040518060400160405280600681526020017f4e616d653a0900000000000000000000000000000000000000000000000000008152508282806120079061550d565b93506040811061201a57612019615643565b5b6020020181905250600083600001515111612044576040518060200160405280600081525061204a565b82600001515b8282806120569061550d565b93506040811061206957612068615643565b5b6020020181905250600083604001511415612150576040518060600160405280602e8152602001615ea0602e91398282806120a39061550d565b9350604081106120b6576120b5615643565b5b60200201819052506040518060400160405280600c81526020017f4f6666737072696e67733a0900000000000000000000000000000000000000008152508282806121009061550d565b93506040811061211357612112615643565b5b6020020181905250612128836080015161364a565b8282806121349061550d565b93506040811061214757612146615643565b5b60200201819052505b6040518060600160405280602e8152602001615f1c602e91398282806121759061550d565b93506040811061218857612187615643565b5b60200201819052506040518060400160405280600f81526020017f48756e74696e67536b696c6c733a0900000000000000000000000000000000008152508282806121d29061550d565b9350604081106121e5576121e4615643565b5b6020020181905250600c8360a001518154811061220557612204615643565b5b90600052602060002001805461221a906154aa565b80601f0160208091040260200160405190810160405280929190818152602001828054612246906154aa565b80156122935780601f1061226857610100808354040283529160200191612293565b820191906000526020600020905b81548152906001019060200180831161227657829003601f168201915b50505050508282806122a49061550d565b9350604081106122b7576122b6615643565b5b60200201819052506040518060600160405280602e81526020016160bf602e91398282806122e49061550d565b9350604081106122f7576122f6615643565b5b60200201819052506040518060400160405280600481526020017f49513a09000000000000000000000000000000000000000000000000000000008152508282806123419061550d565b93506040811061235457612353615643565b5b6020020181905250600c8360c001518154811061237457612373615643565b5b906000526020600020018054612389906154aa565b80601f01602080910402602001604051908101604052809291908181526020018280546123b5906154aa565b80156124025780601f106123d757610100808354040283529160200191612402565b820191906000526020600020905b8154815290600101906020018083116123e557829003601f168201915b50505050508282806124139061550d565b93506040811061242657612425615643565b5b60200201819052506040518060600160405280602e8152602001615f7a602e91398282806124539061550d565b93506040811061246657612465615643565b5b60200201819052506040518060400160405280600781526020017f4c696b65733a09000000000000000000000000000000000000000000000000008152508282806124b09061550d565b9350604081106124c3576124c2615643565b5b60200201819052506124d88360e0015161364a565b8282806124e49061550d565b9350604081106124f7576124f6615643565b5b60200201819052506040518060600160405280602e815260200161611b602e91398282806125249061550d565b93506040811061253757612536615643565b5b60200201819052506040518060400160405280600681526020017f77696e733a0900000000000000000000000000000000000000000000000000008152508282806125819061550d565b93506040811061259457612593615643565b5b60200201819052506125aa83610100015161364a565b8282806125b69061550d565b9350604081106125c9576125c8615643565b5b60200201819052506040518060600160405280602e81526020016160ed602e91398282806125f69061550d565b93506040811061260957612608615643565b5b60200201819052506040518060400160405280600781526020017f6275726e733a09000000000000000000000000000000000000000000000000008152508282806126539061550d565b93506040811061266657612665615643565b5b602002018190525061267c83610120015161364a565b8282806126889061550d565b93506040811061269b5761269a615643565b5b60200201819052506040518060400160405280600d81526020017f3c2f746578743e3c2f7376673e000000000000000000000000000000000000008152508282806126e59061550d565b9350604081106126f8576126f7615643565b5b6020020181905250600060405180602001604052806000815250905060005b8281101561276b578184826040811061273357612732615643565b5b6020020151604051602001612749929190614ced565b6040516020818303038152906040529150806127649061550d565b9050612717565b5060006127a861277a8861364a565b612783846137ab565b604051602001612794929190614d33565b6040516020818303038152906040526137ab565b9050806040516020016127bb9190614d11565b60405160208183030381529060405291508195505050505050919050565b6127e1612de4565b73ffffffffffffffffffffffffffffffffffffffff166127ff611266565b73ffffffffffffffffffffffffffffffffffffffff1614612855576040517f08c379a000000000000000000000000000000000000000000000000000000000815260040161284c9061503c565b60405180910390fd5b80600e60026101000a81548160ff02191690831515021790555050565b600e60029054906101000a900460ff1681565b6000600f600083815260200190815260200160002090508060070160008154809291906128b19061550d565b91905055505050565b6128c2612de4565b73ffffffffffffffffffffffffffffffffffffffff166128e0611266565b73ffffffffffffffffffffffffffffffffffffffff1614612936576040517f08c379a000000000000000000000000000000000000000000000000000000000815260040161292d9061503c565b60405180910390fd5b80600e60016101000a81548160ff02191690831515021790555050565b6000600e60039054906101000a900473ffffffffffffffffffffffffffffffffffffffff1673ffffffffffffffffffffffffffffffffffffffff168273ffffffffffffffffffffffffffffffffffffffff1614806129b757506129b68383613943565b5b905092915050565b6000806000806000806000806000600f60008b8152602001908152602001600020604051806101400160405290816000820180546129fc906154aa565b80601f0160208091040260200160405190810160405280929190818152602001828054612a28906154aa565b8015612a755780601f10612a4a57610100808354040283529160200191612a75565b820191906000526020600020905b815481529060010190602001808311612a5857829003601f168201915b50505050508152602001600182015481526020016002820154815260200160038201548152602001600482015481526020016005820154815260200160068201548152602001600782015481526020016008820154815260200160098201548152505090508060200151816040015182606001518360a001518460c001518560e001518661010001518761012001519850985098509850985098509850985050919395975091939597565b612b28612de4565b73ffffffffffffffffffffffffffffffffffffffff16612b46611266565b73ffffffffffffffffffffffffffffffffffffffff1614612b9c576040517f08c379a0000000000000000000000000000000000000000000000000000000008152600401612b939061503c565b60405180910390fd5b600073ffffffffffffffffffffffffffffffffffffffff168173ffffffffffffffffffffffffffffffffffffffff161415612c0c576040517f08c379a0000000000000000000000000000000000000000000000000000000008152600401612c0390614e7c565b60405180910390fd5b612c1581613528565b50565b612c223383612ea5565b612c61576040517f08c379a0000000000000000000000000000000000000000000000000000000008152600401612c5890614fdc565b60405180910390fd5b6000600f6000848152602001908152602001600020905081816000019080519060200190612c909291906142ca565b50505050565b60007f80ac58cd000000000000000000000000000000000000000000000000000000007bffffffffffffffffffffffffffffffffffffffffffffffffffffffff1916827bffffffffffffffffffffffffffffffffffffffffffffffffffffffff19161480612d6157507f5b5e139f000000000000000000000000000000000000000000000000000000007bffffffffffffffffffffffffffffffffffffffffffffffffffffffff1916827bffffffffffffffffffffffffffffffffffffffffffffffffffffffff1916145b80612d715750612d70826139d7565b5b9050919050565b60008073ffffffffffffffffffffffffffffffffffffffff166002600084815260200190815260200160002060009054906101000a900473ffffffffffffffffffffffffffffffffffffffff1673ffffffffffffffffffffffffffffffffffffffff1614159050919050565b600033905090565b816004600083815260200190815260200160002060006101000a81548173ffffffffffffffffffffffffffffffffffffffff021916908373ffffffffffffffffffffffffffffffffffffffff160217905550808273ffffffffffffffffffffffffffffffffffffffff16612e5f83611061565b73ffffffffffffffffffffffffffffffffffffffff167f8c5be1e5ebec7d5bd14f71427d1e84f3dd0314c0f7b2291e5b200ac8c7c3b92560405160405180910390a45050565b6000612eb082612d78565b612eef576040517f08c379a0000000000000000000000000000000000000000000000000000000008152600401612ee690614f1c565b60405180910390fd5b6000612efa83611061565b90508073ffffffffffffffffffffffffffffffffffffffff168473ffffffffffffffffffffffffffffffffffffffff161480612f6957508373ffffffffffffffffffffffffffffffffffffffff16612f5184610964565b73ffffffffffffffffffffffffffffffffffffffff16145b80612f7a5750612f798185612953565b5b91505092915050565b8273ffffffffffffffffffffffffffffffffffffffff16612fa382611061565b73ffffffffffffffffffffffffffffffffffffffff1614612ff9576040517f08c379a0000000000000000000000000000000000000000000000000000000008152600401612ff09061505c565b60405180910390fd5b600073ffffffffffffffffffffffffffffffffffffffff168273ffffffffffffffffffffffffffffffffffffffff161415613069576040517f08c379a000000000000000000000000000000000000000000000000000000000815260040161306090614ebc565b60405180910390fd5b613074838383613a41565b61307f600082612dec565b6001600360008573ffffffffffffffffffffffffffffffffffffffff1673ffffffffffffffffffffffffffffffffffffffff16815260200190815260200160002060008282546130cf91906153c0565b925050819055506001600360008473ffffffffffffffffffffffffffffffffffffffff1673ffffffffffffffffffffffffffffffffffffffff168152602001908152602001600020600082825461312691906152df565b92505081905550816002600083815260200190815260200160002060006101000a81548173ffffffffffffffffffffffffffffffffffffffff021916908373ffffffffffffffffffffffffffffffffffffffff160217905550808273ffffffffffffffffffffffffffffffffffffffff168473ffffffffffffffffffffffffffffffffffffffff167fddf252ad1be2c89b69c2b068fc378daa952ba7f163c4a11628f55a4df523b3ef60405160405180910390a4505050565b6000600f60008381526020019081526020016000209050600181600101819055506002613241836040518060400160405280600681526020017f47454e4445520000000000000000000000000000000000000000000000000000815250613b55565b61324b9190615556565b8160020181905550600c613294836040518060400160405280600881526020017f4449535452494354000000000000000000000000000000000000000000000000815250613b55565b61329e9190615556565b60016132aa91906152df565b8160030181905550600081600201541415613313576009613300836040518060400160405280600a81526020017f4f4646535052494e475300000000000000000000000000000000000000000000815250613b55565b61330a9190615556565b81600401819055505b6004613354836040518060400160405280600781526020017f48554e54494e4700000000000000000000000000000000000000000000000000815250613b55565b8260090154836008015461336891906152df565b61337291906152df565b61337c9190615556565b816005018190555060046133c5836040518060400160405280600781526020017f495153434f524500000000000000000000000000000000000000000000000000815250613b55565b826009015483600801546133d991906152df565b6133e391906152df565b6133ed9190615556565b81600601819055505050565b613413828260405180602001604052806000815250613b91565b5050565b600061342282611061565b905061343081600084613a41565b61343b600083612dec565b6001600360008373ffffffffffffffffffffffffffffffffffffffff1673ffffffffffffffffffffffffffffffffffffffff168152602001908152602001600020600082825461348b91906153c0565b925050819055506002600083815260200190815260200160002060006101000a81549073ffffffffffffffffffffffffffffffffffffffff021916905581600073ffffffffffffffffffffffffffffffffffffffff168273ffffffffffffffffffffffffffffffffffffffff167fddf252ad1be2c89b69c2b068fc378daa952ba7f163c4a11628f55a4df523b3ef60405160405180910390a45050565b6000600a60009054906101000a900473ffffffffffffffffffffffffffffffffffffffff16905081600a60006101000a81548173ffffffffffffffffffffffffffffffffffffffff021916908373ffffffffffffffffffffffffffffffffffffffff1602179055508173ffffffffffffffffffffffffffffffffffffffff168173ffffffffffffffffffffffffffffffffffffffff167f8be0079c531659141344cd1fd0a4f28419497f9722a3daafe3b4186f6b6457e060405160405180910390a35050565b6135f9848484612f83565b61360584848484613bec565b613644576040517f08c379a000000000000000000000000000000000000000000000000000000000815260040161363b90614e5c565b60405180910390fd5b50505050565b60606000821415613692576040518060400160405280600181526020017f300000000000000000000000000000000000000000000000000000000000000081525090506137a6565b600082905060005b600082146136c45780806136ad9061550d565b915050600a826136bd9190615335565b915061369a565b60008167ffffffffffffffff8111156136e0576136df615672565b5b6040519080825280601f01601f1916602001820160405280156137125781602001600182028036833780820191505090505b5090505b6000851461379f5760018261372b91906153c0565b9150600a8561373a9190615556565b603061374691906152df565b60f81b81838151811061375c5761375b615643565b5b60200101907effffffffffffffffffffffffffffffffffffffffffffffffffffffffffffff1916908160001a905350600a856137989190615335565b9450613716565b8093505050505b919050565b606060008251905060008114156137d4576040518060200160405280600081525091505061393e565b600060036002836137e591906152df565b6137ef9190615335565b60046137fb9190615366565b9050600060208261380c91906152df565b67ffffffffffffffff81111561382557613824615672565b5b6040519080825280601f01601f1916602001820160405280156138575781602001600182028036833780820191505090505b509050600060405180606001604052806040815260200161600a604091399050600181016020830160005b868110156138fb5760038101905062ffffff818a015116603f8160121c168401518060081b905060ff603f83600c1c1686015116810190508060081b905060ff603f8360061c1686015116810190508060081b905060ff603f831686015116810190508060e01b90508084526004840193505050613882565b506003860660018114613915576002811461392557613930565b613d3d60f01b6002830352613930565b603d60f81b60018303525b508484525050819450505050505b919050565b6000600560008473ffffffffffffffffffffffffffffffffffffffff1673ffffffffffffffffffffffffffffffffffffffff16815260200190815260200160002060008373ffffffffffffffffffffffffffffffffffffffff1673ffffffffffffffffffffffffffffffffffffffff16815260200190815260200160002060009054906101000a900460ff16905092915050565b60007f01ffc9a7000000000000000000000000000000000000000000000000000000007bffffffffffffffffffffffffffffffffffffffffffffffffffffffff1916827bffffffffffffffffffffffffffffffffffffffffffffffffffffffff1916149050919050565b613a4c838383613d83565b600073ffffffffffffffffffffffffffffffffffffffff168373ffffffffffffffffffffffffffffffffffffffff161415613a8f57613a8a81613d88565b613ace565b8173ffffffffffffffffffffffffffffffffffffffff168373ffffffffffffffffffffffffffffffffffffffff1614613acd57613acc8382613dd1565b5b5b600073ffffffffffffffffffffffffffffffffffffffff168273ffffffffffffffffffffffffffffffffffffffff161415613b1157613b0c81613f3e565b613b50565b8273ffffffffffffffffffffffffffffffffffffffff168273ffffffffffffffffffffffffffffffffffffffff1614613b4f57613b4e828261400f565b5b5b505050565b6000613b8982613b648561364a565b604051602001613b75929190614ced565b60405160208183030381529060405261408e565b905092915050565b613b9b83836140c1565b613ba86000848484613bec565b613be7576040517f08c379a0000000000000000000000000000000000000000000000000000000008152600401613bde90614e5c565b60405180910390fd5b505050565b6000613c0d8473ffffffffffffffffffffffffffffffffffffffff1661428f565b15613d76578373ffffffffffffffffffffffffffffffffffffffff1663150b7a02613c36612de4565b8786866040518563ffffffff1660e01b8152600401613c589493929190614d93565b602060405180830381600087803b158015613c7257600080fd5b505af1925050508015613ca357506040513d601f19601f82011682018060405250810190613ca091906146d3565b60015b613d26573d8060008114613cd3576040519150601f19603f3d011682016040523d82523d6000602084013e613cd8565b606091505b50600081511415613d1e576040517f08c379a0000000000000000000000000000000000000000000000000000000008152600401613d1590614e5c565b60405180910390fd5b805181602001fd5b63150b7a0260e01b7bffffffffffffffffffffffffffffffffffffffffffffffffffffffff1916817bffffffffffffffffffffffffffffffffffffffffffffffffffffffff191614915050613d7b565b600190505b949350505050565b505050565b6008805490506009600083815260200190815260200160002081905550600881908060018154018082558091505060019003906000526020600020016000909190919091505550565b60006001613dde84611113565b613de891906153c0565b9050600060076000848152602001908152602001600020549050818114613ecd576000600660008673ffffffffffffffffffffffffffffffffffffffff1673ffffffffffffffffffffffffffffffffffffffff168152602001908152602001600020600084815260200190815260200160002054905080600660008773ffffffffffffffffffffffffffffffffffffffff1673ffffffffffffffffffffffffffffffffffffffff168152602001908152602001600020600084815260200190815260200160002081905550816007600083815260200190815260200160002081905550505b6007600084815260200190815260200160002060009055600660008573ffffffffffffffffffffffffffffffffffffffff1673ffffffffffffffffffffffffffffffffffffffff16815260200190815260200160002060008381526020019081526020016000206000905550505050565b60006001600880549050613f5291906153c0565b9050600060096000848152602001908152602001600020549050600060088381548110613f8257613f81615643565b5b906000526020600020015490508060088381548110613fa457613fa3615643565b5b906000526020600020018190555081600960008381526020019081526020016000208190555060096000858152602001908152602001600020600090556008805480613ff357613ff2615614565b5b6001900381819060005260206000200160009055905550505050565b600061401a83611113565b905081600660008573ffffffffffffffffffffffffffffffffffffffff1673ffffffffffffffffffffffffffffffffffffffff168152602001908152602001600020600083815260200190815260200160002081905550806007600084815260200190815260200160002081905550505050565b6000816040516020016140a19190614cd6565b6040516020818303038152906040528051906020012060001c9050919050565b600073ffffffffffffffffffffffffffffffffffffffff168273ffffffffffffffffffffffffffffffffffffffff161415614131576040517f08c379a000000000000000000000000000000000000000000000000000000000815260040161412890614fbc565b60405180910390fd5b61413a81612d78565b1561417a576040517f08c379a000000000000000000000000000000000000000000000000000000000815260040161417190614e9c565b60405180910390fd5b61418660008383613a41565b6001600360008473ffffffffffffffffffffffffffffffffffffffff1673ffffffffffffffffffffffffffffffffffffffff16815260200190815260200160002060008282546141d691906152df565b92505081905550816002600083815260200190815260200160002060006101000a81548173ffffffffffffffffffffffffffffffffffffffff021916908373ffffffffffffffffffffffffffffffffffffffff160217905550808273ffffffffffffffffffffffffffffffffffffffff16600073ffffffffffffffffffffffffffffffffffffffff167fddf252ad1be2c89b69c2b068fc378daa952ba7f163c4a11628f55a4df523b3ef60405160405180910390a45050565b600080823b905060008111915050919050565b6040518061080001604052806040905b60608152602001906001900390816142b25790505090565b8280546142d6906154aa565b90600052602060002090601f0160209004810192826142f8576000855561433f565b82601f1061431157805160ff191683800117855561433f565b8280016001018555821561433f579182015b8281111561433e578251825591602001919060010190614323565b5b50905061434c9190614350565b5090565b5b80821115614369576000816000905550600101614351565b5090565b600061438061437b8461523a565b615215565b90508281526020810184848401111561439c5761439b6156a6565b5b6143a7848285615468565b509392505050565b60006143c26143bd8461526b565b615215565b9050828152602081018484840111156143de576143dd6156a6565b5b6143e9848285615468565b509392505050565b60008135905061440081615e1d565b92915050565b60008135905061441581615e34565b92915050565b60008135905061442a81615e4b565b92915050565b60008151905061443f81615e4b565b92915050565b600082601f83011261445a576144596156a1565b5b813561446a84826020860161436d565b91505092915050565b600082601f830112614488576144876156a1565b5b81356144988482602086016143af565b91505092915050565b6000813590506144b081615e62565b92915050565b6000602082840312156144cc576144cb6156b0565b5b60006144da848285016143f1565b91505092915050565b600080604083850312156144fa576144f96156b0565b5b6000614508858286016143f1565b9250506020614519858286016143f1565b9150509250929050565b60008060006060848603121561453c5761453b6156b0565b5b600061454a868287016143f1565b935050602061455b868287016143f1565b925050604061456c868287016144a1565b9150509250925092565b600080600080608085870312156145905761458f6156b0565b5b600061459e878288016143f1565b94505060206145af878288016143f1565b93505060406145c0878288016144a1565b925050606085013567ffffffffffffffff8111156145e1576145e06156ab565b5b6145ed87828801614445565b91505092959194509250565b600080604083850312156146105761460f6156b0565b5b600061461e858286016143f1565b925050602061462f85828601614406565b9150509250929050565b600080604083850312156146505761464f6156b0565b5b600061465e858286016143f1565b925050602061466f858286016144a1565b9150509250929050565b60006020828403121561468f5761468e6156b0565b5b600061469d84828501614406565b91505092915050565b6000602082840312156146bc576146bb6156b0565b5b60006146ca8482850161441b565b91505092915050565b6000602082840312156146e9576146e86156b0565b5b60006146f784828501614430565b91505092915050565b600060208284031215614716576147156156b0565b5b6000614724848285016144a1565b91505092915050565b60008060408385031215614744576147436156b0565b5b6000614752858286016144a1565b925050602083013567ffffffffffffffff811115614773576147726156ab565b5b61477f85828601614473565b9150509250929050565b600080604083850312156147a05761479f6156b0565b5b60006147ae858286016144a1565b92505060206147bf858286016144a1565b9150509250929050565b6147d2816153f4565b82525050565b6147e181615406565b82525050565b60006147f28261529c565b6147fc81856152b2565b935061480c818560208601615477565b614815816156b5565b840191505092915050565b600061482b826152a7565b61483581856152c3565b9350614845818560208601615477565b61484e816156b5565b840191505092915050565b6000614864826152a7565b61486e81856152d4565b935061487e818560208601615477565b80840191505092915050565b6000614897600b836152c3565b91506148a2826156c6565b602082019050919050565b60006148ba602b836152c3565b91506148c5826156ef565b604082019050919050565b60006148dd6032836152c3565b91506148e88261573e565b604082019050919050565b60006149006026836152c3565b915061490b8261578d565b604082019050919050565b6000614923601c836152c3565b915061492e826157dc565b602082019050919050565b60006149466024836152c3565b915061495182615805565b604082019050919050565b60006149696019836152c3565b915061497482615854565b602082019050919050565b600061498c601d836152c3565b91506149978261587d565b602082019050919050565b60006149af602c836152c3565b91506149ba826158a6565b604082019050919050565b60006149d26027836152c3565b91506149dd826158f5565b604082019050919050565b60006149f56038836152c3565b9150614a0082615944565b604082019050919050565b6000614a18602a836152c3565b9150614a2382615993565b604082019050919050565b6000614a3b6029836152c3565b9150614a46826159e2565b604082019050919050565b6000614a5e6002836152d4565b9150614a6982615a31565b600282019050919050565b6000614a816020836152c3565b9150614a8c82615a5a565b602082019050919050565b6000614aa4600e836152c3565b9150614aaf82615a83565b602082019050919050565b6000614ac7602c836152c3565b9150614ad282615aac565b604082019050919050565b6000614aea600d836152c3565b9150614af582615afb565b602082019050919050565b6000614b0d6020836152c3565b9150614b1882615b24565b602082019050919050565b6000614b306029836152c3565b9150614b3b82615b4d565b604082019050919050565b6000614b536021836152c3565b9150614b5e82615b9c565b604082019050919050565b6000614b766016836152c3565b9150614b8182615beb565b602082019050919050565b6000614b996019836152c3565b9150614ba482615c14565b602082019050919050565b6000614bbc601d836152d4565b9150614bc782615c3d565b601d82019050919050565b6000614bdf6015836152d4565b9150614bea82615c66565b601582019050919050565b6000614c026031836152c3565b9150614c0d82615c8f565b604082019050919050565b6000614c25602c836152c3565b9150614c3082615cde565b604082019050919050565b6000614c48600d836152c3565b9150614c5382615d2d565b602082019050919050565b6000614c6b601a836152c3565b9150614c7682615d56565b602082019050919050565b6000614c8e605c836152d4565b9150614c9982615d7f565b605c82019050919050565b6000614cb1600e836152c3565b9150614cbc82615df4565b602082019050919050565b614cd08161545e565b82525050565b6000614ce28284614859565b915081905092915050565b6000614cf98285614859565b9150614d058284614859565b91508190509392505050565b6000614d1c82614baf565b9150614d288284614859565b915081905092915050565b6000614d3e82614bd2565b9150614d4a8285614859565b9150614d5582614c81565b9150614d618284614859565b9150614d6c82614a51565b91508190509392505050565b6000602082019050614d8d60008301846147c9565b92915050565b6000608082019050614da860008301876147c9565b614db560208301866147c9565b614dc26040830185614cc7565b8181036060830152614dd481846147e7565b905095945050505050565b6000602082019050614df460008301846147d8565b92915050565b60006020820190508181036000830152614e148184614820565b905092915050565b60006020820190508181036000830152614e358161488a565b9050919050565b60006020820190508181036000830152614e55816148ad565b9050919050565b60006020820190508181036000830152614e75816148d0565b9050919050565b60006020820190508181036000830152614e95816148f3565b9050919050565b60006020820190508181036000830152614eb581614916565b9050919050565b60006020820190508181036000830152614ed581614939565b9050919050565b60006020820190508181036000830152614ef58161495c565b9050919050565b60006020820190508181036000830152614f158161497f565b9050919050565b60006020820190508181036000830152614f35816149a2565b9050919050565b60006020820190508181036000830152614f55816149c5565b9050919050565b60006020820190508181036000830152614f75816149e8565b9050919050565b60006020820190508181036000830152614f9581614a0b565b9050919050565b60006020820190508181036000830152614fb581614a2e565b9050919050565b60006020820190508181036000830152614fd581614a74565b9050919050565b60006020820190508181036000830152614ff581614a97565b9050919050565b6000602082019050818103600083015261501581614aba565b9050919050565b6000602082019050818103600083015261503581614add565b9050919050565b6000602082019050818103600083015261505581614b00565b9050919050565b6000602082019050818103600083015261507581614b23565b9050919050565b6000602082019050818103600083015261509581614b46565b9050919050565b600060208201905081810360008301526150b581614b69565b9050919050565b600060208201905081810360008301526150d581614b8c565b9050919050565b600060208201905081810360008301526150f581614bf5565b9050919050565b6000602082019050818103600083015261511581614c18565b9050919050565b6000602082019050818103600083015261513581614c3b565b9050919050565b6000602082019050818103600083015261515581614c5e565b9050919050565b6000602082019050818103600083015261517581614ca4565b9050919050565b60006020820190506151916000830184614cc7565b92915050565b6000610100820190506151ad600083018b614cc7565b6151ba602083018a614cc7565b6151c76040830189614cc7565b6151d46060830188614cc7565b6151e16080830187614cc7565b6151ee60a0830186614cc7565b6151fb60c0830185614cc7565b61520860e0830184614cc7565b9998505050505050505050565b600061521f615230565b905061522b82826154dc565b919050565b6000604051905090565b600067ffffffffffffffff82111561525557615254615672565b5b61525e826156b5565b9050602081019050919050565b600067ffffffffffffffff82111561528657615285615672565b5b61528f826156b5565b9050602081019050919050565b600081519050919050565b600081519050919050565b600082825260208201905092915050565b600082825260208201905092915050565b600081905092915050565b60006152ea8261545e565b91506152f58361545e565b9250827fffffffffffffffffffffffffffffffffffffffffffffffffffffffffffffffff0382111561532a57615329615587565b5b828201905092915050565b60006153408261545e565b915061534b8361545e565b92508261535b5761535a6155b6565b5b828204905092915050565b60006153718261545e565b915061537c8361545e565b9250817fffffffffffffffffffffffffffffffffffffffffffffffffffffffffffffffff04831182151516156153b5576153b4615587565b5b828202905092915050565b60006153cb8261545e565b91506153d68361545e565b9250828210156153e9576153e8615587565b5b828203905092915050565b60006153ff8261543e565b9050919050565b60008115159050919050565b60007fffffffff0000000000000000000000000000000000000000000000000000000082169050919050565b600073ffffffffffffffffffffffffffffffffffffffff82169050919050565b6000819050919050565b82818337600083830152505050565b60005b8381101561549557808201518184015260208101905061547a565b838111156154a4576000848401525b50505050565b600060028204905060018216806154c257607f821691505b602082108114156154d6576154d56155e5565b5b50919050565b6154e5826156b5565b810181811067ffffffffffffffff8211171561550457615503615672565b5b80604052505050565b60006155188261545e565b91507fffffffffffffffffffffffffffffffffffffffffffffffffffffffffffffffff82141561554b5761554a615587565b5b600182019050919050565b60006155618261545e565b915061556c8361545e565b92508261557c5761557b6155b6565b5b828206905092915050565b7f4e487b7100000000000000000000000000000000000000000000000000000000600052601160045260246000fd5b7f4e487b7100000000000000000000000000000000000000000000000000000000600052601260045260246000fd5b7f4e487b7100000000000000000000000000000000000000000000000000000000600052602260045260246000fd5b7f4e487b7100000000000000000000000000000000000000000000000000000000600052603160045260246000fd5b7f4e487b7100000000000000000000000000000000000000000000000000000000600052603260045260246000fd5b7f4e487b7100000000000000000000000000000000000000000000000000000000600052604160045260246000fd5b600080fd5b600080fd5b600080fd5b600080fd5b6000601f19601f8301169050919050565b7f53616c6520706175736564000000000000000000000000000000000000000000600082015250565b7f455243373231456e756d657261626c653a206f776e657220696e646578206f7560008201527f74206f6620626f756e6473000000000000000000000000000000000000000000602082015250565b7f4552433732313a207472616e7366657220746f206e6f6e20455243373231526560008201527f63656976657220696d706c656d656e7465720000000000000000000000000000602082015250565b7f4f776e61626c653a206e6577206f776e657220697320746865207a65726f206160008201527f6464726573730000000000000000000000000000000000000000000000000000602082015250565b7f4552433732313a20746f6b656e20616c7265616479206d696e74656400000000600082015250565b7f4552433732313a207472616e7366657220746f20746865207a65726f2061646460008201527f7265737300000000000000000000000000000000000000000000000000000000602082015250565b7f4552433732313a20617070726f766520746f2063616c6c657200000000000000600082015250565b7f7365636f6e6420746f6b656e2073686f756c642062652066656d616c65000000600082015250565b7f4552433732313a206f70657261746f7220717565727920666f72206e6f6e657860008201527f697374656e7420746f6b656e0000000000000000000000000000000000000000602082015250565b7f596f752063616e2061646f70742061206d6178696d756d206f6620323020487560008201527f6e67657269746500000000000000000000000000000000000000000000000000602082015250565b7f4552433732313a20617070726f76652063616c6c6572206973206e6f74206f7760008201527f6e6572206e6f7220617070726f76656420666f7220616c6c0000000000000000602082015250565b7f4552433732313a2062616c616e636520717565727920666f7220746865207a6560008201527f726f206164647265737300000000000000000000000000000000000000000000602082015250565b7f4552433732313a206f776e657220717565727920666f72206e6f6e657869737460008201527f656e7420746f6b656e0000000000000000000000000000000000000000000000602082015250565b7f227d000000000000000000000000000000000000000000000000000000000000600082015250565b7f4552433732313a206d696e7420746f20746865207a65726f2061646472657373600082015250565b7f6e6f7420617574686f72697a6564000000000000000000000000000000000000600082015250565b7f4552433732313a20617070726f76656420717565727920666f72206e6f6e657860008201527f697374656e7420746f6b656e0000000000000000000000000000000000000000602082015250565b7f6e6f206f6666737072696e677300000000000000000000000000000000000000600082015250565b7f4f776e61626c653a2063616c6c6572206973206e6f7420746865206f776e6572600082015250565b7f4552433732313a207472616e73666572206f6620746f6b656e2074686174206960008201527f73206e6f74206f776e0000000000000000000000000000000000000000000000602082015250565b7f4552433732313a20617070726f76616c20746f2063757272656e74206f776e6560008201527f7200000000000000000000000000000000000000000000000000000000000000602082015250565b7f45786365656473206d6178696d756d20737570706c7900000000000000000000600082015250565b7f45746865722073656e74206973206e6f7420636f727265637400000000000000600082015250565b7f646174613a6170706c69636174696f6e2f6a736f6e3b6261736536342c000000600082015250565b7f7b226e616d65223a202248756e67657269746520230000000000000000000000600082015250565b7f4552433732313a207472616e736665722063616c6c6572206973206e6f74206f60008201527f776e6572206e6f7220617070726f766564000000000000000000000000000000602082015250565b7f455243373231456e756d657261626c653a20676c6f62616c20696e646578206f60008201527f7574206f6620626f756e64730000000000000000000000000000000000000000602082015250565b7f4d6174696e672070617573656400000000000000000000000000000000000000600082015250565b7f666972737420746f6b656e2073686f756c64206265206d616c65000000000000600082015250565b7f222c20226465736372697074696f6e223a202248756e6765725665727365206960008201527f7320612067616d65206f6620737572766976616c2e222c2022696d616765223a60208201527f2022646174613a696d6167652f7376672b786d6c3b6261736536342c00000000604082015250565b7f7265636c61696d20706175736564000000000000000000000000000000000000600082015250565b615e26816153f4565b8114615e3157600080fd5b50565b615e3d81615406565b8114615e4857600080fd5b50565b615e5481615412565b8114615e5f57600080fd5b50565b615e6b8161545e565b8114615e7657600080fd5b5056fe3c7465787420783d2231302220793d2236302220636c6173733d2262617365477265656e223e3c2f746578743e3c7465787420783d2231302220793d223132302220636c6173733d22626173655768697465223e2e62617365477265656e207b2066696c6c3a20737072696e67677265656e3b20666f6e742d66616d696c793a2073657269663b20666f6e742d73697a653a20313670783b207d3c2f7374796c653e3c2f746578743e3c7465787420783d2231302220793d223138302220636c6173733d22626173655768697465223e3c726563742077696474683d223130302522206865696768743d2231303025222066696c6c3d22626c61636b22202f3e3c2f746578743e3c7465787420783d2231302220793d223232302220636c6173733d22626173655768697465223e3c73766720786d6c6e733d22687474703a2f2f7777772e77332e6f72672f323030302f73766722207072657365727665417370656374526174696f3d22784d696e594d696e206d656574222076696577426f783d223020302033353020333530223e4142434445464748494a4b4c4d4e4f505152535455565758595a6162636465666768696a6b6c6d6e6f707172737475767778797a303132333435363738392b2f3c7374796c653e2e626173655768697465207b2066696c6c3a2077686974653b20666f6e742d66616d696c793a2073657269663b20666f6e742d73697a653a20313670783b207d3c2f746578743e3c7465787420783d2231302220793d223130302220636c6173733d22626173655768697465223e3c2f746578743e3c7465787420783d2231302220793d223230302220636c6173733d22626173655768697465223e3c2f746578743e3c7465787420783d2231302220793d223238302220636c6173733d22626173655768697465223e3c2f746578743e3c7465787420783d2231302220793d223236302220636c6173733d22626173655768697465223ea2646970667358221220abb52001853c5b307fc4c40656d7f2ff6d2857ed5e7a44ba9af7cc32a602f5b764736f6c63430008070033",
  "immutableReferences": {},
  "source": "// SPDX-License-Identifier: MIT\n\npragma solidity ^0.8.0;\n\nimport \"./FullERC721.sol\";\n\ncontract HungerVerse is ERC721Enumerable, Ownable {\n\n\tstruct PlayerInfo {\n        string name;\n        uint256 state;       //0 - burnt, 1 - active\n        uint256 gender;\n        uint256 district;    //1 to 12\n\n        //only for females\n        uint256 offsprings;  // 0 to 8\n\n        uint256 HS;         //hunting skills\n        uint256 IQ;\n        uint256 likes;\n\n        uint256 wins;\n        uint256 burns;\n\t}\n    string[] private gender = [ \"Female\", \"Male\" ];\n    string[] private skills = [ \"Below Average\", \"Average\", \"Above Average\", \"Gifted\" ];\n\t\n    uint256 public _price = 0.05 ether;\n    bool public _paused = true;\n    bool public _matingPaused = true;\n    bool public _reclaimPaused = true;\n\n    address private _otherContract;\n\n    mapping (uint256 => PlayerInfo) private _tokenId2Player;\n\n    constructor() ERC721(\"HungerVerse\", \"HUNGER\") Ownable() {\n\t}\n    function generatePlayer(uint256 tokenId) private {\n        PlayerInfo storage player = _tokenId2Player[tokenId];   //by reference\n\n        player.state = 1;\n        player.gender = pluck(tokenId, \"GENDER\") % 2;\n        player.district = 1 + pluck(tokenId, \"DISTRICT\") % 12;\n        if(player.gender == 0) {\n            player.offsprings = pluck(tokenId, \"OFFSPRINGS\") % 9;\n        }\n        player.HS = (player.wins + player.burns + pluck(tokenId, \"HUNTING\")) % 4;\n        player.IQ = (player.wins + player.burns + pluck(tokenId, \"IQSCORE\")) % 4;\n    }\n    function getPlayerInfo(uint256 tokenId) external view returns (uint256,uint256,uint256,uint256,uint256,uint256,uint256,uint256) {\n        PlayerInfo memory player = _tokenId2Player[tokenId];\n        return (player.state, player.gender, player.district, player.HS, player.IQ, player.likes, player.wins, player.burns);\n    }\n    function random(string memory input) private pure returns (uint256) {\n        return uint256(keccak256(abi.encodePacked(input)));\n    }\n    function pluck(uint256 tokenId, string memory keyPrefix) private pure returns (uint256) {\n        return random(string(abi.encodePacked(keyPrefix, Strings.toString(tokenId))));\n    }\n    function tokenURI(uint256 tokenId) override public view returns (string memory) {\n        PlayerInfo memory player = _tokenId2Player[tokenId];\n\n        string[64] memory parts;\n\t\tuint256 counter = 0;\n        parts[counter++] = '<svg xmlns=\"http://www.w3.org/2000/svg\" preserveAspectRatio=\"xMinYMin meet\" viewBox=\"0 0 350 350\">';\n\t\tparts[counter++] = '<style>.baseWhite { fill: white; font-family: serif; font-size: 16px; }';\n\t\tparts[counter++] = '.baseGreen { fill: springgreen; font-family: serif; font-size: 16px; }</style>';\n\t\tparts[counter++] = '<rect width=\"100%\" height=\"100%\" fill=\"black\" />';\n        parts[counter++] = '<text x=\"10\" y=\"60\" class=\"baseGreen\">';\n        parts[counter++] = gender[player.gender];\n        parts[counter++] = '</text><text x=\"10\" y=\"100\" class=\"baseWhite\">';\n        parts[counter++] = \"District:\\t\";\n        parts[counter++] = Strings.toString(player.district);\n        parts[counter++] = '</text><text x=\"10\" y=\"100\" class=\"baseWhite\">';\n        parts[counter++] = \"Name:\\t\";\n        parts[counter++] = bytes(player.name).length > 0 ? player.name : '';\n\n        if(player.gender == 0) {\n            parts[counter++] = '</text><text x=\"10\" y=\"120\" class=\"baseWhite\">';\n            parts[counter++] = \"Offsprings:\\t\";\n            parts[counter++] = Strings.toString(player.offsprings);\n        }\n        parts[counter++] = '</text><text x=\"10\" y=\"180\" class=\"baseWhite\">';\n        parts[counter++] = \"HuntingSkills:\\t\";\n        parts[counter++] = skills[player.HS];\n        parts[counter++] = '</text><text x=\"10\" y=\"200\" class=\"baseWhite\">';\n        parts[counter++] = \"IQ:\\t\";\n        parts[counter++] = skills[player.IQ];\n        parts[counter++] = '</text><text x=\"10\" y=\"220\" class=\"baseWhite\">';\n        parts[counter++] = \"Likes:\\t\";\n        parts[counter++] = Strings.toString(player.likes);\n        parts[counter++] = '</text><text x=\"10\" y=\"260\" class=\"baseWhite\">';\n        parts[counter++] = \"wins:\\t\";\n        parts[counter++] = Strings.toString(player.wins);\n        parts[counter++] = '</text><text x=\"10\" y=\"280\" class=\"baseWhite\">';\n        parts[counter++] = \"burns:\\t\";\n        parts[counter++] = Strings.toString(player.burns);\n\n        parts[counter++] = '</text></svg>';\n\n        string memory output = \"\";\n\t\tfor(uint256 i = 0; i < counter; ++i)\n\t\t{\n\t\t\toutput = string(abi.encodePacked(output, parts[i]));\n\t\t}\n\n        string memory json = Base64.encode(bytes(string(abi.encodePacked('{\"name\": \"Hungerite #', Strings.toString(tokenId), '\", \"description\": \"HungerVerse is a game of survival.\", \"image\": \"data:image/svg+xml;base64,', Base64.encode(bytes(output)), '\"}'))));\n        output = string(abi.encodePacked('data:application/json;base64,', json));\n\n        return output;\n    }\n    function own(uint256 num) external payable {\n        uint256 supply = totalSupply();\n        require(!_paused, \"Sale paused\");\n        require(num > 0 && num < 21, \"You can adopt a maximum of 20 Hungerite\");\n        require(supply + num <= 24000, \"Exceeds maximum supply\");\n        require(msg.value >= _price * num, \"Ether sent is not correct\");\n\n        for(uint256 i = 1; i <= num; i++) {\n            generatePlayer(supply + i);\n            _safeMint(msg.sender, supply + i);\n        }\n    }\n    function reclaim(uint256 num) external payable {\n        uint256 supply = totalSupply();\n        require(!_reclaimPaused, \"reclaim paused\");\n        require(num > 0 && num < 21, \"You can adopt a maximum of 20 Hungerite\");\n        require(supply + num <= 24000, \"Exceeds maximum supply\");\n        require(msg.value >= _price * num, \"Ether sent is not correct\");\n\n        uint256 count = 0;\n        for(uint256 i = 1; i <= 24000; i++) {\n            if(_tokenId2Player[i].state == 1) continue;\n            generatePlayer(i);\n            _safeMint(msg.sender, i);\n            if(++count == num) break;\n        }\n    }\n    function mate(uint256 tokenIdM, uint256 tokenIdF) external {\n        uint256 supply = totalSupply();\n        require(!_matingPaused, \"Mating paused\");\n        require(_isApprovedOrOwner(msg.sender, tokenIdM), \"not authorized\");\n        require(_isApprovedOrOwner(msg.sender, tokenIdF), \"not authorized\");\n        PlayerInfo memory male = _tokenId2Player[tokenIdM];\n        require(male.gender == 1, \"first token should be male\");\n        PlayerInfo storage female = _tokenId2Player[tokenIdF];\n        require(female.gender == 0, \"second token should be female\");\n        require(female.offsprings > 0, \"no offsprings\");\n        require(supply + female.offsprings <= 24000, \"Exceeds maximum supply\");\n\n        uint256 count = 0;\n        for(uint256 i = 1; i <= 24000; i++) {\n            if(_tokenId2Player[i].state == 1) continue;\n            generatePlayer(i);\n            _safeMint(msg.sender, i);\n            if(++count == female.offsprings) break;\n        }\n        female.offsprings = 0;\n    }\n\tfunction like(uint256 tokenId) external {\n\t\tPlayerInfo storage player = _tokenId2Player[tokenId];\n\t\tplayer.likes++;\n\t}\n\tfunction setMatingPause(bool val) external onlyOwner {\n\t\t_matingPaused = val;\n\t}\n\tfunction setReclaimPause(bool val) external onlyOwner {\n\t\t_reclaimPaused = val;\n\t}\n    function isApprovedForAll(address owner, address operator) public view virtual override returns (bool) {\n        return (operator == _otherContract || super.isApprovedForAll(owner, operator));\n    }\n    function burn(uint256 tokenId) external {\n        PlayerInfo storage player = _tokenId2Player[tokenId];\n        player.state = 0;\n        player.burns++;\n        _burn(tokenId);\n    }\n    function setName(uint256 tokenId, string memory val) external {\n        require(_isApprovedOrOwner(msg.sender, tokenId), \"not authorized\");\n        PlayerInfo storage player = _tokenId2Player[tokenId];\n        player.name = val;\n    }\n    function setPrice(uint256 _newPrice) external onlyOwner {\n        _price = _newPrice;\n    }\n    function setPause(bool val) external onlyOwner {\n        _paused = val;\n    }\n    function setOtherContract(address val) external onlyOwner {\n        _otherContract = val;\n    }\n    function withdraw() external payable onlyOwner {\n        address t1 = 0x4aF0BB035FfB1CbEFA550530917e151a53034d70;\n        require(payable(t1).send(address(this).balance));\n    }\n}\n",
  "sourcePath": "/home/ec2-user/github/fcc-dapp/src/contracts/HungerVerse.sol",
  "compiler": {
    "name": "solc",
    "version": "0.8.7+commit.e28d00a7.Emscripten.clang"
  },
  "schemaVersion": "3.4.3",
  "updatedAt": "2022-01-05T02:21:12.339Z",
  "devdoc": {
    "kind": "dev",
    "methods": {
      "approve(address,uint256)": {
        "details": "See {IERC721-approve}."
      },
      "balanceOf(address)": {
        "details": "See {IERC721-balanceOf}."
      },
      "getApproved(uint256)": {
        "details": "See {IERC721-getApproved}."
      },
      "isApprovedForAll(address,address)": {
        "details": "See {IERC721-isApprovedForAll}."
      },
      "name()": {
        "details": "See {IERC721Metadata-name}."
      },
      "owner()": {
        "details": "Returns the address of the current owner."
      },
      "ownerOf(uint256)": {
        "details": "See {IERC721-ownerOf}."
      },
      "renounceOwnership()": {
        "details": "Leaves the contract without owner. It will not be possible to call `onlyOwner` functions anymore. Can only be called by the current owner. NOTE: Renouncing ownership will leave the contract without an owner, thereby removing any functionality that is only available to the owner."
      },
      "safeTransferFrom(address,address,uint256)": {
        "details": "See {IERC721-safeTransferFrom}."
      },
      "safeTransferFrom(address,address,uint256,bytes)": {
        "details": "See {IERC721-safeTransferFrom}."
      },
      "setApprovalForAll(address,bool)": {
        "details": "See {IERC721-setApprovalForAll}."
      },
      "supportsInterface(bytes4)": {
        "details": "See {IERC165-supportsInterface}."
      },
      "symbol()": {
        "details": "See {IERC721Metadata-symbol}."
      },
      "tokenByIndex(uint256)": {
        "details": "See {IERC721Enumerable-tokenByIndex}."
      },
      "tokenOfOwnerByIndex(address,uint256)": {
        "details": "See {IERC721Enumerable-tokenOfOwnerByIndex}."
      },
      "tokenURI(uint256)": {
        "details": "See {IERC721Metadata-tokenURI}."
      },
      "totalSupply()": {
        "details": "See {IERC721Enumerable-totalSupply}."
      },
      "transferFrom(address,address,uint256)": {
        "details": "See {IERC721-transferFrom}."
      },
      "transferOwnership(address)": {
        "details": "Transfers ownership of the contract to a new account (`newOwner`). Can only be called by the current owner."
      }
    },
    "version": 1
  },
  "userdoc": {
    "kind": "user",
    "methods": {},
    "version": 1
  }
}