{
  "contractName": "HungerVerse",
  "abi": [
    {
      "inputs": [],
      "stateMutability": "nonpayable",
      "type": "constructor"
    },
    {
      "anonymous": false,
      "inputs": [
        {
          "indexed": true,
          "internalType": "address",
          "name": "owner",
          "type": "address"
        },
        {
          "indexed": true,
          "internalType": "address",
          "name": "approved",
          "type": "address"
        },
        {
          "indexed": true,
          "internalType": "uint256",
          "name": "tokenId",
          "type": "uint256"
        }
      ],
      "name": "Approval",
      "type": "event"
    },
    {
      "anonymous": false,
      "inputs": [
        {
          "indexed": true,
          "internalType": "address",
          "name": "owner",
          "type": "address"
        },
        {
          "indexed": true,
          "internalType": "address",
          "name": "operator",
          "type": "address"
        },
        {
          "indexed": false,
          "internalType": "bool",
          "name": "approved",
          "type": "bool"
        }
      ],
      "name": "ApprovalForAll",
      "type": "event"
    },
    {
      "anonymous": false,
      "inputs": [
        {
          "indexed": true,
          "internalType": "address",
          "name": "previousOwner",
          "type": "address"
        },
        {
          "indexed": true,
          "internalType": "address",
          "name": "newOwner",
          "type": "address"
        }
      ],
      "name": "OwnershipTransferred",
      "type": "event"
    },
    {
      "anonymous": false,
      "inputs": [
        {
          "indexed": true,
          "internalType": "address",
          "name": "from",
          "type": "address"
        },
        {
          "indexed": true,
          "internalType": "address",
          "name": "to",
          "type": "address"
        },
        {
          "indexed": true,
          "internalType": "uint256",
          "name": "tokenId",
          "type": "uint256"
        }
      ],
      "name": "Transfer",
      "type": "event"
    },
    {
      "inputs": [],
      "name": "_matingPaused",
      "outputs": [
        {
          "internalType": "bool",
          "name": "",
          "type": "bool"
        }
      ],
      "stateMutability": "view",
      "type": "function"
    },
    {
      "inputs": [],
      "name": "_paused",
      "outputs": [
        {
          "internalType": "bool",
          "name": "",
          "type": "bool"
        }
      ],
      "stateMutability": "view",
      "type": "function"
    },
    {
      "inputs": [],
      "name": "_price",
      "outputs": [
        {
          "internalType": "uint256",
          "name": "",
          "type": "uint256"
        }
      ],
      "stateMutability": "view",
      "type": "function"
    },
    {
      "inputs": [],
      "name": "_reclaimPaused",
      "outputs": [
        {
          "internalType": "bool",
          "name": "",
          "type": "bool"
        }
      ],
      "stateMutability": "view",
      "type": "function"
    },
    {
      "inputs": [
        {
          "internalType": "uint256",
          "name": "",
          "type": "uint256"
        }
      ],
      "name": "_tokenId2Player",
      "outputs": [
        {
          "internalType": "string",
          "name": "name",
          "type": "string"
        },
        {
          "internalType": "uint256",
          "name": "state",
          "type": "uint256"
        },
        {
          "internalType": "uint256",
          "name": "gender",
          "type": "uint256"
        },
        {
          "internalType": "uint256",
          "name": "district",
          "type": "uint256"
        },
        {
          "internalType": "uint256",
          "name": "offsprings",
          "type": "uint256"
        },
        {
          "internalType": "uint256",
          "name": "huntingSkills",
          "type": "uint256"
        },
        {
          "internalType": "uint256",
          "name": "IQ",
          "type": "uint256"
        },
        {
          "internalType": "uint256",
          "name": "likes",
          "type": "uint256"
        },
        {
          "internalType": "uint256",
          "name": "wins",
          "type": "uint256"
        },
        {
          "internalType": "uint256",
          "name": "burns",
          "type": "uint256"
        }
      ],
      "stateMutability": "view",
      "type": "function"
    },
    {
      "inputs": [
        {
          "internalType": "address",
          "name": "to",
          "type": "address"
        },
        {
          "internalType": "uint256",
          "name": "tokenId",
          "type": "uint256"
        }
      ],
      "name": "approve",
      "outputs": [],
      "stateMutability": "nonpayable",
      "type": "function"
    },
    {
      "inputs": [
        {
          "internalType": "address",
          "name": "owner",
          "type": "address"
        }
      ],
      "name": "balanceOf",
      "outputs": [
        {
          "internalType": "uint256",
          "name": "",
          "type": "uint256"
        }
      ],
      "stateMutability": "view",
      "type": "function"
    },
    {
      "inputs": [
        {
          "internalType": "uint256",
          "name": "tokenId",
          "type": "uint256"
        }
      ],
      "name": "getApproved",
      "outputs": [
        {
          "internalType": "address",
          "name": "",
          "type": "address"
        }
      ],
      "stateMutability": "view",
      "type": "function"
    },
    {
      "inputs": [
        {
          "internalType": "address",
          "name": "owner",
          "type": "address"
        },
        {
          "internalType": "address",
          "name": "operator",
          "type": "address"
        }
      ],
      "name": "isApprovedForAll",
      "outputs": [
        {
          "internalType": "bool",
          "name": "",
          "type": "bool"
        }
      ],
      "stateMutability": "view",
      "type": "function"
    },
    {
      "inputs": [],
      "name": "name",
      "outputs": [
        {
          "internalType": "string",
          "name": "",
          "type": "string"
        }
      ],
      "stateMutability": "view",
      "type": "function"
    },
    {
      "inputs": [],
      "name": "owner",
      "outputs": [
        {
          "internalType": "address",
          "name": "",
          "type": "address"
        }
      ],
      "stateMutability": "view",
      "type": "function"
    },
    {
      "inputs": [
        {
          "internalType": "uint256",
          "name": "tokenId",
          "type": "uint256"
        }
      ],
      "name": "ownerOf",
      "outputs": [
        {
          "internalType": "address",
          "name": "",
          "type": "address"
        }
      ],
      "stateMutability": "view",
      "type": "function"
    },
    {
      "inputs": [],
      "name": "renounceOwnership",
      "outputs": [],
      "stateMutability": "nonpayable",
      "type": "function"
    },
    {
      "inputs": [
        {
          "internalType": "address",
          "name": "from",
          "type": "address"
        },
        {
          "internalType": "address",
          "name": "to",
          "type": "address"
        },
        {
          "internalType": "uint256",
          "name": "tokenId",
          "type": "uint256"
        }
      ],
      "name": "safeTransferFrom",
      "outputs": [],
      "stateMutability": "nonpayable",
      "type": "function"
    },
    {
      "inputs": [
        {
          "internalType": "address",
          "name": "from",
          "type": "address"
        },
        {
          "internalType": "address",
          "name": "to",
          "type": "address"
        },
        {
          "internalType": "uint256",
          "name": "tokenId",
          "type": "uint256"
        },
        {
          "internalType": "bytes",
          "name": "_data",
          "type": "bytes"
        }
      ],
      "name": "safeTransferFrom",
      "outputs": [],
      "stateMutability": "nonpayable",
      "type": "function"
    },
    {
      "inputs": [
        {
          "internalType": "address",
          "name": "operator",
          "type": "address"
        },
        {
          "internalType": "bool",
          "name": "approved",
          "type": "bool"
        }
      ],
      "name": "setApprovalForAll",
      "outputs": [],
      "stateMutability": "nonpayable",
      "type": "function"
    },
    {
      "inputs": [
        {
          "internalType": "bytes4",
          "name": "interfaceId",
          "type": "bytes4"
        }
      ],
      "name": "supportsInterface",
      "outputs": [
        {
          "internalType": "bool",
          "name": "",
          "type": "bool"
        }
      ],
      "stateMutability": "view",
      "type": "function"
    },
    {
      "inputs": [],
      "name": "symbol",
      "outputs": [
        {
          "internalType": "string",
          "name": "",
          "type": "string"
        }
      ],
      "stateMutability": "view",
      "type": "function"
    },
    {
      "inputs": [
        {
          "internalType": "uint256",
          "name": "index",
          "type": "uint256"
        }
      ],
      "name": "tokenByIndex",
      "outputs": [
        {
          "internalType": "uint256",
          "name": "",
          "type": "uint256"
        }
      ],
      "stateMutability": "view",
      "type": "function"
    },
    {
      "inputs": [
        {
          "internalType": "address",
          "name": "owner",
          "type": "address"
        },
        {
          "internalType": "uint256",
          "name": "index",
          "type": "uint256"
        }
      ],
      "name": "tokenOfOwnerByIndex",
      "outputs": [
        {
          "internalType": "uint256",
          "name": "",
          "type": "uint256"
        }
      ],
      "stateMutability": "view",
      "type": "function"
    },
    {
      "inputs": [],
      "name": "totalSupply",
      "outputs": [
        {
          "internalType": "uint256",
          "name": "",
          "type": "uint256"
        }
      ],
      "stateMutability": "view",
      "type": "function"
    },
    {
      "inputs": [
        {
          "internalType": "address",
          "name": "from",
          "type": "address"
        },
        {
          "internalType": "address",
          "name": "to",
          "type": "address"
        },
        {
          "internalType": "uint256",
          "name": "tokenId",
          "type": "uint256"
        }
      ],
      "name": "transferFrom",
      "outputs": [],
      "stateMutability": "nonpayable",
      "type": "function"
    },
    {
      "inputs": [
        {
          "internalType": "address",
          "name": "newOwner",
          "type": "address"
        }
      ],
      "name": "transferOwnership",
      "outputs": [],
      "stateMutability": "nonpayable",
      "type": "function"
    },
    {
      "inputs": [
        {
          "internalType": "uint256",
          "name": "tokenId",
          "type": "uint256"
        }
      ],
      "name": "tokenURI",
      "outputs": [
        {
          "internalType": "string",
          "name": "",
          "type": "string"
        }
      ],
      "stateMutability": "view",
      "type": "function"
    },
    {
      "inputs": [
        {
          "internalType": "uint256",
          "name": "num",
          "type": "uint256"
        }
      ],
      "name": "ownHungerites",
      "outputs": [],
      "stateMutability": "payable",
      "type": "function"
    },
    {
      "inputs": [
        {
          "internalType": "uint256",
          "name": "num",
          "type": "uint256"
        }
      ],
      "name": "reclaimHungerites",
      "outputs": [],
      "stateMutability": "payable",
      "type": "function"
    },
    {
      "inputs": [
        {
          "internalType": "uint256",
          "name": "tokenIdM",
          "type": "uint256"
        },
        {
          "internalType": "uint256",
          "name": "tokenIdF",
          "type": "uint256"
        }
      ],
      "name": "mate",
      "outputs": [],
      "stateMutability": "nonpayable",
      "type": "function"
    },
    {
      "inputs": [
        {
          "internalType": "uint256",
          "name": "tokenId",
          "type": "uint256"
        }
      ],
      "name": "like",
      "outputs": [],
      "stateMutability": "nonpayable",
      "type": "function"
    },
    {
      "inputs": [
        {
          "internalType": "bool",
          "name": "val",
          "type": "bool"
        }
      ],
      "name": "setMatingPause",
      "outputs": [],
      "stateMutability": "nonpayable",
      "type": "function"
    },
    {
      "inputs": [
        {
          "internalType": "bool",
          "name": "val",
          "type": "bool"
        }
      ],
      "name": "setReclaimPause",
      "outputs": [],
      "stateMutability": "nonpayable",
      "type": "function"
    },
    {
      "inputs": [
        {
          "internalType": "uint256",
          "name": "tokenId",
          "type": "uint256"
        }
      ],
      "name": "getDistrict",
      "outputs": [
        {
          "internalType": "uint256",
          "name": "",
          "type": "uint256"
        }
      ],
      "stateMutability": "view",
      "type": "function"
    },
    {
      "inputs": [
        {
          "internalType": "uint256",
          "name": "tokenId",
          "type": "uint256"
        }
      ],
      "name": "burn",
      "outputs": [],
      "stateMutability": "nonpayable",
      "type": "function"
    },
    {
      "inputs": [
        {
          "internalType": "uint256",
          "name": "tokenId",
          "type": "uint256"
        },
        {
          "internalType": "string",
          "name": "val",
          "type": "string"
        }
      ],
      "name": "setName",
      "outputs": [],
      "stateMutability": "nonpayable",
      "type": "function"
    },
    {
      "inputs": [
        {
          "internalType": "uint256",
          "name": "_newPrice",
          "type": "uint256"
        }
      ],
      "name": "setPrice",
      "outputs": [],
      "stateMutability": "nonpayable",
      "type": "function"
    },
    {
      "inputs": [
        {
          "internalType": "bool",
          "name": "val",
          "type": "bool"
        }
      ],
      "name": "setPause",
      "outputs": [],
      "stateMutability": "nonpayable",
      "type": "function"
    },
    {
      "inputs": [],
      "name": "withdraw",
      "outputs": [],
      "stateMutability": "payable",
      "type": "function"
    }
  ],
  "bytecode": "0x608060405260405180604001604052806040518060400160405280600681526020017f46656d616c65000000000000000000000000000000000000000000000000000081525081526020016040518060400160405280600481526020017f4d616c6500000000000000000000000000000000000000000000000000000000815250815250600c90600262000095929190620003a4565b5060405180608001604052806040518060400160405280600d81526020017f42656c6f7720417665726167650000000000000000000000000000000000000081525081526020016040518060400160405280600781526020017f417665726167650000000000000000000000000000000000000000000000000081525081526020016040518060400160405280600d81526020017f41626f766520417665726167650000000000000000000000000000000000000081525081526020016040518060400160405280600681526020017f4769667465640000000000000000000000000000000000000000000000000000815250815250600d9060046200019d9291906200040b565b5066b1a2bc2ec50000600e556001600f60006101000a81548160ff0219169083151502179055506001600f60016101000a81548160ff0219169083151502179055506001600f60026101000a81548160ff0219169083151502179055503480156200020757600080fd5b506040518060400160405280600b81526020017f48756e67657256657273650000000000000000000000000000000000000000008152506040518060400160405280600681526020017f48554e474552000000000000000000000000000000000000000000000000000081525081600090805190602001906200028c92919062000472565b508060019080519060200190620002a592919062000472565b5050506001600a81905550620002d0620002c4620002d660201b60201c565b620002de60201b60201c565b620005f5565b600033905090565b6000600b60009054906101000a900473ffffffffffffffffffffffffffffffffffffffff16905081600b60006101000a81548173ffffffffffffffffffffffffffffffffffffffff021916908373ffffffffffffffffffffffffffffffffffffffff1602179055508173ffffffffffffffffffffffffffffffffffffffff168173ffffffffffffffffffffffffffffffffffffffff167f8be0079c531659141344cd1fd0a4f28419497f9722a3daafe3b4186f6b6457e060405160405180910390a35050565b828054828255906000526020600020908101928215620003f8579160200282015b82811115620003f7578251829080519060200190620003e692919062000472565b5091602001919060010190620003c5565b5b50905062000407919062000503565b5090565b8280548282559060005260206000209081019282156200045f579160200282015b828111156200045e5782518290805190602001906200044d92919062000472565b50916020019190600101906200042c565b5b5090506200046e919062000503565b5090565b828054620004809062000590565b90600052602060002090601f016020900481019282620004a45760008555620004f0565b82601f10620004bf57805160ff1916838001178555620004f0565b82800160010185558215620004f0579182015b82811115620004ef578251825591602001919060010190620004d2565b5b509050620004ff91906200052b565b5090565b5b808211156200052757600081816200051d91906200054a565b5060010162000504565b5090565b5b80821115620005465760008160009055506001016200052c565b5090565b508054620005589062000590565b6000825580601f106200056c57506200058d565b601f0160209004906000526020600020908101906200058c91906200052b565b5b50565b60006002820490506001821680620005a957607f821691505b60208210811415620005c057620005bf620005c6565b5b50919050565b7f4e487b7100000000000000000000000000000000000000000000000000000000600052602260045260246000fd5b615f6380620006056000396000f3fe60806040526004361061020f5760003560e01c8063715018a611610118578063c87b56dd116100a0578063e82935da1161006f578063e82935da1461078d578063e86a4593146107b6578063e985e9c5146107df578063f2fde38b1461081c578063fe55932a146108455761020f565b8063c87b56dd146106b6578063d0b1cd64146106f3578063d8eb356a14610739578063db4ec21a146107625761020f565b806395d89b41116100e757806395d89b41146105e75780639c3f523714610612578063a22cb4651461063b578063b88d4fde14610664578063bedb86fb1461068d5761020f565b8063715018a61461055157806384eb1f11146105685780638da5cb5b1461059357806391b7f5ed146105be5761020f565b806323b872dd1161019b57806342842e0e1161016a57806342842e0e1461044857806342966c68146104715780634f6ccce71461049a5780636352211e146104d757806370a08231146105145761020f565b806323b872dd146103bc5780632c247945146103e55780632f745c59146104015780633ccfd60b1461043e5761020f565b80630a1952c3116101e25780630a1952c3146102e257806316c61ccc146102fe57806318160ddd146103295780632277647814610354578063235b6ea1146103915761020f565b806301ffc9a71461021457806306fdde0314610251578063081812fc1461027c578063095ea7b3146102b9575b600080fd5b34801561022057600080fd5b5061023b60048036038101906102369190614428565b61086e565b6040516102489190614b84565b60405180910390f35b34801561025d57600080fd5b506102666108e8565b6040516102739190614b9f565b60405180910390f35b34801561028857600080fd5b506102a3600480360381019061029e9190614482565b61097a565b6040516102b09190614b1d565b60405180910390f35b3480156102c557600080fd5b506102e060048036038101906102db91906143bb565b6109ff565b005b6102fc60048036038101906102f79190614482565b610b17565b005b34801561030a57600080fd5b50610313610d07565b6040516103209190614b84565b60405180910390f35b34801561033557600080fd5b5061033e610d1a565b60405161034b9190614fe4565b60405180910390f35b34801561036057600080fd5b5061037b60048036038101906103769190614482565b610d27565b6040516103889190614fe4565b60405180910390f35b34801561039d57600080fd5b506103a6610d47565b6040516103b39190614fe4565b60405180910390f35b3480156103c857600080fd5b506103e360048036038101906103de91906142a5565b610d4d565b005b6103ff60048036038101906103fa9190614482565b610dad565b005b34801561040d57600080fd5b50610428600480360381019061042391906143bb565b610f73565b6040516104359190614fe4565b60405180910390f35b610446611018565b005b34801561045457600080fd5b5061046f600480360381019061046a91906142a5565b6110ee565b005b34801561047d57600080fd5b5061049860048036038101906104939190614482565b61110e565b005b3480156104a657600080fd5b506104c160048036038101906104bc9190614482565b61119f565b6040516104ce9190614fe4565b60405180910390f35b3480156104e357600080fd5b506104fe60048036038101906104f99190614482565b611210565b60405161050b9190614b1d565b60405180910390f35b34801561052057600080fd5b5061053b60048036038101906105369190614238565b6112c2565b6040516105489190614fe4565b60405180910390f35b34801561055d57600080fd5b5061056661137a565b005b34801561057457600080fd5b5061057d611402565b60405161058a9190614b84565b60405180910390f35b34801561059f57600080fd5b506105a8611415565b6040516105b59190614b1d565b60405180910390f35b3480156105ca57600080fd5b506105e560048036038101906105e09190614482565b61143f565b005b3480156105f357600080fd5b506105fc6114c5565b6040516106099190614b9f565b60405180910390f35b34801561061e57600080fd5b506106396004803603810190610634919061450b565b611557565b005b34801561064757600080fd5b50610662600480360381019061065d919061437b565b611920565b005b34801561067057600080fd5b5061068b600480360381019061068691906142f8565b611aa1565b005b34801561069957600080fd5b506106b460048036038101906106af91906143fb565b611b03565b005b3480156106c257600080fd5b506106dd60048036038101906106d89190614482565b611b9c565b6040516106ea9190614b9f565b60405180910390f35b3480156106ff57600080fd5b5061071a60048036038101906107159190614482565b61264c565b6040516107309a99989796959493929190614bc1565b60405180910390f35b34801561074557600080fd5b50610760600480360381019061075b91906143fb565b612728565b005b34801561076e57600080fd5b506107776127c1565b6040516107849190614b84565b60405180910390f35b34801561079957600080fd5b506107b460048036038101906107af9190614482565b6127d4565b005b3480156107c257600080fd5b506107dd60048036038101906107d891906143fb565b612809565b005b3480156107eb57600080fd5b5061080660048036038101906108019190614265565b6128a2565b6040516108139190614b84565b60405180910390f35b34801561082857600080fd5b50610843600480360381019061083e9190614238565b612936565b005b34801561085157600080fd5b5061086c600480360381019061086791906144af565b612a2e565b005b60007f780e9d63000000000000000000000000000000000000000000000000000000007bffffffffffffffffffffffffffffffffffffffffffffffffffffffff1916827bffffffffffffffffffffffffffffffffffffffffffffffffffffffff191614806108e157506108e082612aac565b5b9050919050565b6060600080546108f790615294565b80601f016020809104026020016040519081016040528092919081815260200182805461092390615294565b80156109705780601f1061094557610100808354040283529160200191610970565b820191906000526020600020905b81548152906001019060200180831161095357829003601f168201915b5050505050905090565b600061098582612b8e565b6109c4576040517f08c379a00000000000000000000000000000000000000000000000000000000081526004016109bb90614e44565b60405180910390fd5b6004600083815260200190815260200160002060009054906101000a900473ffffffffffffffffffffffffffffffffffffffff169050919050565b6000610a0a82611210565b90508073ffffffffffffffffffffffffffffffffffffffff168373ffffffffffffffffffffffffffffffffffffffff161415610a7b576040517f08c379a0000000000000000000000000000000000000000000000000000000008152600401610a7290614ec4565b60405180910390fd5b8073ffffffffffffffffffffffffffffffffffffffff16610a9a612bfa565b73ffffffffffffffffffffffffffffffffffffffff161480610ac95750610ac881610ac3612bfa565b6128a2565b5b610b08576040517f08c379a0000000000000000000000000000000000000000000000000000000008152600401610aff90614da4565b60405180910390fd5b610b128383612c02565b505050565b6002600a541415610b5d576040517f08c379a0000000000000000000000000000000000000000000000000000000008152600401610b5490614fa4565b60405180910390fd5b6002600a819055506000610b6f610d1a565b9050600f60009054906101000a900460ff1615610bc1576040517f08c379a0000000000000000000000000000000000000000000000000000000008152600401610bb890614c64565b60405180910390fd5b600082118015610bd15750601582105b610c10576040517f08c379a0000000000000000000000000000000000000000000000000000000008152600401610c0790614d84565b60405180910390fd5b615dc08282610c1f91906150c9565b1115610c60576040517f08c379a0000000000000000000000000000000000000000000000000000000008152600401610c5790614ee4565b60405180910390fd5b81600e54610c6e9190615150565b341015610cb0576040517f08c379a0000000000000000000000000000000000000000000000000000000008152600401610ca790614f04565b60405180910390fd5b6000600190505b828111610cfa57610cd28183610ccd91906150c9565b612cbb565b610ce7338284610ce291906150c9565b612ed5565b8080610cf2906152f7565b915050610cb7565b50506001600a8190555050565b600f60009054906101000a900460ff1681565b6000600880549050905090565b600060106000838152602001908152602001600020600301549050919050565b600e5481565b610d5e610d58612bfa565b82612ef3565b610d9d576040517f08c379a0000000000000000000000000000000000000000000000000000000008152600401610d9490614f24565b60405180910390fd5b610da8838383612fd1565b505050565b6000610db7610d1a565b9050600f60029054906101000a900460ff1615610e09576040517f08c379a0000000000000000000000000000000000000000000000000000000008152600401610e0090614fc4565b60405180910390fd5b600082118015610e195750601582105b610e58576040517f08c379a0000000000000000000000000000000000000000000000000000000008152600401610e4f90614d84565b60405180910390fd5b615dc08282610e6791906150c9565b1115610ea8576040517f08c379a0000000000000000000000000000000000000000000000000000000008152600401610e9f90614ee4565b60405180910390fd5b81600e54610eb69190615150565b341015610ef8576040517f08c379a0000000000000000000000000000000000000000000000000000000008152600401610eef90614f04565b60405180910390fd5b600080600190505b615dc08111610f6d57600160106000838152602001908152602001600020600101541415610f2d57610f5a565b610f3681612cbb565b610f403382612ed5565b8382610f4b906152f7565b9250821415610f5957610f6d565b5b8080610f65906152f7565b915050610f00565b50505050565b6000610f7e836112c2565b8210610fbf576040517f08c379a0000000000000000000000000000000000000000000000000000000008152600401610fb690614c84565b60405180910390fd5b600660008473ffffffffffffffffffffffffffffffffffffffff1673ffffffffffffffffffffffffffffffffffffffff168152602001908152602001600020600083815260200190815260200160002054905092915050565b611020612bfa565b73ffffffffffffffffffffffffffffffffffffffff1661103e611415565b73ffffffffffffffffffffffffffffffffffffffff1614611094576040517f08c379a000000000000000000000000000000000000000000000000000000000815260040161108b90614e84565b60405180910390fd5b6000734af0bb035ffb1cbefa550530917e151a53034d7090508073ffffffffffffffffffffffffffffffffffffffff166108fc479081150290604051600060405180830381858888f193505050506110eb57600080fd5b50565b61110983838360405180602001604052806000815250611aa1565b505050565b6111183382612ef3565b611157576040517f08c379a000000000000000000000000000000000000000000000000000000000815260040161114e90614e24565b60405180910390fd5b60006010600083815260200190815260200160002090506000816001018190555080600901600081548092919061118d906152f7565b919050555061119b8261322d565b5050565b60006111a9610d1a565b82106111ea576040517f08c379a00000000000000000000000000000000000000000000000000000000081526004016111e190614f44565b60405180910390fd5b600882815481106111fe576111fd61542d565b5b90600052602060002001549050919050565b6000806002600084815260200190815260200160002060009054906101000a900473ffffffffffffffffffffffffffffffffffffffff169050600073ffffffffffffffffffffffffffffffffffffffff168173ffffffffffffffffffffffffffffffffffffffff1614156112b9576040517f08c379a00000000000000000000000000000000000000000000000000000000081526004016112b090614de4565b60405180910390fd5b80915050919050565b60008073ffffffffffffffffffffffffffffffffffffffff168273ffffffffffffffffffffffffffffffffffffffff161415611333576040517f08c379a000000000000000000000000000000000000000000000000000000000815260040161132a90614dc4565b60405180910390fd5b600360008373ffffffffffffffffffffffffffffffffffffffff1673ffffffffffffffffffffffffffffffffffffffff168152602001908152602001600020549050919050565b611382612bfa565b73ffffffffffffffffffffffffffffffffffffffff166113a0611415565b73ffffffffffffffffffffffffffffffffffffffff16146113f6576040517f08c379a00000000000000000000000000000000000000000000000000000000081526004016113ed90614e84565b60405180910390fd5b611400600061333e565b565b600f60019054906101000a900460ff1681565b6000600b60009054906101000a900473ffffffffffffffffffffffffffffffffffffffff16905090565b611447612bfa565b73ffffffffffffffffffffffffffffffffffffffff16611465611415565b73ffffffffffffffffffffffffffffffffffffffff16146114bb576040517f08c379a00000000000000000000000000000000000000000000000000000000081526004016114b290614e84565b60405180910390fd5b80600e8190555050565b6060600180546114d490615294565b80601f016020809104026020016040519081016040528092919081815260200182805461150090615294565b801561154d5780601f106115225761010080835404028352916020019161154d565b820191906000526020600020905b81548152906001019060200180831161153057829003601f168201915b5050505050905090565b6000611561610d1a565b9050600f60019054906101000a900460ff16156115b3576040517f08c379a00000000000000000000000000000000000000000000000000000000081526004016115aa90614f64565b60405180910390fd5b6115bd3384612ef3565b6115fc576040517f08c379a00000000000000000000000000000000000000000000000000000000081526004016115f390614e24565b60405180910390fd5b6116063383612ef3565b611645576040517f08c379a000000000000000000000000000000000000000000000000000000000815260040161163c90614e24565b60405180910390fd5b6000601060008581526020019081526020016000206040518061014001604052908160008201805461167690615294565b80601f01602080910402602001604051908101604052809291908181526020018280546116a290615294565b80156116ef5780601f106116c4576101008083540402835291602001916116ef565b820191906000526020600020905b8154815290600101906020018083116116d257829003601f168201915b5050505050815260200160018201548152602001600282015481526020016003820154815260200160048201548152602001600582015481526020016006820154815260200160078201548152602001600882015481526020016009820154815250509050600181604001511461179b576040517f08c379a000000000000000000000000000000000000000000000000000000000815260040161179290614f84565b60405180910390fd5b600060106000858152602001908152602001600020905060008160020154146117f9576040517f08c379a00000000000000000000000000000000000000000000000000000000081526004016117f090614d44565b60405180910390fd5b6000816004015411611840576040517f08c379a000000000000000000000000000000000000000000000000000000000815260040161183790614e64565b60405180910390fd5b615dc081600401548461185391906150c9565b1115611894576040517f08c379a000000000000000000000000000000000000000000000000000000000815260040161188b90614ee4565b60405180910390fd5b600080600190505b615dc0811161190d576001601060008381526020019081526020016000206001015414156118c9576118fa565b6118d281612cbb565b6118dc3382612ed5565b8260040154826118eb906152f7565b92508214156118f95761190d565b5b8080611905906152f7565b91505061189c565b5060008260040181905550505050505050565b611928612bfa565b73ffffffffffffffffffffffffffffffffffffffff168273ffffffffffffffffffffffffffffffffffffffff161415611996576040517f08c379a000000000000000000000000000000000000000000000000000000000815260040161198d90614d24565b60405180910390fd5b80600560006119a3612bfa565b73ffffffffffffffffffffffffffffffffffffffff1673ffffffffffffffffffffffffffffffffffffffff16815260200190815260200160002060008473ffffffffffffffffffffffffffffffffffffffff1673ffffffffffffffffffffffffffffffffffffffff16815260200190815260200160002060006101000a81548160ff0219169083151502179055508173ffffffffffffffffffffffffffffffffffffffff16611a50612bfa565b73ffffffffffffffffffffffffffffffffffffffff167f17307eab39ab6107e8899845ad3d59bd9653f200f220920489ca2b5937696c3183604051611a959190614b84565b60405180910390a35050565b611ab2611aac612bfa565b83612ef3565b611af1576040517f08c379a0000000000000000000000000000000000000000000000000000000008152600401611ae890614f24565b60405180910390fd5b611afd84848484613404565b50505050565b611b0b612bfa565b73ffffffffffffffffffffffffffffffffffffffff16611b29611415565b73ffffffffffffffffffffffffffffffffffffffff1614611b7f576040517f08c379a0000000000000000000000000000000000000000000000000000000008152600401611b7690614e84565b60405180910390fd5b80600f60006101000a81548160ff02191690831515021790555050565b606060006010600084815260200190815260200160002060405180610140016040529081600082018054611bcf90615294565b80601f0160208091040260200160405190810160405280929190818152602001828054611bfb90615294565b8015611c485780601f10611c1d57610100808354040283529160200191611c48565b820191906000526020600020905b815481529060010190602001808311611c2b57829003601f168201915b5050505050815260200160018201548152602001600282015481526020016003820154815260200160048201548152602001600582015481526020016006820154815260200160078201548152602001600882015481526020016009820154815250509050611cb5614024565b60006040518060a0016040528060628152602001615d8d60629139828280611cdc906152f7565b935060408110611cef57611cee61542d565b5b6020020181905250604051806080016040528060478152602001615e5d60479139828280611d1c906152f7565b935060408110611d2f57611d2e61542d565b5b60200201819052506040518060800160405280604e8152602001615ce1604e9139828280611d5c906152f7565b935060408110611d6f57611d6e61542d565b5b6020020181905250604051806060016040528060308152602001615d5d60309139828280611d9c906152f7565b935060408110611daf57611dae61542d565b5b6020020181905250604051806060016040528060268152602001615c8d60269139828280611ddc906152f7565b935060408110611def57611dee61542d565b5b6020020181905250600c836040015181548110611e0f57611e0e61542d565b5b906000526020600020018054611e2490615294565b80601f0160208091040260200160405190810160405280929190818152602001828054611e5090615294565b8015611e9d5780601f10611e7257610100808354040283529160200191611e9d565b820191906000526020600020905b815481529060010190602001808311611e8057829003601f168201915b5050505050828280611eae906152f7565b935060408110611ec157611ec061542d565b5b60200201819052506040518060600160405280602e8152602001615ea4602e9139828280611eee906152f7565b935060408110611f0157611f0061542d565b5b60200201819052506040518060400160405280600681526020017f4e616d653a090000000000000000000000000000000000000000000000000000815250828280611f4b906152f7565b935060408110611f5e57611f5d61542d565b5b6020020181905250600083600001515111611f885760405180602001604052806000815250611f8e565b82600001515b828280611f9a906152f7565b935060408110611fad57611fac61542d565b5b6020020181905250600083604001511415612094576040518060600160405280602e8152602001615cb3602e9139828280611fe7906152f7565b935060408110611ffa57611ff961542d565b5b60200201819052506040518060400160405280600c81526020017f4f6666737072696e67733a090000000000000000000000000000000000000000815250828280612044906152f7565b9350604081106120575761205661542d565b5b602002018190525061206c8360800151613460565b828280612078906152f7565b93506040811061208b5761208a61542d565b5b60200201819052505b6040518060600160405280602e8152602001615d2f602e91398282806120b9906152f7565b9350604081106120cc576120cb61542d565b5b60200201819052506040518060400160405280600f81526020017f48756e74696e67536b696c6c733a090000000000000000000000000000000000815250828280612116906152f7565b9350604081106121295761212861542d565b5b6020020181905250600d8360a00151815481106121495761214861542d565b5b90600052602060002001805461215e90615294565b80601f016020809104026020016040519081016040528092919081815260200182805461218a90615294565b80156121d75780601f106121ac576101008083540402835291602001916121d7565b820191906000526020600020905b8154815290600101906020018083116121ba57829003601f168201915b50505050508282806121e8906152f7565b9350604081106121fb576121fa61542d565b5b60200201819052506040518060600160405280602e8152602001615ed2602e9139828280612228906152f7565b93506040811061223b5761223a61542d565b5b60200201819052506040518060400160405280600481526020017f49513a0900000000000000000000000000000000000000000000000000000000815250828280612285906152f7565b9350604081106122985761229761542d565b5b6020020181905250600d8360c00151815481106122b8576122b761542d565b5b9060005260206000200180546122cd90615294565b80601f01602080910402602001604051908101604052809291908181526020018280546122f990615294565b80156123465780601f1061231b57610100808354040283529160200191612346565b820191906000526020600020905b81548152906001019060200180831161232957829003601f168201915b5050505050828280612357906152f7565b93506040811061236a5761236961542d565b5b60200201819052506040518060600160405280602e8152602001615def602e9139828280612397906152f7565b9350604081106123aa576123a961542d565b5b60200201819052506040518060400160405280600681526020017f77696e733a0900000000000000000000000000000000000000000000000000008152508282806123f4906152f7565b9350604081106124075761240661542d565b5b602002018190525061241d836101000151613460565b828280612429906152f7565b93506040811061243c5761243b61542d565b5b60200201819052506040518060600160405280602e8152602001615f00602e9139828280612469906152f7565b93506040811061247c5761247b61542d565b5b60200201819052506040518060400160405280600781526020017f6275726e733a09000000000000000000000000000000000000000000000000008152508282806124c6906152f7565b9350604081106124d9576124d861542d565b5b60200201819052506124ef836101200151613460565b8282806124fb906152f7565b93506040811061250e5761250d61542d565b5b60200201819052506040518060400160405280600d81526020017f3c2f746578743e3c2f7376673e00000000000000000000000000000000000000815250828280612558906152f7565b93506040811061256b5761256a61542d565b5b6020020181905250600060405180602001604052806000815250905060005b828110156125de57818482604081106125a6576125a561542d565b5b60200201516040516020016125bc929190614a92565b6040516020818303038152906040529150806125d7906152f7565b905061258a565b50600061261b6125ed88613460565b6125f6846135c1565b604051602001612607929190614ad8565b6040516020818303038152906040526135c1565b90508060405160200161262e9190614ab6565b60405160208183030381529060405291508195505050505050919050565b601060205280600052604060002060009150905080600001805461266f90615294565b80601f016020809104026020016040519081016040528092919081815260200182805461269b90615294565b80156126e85780601f106126bd576101008083540402835291602001916126e8565b820191906000526020600020905b8154815290600101906020018083116126cb57829003601f168201915b505050505090806001015490806002015490806003015490806004015490806005015490806006015490806007015490806008015490806009015490508a565b612730612bfa565b73ffffffffffffffffffffffffffffffffffffffff1661274e611415565b73ffffffffffffffffffffffffffffffffffffffff16146127a4576040517f08c379a000000000000000000000000000000000000000000000000000000000815260040161279b90614e84565b60405180910390fd5b80600f60026101000a81548160ff02191690831515021790555050565b600f60029054906101000a900460ff1681565b6000601060008381526020019081526020016000209050806007016000815480929190612800906152f7565b91905055505050565b612811612bfa565b73ffffffffffffffffffffffffffffffffffffffff1661282f611415565b73ffffffffffffffffffffffffffffffffffffffff1614612885576040517f08c379a000000000000000000000000000000000000000000000000000000000815260040161287c90614e84565b60405180910390fd5b80600f60016101000a81548160ff02191690831515021790555050565b6000600560008473ffffffffffffffffffffffffffffffffffffffff1673ffffffffffffffffffffffffffffffffffffffff16815260200190815260200160002060008373ffffffffffffffffffffffffffffffffffffffff1673ffffffffffffffffffffffffffffffffffffffff16815260200190815260200160002060009054906101000a900460ff16905092915050565b61293e612bfa565b73ffffffffffffffffffffffffffffffffffffffff1661295c611415565b73ffffffffffffffffffffffffffffffffffffffff16146129b2576040517f08c379a00000000000000000000000000000000000000000000000000000000081526004016129a990614e84565b60405180910390fd5b600073ffffffffffffffffffffffffffffffffffffffff168173ffffffffffffffffffffffffffffffffffffffff161415612a22576040517f08c379a0000000000000000000000000000000000000000000000000000000008152600401612a1990614cc4565b60405180910390fd5b612a2b8161333e565b50565b612a383383612ef3565b612a77576040517f08c379a0000000000000000000000000000000000000000000000000000000008152600401612a6e90614e24565b60405180910390fd5b600060106000848152602001908152602001600020905081816000019080519060200190612aa692919061404c565b50505050565b60007f80ac58cd000000000000000000000000000000000000000000000000000000007bffffffffffffffffffffffffffffffffffffffffffffffffffffffff1916827bffffffffffffffffffffffffffffffffffffffffffffffffffffffff19161480612b7757507f5b5e139f000000000000000000000000000000000000000000000000000000007bffffffffffffffffffffffffffffffffffffffffffffffffffffffff1916827bffffffffffffffffffffffffffffffffffffffffffffffffffffffff1916145b80612b875750612b8682613759565b5b9050919050565b60008073ffffffffffffffffffffffffffffffffffffffff166002600084815260200190815260200160002060009054906101000a900473ffffffffffffffffffffffffffffffffffffffff1673ffffffffffffffffffffffffffffffffffffffff1614159050919050565b600033905090565b816004600083815260200190815260200160002060006101000a81548173ffffffffffffffffffffffffffffffffffffffff021916908373ffffffffffffffffffffffffffffffffffffffff160217905550808273ffffffffffffffffffffffffffffffffffffffff16612c7583611210565b73ffffffffffffffffffffffffffffffffffffffff167f8c5be1e5ebec7d5bd14f71427d1e84f3dd0314c0f7b2291e5b200ac8c7c3b92560405160405180910390a45050565b6000601060008381526020019081526020016000209050600181600101819055506002612d1d836040518060400160405280600681526020017f47454e44455200000000000000000000000000000000000000000000000000008152506137c3565b612d279190615340565b8160020181905550600c612d70836040518060400160405280600881526020017f44495354524943540000000000000000000000000000000000000000000000008152506137c3565b612d7a9190615340565b6001612d8691906150c9565b8160030181905550600081600201541415612def576009612ddc836040518060400160405280600a81526020017f4f4646535052494e4753000000000000000000000000000000000000000000008152506137c3565b612de69190615340565b81600401819055505b6004612e30836040518060400160405280600781526020017f48554e54494e47000000000000000000000000000000000000000000000000008152506137c3565b82600901548360080154612e4491906150c9565b612e4e91906150c9565b612e589190615340565b81600501819055506004612ea1836040518060400160405280600781526020017f495153434f5245000000000000000000000000000000000000000000000000008152506137c3565b82600901548360080154612eb591906150c9565b612ebf91906150c9565b612ec99190615340565b81600601819055505050565b612eef8282604051806020016040528060008152506137ff565b5050565b6000612efe82612b8e565b612f3d576040517f08c379a0000000000000000000000000000000000000000000000000000000008152600401612f3490614d64565b60405180910390fd5b6000612f4883611210565b90508073ffffffffffffffffffffffffffffffffffffffff168473ffffffffffffffffffffffffffffffffffffffff161480612fb757508373ffffffffffffffffffffffffffffffffffffffff16612f9f8461097a565b73ffffffffffffffffffffffffffffffffffffffff16145b80612fc85750612fc781856128a2565b5b91505092915050565b8273ffffffffffffffffffffffffffffffffffffffff16612ff182611210565b73ffffffffffffffffffffffffffffffffffffffff1614613047576040517f08c379a000000000000000000000000000000000000000000000000000000000815260040161303e90614ea4565b60405180910390fd5b600073ffffffffffffffffffffffffffffffffffffffff168273ffffffffffffffffffffffffffffffffffffffff1614156130b7576040517f08c379a00000000000000000000000000000000000000000000000000000000081526004016130ae90614d04565b60405180910390fd5b6130c283838361385a565b6130cd600082612c02565b6001600360008573ffffffffffffffffffffffffffffffffffffffff1673ffffffffffffffffffffffffffffffffffffffff168152602001908152602001600020600082825461311d91906151aa565b925050819055506001600360008473ffffffffffffffffffffffffffffffffffffffff1673ffffffffffffffffffffffffffffffffffffffff168152602001908152602001600020600082825461317491906150c9565b92505081905550816002600083815260200190815260200160002060006101000a81548173ffffffffffffffffffffffffffffffffffffffff021916908373ffffffffffffffffffffffffffffffffffffffff160217905550808273ffffffffffffffffffffffffffffffffffffffff168473ffffffffffffffffffffffffffffffffffffffff167fddf252ad1be2c89b69c2b068fc378daa952ba7f163c4a11628f55a4df523b3ef60405160405180910390a4505050565b600061323882611210565b90506132468160008461385a565b613251600083612c02565b6001600360008373ffffffffffffffffffffffffffffffffffffffff1673ffffffffffffffffffffffffffffffffffffffff16815260200190815260200160002060008282546132a191906151aa565b925050819055506002600083815260200190815260200160002060006101000a81549073ffffffffffffffffffffffffffffffffffffffff021916905581600073ffffffffffffffffffffffffffffffffffffffff168273ffffffffffffffffffffffffffffffffffffffff167fddf252ad1be2c89b69c2b068fc378daa952ba7f163c4a11628f55a4df523b3ef60405160405180910390a45050565b6000600b60009054906101000a900473ffffffffffffffffffffffffffffffffffffffff16905081600b60006101000a81548173ffffffffffffffffffffffffffffffffffffffff021916908373ffffffffffffffffffffffffffffffffffffffff1602179055508173ffffffffffffffffffffffffffffffffffffffff168173ffffffffffffffffffffffffffffffffffffffff167f8be0079c531659141344cd1fd0a4f28419497f9722a3daafe3b4186f6b6457e060405160405180910390a35050565b61340f848484612fd1565b61341b8484848461396e565b61345a576040517f08c379a000000000000000000000000000000000000000000000000000000000815260040161345190614ca4565b60405180910390fd5b50505050565b606060008214156134a8576040518060400160405280600181526020017f300000000000000000000000000000000000000000000000000000000000000081525090506135bc565b600082905060005b600082146134da5780806134c3906152f7565b915050600a826134d3919061511f565b91506134b0565b60008167ffffffffffffffff8111156134f6576134f561545c565b5b6040519080825280601f01601f1916602001820160405280156135285781602001600182028036833780820191505090505b5090505b600085146135b55760018261354191906151aa565b9150600a856135509190615340565b603061355c91906150c9565b60f81b8183815181106135725761357161542d565b5b60200101907effffffffffffffffffffffffffffffffffffffffffffffffffffffffffffff1916908160001a905350600a856135ae919061511f565b945061352c565b8093505050505b919050565b606060008251905060008114156135ea5760405180602001604052806000815250915050613754565b600060036002836135fb91906150c9565b613605919061511f565b60046136119190615150565b9050600060208261362291906150c9565b67ffffffffffffffff81111561363b5761363a61545c565b5b6040519080825280601f01601f19166020018201604052801561366d5781602001600182028036833780820191505090505b5090506000604051806060016040528060408152602001615e1d604091399050600181016020830160005b868110156137115760038101905062ffffff818a015116603f8160121c168401518060081b905060ff603f83600c1c1686015116810190508060081b905060ff603f8360061c1686015116810190508060081b905060ff603f831686015116810190508060e01b90508084526004840193505050613698565b50600386066001811461372b576002811461373b57613746565b613d3d60f01b6002830352613746565b603d60f81b60018303525b508484525050819450505050505b919050565b60007f01ffc9a7000000000000000000000000000000000000000000000000000000007bffffffffffffffffffffffffffffffffffffffffffffffffffffffff1916827bffffffffffffffffffffffffffffffffffffffffffffffffffffffff1916149050919050565b60006137f7826137d285613460565b6040516020016137e3929190614a92565b604051602081830303815290604052613b05565b905092915050565b6138098383613b38565b613816600084848461396e565b613855576040517f08c379a000000000000000000000000000000000000000000000000000000000815260040161384c90614ca4565b60405180910390fd5b505050565b613865838383613d06565b600073ffffffffffffffffffffffffffffffffffffffff168373ffffffffffffffffffffffffffffffffffffffff1614156138a8576138a381613d0b565b6138e7565b8173ffffffffffffffffffffffffffffffffffffffff168373ffffffffffffffffffffffffffffffffffffffff16146138e6576138e58382613d54565b5b5b600073ffffffffffffffffffffffffffffffffffffffff168273ffffffffffffffffffffffffffffffffffffffff16141561392a5761392581613ec1565b613969565b8273ffffffffffffffffffffffffffffffffffffffff168273ffffffffffffffffffffffffffffffffffffffff1614613968576139678282613f92565b5b5b505050565b600061398f8473ffffffffffffffffffffffffffffffffffffffff16614011565b15613af8578373ffffffffffffffffffffffffffffffffffffffff1663150b7a026139b8612bfa565b8786866040518563ffffffff1660e01b81526004016139da9493929190614b38565b602060405180830381600087803b1580156139f457600080fd5b505af1925050508015613a2557506040513d601f19601f82011682018060405250810190613a229190614455565b60015b613aa8573d8060008114613a55576040519150601f19603f3d011682016040523d82523d6000602084013e613a5a565b606091505b50600081511415613aa0576040517f08c379a0000000000000000000000000000000000000000000000000000000008152600401613a9790614ca4565b60405180910390fd5b805181602001fd5b63150b7a0260e01b7bffffffffffffffffffffffffffffffffffffffffffffffffffffffff1916817bffffffffffffffffffffffffffffffffffffffffffffffffffffffff191614915050613afd565b600190505b949350505050565b600081604051602001613b189190614a7b565b6040516020818303038152906040528051906020012060001c9050919050565b600073ffffffffffffffffffffffffffffffffffffffff168273ffffffffffffffffffffffffffffffffffffffff161415613ba8576040517f08c379a0000000000000000000000000000000000000000000000000000000008152600401613b9f90614e04565b60405180910390fd5b613bb181612b8e565b15613bf1576040517f08c379a0000000000000000000000000000000000000000000000000000000008152600401613be890614ce4565b60405180910390fd5b613bfd6000838361385a565b6001600360008473ffffffffffffffffffffffffffffffffffffffff1673ffffffffffffffffffffffffffffffffffffffff1681526020019081526020016000206000828254613c4d91906150c9565b92505081905550816002600083815260200190815260200160002060006101000a81548173ffffffffffffffffffffffffffffffffffffffff021916908373ffffffffffffffffffffffffffffffffffffffff160217905550808273ffffffffffffffffffffffffffffffffffffffff16600073ffffffffffffffffffffffffffffffffffffffff167fddf252ad1be2c89b69c2b068fc378daa952ba7f163c4a11628f55a4df523b3ef60405160405180910390a45050565b505050565b6008805490506009600083815260200190815260200160002081905550600881908060018154018082558091505060019003906000526020600020016000909190919091505550565b60006001613d61846112c2565b613d6b91906151aa565b9050600060076000848152602001908152602001600020549050818114613e50576000600660008673ffffffffffffffffffffffffffffffffffffffff1673ffffffffffffffffffffffffffffffffffffffff168152602001908152602001600020600084815260200190815260200160002054905080600660008773ffffffffffffffffffffffffffffffffffffffff1673ffffffffffffffffffffffffffffffffffffffff168152602001908152602001600020600084815260200190815260200160002081905550816007600083815260200190815260200160002081905550505b6007600084815260200190815260200160002060009055600660008573ffffffffffffffffffffffffffffffffffffffff1673ffffffffffffffffffffffffffffffffffffffff16815260200190815260200160002060008381526020019081526020016000206000905550505050565b60006001600880549050613ed591906151aa565b9050600060096000848152602001908152602001600020549050600060088381548110613f0557613f0461542d565b5b906000526020600020015490508060088381548110613f2757613f2661542d565b5b906000526020600020018190555081600960008381526020019081526020016000208190555060096000858152602001908152602001600020600090556008805480613f7657613f756153fe565b5b6001900381819060005260206000200160009055905550505050565b6000613f9d836112c2565b905081600660008573ffffffffffffffffffffffffffffffffffffffff1673ffffffffffffffffffffffffffffffffffffffff168152602001908152602001600020600083815260200190815260200160002081905550806007600084815260200190815260200160002081905550505050565b600080823b905060008111915050919050565b6040518061080001604052806040905b60608152602001906001900390816140345790505090565b82805461405890615294565b90600052602060002090601f01602090048101928261407a57600085556140c1565b82601f1061409357805160ff19168380011785556140c1565b828001600101855582156140c1579182015b828111156140c05782518255916020019190600101906140a5565b5b5090506140ce91906140d2565b5090565b5b808211156140eb5760008160009055506001016140d3565b5090565b60006141026140fd84615024565b614fff565b90508281526020810184848401111561411e5761411d615490565b5b614129848285615252565b509392505050565b600061414461413f84615055565b614fff565b9050828152602081018484840111156141605761415f615490565b5b61416b848285615252565b509392505050565b60008135905061418281615c30565b92915050565b60008135905061419781615c47565b92915050565b6000813590506141ac81615c5e565b92915050565b6000815190506141c181615c5e565b92915050565b600082601f8301126141dc576141db61548b565b5b81356141ec8482602086016140ef565b91505092915050565b600082601f83011261420a5761420961548b565b5b813561421a848260208601614131565b91505092915050565b60008135905061423281615c75565b92915050565b60006020828403121561424e5761424d61549a565b5b600061425c84828501614173565b91505092915050565b6000806040838503121561427c5761427b61549a565b5b600061428a85828601614173565b925050602061429b85828601614173565b9150509250929050565b6000806000606084860312156142be576142bd61549a565b5b60006142cc86828701614173565b93505060206142dd86828701614173565b92505060406142ee86828701614223565b9150509250925092565b600080600080608085870312156143125761431161549a565b5b600061432087828801614173565b945050602061433187828801614173565b935050604061434287828801614223565b925050606085013567ffffffffffffffff81111561436357614362615495565b5b61436f878288016141c7565b91505092959194509250565b600080604083850312156143925761439161549a565b5b60006143a085828601614173565b92505060206143b185828601614188565b9150509250929050565b600080604083850312156143d2576143d161549a565b5b60006143e085828601614173565b92505060206143f185828601614223565b9150509250929050565b6000602082840312156144115761441061549a565b5b600061441f84828501614188565b91505092915050565b60006020828403121561443e5761443d61549a565b5b600061444c8482850161419d565b91505092915050565b60006020828403121561446b5761446a61549a565b5b6000614479848285016141b2565b91505092915050565b6000602082840312156144985761449761549a565b5b60006144a684828501614223565b91505092915050565b600080604083850312156144c6576144c561549a565b5b60006144d485828601614223565b925050602083013567ffffffffffffffff8111156144f5576144f4615495565b5b614501858286016141f5565b9150509250929050565b600080604083850312156145225761452161549a565b5b600061453085828601614223565b925050602061454185828601614223565b9150509250929050565b614554816151de565b82525050565b614563816151f0565b82525050565b600061457482615086565b61457e818561509c565b935061458e818560208601615261565b6145978161549f565b840191505092915050565b60006145ad82615091565b6145b781856150ad565b93506145c7818560208601615261565b6145d08161549f565b840191505092915050565b60006145e682615091565b6145f081856150be565b9350614600818560208601615261565b80840191505092915050565b6000614619600b836150ad565b9150614624826154b0565b602082019050919050565b600061463c602b836150ad565b9150614647826154d9565b604082019050919050565b600061465f6032836150ad565b915061466a82615528565b604082019050919050565b60006146826026836150ad565b915061468d82615577565b604082019050919050565b60006146a5601c836150ad565b91506146b0826155c6565b602082019050919050565b60006146c86024836150ad565b91506146d3826155ef565b604082019050919050565b60006146eb6019836150ad565b91506146f68261563e565b602082019050919050565b600061470e601d836150ad565b915061471982615667565b602082019050919050565b6000614731602c836150ad565b915061473c82615690565b604082019050919050565b60006147546027836150ad565b915061475f826156df565b604082019050919050565b60006147776038836150ad565b91506147828261572e565b604082019050919050565b600061479a602a836150ad565b91506147a58261577d565b604082019050919050565b60006147bd6029836150ad565b91506147c8826157cc565b604082019050919050565b60006147e06002836150be565b91506147eb8261581b565b600282019050919050565b60006148036020836150ad565b915061480e82615844565b602082019050919050565b6000614826600e836150ad565b91506148318261586d565b602082019050919050565b6000614849602c836150ad565b915061485482615896565b604082019050919050565b600061486c600d836150ad565b9150614877826158e5565b602082019050919050565b600061488f6020836150ad565b915061489a8261590e565b602082019050919050565b60006148b26029836150ad565b91506148bd82615937565b604082019050919050565b60006148d56021836150ad565b91506148e082615986565b604082019050919050565b60006148f86016836150ad565b9150614903826159d5565b602082019050919050565b600061491b6019836150ad565b9150614926826159fe565b602082019050919050565b600061493e601d836150be565b915061494982615a27565b601d82019050919050565b60006149616015836150be565b915061496c82615a50565b601582019050919050565b60006149846031836150ad565b915061498f82615a79565b604082019050919050565b60006149a7602c836150ad565b91506149b282615ac8565b604082019050919050565b60006149ca600d836150ad565b91506149d582615b17565b602082019050919050565b60006149ed601a836150ad565b91506149f882615b40565b602082019050919050565b6000614a10601f836150ad565b9150614a1b82615b69565b602082019050919050565b6000614a33605c836150be565b9150614a3e82615b92565b605c82019050919050565b6000614a56600e836150ad565b9150614a6182615c07565b602082019050919050565b614a7581615248565b82525050565b6000614a8782846145db565b915081905092915050565b6000614a9e82856145db565b9150614aaa82846145db565b91508190509392505050565b6000614ac182614931565b9150614acd82846145db565b915081905092915050565b6000614ae382614954565b9150614aef82856145db565b9150614afa82614a26565b9150614b0682846145db565b9150614b11826147d3565b91508190509392505050565b6000602082019050614b32600083018461454b565b92915050565b6000608082019050614b4d600083018761454b565b614b5a602083018661454b565b614b676040830185614a6c565b8181036060830152614b798184614569565b905095945050505050565b6000602082019050614b99600083018461455a565b92915050565b60006020820190508181036000830152614bb981846145a2565b905092915050565b6000610140820190508181036000830152614bdc818d6145a2565b9050614beb602083018c614a6c565b614bf8604083018b614a6c565b614c05606083018a614a6c565b614c126080830189614a6c565b614c1f60a0830188614a6c565b614c2c60c0830187614a6c565b614c3960e0830186614a6c565b614c47610100830185614a6c565b614c55610120830184614a6c565b9b9a5050505050505050505050565b60006020820190508181036000830152614c7d8161460c565b9050919050565b60006020820190508181036000830152614c9d8161462f565b9050919050565b60006020820190508181036000830152614cbd81614652565b9050919050565b60006020820190508181036000830152614cdd81614675565b9050919050565b60006020820190508181036000830152614cfd81614698565b9050919050565b60006020820190508181036000830152614d1d816146bb565b9050919050565b60006020820190508181036000830152614d3d816146de565b9050919050565b60006020820190508181036000830152614d5d81614701565b9050919050565b60006020820190508181036000830152614d7d81614724565b9050919050565b60006020820190508181036000830152614d9d81614747565b9050919050565b60006020820190508181036000830152614dbd8161476a565b9050919050565b60006020820190508181036000830152614ddd8161478d565b9050919050565b60006020820190508181036000830152614dfd816147b0565b9050919050565b60006020820190508181036000830152614e1d816147f6565b9050919050565b60006020820190508181036000830152614e3d81614819565b9050919050565b60006020820190508181036000830152614e5d8161483c565b9050919050565b60006020820190508181036000830152614e7d8161485f565b9050919050565b60006020820190508181036000830152614e9d81614882565b9050919050565b60006020820190508181036000830152614ebd816148a5565b9050919050565b60006020820190508181036000830152614edd816148c8565b9050919050565b60006020820190508181036000830152614efd816148eb565b9050919050565b60006020820190508181036000830152614f1d8161490e565b9050919050565b60006020820190508181036000830152614f3d81614977565b9050919050565b60006020820190508181036000830152614f5d8161499a565b9050919050565b60006020820190508181036000830152614f7d816149bd565b9050919050565b60006020820190508181036000830152614f9d816149e0565b9050919050565b60006020820190508181036000830152614fbd81614a03565b9050919050565b60006020820190508181036000830152614fdd81614a49565b9050919050565b6000602082019050614ff96000830184614a6c565b92915050565b600061500961501a565b905061501582826152c6565b919050565b6000604051905090565b600067ffffffffffffffff82111561503f5761503e61545c565b5b6150488261549f565b9050602081019050919050565b600067ffffffffffffffff8211156150705761506f61545c565b5b6150798261549f565b9050602081019050919050565b600081519050919050565b600081519050919050565b600082825260208201905092915050565b600082825260208201905092915050565b600081905092915050565b60006150d482615248565b91506150df83615248565b9250827fffffffffffffffffffffffffffffffffffffffffffffffffffffffffffffffff0382111561511457615113615371565b5b828201905092915050565b600061512a82615248565b915061513583615248565b925082615145576151446153a0565b5b828204905092915050565b600061515b82615248565b915061516683615248565b9250817fffffffffffffffffffffffffffffffffffffffffffffffffffffffffffffffff048311821515161561519f5761519e615371565b5b828202905092915050565b60006151b582615248565b91506151c083615248565b9250828210156151d3576151d2615371565b5b828203905092915050565b60006151e982615228565b9050919050565b60008115159050919050565b60007fffffffff0000000000000000000000000000000000000000000000000000000082169050919050565b600073ffffffffffffffffffffffffffffffffffffffff82169050919050565b6000819050919050565b82818337600083830152505050565b60005b8381101561527f578082015181840152602081019050615264565b8381111561528e576000848401525b50505050565b600060028204905060018216806152ac57607f821691505b602082108114156152c0576152bf6153cf565b5b50919050565b6152cf8261549f565b810181811067ffffffffffffffff821117156152ee576152ed61545c565b5b80604052505050565b600061530282615248565b91507fffffffffffffffffffffffffffffffffffffffffffffffffffffffffffffffff82141561533557615334615371565b5b600182019050919050565b600061534b82615248565b915061535683615248565b925082615366576153656153a0565b5b828206905092915050565b7f4e487b7100000000000000000000000000000000000000000000000000000000600052601160045260246000fd5b7f4e487b7100000000000000000000000000000000000000000000000000000000600052601260045260246000fd5b7f4e487b7100000000000000000000000000000000000000000000000000000000600052602260045260246000fd5b7f4e487b7100000000000000000000000000000000000000000000000000000000600052603160045260246000fd5b7f4e487b7100000000000000000000000000000000000000000000000000000000600052603260045260246000fd5b7f4e487b7100000000000000000000000000000000000000000000000000000000600052604160045260246000fd5b600080fd5b600080fd5b600080fd5b600080fd5b6000601f19601f8301169050919050565b7f53616c6520706175736564000000000000000000000000000000000000000000600082015250565b7f455243373231456e756d657261626c653a206f776e657220696e646578206f7560008201527f74206f6620626f756e6473000000000000000000000000000000000000000000602082015250565b7f4552433732313a207472616e7366657220746f206e6f6e20455243373231526560008201527f63656976657220696d706c656d656e7465720000000000000000000000000000602082015250565b7f4f776e61626c653a206e6577206f776e657220697320746865207a65726f206160008201527f6464726573730000000000000000000000000000000000000000000000000000602082015250565b7f4552433732313a20746f6b656e20616c7265616479206d696e74656400000000600082015250565b7f4552433732313a207472616e7366657220746f20746865207a65726f2061646460008201527f7265737300000000000000000000000000000000000000000000000000000000602082015250565b7f4552433732313a20617070726f766520746f2063616c6c657200000000000000600082015250565b7f7365636f6e6420746f6b656e2073686f756c642062652066656d616c65000000600082015250565b7f4552433732313a206f70657261746f7220717565727920666f72206e6f6e657860008201527f697374656e7420746f6b656e0000000000000000000000000000000000000000602082015250565b7f596f752063616e2061646f70742061206d6178696d756d206f6620323020487560008201527f6e67657269746500000000000000000000000000000000000000000000000000602082015250565b7f4552433732313a20617070726f76652063616c6c6572206973206e6f74206f7760008201527f6e6572206e6f7220617070726f76656420666f7220616c6c0000000000000000602082015250565b7f4552433732313a2062616c616e636520717565727920666f7220746865207a6560008201527f726f206164647265737300000000000000000000000000000000000000000000602082015250565b7f4552433732313a206f776e657220717565727920666f72206e6f6e657869737460008201527f656e7420746f6b656e0000000000000000000000000000000000000000000000602082015250565b7f227d000000000000000000000000000000000000000000000000000000000000600082015250565b7f4552433732313a206d696e7420746f20746865207a65726f2061646472657373600082015250565b7f6e6f7420617574686f72697a6564000000000000000000000000000000000000600082015250565b7f4552433732313a20617070726f76656420717565727920666f72206e6f6e657860008201527f697374656e7420746f6b656e0000000000000000000000000000000000000000602082015250565b7f6e6f206f6666737072696e677300000000000000000000000000000000000000600082015250565b7f4f776e61626c653a2063616c6c6572206973206e6f7420746865206f776e6572600082015250565b7f4552433732313a207472616e73666572206f6620746f6b656e2074686174206960008201527f73206e6f74206f776e0000000000000000000000000000000000000000000000602082015250565b7f4552433732313a20617070726f76616c20746f2063757272656e74206f776e6560008201527f7200000000000000000000000000000000000000000000000000000000000000602082015250565b7f45786365656473206d6178696d756d20737570706c7900000000000000000000600082015250565b7f45746865722073656e74206973206e6f7420636f727265637400000000000000600082015250565b7f646174613a6170706c69636174696f6e2f6a736f6e3b6261736536342c000000600082015250565b7f7b226e616d65223a202248756e67657269746520230000000000000000000000600082015250565b7f4552433732313a207472616e736665722063616c6c6572206973206e6f74206f60008201527f776e6572206e6f7220617070726f766564000000000000000000000000000000602082015250565b7f455243373231456e756d657261626c653a20676c6f62616c20696e646578206f60008201527f7574206f6620626f756e64730000000000000000000000000000000000000000602082015250565b7f4d6174696e672070617573656400000000000000000000000000000000000000600082015250565b7f666972737420746f6b656e2073686f756c64206265206d616c65000000000000600082015250565b7f5265656e7472616e637947756172643a207265656e7472616e742063616c6c00600082015250565b7f222c20226465736372697074696f6e223a202248756e6765725665727365206960008201527f7320612067616d65206f6620737572766976616c2e222c2022696d616765223a60208201527f2022646174613a696d6167652f7376672b786d6c3b6261736536342c00000000604082015250565b7f7265636c61696d20706175736564000000000000000000000000000000000000600082015250565b615c39816151de565b8114615c4457600080fd5b50565b615c50816151f0565b8114615c5b57600080fd5b50565b615c67816151fc565b8114615c7257600080fd5b50565b615c7e81615248565b8114615c8957600080fd5b5056fe3c7465787420783d2231302220793d2236302220636c6173733d2262617365477265656e223e3c2f746578743e3c7465787420783d2231302220793d223132302220636c6173733d22626173655768697465223e2e62617365477265656e207b2066696c6c3a20737072696e67677265656e3b20666f6e742d66616d696c793a2073657269663b20666f6e742d73697a653a20313670783b207d3c2f7374796c653e3c2f746578743e3c7465787420783d2231302220793d223138302220636c6173733d22626173655768697465223e3c726563742077696474683d223130302522206865696768743d2231303025222066696c6c3d22626c61636b22202f3e3c73766720786d6c6e733d22687474703a2f2f7777772e77332e6f72672f323030302f73766722207072657365727665417370656374526174696f3d22784d696e594d696e206d656574222076696577426f783d223020302033353020333530223e3c2f746578743e3c7465787420783d2231302220793d223234302220636c6173733d22626173655768697465223e4142434445464748494a4b4c4d4e4f505152535455565758595a6162636465666768696a6b6c6d6e6f707172737475767778797a303132333435363738392b2f3c7374796c653e2e626173655768697465207b2066696c6c3a2077686974653b20666f6e742d66616d696c793a2073657269663b20666f6e742d73697a653a20313670783b207d3c2f746578743e3c7465787420783d2231302220793d223130302220636c6173733d22626173655768697465223e3c2f746578743e3c7465787420783d2231302220793d223230302220636c6173733d22626173655768697465223e3c2f746578743e3c7465787420783d2231302220793d223236302220636c6173733d22626173655768697465223ea2646970667358221220c89507e4a4228032a0e33d96ea785bf1aee8485f16aed43444fa4de43c96704764736f6c63430008070033",
  "immutableReferences": {},
  "source": "// SPDX-License-Identifier: MIT\n\npragma solidity ^0.8.0;\n\nimport \"./FullERC721.sol\";\n\ncontract HungerVerse is ERC721Enumerable, ReentrancyGuard, Ownable {\n\n\tstruct PlayerInfo {\n        string name;\n        uint256 state;       //0 - burnt, 1 - active\n\t\tuint256 gender;      //0 - FEMALE, 1 - MALE\n        uint256 district;    //1 to 12\n\n        //only for females\n        uint256 offsprings;  // 0 to 8\n\n        //gifted = 3, above average = 2, average = 1, below average = 0\n        uint256 huntingSkills;\n        uint256 IQ;\n        uint256 likes;\n\n        uint256 wins;\n        uint256 burns;\n\t}\n\tstring[] private gender = [ \"Female\", \"Male\" ];\n\tstring[] private skills = [ \"Below Average\", \"Average\", \"Above Average\", \"Gifted\" ];\n\t\n    uint256 public _price = 0.05 ether;\n    bool public _paused = true;\n    bool public _matingPaused = true;\n    bool public _reclaimPaused = true;\n\n\tmapping (uint256 => PlayerInfo) public _tokenId2Player;\n\n    constructor() ERC721(\"HungerVerse\", \"HUNGER\") Ownable() {\n\t}\n\n\tfunction generatePlayer(uint256 tokenId) internal {\n\t\tPlayerInfo storage player = _tokenId2Player[tokenId];   //by reference\n\n        player.state = 1;\n        player.gender = pluck(tokenId, \"GENDER\") % 2;\n        player.district = 1 + pluck(tokenId, \"DISTRICT\") % 12;\n        if(player.gender == 0) {\n            player.offsprings = pluck(tokenId, \"OFFSPRINGS\") % 9;\n        }\n        player.huntingSkills = (player.wins + player.burns + pluck(tokenId, \"HUNTING\")) % 4;\n        player.IQ = (player.wins + player.burns + pluck(tokenId, \"IQSCORE\")) % 4;\n\t}\n\n    function random(string memory input) internal pure returns (uint256) {\n        return uint256(keccak256(abi.encodePacked(input)));\n    }\n    function pluck(uint256 tokenId, string memory keyPrefix) internal pure returns (uint256) {\n        return random(string(abi.encodePacked(keyPrefix, Strings.toString(tokenId))));\n    }\n    function tokenURI(uint256 tokenId) override public view returns (string memory) {\n        PlayerInfo memory player = _tokenId2Player[tokenId];\n\n        string[64] memory parts;\n\t\tuint256 counter = 0;\n        parts[counter++] = '<svg xmlns=\"http://www.w3.org/2000/svg\" preserveAspectRatio=\"xMinYMin meet\" viewBox=\"0 0 350 350\">';\n\t\tparts[counter++] = '<style>.baseWhite { fill: white; font-family: serif; font-size: 16px; }';\n\t\tparts[counter++] = '.baseGreen { fill: springgreen; font-family: serif; font-size: 16px; }</style>';\n\t\tparts[counter++] = '<rect width=\"100%\" height=\"100%\" fill=\"black\" />';\n        parts[counter++] = '<text x=\"10\" y=\"60\" class=\"baseGreen\">';\n        parts[counter++] = gender[player.gender];\n        parts[counter++] = '</text><text x=\"10\" y=\"100\" class=\"baseWhite\">';\n        parts[counter++] = \"Name:\\t\";\n        parts[counter++] = bytes(player.name).length > 0 ? player.name : '';\n\n        if(player.gender == 0) {\n            parts[counter++] = '</text><text x=\"10\" y=\"120\" class=\"baseWhite\">';\n            parts[counter++] = \"Offsprings:\\t\";\n            parts[counter++] = Strings.toString(player.offsprings);\n        }\n        parts[counter++] = '</text><text x=\"10\" y=\"180\" class=\"baseWhite\">';\n        parts[counter++] = \"HuntingSkills:\\t\";\n        parts[counter++] = skills[player.huntingSkills];\n        parts[counter++] = '</text><text x=\"10\" y=\"200\" class=\"baseWhite\">';\n        parts[counter++] = \"IQ:\\t\";\n        parts[counter++] = skills[player.IQ];\n        parts[counter++] = '</text><text x=\"10\" y=\"240\" class=\"baseWhite\">';\n        parts[counter++] = \"wins:\\t\";\n        parts[counter++] = Strings.toString(player.wins);\n        parts[counter++] = '</text><text x=\"10\" y=\"260\" class=\"baseWhite\">';\n        parts[counter++] = \"burns:\\t\";\n        parts[counter++] = Strings.toString(player.burns);\n\n        parts[counter++] = '</text></svg>';\n\n        string memory output = \"\";\n\t\tfor(uint256 i = 0; i < counter; ++i)\n\t\t{\n\t\t\toutput = string(abi.encodePacked(output, parts[i]));\n\t\t}\n\n        string memory json = Base64.encode(bytes(string(abi.encodePacked('{\"name\": \"Hungerite #', Strings.toString(tokenId), '\", \"description\": \"HungerVerse is a game of survival.\", \"image\": \"data:image/svg+xml;base64,', Base64.encode(bytes(output)), '\"}'))));\n        output = string(abi.encodePacked('data:application/json;base64,', json));\n\n        return output;\n    }\n    function ownHungerites(uint256 num) public nonReentrant payable {\n        uint256 supply = totalSupply();\n        require(!_paused, \"Sale paused\");\n        require(num > 0 && num < 21, \"You can adopt a maximum of 20 Hungerite\");\n        require(supply + num <= 24000, \"Exceeds maximum supply\");\n        require(msg.value >= _price * num, \"Ether sent is not correct\");\n\n        for(uint256 i = 1; i <= num; i++) {\n            generatePlayer(supply + i);\n            _safeMint(msg.sender, supply + i);\n        }\n    }\n    function reclaimHungerites(uint256 num) public payable {\n        uint256 supply = totalSupply();\n        require(!_reclaimPaused, \"reclaim paused\");\n        require(num > 0 && num < 21, \"You can adopt a maximum of 20 Hungerite\");\n        require(supply + num <= 24000, \"Exceeds maximum supply\");\n        require(msg.value >= _price * num, \"Ether sent is not correct\");\n\n        uint256 count = 0;\n        for(uint256 i = 1; i <= 24000; i++) {\n            if(_tokenId2Player[i].state == 1) continue;\n            generatePlayer(i);\n            _safeMint(msg.sender, i);\n            if(++count == num) break;\n        }\n    }\n    function mate(uint256 tokenIdM, uint256 tokenIdF) public {\n        uint256 supply = totalSupply();\n        require(!_matingPaused, \"Mating paused\");\n        require(_isApprovedOrOwner(msg.sender, tokenIdM), \"not authorized\");\n        require(_isApprovedOrOwner(msg.sender, tokenIdF), \"not authorized\");\n        PlayerInfo memory male = _tokenId2Player[tokenIdM];\n        require(male.gender == 1, \"first token should be male\");\n        PlayerInfo storage female = _tokenId2Player[tokenIdF];\n        require(female.gender == 0, \"second token should be female\");\n        require(female.offsprings > 0, \"no offsprings\");\n        require(supply + female.offsprings <= 24000, \"Exceeds maximum supply\");\n\n        uint256 count = 0;\n        for(uint256 i = 1; i <= 24000; i++) {\n            if(_tokenId2Player[i].state == 1) continue;\n            generatePlayer(i);\n            _safeMint(msg.sender, i);\n            if(++count == female.offsprings) break;\n        }\n        female.offsprings = 0;\n    }\n    function like(uint256 tokenId) public {\n        PlayerInfo storage player = _tokenId2Player[tokenId];\n        player.likes++;\n    }\n    function setMatingPause(bool val) public onlyOwner {\n        _matingPaused = val;\n    }\n    function setReclaimPause(bool val) public onlyOwner {\n        _reclaimPaused = val;\n    }\n    function getDistrict(uint256 tokenId) external view returns (uint256) {\n        return _tokenId2Player[tokenId].district;\n    }\n    function burn(uint256 tokenId) public {\n        require(_isApprovedOrOwner(msg.sender, tokenId), \"not authorized\");\n        PlayerInfo storage player = _tokenId2Player[tokenId];\n        player.state = 0;\n        player.burns++;\n        _burn(tokenId);\n    }\n    function setName(uint256 tokenId, string memory val) public {\n        require(_isApprovedOrOwner(msg.sender, tokenId), \"not authorized\");\n        PlayerInfo storage player = _tokenId2Player[tokenId];\n        player.name = val;\n    }\n    function setPrice(uint256 _newPrice) public onlyOwner {\n        _price = _newPrice;\n    }\n    function setPause(bool val) public onlyOwner {\n        _paused = val;\n    }\n    function withdraw() public payable onlyOwner {\n        address t1 = 0x4aF0BB035FfB1CbEFA550530917e151a53034d70;\n        require(payable(t1).send(address(this).balance));\n    }\n}\n",
  "sourcePath": "/home/ec2-user/github/fcc-dapp/src/contracts/HungerVerse.sol",
  "compiler": {
    "name": "solc",
    "version": "0.8.7+commit.e28d00a7.Emscripten.clang"
  },
  "schemaVersion": "3.4.3",
  "updatedAt": "2022-01-04T06:14:00.768Z",
  "devdoc": {
    "kind": "dev",
    "methods": {
      "approve(address,uint256)": {
        "details": "See {IERC721-approve}."
      },
      "balanceOf(address)": {
        "details": "See {IERC721-balanceOf}."
      },
      "getApproved(uint256)": {
        "details": "See {IERC721-getApproved}."
      },
      "isApprovedForAll(address,address)": {
        "details": "See {IERC721-isApprovedForAll}."
      },
      "name()": {
        "details": "See {IERC721Metadata-name}."
      },
      "owner()": {
        "details": "Returns the address of the current owner."
      },
      "ownerOf(uint256)": {
        "details": "See {IERC721-ownerOf}."
      },
      "renounceOwnership()": {
        "details": "Leaves the contract without owner. It will not be possible to call `onlyOwner` functions anymore. Can only be called by the current owner. NOTE: Renouncing ownership will leave the contract without an owner, thereby removing any functionality that is only available to the owner."
      },
      "safeTransferFrom(address,address,uint256)": {
        "details": "See {IERC721-safeTransferFrom}."
      },
      "safeTransferFrom(address,address,uint256,bytes)": {
        "details": "See {IERC721-safeTransferFrom}."
      },
      "setApprovalForAll(address,bool)": {
        "details": "See {IERC721-setApprovalForAll}."
      },
      "supportsInterface(bytes4)": {
        "details": "See {IERC165-supportsInterface}."
      },
      "symbol()": {
        "details": "See {IERC721Metadata-symbol}."
      },
      "tokenByIndex(uint256)": {
        "details": "See {IERC721Enumerable-tokenByIndex}."
      },
      "tokenOfOwnerByIndex(address,uint256)": {
        "details": "See {IERC721Enumerable-tokenOfOwnerByIndex}."
      },
      "tokenURI(uint256)": {
        "details": "See {IERC721Metadata-tokenURI}."
      },
      "totalSupply()": {
        "details": "See {IERC721Enumerable-totalSupply}."
      },
      "transferFrom(address,address,uint256)": {
        "details": "See {IERC721-transferFrom}."
      },
      "transferOwnership(address)": {
        "details": "Transfers ownership of the contract to a new account (`newOwner`). Can only be called by the current owner."
      }
    },
    "version": 1
  },
  "userdoc": {
    "kind": "user",
    "methods": {},
    "version": 1
  }
}