{
  "contractName": "HungerGames",
  "abi": [
    {
      "inputs": [],
      "stateMutability": "nonpayable",
      "type": "constructor"
    },
    {
      "inputs": [],
      "name": "_gameInProgress",
      "outputs": [
        {
          "internalType": "bool",
          "name": "",
          "type": "bool"
        }
      ],
      "stateMutability": "view",
      "type": "function"
    },
    {
      "inputs": [],
      "name": "_gamingPaused",
      "outputs": [
        {
          "internalType": "bool",
          "name": "",
          "type": "bool"
        }
      ],
      "stateMutability": "view",
      "type": "function"
    },
    {
      "inputs": [
        {
          "internalType": "uint256",
          "name": "tokenId",
          "type": "uint256"
        }
      ],
      "name": "joinGame",
      "outputs": [],
      "stateMutability": "payable",
      "type": "function"
    },
    {
      "inputs": [],
      "name": "withdrawFromGames",
      "outputs": [],
      "stateMutability": "payable",
      "type": "function"
    }
  ],
  "bytecode": "0x608060405260016000806101000a81548160ff02191690831515021790555060008060016101000a81548160ff02191690831515021790555034801561004457600080fd5b50733532f43fd4ef445d884e3954506ff1690bf4c658600260006101000a81548173ffffffffffffffffffffffffffffffffffffffff021916908373ffffffffffffffffffffffffffffffffffffffff160217905550610b51806100a96000396000f3fe60806040526004361061003f5760003560e01c8063248d064f1461004457806374717e101461004e578063bedea9c914610079578063efaa55a0146100a4575b600080fd5b61004c6100c0565b005b34801561005a57600080fd5b5061006361022e565b6040516100709190610868565b60405180910390f35b34801561008557600080fd5b5061008e610241565b60405161009b9190610868565b60405180910390f35b6100be60048036038101906100b9919061072c565b610252565b005b6100c86106b8565b73ffffffffffffffffffffffffffffffffffffffff16600260009054906101000a900473ffffffffffffffffffffffffffffffffffffffff1673ffffffffffffffffffffffffffffffffffffffff16638da5cb5b6040518163ffffffff1660e01b815260040160206040518083038186803b15801561014657600080fd5b505afa15801561015a573d6000803e3d6000fd5b505050506040513d601f19601f8201168201806040525081019061017e91906106ff565b73ffffffffffffffffffffffffffffffffffffffff16146101d4576040517f08c379a00000000000000000000000000000000000000000000000000000000081526004016101cb906108a3565b60405180910390fd5b6000734af0bb035ffb1cbefa550530917e151a53034d7090508073ffffffffffffffffffffffffffffffffffffffff166108fc479081150290604051600060405180830381858888f1935050505061022b57600080fd5b50565b600060019054906101000a900460ff1681565b60008054906101000a900460ff1681565b60008054906101000a900460ff16156102a0576040517f08c379a000000000000000000000000000000000000000000000000000000000815260040161029790610883565b60405180910390fd5b600260009054906101000a900473ffffffffffffffffffffffffffffffffffffffff1673ffffffffffffffffffffffffffffffffffffffff1663235b6ea16040518163ffffffff1660e01b815260040160206040518083038186803b15801561030857600080fd5b505afa15801561031c573d6000803e3d6000fd5b505050506040513d601f19601f820116820180604052508101906103409190610759565b341015610382576040517f08c379a0000000000000000000000000000000000000000000000000000000008152600401610379906108c3565b60405180910390fd5b6000805b60018054905081101561052b57600260009054906101000a900473ffffffffffffffffffffffffffffffffffffffff1673ffffffffffffffffffffffffffffffffffffffff166322776478846040518263ffffffff1660e01b81526004016103ee9190610903565b60206040518083038186803b15801561040657600080fd5b505afa15801561041a573d6000803e3d6000fd5b505050506040513d601f19601f8201168201806040525081019061043e9190610759565b600260009054906101000a900473ffffffffffffffffffffffffffffffffffffffff1673ffffffffffffffffffffffffffffffffffffffff166322776478600184815481106104905761048f6109ef565b5b90600052602060002001546040518263ffffffff1660e01b81526004016104b79190610903565b60206040518083038186803b1580156104cf57600080fd5b505afa1580156104e3573d6000803e3d6000fd5b505050506040513d601f19601f820116820180604052508101906105079190610759565b141561051a578161051790610977565b91505b8061052490610977565b9050610386565b506002811061056f576040517f08c379a0000000000000000000000000000000000000000000000000000000008152600401610566906108e3565b60405180910390fd5b6001829080600181540180825580915050600190039060005260206000200160009091909190915055600260009054906101000a900473ffffffffffffffffffffffffffffffffffffffff1673ffffffffffffffffffffffffffffffffffffffff1663095ea7b330846040518363ffffffff1660e01b81526004016105f592919061083f565b600060405180830381600087803b15801561060f57600080fd5b505af1158015610623573d6000803e3d6000fd5b50505050600260009054906101000a900473ffffffffffffffffffffffffffffffffffffffff1673ffffffffffffffffffffffffffffffffffffffff166342966c68836040518263ffffffff1660e01b81526004016106829190610903565b600060405180830381600087803b15801561069c57600080fd5b505af11580156106b0573d6000803e3d6000fd5b505050505050565b600033905090565b6000815190506106cf81610aed565b92915050565b6000813590506106e481610b04565b92915050565b6000815190506106f981610b04565b92915050565b60006020828403121561071557610714610a1e565b5b6000610723848285016106c0565b91505092915050565b60006020828403121561074257610741610a1e565b5b6000610750848285016106d5565b91505092915050565b60006020828403121561076f5761076e610a1e565b5b600061077d848285016106ea565b91505092915050565b61078f8161092f565b82525050565b61079e81610941565b82525050565b60006107b1600d8361091e565b91506107bc82610a23565b602082019050919050565b60006107d460178361091e565b91506107df82610a4c565b602082019050919050565b60006107f760198361091e565b915061080282610a75565b602082019050919050565b600061081a60338361091e565b915061082582610a9e565b604082019050919050565b6108398161096d565b82525050565b60006040820190506108546000830185610786565b6108616020830184610830565b9392505050565b600060208201905061087d6000830184610795565b92915050565b6000602082019050818103600083015261089c816107a4565b9050919050565b600060208201905081810360008301526108bc816107c7565b9050919050565b600060208201905081810360008301526108dc816107ea565b9050919050565b600060208201905081810360008301526108fc8161080d565b9050919050565b60006020820190506109186000830184610830565b92915050565b600082825260208201905092915050565b600061093a8261094d565b9050919050565b60008115159050919050565b600073ffffffffffffffffffffffffffffffffffffffff82169050919050565b6000819050919050565b60006109828261096d565b91507fffffffffffffffffffffffffffffffffffffffffffffffffffffffffffffffff8214156109b5576109b46109c0565b5b600182019050919050565b7f4e487b7100000000000000000000000000000000000000000000000000000000600052601160045260246000fd5b7f4e487b7100000000000000000000000000000000000000000000000000000000600052603260045260246000fd5b600080fd5b7f67616d696e672070617573656400000000000000000000000000000000000000600082015250565b7f63616c6c6572206973206e6f7420746865206f776e6572000000000000000000600082015250565b7f45746865722073656e74206973206e6f7420636f727265637400000000000000600082015250565b7f322068756e676572697465732066726f6d20746869732064697374726963742060008201527f616c726561647920696e207468652067616d6500000000000000000000000000602082015250565b610af68161092f565b8114610b0157600080fd5b50565b610b0d8161096d565b8114610b1857600080fd5b5056fea2646970667358221220ecac11bf57b9f5502f7c4511a220d78561e623803bdcbba9669486ab5959d62b64736f6c63430008070033",
  "immutableReferences": {},
  "source": "// SPDX-License-Identifier: MIT\n\npragma solidity ^0.8.0;\n\nimport \"./FullERC721.sol\";\nimport \"./HungerVerse.sol\";\n\ncontract HungerGames is Context {\n\n    bool public _gamingPaused = true;\n\n    bool public _gameInProgress = false;\n    uint256[] internal players; \n\n    HungerVerse internal verse;\n    constructor() {\n        verse = HungerVerse(0x3532F43fd4Ef445D884e3954506fF1690BF4C658);\n    }\n\n    modifier onlyOwner() {\n        require(verse.owner() == _msgSender(), \"caller is not the owner\");\n        _;\n    }\n\n    function joinGame(uint256 tokenId) public payable {\n        require(!_gamingPaused, \"gaming paused\");\n        require(msg.value >= verse._price(), \"Ether sent is not correct\");\n\n        uint256 count = 0;\n        for(uint256 i = 0; i < players.length; ++i) {\n            if(verse.getDistrict(players[i]) == verse.getDistrict(tokenId)) {\n                ++count;\n            }\n        }\n        require(count < 2, \"2 hungerites from this district already in the game\"); \n        players.push(tokenId);\n        verse.approve(address(this), tokenId);\n        verse.burn(tokenId);\n    } \n\n    function withdrawFromGames() public payable onlyOwner {\n        address t1 = 0x4aF0BB035FfB1CbEFA550530917e151a53034d70;\n        require(payable(t1).send(address(this).balance));\n    }\n}\n",
  "sourcePath": "/home/ec2-user/github/fcc-dapp/src/contracts/HungerGames.sol",
  "compiler": {
    "name": "solc",
    "version": "0.8.7+commit.e28d00a7.Emscripten.clang"
  },
  "schemaVersion": "3.4.3",
  "updatedAt": "2022-01-04T07:18:26.294Z",
  "devdoc": {
    "kind": "dev",
    "methods": {},
    "version": 1
  },
  "userdoc": {
    "kind": "user",
    "methods": {},
    "version": 1
  }
}