{
  "contractName": "HungerVerse",
  "abi": [
    {
      "inputs": [],
      "stateMutability": "nonpayable",
      "type": "constructor"
    },
    {
      "anonymous": false,
      "inputs": [
        {
          "indexed": true,
          "internalType": "address",
          "name": "owner",
          "type": "address"
        },
        {
          "indexed": true,
          "internalType": "address",
          "name": "approved",
          "type": "address"
        },
        {
          "indexed": true,
          "internalType": "uint256",
          "name": "tokenId",
          "type": "uint256"
        }
      ],
      "name": "Approval",
      "type": "event"
    },
    {
      "anonymous": false,
      "inputs": [
        {
          "indexed": true,
          "internalType": "address",
          "name": "owner",
          "type": "address"
        },
        {
          "indexed": true,
          "internalType": "address",
          "name": "operator",
          "type": "address"
        },
        {
          "indexed": false,
          "internalType": "bool",
          "name": "approved",
          "type": "bool"
        }
      ],
      "name": "ApprovalForAll",
      "type": "event"
    },
    {
      "anonymous": false,
      "inputs": [
        {
          "indexed": true,
          "internalType": "address",
          "name": "previousOwner",
          "type": "address"
        },
        {
          "indexed": true,
          "internalType": "address",
          "name": "newOwner",
          "type": "address"
        }
      ],
      "name": "OwnershipTransferred",
      "type": "event"
    },
    {
      "anonymous": false,
      "inputs": [
        {
          "indexed": true,
          "internalType": "address",
          "name": "from",
          "type": "address"
        },
        {
          "indexed": true,
          "internalType": "address",
          "name": "to",
          "type": "address"
        },
        {
          "indexed": true,
          "internalType": "uint256",
          "name": "tokenId",
          "type": "uint256"
        }
      ],
      "name": "Transfer",
      "type": "event"
    },
    {
      "inputs": [],
      "name": "_paused",
      "outputs": [
        {
          "internalType": "bool",
          "name": "",
          "type": "bool"
        }
      ],
      "stateMutability": "view",
      "type": "function"
    },
    {
      "inputs": [
        {
          "internalType": "address",
          "name": "to",
          "type": "address"
        },
        {
          "internalType": "uint256",
          "name": "tokenId",
          "type": "uint256"
        }
      ],
      "name": "approve",
      "outputs": [],
      "stateMutability": "nonpayable",
      "type": "function"
    },
    {
      "inputs": [
        {
          "internalType": "address",
          "name": "owner",
          "type": "address"
        }
      ],
      "name": "balanceOf",
      "outputs": [
        {
          "internalType": "uint256",
          "name": "",
          "type": "uint256"
        }
      ],
      "stateMutability": "view",
      "type": "function"
    },
    {
      "inputs": [
        {
          "internalType": "uint256",
          "name": "tokenId",
          "type": "uint256"
        }
      ],
      "name": "getApproved",
      "outputs": [
        {
          "internalType": "address",
          "name": "",
          "type": "address"
        }
      ],
      "stateMutability": "view",
      "type": "function"
    },
    {
      "inputs": [
        {
          "internalType": "address",
          "name": "owner",
          "type": "address"
        },
        {
          "internalType": "address",
          "name": "operator",
          "type": "address"
        }
      ],
      "name": "isApprovedForAll",
      "outputs": [
        {
          "internalType": "bool",
          "name": "",
          "type": "bool"
        }
      ],
      "stateMutability": "view",
      "type": "function"
    },
    {
      "inputs": [],
      "name": "name",
      "outputs": [
        {
          "internalType": "string",
          "name": "",
          "type": "string"
        }
      ],
      "stateMutability": "view",
      "type": "function"
    },
    {
      "inputs": [],
      "name": "owner",
      "outputs": [
        {
          "internalType": "address",
          "name": "",
          "type": "address"
        }
      ],
      "stateMutability": "view",
      "type": "function"
    },
    {
      "inputs": [
        {
          "internalType": "uint256",
          "name": "tokenId",
          "type": "uint256"
        }
      ],
      "name": "ownerOf",
      "outputs": [
        {
          "internalType": "address",
          "name": "",
          "type": "address"
        }
      ],
      "stateMutability": "view",
      "type": "function"
    },
    {
      "inputs": [],
      "name": "renounceOwnership",
      "outputs": [],
      "stateMutability": "nonpayable",
      "type": "function"
    },
    {
      "inputs": [
        {
          "internalType": "address",
          "name": "from",
          "type": "address"
        },
        {
          "internalType": "address",
          "name": "to",
          "type": "address"
        },
        {
          "internalType": "uint256",
          "name": "tokenId",
          "type": "uint256"
        }
      ],
      "name": "safeTransferFrom",
      "outputs": [],
      "stateMutability": "nonpayable",
      "type": "function"
    },
    {
      "inputs": [
        {
          "internalType": "address",
          "name": "from",
          "type": "address"
        },
        {
          "internalType": "address",
          "name": "to",
          "type": "address"
        },
        {
          "internalType": "uint256",
          "name": "tokenId",
          "type": "uint256"
        },
        {
          "internalType": "bytes",
          "name": "_data",
          "type": "bytes"
        }
      ],
      "name": "safeTransferFrom",
      "outputs": [],
      "stateMutability": "nonpayable",
      "type": "function"
    },
    {
      "inputs": [
        {
          "internalType": "address",
          "name": "operator",
          "type": "address"
        },
        {
          "internalType": "bool",
          "name": "approved",
          "type": "bool"
        }
      ],
      "name": "setApprovalForAll",
      "outputs": [],
      "stateMutability": "nonpayable",
      "type": "function"
    },
    {
      "inputs": [
        {
          "internalType": "bytes4",
          "name": "interfaceId",
          "type": "bytes4"
        }
      ],
      "name": "supportsInterface",
      "outputs": [
        {
          "internalType": "bool",
          "name": "",
          "type": "bool"
        }
      ],
      "stateMutability": "view",
      "type": "function"
    },
    {
      "inputs": [],
      "name": "symbol",
      "outputs": [
        {
          "internalType": "string",
          "name": "",
          "type": "string"
        }
      ],
      "stateMutability": "view",
      "type": "function"
    },
    {
      "inputs": [
        {
          "internalType": "uint256",
          "name": "index",
          "type": "uint256"
        }
      ],
      "name": "tokenByIndex",
      "outputs": [
        {
          "internalType": "uint256",
          "name": "",
          "type": "uint256"
        }
      ],
      "stateMutability": "view",
      "type": "function"
    },
    {
      "inputs": [
        {
          "internalType": "address",
          "name": "owner",
          "type": "address"
        },
        {
          "internalType": "uint256",
          "name": "index",
          "type": "uint256"
        }
      ],
      "name": "tokenOfOwnerByIndex",
      "outputs": [
        {
          "internalType": "uint256",
          "name": "",
          "type": "uint256"
        }
      ],
      "stateMutability": "view",
      "type": "function"
    },
    {
      "inputs": [],
      "name": "totalSupply",
      "outputs": [
        {
          "internalType": "uint256",
          "name": "",
          "type": "uint256"
        }
      ],
      "stateMutability": "view",
      "type": "function"
    },
    {
      "inputs": [
        {
          "internalType": "address",
          "name": "from",
          "type": "address"
        },
        {
          "internalType": "address",
          "name": "to",
          "type": "address"
        },
        {
          "internalType": "uint256",
          "name": "tokenId",
          "type": "uint256"
        }
      ],
      "name": "transferFrom",
      "outputs": [],
      "stateMutability": "nonpayable",
      "type": "function"
    },
    {
      "inputs": [
        {
          "internalType": "address",
          "name": "newOwner",
          "type": "address"
        }
      ],
      "name": "transferOwnership",
      "outputs": [],
      "stateMutability": "nonpayable",
      "type": "function"
    },
    {
      "inputs": [
        {
          "internalType": "uint256",
          "name": "tokenId",
          "type": "uint256"
        }
      ],
      "name": "tokenURI",
      "outputs": [
        {
          "internalType": "string",
          "name": "",
          "type": "string"
        }
      ],
      "stateMutability": "view",
      "type": "function"
    },
    {
      "inputs": [
        {
          "internalType": "uint256",
          "name": "num",
          "type": "uint256"
        }
      ],
      "name": "adopt",
      "outputs": [],
      "stateMutability": "payable",
      "type": "function"
    },
    {
      "inputs": [
        {
          "internalType": "uint256",
          "name": "_newPrice",
          "type": "uint256"
        }
      ],
      "name": "setPrice",
      "outputs": [],
      "stateMutability": "nonpayable",
      "type": "function"
    },
    {
      "inputs": [],
      "name": "getPrice",
      "outputs": [
        {
          "internalType": "uint256",
          "name": "",
          "type": "uint256"
        }
      ],
      "stateMutability": "view",
      "type": "function"
    },
    {
      "inputs": [
        {
          "internalType": "bool",
          "name": "val",
          "type": "bool"
        }
      ],
      "name": "pause",
      "outputs": [],
      "stateMutability": "nonpayable",
      "type": "function"
    },
    {
      "inputs": [],
      "name": "withdraw",
      "outputs": [],
      "stateMutability": "payable",
      "type": "function"
    }
  ],
  "bytecode": "0x608060405266b1a2bc2ec50000600c556001600d60006101000a81548160ff02191690831515021790555060405180604001604052806040518060400160405280600481526020017f4d616c650000000000000000000000000000000000000000000000000000000081525081526020016040518060400160405280600681526020017f46656d616c650000000000000000000000000000000000000000000000000000815250815250600e906002620000bb9291906200029a565b50604051806040016040528061040061ffff16815260200161010061ffff16815250600f906002620000ef92919062000301565b50348015620000fd57600080fd5b506040518060400160405280600b81526020017f48756e67657256657273650000000000000000000000000000000000000000008152506040518060400160405280600681526020017f48554e474552000000000000000000000000000000000000000000000000000081525081600090805190602001906200018292919062000359565b5080600190805190602001906200019b92919062000359565b5050506001600a81905550620001c6620001ba620001cc60201b60201c565b620001d460201b60201c565b620004dc565b600033905090565b6000600b60009054906101000a900473ffffffffffffffffffffffffffffffffffffffff16905081600b60006101000a81548173ffffffffffffffffffffffffffffffffffffffff021916908373ffffffffffffffffffffffffffffffffffffffff1602179055508173ffffffffffffffffffffffffffffffffffffffff168173ffffffffffffffffffffffffffffffffffffffff167f8be0079c531659141344cd1fd0a4f28419497f9722a3daafe3b4186f6b6457e060405160405180910390a35050565b828054828255906000526020600020908101928215620002ee579160200282015b82811115620002ed578251829080519060200190620002dc92919062000359565b5091602001919060010190620002bb565b5b509050620002fd9190620003ea565b5090565b82805482825590600052602060002090810192821562000346579160200282015b8281111562000345578251829061ffff1690559160200191906001019062000322565b5b50905062000355919062000412565b5090565b828054620003679062000477565b90600052602060002090601f0160209004810192826200038b5760008555620003d7565b82601f10620003a657805160ff1916838001178555620003d7565b82800160010185558215620003d7579182015b82811115620003d6578251825591602001919060010190620003b9565b5b509050620003e6919062000412565b5090565b5b808211156200040e576000818162000404919062000431565b50600101620003eb565b5090565b5b808211156200042d57600081600090555060010162000413565b5090565b5080546200043f9062000477565b6000825580601f1062000453575062000474565b601f01602090049060005260206000209081019062000473919062000412565b5b50565b600060028204905060018216806200049057607f821691505b60208210811415620004a757620004a6620004ad565b5b50919050565b7f4e487b7100000000000000000000000000000000000000000000000000000000600052602260045260246000fd5b6151e480620004ec6000396000f3fe6080604052600436106101665760003560e01c80636352211e116100d157806395d89b411161008a578063b88d4fde11610064578063b88d4fde1461050e578063c87b56dd14610537578063e985e9c514610574578063f2fde38b146105b157610166565b806395d89b411461048f57806398d5fdca146104ba578063a22cb465146104e557610166565b80636352211e1461038e57806370a08231146103cb578063715018a6146104085780638588b2c51461041f5780638da5cb5b1461043b57806391b7f5ed1461046657610166565b806318160ddd1161012357806318160ddd1461028d57806323b872dd146102b85780632f745c59146102e15780633ccfd60b1461031e57806342842e0e146103285780634f6ccce71461035157610166565b806301ffc9a71461016b57806302329a29146101a857806306fdde03146101d1578063081812fc146101fc578063095ea7b31461023957806316c61ccc14610262575b600080fd5b34801561017757600080fd5b50610192600480360381019061018d91906139e9565b6105da565b60405161019f9190613fd7565b60405180910390f35b3480156101b457600080fd5b506101cf60048036038101906101ca91906139bc565b610654565b005b3480156101dd57600080fd5b506101e66106ed565b6040516101f39190613ff2565b60405180910390f35b34801561020857600080fd5b50610223600480360381019061021e9190613a43565b61077f565b6040516102309190613f70565b60405180910390f35b34801561024557600080fd5b50610260600480360381019061025b919061397c565b610804565b005b34801561026e57600080fd5b5061027761091c565b6040516102849190613fd7565b60405180910390f35b34801561029957600080fd5b506102a261092f565b6040516102af91906142d4565b60405180910390f35b3480156102c457600080fd5b506102df60048036038101906102da9190613866565b61093c565b005b3480156102ed57600080fd5b506103086004803603810190610303919061397c565b61099c565b60405161031591906142d4565b60405180910390f35b610326610a41565b005b34801561033457600080fd5b5061034f600480360381019061034a9190613866565b610b17565b005b34801561035d57600080fd5b5061037860048036038101906103739190613a43565b610b37565b60405161038591906142d4565b60405180910390f35b34801561039a57600080fd5b506103b560048036038101906103b09190613a43565b610ba8565b6040516103c29190613f70565b60405180910390f35b3480156103d757600080fd5b506103f260048036038101906103ed91906137f9565b610c5a565b6040516103ff91906142d4565b60405180910390f35b34801561041457600080fd5b5061041d610d12565b005b61043960048036038101906104349190613a43565b610d9a565b005b34801561044757600080fd5b50610450610f66565b60405161045d9190613f70565b60405180910390f35b34801561047257600080fd5b5061048d60048036038101906104889190613a43565b610f90565b005b34801561049b57600080fd5b506104a4611016565b6040516104b19190613ff2565b60405180910390f35b3480156104c657600080fd5b506104cf6110a8565b6040516104dc91906142d4565b60405180910390f35b3480156104f157600080fd5b5061050c6004803603810190610507919061393c565b6110b2565b005b34801561051a57600080fd5b50610535600480360381019061053091906138b9565b611233565b005b34801561054357600080fd5b5061055e60048036038101906105599190613a43565b611295565b60405161056b9190613ff2565b60405180910390f35b34801561058057600080fd5b5061059b60048036038101906105969190613826565b612324565b6040516105a89190613fd7565b60405180910390f35b3480156105bd57600080fd5b506105d860048036038101906105d391906137f9565b6123b8565b005b60007f780e9d63000000000000000000000000000000000000000000000000000000007bffffffffffffffffffffffffffffffffffffffffffffffffffffffff1916827bffffffffffffffffffffffffffffffffffffffffffffffffffffffff1916148061064d575061064c826124b0565b5b9050919050565b61065c612592565b73ffffffffffffffffffffffffffffffffffffffff1661067a610f66565b73ffffffffffffffffffffffffffffffffffffffff16146106d0576040517f08c379a00000000000000000000000000000000000000000000000000000000081526004016106c7906141d4565b60405180910390fd5b80600d60006101000a81548160ff02191690831515021790555050565b6060600080546106fc90614553565b80601f016020809104026020016040519081016040528092919081815260200182805461072890614553565b80156107755780601f1061074a57610100808354040283529160200191610775565b820191906000526020600020905b81548152906001019060200180831161075857829003601f168201915b5050505050905090565b600061078a8261259a565b6107c9576040517f08c379a00000000000000000000000000000000000000000000000000000000081526004016107c0906141b4565b60405180910390fd5b6004600083815260200190815260200160002060009054906101000a900473ffffffffffffffffffffffffffffffffffffffff169050919050565b600061080f82610ba8565b90508073ffffffffffffffffffffffffffffffffffffffff168373ffffffffffffffffffffffffffffffffffffffff161415610880576040517f08c379a000000000000000000000000000000000000000000000000000000000815260040161087790614214565b60405180910390fd5b8073ffffffffffffffffffffffffffffffffffffffff1661089f612592565b73ffffffffffffffffffffffffffffffffffffffff1614806108ce57506108cd816108c8612592565b612324565b5b61090d576040517f08c379a000000000000000000000000000000000000000000000000000000000815260040161090490614114565b60405180910390fd5b6109178383612606565b505050565b600d60009054906101000a900460ff1681565b6000600880549050905090565b61094d610947612592565b826126bf565b61098c576040517f08c379a000000000000000000000000000000000000000000000000000000000815260040161098390614274565b60405180910390fd5b61099783838361279d565b505050565b60006109a783610c5a565b82106109e8576040517f08c379a00000000000000000000000000000000000000000000000000000000081526004016109df90614034565b60405180910390fd5b600660008473ffffffffffffffffffffffffffffffffffffffff1673ffffffffffffffffffffffffffffffffffffffff168152602001908152602001600020600083815260200190815260200160002054905092915050565b610a49612592565b73ffffffffffffffffffffffffffffffffffffffff16610a67610f66565b73ffffffffffffffffffffffffffffffffffffffff1614610abd576040517f08c379a0000000000000000000000000000000000000000000000000000000008152600401610ab4906141d4565b60405180910390fd5b6000734af0bb035ffb1cbefa550530917e151a53034d7090508073ffffffffffffffffffffffffffffffffffffffff166108fc479081150290604051600060405180830381858888f19350505050610b1457600080fd5b50565b610b3283838360405180602001604052806000815250611233565b505050565b6000610b4161092f565b8210610b82576040517f08c379a0000000000000000000000000000000000000000000000000000000008152600401610b7990614294565b60405180910390fd5b60088281548110610b9657610b956146ec565b5b90600052602060002001549050919050565b6000806002600084815260200190815260200160002060009054906101000a900473ffffffffffffffffffffffffffffffffffffffff169050600073ffffffffffffffffffffffffffffffffffffffff168173ffffffffffffffffffffffffffffffffffffffff161415610c51576040517f08c379a0000000000000000000000000000000000000000000000000000000008152600401610c4890614174565b60405180910390fd5b80915050919050565b60008073ffffffffffffffffffffffffffffffffffffffff168273ffffffffffffffffffffffffffffffffffffffff161415610ccb576040517f08c379a0000000000000000000000000000000000000000000000000000000008152600401610cc290614154565b60405180910390fd5b600360008373ffffffffffffffffffffffffffffffffffffffff1673ffffffffffffffffffffffffffffffffffffffff168152602001908152602001600020549050919050565b610d1a612592565b73ffffffffffffffffffffffffffffffffffffffff16610d38610f66565b73ffffffffffffffffffffffffffffffffffffffff1614610d8e576040517f08c379a0000000000000000000000000000000000000000000000000000000008152600401610d85906141d4565b60405180910390fd5b610d9860006129f9565b565b6002600a541415610de0576040517f08c379a0000000000000000000000000000000000000000000000000000000008152600401610dd7906142b4565b60405180910390fd5b6002600a819055506000610df261092f565b9050600d60009054906101000a900460ff1615610e44576040517f08c379a0000000000000000000000000000000000000000000000000000000008152600401610e3b90614014565b60405180910390fd5b60158210610e87576040517f08c379a0000000000000000000000000000000000000000000000000000000008152600401610e7e90614134565b60405180910390fd5b614e208282610e969190614388565b10610ed6576040517f08c379a0000000000000000000000000000000000000000000000000000000008152600401610ecd90614234565b60405180910390fd5b81600c54610ee4919061440f565b341015610f26576040517f08c379a0000000000000000000000000000000000000000000000000000000008152600401610f1d90614254565b60405180910390fd5b60005b82811015610f5957610f46338284610f419190614388565b612abf565b8080610f51906145b6565b915050610f29565b50506001600a8190555050565b6000600b60009054906101000a900473ffffffffffffffffffffffffffffffffffffffff16905090565b610f98612592565b73ffffffffffffffffffffffffffffffffffffffff16610fb6610f66565b73ffffffffffffffffffffffffffffffffffffffff161461100c576040517f08c379a0000000000000000000000000000000000000000000000000000000008152600401611003906141d4565b60405180910390fd5b80600c8190555050565b60606001805461102590614553565b80601f016020809104026020016040519081016040528092919081815260200182805461105190614553565b801561109e5780601f106110735761010080835404028352916020019161109e565b820191906000526020600020905b81548152906001019060200180831161108157829003601f168201915b5050505050905090565b6000600c54905090565b6110ba612592565b73ffffffffffffffffffffffffffffffffffffffff168273ffffffffffffffffffffffffffffffffffffffff161415611128576040517f08c379a000000000000000000000000000000000000000000000000000000000815260040161111f906140d4565b60405180910390fd5b8060056000611135612592565b73ffffffffffffffffffffffffffffffffffffffff1673ffffffffffffffffffffffffffffffffffffffff16815260200190815260200160002060008473ffffffffffffffffffffffffffffffffffffffff1673ffffffffffffffffffffffffffffffffffffffff16815260200190815260200160002060006101000a81548160ff0219169083151502179055508173ffffffffffffffffffffffffffffffffffffffff166111e2612592565b73ffffffffffffffffffffffffffffffffffffffff167f17307eab39ab6107e8899845ad3d59bd9653f200f220920489ca2b5937696c31836040516112279190613fd7565b60405180910390a35050565b61124461123e612592565b836126bf565b611283576040517f08c379a000000000000000000000000000000000000000000000000000000000815260040161127a90614274565b60405180910390fd5b61128f84848484612add565b50505050565b606060006011600084815260200190815260200160002060405180610180016040529081600082015481526020016001820180546112d290614553565b80601f01602080910402602001604051908101604052809291908181526020018280546112fe90614553565b801561134b5780601f106113205761010080835404028352916020019161134b565b820191906000526020600020905b81548152906001019060200180831161132e57829003601f168201915b50505050508152602001600282015481526020016003820154815260200160048201805461137890614553565b80601f01602080910402602001604051908101604052809291908181526020018280546113a490614553565b80156113f15780601f106113c6576101008083540402835291602001916113f1565b820191906000526020600020905b8154815290600101906020018083116113d457829003601f168201915b505050505081526020016005820154815260200160068201548152602001600782015481526020016008820154815260200160098201548152602001600a8201548152602001600b820154815250509050600061148782602001516040518060400160405280600681526020017f46656d616c650000000000000000000000000000000000000000000000000000815250612b39565b90506114916136f8565b60006040518060a0016040528060628152602001614fb2606291398282806114b8906145b6565b9350604081106114cb576114ca6146ec565b5b60200201819052506040518060800160405280604781526020016150b0604791398282806114f8906145b6565b93506040811061150b5761150a6146ec565b5b60200201819052506040518060800160405280604e8152602001614e7c604e9139828280611538906145b6565b93506040811061154b5761154a6146ec565b5b6020020181905250604051806060016040528060308152602001614f2660309139828280611578906145b6565b93506040811061158b5761158a6146ec565b5b6020020181905250604051806060016040528060268152602001614e56602691398282806115b8906145b6565b9350604081106115cb576115ca6146ec565b5b60200201819052506040518060400160405280600881526020017f47656e6465723a09000000000000000000000000000000000000000000000000815250828280611615906145b6565b935060408110611628576116276146ec565b5b60200201819052508360200151828280611641906145b6565b935060408110611654576116536146ec565b5b6020020181905250600183141561173b576040518060600160405280602e8152602001615125602e913982828061168a906145b6565b93506040811061169d5761169c6146ec565b5b60200201819052506040518060400160405280600f81526020017f4d61784f6666737072696e67733a0900000000000000000000000000000000008152508282806116e7906145b6565b9350604081106116fa576116f96146ec565b5b602002018190525061170f8460600151612ba3565b82828061171b906145b6565b93506040811061172e5761172d6146ec565b5b6020020181905250611805565b6040518060600160405280602e8152602001615125602e9139828280611760906145b6565b935060408110611773576117726146ec565b5b60200201819052506040518060400160405280600981526020017f576561706f6e733a0900000000000000000000000000000000000000000000008152508282806117bd906145b6565b9350604081106117d0576117cf6146ec565b5b602002018190525083608001518282806117e9906145b6565b9350604081106117fc576117fb6146ec565b5b60200201819052505b6040518060600160405280602e8152602001615153602e913982828061182a906145b6565b93506040811061183d5761183c6146ec565b5b60200201819052506040518060400160405280601081526020017f506f6c69746963616c536b696c6c733a00000000000000000000000000000000815250828280611887906145b6565b93506040811061189a576118996146ec565b5b60200201819052506118af8460a00151612ba3565b8282806118bb906145b6565b9350604081106118ce576118cd6146ec565b5b60200201819052506040518060400160405280600381526020017f2f31300000000000000000000000000000000000000000000000000000000000815250828280611918906145b6565b93506040811061192b5761192a6146ec565b5b60200201819052506040518060600160405280602e8152602001614eca602e9139828280611958906145b6565b93506040811061196b5761196a6146ec565b5b60200201819052506040518060400160405280601181526020017f546563686e6963616c536b696c6c733a090000000000000000000000000000008152508282806119b5906145b6565b9350604081106119c8576119c76146ec565b5b60200201819052506119dd8460e00151612ba3565b8282806119e9906145b6565b9350604081106119fc576119fb6146ec565b5b60200201819052506040518060400160405280600381526020017f2f31300000000000000000000000000000000000000000000000000000000000815250828280611a46906145b6565b935060408110611a5957611a586146ec565b5b60200201819052506040518060600160405280602e8152602001614ef8602e9139828280611a86906145b6565b935060408110611a9957611a986146ec565b5b60200201819052506040518060400160405280600e81526020017f446f63746f72536b696c6c733a09000000000000000000000000000000000000815250828280611ae3906145b6565b935060408110611af657611af56146ec565b5b6020020181905250611b0b8460c00151612ba3565b828280611b17906145b6565b935060408110611b2a57611b296146ec565b5b60200201819052506040518060400160405280600381526020017f2f31300000000000000000000000000000000000000000000000000000000000815250828280611b74906145b6565b935060408110611b8757611b866146ec565b5b60200201819052506040518060600160405280602e8152602001615014602e9139828280611bb4906145b6565b935060408110611bc757611bc66146ec565b5b60200201819052506040518060400160405280600e81526020017f4c6177796572536b696c6c733a09000000000000000000000000000000000000815250828280611c11906145b6565b935060408110611c2457611c236146ec565b5b6020020181905250611c3a846101400151612ba3565b828280611c46906145b6565b935060408110611c5957611c586146ec565b5b60200201819052506040518060400160405280600381526020017f2f31300000000000000000000000000000000000000000000000000000000000815250828280611ca3906145b6565b935060408110611cb657611cb56146ec565b5b60200201819052506040518060600160405280602e8152602001614f56602e9139828280611ce3906145b6565b935060408110611cf657611cf56146ec565b5b60200201819052506040518060400160405280600e81526020017f506f6c696365536b696c6c733a09000000000000000000000000000000000000815250828280611d40906145b6565b935060408110611d5357611d526146ec565b5b6020020181905250611d69846101000151612ba3565b828280611d75906145b6565b935060408110611d8857611d876146ec565b5b60200201819052506040518060400160405280600381526020017f2f31300000000000000000000000000000000000000000000000000000000000815250828280611dd2906145b6565b935060408110611de557611de46146ec565b5b60200201819052506040518060600160405280602e81526020016150f7602e9139828280611e12906145b6565b935060408110611e2557611e246146ec565b5b60200201819052506040518060400160405280600d81526020017f53616c6573536b696c6c733a0900000000000000000000000000000000000000815250828280611e6f906145b6565b935060408110611e8257611e816146ec565b5b6020020181905250611e98846101200151612ba3565b828280611ea4906145b6565b935060408110611eb757611eb66146ec565b5b60200201819052506040518060400160405280600381526020017f2f31300000000000000000000000000000000000000000000000000000000000815250828280611f01906145b6565b935060408110611f1457611f136146ec565b5b60200201819052506040518060600160405280602e8152602001615181602e9139828280611f41906145b6565b935060408110611f5457611f536146ec565b5b60200201819052506040518060400160405280601081526020017f5465616368696e67536b696c6c733a0900000000000000000000000000000000815250828280611f9e906145b6565b935060408110611fb157611fb06146ec565b5b6020020181905250611fc7846101600151612ba3565b828280611fd3906145b6565b935060408110611fe657611fe56146ec565b5b60200201819052506040518060400160405280600381526020017f2f31300000000000000000000000000000000000000000000000000000000000815250828280612030906145b6565b935060408110612043576120426146ec565b5b60200201819052506040518060600160405280602e8152602001615042602e9139828280612070906145b6565b935060408110612083576120826146ec565b5b60200201819052506040518060400160405280600e81526020017f4372656174696f6e54696d653a090000000000000000000000000000000000008152508282806120cd906145b6565b9350604081106120e0576120df6146ec565b5b60200201819052506120f58460000151612ba3565b828280612101906145b6565b935060408110612114576121136146ec565b5b60200201819052506040518060600160405280602e8152602001614f84602e9139828280612141906145b6565b935060408110612154576121536146ec565b5b60200201819052506040518060400160405280600e81526020017f41676552656d61696e696e673a0900000000000000000000000000000000000081525082828061219e906145b6565b9350604081106121b1576121b06146ec565b5b60200201819052506121c68460400151612ba3565b8282806121d2906145b6565b9350604081106121e5576121e46146ec565b5b60200201819052506040518060400160405280600d81526020017f3c2f746578743e3c2f7376673e0000000000000000000000000000000000000081525082828061222f906145b6565b935060408110612242576122416146ec565b5b6020020181905250600060405180602001604052806000815250905060005b828110156122b5578184826040811061227d5761227c6146ec565b5b6020020151604051602001612293929190613ee5565b6040516020818303038152906040529150806122ae906145b6565b9050612261565b5060006122f26122c489612ba3565b6122cd84612d04565b6040516020016122de929190613f09565b604051602081830303815290604052612d04565b9050806040516020016123059190613f4e565b6040516020818303038152906040529150819650505050505050919050565b6000600560008473ffffffffffffffffffffffffffffffffffffffff1673ffffffffffffffffffffffffffffffffffffffff16815260200190815260200160002060008373ffffffffffffffffffffffffffffffffffffffff1673ffffffffffffffffffffffffffffffffffffffff16815260200190815260200160002060009054906101000a900460ff16905092915050565b6123c0612592565b73ffffffffffffffffffffffffffffffffffffffff166123de610f66565b73ffffffffffffffffffffffffffffffffffffffff1614612434576040517f08c379a000000000000000000000000000000000000000000000000000000000815260040161242b906141d4565b60405180910390fd5b600073ffffffffffffffffffffffffffffffffffffffff168173ffffffffffffffffffffffffffffffffffffffff1614156124a4576040517f08c379a000000000000000000000000000000000000000000000000000000000815260040161249b90614074565b60405180910390fd5b6124ad816129f9565b50565b60007f80ac58cd000000000000000000000000000000000000000000000000000000007bffffffffffffffffffffffffffffffffffffffffffffffffffffffff1916827bffffffffffffffffffffffffffffffffffffffffffffffffffffffff1916148061257b57507f5b5e139f000000000000000000000000000000000000000000000000000000007bffffffffffffffffffffffffffffffffffffffffffffffffffffffff1916827bffffffffffffffffffffffffffffffffffffffffffffffffffffffff1916145b8061258b575061258a82612e9c565b5b9050919050565b600033905090565b60008073ffffffffffffffffffffffffffffffffffffffff166002600084815260200190815260200160002060009054906101000a900473ffffffffffffffffffffffffffffffffffffffff1673ffffffffffffffffffffffffffffffffffffffff1614159050919050565b816004600083815260200190815260200160002060006101000a81548173ffffffffffffffffffffffffffffffffffffffff021916908373ffffffffffffffffffffffffffffffffffffffff160217905550808273ffffffffffffffffffffffffffffffffffffffff1661267983610ba8565b73ffffffffffffffffffffffffffffffffffffffff167f8c5be1e5ebec7d5bd14f71427d1e84f3dd0314c0f7b2291e5b200ac8c7c3b92560405160405180910390a45050565b60006126ca8261259a565b612709576040517f08c379a0000000000000000000000000000000000000000000000000000000008152600401612700906140f4565b60405180910390fd5b600061271483610ba8565b90508073ffffffffffffffffffffffffffffffffffffffff168473ffffffffffffffffffffffffffffffffffffffff16148061278357508373ffffffffffffffffffffffffffffffffffffffff1661276b8461077f565b73ffffffffffffffffffffffffffffffffffffffff16145b8061279457506127938185612324565b5b91505092915050565b8273ffffffffffffffffffffffffffffffffffffffff166127bd82610ba8565b73ffffffffffffffffffffffffffffffffffffffff1614612813576040517f08c379a000000000000000000000000000000000000000000000000000000000815260040161280a906141f4565b60405180910390fd5b600073ffffffffffffffffffffffffffffffffffffffff168273ffffffffffffffffffffffffffffffffffffffff161415612883576040517f08c379a000000000000000000000000000000000000000000000000000000000815260040161287a906140b4565b60405180910390fd5b61288e838383612f06565b612899600082612606565b6001600360008573ffffffffffffffffffffffffffffffffffffffff1673ffffffffffffffffffffffffffffffffffffffff16815260200190815260200160002060008282546128e99190614469565b925050819055506001600360008473ffffffffffffffffffffffffffffffffffffffff1673ffffffffffffffffffffffffffffffffffffffff16815260200190815260200160002060008282546129409190614388565b92505081905550816002600083815260200190815260200160002060006101000a81548173ffffffffffffffffffffffffffffffffffffffff021916908373ffffffffffffffffffffffffffffffffffffffff160217905550808273ffffffffffffffffffffffffffffffffffffffff168473ffffffffffffffffffffffffffffffffffffffff167fddf252ad1be2c89b69c2b068fc378daa952ba7f163c4a11628f55a4df523b3ef60405160405180910390a4505050565b6000600b60009054906101000a900473ffffffffffffffffffffffffffffffffffffffff16905081600b60006101000a81548173ffffffffffffffffffffffffffffffffffffffff021916908373ffffffffffffffffffffffffffffffffffffffff1602179055508173ffffffffffffffffffffffffffffffffffffffff168173ffffffffffffffffffffffffffffffffffffffff167f8be0079c531659141344cd1fd0a4f28419497f9722a3daafe3b4186f6b6457e060405160405180910390a35050565b612ad982826040518060200160405280600081525061301a565b5050565b612ae884848461279d565b612af484848484613075565b612b33576040517f08c379a0000000000000000000000000000000000000000000000000000000008152600401612b2a90614054565b60405180910390fd5b50505050565b600081604051602001612b4c9190613ece565b6040516020818303038152906040528051906020012083604051602001612b739190613ece565b6040516020818303038152906040528051906020012014612b95576000612b98565b60015b60ff16905092915050565b60606000821415612beb576040518060400160405280600181526020017f30000000000000000000000000000000000000000000000000000000000000008152509050612cff565b600082905060005b60008214612c1d578080612c06906145b6565b915050600a82612c1691906143de565b9150612bf3565b60008167ffffffffffffffff811115612c3957612c3861471b565b5b6040519080825280601f01601f191660200182016040528015612c6b5781602001600182028036833780820191505090505b5090505b60008514612cf857600182612c849190614469565b9150600a85612c9391906145ff565b6030612c9f9190614388565b60f81b818381518110612cb557612cb46146ec565b5b60200101907effffffffffffffffffffffffffffffffffffffffffffffffffffffffffffff1916908160001a905350600a85612cf191906143de565b9450612c6f565b8093505050505b919050565b60606000825190506000811415612d2d5760405180602001604052806000815250915050612e97565b60006003600283612d3e9190614388565b612d4891906143de565b6004612d54919061440f565b90506000602082612d659190614388565b67ffffffffffffffff811115612d7e57612d7d61471b565b5b6040519080825280601f01601f191660200182016040528015612db05781602001600182028036833780820191505090505b5090506000604051806060016040528060408152602001615070604091399050600181016020830160005b86811015612e545760038101905062ffffff818a015116603f8160121c168401518060081b905060ff603f83600c1c1686015116810190508060081b905060ff603f8360061c1686015116810190508060081b905060ff603f831686015116810190508060e01b90508084526004840193505050612ddb565b506003860660018114612e6e5760028114612e7e57612e89565b613d3d60f01b6002830352612e89565b603d60f81b60018303525b508484525050819450505050505b919050565b60007f01ffc9a7000000000000000000000000000000000000000000000000000000007bffffffffffffffffffffffffffffffffffffffffffffffffffffffff1916827bffffffffffffffffffffffffffffffffffffffffffffffffffffffff1916149050919050565b612f1183838361320c565b600073ffffffffffffffffffffffffffffffffffffffff168373ffffffffffffffffffffffffffffffffffffffff161415612f5457612f4f81613211565b612f93565b8173ffffffffffffffffffffffffffffffffffffffff168373ffffffffffffffffffffffffffffffffffffffff1614612f9257612f91838261325a565b5b5b600073ffffffffffffffffffffffffffffffffffffffff168273ffffffffffffffffffffffffffffffffffffffff161415612fd657612fd1816133c7565b613015565b8273ffffffffffffffffffffffffffffffffffffffff168273ffffffffffffffffffffffffffffffffffffffff1614613014576130138282613498565b5b5b505050565b6130248383613517565b6130316000848484613075565b613070576040517f08c379a000000000000000000000000000000000000000000000000000000000815260040161306790614054565b60405180910390fd5b505050565b60006130968473ffffffffffffffffffffffffffffffffffffffff166136e5565b156131ff578373ffffffffffffffffffffffffffffffffffffffff1663150b7a026130bf612592565b8786866040518563ffffffff1660e01b81526004016130e19493929190613f8b565b602060405180830381600087803b1580156130fb57600080fd5b505af192505050801561312c57506040513d601f19601f820116820180604052508101906131299190613a16565b60015b6131af573d806000811461315c576040519150601f19603f3d011682016040523d82523d6000602084013e613161565b606091505b506000815114156131a7576040517f08c379a000000000000000000000000000000000000000000000000000000000815260040161319e90614054565b60405180910390fd5b805181602001fd5b63150b7a0260e01b7bffffffffffffffffffffffffffffffffffffffffffffffffffffffff1916817bffffffffffffffffffffffffffffffffffffffffffffffffffffffff191614915050613204565b600190505b949350505050565b505050565b6008805490506009600083815260200190815260200160002081905550600881908060018154018082558091505060019003906000526020600020016000909190919091505550565b6000600161326784610c5a565b6132719190614469565b9050600060076000848152602001908152602001600020549050818114613356576000600660008673ffffffffffffffffffffffffffffffffffffffff1673ffffffffffffffffffffffffffffffffffffffff168152602001908152602001600020600084815260200190815260200160002054905080600660008773ffffffffffffffffffffffffffffffffffffffff1673ffffffffffffffffffffffffffffffffffffffff168152602001908152602001600020600084815260200190815260200160002081905550816007600083815260200190815260200160002081905550505b6007600084815260200190815260200160002060009055600660008573ffffffffffffffffffffffffffffffffffffffff1673ffffffffffffffffffffffffffffffffffffffff16815260200190815260200160002060008381526020019081526020016000206000905550505050565b600060016008805490506133db9190614469565b905060006009600084815260200190815260200160002054905060006008838154811061340b5761340a6146ec565b5b90600052602060002001549050806008838154811061342d5761342c6146ec565b5b90600052602060002001819055508160096000838152602001908152602001600020819055506009600085815260200190815260200160002060009055600880548061347c5761347b6146bd565b5b6001900381819060005260206000200160009055905550505050565b60006134a383610c5a565b905081600660008573ffffffffffffffffffffffffffffffffffffffff1673ffffffffffffffffffffffffffffffffffffffff168152602001908152602001600020600083815260200190815260200160002081905550806007600084815260200190815260200160002081905550505050565b600073ffffffffffffffffffffffffffffffffffffffff168273ffffffffffffffffffffffffffffffffffffffff161415613587576040517f08c379a000000000000000000000000000000000000000000000000000000000815260040161357e90614194565b60405180910390fd5b6135908161259a565b156135d0576040517f08c379a00000000000000000000000000000000000000000000000000000000081526004016135c790614094565b60405180910390fd5b6135dc60008383612f06565b6001600360008473ffffffffffffffffffffffffffffffffffffffff1673ffffffffffffffffffffffffffffffffffffffff168152602001908152602001600020600082825461362c9190614388565b92505081905550816002600083815260200190815260200160002060006101000a81548173ffffffffffffffffffffffffffffffffffffffff021916908373ffffffffffffffffffffffffffffffffffffffff160217905550808273ffffffffffffffffffffffffffffffffffffffff16600073ffffffffffffffffffffffffffffffffffffffff167fddf252ad1be2c89b69c2b068fc378daa952ba7f163c4a11628f55a4df523b3ef60405160405180910390a45050565b600080823b905060008111915050919050565b6040518061080001604052806040905b60608152602001906001900390816137085790505090565b600061373361372e84614314565b6142ef565b90508281526020810184848401111561374f5761374e61474f565b5b61375a848285614511565b509392505050565b60008135905061377181614df9565b92915050565b60008135905061378681614e10565b92915050565b60008135905061379b81614e27565b92915050565b6000815190506137b081614e27565b92915050565b600082601f8301126137cb576137ca61474a565b5b81356137db848260208601613720565b91505092915050565b6000813590506137f381614e3e565b92915050565b60006020828403121561380f5761380e614759565b5b600061381d84828501613762565b91505092915050565b6000806040838503121561383d5761383c614759565b5b600061384b85828601613762565b925050602061385c85828601613762565b9150509250929050565b60008060006060848603121561387f5761387e614759565b5b600061388d86828701613762565b935050602061389e86828701613762565b92505060406138af868287016137e4565b9150509250925092565b600080600080608085870312156138d3576138d2614759565b5b60006138e187828801613762565b94505060206138f287828801613762565b9350506040613903878288016137e4565b925050606085013567ffffffffffffffff81111561392457613923614754565b5b613930878288016137b6565b91505092959194509250565b6000806040838503121561395357613952614759565b5b600061396185828601613762565b925050602061397285828601613777565b9150509250929050565b6000806040838503121561399357613992614759565b5b60006139a185828601613762565b92505060206139b2858286016137e4565b9150509250929050565b6000602082840312156139d2576139d1614759565b5b60006139e084828501613777565b91505092915050565b6000602082840312156139ff576139fe614759565b5b6000613a0d8482850161378c565b91505092915050565b600060208284031215613a2c57613a2b614759565b5b6000613a3a848285016137a1565b91505092915050565b600060208284031215613a5957613a58614759565b5b6000613a67848285016137e4565b91505092915050565b613a798161449d565b82525050565b613a88816144af565b82525050565b6000613a9982614345565b613aa3818561435b565b9350613ab3818560208601614520565b613abc8161475e565b840191505092915050565b6000613ad282614350565b613adc818561436c565b9350613aec818560208601614520565b613af58161475e565b840191505092915050565b6000613b0b82614350565b613b15818561437d565b9350613b25818560208601614520565b80840191505092915050565b6000613b3e600b8361436c565b9150613b498261476f565b602082019050919050565b6000613b61602b8361436c565b9150613b6c82614798565b604082019050919050565b6000613b8460328361436c565b9150613b8f826147e7565b604082019050919050565b6000613ba760268361436c565b9150613bb282614836565b604082019050919050565b6000613bca601c8361436c565b9150613bd582614885565b602082019050919050565b6000613bed60248361436c565b9150613bf8826148ae565b604082019050919050565b6000613c1060198361436c565b9150613c1b826148fd565b602082019050919050565b6000613c33602c8361436c565b9150613c3e82614926565b604082019050919050565b6000613c5660128361437d565b9150613c6182614975565b601282019050919050565b6000613c7960388361436c565b9150613c848261499e565b604082019050919050565b6000613c9c60258361436c565b9150613ca7826149ed565b604082019050919050565b6000613cbf602a8361436c565b9150613cca82614a3c565b604082019050919050565b6000613ce260298361436c565b9150613ced82614a8b565b604082019050919050565b6000613d0560028361437d565b9150613d1082614ada565b600282019050919050565b6000613d2860208361436c565b9150613d3382614b03565b602082019050919050565b6000613d4b602c8361436c565b9150613d5682614b2c565b604082019050919050565b6000613d6e60208361436c565b9150613d7982614b7b565b602082019050919050565b6000613d9160298361436c565b9150613d9c82614ba4565b604082019050919050565b6000613db460218361436c565b9150613dbf82614bf3565b604082019050919050565b6000613dd760168361436c565b9150613de282614c42565b602082019050919050565b6000613dfa60198361436c565b9150613e0582614c6b565b602082019050919050565b6000613e1d601d8361437d565b9150613e2882614c94565b601d82019050919050565b6000613e4060318361436c565b9150613e4b82614cbd565b604082019050919050565b6000613e63602c8361436c565b9150613e6e82614d0c565b604082019050919050565b6000613e86601f8361436c565b9150613e9182614d5b565b602082019050919050565b6000613ea9605c8361437d565b9150613eb482614d84565b605c82019050919050565b613ec881614507565b82525050565b6000613eda8284613b00565b915081905092915050565b6000613ef18285613b00565b9150613efd8284613b00565b91508190509392505050565b6000613f1482613c49565b9150613f208285613b00565b9150613f2b82613e9c565b9150613f378284613b00565b9150613f4282613cf8565b91508190509392505050565b6000613f5982613e10565b9150613f658284613b00565b915081905092915050565b6000602082019050613f856000830184613a70565b92915050565b6000608082019050613fa06000830187613a70565b613fad6020830186613a70565b613fba6040830185613ebf565b8181036060830152613fcc8184613a8e565b905095945050505050565b6000602082019050613fec6000830184613a7f565b92915050565b6000602082019050818103600083015261400c8184613ac7565b905092915050565b6000602082019050818103600083015261402d81613b31565b9050919050565b6000602082019050818103600083015261404d81613b54565b9050919050565b6000602082019050818103600083015261406d81613b77565b9050919050565b6000602082019050818103600083015261408d81613b9a565b9050919050565b600060208201905081810360008301526140ad81613bbd565b9050919050565b600060208201905081810360008301526140cd81613be0565b9050919050565b600060208201905081810360008301526140ed81613c03565b9050919050565b6000602082019050818103600083015261410d81613c26565b9050919050565b6000602082019050818103600083015261412d81613c6c565b9050919050565b6000602082019050818103600083015261414d81613c8f565b9050919050565b6000602082019050818103600083015261416d81613cb2565b9050919050565b6000602082019050818103600083015261418d81613cd5565b9050919050565b600060208201905081810360008301526141ad81613d1b565b9050919050565b600060208201905081810360008301526141cd81613d3e565b9050919050565b600060208201905081810360008301526141ed81613d61565b9050919050565b6000602082019050818103600083015261420d81613d84565b9050919050565b6000602082019050818103600083015261422d81613da7565b9050919050565b6000602082019050818103600083015261424d81613dca565b9050919050565b6000602082019050818103600083015261426d81613ded565b9050919050565b6000602082019050818103600083015261428d81613e33565b9050919050565b600060208201905081810360008301526142ad81613e56565b9050919050565b600060208201905081810360008301526142cd81613e79565b9050919050565b60006020820190506142e96000830184613ebf565b92915050565b60006142f961430a565b90506143058282614585565b919050565b6000604051905090565b600067ffffffffffffffff82111561432f5761432e61471b565b5b6143388261475e565b9050602081019050919050565b600081519050919050565b600081519050919050565b600082825260208201905092915050565b600082825260208201905092915050565b600081905092915050565b600061439382614507565b915061439e83614507565b9250827fffffffffffffffffffffffffffffffffffffffffffffffffffffffffffffffff038211156143d3576143d2614630565b5b828201905092915050565b60006143e982614507565b91506143f483614507565b9250826144045761440361465f565b5b828204905092915050565b600061441a82614507565b915061442583614507565b9250817fffffffffffffffffffffffffffffffffffffffffffffffffffffffffffffffff048311821515161561445e5761445d614630565b5b828202905092915050565b600061447482614507565b915061447f83614507565b92508282101561449257614491614630565b5b828203905092915050565b60006144a8826144e7565b9050919050565b60008115159050919050565b60007fffffffff0000000000000000000000000000000000000000000000000000000082169050919050565b600073ffffffffffffffffffffffffffffffffffffffff82169050919050565b6000819050919050565b82818337600083830152505050565b60005b8381101561453e578082015181840152602081019050614523565b8381111561454d576000848401525b50505050565b6000600282049050600182168061456b57607f821691505b6020821081141561457f5761457e61468e565b5b50919050565b61458e8261475e565b810181811067ffffffffffffffff821117156145ad576145ac61471b565b5b80604052505050565b60006145c182614507565b91507fffffffffffffffffffffffffffffffffffffffffffffffffffffffffffffffff8214156145f4576145f3614630565b5b600182019050919050565b600061460a82614507565b915061461583614507565b9250826146255761462461465f565b5b828206905092915050565b7f4e487b7100000000000000000000000000000000000000000000000000000000600052601160045260246000fd5b7f4e487b7100000000000000000000000000000000000000000000000000000000600052601260045260246000fd5b7f4e487b7100000000000000000000000000000000000000000000000000000000600052602260045260246000fd5b7f4e487b7100000000000000000000000000000000000000000000000000000000600052603160045260246000fd5b7f4e487b7100000000000000000000000000000000000000000000000000000000600052603260045260246000fd5b7f4e487b7100000000000000000000000000000000000000000000000000000000600052604160045260246000fd5b600080fd5b600080fd5b600080fd5b600080fd5b6000601f19601f8301169050919050565b7f53616c6520706175736564000000000000000000000000000000000000000000600082015250565b7f455243373231456e756d657261626c653a206f776e657220696e646578206f7560008201527f74206f6620626f756e6473000000000000000000000000000000000000000000602082015250565b7f4552433732313a207472616e7366657220746f206e6f6e20455243373231526560008201527f63656976657220696d706c656d656e7465720000000000000000000000000000602082015250565b7f4f776e61626c653a206e6577206f776e657220697320746865207a65726f206160008201527f6464726573730000000000000000000000000000000000000000000000000000602082015250565b7f4552433732313a20746f6b656e20616c7265616479206d696e74656400000000600082015250565b7f4552433732313a207472616e7366657220746f20746865207a65726f2061646460008201527f7265737300000000000000000000000000000000000000000000000000000000602082015250565b7f4552433732313a20617070726f766520746f2063616c6c657200000000000000600082015250565b7f4552433732313a206f70657261746f7220717565727920666f72206e6f6e657860008201527f697374656e7420746f6b656e0000000000000000000000000000000000000000602082015250565b7f7b226e616d65223a202248756e67657220230000000000000000000000000000600082015250565b7f4552433732313a20617070726f76652063616c6c6572206973206e6f74206f7760008201527f6e6572206e6f7220617070726f76656420666f7220616c6c0000000000000000602082015250565b7f596f752063616e2061646f70742061206d6178696d756d206f6620323020487560008201527f6e67657273000000000000000000000000000000000000000000000000000000602082015250565b7f4552433732313a2062616c616e636520717565727920666f7220746865207a6560008201527f726f206164647265737300000000000000000000000000000000000000000000602082015250565b7f4552433732313a206f776e657220717565727920666f72206e6f6e657869737460008201527f656e7420746f6b656e0000000000000000000000000000000000000000000000602082015250565b7f227d000000000000000000000000000000000000000000000000000000000000600082015250565b7f4552433732313a206d696e7420746f20746865207a65726f2061646472657373600082015250565b7f4552433732313a20617070726f76656420717565727920666f72206e6f6e657860008201527f697374656e7420746f6b656e0000000000000000000000000000000000000000602082015250565b7f4f776e61626c653a2063616c6c6572206973206e6f7420746865206f776e6572600082015250565b7f4552433732313a207472616e73666572206f6620746f6b656e2074686174206960008201527f73206e6f74206f776e0000000000000000000000000000000000000000000000602082015250565b7f4552433732313a20617070726f76616c20746f2063757272656e74206f776e6560008201527f7200000000000000000000000000000000000000000000000000000000000000602082015250565b7f45786365656473206d6178696d756d20737570706c7900000000000000000000600082015250565b7f45746865722073656e74206973206e6f7420636f727265637400000000000000600082015250565b7f646174613a6170706c69636174696f6e2f6a736f6e3b6261736536342c000000600082015250565b7f4552433732313a207472616e736665722063616c6c6572206973206e6f74206f60008201527f776e6572206e6f7220617070726f766564000000000000000000000000000000602082015250565b7f455243373231456e756d657261626c653a20676c6f62616c20696e646578206f60008201527f7574206f6620626f756e64730000000000000000000000000000000000000000602082015250565b7f5265656e7472616e637947756172643a207265656e7472616e742063616c6c00600082015250565b7f222c20226465736372697074696f6e223a202248756e6765725665727365206960008201527f7320612067616d65206f6620737572766976616c2e222c2022696d616765223a60208201527f2022646174613a696d6167652f7376672b786d6c3b6261736536342c00000000604082015250565b614e028161449d565b8114614e0d57600080fd5b50565b614e19816144af565b8114614e2457600080fd5b50565b614e30816144bb565b8114614e3b57600080fd5b50565b614e4781614507565b8114614e5257600080fd5b5056fe3c7465787420783d2231302220793d2236302220636c6173733d2262617365477265656e223e2e62617365477265656e207b2066696c6c3a20737072696e67677265656e3b20666f6e742d66616d696c793a2073657269663b20666f6e742d73697a653a20313670783b207d3c2f7374796c653e3c2f746578743e3c7465787420783d2231302220793d223136302220636c6173733d2262617365477265656e223e3c2f746578743e3c7465787420783d2231302220793d223138302220636c6173733d22626173655768697465223e3c726563742077696474683d223130302522206865696768743d2231303025222066696c6c3d22626c61636b22202f3e3c2f746578743e3c7465787420783d2231302220793d223232302220636c6173733d22626173655768697465223e3c2f746578743e3c7465787420783d2231302220793d223332302220636c6173733d2262617365477265656e223e3c73766720786d6c6e733d22687474703a2f2f7777772e77332e6f72672f323030302f73766722207072657365727665417370656374526174696f3d22784d696e594d696e206d656574222076696577426f783d223020302033353020333530223e3c2f746578743e3c7465787420783d2231302220793d223230302220636c6173733d2262617365477265656e223e3c2f746578743e3c7465787420783d2231302220793d223330302220636c6173733d22626173655768697465223e4142434445464748494a4b4c4d4e4f505152535455565758595a6162636465666768696a6b6c6d6e6f707172737475767778797a303132333435363738392b2f3c7374796c653e2e626173655768697465207b2066696c6c3a2077686974653b20666f6e742d66616d696c793a2073657269663b20666f6e742d73697a653a20313670783b207d3c2f746578743e3c7465787420783d2231302220793d223234302220636c6173733d2262617365477265656e223e3c2f746578743e3c7465787420783d2231302220793d223130302220636c6173733d22626173655768697465223e3c2f746578743e3c7465787420783d2231302220793d223134302220636c6173733d22626173655768697465223e3c2f746578743e3c7465787420783d2231302220793d223236302220636c6173733d22626173655768697465223ea26469706673582212206ea23a2fb425a199b2f8e999623f9d589b1e93d75fbcc2b287394b17dee6db0d64736f6c63430008070033",
  "immutableReferences": {},
  "source": "// SPDX-License-Identifier: MIT\n\npragma solidity ^0.8.0;\n\nimport \"./FullERC721.sol\";\n\ncontract HungerVerse is ERC721Enumerable, ReentrancyGuard, Ownable {\n\n\tstruct PlayerInfo {\n\t\tuint256 creationTime;\n\t\tstring gender;\n        uint256 ageRemaining;\n\n        //only for females\n        uint256 maxOffsprings;  // 0 to 5\n\n        //only for humans\n\t\tstring weapons;\n        uint256 politicalSkills;\n        uint256 doctorSkills;\n        uint256 technicalSkills;\n        uint256 policeSkills;\n        uint256 salesSkills;\n        uint256 lawyerSkills;\n        uint256 teachingSkills;\n\t}\n\t\n    uint256 private _price = 0.05 ether;\n    bool public _paused = true;\n\n\tstring[] private gender = [ \"Male\", \"Female\" ];\n\tuint256[] private maxAge = [ 1024, 256];\n\tstring[] private weapons;\n\n\tmapping (uint256 => PlayerInfo) private _tokenId2Player;\n\n    constructor() ERC721(\"HungerVerse\", \"HUNGER\") Ownable() {\n\t}\n\n\tfunction generatePlayer(uint256 tokenId) internal {\n\t\tPlayerInfo storage player = _tokenId2Player[tokenId];   //by reference\n\n\t\tplayer.creationTime = block.timestamp;\n        if(tokenId % 3 == 0) { //human-male\n            player.gender = gender[0];\n            player.ageRemaining = 512;\n            player.politicalSkills = pluck(tokenId, \"POLITICS\") % 11;\n            player.technicalSkills = pluck(tokenId, \"TECHNOLOGY\") % 11;\n            player.teachingSkills = pluck(tokenId, \"TEACHER\") % 11;\n            player.doctorSkills = pluck(tokenId, \"DOCTOR\") % 11;\n            player.lawyerSkills = pluck(tokenId, \"LAWYER\") % 11;\n            player.policeSkills = pluck(tokenId, \"POLICE\") % 11;\n            player.salesSkills = pluck(tokenId, \"SALES\") % 11;\n            player.weapons = weapons[pluck(tokenId, \"WEAPON\") % weapons.length];\n        }\n        else if(tokenId % 3 == 1) { //human-female\n            player.gender = gender[1];\n            player.ageRemaining = 512;\n            player.maxOffsprings = pluck(tokenId, \"OFFSPRING\") % 6;\n            player.technicalSkills = pluck(tokenId, \"TECHNOLOGY\") % 11;\n            player.politicalSkills = pluck(tokenId, \"POLITICS\") % 11;\n            player.teachingSkills = pluck(tokenId, \"TEACHER\") % 11;\n            player.doctorSkills = pluck(tokenId, \"DOCTOR\") % 11;\n            player.lawyerSkills = pluck(tokenId, \"LAWYER\") % 11;\n            player.policeSkills = pluck(tokenId, \"POLICE\") % 11;\n            player.salesSkills = pluck(tokenId, \"SALES\") % 11;\n        }\n\t}\n\n    function random(string memory input) internal pure returns (uint256) {\n        return uint256(keccak256(abi.encodePacked(input)));\n    }\n\n    function pluck(uint256 tokenId, string memory keyPrefix) internal pure returns (uint256) {\n        return random(string(abi.encodePacked(keyPrefix, Strings.toString(tokenId))));\n    }\n\n    function tokenURI(uint256 tokenId) override public view returns (string memory) {\n\n        PlayerInfo memory player = _tokenId2Player[tokenId];\n        uint256 isFemale = Strings.compare(player.gender, \"Female\");\n\n        string[64] memory parts;\n\t\tuint256 counter = 0;\n        parts[counter++] = '<svg xmlns=\"http://www.w3.org/2000/svg\" preserveAspectRatio=\"xMinYMin meet\" viewBox=\"0 0 350 350\">';\n\t\tparts[counter++] = '<style>.baseWhite { fill: white; font-family: serif; font-size: 16px; }';\n\t\tparts[counter++] = '.baseGreen { fill: springgreen; font-family: serif; font-size: 16px; }</style>';\n\t\tparts[counter++] = '<rect width=\"100%\" height=\"100%\" fill=\"black\" />';\n        parts[counter++] = '<text x=\"10\" y=\"60\" class=\"baseGreen\">';\n        parts[counter++] = \"Gender:\\t\";\n        parts[counter++] = player.gender;\n        if(isFemale == 1) {\n            parts[counter++] = '</text><text x=\"10\" y=\"100\" class=\"baseWhite\">';\n            parts[counter++] = \"MaxOffsprings:\\t\";\n            parts[counter++] = Strings.toString(player.maxOffsprings);\n        }\n        else {\n            parts[counter++] = '</text><text x=\"10\" y=\"100\" class=\"baseWhite\">';\n            parts[counter++] = \"Weapons:\\t\";\n            parts[counter++] = player.weapons;\n        }\n\n        parts[counter++] = '</text><text x=\"10\" y=\"140\" class=\"baseWhite\">';\n        parts[counter++] = \"PoliticalSkills:\";\n        parts[counter++] = Strings.toString(player.politicalSkills);\n        parts[counter++] = \"/10\";\n        parts[counter++] = '</text><text x=\"10\" y=\"160\" class=\"baseGreen\">';\n        parts[counter++] = \"TechnicalSkills:\\t\";\n        parts[counter++] = Strings.toString(player.technicalSkills);\n        parts[counter++] = \"/10\";\n        parts[counter++] = '</text><text x=\"10\" y=\"180\" class=\"baseWhite\">';\n        parts[counter++] = \"DoctorSkills:\\t\";\n        parts[counter++] = Strings.toString(player.doctorSkills);\n        parts[counter++] = \"/10\";\n        parts[counter++] = '</text><text x=\"10\" y=\"200\" class=\"baseGreen\">';\n        parts[counter++] = \"LawyerSkills:\\t\";\n        parts[counter++] = Strings.toString(player.lawyerSkills);\n        parts[counter++] = \"/10\";\n        parts[counter++] = '</text><text x=\"10\" y=\"220\" class=\"baseWhite\">';\n        parts[counter++] = \"PoliceSkills:\\t\";\n        parts[counter++] = Strings.toString(player.policeSkills);\n        parts[counter++] = \"/10\";\n        parts[counter++] = '</text><text x=\"10\" y=\"240\" class=\"baseGreen\">';\n        parts[counter++] = \"SalesSkills:\\t\";\n        parts[counter++] = Strings.toString(player.salesSkills);\n        parts[counter++] = \"/10\";\n        parts[counter++] = '</text><text x=\"10\" y=\"260\" class=\"baseWhite\">';\n        parts[counter++] = \"TeachingSkills:\\t\";\n        parts[counter++] = Strings.toString(player.teachingSkills);\n        parts[counter++] = \"/10\";\n        \n\t\tparts[counter++] = '</text><text x=\"10\" y=\"300\" class=\"baseWhite\">';\n        parts[counter++] = \"CreationTime:\\t\";\n        parts[counter++] = Strings.toString(player.creationTime);\n        parts[counter++] = '</text><text x=\"10\" y=\"320\" class=\"baseGreen\">';\n        parts[counter++] = \"AgeRemaining:\\t\";\n        parts[counter++] = Strings.toString(player.ageRemaining);\n        parts[counter++] = '</text></svg>';\n\n        string memory output = \"\";\n\t\tfor(uint256 i = 0; i < counter; ++i)\n\t\t{\n\t\t\toutput = string(abi.encodePacked(output, parts[i]));\n\t\t}\n\n        string memory json = Base64.encode(bytes(string(abi.encodePacked('{\"name\": \"Hunger #', Strings.toString(tokenId), '\", \"description\": \"HungerVerse is a game of survival.\", \"image\": \"data:image/svg+xml;base64,', Base64.encode(bytes(output)), '\"}'))));\n        output = string(abi.encodePacked('data:application/json;base64,', json));\n\n        return output;\n    }\n\n    function adopt(uint256 num) public nonReentrant payable {\n        uint256 supply = totalSupply();\n        require(!_paused, \"Sale paused\");\n        require(num < 21, \"You can adopt a maximum of 20 Hungers\");\n        require(supply + num < 20000, \"Exceeds maximum supply\");\n        require(msg.value >= _price * num, \"Ether sent is not correct\");\n\n        for(uint256 i; i < num; i++) {\n            _safeMint(msg.sender, supply + i);\n        }\n    }\n\n    function setPrice(uint256 _newPrice) public onlyOwner() {\n        _price = _newPrice;\n    }\n\n    function getPrice() public view returns (uint256){\n        return _price;\n    }\n\n    function pause(bool val) public onlyOwner {\n        _paused = val;\n    }\n\n    function withdraw() public payable onlyOwner {\n        address ownerAddress = 0x4aF0BB035FfB1CbEFA550530917e151a53034d70;\n        require(payable(ownerAddress).send(address(this).balance));\n    }\n}\n",
  "sourcePath": "/home/ec2-user/github/fcc-dapp/src/contracts/HungerVerse.sol",
  "compiler": {
    "name": "solc",
    "version": "0.8.7+commit.e28d00a7.Emscripten.clang"
  },
  "schemaVersion": "3.4.3",
  "updatedAt": "2022-01-02T13:08:25.496Z",
  "devdoc": {
    "kind": "dev",
    "methods": {
      "approve(address,uint256)": {
        "details": "See {IERC721-approve}."
      },
      "balanceOf(address)": {
        "details": "See {IERC721-balanceOf}."
      },
      "getApproved(uint256)": {
        "details": "See {IERC721-getApproved}."
      },
      "isApprovedForAll(address,address)": {
        "details": "See {IERC721-isApprovedForAll}."
      },
      "name()": {
        "details": "See {IERC721Metadata-name}."
      },
      "owner()": {
        "details": "Returns the address of the current owner."
      },
      "ownerOf(uint256)": {
        "details": "See {IERC721-ownerOf}."
      },
      "renounceOwnership()": {
        "details": "Leaves the contract without owner. It will not be possible to call `onlyOwner` functions anymore. Can only be called by the current owner. NOTE: Renouncing ownership will leave the contract without an owner, thereby removing any functionality that is only available to the owner."
      },
      "safeTransferFrom(address,address,uint256)": {
        "details": "See {IERC721-safeTransferFrom}."
      },
      "safeTransferFrom(address,address,uint256,bytes)": {
        "details": "See {IERC721-safeTransferFrom}."
      },
      "setApprovalForAll(address,bool)": {
        "details": "See {IERC721-setApprovalForAll}."
      },
      "supportsInterface(bytes4)": {
        "details": "See {IERC165-supportsInterface}."
      },
      "symbol()": {
        "details": "See {IERC721Metadata-symbol}."
      },
      "tokenByIndex(uint256)": {
        "details": "See {IERC721Enumerable-tokenByIndex}."
      },
      "tokenOfOwnerByIndex(address,uint256)": {
        "details": "See {IERC721Enumerable-tokenOfOwnerByIndex}."
      },
      "tokenURI(uint256)": {
        "details": "See {IERC721Metadata-tokenURI}."
      },
      "totalSupply()": {
        "details": "See {IERC721Enumerable-totalSupply}."
      },
      "transferFrom(address,address,uint256)": {
        "details": "See {IERC721-transferFrom}."
      },
      "transferOwnership(address)": {
        "details": "Transfers ownership of the contract to a new account (`newOwner`). Can only be called by the current owner."
      }
    },
    "version": 1
  },
  "userdoc": {
    "kind": "user",
    "methods": {},
    "version": 1
  }
}