{
  "contractName": "HungerVerse",
  "abi": [
    {
      "inputs": [],
      "stateMutability": "nonpayable",
      "type": "constructor"
    },
    {
      "anonymous": false,
      "inputs": [
        {
          "indexed": true,
          "internalType": "address",
          "name": "owner",
          "type": "address"
        },
        {
          "indexed": true,
          "internalType": "address",
          "name": "approved",
          "type": "address"
        },
        {
          "indexed": true,
          "internalType": "uint256",
          "name": "tokenId",
          "type": "uint256"
        }
      ],
      "name": "Approval",
      "type": "event"
    },
    {
      "anonymous": false,
      "inputs": [
        {
          "indexed": true,
          "internalType": "address",
          "name": "owner",
          "type": "address"
        },
        {
          "indexed": true,
          "internalType": "address",
          "name": "operator",
          "type": "address"
        },
        {
          "indexed": false,
          "internalType": "bool",
          "name": "approved",
          "type": "bool"
        }
      ],
      "name": "ApprovalForAll",
      "type": "event"
    },
    {
      "anonymous": false,
      "inputs": [
        {
          "indexed": true,
          "internalType": "address",
          "name": "previousOwner",
          "type": "address"
        },
        {
          "indexed": true,
          "internalType": "address",
          "name": "newOwner",
          "type": "address"
        }
      ],
      "name": "OwnershipTransferred",
      "type": "event"
    },
    {
      "anonymous": false,
      "inputs": [
        {
          "indexed": true,
          "internalType": "address",
          "name": "from",
          "type": "address"
        },
        {
          "indexed": true,
          "internalType": "address",
          "name": "to",
          "type": "address"
        },
        {
          "indexed": true,
          "internalType": "uint256",
          "name": "tokenId",
          "type": "uint256"
        }
      ],
      "name": "Transfer",
      "type": "event"
    },
    {
      "inputs": [],
      "name": "_otherContract",
      "outputs": [
        {
          "internalType": "address",
          "name": "",
          "type": "address"
        }
      ],
      "stateMutability": "view",
      "type": "function"
    },
    {
      "inputs": [],
      "name": "_paused",
      "outputs": [
        {
          "internalType": "bool",
          "name": "",
          "type": "bool"
        }
      ],
      "stateMutability": "view",
      "type": "function"
    },
    {
      "inputs": [],
      "name": "_price",
      "outputs": [
        {
          "internalType": "uint256",
          "name": "",
          "type": "uint256"
        }
      ],
      "stateMutability": "view",
      "type": "function"
    },
    {
      "inputs": [
        {
          "internalType": "address",
          "name": "to",
          "type": "address"
        },
        {
          "internalType": "uint256",
          "name": "tokenId",
          "type": "uint256"
        }
      ],
      "name": "approve",
      "outputs": [],
      "stateMutability": "nonpayable",
      "type": "function"
    },
    {
      "inputs": [
        {
          "internalType": "address",
          "name": "owner",
          "type": "address"
        }
      ],
      "name": "balanceOf",
      "outputs": [
        {
          "internalType": "uint256",
          "name": "",
          "type": "uint256"
        }
      ],
      "stateMutability": "view",
      "type": "function"
    },
    {
      "inputs": [
        {
          "internalType": "uint256",
          "name": "tokenId",
          "type": "uint256"
        }
      ],
      "name": "getApproved",
      "outputs": [
        {
          "internalType": "address",
          "name": "",
          "type": "address"
        }
      ],
      "stateMutability": "view",
      "type": "function"
    },
    {
      "inputs": [],
      "name": "name",
      "outputs": [
        {
          "internalType": "string",
          "name": "",
          "type": "string"
        }
      ],
      "stateMutability": "view",
      "type": "function"
    },
    {
      "inputs": [],
      "name": "owner",
      "outputs": [
        {
          "internalType": "address",
          "name": "",
          "type": "address"
        }
      ],
      "stateMutability": "view",
      "type": "function"
    },
    {
      "inputs": [
        {
          "internalType": "uint256",
          "name": "tokenId",
          "type": "uint256"
        }
      ],
      "name": "ownerOf",
      "outputs": [
        {
          "internalType": "address",
          "name": "",
          "type": "address"
        }
      ],
      "stateMutability": "view",
      "type": "function"
    },
    {
      "inputs": [],
      "name": "renounceOwnership",
      "outputs": [],
      "stateMutability": "nonpayable",
      "type": "function"
    },
    {
      "inputs": [
        {
          "internalType": "address",
          "name": "from",
          "type": "address"
        },
        {
          "internalType": "address",
          "name": "to",
          "type": "address"
        },
        {
          "internalType": "uint256",
          "name": "tokenId",
          "type": "uint256"
        }
      ],
      "name": "safeTransferFrom",
      "outputs": [],
      "stateMutability": "nonpayable",
      "type": "function"
    },
    {
      "inputs": [
        {
          "internalType": "address",
          "name": "from",
          "type": "address"
        },
        {
          "internalType": "address",
          "name": "to",
          "type": "address"
        },
        {
          "internalType": "uint256",
          "name": "tokenId",
          "type": "uint256"
        },
        {
          "internalType": "bytes",
          "name": "_data",
          "type": "bytes"
        }
      ],
      "name": "safeTransferFrom",
      "outputs": [],
      "stateMutability": "nonpayable",
      "type": "function"
    },
    {
      "inputs": [
        {
          "internalType": "address",
          "name": "operator",
          "type": "address"
        },
        {
          "internalType": "bool",
          "name": "approved",
          "type": "bool"
        }
      ],
      "name": "setApprovalForAll",
      "outputs": [],
      "stateMutability": "nonpayable",
      "type": "function"
    },
    {
      "inputs": [
        {
          "internalType": "bytes4",
          "name": "interfaceId",
          "type": "bytes4"
        }
      ],
      "name": "supportsInterface",
      "outputs": [
        {
          "internalType": "bool",
          "name": "",
          "type": "bool"
        }
      ],
      "stateMutability": "view",
      "type": "function"
    },
    {
      "inputs": [],
      "name": "symbol",
      "outputs": [
        {
          "internalType": "string",
          "name": "",
          "type": "string"
        }
      ],
      "stateMutability": "view",
      "type": "function"
    },
    {
      "inputs": [
        {
          "internalType": "uint256",
          "name": "index",
          "type": "uint256"
        }
      ],
      "name": "tokenByIndex",
      "outputs": [
        {
          "internalType": "uint256",
          "name": "",
          "type": "uint256"
        }
      ],
      "stateMutability": "view",
      "type": "function"
    },
    {
      "inputs": [
        {
          "internalType": "address",
          "name": "owner",
          "type": "address"
        },
        {
          "internalType": "uint256",
          "name": "index",
          "type": "uint256"
        }
      ],
      "name": "tokenOfOwnerByIndex",
      "outputs": [
        {
          "internalType": "uint256",
          "name": "",
          "type": "uint256"
        }
      ],
      "stateMutability": "view",
      "type": "function"
    },
    {
      "inputs": [],
      "name": "totalSupply",
      "outputs": [
        {
          "internalType": "uint256",
          "name": "",
          "type": "uint256"
        }
      ],
      "stateMutability": "view",
      "type": "function"
    },
    {
      "inputs": [
        {
          "internalType": "address",
          "name": "from",
          "type": "address"
        },
        {
          "internalType": "address",
          "name": "to",
          "type": "address"
        },
        {
          "internalType": "uint256",
          "name": "tokenId",
          "type": "uint256"
        }
      ],
      "name": "transferFrom",
      "outputs": [],
      "stateMutability": "nonpayable",
      "type": "function"
    },
    {
      "inputs": [
        {
          "internalType": "address",
          "name": "newOwner",
          "type": "address"
        }
      ],
      "name": "transferOwnership",
      "outputs": [],
      "stateMutability": "nonpayable",
      "type": "function"
    },
    {
      "inputs": [
        {
          "internalType": "uint256",
          "name": "tokenId",
          "type": "uint256"
        }
      ],
      "name": "getPlayerInfo",
      "outputs": [
        {
          "internalType": "uint256",
          "name": "",
          "type": "uint256"
        },
        {
          "internalType": "uint256",
          "name": "",
          "type": "uint256"
        },
        {
          "internalType": "uint256",
          "name": "",
          "type": "uint256"
        },
        {
          "internalType": "uint256",
          "name": "",
          "type": "uint256"
        },
        {
          "internalType": "uint256",
          "name": "",
          "type": "uint256"
        },
        {
          "internalType": "uint256",
          "name": "",
          "type": "uint256"
        },
        {
          "internalType": "uint256",
          "name": "",
          "type": "uint256"
        }
      ],
      "stateMutability": "view",
      "type": "function"
    },
    {
      "inputs": [
        {
          "internalType": "uint256",
          "name": "tokenId",
          "type": "uint256"
        }
      ],
      "name": "tokenURI",
      "outputs": [
        {
          "internalType": "string",
          "name": "",
          "type": "string"
        }
      ],
      "stateMutability": "view",
      "type": "function"
    },
    {
      "inputs": [
        {
          "internalType": "uint256",
          "name": "num",
          "type": "uint256"
        }
      ],
      "name": "own",
      "outputs": [],
      "stateMutability": "payable",
      "type": "function"
    },
    {
      "inputs": [
        {
          "internalType": "uint256",
          "name": "tokenIdM",
          "type": "uint256"
        },
        {
          "internalType": "uint256",
          "name": "tokenIdF",
          "type": "uint256"
        }
      ],
      "name": "mate",
      "outputs": [],
      "stateMutability": "payable",
      "type": "function"
    },
    {
      "inputs": [
        {
          "internalType": "uint256",
          "name": "tokenId",
          "type": "uint256"
        }
      ],
      "name": "like",
      "outputs": [],
      "stateMutability": "nonpayable",
      "type": "function"
    },
    {
      "inputs": [
        {
          "internalType": "uint256",
          "name": "tokenId",
          "type": "uint256"
        }
      ],
      "name": "win",
      "outputs": [],
      "stateMutability": "nonpayable",
      "type": "function"
    },
    {
      "inputs": [
        {
          "internalType": "address",
          "name": "spender",
          "type": "address"
        },
        {
          "internalType": "uint256",
          "name": "tokenId",
          "type": "uint256"
        }
      ],
      "name": "isApprovedOrOwner",
      "outputs": [
        {
          "internalType": "bool",
          "name": "",
          "type": "bool"
        }
      ],
      "stateMutability": "view",
      "type": "function"
    },
    {
      "inputs": [
        {
          "internalType": "address",
          "name": "owner",
          "type": "address"
        },
        {
          "internalType": "address",
          "name": "operator",
          "type": "address"
        }
      ],
      "name": "isApprovedForAll",
      "outputs": [
        {
          "internalType": "bool",
          "name": "",
          "type": "bool"
        }
      ],
      "stateMutability": "view",
      "type": "function"
    },
    {
      "inputs": [
        {
          "internalType": "uint256",
          "name": "tokenId",
          "type": "uint256"
        }
      ],
      "name": "burn",
      "outputs": [],
      "stateMutability": "nonpayable",
      "type": "function"
    },
    {
      "inputs": [
        {
          "internalType": "uint256",
          "name": "_newPrice",
          "type": "uint256"
        }
      ],
      "name": "setPrice",
      "outputs": [],
      "stateMutability": "nonpayable",
      "type": "function"
    },
    {
      "inputs": [
        {
          "internalType": "bool",
          "name": "val",
          "type": "bool"
        }
      ],
      "name": "setPause",
      "outputs": [],
      "stateMutability": "nonpayable",
      "type": "function"
    },
    {
      "inputs": [
        {
          "internalType": "address",
          "name": "val",
          "type": "address"
        }
      ],
      "name": "setOtherContract",
      "outputs": [],
      "stateMutability": "nonpayable",
      "type": "function"
    },
    {
      "inputs": [],
      "name": "withdraw",
      "outputs": [],
      "stateMutability": "payable",
      "type": "function"
    }
  ],
  "bytecode": "0x608060405260405180608001604052806040518060400160405280600d81526020017f42656c6f7720417665726167650000000000000000000000000000000000000081525081526020016040518060400160405280600781526020017f417665726167650000000000000000000000000000000000000000000000000081525081526020016040518060400160405280600d81526020017f41626f766520417665726167650000000000000000000000000000000000000081525081526020016040518060400160405280600681526020017f4769667465640000000000000000000000000000000000000000000000000000815250815250600b9060046200010b929190620002d4565b5066b1a2bc2ec50000600c556000600d60006101000a81548160ff0219169083151502179055503480156200013f57600080fd5b506040518060400160405280600b81526020017f48756e67657256657273650000000000000000000000000000000000000000008152506040518060400160405280600681526020017f48554e47455200000000000000000000000000000000000000000000000000008152508160009080519060200190620001c49291906200033b565b508060019080519060200190620001dd9291906200033b565b50505062000200620001f46200020660201b60201c565b6200020e60201b60201c565b620004be565b600033905090565b6000600a60009054906101000a900473ffffffffffffffffffffffffffffffffffffffff16905081600a60006101000a81548173ffffffffffffffffffffffffffffffffffffffff021916908373ffffffffffffffffffffffffffffffffffffffff1602179055508173ffffffffffffffffffffffffffffffffffffffff168173ffffffffffffffffffffffffffffffffffffffff167f8be0079c531659141344cd1fd0a4f28419497f9722a3daafe3b4186f6b6457e060405160405180910390a35050565b82805482825590600052602060002090810192821562000328579160200282015b8281111562000327578251829080519060200190620003169291906200033b565b5091602001919060010190620002f5565b5b509050620003379190620003cc565b5090565b828054620003499062000459565b90600052602060002090601f0160209004810192826200036d5760008555620003b9565b82601f106200038857805160ff1916838001178555620003b9565b82800160010185558215620003b9579182015b82811115620003b85782518255916020019190600101906200039b565b5b509050620003c89190620003f4565b5090565b5b80821115620003f05760008181620003e6919062000413565b50600101620003cd565b5090565b5b808211156200040f576000816000905550600101620003f5565b5090565b508054620004219062000459565b6000825580601f1062000435575062000456565b601f016020900490600052602060002090810190620004559190620003f4565b5b50565b600060028204905060018216806200047257607f821691505b602082108114156200048957620004886200048f565b5b50919050565b7f4e487b7100000000000000000000000000000000000000000000000000000000600052602260045260246000fd5b61589e80620004ce6000396000f3fe6080604052600436106101ee5760003560e01c80636352211e1161010d578063a912c436116100a0578063dea59ca51161006f578063dea59ca5146106d0578063e82935da146106fb578063e985e9c514610724578063ea17532e14610761578063f2fde38b146107a4576101ee565b8063a912c43614610625578063b88d4fde14610641578063bedb86fb1461066a578063c87b56dd14610693576101ee565b806391b7f5ed116100dc57806391b7f5ed1461058c57806395d89b41146105b55780639c3f5237146105e0578063a22cb465146105fc576101ee565b80636352211e146104d057806370a082311461050d578063715018a61461054a5780638da5cb5b14610561576101ee565b80632f745c591161018557806342966c681161015457806342966c6814610404578063430c20811461042d5780634f6ccce71461046a5780635bc60cfc146104a7576101ee565b80632f745c591461036b57806335a28f3e146103a85780633ccfd60b146103d157806342842e0e146103db576101ee565b806316c61ccc116101c157806316c61ccc146102c157806318160ddd146102ec578063235b6ea11461031757806323b872dd14610342576101ee565b806301ffc9a7146101f357806306fdde0314610230578063081812fc1461025b578063095ea7b314610298575b600080fd5b3480156101ff57600080fd5b5061021a60048036038101906102159190613f3b565b6107cd565b60405161022791906145d2565b60405180910390f35b34801561023c57600080fd5b50610245610847565b60405161025291906145ed565b60405180910390f35b34801561026757600080fd5b50610282600480360381019061027d9190613f95565b6108d9565b60405161028f919061456b565b60405180910390f35b3480156102a457600080fd5b506102bf60048036038101906102ba9190613ece565b61095e565b005b3480156102cd57600080fd5b506102d6610a76565b6040516102e391906145d2565b60405180910390f35b3480156102f857600080fd5b50610301610a89565b60405161030e919061492f565b60405180910390f35b34801561032357600080fd5b5061032c610a96565b604051610339919061492f565b60405180910390f35b34801561034e57600080fd5b5061036960048036038101906103649190613db8565b610a9c565b005b34801561037757600080fd5b50610392600480360381019061038d9190613ece565b610afc565b60405161039f919061492f565b60405180910390f35b3480156103b457600080fd5b506103cf60048036038101906103ca9190613d4b565b610ba1565b005b6103d9610c61565b005b3480156103e757600080fd5b5061040260048036038101906103fd9190613db8565b610d26565b005b34801561041057600080fd5b5061042b60048036038101906104269190613f95565b610d46565b005b34801561043957600080fd5b50610454600480360381019061044f9190613ece565b610d7e565b60405161046191906145d2565b60405180910390f35b34801561047657600080fd5b50610491600480360381019061048c9190613f95565b610d92565b60405161049e919061492f565b60405180910390f35b3480156104b357600080fd5b506104ce60048036038101906104c99190613f95565b610e03565b005b3480156104dc57600080fd5b506104f760048036038101906104f29190613f95565b610ec2565b604051610504919061456b565b60405180910390f35b34801561051957600080fd5b50610534600480360381019061052f9190613d4b565b610f74565b604051610541919061492f565b60405180910390f35b34801561055657600080fd5b5061055f61102c565b005b34801561056d57600080fd5b506105766110b4565b604051610583919061456b565b60405180910390f35b34801561059857600080fd5b506105b360048036038101906105ae9190613f95565b6110de565b005b3480156105c157600080fd5b506105ca611164565b6040516105d791906145ed565b60405180910390f35b6105fa60048036038101906105f59190613fc2565b6111f6565b005b34801561060857600080fd5b50610623600480360381019061061e9190613e8e565b6114d3565b005b61063f600480360381019061063a9190613f95565b611654565b005b34801561064d57600080fd5b5061066860048036038101906106639190613e0b565b611803565b005b34801561067657600080fd5b50610691600480360381019061068c9190613f0e565b611865565b005b34801561069f57600080fd5b506106ba60048036038101906106b59190613f95565b6118fe565b6040516106c791906145ed565b60405180910390f35b3480156106dc57600080fd5b506106e5612399565b6040516106f2919061456b565b60405180910390f35b34801561070757600080fd5b50610722600480360381019061071d9190613f95565b6123bf565b005b34801561073057600080fd5b5061074b60048036038101906107469190613d78565b6123ee565b60405161075891906145d2565b60405180910390f35b34801561076d57600080fd5b5061078860048036038101906107839190613f95565b61245a565b60405161079b979695949392919061494a565b60405180910390f35b3480156107b057600080fd5b506107cb60048036038101906107c69190613d4b565b612514565b005b60007f780e9d63000000000000000000000000000000000000000000000000000000007bffffffffffffffffffffffffffffffffffffffffffffffffffffffff1916827bffffffffffffffffffffffffffffffffffffffffffffffffffffffff19161480610840575061083f8261260c565b5b9050919050565b60606000805461085690614c1d565b80601f016020809104026020016040519081016040528092919081815260200182805461088290614c1d565b80156108cf5780601f106108a4576101008083540402835291602001916108cf565b820191906000526020600020905b8154815290600101906020018083116108b257829003601f168201915b5050505050905090565b60006108e4826126ee565b610923576040517f08c379a000000000000000000000000000000000000000000000000000000000815260040161091a906147ef565b60405180910390fd5b6004600083815260200190815260200160002060009054906101000a900473ffffffffffffffffffffffffffffffffffffffff169050919050565b600061096982610ec2565b90508073ffffffffffffffffffffffffffffffffffffffff168373ffffffffffffffffffffffffffffffffffffffff1614156109da576040517f08c379a00000000000000000000000000000000000000000000000000000000081526004016109d19061486f565b60405180910390fd5b8073ffffffffffffffffffffffffffffffffffffffff166109f961275a565b73ffffffffffffffffffffffffffffffffffffffff161480610a285750610a2781610a2261275a565b6123ee565b5b610a67576040517f08c379a0000000000000000000000000000000000000000000000000000000008152600401610a5e9061474f565b60405180910390fd5b610a718383612762565b505050565b600d60009054906101000a900460ff1681565b6000600880549050905090565b600c5481565b610aad610aa761275a565b8261281b565b610aec576040517f08c379a0000000000000000000000000000000000000000000000000000000008152600401610ae3906148cf565b60405180910390fd5b610af78383836128f9565b505050565b6000610b0783610f74565b8210610b48576040517f08c379a0000000000000000000000000000000000000000000000000000000008152600401610b3f9061462f565b60405180910390fd5b600660008473ffffffffffffffffffffffffffffffffffffffff1673ffffffffffffffffffffffffffffffffffffffff168152602001908152602001600020600083815260200190815260200160002054905092915050565b610ba961275a565b73ffffffffffffffffffffffffffffffffffffffff16610bc76110b4565b73ffffffffffffffffffffffffffffffffffffffff1614610c1d576040517f08c379a0000000000000000000000000000000000000000000000000000000008152600401610c149061482f565b60405180910390fd5b80600d60016101000a81548173ffffffffffffffffffffffffffffffffffffffff021916908373ffffffffffffffffffffffffffffffffffffffff16021790555050565b610c6961275a565b73ffffffffffffffffffffffffffffffffffffffff16610c876110b4565b73ffffffffffffffffffffffffffffffffffffffff1614610cdd576040517f08c379a0000000000000000000000000000000000000000000000000000000008152600401610cd49061482f565b60405180910390fd5b3373ffffffffffffffffffffffffffffffffffffffff166108fc479081150290604051600060405180830381858888f19350505050158015610d23573d6000803e3d6000fd5b50565b610d4183838360405180602001604052806000815250611803565b505050565b600e60008281526020019081526020016000206007016000815480929190610d6d90614c80565b9190505550610d7b81612b55565b50565b6000610d8a838361281b565b905092915050565b6000610d9c610a89565b8210610ddd576040517f08c379a0000000000000000000000000000000000000000000000000000000008152600401610dd4906148ef565b60405180910390fd5b60088281548110610df157610df0614db6565b5b90600052602060002001549050919050565b600d60019054906101000a900473ffffffffffffffffffffffffffffffffffffffff1673ffffffffffffffffffffffffffffffffffffffff163373ffffffffffffffffffffffffffffffffffffffff1614610e93576040517f08c379a0000000000000000000000000000000000000000000000000000000008152600401610e8a906147cf565b60405180910390fd5b600e60008281526020019081526020016000206006016000815480929190610eba90614c80565b919050555050565b6000806002600084815260200190815260200160002060009054906101000a900473ffffffffffffffffffffffffffffffffffffffff169050600073ffffffffffffffffffffffffffffffffffffffff168173ffffffffffffffffffffffffffffffffffffffff161415610f6b576040517f08c379a0000000000000000000000000000000000000000000000000000000008152600401610f629061478f565b60405180910390fd5b80915050919050565b60008073ffffffffffffffffffffffffffffffffffffffff168273ffffffffffffffffffffffffffffffffffffffff161415610fe5576040517f08c379a0000000000000000000000000000000000000000000000000000000008152600401610fdc9061476f565b60405180910390fd5b600360008373ffffffffffffffffffffffffffffffffffffffff1673ffffffffffffffffffffffffffffffffffffffff168152602001908152602001600020549050919050565b61103461275a565b73ffffffffffffffffffffffffffffffffffffffff166110526110b4565b73ffffffffffffffffffffffffffffffffffffffff16146110a8576040517f08c379a000000000000000000000000000000000000000000000000000000000815260040161109f9061482f565b60405180910390fd5b6110b26000612c66565b565b6000600a60009054906101000a900473ffffffffffffffffffffffffffffffffffffffff16905090565b6110e661275a565b73ffffffffffffffffffffffffffffffffffffffff166111046110b4565b73ffffffffffffffffffffffffffffffffffffffff161461115a576040517f08c379a00000000000000000000000000000000000000000000000000000000081526004016111519061482f565b60405180910390fd5b80600c8190555050565b60606001805461117390614c1d565b80601f016020809104026020016040519081016040528092919081815260200182805461119f90614c1d565b80156111ec5780601f106111c1576101008083540402835291602001916111ec565b820191906000526020600020905b8154815290600101906020018083116111cf57829003601f168201915b5050505050905090565b600d60009054906101000a900460ff1615611246576040517f08c379a000000000000000000000000000000000000000000000000000000000815260040161123d9061460f565b60405180910390fd5b611250338361281b565b80156112625750611261338261281b565b5b6112a1576040517f08c379a0000000000000000000000000000000000000000000000000000000008152600401611298906147cf565b60405180910390fd5b6001600e600084815260200190815260200160002060000154146112fa576040517f08c379a00000000000000000000000000000000000000000000000000000000081526004016112f19061490f565b60405180910390fd5b6000600e600083815260200190815260200160002090506000816000015414611358576040517f08c379a000000000000000000000000000000000000000000000000000000000815260040161134f906146ef565b60405180910390fd5b600081600201541161139f576040517f08c379a00000000000000000000000000000000000000000000000000000000081526004016113969061480f565b60405180910390fd5b615dc081600201546113af610a89565b6113b99190614a52565b11156113fa576040517f08c379a00000000000000000000000000000000000000000000000000000000081526004016113f19061488f565b60405180910390fd5b80600201546002600c5461140e9190614aa8565b6114189190614ad9565b34101561145a576040517f08c379a0000000000000000000000000000000000000000000000000000000008152600401611451906148af565b60405180910390fd5b600080600190505b615dc081116114c257611474816126ee565b1561147e576114af565b61148781612d2c565b6114913382612f78565b8260020154826114a090614c80565b92508214156114ae576114c2565b5b80806114ba90614c80565b915050611462565b506000826002018190555050505050565b6114db61275a565b73ffffffffffffffffffffffffffffffffffffffff168273ffffffffffffffffffffffffffffffffffffffff161415611549576040517f08c379a0000000000000000000000000000000000000000000000000000000008152600401611540906146cf565b60405180910390fd5b806005600061155661275a565b73ffffffffffffffffffffffffffffffffffffffff1673ffffffffffffffffffffffffffffffffffffffff16815260200190815260200160002060008473ffffffffffffffffffffffffffffffffffffffff1673ffffffffffffffffffffffffffffffffffffffff16815260200190815260200160002060006101000a81548160ff0219169083151502179055508173ffffffffffffffffffffffffffffffffffffffff1661160361275a565b73ffffffffffffffffffffffffffffffffffffffff167f17307eab39ab6107e8899845ad3d59bd9653f200f220920489ca2b5937696c318360405161164891906145d2565b60405180910390a35050565b600d60009054906101000a900460ff16156116a4576040517f08c379a000000000000000000000000000000000000000000000000000000000815260040161169b9061460f565b60405180910390fd5b6000811180156116b45750601581105b6116f3576040517f08c379a00000000000000000000000000000000000000000000000000000000081526004016116ea9061472f565b60405180910390fd5b615dc0816116ff610a89565b6117099190614a52565b111561174a576040517f08c379a00000000000000000000000000000000000000000000000000000000081526004016117419061488f565b60405180910390fd5b80600c546117589190614ad9565b34101561179a576040517f08c379a0000000000000000000000000000000000000000000000000000000008152600401611791906148af565b60405180910390fd5b600080600190505b615dc081116117fe576117b4816126ee565b156117be576117eb565b6117c781612d2c565b6117d13382612f78565b82826117dc90614c80565b92508214156117ea576117fe565b5b80806117f690614c80565b9150506117a2565b505050565b61181461180e61275a565b8361281b565b611853576040517f08c379a000000000000000000000000000000000000000000000000000000000815260040161184a906148cf565b60405180910390fd5b61185f84848484612f96565b50505050565b61186d61275a565b73ffffffffffffffffffffffffffffffffffffffff1661188b6110b4565b73ffffffffffffffffffffffffffffffffffffffff16146118e1576040517f08c379a00000000000000000000000000000000000000000000000000000000081526004016118d89061482f565b60405180910390fd5b80600d60006101000a81548160ff02191690831515021790555050565b60606000600e60008481526020019081526020016000206040518061010001604052908160008201548152602001600182015481526020016002820154815260200160038201548152602001600482015481526020016005820154815260200160068201548152602001600782015481525050905061197b613c4a565b60006040518060a00160405280606281526020016156f6606291398282806119a290614c80565b9350602081106119b5576119b4614db6565b5b60200201819052506040518060800160405280604781526020016157c6604791398282806119e290614c80565b9350602081106119f5576119f4614db6565b5b60200201819052506040518060800160405280604e815260200161564a604e9139828280611a2290614c80565b935060208110611a3557611a34614db6565b5b60200201819052506040518060600160405280603081526020016156c660309139828280611a6290614c80565b935060208110611a7557611a74614db6565b5b60200201819052506040518060600160405280602681526020016155c860269139828280611aa290614c80565b935060208110611ab557611ab4614db6565b5b60200201819052506000836000015114611b04576040518060400160405280600481526020017f4d616c6500000000000000000000000000000000000000000000000000000000815250611b3b565b6040518060400160405280600681526020017f46656d616c6500000000000000000000000000000000000000000000000000008152505b828280611b4790614c80565b935060208110611b5a57611b59614db6565b5b60200201819052506040518060600160405280602d815260200161559b602d9139828280611b8790614c80565b935060208110611b9a57611b99614db6565b5b60200201819052506040518060400160405280600a81526020017f44697374726963743a0900000000000000000000000000000000000000000000815250828280611be490614c80565b935060208110611bf757611bf6614db6565b5b6020020181905250611c0c8360200151612ff2565b828280611c1890614c80565b935060208110611c2b57611c2a614db6565b5b6020020181905250600083600001511415611d12576040518060600160405280602e815260200161561c602e9139828280611c6590614c80565b935060208110611c7857611c77614db6565b5b60200201819052506040518060400160405280600c81526020017f4f6666737072696e67733a090000000000000000000000000000000000000000815250828280611cc290614c80565b935060208110611cd557611cd4614db6565b5b6020020181905250611cea8360400151612ff2565b828280611cf690614c80565b935060208110611d0957611d08614db6565b5b60200201819052505b6040518060600160405280602e81526020016155ee602e9139828280611d3790614c80565b935060208110611d4a57611d49614db6565b5b60200201819052506040518060400160405280600f81526020017f48756e74696e67536b696c6c733a090000000000000000000000000000000000815250828280611d9490614c80565b935060208110611da757611da6614db6565b5b6020020181905250600b836060015181548110611dc757611dc6614db6565b5b906000526020600020018054611ddc90614c1d565b80601f0160208091040260200160405190810160405280929190818152602001828054611e0890614c1d565b8015611e555780601f10611e2a57610100808354040283529160200191611e55565b820191906000526020600020905b815481529060010190602001808311611e3857829003601f168201915b5050505050828280611e6690614c80565b935060208110611e7957611e78614db6565b5b60200201819052506040518060600160405280602e8152602001615698602e9139828280611ea690614c80565b935060208110611eb957611eb8614db6565b5b60200201819052506040518060400160405280600481526020017f49513a0900000000000000000000000000000000000000000000000000000000815250828280611f0390614c80565b935060208110611f1657611f15614db6565b5b6020020181905250600b836080015181548110611f3657611f35614db6565b5b906000526020600020018054611f4b90614c1d565b80601f0160208091040260200160405190810160405280929190818152602001828054611f7790614c1d565b8015611fc45780601f10611f9957610100808354040283529160200191611fc4565b820191906000526020600020905b815481529060010190602001808311611fa757829003601f168201915b5050505050828280611fd590614c80565b935060208110611fe857611fe7614db6565b5b60200201819052506040518060600160405280602e815260200161580d602e913982828061201590614c80565b93506020811061202857612027614db6565b5b60200201819052506040518060400160405280600781526020017f4c696b65733a090000000000000000000000000000000000000000000000000081525082828061207290614c80565b93506020811061208557612084614db6565b5b602002018190525061209a8360a00151612ff2565b8282806120a690614c80565b9350602081106120b9576120b8614db6565b5b60200201819052506040518060600160405280602e8152602001615758602e91398282806120e690614c80565b9350602081106120f9576120f8614db6565b5b60200201819052506040518060400160405280600681526020017f57696e733a09000000000000000000000000000000000000000000000000000081525082828061214390614c80565b93506020811061215657612155614db6565b5b602002018190525061216b8360c00151612ff2565b82828061217790614c80565b93506020811061218a57612189614db6565b5b60200201819052506040518060600160405280602e815260200161583b602e91398282806121b790614c80565b9350602081106121ca576121c9614db6565b5b60200201819052506040518060400160405280600781526020017f4275726e733a090000000000000000000000000000000000000000000000000081525082828061221490614c80565b93506020811061222757612226614db6565b5b602002018190525061223c8360e00151612ff2565b82828061224890614c80565b93506020811061225b5761225a614db6565b5b60200201819052506040518060400160405280600d81526020017f3c2f746578743e3c2f7376673e000000000000000000000000000000000000008152508282806122a590614c80565b9350602081106122b8576122b7614db6565b5b6020020181905250600060405180602001604052806000815250905060005b8281101561232b57818482602081106122f3576122f2614db6565b5b60200201516040516020016123099291906144e0565b60405160208183030381529060405291508061232490614c80565b90506122d7565b50600061236861233a88612ff2565b61234384613153565b604051602001612354929190614526565b604051602081830303815290604052613153565b90508060405160200161237b9190614504565b60405160208183030381529060405291508195505050505050919050565b600d60019054906101000a900473ffffffffffffffffffffffffffffffffffffffff1681565b600e600082815260200190815260200160002060050160008154809291906123e690614c80565b919050555050565b6000600d60019054906101000a900473ffffffffffffffffffffffffffffffffffffffff1673ffffffffffffffffffffffffffffffffffffffff168273ffffffffffffffffffffffffffffffffffffffff161480612452575061245183836132eb565b5b905092915050565b600080600080600080600080600e60008a81526020019081526020016000206040518061010001604052908160008201548152602001600182015481526020016002820154815260200160038201548152602001600482015481526020016005820154815260200160068201548152602001600782015481525050905080600001518160200151826060015183608001518460a001518560c001518660e00151975097509750975097509750975050919395979092949650565b61251c61275a565b73ffffffffffffffffffffffffffffffffffffffff1661253a6110b4565b73ffffffffffffffffffffffffffffffffffffffff1614612590576040517f08c379a00000000000000000000000000000000000000000000000000000000081526004016125879061482f565b60405180910390fd5b600073ffffffffffffffffffffffffffffffffffffffff168173ffffffffffffffffffffffffffffffffffffffff161415612600576040517f08c379a00000000000000000000000000000000000000000000000000000000081526004016125f79061466f565b60405180910390fd5b61260981612c66565b50565b60007f80ac58cd000000000000000000000000000000000000000000000000000000007bffffffffffffffffffffffffffffffffffffffffffffffffffffffff1916827bffffffffffffffffffffffffffffffffffffffffffffffffffffffff191614806126d757507f5b5e139f000000000000000000000000000000000000000000000000000000007bffffffffffffffffffffffffffffffffffffffffffffffffffffffff1916827bffffffffffffffffffffffffffffffffffffffffffffffffffffffff1916145b806126e757506126e68261337f565b5b9050919050565b60008073ffffffffffffffffffffffffffffffffffffffff166002600084815260200190815260200160002060009054906101000a900473ffffffffffffffffffffffffffffffffffffffff1673ffffffffffffffffffffffffffffffffffffffff1614159050919050565b600033905090565b816004600083815260200190815260200160002060006101000a81548173ffffffffffffffffffffffffffffffffffffffff021916908373ffffffffffffffffffffffffffffffffffffffff160217905550808273ffffffffffffffffffffffffffffffffffffffff166127d583610ec2565b73ffffffffffffffffffffffffffffffffffffffff167f8c5be1e5ebec7d5bd14f71427d1e84f3dd0314c0f7b2291e5b200ac8c7c3b92560405160405180910390a45050565b6000612826826126ee565b612865576040517f08c379a000000000000000000000000000000000000000000000000000000000815260040161285c9061470f565b60405180910390fd5b600061287083610ec2565b90508073ffffffffffffffffffffffffffffffffffffffff168473ffffffffffffffffffffffffffffffffffffffff1614806128df57508373ffffffffffffffffffffffffffffffffffffffff166128c7846108d9565b73ffffffffffffffffffffffffffffffffffffffff16145b806128f057506128ef81856123ee565b5b91505092915050565b8273ffffffffffffffffffffffffffffffffffffffff1661291982610ec2565b73ffffffffffffffffffffffffffffffffffffffff161461296f576040517f08c379a00000000000000000000000000000000000000000000000000000000081526004016129669061484f565b60405180910390fd5b600073ffffffffffffffffffffffffffffffffffffffff168273ffffffffffffffffffffffffffffffffffffffff1614156129df576040517f08c379a00000000000000000000000000000000000000000000000000000000081526004016129d6906146af565b60405180910390fd5b6129ea8383836133e9565b6129f5600082612762565b6001600360008573ffffffffffffffffffffffffffffffffffffffff1673ffffffffffffffffffffffffffffffffffffffff1681526020019081526020016000206000828254612a459190614b33565b925050819055506001600360008473ffffffffffffffffffffffffffffffffffffffff1673ffffffffffffffffffffffffffffffffffffffff1681526020019081526020016000206000828254612a9c9190614a52565b92505081905550816002600083815260200190815260200160002060006101000a81548173ffffffffffffffffffffffffffffffffffffffff021916908373ffffffffffffffffffffffffffffffffffffffff160217905550808273ffffffffffffffffffffffffffffffffffffffff168473ffffffffffffffffffffffffffffffffffffffff167fddf252ad1be2c89b69c2b068fc378daa952ba7f163c4a11628f55a4df523b3ef60405160405180910390a4505050565b6000612b6082610ec2565b9050612b6e816000846133e9565b612b79600083612762565b6001600360008373ffffffffffffffffffffffffffffffffffffffff1673ffffffffffffffffffffffffffffffffffffffff1681526020019081526020016000206000828254612bc99190614b33565b925050819055506002600083815260200190815260200160002060006101000a81549073ffffffffffffffffffffffffffffffffffffffff021916905581600073ffffffffffffffffffffffffffffffffffffffff168273ffffffffffffffffffffffffffffffffffffffff167fddf252ad1be2c89b69c2b068fc378daa952ba7f163c4a11628f55a4df523b3ef60405160405180910390a45050565b6000600a60009054906101000a900473ffffffffffffffffffffffffffffffffffffffff16905081600a60006101000a81548173ffffffffffffffffffffffffffffffffffffffff021916908373ffffffffffffffffffffffffffffffffffffffff1602179055508173ffffffffffffffffffffffffffffffffffffffff168173ffffffffffffffffffffffffffffffffffffffff167f8be0079c531659141344cd1fd0a4f28419497f9722a3daafe3b4186f6b6457e060405160405180910390a35050565b6000600e600083815260200190815260200160002090506002612d84836040518060400160405280600681526020017f47454e44455200000000000000000000000000000000000000000000000000008152506134fd565b612d8e9190614cc9565b8160000181905550600c612dd7836040518060400160405280600881526020017f44495354524943540000000000000000000000000000000000000000000000008152506134fd565b82600701548360060154612deb9190614a52565b612df59190614a52565b612dff9190614cc9565b6001612e0b9190614a52565b8160010181905550600081600001541415612e92576009612e61836040518060400160405280600a81526020017f4f4646535052494e4753000000000000000000000000000000000000000000008152506134fd565b82600701548360060154612e759190614a52565b612e7f9190614a52565b612e899190614cc9565b81600201819055505b6004612ed3836040518060400160405280600781526020017f48554e54494e47000000000000000000000000000000000000000000000000008152506134fd565b82600701548360060154612ee79190614a52565b612ef19190614a52565b612efb9190614cc9565b81600301819055506004612f44836040518060400160405280600781526020017f495153434f5245000000000000000000000000000000000000000000000000008152506134fd565b82600701548360060154612f589190614a52565b612f629190614a52565b612f6c9190614cc9565b81600401819055505050565b612f92828260405180602001604052806000815250613539565b5050565b612fa18484846128f9565b612fad84848484613594565b612fec576040517f08c379a0000000000000000000000000000000000000000000000000000000008152600401612fe39061464f565b60405180910390fd5b50505050565b6060600082141561303a576040518060400160405280600181526020017f3000000000000000000000000000000000000000000000000000000000000000815250905061314e565b600082905060005b6000821461306c57808061305590614c80565b915050600a826130659190614aa8565b9150613042565b60008167ffffffffffffffff81111561308857613087614de5565b5b6040519080825280601f01601f1916602001820160405280156130ba5781602001600182028036833780820191505090505b5090505b60008514613147576001826130d39190614b33565b9150600a856130e29190614cc9565b60306130ee9190614a52565b60f81b81838151811061310457613103614db6565b5b60200101907effffffffffffffffffffffffffffffffffffffffffffffffffffffffffffff1916908160001a905350600a856131409190614aa8565b94506130be565b8093505050505b919050565b6060600082519050600081141561317c57604051806020016040528060008152509150506132e6565b6000600360028361318d9190614a52565b6131979190614aa8565b60046131a39190614ad9565b905060006020826131b49190614a52565b67ffffffffffffffff8111156131cd576131cc614de5565b5b6040519080825280601f01601f1916602001820160405280156131ff5781602001600182028036833780820191505090505b5090506000604051806060016040528060408152602001615786604091399050600181016020830160005b868110156132a35760038101905062ffffff818a015116603f8160121c168401518060081b905060ff603f83600c1c1686015116810190508060081b905060ff603f8360061c1686015116810190508060081b905060ff603f831686015116810190508060e01b9050808452600484019350505061322a565b5060038606600181146132bd57600281146132cd576132d8565b613d3d60f01b60028303526132d8565b603d60f81b60018303525b508484525050819450505050505b919050565b6000600560008473ffffffffffffffffffffffffffffffffffffffff1673ffffffffffffffffffffffffffffffffffffffff16815260200190815260200160002060008373ffffffffffffffffffffffffffffffffffffffff1673ffffffffffffffffffffffffffffffffffffffff16815260200190815260200160002060009054906101000a900460ff16905092915050565b60007f01ffc9a7000000000000000000000000000000000000000000000000000000007bffffffffffffffffffffffffffffffffffffffffffffffffffffffff1916827bffffffffffffffffffffffffffffffffffffffffffffffffffffffff1916149050919050565b6133f483838361372b565b600073ffffffffffffffffffffffffffffffffffffffff168373ffffffffffffffffffffffffffffffffffffffff1614156134375761343281613730565b613476565b8173ffffffffffffffffffffffffffffffffffffffff168373ffffffffffffffffffffffffffffffffffffffff1614613475576134748382613779565b5b5b600073ffffffffffffffffffffffffffffffffffffffff168273ffffffffffffffffffffffffffffffffffffffff1614156134b9576134b4816138e6565b6134f8565b8273ffffffffffffffffffffffffffffffffffffffff168273ffffffffffffffffffffffffffffffffffffffff16146134f7576134f682826139b7565b5b5b505050565b60006135318261350c85612ff2565b60405160200161351d9291906144e0565b604051602081830303815290604052613a36565b905092915050565b6135438383613a69565b6135506000848484613594565b61358f576040517f08c379a00000000000000000000000000000000000000000000000000000000081526004016135869061464f565b60405180910390fd5b505050565b60006135b58473ffffffffffffffffffffffffffffffffffffffff16613c37565b1561371e578373ffffffffffffffffffffffffffffffffffffffff1663150b7a026135de61275a565b8786866040518563ffffffff1660e01b81526004016136009493929190614586565b602060405180830381600087803b15801561361a57600080fd5b505af192505050801561364b57506040513d601f19601f820116820180604052508101906136489190613f68565b60015b6136ce573d806000811461367b576040519150601f19603f3d011682016040523d82523d6000602084013e613680565b606091505b506000815114156136c6576040517f08c379a00000000000000000000000000000000000000000000000000000000081526004016136bd9061464f565b60405180910390fd5b805181602001fd5b63150b7a0260e01b7bffffffffffffffffffffffffffffffffffffffffffffffffffffffff1916817bffffffffffffffffffffffffffffffffffffffffffffffffffffffff191614915050613723565b600190505b949350505050565b505050565b6008805490506009600083815260200190815260200160002081905550600881908060018154018082558091505060019003906000526020600020016000909190919091505550565b6000600161378684610f74565b6137909190614b33565b9050600060076000848152602001908152602001600020549050818114613875576000600660008673ffffffffffffffffffffffffffffffffffffffff1673ffffffffffffffffffffffffffffffffffffffff168152602001908152602001600020600084815260200190815260200160002054905080600660008773ffffffffffffffffffffffffffffffffffffffff1673ffffffffffffffffffffffffffffffffffffffff168152602001908152602001600020600084815260200190815260200160002081905550816007600083815260200190815260200160002081905550505b6007600084815260200190815260200160002060009055600660008573ffffffffffffffffffffffffffffffffffffffff1673ffffffffffffffffffffffffffffffffffffffff16815260200190815260200160002060008381526020019081526020016000206000905550505050565b600060016008805490506138fa9190614b33565b905060006009600084815260200190815260200160002054905060006008838154811061392a57613929614db6565b5b90600052602060002001549050806008838154811061394c5761394b614db6565b5b90600052602060002001819055508160096000838152602001908152602001600020819055506009600085815260200190815260200160002060009055600880548061399b5761399a614d87565b5b6001900381819060005260206000200160009055905550505050565b60006139c283610f74565b905081600660008573ffffffffffffffffffffffffffffffffffffffff1673ffffffffffffffffffffffffffffffffffffffff168152602001908152602001600020600083815260200190815260200160002081905550806007600084815260200190815260200160002081905550505050565b600081604051602001613a4991906144c9565b6040516020818303038152906040528051906020012060001c9050919050565b600073ffffffffffffffffffffffffffffffffffffffff168273ffffffffffffffffffffffffffffffffffffffff161415613ad9576040517f08c379a0000000000000000000000000000000000000000000000000000000008152600401613ad0906147af565b60405180910390fd5b613ae2816126ee565b15613b22576040517f08c379a0000000000000000000000000000000000000000000000000000000008152600401613b199061468f565b60405180910390fd5b613b2e600083836133e9565b6001600360008473ffffffffffffffffffffffffffffffffffffffff1673ffffffffffffffffffffffffffffffffffffffff1681526020019081526020016000206000828254613b7e9190614a52565b92505081905550816002600083815260200190815260200160002060006101000a81548173ffffffffffffffffffffffffffffffffffffffff021916908373ffffffffffffffffffffffffffffffffffffffff160217905550808273ffffffffffffffffffffffffffffffffffffffff16600073ffffffffffffffffffffffffffffffffffffffff167fddf252ad1be2c89b69c2b068fc378daa952ba7f163c4a11628f55a4df523b3ef60405160405180910390a45050565b600080823b905060008111915050919050565b6040518061040001604052806020905b6060815260200190600190039081613c5a5790505090565b6000613c85613c80846149de565b6149b9565b905082815260208101848484011115613ca157613ca0614e19565b5b613cac848285614bdb565b509392505050565b600081359050613cc38161553e565b92915050565b600081359050613cd881615555565b92915050565b600081359050613ced8161556c565b92915050565b600081519050613d028161556c565b92915050565b600082601f830112613d1d57613d1c614e14565b5b8135613d2d848260208601613c72565b91505092915050565b600081359050613d4581615583565b92915050565b600060208284031215613d6157613d60614e23565b5b6000613d6f84828501613cb4565b91505092915050565b60008060408385031215613d8f57613d8e614e23565b5b6000613d9d85828601613cb4565b9250506020613dae85828601613cb4565b9150509250929050565b600080600060608486031215613dd157613dd0614e23565b5b6000613ddf86828701613cb4565b9350506020613df086828701613cb4565b9250506040613e0186828701613d36565b9150509250925092565b60008060008060808587031215613e2557613e24614e23565b5b6000613e3387828801613cb4565b9450506020613e4487828801613cb4565b9350506040613e5587828801613d36565b925050606085013567ffffffffffffffff811115613e7657613e75614e1e565b5b613e8287828801613d08565b91505092959194509250565b60008060408385031215613ea557613ea4614e23565b5b6000613eb385828601613cb4565b9250506020613ec485828601613cc9565b9150509250929050565b60008060408385031215613ee557613ee4614e23565b5b6000613ef385828601613cb4565b9250506020613f0485828601613d36565b9150509250929050565b600060208284031215613f2457613f23614e23565b5b6000613f3284828501613cc9565b91505092915050565b600060208284031215613f5157613f50614e23565b5b6000613f5f84828501613cde565b91505092915050565b600060208284031215613f7e57613f7d614e23565b5b6000613f8c84828501613cf3565b91505092915050565b600060208284031215613fab57613faa614e23565b5b6000613fb984828501613d36565b91505092915050565b60008060408385031215613fd957613fd8614e23565b5b6000613fe785828601613d36565b9250506020613ff885828601613d36565b9150509250929050565b61400b81614b67565b82525050565b61401a81614b79565b82525050565b600061402b82614a0f565b6140358185614a25565b9350614045818560208601614bea565b61404e81614e28565b840191505092915050565b600061406482614a1a565b61406e8185614a36565b935061407e818560208601614bea565b61408781614e28565b840191505092915050565b600061409d82614a1a565b6140a78185614a47565b93506140b7818560208601614bea565b80840191505092915050565b60006140d0600b83614a36565b91506140db82614e39565b602082019050919050565b60006140f3602b83614a36565b91506140fe82614e62565b604082019050919050565b6000614116603283614a36565b915061412182614eb1565b604082019050919050565b6000614139602683614a36565b915061414482614f00565b604082019050919050565b600061415c601c83614a36565b915061416782614f4f565b602082019050919050565b600061417f602483614a36565b915061418a82614f78565b604082019050919050565b60006141a2601983614a36565b91506141ad82614fc7565b602082019050919050565b60006141c5601d83614a36565b91506141d082614ff0565b602082019050919050565b60006141e8602c83614a36565b91506141f382615019565b604082019050919050565b600061420b602783614a36565b915061421682615068565b604082019050919050565b600061422e603883614a36565b9150614239826150b7565b604082019050919050565b6000614251602a83614a36565b915061425c82615106565b604082019050919050565b6000614274602983614a36565b915061427f82615155565b604082019050919050565b6000614297600283614a47565b91506142a2826151a4565b600282019050919050565b60006142ba602083614a36565b91506142c5826151cd565b602082019050919050565b60006142dd600e83614a36565b91506142e8826151f6565b602082019050919050565b6000614300602c83614a36565b915061430b8261521f565b604082019050919050565b6000614323600d83614a36565b915061432e8261526e565b602082019050919050565b6000614346602083614a36565b915061435182615297565b602082019050919050565b6000614369602983614a36565b9150614374826152c0565b604082019050919050565b600061438c602183614a36565b91506143978261530f565b604082019050919050565b60006143af601683614a36565b91506143ba8261535e565b602082019050919050565b60006143d2601983614a36565b91506143dd82615387565b602082019050919050565b60006143f5601d83614a47565b9150614400826153b0565b601d82019050919050565b6000614418601583614a47565b9150614423826153d9565b601582019050919050565b600061443b603183614a36565b915061444682615402565b604082019050919050565b600061445e602c83614a36565b915061446982615451565b604082019050919050565b6000614481601a83614a36565b915061448c826154a0565b602082019050919050565b60006144a4605c83614a47565b91506144af826154c9565b605c82019050919050565b6144c381614bd1565b82525050565b60006144d58284614092565b915081905092915050565b60006144ec8285614092565b91506144f88284614092565b91508190509392505050565b600061450f826143e8565b915061451b8284614092565b915081905092915050565b60006145318261440b565b915061453d8285614092565b915061454882614497565b91506145548284614092565b915061455f8261428a565b91508190509392505050565b60006020820190506145806000830184614002565b92915050565b600060808201905061459b6000830187614002565b6145a86020830186614002565b6145b560408301856144ba565b81810360608301526145c78184614020565b905095945050505050565b60006020820190506145e76000830184614011565b92915050565b600060208201905081810360008301526146078184614059565b905092915050565b60006020820190508181036000830152614628816140c3565b9050919050565b60006020820190508181036000830152614648816140e6565b9050919050565b6000602082019050818103600083015261466881614109565b9050919050565b600060208201905081810360008301526146888161412c565b9050919050565b600060208201905081810360008301526146a88161414f565b9050919050565b600060208201905081810360008301526146c881614172565b9050919050565b600060208201905081810360008301526146e881614195565b9050919050565b60006020820190508181036000830152614708816141b8565b9050919050565b60006020820190508181036000830152614728816141db565b9050919050565b60006020820190508181036000830152614748816141fe565b9050919050565b6000602082019050818103600083015261476881614221565b9050919050565b6000602082019050818103600083015261478881614244565b9050919050565b600060208201905081810360008301526147a881614267565b9050919050565b600060208201905081810360008301526147c8816142ad565b9050919050565b600060208201905081810360008301526147e8816142d0565b9050919050565b60006020820190508181036000830152614808816142f3565b9050919050565b6000602082019050818103600083015261482881614316565b9050919050565b6000602082019050818103600083015261484881614339565b9050919050565b600060208201905081810360008301526148688161435c565b9050919050565b600060208201905081810360008301526148888161437f565b9050919050565b600060208201905081810360008301526148a8816143a2565b9050919050565b600060208201905081810360008301526148c8816143c5565b9050919050565b600060208201905081810360008301526148e88161442e565b9050919050565b6000602082019050818103600083015261490881614451565b9050919050565b6000602082019050818103600083015261492881614474565b9050919050565b600060208201905061494460008301846144ba565b92915050565b600060e08201905061495f600083018a6144ba565b61496c60208301896144ba565b61497960408301886144ba565b61498660608301876144ba565b61499360808301866144ba565b6149a060a08301856144ba565b6149ad60c08301846144ba565b98975050505050505050565b60006149c36149d4565b90506149cf8282614c4f565b919050565b6000604051905090565b600067ffffffffffffffff8211156149f9576149f8614de5565b5b614a0282614e28565b9050602081019050919050565b600081519050919050565b600081519050919050565b600082825260208201905092915050565b600082825260208201905092915050565b600081905092915050565b6000614a5d82614bd1565b9150614a6883614bd1565b9250827fffffffffffffffffffffffffffffffffffffffffffffffffffffffffffffffff03821115614a9d57614a9c614cfa565b5b828201905092915050565b6000614ab382614bd1565b9150614abe83614bd1565b925082614ace57614acd614d29565b5b828204905092915050565b6000614ae482614bd1565b9150614aef83614bd1565b9250817fffffffffffffffffffffffffffffffffffffffffffffffffffffffffffffffff0483118215151615614b2857614b27614cfa565b5b828202905092915050565b6000614b3e82614bd1565b9150614b4983614bd1565b925082821015614b5c57614b5b614cfa565b5b828203905092915050565b6000614b7282614bb1565b9050919050565b60008115159050919050565b60007fffffffff0000000000000000000000000000000000000000000000000000000082169050919050565b600073ffffffffffffffffffffffffffffffffffffffff82169050919050565b6000819050919050565b82818337600083830152505050565b60005b83811015614c08578082015181840152602081019050614bed565b83811115614c17576000848401525b50505050565b60006002820490506001821680614c3557607f821691505b60208210811415614c4957614c48614d58565b5b50919050565b614c5882614e28565b810181811067ffffffffffffffff82111715614c7757614c76614de5565b5b80604052505050565b6000614c8b82614bd1565b91507fffffffffffffffffffffffffffffffffffffffffffffffffffffffffffffffff821415614cbe57614cbd614cfa565b5b600182019050919050565b6000614cd482614bd1565b9150614cdf83614bd1565b925082614cef57614cee614d29565b5b828206905092915050565b7f4e487b7100000000000000000000000000000000000000000000000000000000600052601160045260246000fd5b7f4e487b7100000000000000000000000000000000000000000000000000000000600052601260045260246000fd5b7f4e487b7100000000000000000000000000000000000000000000000000000000600052602260045260246000fd5b7f4e487b7100000000000000000000000000000000000000000000000000000000600052603160045260246000fd5b7f4e487b7100000000000000000000000000000000000000000000000000000000600052603260045260246000fd5b7f4e487b7100000000000000000000000000000000000000000000000000000000600052604160045260246000fd5b600080fd5b600080fd5b600080fd5b600080fd5b6000601f19601f8301169050919050565b7f53616c6520706175736564000000000000000000000000000000000000000000600082015250565b7f455243373231456e756d657261626c653a206f776e657220696e646578206f7560008201527f74206f6620626f756e6473000000000000000000000000000000000000000000602082015250565b7f4552433732313a207472616e7366657220746f206e6f6e20455243373231526560008201527f63656976657220696d706c656d656e7465720000000000000000000000000000602082015250565b7f4f776e61626c653a206e6577206f776e657220697320746865207a65726f206160008201527f6464726573730000000000000000000000000000000000000000000000000000602082015250565b7f4552433732313a20746f6b656e20616c7265616479206d696e74656400000000600082015250565b7f4552433732313a207472616e7366657220746f20746865207a65726f2061646460008201527f7265737300000000000000000000000000000000000000000000000000000000602082015250565b7f4552433732313a20617070726f766520746f2063616c6c657200000000000000600082015250565b7f7365636f6e6420746f6b656e2073686f756c642062652066656d616c65000000600082015250565b7f4552433732313a206f70657261746f7220717565727920666f72206e6f6e657860008201527f697374656e7420746f6b656e0000000000000000000000000000000000000000602082015250565b7f596f752063616e2061646f70742061206d6178696d756d206f6620323020487560008201527f6e67657269746500000000000000000000000000000000000000000000000000602082015250565b7f4552433732313a20617070726f76652063616c6c6572206973206e6f74206f7760008201527f6e6572206e6f7220617070726f76656420666f7220616c6c0000000000000000602082015250565b7f4552433732313a2062616c616e636520717565727920666f7220746865207a6560008201527f726f206164647265737300000000000000000000000000000000000000000000602082015250565b7f4552433732313a206f776e657220717565727920666f72206e6f6e657869737460008201527f656e7420746f6b656e0000000000000000000000000000000000000000000000602082015250565b7f227d000000000000000000000000000000000000000000000000000000000000600082015250565b7f4552433732313a206d696e7420746f20746865207a65726f2061646472657373600082015250565b7f6e6f7420617574686f72697a6564000000000000000000000000000000000000600082015250565b7f4552433732313a20617070726f76656420717565727920666f72206e6f6e657860008201527f697374656e7420746f6b656e0000000000000000000000000000000000000000602082015250565b7f6e6f206f6666737072696e677300000000000000000000000000000000000000600082015250565b7f4f776e61626c653a2063616c6c6572206973206e6f7420746865206f776e6572600082015250565b7f4552433732313a207472616e73666572206f6620746f6b656e2074686174206960008201527f73206e6f74206f776e0000000000000000000000000000000000000000000000602082015250565b7f4552433732313a20617070726f76616c20746f2063757272656e74206f776e6560008201527f7200000000000000000000000000000000000000000000000000000000000000602082015250565b7f45786365656473206d6178696d756d20737570706c7900000000000000000000600082015250565b7f45746865722073656e74206973206e6f7420636f727265637400000000000000600082015250565b7f646174613a6170706c69636174696f6e2f6a736f6e3b6261736536342c000000600082015250565b7f7b226e616d65223a202248756e67657269746520230000000000000000000000600082015250565b7f4552433732313a207472616e736665722063616c6c6572206973206e6f74206f60008201527f776e6572206e6f7220617070726f766564000000000000000000000000000000602082015250565b7f455243373231456e756d657261626c653a20676c6f62616c20696e646578206f60008201527f7574206f6620626f756e64730000000000000000000000000000000000000000602082015250565b7f666972737420746f6b656e2073686f756c64206265206d616c65000000000000600082015250565b7f222c20226465736372697074696f6e223a202248756e6765725665727365206960008201527f7320612067616d65206f6620737572766976616c2e222c2022696d616765223a60208201527f2022646174613a696d6167652f7376672b786d6c3b6261736536342c00000000604082015250565b61554781614b67565b811461555257600080fd5b50565b61555e81614b79565b811461556957600080fd5b50565b61557581614b85565b811461558057600080fd5b50565b61558c81614bd1565b811461559757600080fd5b5056fe3c2f746578743e3c7465787420783d2231302220793d2238302220636c6173733d22626173655768697465223e3c7465787420783d2231302220793d2236302220636c6173733d2262617365477265656e223e3c2f746578743e3c7465787420783d2231302220793d223136302220636c6173733d22626173655768697465223e3c2f746578743e3c7465787420783d2231302220793d223132302220636c6173733d22626173655768697465223e2e62617365477265656e207b2066696c6c3a20737072696e67677265656e3b20666f6e742d66616d696c793a2073657269663b20666f6e742d73697a653a20313670783b207d3c2f7374796c653e3c2f746578743e3c7465787420783d2231302220793d223138302220636c6173733d22626173655768697465223e3c726563742077696474683d223130302522206865696768743d2231303025222066696c6c3d22626c61636b22202f3e3c73766720786d6c6e733d22687474703a2f2f7777772e77332e6f72672f323030302f73766722207072657365727665417370656374526174696f3d22784d696e594d696e206d656574222076696577426f783d223020302033353020333530223e3c2f746578743e3c7465787420783d2231302220793d223234302220636c6173733d22626173655768697465223e4142434445464748494a4b4c4d4e4f505152535455565758595a6162636465666768696a6b6c6d6e6f707172737475767778797a303132333435363738392b2f3c7374796c653e2e626173655768697465207b2066696c6c3a2077686974653b20666f6e742d66616d696c793a2073657269663b20666f6e742d73697a653a20313670783b207d3c2f746578743e3c7465787420783d2231302220793d223230302220636c6173733d22626173655768697465223e3c2f746578743e3c7465787420783d2231302220793d223236302220636c6173733d22626173655768697465223ea2646970667358221220696d30d4cb0ce575024bb80426873324f36aa095ef67c1bef15ad7242273559864736f6c63430008070033",
  "immutableReferences": {},
  "source": "// SPDX-License-Identifier: MIT\n\npragma solidity ^0.8.0;\n\nimport \"./FullERC721.sol\";\n\ncontract HungerVerse is ERC721Enumerable, Ownable {\n\n\tstruct PlayerInfo {\n        uint256 gender;      //0 - Female\n        uint256 district;    //1 to 12\n\n        //only for females\n        uint256 offsprings;  // 0 to 8\n\n        uint256 HS;         //hunting skills\n        uint256 IQ;\n        uint256 likes;\n\n        uint256 wins;\n        uint256 burns;\n\t}\n    string[] private skills = [ \"Below Average\", \"Average\", \"Above Average\", \"Gifted\" ];\n\t\n    uint256 public _price = 0.05 ether;\n    bool public _paused = false;\n\n    address public _otherContract;\n\n    mapping (uint256 => PlayerInfo) private _tokenId2Player;\n\n    constructor() ERC721(\"HungerVerse\", \"HUNGER\") Ownable() {\n\t}\n    function generatePlayer(uint256 tokenId) private {\n        PlayerInfo storage player = _tokenId2Player[tokenId];   //by reference\n\n        player.gender = pluck(tokenId, \"GENDER\") % 2;\n        player.district = 1 + (player.wins + player.burns + pluck(tokenId, \"DISTRICT\")) % 12;\n        if(player.gender == 0) {\n            player.offsprings = (player.wins + player.burns + pluck(tokenId, \"OFFSPRINGS\")) % 9;\n        }\n        player.HS = (player.wins + player.burns + pluck(tokenId, \"HUNTING\")) % 4;\n        player.IQ = (player.wins + player.burns + pluck(tokenId, \"IQSCORE\")) % 4;\n    }\n    function getPlayerInfo(uint256 tokenId) external view returns (uint256,uint256,uint256,uint256,uint256,uint256,uint256) {\n        PlayerInfo memory player = _tokenId2Player[tokenId];   //by reference\n        return (player.gender, \n                        player.district, \n                        player.HS, \n                        player.IQ, \n                        player.likes, \n                        player.wins, \n                        player.burns);\n    }\n    function random(string memory input) private pure returns (uint256) {\n        return uint256(keccak256(abi.encodePacked(input)));\n    }\n    function pluck(uint256 tokenId, string memory keyPrefix) private pure returns (uint256) {\n        return random(string(abi.encodePacked(keyPrefix, Strings.toString(tokenId))));\n    }\n    function tokenURI(uint256 tokenId) override public view returns (string memory) {\n\n        PlayerInfo memory player = _tokenId2Player[tokenId];\n\n        string[32] memory parts;\n\t\tuint256 counter = 0;\n        parts[counter++] = '<svg xmlns=\"http://www.w3.org/2000/svg\" preserveAspectRatio=\"xMinYMin meet\" viewBox=\"0 0 350 350\">';\n\t\tparts[counter++] = '<style>.baseWhite { fill: white; font-family: serif; font-size: 16px; }';\n\t\tparts[counter++] = '.baseGreen { fill: springgreen; font-family: serif; font-size: 16px; }</style>';\n\t\tparts[counter++] = '<rect width=\"100%\" height=\"100%\" fill=\"black\" />';\n        parts[counter++] = '<text x=\"10\" y=\"60\" class=\"baseGreen\">';\n        parts[counter++] = (player.gender == 0 ? \"Female\" : \"Male\");\n        parts[counter++] = '</text><text x=\"10\" y=\"80\" class=\"baseWhite\">';\n        parts[counter++] = \"District:\\t\";\n        parts[counter++] = Strings.toString(player.district);\n\n        if(player.gender == 0) {\n            parts[counter++] = '</text><text x=\"10\" y=\"120\" class=\"baseWhite\">';\n            parts[counter++] = \"Offsprings:\\t\";\n            parts[counter++] = Strings.toString(player.offsprings);\n        }\n        parts[counter++] = '</text><text x=\"10\" y=\"160\" class=\"baseWhite\">';\n        parts[counter++] = \"HuntingSkills:\\t\";\n        parts[counter++] = skills[player.HS];\n        parts[counter++] = '</text><text x=\"10\" y=\"180\" class=\"baseWhite\">';\n        parts[counter++] = \"IQ:\\t\";\n        parts[counter++] = skills[player.IQ];\n        parts[counter++] = '</text><text x=\"10\" y=\"200\" class=\"baseWhite\">';\n        parts[counter++] = \"Likes:\\t\";\n        parts[counter++] = Strings.toString(player.likes);\n        parts[counter++] = '</text><text x=\"10\" y=\"240\" class=\"baseWhite\">';\n        parts[counter++] = \"Wins:\\t\";\n        parts[counter++] = Strings.toString(player.wins);\n        parts[counter++] = '</text><text x=\"10\" y=\"260\" class=\"baseWhite\">';\n        parts[counter++] = \"Burns:\\t\";\n        parts[counter++] = Strings.toString(player.burns);\n\n        parts[counter++] = '</text></svg>';\n\n        string memory output = \"\";\n\t\tfor(uint256 i = 0; i < counter; ++i)\n\t\t{\n\t\t\toutput = string(abi.encodePacked(output, parts[i]));\n\t\t}\n\n        string memory json = Base64.encode(bytes(string(abi.encodePacked('{\"name\": \"Hungerite #', Strings.toString(tokenId), '\", \"description\": \"HungerVerse is a game of survival.\", \"image\": \"data:image/svg+xml;base64,', Base64.encode(bytes(output)), '\"}'))));\n        output = string(abi.encodePacked('data:application/json;base64,', json));\n\n        return output;\n    }\n    function own(uint256 num) external payable {\n        require(!_paused, \"Sale paused\");\n        require(num > 0 && num < 21, \"You can adopt a maximum of 20 Hungerite\");\n        require(totalSupply() + num <= 24000, \"Exceeds maximum supply\");\n        require(msg.value >= _price * num, \"Ether sent is not correct\");\n\n        uint256 count = 0;\n        for(uint256 i = 1; i <= 24000; i++) {\n            if(_exists(i)) continue;\n            generatePlayer(i);\n            _safeMint(msg.sender, i);\n            if(++count == num) break;\n        }\n    }\n    function mate(uint256 tokenIdM, uint256 tokenIdF) external payable {\n        require(!_paused, \"Sale paused\");\n        require(_isApprovedOrOwner(msg.sender, tokenIdM) && _isApprovedOrOwner(msg.sender, tokenIdF), \"not authorized\");\n        require(_tokenId2Player[tokenIdM].gender == 1, \"first token should be male\");\n        PlayerInfo storage female = _tokenId2Player[tokenIdF];\n        require(female.gender == 0, \"second token should be female\");\n        require(female.offsprings > 0, \"no offsprings\");\n        require(totalSupply() + female.offsprings <= 24000, \"Exceeds maximum supply\");\n        require(msg.value >= (_price/2) * female.offsprings, \"Ether sent is not correct\");\n\n        uint256 count = 0;\n        for(uint256 i = 1; i <= 24000; i++) {\n            if(_exists(i)) continue;\n            generatePlayer(i);\n            _safeMint(msg.sender, i);\n            if(++count == female.offsprings) break;\n        }\n        female.offsprings = 0;\n    }\n\tfunction like(uint256 tokenId) external {\n\t\t_tokenId2Player[tokenId].likes++;\n\t}\n\tfunction win(uint256 tokenId) external {\n        require(msg.sender == _otherContract, \"not authorized\");\n\t\t_tokenId2Player[tokenId].wins++;\n\t}\n    function isApprovedOrOwner(address spender, uint256 tokenId) external view virtual returns (bool) {\n        return super._isApprovedOrOwner(spender, tokenId);\n    }\n    function isApprovedForAll(address owner, address operator) public view virtual override returns (bool) {\n        return (operator == _otherContract || super.isApprovedForAll(owner, operator));\n    }\n    function burn(uint256 tokenId) external {\n        _tokenId2Player[tokenId].burns++;\n        _burn(tokenId);\n    }\n    function setPrice(uint256 _newPrice) external onlyOwner {\n        _price = _newPrice;\n    }\n    function setPause(bool val) external onlyOwner {\n        _paused = val;\n    }\n    function setOtherContract(address val) external onlyOwner {\n        _otherContract = val;\n    }\n    function withdraw() external payable onlyOwner {\n        payable(msg.sender).transfer(address(this).balance);\n    }\n}\n",
  "sourcePath": "/home/ec2-user/github/nftlaunchpad-dapp/src/contracts/HungerVerse.sol",
  "compiler": {
    "name": "solc",
    "version": "0.8.7+commit.e28d00a7.Emscripten.clang"
  },
  "schemaVersion": "3.4.3",
  "updatedAt": "2022-01-21T01:17:23.203Z",
  "devdoc": {
    "kind": "dev",
    "methods": {
      "approve(address,uint256)": {
        "details": "See {IERC721-approve}."
      },
      "balanceOf(address)": {
        "details": "See {IERC721-balanceOf}."
      },
      "getApproved(uint256)": {
        "details": "See {IERC721-getApproved}."
      },
      "isApprovedForAll(address,address)": {
        "details": "See {IERC721-isApprovedForAll}."
      },
      "name()": {
        "details": "See {IERC721Metadata-name}."
      },
      "owner()": {
        "details": "Returns the address of the current owner."
      },
      "ownerOf(uint256)": {
        "details": "See {IERC721-ownerOf}."
      },
      "renounceOwnership()": {
        "details": "Leaves the contract without owner. It will not be possible to call `onlyOwner` functions anymore. Can only be called by the current owner. NOTE: Renouncing ownership will leave the contract without an owner, thereby removing any functionality that is only available to the owner."
      },
      "safeTransferFrom(address,address,uint256)": {
        "details": "See {IERC721-safeTransferFrom}."
      },
      "safeTransferFrom(address,address,uint256,bytes)": {
        "details": "See {IERC721-safeTransferFrom}."
      },
      "setApprovalForAll(address,bool)": {
        "details": "See {IERC721-setApprovalForAll}."
      },
      "supportsInterface(bytes4)": {
        "details": "See {IERC165-supportsInterface}."
      },
      "symbol()": {
        "details": "See {IERC721Metadata-symbol}."
      },
      "tokenByIndex(uint256)": {
        "details": "See {IERC721Enumerable-tokenByIndex}."
      },
      "tokenOfOwnerByIndex(address,uint256)": {
        "details": "See {IERC721Enumerable-tokenOfOwnerByIndex}."
      },
      "tokenURI(uint256)": {
        "details": "See {IERC721Metadata-tokenURI}."
      },
      "totalSupply()": {
        "details": "See {IERC721Enumerable-totalSupply}."
      },
      "transferFrom(address,address,uint256)": {
        "details": "See {IERC721-transferFrom}."
      },
      "transferOwnership(address)": {
        "details": "Transfers ownership of the contract to a new account (`newOwner`). Can only be called by the current owner."
      }
    },
    "version": 1
  },
  "userdoc": {
    "kind": "user",
    "methods": {},
    "version": 1
  }
}