{
  "contractName": "HungerVerse",
  "abi": [
    {
      "inputs": [],
      "stateMutability": "nonpayable",
      "type": "constructor"
    },
    {
      "anonymous": false,
      "inputs": [
        {
          "indexed": true,
          "internalType": "address",
          "name": "owner",
          "type": "address"
        },
        {
          "indexed": true,
          "internalType": "address",
          "name": "approved",
          "type": "address"
        },
        {
          "indexed": true,
          "internalType": "uint256",
          "name": "tokenId",
          "type": "uint256"
        }
      ],
      "name": "Approval",
      "type": "event"
    },
    {
      "anonymous": false,
      "inputs": [
        {
          "indexed": true,
          "internalType": "address",
          "name": "owner",
          "type": "address"
        },
        {
          "indexed": true,
          "internalType": "address",
          "name": "operator",
          "type": "address"
        },
        {
          "indexed": false,
          "internalType": "bool",
          "name": "approved",
          "type": "bool"
        }
      ],
      "name": "ApprovalForAll",
      "type": "event"
    },
    {
      "anonymous": false,
      "inputs": [
        {
          "indexed": true,
          "internalType": "address",
          "name": "previousOwner",
          "type": "address"
        },
        {
          "indexed": true,
          "internalType": "address",
          "name": "newOwner",
          "type": "address"
        }
      ],
      "name": "OwnershipTransferred",
      "type": "event"
    },
    {
      "anonymous": false,
      "inputs": [
        {
          "indexed": true,
          "internalType": "address",
          "name": "from",
          "type": "address"
        },
        {
          "indexed": true,
          "internalType": "address",
          "name": "to",
          "type": "address"
        },
        {
          "indexed": true,
          "internalType": "uint256",
          "name": "tokenId",
          "type": "uint256"
        }
      ],
      "name": "Transfer",
      "type": "event"
    },
    {
      "inputs": [],
      "name": "_matingPaused",
      "outputs": [
        {
          "internalType": "bool",
          "name": "",
          "type": "bool"
        }
      ],
      "stateMutability": "view",
      "type": "function"
    },
    {
      "inputs": [],
      "name": "_paused",
      "outputs": [
        {
          "internalType": "bool",
          "name": "",
          "type": "bool"
        }
      ],
      "stateMutability": "view",
      "type": "function"
    },
    {
      "inputs": [],
      "name": "_reclaimPaused",
      "outputs": [
        {
          "internalType": "bool",
          "name": "",
          "type": "bool"
        }
      ],
      "stateMutability": "view",
      "type": "function"
    },
    {
      "inputs": [
        {
          "internalType": "address",
          "name": "to",
          "type": "address"
        },
        {
          "internalType": "uint256",
          "name": "tokenId",
          "type": "uint256"
        }
      ],
      "name": "approve",
      "outputs": [],
      "stateMutability": "nonpayable",
      "type": "function"
    },
    {
      "inputs": [
        {
          "internalType": "address",
          "name": "owner",
          "type": "address"
        }
      ],
      "name": "balanceOf",
      "outputs": [
        {
          "internalType": "uint256",
          "name": "",
          "type": "uint256"
        }
      ],
      "stateMutability": "view",
      "type": "function"
    },
    {
      "inputs": [
        {
          "internalType": "uint256",
          "name": "tokenId",
          "type": "uint256"
        }
      ],
      "name": "getApproved",
      "outputs": [
        {
          "internalType": "address",
          "name": "",
          "type": "address"
        }
      ],
      "stateMutability": "view",
      "type": "function"
    },
    {
      "inputs": [
        {
          "internalType": "address",
          "name": "owner",
          "type": "address"
        },
        {
          "internalType": "address",
          "name": "operator",
          "type": "address"
        }
      ],
      "name": "isApprovedForAll",
      "outputs": [
        {
          "internalType": "bool",
          "name": "",
          "type": "bool"
        }
      ],
      "stateMutability": "view",
      "type": "function"
    },
    {
      "inputs": [],
      "name": "name",
      "outputs": [
        {
          "internalType": "string",
          "name": "",
          "type": "string"
        }
      ],
      "stateMutability": "view",
      "type": "function"
    },
    {
      "inputs": [],
      "name": "owner",
      "outputs": [
        {
          "internalType": "address",
          "name": "",
          "type": "address"
        }
      ],
      "stateMutability": "view",
      "type": "function"
    },
    {
      "inputs": [
        {
          "internalType": "uint256",
          "name": "tokenId",
          "type": "uint256"
        }
      ],
      "name": "ownerOf",
      "outputs": [
        {
          "internalType": "address",
          "name": "",
          "type": "address"
        }
      ],
      "stateMutability": "view",
      "type": "function"
    },
    {
      "inputs": [],
      "name": "renounceOwnership",
      "outputs": [],
      "stateMutability": "nonpayable",
      "type": "function"
    },
    {
      "inputs": [
        {
          "internalType": "address",
          "name": "from",
          "type": "address"
        },
        {
          "internalType": "address",
          "name": "to",
          "type": "address"
        },
        {
          "internalType": "uint256",
          "name": "tokenId",
          "type": "uint256"
        }
      ],
      "name": "safeTransferFrom",
      "outputs": [],
      "stateMutability": "nonpayable",
      "type": "function"
    },
    {
      "inputs": [
        {
          "internalType": "address",
          "name": "from",
          "type": "address"
        },
        {
          "internalType": "address",
          "name": "to",
          "type": "address"
        },
        {
          "internalType": "uint256",
          "name": "tokenId",
          "type": "uint256"
        },
        {
          "internalType": "bytes",
          "name": "_data",
          "type": "bytes"
        }
      ],
      "name": "safeTransferFrom",
      "outputs": [],
      "stateMutability": "nonpayable",
      "type": "function"
    },
    {
      "inputs": [
        {
          "internalType": "address",
          "name": "operator",
          "type": "address"
        },
        {
          "internalType": "bool",
          "name": "approved",
          "type": "bool"
        }
      ],
      "name": "setApprovalForAll",
      "outputs": [],
      "stateMutability": "nonpayable",
      "type": "function"
    },
    {
      "inputs": [
        {
          "internalType": "bytes4",
          "name": "interfaceId",
          "type": "bytes4"
        }
      ],
      "name": "supportsInterface",
      "outputs": [
        {
          "internalType": "bool",
          "name": "",
          "type": "bool"
        }
      ],
      "stateMutability": "view",
      "type": "function"
    },
    {
      "inputs": [],
      "name": "symbol",
      "outputs": [
        {
          "internalType": "string",
          "name": "",
          "type": "string"
        }
      ],
      "stateMutability": "view",
      "type": "function"
    },
    {
      "inputs": [
        {
          "internalType": "uint256",
          "name": "index",
          "type": "uint256"
        }
      ],
      "name": "tokenByIndex",
      "outputs": [
        {
          "internalType": "uint256",
          "name": "",
          "type": "uint256"
        }
      ],
      "stateMutability": "view",
      "type": "function"
    },
    {
      "inputs": [
        {
          "internalType": "address",
          "name": "owner",
          "type": "address"
        },
        {
          "internalType": "uint256",
          "name": "index",
          "type": "uint256"
        }
      ],
      "name": "tokenOfOwnerByIndex",
      "outputs": [
        {
          "internalType": "uint256",
          "name": "",
          "type": "uint256"
        }
      ],
      "stateMutability": "view",
      "type": "function"
    },
    {
      "inputs": [],
      "name": "totalSupply",
      "outputs": [
        {
          "internalType": "uint256",
          "name": "",
          "type": "uint256"
        }
      ],
      "stateMutability": "view",
      "type": "function"
    },
    {
      "inputs": [
        {
          "internalType": "address",
          "name": "from",
          "type": "address"
        },
        {
          "internalType": "address",
          "name": "to",
          "type": "address"
        },
        {
          "internalType": "uint256",
          "name": "tokenId",
          "type": "uint256"
        }
      ],
      "name": "transferFrom",
      "outputs": [],
      "stateMutability": "nonpayable",
      "type": "function"
    },
    {
      "inputs": [
        {
          "internalType": "address",
          "name": "newOwner",
          "type": "address"
        }
      ],
      "name": "transferOwnership",
      "outputs": [],
      "stateMutability": "nonpayable",
      "type": "function"
    },
    {
      "inputs": [
        {
          "internalType": "uint256",
          "name": "tokenId",
          "type": "uint256"
        }
      ],
      "name": "tokenURI",
      "outputs": [
        {
          "internalType": "string",
          "name": "",
          "type": "string"
        }
      ],
      "stateMutability": "view",
      "type": "function"
    },
    {
      "inputs": [
        {
          "internalType": "uint256",
          "name": "num",
          "type": "uint256"
        }
      ],
      "name": "ownHungerites",
      "outputs": [],
      "stateMutability": "payable",
      "type": "function"
    },
    {
      "inputs": [
        {
          "internalType": "uint256",
          "name": "num",
          "type": "uint256"
        }
      ],
      "name": "reclaimHungerites",
      "outputs": [],
      "stateMutability": "payable",
      "type": "function"
    },
    {
      "inputs": [
        {
          "internalType": "uint256",
          "name": "tokenIdM",
          "type": "uint256"
        },
        {
          "internalType": "uint256",
          "name": "tokenIdF",
          "type": "uint256"
        }
      ],
      "name": "mate",
      "outputs": [],
      "stateMutability": "nonpayable",
      "type": "function"
    },
    {
      "inputs": [
        {
          "internalType": "uint256",
          "name": "tokenId",
          "type": "uint256"
        }
      ],
      "name": "burn",
      "outputs": [],
      "stateMutability": "nonpayable",
      "type": "function"
    },
    {
      "inputs": [
        {
          "internalType": "uint256",
          "name": "tokenId",
          "type": "uint256"
        },
        {
          "internalType": "string",
          "name": "val",
          "type": "string"
        }
      ],
      "name": "setName",
      "outputs": [],
      "stateMutability": "nonpayable",
      "type": "function"
    },
    {
      "inputs": [
        {
          "internalType": "uint256",
          "name": "_newPrice",
          "type": "uint256"
        }
      ],
      "name": "setPrice",
      "outputs": [],
      "stateMutability": "nonpayable",
      "type": "function"
    },
    {
      "inputs": [],
      "name": "getPrice",
      "outputs": [
        {
          "internalType": "uint256",
          "name": "",
          "type": "uint256"
        }
      ],
      "stateMutability": "view",
      "type": "function"
    },
    {
      "inputs": [
        {
          "internalType": "bool",
          "name": "val",
          "type": "bool"
        }
      ],
      "name": "setPause",
      "outputs": [],
      "stateMutability": "nonpayable",
      "type": "function"
    },
    {
      "inputs": [
        {
          "internalType": "bool",
          "name": "val",
          "type": "bool"
        }
      ],
      "name": "setMatingPause",
      "outputs": [],
      "stateMutability": "nonpayable",
      "type": "function"
    },
    {
      "inputs": [
        {
          "internalType": "bool",
          "name": "val",
          "type": "bool"
        }
      ],
      "name": "setReclaimPause",
      "outputs": [],
      "stateMutability": "nonpayable",
      "type": "function"
    },
    {
      "inputs": [],
      "name": "withdraw",
      "outputs": [],
      "stateMutability": "payable",
      "type": "function"
    }
  ],
  "bytecode": "0x608060405260405180604001604052806040518060400160405280600681526020017f46656d616c65000000000000000000000000000000000000000000000000000081525081526020016040518060400160405280600481526020017f4d616c6500000000000000000000000000000000000000000000000000000000815250815250600c90600262000095929190620003a4565b5060405180608001604052806040518060400160405280600d81526020017f42656c6f7720417665726167650000000000000000000000000000000000000081525081526020016040518060400160405280600781526020017f417665726167650000000000000000000000000000000000000000000000000081525081526020016040518060400160405280600d81526020017f41626f766520417665726167650000000000000000000000000000000000000081525081526020016040518060400160405280600681526020017f4769667465640000000000000000000000000000000000000000000000000000815250815250600d9060046200019d9291906200040b565b5066b1a2bc2ec50000600e556001600f60006101000a81548160ff0219169083151502179055506001600f60016101000a81548160ff0219169083151502179055506001600f60026101000a81548160ff0219169083151502179055503480156200020757600080fd5b506040518060400160405280600b81526020017f48756e67657256657273650000000000000000000000000000000000000000008152506040518060400160405280600681526020017f48554e474552000000000000000000000000000000000000000000000000000081525081600090805190602001906200028c92919062000472565b508060019080519060200190620002a592919062000472565b5050506001600a81905550620002d0620002c4620002d660201b60201c565b620002de60201b60201c565b620005f5565b600033905090565b6000600b60009054906101000a900473ffffffffffffffffffffffffffffffffffffffff16905081600b60006101000a81548173ffffffffffffffffffffffffffffffffffffffff021916908373ffffffffffffffffffffffffffffffffffffffff1602179055508173ffffffffffffffffffffffffffffffffffffffff168173ffffffffffffffffffffffffffffffffffffffff167f8be0079c531659141344cd1fd0a4f28419497f9722a3daafe3b4186f6b6457e060405160405180910390a35050565b828054828255906000526020600020908101928215620003f8579160200282015b82811115620003f7578251829080519060200190620003e692919062000472565b5091602001919060010190620003c5565b5b50905062000407919062000503565b5090565b8280548282559060005260206000209081019282156200045f579160200282015b828111156200045e5782518290805190602001906200044d92919062000472565b50916020019190600101906200042c565b5b5090506200046e919062000503565b5090565b828054620004809062000590565b90600052602060002090601f016020900481019282620004a45760008555620004f0565b82601f10620004bf57805160ff1916838001178555620004f0565b82800160010185558215620004f0579182015b82811115620004ef578251825591602001919060010190620004d2565b5b509050620004ff91906200052b565b5090565b5b808211156200052757600081816200051d91906200054a565b5060010162000504565b5090565b5b80821115620005465760008160009055506001016200052c565b5090565b508054620005589062000590565b6000825580601f106200056c57506200058d565b601f0160209004906000526020600020908101906200058c91906200052b565b5b50565b60006002820490506001821680620005a957607f821691505b60208210811415620005c057620005bf620005c6565b5b50919050565b7f4e487b7100000000000000000000000000000000000000000000000000000000600052602260045260246000fd5b615b1580620006056000396000f3fe6080604052600436106101ee5760003560e01c8063715018a61161010d578063b88d4fde116100a0578063db4ec21a1161006f578063db4ec21a146106be578063e86a4593146106e9578063e985e9c514610712578063f2fde38b1461074f578063fe55932a14610778576101ee565b8063b88d4fde14610606578063bedb86fb1461062f578063c87b56dd14610658578063d8eb356a14610695576101ee565b806395d89b41116100dc57806395d89b411461055e57806398d5fdca146105895780639c3f5237146105b4578063a22cb465146105dd576101ee565b8063715018a6146104c857806384eb1f11146104df5780638da5cb5b1461050a57806391b7f5ed14610535576101ee565b80632c2479451161018557806342966c681161015457806342966c68146103e85780634f6ccce7146104115780636352211e1461044e57806370a082311461048b576101ee565b80632c2479451461035c5780632f745c59146103785780633ccfd60b146103b557806342842e0e146103bf576101ee565b80630a1952c3116101c15780630a1952c3146102c157806316c61ccc146102dd57806318160ddd1461030857806323b872dd14610333576101ee565b806301ffc9a7146101f357806306fdde0314610230578063081812fc1461025b578063095ea7b314610298575b600080fd5b3480156101ff57600080fd5b5061021a6004803603810190610215919061411d565b6107a1565b60405161022791906148ab565b60405180910390f35b34801561023c57600080fd5b5061024561081b565b60405161025291906148c6565b60405180910390f35b34801561026757600080fd5b50610282600480360381019061027d9190614177565b6108ad565b60405161028f9190614844565b60405180910390f35b3480156102a457600080fd5b506102bf60048036038101906102ba91906140b0565b610932565b005b6102db60048036038101906102d69190614177565b610a4a565b005b3480156102e957600080fd5b506102f2610c36565b6040516102ff91906148ab565b60405180910390f35b34801561031457600080fd5b5061031d610c49565b60405161032a9190614c68565b60405180910390f35b34801561033f57600080fd5b5061035a60048036038101906103559190613f9a565b610c56565b005b61037660048036038101906103719190614177565b610cb6565b005b34801561038457600080fd5b5061039f600480360381019061039a91906140b0565b610ece565b6040516103ac9190614c68565b60405180910390f35b6103bd610f73565b005b3480156103cb57600080fd5b506103e660048036038101906103e19190613f9a565b611049565b005b3480156103f457600080fd5b5061040f600480360381019061040a9190614177565b611069565b005b34801561041d57600080fd5b5061043860048036038101906104339190614177565b6110fa565b6040516104459190614c68565b60405180910390f35b34801561045a57600080fd5b5061047560048036038101906104709190614177565b61116b565b6040516104829190614844565b60405180910390f35b34801561049757600080fd5b506104b260048036038101906104ad9190613f2d565b61121d565b6040516104bf9190614c68565b60405180910390f35b3480156104d457600080fd5b506104dd6112d5565b005b3480156104eb57600080fd5b506104f461135d565b60405161050191906148ab565b60405180910390f35b34801561051657600080fd5b5061051f611370565b60405161052c9190614844565b60405180910390f35b34801561054157600080fd5b5061055c60048036038101906105579190614177565b61139a565b005b34801561056a57600080fd5b50610573611420565b60405161058091906148c6565b60405180910390f35b34801561059557600080fd5b5061059e6114b2565b6040516105ab9190614c68565b60405180910390f35b3480156105c057600080fd5b506105db60048036038101906105d69190614200565b6114bc565b005b3480156105e957600080fd5b5061060460048036038101906105ff9190614070565b61184f565b005b34801561061257600080fd5b5061062d60048036038101906106289190613fed565b6119d0565b005b34801561063b57600080fd5b50610656600480360381019061065191906140f0565b611a32565b005b34801561066457600080fd5b5061067f600480360381019061067a9190614177565b611acb565b60405161068c91906148c6565b60405180910390f35b3480156106a157600080fd5b506106bc60048036038101906106b791906140f0565b6124ef565b005b3480156106ca57600080fd5b506106d3612588565b6040516106e091906148ab565b60405180910390f35b3480156106f557600080fd5b50610710600480360381019061070b91906140f0565b61259b565b005b34801561071e57600080fd5b5061073960048036038101906107349190613f5a565b612634565b60405161074691906148ab565b60405180910390f35b34801561075b57600080fd5b5061077660048036038101906107719190613f2d565b6126c8565b005b34801561078457600080fd5b5061079f600480360381019061079a91906141a4565b6127c0565b005b60007f780e9d63000000000000000000000000000000000000000000000000000000007bffffffffffffffffffffffffffffffffffffffffffffffffffffffff1916827bffffffffffffffffffffffffffffffffffffffffffffffffffffffff19161480610814575061081382612836565b5b9050919050565b60606000805461082a90614f22565b80601f016020809104026020016040519081016040528092919081815260200182805461085690614f22565b80156108a35780601f10610878576101008083540402835291602001916108a3565b820191906000526020600020905b81548152906001019060200180831161088657829003601f168201915b5050505050905090565b60006108b882612918565b6108f7576040517f08c379a00000000000000000000000000000000000000000000000000000000081526004016108ee90614ac8565b60405180910390fd5b6004600083815260200190815260200160002060009054906101000a900473ffffffffffffffffffffffffffffffffffffffff169050919050565b600061093d8261116b565b90508073ffffffffffffffffffffffffffffffffffffffff168373ffffffffffffffffffffffffffffffffffffffff1614156109ae576040517f08c379a00000000000000000000000000000000000000000000000000000000081526004016109a590614b48565b60405180910390fd5b8073ffffffffffffffffffffffffffffffffffffffff166109cd612984565b73ffffffffffffffffffffffffffffffffffffffff1614806109fc57506109fb816109f6612984565b612634565b5b610a3b576040517f08c379a0000000000000000000000000000000000000000000000000000000008152600401610a3290614a28565b60405180910390fd5b610a45838361298c565b505050565b6002600a541415610a90576040517f08c379a0000000000000000000000000000000000000000000000000000000008152600401610a8790614c28565b60405180910390fd5b6002600a819055506000610aa2610c49565b9050600f60009054906101000a900460ff1615610af4576040517f08c379a0000000000000000000000000000000000000000000000000000000008152600401610aeb906148e8565b60405180910390fd5b600082118015610b045750601582105b610b43576040517f08c379a0000000000000000000000000000000000000000000000000000000008152600401610b3a90614a08565b60405180910390fd5b615dc08282610b529190614d4d565b10610b92576040517f08c379a0000000000000000000000000000000000000000000000000000000008152600401610b8990614b68565b60405180910390fd5b81600e54610ba09190614dd4565b341015610be2576040517f08c379a0000000000000000000000000000000000000000000000000000000008152600401610bd990614b88565b60405180910390fd5b60005b82811015610c2957610c018183610bfc9190614d4d565b612a45565b610c16338284610c119190614d4d565b612c5f565b8080610c2190614f85565b915050610be5565b50506001600a8190555050565b600f60009054906101000a900460ff1681565b6000600880549050905090565b610c67610c61612984565b82612c7d565b610ca6576040517f08c379a0000000000000000000000000000000000000000000000000000000008152600401610c9d90614ba8565b60405180910390fd5b610cb1838383612d5b565b505050565b6002600a541415610cfc576040517f08c379a0000000000000000000000000000000000000000000000000000000008152600401610cf390614c28565b60405180910390fd5b6002600a819055506000610d0e610c49565b9050600f60029054906101000a900460ff1615610d60576040517f08c379a0000000000000000000000000000000000000000000000000000000008152600401610d5790614c48565b60405180910390fd5b600082118015610d705750601582105b610daf576040517f08c379a0000000000000000000000000000000000000000000000000000000008152600401610da690614a08565b60405180910390fd5b615dc08282610dbe9190614d4d565b10610dfe576040517f08c379a0000000000000000000000000000000000000000000000000000000008152600401610df590614b68565b60405180910390fd5b81600e54610e0c9190614dd4565b341015610e4e576040517f08c379a0000000000000000000000000000000000000000000000000000000008152600401610e4590614b88565b60405180910390fd5b6000805b615dc0811015610ec057600160106000838152602001908152602001600020600101541415610e8057610ead565b610e8981612a45565b610e933382612c5f565b8382610e9e90614f85565b9250821415610eac57610ec0565b5b8080610eb890614f85565b915050610e52565b5050506001600a8190555050565b6000610ed98361121d565b8210610f1a576040517f08c379a0000000000000000000000000000000000000000000000000000000008152600401610f1190614908565b60405180910390fd5b600660008473ffffffffffffffffffffffffffffffffffffffff1673ffffffffffffffffffffffffffffffffffffffff168152602001908152602001600020600083815260200190815260200160002054905092915050565b610f7b612984565b73ffffffffffffffffffffffffffffffffffffffff16610f99611370565b73ffffffffffffffffffffffffffffffffffffffff1614610fef576040517f08c379a0000000000000000000000000000000000000000000000000000000008152600401610fe690614b08565b60405180910390fd5b6000734af0bb035ffb1cbefa550530917e151a53034d7090508073ffffffffffffffffffffffffffffffffffffffff166108fc479081150290604051600060405180830381858888f1935050505061104657600080fd5b50565b611064838383604051806020016040528060008152506119d0565b505050565b6110733382612c7d565b6110b2576040517f08c379a00000000000000000000000000000000000000000000000000000000081526004016110a990614aa8565b60405180910390fd5b6000601060008381526020019081526020016000209050600081600101819055508060090160008154809291906110e890614f85565b91905055506110f682612fb7565b5050565b6000611104610c49565b8210611145576040517f08c379a000000000000000000000000000000000000000000000000000000000815260040161113c90614bc8565b60405180910390fd5b60088281548110611159576111586150c5565b5b90600052602060002001549050919050565b6000806002600084815260200190815260200160002060009054906101000a900473ffffffffffffffffffffffffffffffffffffffff169050600073ffffffffffffffffffffffffffffffffffffffff168173ffffffffffffffffffffffffffffffffffffffff161415611214576040517f08c379a000000000000000000000000000000000000000000000000000000000815260040161120b90614a68565b60405180910390fd5b80915050919050565b60008073ffffffffffffffffffffffffffffffffffffffff168273ffffffffffffffffffffffffffffffffffffffff16141561128e576040517f08c379a000000000000000000000000000000000000000000000000000000000815260040161128590614a48565b60405180910390fd5b600360008373ffffffffffffffffffffffffffffffffffffffff1673ffffffffffffffffffffffffffffffffffffffff168152602001908152602001600020549050919050565b6112dd612984565b73ffffffffffffffffffffffffffffffffffffffff166112fb611370565b73ffffffffffffffffffffffffffffffffffffffff1614611351576040517f08c379a000000000000000000000000000000000000000000000000000000000815260040161134890614b08565b60405180910390fd5b61135b60006130c8565b565b600f60019054906101000a900460ff1681565b6000600b60009054906101000a900473ffffffffffffffffffffffffffffffffffffffff16905090565b6113a2612984565b73ffffffffffffffffffffffffffffffffffffffff166113c0611370565b73ffffffffffffffffffffffffffffffffffffffff1614611416576040517f08c379a000000000000000000000000000000000000000000000000000000000815260040161140d90614b08565b60405180910390fd5b80600e8190555050565b60606001805461142f90614f22565b80601f016020809104026020016040519081016040528092919081815260200182805461145b90614f22565b80156114a85780601f1061147d576101008083540402835291602001916114a8565b820191906000526020600020905b81548152906001019060200180831161148b57829003601f168201915b5050505050905090565b6000600e54905090565b6002600a541415611502576040517f08c379a00000000000000000000000000000000000000000000000000000000081526004016114f990614c28565b60405180910390fd5b6002600a819055506000611514610c49565b9050600f60019054906101000a900460ff1615611566576040517f08c379a000000000000000000000000000000000000000000000000000000000815260040161155d90614be8565b60405180910390fd5b6115703384612c7d565b6115af576040517f08c379a00000000000000000000000000000000000000000000000000000000081526004016115a690614aa8565b60405180910390fd5b6115b93383612c7d565b6115f8576040517f08c379a00000000000000000000000000000000000000000000000000000000081526004016115ef90614aa8565b60405180910390fd5b60006010600085815260200190815260200160002060405180610140016040529081600082015481526020016001820154815260200160028201548152602001600382015481526020016004820154815260200160058201548152602001600682015481526020016007820154815260200160088201548152602001600982015481525050905060018160400151146116c6576040517f08c379a00000000000000000000000000000000000000000000000000000000081526004016116bd90614c08565b60405180910390fd5b60006010600085815260200190815260200160002090506000816002015414611724576040517f08c379a000000000000000000000000000000000000000000000000000000000815260040161171b906149c8565b60405180910390fd5b600081600401541161176b576040517f08c379a000000000000000000000000000000000000000000000000000000000815260040161176290614ae8565b60405180910390fd5b615dc081600401548461177e9190614d4d565b106117be576040517f08c379a00000000000000000000000000000000000000000000000000000000081526004016117b590614b68565b60405180910390fd5b6000805b615dc0811015611834576001601060008381526020019081526020016000206001015414156117f057611821565b6117f981612a45565b6118033382612c5f565b82600401548261181290614f85565b925082141561182057611834565b5b808061182c90614f85565b9150506117c2565b5060008260040181905550505050506001600a819055505050565b611857612984565b73ffffffffffffffffffffffffffffffffffffffff168273ffffffffffffffffffffffffffffffffffffffff1614156118c5576040517f08c379a00000000000000000000000000000000000000000000000000000000081526004016118bc906149a8565b60405180910390fd5b80600560006118d2612984565b73ffffffffffffffffffffffffffffffffffffffff1673ffffffffffffffffffffffffffffffffffffffff16815260200190815260200160002060008473ffffffffffffffffffffffffffffffffffffffff1673ffffffffffffffffffffffffffffffffffffffff16815260200190815260200160002060006101000a81548160ff0219169083151502179055508173ffffffffffffffffffffffffffffffffffffffff1661197f612984565b73ffffffffffffffffffffffffffffffffffffffff167f17307eab39ab6107e8899845ad3d59bd9653f200f220920489ca2b5937696c31836040516119c491906148ab565b60405180910390a35050565b6119e16119db612984565b83612c7d565b611a20576040517f08c379a0000000000000000000000000000000000000000000000000000000008152600401611a1790614ba8565b60405180910390fd5b611a2c8484848461318e565b50505050565b611a3a612984565b73ffffffffffffffffffffffffffffffffffffffff16611a58611370565b73ffffffffffffffffffffffffffffffffffffffff1614611aae576040517f08c379a0000000000000000000000000000000000000000000000000000000008152600401611aa590614b08565b60405180910390fd5b80600f60006101000a81548160ff02191690831515021790555050565b6060600060106000848152602001908152602001600020604051806101400160405290816000820154815260200160018201548152602001600282015481526020016003820154815260200160048201548152602001600582015481526020016006820154815260200160078201548152602001600882015481526020016009820154815250509050611b5c613dbc565b60006040518060a00160405280606281526020016159c960629139828280611b8390614f85565b935060408110611b9657611b956150c5565b5b6020020181905250604051806080016040528060478152602001615a6b60479139828280611bc390614f85565b935060408110611bd657611bd56150c5565b5b60200201819052506040518060800160405280604e815260200161594b604e9139828280611c0390614f85565b935060408110611c1657611c156150c5565b5b602002018190525060405180606001604052806030815260200161599960309139828280611c4390614f85565b935060408110611c5657611c556150c5565b5b602002018190525060405180606001604052806026815260200161592560269139828280611c8390614f85565b935060408110611c9657611c956150c5565b5b6020020181905250600c836040015181548110611cb657611cb56150c5565b5b906000526020600020018054611ccb90614f22565b80601f0160208091040260200160405190810160405280929190818152602001828054611cf790614f22565b8015611d445780601f10611d1957610100808354040283529160200191611d44565b820191906000526020600020905b815481529060010190602001808311611d2757829003601f168201915b5050505050828280611d5590614f85565b935060408110611d6857611d676150c5565b5b60200201819052506040518060600160405280602e8152602001615ab2602e9139828280611d9590614f85565b935060408110611da857611da76150c5565b5b60200201819052506040518060400160405280600681526020017f4e616d653a090000000000000000000000000000000000000000000000000000815250828280611df290614f85565b935060408110611e0557611e046150c5565b5b60200201819052508260000151604051602001611e229190614787565b604051602081830303815290604052828280611e3d90614f85565b935060408110611e5057611e4f6150c5565b5b6020020181905250600083604001511415611f37576040518060600160405280602e8152602001615ab2602e9139828280611e8a90614f85565b935060408110611e9d57611e9c6150c5565b5b60200201819052506040518060400160405280600c81526020017f4f6666737072696e67733a090000000000000000000000000000000000000000815250828280611ee790614f85565b935060408110611efa57611ef96150c5565b5b6020020181905250611f0f83608001516131ea565b828280611f1b90614f85565b935060408110611f2e57611f2d6150c5565b5b60200201819052505b6040518060600160405280602e8152602001615ab2602e9139828280611f5c90614f85565b935060408110611f6f57611f6e6150c5565b5b60200201819052506040518060400160405280600681526020017f77696e733a090000000000000000000000000000000000000000000000000000815250828280611fb990614f85565b935060408110611fcc57611fcb6150c5565b5b6020020181905250611fe28361010001516131ea565b828280611fee90614f85565b935060408110612001576120006150c5565b5b60200201819052506040518060600160405280602e8152602001615ab2602e913982828061202e90614f85565b935060408110612041576120406150c5565b5b60200201819052506040518060400160405280600781526020017f6275726e733a090000000000000000000000000000000000000000000000000081525082828061208b90614f85565b93506040811061209e5761209d6150c5565b5b60200201819052506120b48361012001516131ea565b8282806120c090614f85565b9350604081106120d3576120d26150c5565b5b60200201819052506040518060600160405280602e8152602001615ab2602e913982828061210090614f85565b935060408110612113576121126150c5565b5b60200201819052506040518060400160405280600f81526020017f48756e74696e67536b696c6c733a09000000000000000000000000000000000081525082828061215d90614f85565b9350604081106121705761216f6150c5565b5b6020020181905250600d8360a00151815481106121905761218f6150c5565b5b9060005260206000200180546121a590614f22565b80601f01602080910402602001604051908101604052809291908181526020018280546121d190614f22565b801561221e5780601f106121f35761010080835404028352916020019161221e565b820191906000526020600020905b81548152906001019060200180831161220157829003601f168201915b505050505082828061222f90614f85565b935060408110612242576122416150c5565b5b60200201819052506040518060600160405280602e8152602001615ab2602e913982828061226f90614f85565b935060408110612282576122816150c5565b5b60200201819052506040518060400160405280600481526020017f49513a09000000000000000000000000000000000000000000000000000000008152508282806122cc90614f85565b9350604081106122df576122de6150c5565b5b6020020181905250600d8360c00151815481106122ff576122fe6150c5565b5b90600052602060002001805461231490614f22565b80601f016020809104026020016040519081016040528092919081815260200182805461234090614f22565b801561238d5780601f106123625761010080835404028352916020019161238d565b820191906000526020600020905b81548152906001019060200180831161237057829003601f168201915b505050505082828061239e90614f85565b9350604081106123b1576123b06150c5565b5b60200201819052506040518060400160405280600d81526020017f3c2f746578743e3c2f7376673e000000000000000000000000000000000000008152508282806123fb90614f85565b93506040811061240e5761240d6150c5565b5b6020020181905250600060405180602001604052806000815250905060005b828110156124815781848260408110612449576124486150c5565b5b602002015160405160200161245f9291906147b9565b60405160208183030381529060405291508061247a90614f85565b905061242d565b5060006124be612490886131ea565b6124998461334b565b6040516020016124aa9291906147ff565b60405160208183030381529060405261334b565b9050806040516020016124d191906147dd565b60405160208183030381529060405291508195505050505050919050565b6124f7612984565b73ffffffffffffffffffffffffffffffffffffffff16612515611370565b73ffffffffffffffffffffffffffffffffffffffff161461256b576040517f08c379a000000000000000000000000000000000000000000000000000000000815260040161256290614b08565b60405180910390fd5b80600f60026101000a81548160ff02191690831515021790555050565b600f60029054906101000a900460ff1681565b6125a3612984565b73ffffffffffffffffffffffffffffffffffffffff166125c1611370565b73ffffffffffffffffffffffffffffffffffffffff1614612617576040517f08c379a000000000000000000000000000000000000000000000000000000000815260040161260e90614b08565b60405180910390fd5b80600f60016101000a81548160ff02191690831515021790555050565b6000600560008473ffffffffffffffffffffffffffffffffffffffff1673ffffffffffffffffffffffffffffffffffffffff16815260200190815260200160002060008373ffffffffffffffffffffffffffffffffffffffff1673ffffffffffffffffffffffffffffffffffffffff16815260200190815260200160002060009054906101000a900460ff16905092915050565b6126d0612984565b73ffffffffffffffffffffffffffffffffffffffff166126ee611370565b73ffffffffffffffffffffffffffffffffffffffff1614612744576040517f08c379a000000000000000000000000000000000000000000000000000000000815260040161273b90614b08565b60405180910390fd5b600073ffffffffffffffffffffffffffffffffffffffff168173ffffffffffffffffffffffffffffffffffffffff1614156127b4576040517f08c379a00000000000000000000000000000000000000000000000000000000081526004016127ab90614948565b60405180910390fd5b6127bd816130c8565b50565b6127ca3383612c7d565b612809576040517f08c379a000000000000000000000000000000000000000000000000000000000815260040161280090614aa8565b60405180910390fd5b6000601060008481526020019081526020016000209050612829826134e3565b8160000181905550505050565b60007f80ac58cd000000000000000000000000000000000000000000000000000000007bffffffffffffffffffffffffffffffffffffffffffffffffffffffff1916827bffffffffffffffffffffffffffffffffffffffffffffffffffffffff1916148061290157507f5b5e139f000000000000000000000000000000000000000000000000000000007bffffffffffffffffffffffffffffffffffffffffffffffffffffffff1916827bffffffffffffffffffffffffffffffffffffffffffffffffffffffff1916145b806129115750612910826134f1565b5b9050919050565b60008073ffffffffffffffffffffffffffffffffffffffff166002600084815260200190815260200160002060009054906101000a900473ffffffffffffffffffffffffffffffffffffffff1673ffffffffffffffffffffffffffffffffffffffff1614159050919050565b600033905090565b816004600083815260200190815260200160002060006101000a81548173ffffffffffffffffffffffffffffffffffffffff021916908373ffffffffffffffffffffffffffffffffffffffff160217905550808273ffffffffffffffffffffffffffffffffffffffff166129ff8361116b565b73ffffffffffffffffffffffffffffffffffffffff167f8c5be1e5ebec7d5bd14f71427d1e84f3dd0314c0f7b2291e5b200ac8c7c3b92560405160405180910390a45050565b6000601060008381526020019081526020016000209050600181600101819055506002612aa7836040518060400160405280600681526020017f47454e444552000000000000000000000000000000000000000000000000000081525061355b565b612ab19190614fd8565b8160020181905550600c612afa836040518060400160405280600881526020017f444953545249435400000000000000000000000000000000000000000000000081525061355b565b612b049190614fd8565b6001612b109190614d4d565b8160030181905550600081600201541415612b79576009612b66836040518060400160405280600a81526020017f4f4646535052494e47530000000000000000000000000000000000000000000081525061355b565b612b709190614fd8565b81600401819055505b6004612bba836040518060400160405280600781526020017f48554e54494e470000000000000000000000000000000000000000000000000081525061355b565b82600901548360080154612bce9190614d4d565b612bd89190614d4d565b612be29190614fd8565b81600501819055506004612c2b836040518060400160405280600781526020017f495153434f52450000000000000000000000000000000000000000000000000081525061355b565b82600901548360080154612c3f9190614d4d565b612c499190614d4d565b612c539190614fd8565b81600601819055505050565b612c79828260405180602001604052806000815250613597565b5050565b6000612c8882612918565b612cc7576040517f08c379a0000000000000000000000000000000000000000000000000000000008152600401612cbe906149e8565b60405180910390fd5b6000612cd28361116b565b90508073ffffffffffffffffffffffffffffffffffffffff168473ffffffffffffffffffffffffffffffffffffffff161480612d4157508373ffffffffffffffffffffffffffffffffffffffff16612d29846108ad565b73ffffffffffffffffffffffffffffffffffffffff16145b80612d525750612d518185612634565b5b91505092915050565b8273ffffffffffffffffffffffffffffffffffffffff16612d7b8261116b565b73ffffffffffffffffffffffffffffffffffffffff1614612dd1576040517f08c379a0000000000000000000000000000000000000000000000000000000008152600401612dc890614b28565b60405180910390fd5b600073ffffffffffffffffffffffffffffffffffffffff168273ffffffffffffffffffffffffffffffffffffffff161415612e41576040517f08c379a0000000000000000000000000000000000000000000000000000000008152600401612e3890614988565b60405180910390fd5b612e4c8383836135f2565b612e5760008261298c565b6001600360008573ffffffffffffffffffffffffffffffffffffffff1673ffffffffffffffffffffffffffffffffffffffff1681526020019081526020016000206000828254612ea79190614e2e565b925050819055506001600360008473ffffffffffffffffffffffffffffffffffffffff1673ffffffffffffffffffffffffffffffffffffffff1681526020019081526020016000206000828254612efe9190614d4d565b92505081905550816002600083815260200190815260200160002060006101000a81548173ffffffffffffffffffffffffffffffffffffffff021916908373ffffffffffffffffffffffffffffffffffffffff160217905550808273ffffffffffffffffffffffffffffffffffffffff168473ffffffffffffffffffffffffffffffffffffffff167fddf252ad1be2c89b69c2b068fc378daa952ba7f163c4a11628f55a4df523b3ef60405160405180910390a4505050565b6000612fc28261116b565b9050612fd0816000846135f2565b612fdb60008361298c565b6001600360008373ffffffffffffffffffffffffffffffffffffffff1673ffffffffffffffffffffffffffffffffffffffff168152602001908152602001600020600082825461302b9190614e2e565b925050819055506002600083815260200190815260200160002060006101000a81549073ffffffffffffffffffffffffffffffffffffffff021916905581600073ffffffffffffffffffffffffffffffffffffffff168273ffffffffffffffffffffffffffffffffffffffff167fddf252ad1be2c89b69c2b068fc378daa952ba7f163c4a11628f55a4df523b3ef60405160405180910390a45050565b6000600b60009054906101000a900473ffffffffffffffffffffffffffffffffffffffff16905081600b60006101000a81548173ffffffffffffffffffffffffffffffffffffffff021916908373ffffffffffffffffffffffffffffffffffffffff1602179055508173ffffffffffffffffffffffffffffffffffffffff168173ffffffffffffffffffffffffffffffffffffffff167f8be0079c531659141344cd1fd0a4f28419497f9722a3daafe3b4186f6b6457e060405160405180910390a35050565b613199848484612d5b565b6131a584848484613706565b6131e4576040517f08c379a00000000000000000000000000000000000000000000000000000000081526004016131db90614928565b60405180910390fd5b50505050565b60606000821415613232576040518060400160405280600181526020017f30000000000000000000000000000000000000000000000000000000000000008152509050613346565b600082905060005b6000821461326457808061324d90614f85565b915050600a8261325d9190614da3565b915061323a565b60008167ffffffffffffffff8111156132805761327f6150f4565b5b6040519080825280601f01601f1916602001820160405280156132b25781602001600182028036833780820191505090505b5090505b6000851461333f576001826132cb9190614e2e565b9150600a856132da9190614fd8565b60306132e69190614d4d565b60f81b8183815181106132fc576132fb6150c5565b5b60200101907effffffffffffffffffffffffffffffffffffffffffffffffffffffffffffff1916908160001a905350600a856133389190614da3565b94506132b6565b8093505050505b919050565b6060600082519050600081141561337457604051806020016040528060008152509150506134de565b600060036002836133859190614d4d565b61338f9190614da3565b600461339b9190614dd4565b905060006020826133ac9190614d4d565b67ffffffffffffffff8111156133c5576133c46150f4565b5b6040519080825280601f01601f1916602001820160405280156133f75781602001600182028036833780820191505090505b5090506000604051806060016040528060408152602001615a2b604091399050600181016020830160005b8681101561349b5760038101905062ffffff818a015116603f8160121c168401518060081b905060ff603f83600c1c1686015116810190508060081b905060ff603f8360061c1686015116810190508060081b905060ff603f831686015116810190508060e01b90508084526004840193505050613422565b5060038606600181146134b557600281146134c5576134d0565b613d3d60f01b60028303526134d0565b603d60f81b60018303525b508484525050819450505050505b919050565b600060208201519050919050565b60007f01ffc9a7000000000000000000000000000000000000000000000000000000007bffffffffffffffffffffffffffffffffffffffffffffffffffffffff1916827bffffffffffffffffffffffffffffffffffffffffffffffffffffffff1916149050919050565b600061358f8261356a856131ea565b60405160200161357b9291906147b9565b60405160208183030381529060405261389d565b905092915050565b6135a183836138d0565b6135ae6000848484613706565b6135ed576040517f08c379a00000000000000000000000000000000000000000000000000000000081526004016135e490614928565b60405180910390fd5b505050565b6135fd838383613a9e565b600073ffffffffffffffffffffffffffffffffffffffff168373ffffffffffffffffffffffffffffffffffffffff1614156136405761363b81613aa3565b61367f565b8173ffffffffffffffffffffffffffffffffffffffff168373ffffffffffffffffffffffffffffffffffffffff161461367e5761367d8382613aec565b5b5b600073ffffffffffffffffffffffffffffffffffffffff168273ffffffffffffffffffffffffffffffffffffffff1614156136c2576136bd81613c59565b613701565b8273ffffffffffffffffffffffffffffffffffffffff168273ffffffffffffffffffffffffffffffffffffffff1614613700576136ff8282613d2a565b5b5b505050565b60006137278473ffffffffffffffffffffffffffffffffffffffff16613da9565b15613890578373ffffffffffffffffffffffffffffffffffffffff1663150b7a02613750612984565b8786866040518563ffffffff1660e01b8152600401613772949392919061485f565b602060405180830381600087803b15801561378c57600080fd5b505af19250505080156137bd57506040513d601f19601f820116820180604052508101906137ba919061414a565b60015b613840573d80600081146137ed576040519150601f19603f3d011682016040523d82523d6000602084013e6137f2565b606091505b50600081511415613838576040517f08c379a000000000000000000000000000000000000000000000000000000000815260040161382f90614928565b60405180910390fd5b805181602001fd5b63150b7a0260e01b7bffffffffffffffffffffffffffffffffffffffffffffffffffffffff1916817bffffffffffffffffffffffffffffffffffffffffffffffffffffffff191614915050613895565b600190505b949350505050565b6000816040516020016138b091906147a2565b6040516020818303038152906040528051906020012060001c9050919050565b600073ffffffffffffffffffffffffffffffffffffffff168273ffffffffffffffffffffffffffffffffffffffff161415613940576040517f08c379a000000000000000000000000000000000000000000000000000000000815260040161393790614a88565b60405180910390fd5b61394981612918565b15613989576040517f08c379a000000000000000000000000000000000000000000000000000000000815260040161398090614968565b60405180910390fd5b613995600083836135f2565b6001600360008473ffffffffffffffffffffffffffffffffffffffff1673ffffffffffffffffffffffffffffffffffffffff16815260200190815260200160002060008282546139e59190614d4d565b92505081905550816002600083815260200190815260200160002060006101000a81548173ffffffffffffffffffffffffffffffffffffffff021916908373ffffffffffffffffffffffffffffffffffffffff160217905550808273ffffffffffffffffffffffffffffffffffffffff16600073ffffffffffffffffffffffffffffffffffffffff167fddf252ad1be2c89b69c2b068fc378daa952ba7f163c4a11628f55a4df523b3ef60405160405180910390a45050565b505050565b6008805490506009600083815260200190815260200160002081905550600881908060018154018082558091505060019003906000526020600020016000909190919091505550565b60006001613af98461121d565b613b039190614e2e565b9050600060076000848152602001908152602001600020549050818114613be8576000600660008673ffffffffffffffffffffffffffffffffffffffff1673ffffffffffffffffffffffffffffffffffffffff168152602001908152602001600020600084815260200190815260200160002054905080600660008773ffffffffffffffffffffffffffffffffffffffff1673ffffffffffffffffffffffffffffffffffffffff168152602001908152602001600020600084815260200190815260200160002081905550816007600083815260200190815260200160002081905550505b6007600084815260200190815260200160002060009055600660008573ffffffffffffffffffffffffffffffffffffffff1673ffffffffffffffffffffffffffffffffffffffff16815260200190815260200160002060008381526020019081526020016000206000905550505050565b60006001600880549050613c6d9190614e2e565b9050600060096000848152602001908152602001600020549050600060088381548110613c9d57613c9c6150c5565b5b906000526020600020015490508060088381548110613cbf57613cbe6150c5565b5b906000526020600020018190555081600960008381526020019081526020016000208190555060096000858152602001908152602001600020600090556008805480613d0e57613d0d615096565b5b6001900381819060005260206000200160009055905550505050565b6000613d358361121d565b905081600660008573ffffffffffffffffffffffffffffffffffffffff1673ffffffffffffffffffffffffffffffffffffffff168152602001908152602001600020600083815260200190815260200160002081905550806007600084815260200190815260200160002081905550505050565b600080823b905060008111915050919050565b6040518061080001604052806040905b6060815260200190600190039081613dcc5790505090565b6000613df7613df284614ca8565b614c83565b905082815260208101848484011115613e1357613e12615128565b5b613e1e848285614ee0565b509392505050565b6000613e39613e3484614cd9565b614c83565b905082815260208101848484011115613e5557613e54615128565b5b613e60848285614ee0565b509392505050565b600081359050613e77816158c8565b92915050565b600081359050613e8c816158df565b92915050565b600081359050613ea1816158f6565b92915050565b600081519050613eb6816158f6565b92915050565b600082601f830112613ed157613ed0615123565b5b8135613ee1848260208601613de4565b91505092915050565b600082601f830112613eff57613efe615123565b5b8135613f0f848260208601613e26565b91505092915050565b600081359050613f278161590d565b92915050565b600060208284031215613f4357613f42615132565b5b6000613f5184828501613e68565b91505092915050565b60008060408385031215613f7157613f70615132565b5b6000613f7f85828601613e68565b9250506020613f9085828601613e68565b9150509250929050565b600080600060608486031215613fb357613fb2615132565b5b6000613fc186828701613e68565b9350506020613fd286828701613e68565b9250506040613fe386828701613f18565b9150509250925092565b6000806000806080858703121561400757614006615132565b5b600061401587828801613e68565b945050602061402687828801613e68565b935050604061403787828801613f18565b925050606085013567ffffffffffffffff8111156140585761405761512d565b5b61406487828801613ebc565b91505092959194509250565b6000806040838503121561408757614086615132565b5b600061409585828601613e68565b92505060206140a685828601613e7d565b9150509250929050565b600080604083850312156140c7576140c6615132565b5b60006140d585828601613e68565b92505060206140e685828601613f18565b9150509250929050565b60006020828403121561410657614105615132565b5b600061411484828501613e7d565b91505092915050565b60006020828403121561413357614132615132565b5b600061414184828501613e92565b91505092915050565b6000602082840312156141605761415f615132565b5b600061416e84828501613ea7565b91505092915050565b60006020828403121561418d5761418c615132565b5b600061419b84828501613f18565b91505092915050565b600080604083850312156141bb576141ba615132565b5b60006141c985828601613f18565b925050602083013567ffffffffffffffff8111156141ea576141e961512d565b5b6141f685828601613eea565b9150509250929050565b6000806040838503121561421757614216615132565b5b600061422585828601613f18565b925050602061423685828601613f18565b9150509250929050565b61424981614e62565b82525050565b61425881614e74565b82525050565b61426f61426a82614e80565b614fce565b82525050565b600061428082614d0a565b61428a8185614d20565b935061429a818560208601614eef565b6142a381615137565b840191505092915050565b60006142b982614d15565b6142c38185614d31565b93506142d3818560208601614eef565b6142dc81615137565b840191505092915050565b60006142f282614d15565b6142fc8185614d42565b935061430c818560208601614eef565b80840191505092915050565b6000614325600b83614d31565b915061433082615148565b602082019050919050565b6000614348602b83614d31565b915061435382615171565b604082019050919050565b600061436b603283614d31565b9150614376826151c0565b604082019050919050565b600061438e602683614d31565b91506143998261520f565b604082019050919050565b60006143b1601c83614d31565b91506143bc8261525e565b602082019050919050565b60006143d4602483614d31565b91506143df82615287565b604082019050919050565b60006143f7601983614d31565b9150614402826152d6565b602082019050919050565b600061441a601d83614d31565b9150614425826152ff565b602082019050919050565b600061443d602c83614d31565b915061444882615328565b604082019050919050565b6000614460602783614d31565b915061446b82615377565b604082019050919050565b6000614483603883614d31565b915061448e826153c6565b604082019050919050565b60006144a6602a83614d31565b91506144b182615415565b604082019050919050565b60006144c9602983614d31565b91506144d482615464565b604082019050919050565b60006144ec600283614d42565b91506144f7826154b3565b600282019050919050565b600061450f602083614d31565b915061451a826154dc565b602082019050919050565b6000614532600e83614d31565b915061453d82615505565b602082019050919050565b6000614555602c83614d31565b91506145608261552e565b604082019050919050565b6000614578600d83614d31565b91506145838261557d565b602082019050919050565b600061459b602083614d31565b91506145a6826155a6565b602082019050919050565b60006145be602983614d31565b91506145c9826155cf565b604082019050919050565b60006145e1602183614d31565b91506145ec8261561e565b604082019050919050565b6000614604601683614d31565b915061460f8261566d565b602082019050919050565b6000614627601983614d31565b915061463282615696565b602082019050919050565b600061464a601d83614d42565b9150614655826156bf565b601d82019050919050565b600061466d601583614d42565b9150614678826156e8565b601582019050919050565b6000614690603183614d31565b915061469b82615711565b604082019050919050565b60006146b3602c83614d31565b91506146be82615760565b604082019050919050565b60006146d6600d83614d31565b91506146e1826157af565b602082019050919050565b60006146f9601a83614d31565b9150614704826157d8565b602082019050919050565b600061471c601f83614d31565b915061472782615801565b602082019050919050565b600061473f605c83614d42565b915061474a8261582a565b605c82019050919050565b6000614762600e83614d31565b915061476d8261589f565b602082019050919050565b61478181614ed6565b82525050565b6000614793828461425e565b60208201915081905092915050565b60006147ae82846142e7565b915081905092915050565b60006147c582856142e7565b91506147d182846142e7565b91508190509392505050565b60006147e88261463d565b91506147f482846142e7565b915081905092915050565b600061480a82614660565b915061481682856142e7565b915061482182614732565b915061482d82846142e7565b9150614838826144df565b91508190509392505050565b60006020820190506148596000830184614240565b92915050565b60006080820190506148746000830187614240565b6148816020830186614240565b61488e6040830185614778565b81810360608301526148a08184614275565b905095945050505050565b60006020820190506148c0600083018461424f565b92915050565b600060208201905081810360008301526148e081846142ae565b905092915050565b6000602082019050818103600083015261490181614318565b9050919050565b600060208201905081810360008301526149218161433b565b9050919050565b600060208201905081810360008301526149418161435e565b9050919050565b6000602082019050818103600083015261496181614381565b9050919050565b60006020820190508181036000830152614981816143a4565b9050919050565b600060208201905081810360008301526149a1816143c7565b9050919050565b600060208201905081810360008301526149c1816143ea565b9050919050565b600060208201905081810360008301526149e18161440d565b9050919050565b60006020820190508181036000830152614a0181614430565b9050919050565b60006020820190508181036000830152614a2181614453565b9050919050565b60006020820190508181036000830152614a4181614476565b9050919050565b60006020820190508181036000830152614a6181614499565b9050919050565b60006020820190508181036000830152614a81816144bc565b9050919050565b60006020820190508181036000830152614aa181614502565b9050919050565b60006020820190508181036000830152614ac181614525565b9050919050565b60006020820190508181036000830152614ae181614548565b9050919050565b60006020820190508181036000830152614b018161456b565b9050919050565b60006020820190508181036000830152614b218161458e565b9050919050565b60006020820190508181036000830152614b41816145b1565b9050919050565b60006020820190508181036000830152614b61816145d4565b9050919050565b60006020820190508181036000830152614b81816145f7565b9050919050565b60006020820190508181036000830152614ba18161461a565b9050919050565b60006020820190508181036000830152614bc181614683565b9050919050565b60006020820190508181036000830152614be1816146a6565b9050919050565b60006020820190508181036000830152614c01816146c9565b9050919050565b60006020820190508181036000830152614c21816146ec565b9050919050565b60006020820190508181036000830152614c418161470f565b9050919050565b60006020820190508181036000830152614c6181614755565b9050919050565b6000602082019050614c7d6000830184614778565b92915050565b6000614c8d614c9e565b9050614c998282614f54565b919050565b6000604051905090565b600067ffffffffffffffff821115614cc357614cc26150f4565b5b614ccc82615137565b9050602081019050919050565b600067ffffffffffffffff821115614cf457614cf36150f4565b5b614cfd82615137565b9050602081019050919050565b600081519050919050565b600081519050919050565b600082825260208201905092915050565b600082825260208201905092915050565b600081905092915050565b6000614d5882614ed6565b9150614d6383614ed6565b9250827fffffffffffffffffffffffffffffffffffffffffffffffffffffffffffffffff03821115614d9857614d97615009565b5b828201905092915050565b6000614dae82614ed6565b9150614db983614ed6565b925082614dc957614dc8615038565b5b828204905092915050565b6000614ddf82614ed6565b9150614dea83614ed6565b9250817fffffffffffffffffffffffffffffffffffffffffffffffffffffffffffffffff0483118215151615614e2357614e22615009565b5b828202905092915050565b6000614e3982614ed6565b9150614e4483614ed6565b925082821015614e5757614e56615009565b5b828203905092915050565b6000614e6d82614eb6565b9050919050565b60008115159050919050565b6000819050919050565b60007fffffffff0000000000000000000000000000000000000000000000000000000082169050919050565b600073ffffffffffffffffffffffffffffffffffffffff82169050919050565b6000819050919050565b82818337600083830152505050565b60005b83811015614f0d578082015181840152602081019050614ef2565b83811115614f1c576000848401525b50505050565b60006002820490506001821680614f3a57607f821691505b60208210811415614f4e57614f4d615067565b5b50919050565b614f5d82615137565b810181811067ffffffffffffffff82111715614f7c57614f7b6150f4565b5b80604052505050565b6000614f9082614ed6565b91507fffffffffffffffffffffffffffffffffffffffffffffffffffffffffffffffff821415614fc357614fc2615009565b5b600182019050919050565b6000819050919050565b6000614fe382614ed6565b9150614fee83614ed6565b925082614ffe57614ffd615038565b5b828206905092915050565b7f4e487b7100000000000000000000000000000000000000000000000000000000600052601160045260246000fd5b7f4e487b7100000000000000000000000000000000000000000000000000000000600052601260045260246000fd5b7f4e487b7100000000000000000000000000000000000000000000000000000000600052602260045260246000fd5b7f4e487b7100000000000000000000000000000000000000000000000000000000600052603160045260246000fd5b7f4e487b7100000000000000000000000000000000000000000000000000000000600052603260045260246000fd5b7f4e487b7100000000000000000000000000000000000000000000000000000000600052604160045260246000fd5b600080fd5b600080fd5b600080fd5b600080fd5b6000601f19601f8301169050919050565b7f53616c6520706175736564000000000000000000000000000000000000000000600082015250565b7f455243373231456e756d657261626c653a206f776e657220696e646578206f7560008201527f74206f6620626f756e6473000000000000000000000000000000000000000000602082015250565b7f4552433732313a207472616e7366657220746f206e6f6e20455243373231526560008201527f63656976657220696d706c656d656e7465720000000000000000000000000000602082015250565b7f4f776e61626c653a206e6577206f776e657220697320746865207a65726f206160008201527f6464726573730000000000000000000000000000000000000000000000000000602082015250565b7f4552433732313a20746f6b656e20616c7265616479206d696e74656400000000600082015250565b7f4552433732313a207472616e7366657220746f20746865207a65726f2061646460008201527f7265737300000000000000000000000000000000000000000000000000000000602082015250565b7f4552433732313a20617070726f766520746f2063616c6c657200000000000000600082015250565b7f7365636f6e6420746f6b656e2073686f756c642062652066656d616c65000000600082015250565b7f4552433732313a206f70657261746f7220717565727920666f72206e6f6e657860008201527f697374656e7420746f6b656e0000000000000000000000000000000000000000602082015250565b7f596f752063616e2061646f70742061206d6178696d756d206f6620323020487560008201527f6e67657269746500000000000000000000000000000000000000000000000000602082015250565b7f4552433732313a20617070726f76652063616c6c6572206973206e6f74206f7760008201527f6e6572206e6f7220617070726f76656420666f7220616c6c0000000000000000602082015250565b7f4552433732313a2062616c616e636520717565727920666f7220746865207a6560008201527f726f206164647265737300000000000000000000000000000000000000000000602082015250565b7f4552433732313a206f776e657220717565727920666f72206e6f6e657869737460008201527f656e7420746f6b656e0000000000000000000000000000000000000000000000602082015250565b7f227d000000000000000000000000000000000000000000000000000000000000600082015250565b7f4552433732313a206d696e7420746f20746865207a65726f2061646472657373600082015250565b7f6e6f7420617574686f72697a6564000000000000000000000000000000000000600082015250565b7f4552433732313a20617070726f76656420717565727920666f72206e6f6e657860008201527f697374656e7420746f6b656e0000000000000000000000000000000000000000602082015250565b7f6e6f206f6666737072696e677300000000000000000000000000000000000000600082015250565b7f4f776e61626c653a2063616c6c6572206973206e6f7420746865206f776e6572600082015250565b7f4552433732313a207472616e73666572206f6620746f6b656e2074686174206960008201527f73206e6f74206f776e0000000000000000000000000000000000000000000000602082015250565b7f4552433732313a20617070726f76616c20746f2063757272656e74206f776e6560008201527f7200000000000000000000000000000000000000000000000000000000000000602082015250565b7f45786365656473206d6178696d756d20737570706c7900000000000000000000600082015250565b7f45746865722073656e74206973206e6f7420636f727265637400000000000000600082015250565b7f646174613a6170706c69636174696f6e2f6a736f6e3b6261736536342c000000600082015250565b7f7b226e616d65223a202248756e67657269746520230000000000000000000000600082015250565b7f4552433732313a207472616e736665722063616c6c6572206973206e6f74206f60008201527f776e6572206e6f7220617070726f766564000000000000000000000000000000602082015250565b7f455243373231456e756d657261626c653a20676c6f62616c20696e646578206f60008201527f7574206f6620626f756e64730000000000000000000000000000000000000000602082015250565b7f4d6174696e672070617573656400000000000000000000000000000000000000600082015250565b7f666972737420746f6b656e2073686f756c64206265206d616c65000000000000600082015250565b7f5265656e7472616e637947756172643a207265656e7472616e742063616c6c00600082015250565b7f222c20226465736372697074696f6e223a202248756e6765725665727365206960008201527f7320612067616d65206f6620737572766976616c2e222c2022696d616765223a60208201527f2022646174613a696d6167652f7376672b786d6c3b6261736536342c00000000604082015250565b7f7265636c61696d20706175736564000000000000000000000000000000000000600082015250565b6158d181614e62565b81146158dc57600080fd5b50565b6158e881614e74565b81146158f357600080fd5b50565b6158ff81614e8a565b811461590a57600080fd5b50565b61591681614ed6565b811461592157600080fd5b5056fe3c7465787420783d2231302220793d2236302220636c6173733d2262617365477265656e223e2e62617365477265656e207b2066696c6c3a20737072696e67677265656e3b20666f6e742d66616d696c793a2073657269663b20666f6e742d73697a653a20313670783b207d3c2f7374796c653e3c726563742077696474683d223130302522206865696768743d2231303025222066696c6c3d22626c61636b22202f3e3c73766720786d6c6e733d22687474703a2f2f7777772e77332e6f72672f323030302f73766722207072657365727665417370656374526174696f3d22784d696e594d696e206d656574222076696577426f783d223020302033353020333530223e4142434445464748494a4b4c4d4e4f505152535455565758595a6162636465666768696a6b6c6d6e6f707172737475767778797a303132333435363738392b2f3c7374796c653e2e626173655768697465207b2066696c6c3a2077686974653b20666f6e742d66616d696c793a2073657269663b20666f6e742d73697a653a20313670783b207d3c2f746578743e3c7465787420783d2231302220793d223130302220636c6173733d22626173655768697465223ea26469706673582212202d0b42e4b8880b70188dfab34ae240c27d22035568eb20d9febecbe831f7fbbb64736f6c63430008070033",
  "immutableReferences": {},
  "source": "// SPDX-License-Identifier: MIT\n\npragma solidity ^0.8.0;\n\nimport \"./FullERC721.sol\";\n\ncontract HungerVerse is ERC721Enumerable, ReentrancyGuard, Ownable {\n\n\tstruct PlayerInfo {\n        bytes32 name;\n        uint256 state;       //0 - burnt, 1 - active\n\t\tuint256 gender;      //0 - FEMALE, 1 - MALE\n        uint256 district;    //1 to 12\n\n        //only for females\n        uint256 offsprings;  // 0 to 8\n\n        //gifted = 3, above average = 2, average = 1, below average = 0\n        uint256 huntingSkills;\n        uint256 IQ;\n        uint256 likes;\n\n        uint256 wins;\n        uint256 burns;\n\t}\n\tstring[] private gender = [ \"Female\", \"Male\" ];\n\tstring[] private skills = [ \"Below Average\", \"Average\", \"Above Average\", \"Gifted\" ];\n\t\n    uint256 private _price = 0.05 ether;\n    bool public _paused = true;\n    bool public _matingPaused = true;\n    bool public _reclaimPaused = true;\n\n\tmapping (uint256 => PlayerInfo) private _tokenId2Player;\n\n    constructor() ERC721(\"HungerVerse\", \"HUNGER\") Ownable() {\n\t}\n\n    function stringToBytes32(string memory source) internal pure returns (bytes32 result) {\n        assembly {\n            result := mload(add(source, 32))\n        }\n    }\n\tfunction generatePlayer(uint256 tokenId) internal {\n\t\tPlayerInfo storage player = _tokenId2Player[tokenId];   //by reference\n\n        player.state = 1;\n        player.gender = pluck(tokenId, \"GENDER\") % 2;\n        player.district = 1 + pluck(tokenId, \"DISTRICT\") % 12;\n        if(player.gender == 0) {\n            player.offsprings = pluck(tokenId, \"OFFSPRINGS\") % 9;\n        }\n        player.huntingSkills = (player.wins + player.burns + pluck(tokenId, \"HUNTING\")) % 4;\n        player.IQ = (player.wins + player.burns + pluck(tokenId, \"IQSCORE\")) % 4;\n\t}\n\n    function random(string memory input) internal pure returns (uint256) {\n        return uint256(keccak256(abi.encodePacked(input)));\n    }\n\n    function pluck(uint256 tokenId, string memory keyPrefix) internal pure returns (uint256) {\n        return random(string(abi.encodePacked(keyPrefix, Strings.toString(tokenId))));\n    }\n\n    function tokenURI(uint256 tokenId) override public view returns (string memory) {\n\n        PlayerInfo memory player = _tokenId2Player[tokenId];\n\n        string[64] memory parts;\n\t\tuint256 counter = 0;\n        parts[counter++] = '<svg xmlns=\"http://www.w3.org/2000/svg\" preserveAspectRatio=\"xMinYMin meet\" viewBox=\"0 0 350 350\">';\n\t\tparts[counter++] = '<style>.baseWhite { fill: white; font-family: serif; font-size: 16px; }';\n\t\tparts[counter++] = '.baseGreen { fill: springgreen; font-family: serif; font-size: 16px; }</style>';\n\t\tparts[counter++] = '<rect width=\"100%\" height=\"100%\" fill=\"black\" />';\n        parts[counter++] = '<text x=\"10\" y=\"60\" class=\"baseGreen\">';\n        parts[counter++] = gender[player.gender];\n        parts[counter++] = '</text><text x=\"10\" y=\"100\" class=\"baseWhite\">';\n        parts[counter++] = \"Name:\\t\";\n        parts[counter++] = string(abi.encodePacked(player.name));\n        if(player.gender == 0) {\n            parts[counter++] = '</text><text x=\"10\" y=\"100\" class=\"baseWhite\">';\n            parts[counter++] = \"Offsprings:\\t\";\n            parts[counter++] = Strings.toString(player.offsprings);\n        }\n        parts[counter++] = '</text><text x=\"10\" y=\"100\" class=\"baseWhite\">';\n        parts[counter++] = \"wins:\\t\";\n        parts[counter++] = Strings.toString(player.wins);\n        parts[counter++] = '</text><text x=\"10\" y=\"100\" class=\"baseWhite\">';\n        parts[counter++] = \"burns:\\t\";\n        parts[counter++] = Strings.toString(player.burns);\n        parts[counter++] = '</text><text x=\"10\" y=\"100\" class=\"baseWhite\">';\n        parts[counter++] = \"HuntingSkills:\\t\";\n        parts[counter++] = skills[player.huntingSkills];\n        parts[counter++] = '</text><text x=\"10\" y=\"100\" class=\"baseWhite\">';\n        parts[counter++] = \"IQ:\\t\";\n        parts[counter++] = skills[player.IQ];\n\n        parts[counter++] = '</text></svg>';\n\n        string memory output = \"\";\n\t\tfor(uint256 i = 0; i < counter; ++i)\n\t\t{\n\t\t\toutput = string(abi.encodePacked(output, parts[i]));\n\t\t}\n\n        string memory json = Base64.encode(bytes(string(abi.encodePacked('{\"name\": \"Hungerite #', Strings.toString(tokenId), '\", \"description\": \"HungerVerse is a game of survival.\", \"image\": \"data:image/svg+xml;base64,', Base64.encode(bytes(output)), '\"}'))));\n        output = string(abi.encodePacked('data:application/json;base64,', json));\n\n        return output;\n    }\n\n    function ownHungerites(uint256 num) public nonReentrant payable {\n        uint256 supply = totalSupply();\n        require(!_paused, \"Sale paused\");\n        require(num > 0 && num < 21, \"You can adopt a maximum of 20 Hungerite\");\n        require(supply + num < 24000, \"Exceeds maximum supply\");\n        require(msg.value >= _price * num, \"Ether sent is not correct\");\n\n        for(uint256 i = 0; i < num; i++) {\n            generatePlayer(supply + i);\n            _safeMint(msg.sender, supply + i);\n        }\n    }\n    function reclaimHungerites(uint256 num) public nonReentrant payable {\n        uint256 supply = totalSupply();\n        require(!_reclaimPaused, \"reclaim paused\");\n        require(num > 0 && num < 21, \"You can adopt a maximum of 20 Hungerite\");\n        require(supply + num < 24000, \"Exceeds maximum supply\");\n        require(msg.value >= _price * num, \"Ether sent is not correct\");\n\n        uint256 count = 0;\n        for(uint256 i = 0; i < 24000; i++) {\n            if(_tokenId2Player[i].state == 1) continue;\n            generatePlayer(i);\n            _safeMint(msg.sender, i);\n            if(++count == num) break;\n        }\n    }\n    function mate(uint256 tokenIdM, uint256 tokenIdF) public nonReentrant {\n        uint256 supply = totalSupply();\n        require(!_matingPaused, \"Mating paused\");\n        require(_isApprovedOrOwner(msg.sender, tokenIdM), \"not authorized\");\n        require(_isApprovedOrOwner(msg.sender, tokenIdF), \"not authorized\");\n        PlayerInfo memory male = _tokenId2Player[tokenIdM];\n        require(male.gender == 1, \"first token should be male\");\n        PlayerInfo storage female = _tokenId2Player[tokenIdF];\n        require(female.gender == 0, \"second token should be female\");\n        require(female.offsprings > 0, \"no offsprings\");\n        require(supply + female.offsprings < 24000, \"Exceeds maximum supply\");\n\n        uint256 count = 0;\n        for(uint256 i; i < 24000; i++) {\n            if(_tokenId2Player[i].state == 1) continue;\n            generatePlayer(i);\n            _safeMint(msg.sender, i);\n            if(++count == female.offsprings) break;\n        }\n        female.offsprings = 0;\n    }\n    function burn(uint256 tokenId) public {\n        require(_isApprovedOrOwner(msg.sender, tokenId), \"not authorized\");\n        PlayerInfo storage player = _tokenId2Player[tokenId];\n        player.state = 0;\n        player.burns++;\n        _burn(tokenId);\n    }\n    function setName(uint256 tokenId, string memory val) public {\n        require(_isApprovedOrOwner(msg.sender, tokenId), \"not authorized\");\n        PlayerInfo storage player = _tokenId2Player[tokenId];\n        player.name = stringToBytes32(val);\n    }\n    function setPrice(uint256 _newPrice) public onlyOwner {\n        _price = _newPrice;\n    }\n    function getPrice() public view returns (uint256) {\n        return _price;\n    }\n    function setPause(bool val) public onlyOwner {\n        _paused = val;\n    }\n    function setMatingPause(bool val) public onlyOwner {\n        _matingPaused = val;\n    }\n    function setReclaimPause(bool val) public onlyOwner {\n        _reclaimPaused = val;\n    }\n    function withdraw() public payable onlyOwner {\n        address ownerAddress = 0x4aF0BB035FfB1CbEFA550530917e151a53034d70;\n        require(payable(ownerAddress).send(address(this).balance));\n    }\n}\n",
  "sourcePath": "/home/ec2-user/github/fcc-dapp/src/contracts/HungerVerse.sol",
  "compiler": {
    "name": "solc",
    "version": "0.8.7+commit.e28d00a7.Emscripten.clang"
  },
  "schemaVersion": "3.4.3",
  "updatedAt": "2022-01-04T02:04:26.308Z",
  "devdoc": {
    "kind": "dev",
    "methods": {
      "approve(address,uint256)": {
        "details": "See {IERC721-approve}."
      },
      "balanceOf(address)": {
        "details": "See {IERC721-balanceOf}."
      },
      "getApproved(uint256)": {
        "details": "See {IERC721-getApproved}."
      },
      "isApprovedForAll(address,address)": {
        "details": "See {IERC721-isApprovedForAll}."
      },
      "name()": {
        "details": "See {IERC721Metadata-name}."
      },
      "owner()": {
        "details": "Returns the address of the current owner."
      },
      "ownerOf(uint256)": {
        "details": "See {IERC721-ownerOf}."
      },
      "renounceOwnership()": {
        "details": "Leaves the contract without owner. It will not be possible to call `onlyOwner` functions anymore. Can only be called by the current owner. NOTE: Renouncing ownership will leave the contract without an owner, thereby removing any functionality that is only available to the owner."
      },
      "safeTransferFrom(address,address,uint256)": {
        "details": "See {IERC721-safeTransferFrom}."
      },
      "safeTransferFrom(address,address,uint256,bytes)": {
        "details": "See {IERC721-safeTransferFrom}."
      },
      "setApprovalForAll(address,bool)": {
        "details": "See {IERC721-setApprovalForAll}."
      },
      "supportsInterface(bytes4)": {
        "details": "See {IERC165-supportsInterface}."
      },
      "symbol()": {
        "details": "See {IERC721Metadata-symbol}."
      },
      "tokenByIndex(uint256)": {
        "details": "See {IERC721Enumerable-tokenByIndex}."
      },
      "tokenOfOwnerByIndex(address,uint256)": {
        "details": "See {IERC721Enumerable-tokenOfOwnerByIndex}."
      },
      "tokenURI(uint256)": {
        "details": "See {IERC721Metadata-tokenURI}."
      },
      "totalSupply()": {
        "details": "See {IERC721Enumerable-totalSupply}."
      },
      "transferFrom(address,address,uint256)": {
        "details": "See {IERC721-transferFrom}."
      },
      "transferOwnership(address)": {
        "details": "Transfers ownership of the contract to a new account (`newOwner`). Can only be called by the current owner."
      }
    },
    "version": 1
  },
  "userdoc": {
    "kind": "user",
    "methods": {},
    "version": 1
  }
}