{
  "contractName": "HungerGames",
  "abi": [
    {
      "inputs": [],
      "stateMutability": "nonpayable",
      "type": "constructor"
    },
    {
      "inputs": [],
      "name": "_gameInProgress",
      "outputs": [
        {
          "internalType": "bool",
          "name": "",
          "type": "bool"
        }
      ],
      "stateMutability": "view",
      "type": "function"
    },
    {
      "inputs": [],
      "name": "_gamingPaused",
      "outputs": [
        {
          "internalType": "bool",
          "name": "",
          "type": "bool"
        }
      ],
      "stateMutability": "view",
      "type": "function"
    },
    {
      "inputs": [
        {
          "internalType": "bool",
          "name": "val",
          "type": "bool"
        }
      ],
      "name": "setGamingPaused",
      "outputs": [],
      "stateMutability": "nonpayable",
      "type": "function"
    },
    {
      "inputs": [
        {
          "internalType": "uint256",
          "name": "tokenId",
          "type": "uint256"
        }
      ],
      "name": "joinGame",
      "outputs": [],
      "stateMutability": "payable",
      "type": "function"
    },
    {
      "inputs": [],
      "name": "withdrawFromGames",
      "outputs": [],
      "stateMutability": "payable",
      "type": "function"
    }
  ],
  "bytecode": "0x608060405260016000806101000a81548160ff02191690831515021790555060008060016101000a81548160ff02191690831515021790555034801561004457600080fd5b50733532f43fd4ef445d884e3954506ff1690bf4c658600260006101000a81548173ffffffffffffffffffffffffffffffffffffffff021916908373ffffffffffffffffffffffffffffffffffffffff160217905550610ce8806100a96000396000f3fe60806040526004361061004a5760003560e01c8063248d064f1461004f57806370bd67ec1461005957806374717e1014610082578063bedea9c9146100ad578063efaa55a0146100d8575b600080fd5b6100576100f4565b005b34801561006557600080fd5b50610080600480360381019061007b9190610815565b610251565b005b34801561008e57600080fd5b50610097610381565b6040516100a491906109e8565b60405180910390f35b3480156100b957600080fd5b506100c2610394565b6040516100cf91906109e8565b60405180910390f35b6100f260048036038101906100ed9190610842565b6103a5565b005b6100fc61064c565b73ffffffffffffffffffffffffffffffffffffffff16600260009054906101000a900473ffffffffffffffffffffffffffffffffffffffff1673ffffffffffffffffffffffffffffffffffffffff16638da5cb5b6040518163ffffffff1660e01b815260040160206040518083038186803b15801561017a57600080fd5b505afa15801561018e573d6000803e3d6000fd5b505050506040513d601f19601f820116820180604052508101906101b291906107e8565b73ffffffffffffffffffffffffffffffffffffffff1614610208576040517f08c379a00000000000000000000000000000000000000000000000000000000081526004016101ff90610a23565b60405180910390fd5b3373ffffffffffffffffffffffffffffffffffffffff166108fc479081150290604051600060405180830381858888f1935050505015801561024e573d6000803e3d6000fd5b50565b61025961064c565b73ffffffffffffffffffffffffffffffffffffffff16600260009054906101000a900473ffffffffffffffffffffffffffffffffffffffff1673ffffffffffffffffffffffffffffffffffffffff16638da5cb5b6040518163ffffffff1660e01b815260040160206040518083038186803b1580156102d757600080fd5b505afa1580156102eb573d6000803e3d6000fd5b505050506040513d601f19601f8201168201806040525081019061030f91906107e8565b73ffffffffffffffffffffffffffffffffffffffff1614610365576040517f08c379a000000000000000000000000000000000000000000000000000000000815260040161035c90610a23565b60405180910390fd5b806000806101000a81548160ff02191690831515021790555050565b600060019054906101000a900460ff1681565b60008054906101000a900460ff1681565b60008054906101000a900460ff16156103f3576040517f08c379a00000000000000000000000000000000000000000000000000000000081526004016103ea90610a03565b60405180910390fd5b600260009054906101000a900473ffffffffffffffffffffffffffffffffffffffff1673ffffffffffffffffffffffffffffffffffffffff1663235b6ea16040518163ffffffff1660e01b815260040160206040518083038186803b15801561045b57600080fd5b505afa15801561046f573d6000803e3d6000fd5b505050506040513d601f19601f82011682018060405250810190610493919061086f565b3410156104d5576040517f08c379a00000000000000000000000000000000000000000000000000000000081526004016104cc90610a43565b60405180910390fd5b60006104e082610654565b90506000805b60018054905081101561054d57600061051c6001838154811061050c5761050b610b6f565b5b9060005260206000200154610654565b905083602001518160200151141561053b578261053890610af7565b92505b508061054690610af7565b90506104e6565b5060028110610591576040517f08c379a000000000000000000000000000000000000000000000000000000000815260040161058890610a63565b60405180910390fd5b6001839080600181540180825580915050600190039060005260206000200160009091909190915055600260009054906101000a900473ffffffffffffffffffffffffffffffffffffffff1673ffffffffffffffffffffffffffffffffffffffff166342966c68846040518263ffffffff1660e01b81526004016106159190610a83565b600060405180830381600087803b15801561062f57600080fd5b505af1158015610643573d6000803e3d6000fd5b50505050505050565b600033905090565b61065c610757565b610664610757565b600260009054906101000a900473ffffffffffffffffffffffffffffffffffffffff1673ffffffffffffffffffffffffffffffffffffffff1663ea17532e846040518263ffffffff1660e01b81526004016106bf9190610a83565b60e06040518083038186803b1580156106d757600080fd5b505afa1580156106eb573d6000803e3d6000fd5b505050506040513d601f19601f8201168201806040525081019061070f919061089c565b8760000188602001896040018a6060018b6080018c60a0018d60c001878152508781525087815250878152508781525087815250878152505050505050505080915050919050565b6040518060e00160405280600081526020016000815260200160008152602001600081526020016000815260200160008152602001600081525090565b6000815190506107a381610c6d565b92915050565b6000813590506107b881610c84565b92915050565b6000813590506107cd81610c9b565b92915050565b6000815190506107e281610c9b565b92915050565b6000602082840312156107fe576107fd610b9e565b5b600061080c84828501610794565b91505092915050565b60006020828403121561082b5761082a610b9e565b5b6000610839848285016107a9565b91505092915050565b60006020828403121561085857610857610b9e565b5b6000610866848285016107be565b91505092915050565b60006020828403121561088557610884610b9e565b5b6000610893848285016107d3565b91505092915050565b600080600080600080600060e0888a0312156108bb576108ba610b9e565b5b60006108c98a828b016107d3565b97505060206108da8a828b016107d3565b96505060406108eb8a828b016107d3565b95505060606108fc8a828b016107d3565b945050608061090d8a828b016107d3565b93505060a061091e8a828b016107d3565b92505060c061092f8a828b016107d3565b91505092959891949750929550565b61094781610ac1565b82525050565b600061095a600d83610a9e565b915061096582610ba3565b602082019050919050565b600061097d601783610a9e565b915061098882610bcc565b602082019050919050565b60006109a0601983610a9e565b91506109ab82610bf5565b602082019050919050565b60006109c3603383610a9e565b91506109ce82610c1e565b604082019050919050565b6109e281610aed565b82525050565b60006020820190506109fd600083018461093e565b92915050565b60006020820190508181036000830152610a1c8161094d565b9050919050565b60006020820190508181036000830152610a3c81610970565b9050919050565b60006020820190508181036000830152610a5c81610993565b9050919050565b60006020820190508181036000830152610a7c816109b6565b9050919050565b6000602082019050610a9860008301846109d9565b92915050565b600082825260208201905092915050565b6000610aba82610acd565b9050919050565b60008115159050919050565b600073ffffffffffffffffffffffffffffffffffffffff82169050919050565b6000819050919050565b6000610b0282610aed565b91507fffffffffffffffffffffffffffffffffffffffffffffffffffffffffffffffff821415610b3557610b34610b40565b5b600182019050919050565b7f4e487b7100000000000000000000000000000000000000000000000000000000600052601160045260246000fd5b7f4e487b7100000000000000000000000000000000000000000000000000000000600052603260045260246000fd5b600080fd5b7f67616d696e672070617573656400000000000000000000000000000000000000600082015250565b7f63616c6c6572206973206e6f7420746865206f776e6572000000000000000000600082015250565b7f45746865722073656e74206973206e6f7420636f727265637400000000000000600082015250565b7f322068756e676572697465732066726f6d20746869732064697374726963742060008201527f616c726561647920696e207468652067616d6500000000000000000000000000602082015250565b610c7681610aaf565b8114610c8157600080fd5b50565b610c8d81610ac1565b8114610c9857600080fd5b50565b610ca481610aed565b8114610caf57600080fd5b5056fea2646970667358221220509577f9e064d47de9556250d68da621e58fdcc488363e650de54651f4275da064736f6c63430008070033",
  "immutableReferences": {},
  "source": "// SPDX-License-Identifier: MIT\n\npragma solidity ^0.8.0;\n\nimport \"./FullERC721.sol\";\nimport \"./HungerVerse.sol\";\n\ncontract HungerGames is Context {\n\n\tstruct PlayerInfo {\n        uint256 gender;      //0 - FEMALE, 1 - MALE\n        uint256 district;    //1 to 12\n\n        uint256 HS;\n        uint256 IQ;\n        uint256 likes;\n\n        uint256 wins;\n        uint256 burns;\n\t}\n\n    bool public _gamingPaused = true;\n\n    bool public _gameInProgress = false;\n    uint256[] internal players; \n\n    HungerVerse internal verse;\n    constructor() {\n        verse = HungerVerse(0x3532F43fd4Ef445D884e3954506fF1690BF4C658);\n    }\n\n    modifier onlyOwner() {\n        require(verse.owner() == _msgSender(), \"caller is not the owner\");\n        _;\n    }\n    function getPlayerInfo(uint256 tokenId) private view returns (PlayerInfo memory) {\n        PlayerInfo memory player;\n        (player.gender, player.district, player.HS, player.IQ, player.likes, player.wins, player.burns) = verse.getPlayerInfo(tokenId);\n        return player;\n    }\n\tfunction setGamingPaused(bool val) external onlyOwner {\n\t\t_gamingPaused = val;\n\t}\n    function joinGame(uint256 tokenId) external payable {\n        require(!_gamingPaused, \"gaming paused\");\n        require(msg.value >= verse._price(), \"Ether sent is not correct\");\n        \n        PlayerInfo memory player = getPlayerInfo(tokenId);\n        uint256 count = 0;\n        for(uint256 i = 0; i < players.length; ++i) {\n            PlayerInfo memory player2 = getPlayerInfo(players[i]);\n            if(player2.district == player.district) {\n                ++count;\n            }\n        }\n        require(count < 2, \"2 hungerites from this district already in the game\"); \n        players.push(tokenId);\n        verse.burn(tokenId);\n    } \n\n    function withdrawFromGames() external payable onlyOwner {\n        payable(msg.sender).transfer(address(this).balance);\n    }\n}\n",
  "sourcePath": "/home/ec2-user/github/fcc-dapp/src/contracts/HungerGames.sol",
  "compiler": {
    "name": "solc",
    "version": "0.8.7+commit.e28d00a7.Emscripten.clang"
  },
  "schemaVersion": "3.4.3",
  "updatedAt": "2022-01-06T13:03:14.623Z",
  "devdoc": {
    "kind": "dev",
    "methods": {},
    "version": 1
  },
  "userdoc": {
    "kind": "user",
    "methods": {},
    "version": 1
  }
}