{
  "contractName": "HungerVerse",
  "abi": [
    {
      "inputs": [],
      "stateMutability": "nonpayable",
      "type": "constructor"
    },
    {
      "anonymous": false,
      "inputs": [
        {
          "indexed": true,
          "internalType": "address",
          "name": "owner",
          "type": "address"
        },
        {
          "indexed": true,
          "internalType": "address",
          "name": "approved",
          "type": "address"
        },
        {
          "indexed": true,
          "internalType": "uint256",
          "name": "tokenId",
          "type": "uint256"
        }
      ],
      "name": "Approval",
      "type": "event"
    },
    {
      "anonymous": false,
      "inputs": [
        {
          "indexed": true,
          "internalType": "address",
          "name": "owner",
          "type": "address"
        },
        {
          "indexed": true,
          "internalType": "address",
          "name": "operator",
          "type": "address"
        },
        {
          "indexed": false,
          "internalType": "bool",
          "name": "approved",
          "type": "bool"
        }
      ],
      "name": "ApprovalForAll",
      "type": "event"
    },
    {
      "anonymous": false,
      "inputs": [
        {
          "indexed": true,
          "internalType": "address",
          "name": "previousOwner",
          "type": "address"
        },
        {
          "indexed": true,
          "internalType": "address",
          "name": "newOwner",
          "type": "address"
        }
      ],
      "name": "OwnershipTransferred",
      "type": "event"
    },
    {
      "anonymous": false,
      "inputs": [
        {
          "indexed": true,
          "internalType": "address",
          "name": "from",
          "type": "address"
        },
        {
          "indexed": true,
          "internalType": "address",
          "name": "to",
          "type": "address"
        },
        {
          "indexed": true,
          "internalType": "uint256",
          "name": "tokenId",
          "type": "uint256"
        }
      ],
      "name": "Transfer",
      "type": "event"
    },
    {
      "inputs": [],
      "name": "_matingPaused",
      "outputs": [
        {
          "internalType": "bool",
          "name": "",
          "type": "bool"
        }
      ],
      "stateMutability": "view",
      "type": "function"
    },
    {
      "inputs": [],
      "name": "_paused",
      "outputs": [
        {
          "internalType": "bool",
          "name": "",
          "type": "bool"
        }
      ],
      "stateMutability": "view",
      "type": "function"
    },
    {
      "inputs": [],
      "name": "_price",
      "outputs": [
        {
          "internalType": "uint256",
          "name": "",
          "type": "uint256"
        }
      ],
      "stateMutability": "view",
      "type": "function"
    },
    {
      "inputs": [
        {
          "internalType": "address",
          "name": "to",
          "type": "address"
        },
        {
          "internalType": "uint256",
          "name": "tokenId",
          "type": "uint256"
        }
      ],
      "name": "approve",
      "outputs": [],
      "stateMutability": "nonpayable",
      "type": "function"
    },
    {
      "inputs": [
        {
          "internalType": "address",
          "name": "owner",
          "type": "address"
        }
      ],
      "name": "balanceOf",
      "outputs": [
        {
          "internalType": "uint256",
          "name": "",
          "type": "uint256"
        }
      ],
      "stateMutability": "view",
      "type": "function"
    },
    {
      "inputs": [
        {
          "internalType": "uint256",
          "name": "tokenId",
          "type": "uint256"
        }
      ],
      "name": "getApproved",
      "outputs": [
        {
          "internalType": "address",
          "name": "",
          "type": "address"
        }
      ],
      "stateMutability": "view",
      "type": "function"
    },
    {
      "inputs": [],
      "name": "name",
      "outputs": [
        {
          "internalType": "string",
          "name": "",
          "type": "string"
        }
      ],
      "stateMutability": "view",
      "type": "function"
    },
    {
      "inputs": [],
      "name": "owner",
      "outputs": [
        {
          "internalType": "address",
          "name": "",
          "type": "address"
        }
      ],
      "stateMutability": "view",
      "type": "function"
    },
    {
      "inputs": [
        {
          "internalType": "uint256",
          "name": "tokenId",
          "type": "uint256"
        }
      ],
      "name": "ownerOf",
      "outputs": [
        {
          "internalType": "address",
          "name": "",
          "type": "address"
        }
      ],
      "stateMutability": "view",
      "type": "function"
    },
    {
      "inputs": [],
      "name": "renounceOwnership",
      "outputs": [],
      "stateMutability": "nonpayable",
      "type": "function"
    },
    {
      "inputs": [
        {
          "internalType": "address",
          "name": "from",
          "type": "address"
        },
        {
          "internalType": "address",
          "name": "to",
          "type": "address"
        },
        {
          "internalType": "uint256",
          "name": "tokenId",
          "type": "uint256"
        }
      ],
      "name": "safeTransferFrom",
      "outputs": [],
      "stateMutability": "nonpayable",
      "type": "function"
    },
    {
      "inputs": [
        {
          "internalType": "address",
          "name": "from",
          "type": "address"
        },
        {
          "internalType": "address",
          "name": "to",
          "type": "address"
        },
        {
          "internalType": "uint256",
          "name": "tokenId",
          "type": "uint256"
        },
        {
          "internalType": "bytes",
          "name": "_data",
          "type": "bytes"
        }
      ],
      "name": "safeTransferFrom",
      "outputs": [],
      "stateMutability": "nonpayable",
      "type": "function"
    },
    {
      "inputs": [
        {
          "internalType": "address",
          "name": "operator",
          "type": "address"
        },
        {
          "internalType": "bool",
          "name": "approved",
          "type": "bool"
        }
      ],
      "name": "setApprovalForAll",
      "outputs": [],
      "stateMutability": "nonpayable",
      "type": "function"
    },
    {
      "inputs": [
        {
          "internalType": "bytes4",
          "name": "interfaceId",
          "type": "bytes4"
        }
      ],
      "name": "supportsInterface",
      "outputs": [
        {
          "internalType": "bool",
          "name": "",
          "type": "bool"
        }
      ],
      "stateMutability": "view",
      "type": "function"
    },
    {
      "inputs": [],
      "name": "symbol",
      "outputs": [
        {
          "internalType": "string",
          "name": "",
          "type": "string"
        }
      ],
      "stateMutability": "view",
      "type": "function"
    },
    {
      "inputs": [
        {
          "internalType": "uint256",
          "name": "index",
          "type": "uint256"
        }
      ],
      "name": "tokenByIndex",
      "outputs": [
        {
          "internalType": "uint256",
          "name": "",
          "type": "uint256"
        }
      ],
      "stateMutability": "view",
      "type": "function"
    },
    {
      "inputs": [
        {
          "internalType": "address",
          "name": "owner",
          "type": "address"
        },
        {
          "internalType": "uint256",
          "name": "index",
          "type": "uint256"
        }
      ],
      "name": "tokenOfOwnerByIndex",
      "outputs": [
        {
          "internalType": "uint256",
          "name": "",
          "type": "uint256"
        }
      ],
      "stateMutability": "view",
      "type": "function"
    },
    {
      "inputs": [],
      "name": "totalSupply",
      "outputs": [
        {
          "internalType": "uint256",
          "name": "",
          "type": "uint256"
        }
      ],
      "stateMutability": "view",
      "type": "function"
    },
    {
      "inputs": [
        {
          "internalType": "address",
          "name": "from",
          "type": "address"
        },
        {
          "internalType": "address",
          "name": "to",
          "type": "address"
        },
        {
          "internalType": "uint256",
          "name": "tokenId",
          "type": "uint256"
        }
      ],
      "name": "transferFrom",
      "outputs": [],
      "stateMutability": "nonpayable",
      "type": "function"
    },
    {
      "inputs": [
        {
          "internalType": "address",
          "name": "newOwner",
          "type": "address"
        }
      ],
      "name": "transferOwnership",
      "outputs": [],
      "stateMutability": "nonpayable",
      "type": "function"
    },
    {
      "inputs": [
        {
          "internalType": "uint256",
          "name": "tokenId",
          "type": "uint256"
        }
      ],
      "name": "getPlayerInfo",
      "outputs": [
        {
          "internalType": "uint256",
          "name": "",
          "type": "uint256"
        },
        {
          "internalType": "uint256",
          "name": "",
          "type": "uint256"
        },
        {
          "internalType": "uint256",
          "name": "",
          "type": "uint256"
        },
        {
          "internalType": "uint256",
          "name": "",
          "type": "uint256"
        },
        {
          "internalType": "uint256",
          "name": "",
          "type": "uint256"
        },
        {
          "internalType": "uint256",
          "name": "",
          "type": "uint256"
        },
        {
          "internalType": "uint256",
          "name": "",
          "type": "uint256"
        }
      ],
      "stateMutability": "view",
      "type": "function"
    },
    {
      "inputs": [
        {
          "internalType": "uint256",
          "name": "tokenId",
          "type": "uint256"
        }
      ],
      "name": "tokenURI",
      "outputs": [
        {
          "internalType": "string",
          "name": "",
          "type": "string"
        }
      ],
      "stateMutability": "view",
      "type": "function"
    },
    {
      "inputs": [
        {
          "internalType": "uint256",
          "name": "num",
          "type": "uint256"
        }
      ],
      "name": "own",
      "outputs": [],
      "stateMutability": "payable",
      "type": "function"
    },
    {
      "inputs": [
        {
          "internalType": "uint256",
          "name": "tokenIdM",
          "type": "uint256"
        },
        {
          "internalType": "uint256",
          "name": "tokenIdF",
          "type": "uint256"
        }
      ],
      "name": "mate",
      "outputs": [],
      "stateMutability": "payable",
      "type": "function"
    },
    {
      "inputs": [
        {
          "internalType": "uint256",
          "name": "tokenId",
          "type": "uint256"
        }
      ],
      "name": "like",
      "outputs": [],
      "stateMutability": "nonpayable",
      "type": "function"
    },
    {
      "inputs": [
        {
          "internalType": "bool",
          "name": "val",
          "type": "bool"
        }
      ],
      "name": "setMatingPause",
      "outputs": [],
      "stateMutability": "nonpayable",
      "type": "function"
    },
    {
      "inputs": [
        {
          "internalType": "address",
          "name": "spender",
          "type": "address"
        },
        {
          "internalType": "uint256",
          "name": "tokenId",
          "type": "uint256"
        }
      ],
      "name": "isApprovedOrOwner",
      "outputs": [
        {
          "internalType": "bool",
          "name": "",
          "type": "bool"
        }
      ],
      "stateMutability": "view",
      "type": "function"
    },
    {
      "inputs": [
        {
          "internalType": "address",
          "name": "owner",
          "type": "address"
        },
        {
          "internalType": "address",
          "name": "operator",
          "type": "address"
        }
      ],
      "name": "isApprovedForAll",
      "outputs": [
        {
          "internalType": "bool",
          "name": "",
          "type": "bool"
        }
      ],
      "stateMutability": "view",
      "type": "function"
    },
    {
      "inputs": [
        {
          "internalType": "uint256",
          "name": "tokenId",
          "type": "uint256"
        }
      ],
      "name": "burn",
      "outputs": [],
      "stateMutability": "nonpayable",
      "type": "function"
    },
    {
      "inputs": [
        {
          "internalType": "uint256",
          "name": "_newPrice",
          "type": "uint256"
        }
      ],
      "name": "setPrice",
      "outputs": [],
      "stateMutability": "nonpayable",
      "type": "function"
    },
    {
      "inputs": [
        {
          "internalType": "bool",
          "name": "val",
          "type": "bool"
        }
      ],
      "name": "setPause",
      "outputs": [],
      "stateMutability": "nonpayable",
      "type": "function"
    },
    {
      "inputs": [
        {
          "internalType": "address",
          "name": "val",
          "type": "address"
        }
      ],
      "name": "setOtherContract",
      "outputs": [],
      "stateMutability": "nonpayable",
      "type": "function"
    },
    {
      "inputs": [],
      "name": "withdraw",
      "outputs": [],
      "stateMutability": "payable",
      "type": "function"
    }
  ],
  "bytecode": "0x608060405260405180608001604052806040518060400160405280600d81526020017f42656c6f7720417665726167650000000000000000000000000000000000000081525081526020016040518060400160405280600781526020017f417665726167650000000000000000000000000000000000000000000000000081525081526020016040518060400160405280600d81526020017f41626f766520417665726167650000000000000000000000000000000000000081525081526020016040518060400160405280600681526020017f4769667465640000000000000000000000000000000000000000000000000000815250815250600b9060046200010b929190620002ef565b5066b1a2bc2ec50000600c556001600d60006101000a81548160ff0219169083151502179055506001600d60016101000a81548160ff0219169083151502179055503480156200015a57600080fd5b506040518060400160405280600b81526020017f48756e67657256657273650000000000000000000000000000000000000000008152506040518060400160405280600681526020017f48554e47455200000000000000000000000000000000000000000000000000008152508160009080519060200190620001df92919062000356565b508060019080519060200190620001f892919062000356565b5050506200021b6200020f6200022160201b60201c565b6200022960201b60201c565b620004d9565b600033905090565b6000600a60009054906101000a900473ffffffffffffffffffffffffffffffffffffffff16905081600a60006101000a81548173ffffffffffffffffffffffffffffffffffffffff021916908373ffffffffffffffffffffffffffffffffffffffff1602179055508173ffffffffffffffffffffffffffffffffffffffff168173ffffffffffffffffffffffffffffffffffffffff167f8be0079c531659141344cd1fd0a4f28419497f9722a3daafe3b4186f6b6457e060405160405180910390a35050565b82805482825590600052602060002090810192821562000343579160200282015b82811115620003425782518290805190602001906200033192919062000356565b509160200191906001019062000310565b5b509050620003529190620003e7565b5090565b828054620003649062000474565b90600052602060002090601f016020900481019282620003885760008555620003d4565b82601f10620003a357805160ff1916838001178555620003d4565b82800160010185558215620003d4579182015b82811115620003d3578251825591602001919060010190620003b6565b5b509050620003e391906200040f565b5090565b5b808211156200040b57600081816200040191906200042e565b50600101620003e8565b5090565b5b808211156200042a57600081600090555060010162000410565b5090565b5080546200043c9062000474565b6000825580601f1062000450575062000471565b601f0160209004906000526020600020908101906200047091906200040f565b5b50565b600060028204905060018216806200048d57607f821691505b60208210811415620004a457620004a3620004aa565b5b50919050565b7f4e487b7100000000000000000000000000000000000000000000000000000000600052602260045260246000fd5b6158d480620004e96000396000f3fe6080604052600436106101ee5760003560e01c806370a082311161010d578063a912c436116100a0578063e82935da1161006f578063e82935da146106d2578063e86a4593146106fb578063e985e9c514610724578063ea17532e14610761578063f2fde38b146107a4576101ee565b8063a912c43614610627578063b88d4fde14610643578063bedb86fb1461066c578063c87b56dd14610695576101ee565b806391b7f5ed116100dc57806391b7f5ed1461058e57806395d89b41146105b75780639c3f5237146105e2578063a22cb465146105fe576101ee565b806370a08231146104e4578063715018a61461052157806384eb1f11146105385780638da5cb5b14610563576101ee565b80632f745c591161018557806342966c681161015457806342966c6814610404578063430c20811461042d5780634f6ccce71461046a5780636352211e146104a7576101ee565b80632f745c591461036b57806335a28f3e146103a85780633ccfd60b146103d157806342842e0e146103db576101ee565b806316c61ccc116101c157806316c61ccc146102c157806318160ddd146102ec578063235b6ea11461031757806323b872dd14610342576101ee565b806301ffc9a7146101f357806306fdde0314610230578063081812fc1461025b578063095ea7b314610298575b600080fd5b3480156101ff57600080fd5b5061021a60048036038101906102159190613f05565b6107cd565b60405161022791906145bf565b60405180910390f35b34801561023c57600080fd5b50610245610847565b60405161025291906145da565b60405180910390f35b34801561026757600080fd5b50610282600480360381019061027d9190613f5f565b6108d9565b60405161028f9190614558565b60405180910390f35b3480156102a457600080fd5b506102bf60048036038101906102ba9190613e98565b61095e565b005b3480156102cd57600080fd5b506102d6610a76565b6040516102e391906145bf565b60405180910390f35b3480156102f857600080fd5b50610301610a89565b60405161030e919061493c565b60405180910390f35b34801561032357600080fd5b5061032c610a96565b604051610339919061493c565b60405180910390f35b34801561034e57600080fd5b5061036960048036038101906103649190613d82565b610a9c565b005b34801561037757600080fd5b50610392600480360381019061038d9190613e98565b610afc565b60405161039f919061493c565b60405180910390f35b3480156103b457600080fd5b506103cf60048036038101906103ca9190613d15565b610ba1565b005b6103d9610c61565b005b3480156103e757600080fd5b5061040260048036038101906103fd9190613d82565b610d37565b005b34801561041057600080fd5b5061042b60048036038101906104269190613f5f565b610d57565b005b34801561043957600080fd5b50610454600480360381019061044f9190613e98565b610d8f565b60405161046191906145bf565b60405180910390f35b34801561047657600080fd5b50610491600480360381019061048c9190613f5f565b610da3565b60405161049e919061493c565b60405180910390f35b3480156104b357600080fd5b506104ce60048036038101906104c99190613f5f565b610e14565b6040516104db9190614558565b60405180910390f35b3480156104f057600080fd5b5061050b60048036038101906105069190613d15565b610ec6565b604051610518919061493c565b60405180910390f35b34801561052d57600080fd5b50610536610f7e565b005b34801561054457600080fd5b5061054d611006565b60405161055a91906145bf565b60405180910390f35b34801561056f57600080fd5b50610578611019565b6040516105859190614558565b60405180910390f35b34801561059a57600080fd5b506105b560048036038101906105b09190613f5f565b611043565b005b3480156105c357600080fd5b506105cc6110c9565b6040516105d991906145da565b60405180910390f35b6105fc60048036038101906105f79190613f8c565b61115b565b005b34801561060a57600080fd5b5061062560048036038101906106209190613e58565b611438565b005b610641600480360381019061063c9190613f5f565b6115b9565b005b34801561064f57600080fd5b5061066a60048036038101906106659190613dd5565b611768565b005b34801561067857600080fd5b50610693600480360381019061068e9190613ed8565b6117ca565b005b3480156106a157600080fd5b506106bc60048036038101906106b79190613f5f565b611863565b6040516106c991906145da565b60405180910390f35b3480156106de57600080fd5b506106f960048036038101906106f49190613f5f565b61232c565b005b34801561070757600080fd5b50610722600480360381019061071d9190613ed8565b61235b565b005b34801561073057600080fd5b5061074b60048036038101906107469190613d42565b6123f4565b60405161075891906145bf565b60405180910390f35b34801561076d57600080fd5b5061078860048036038101906107839190613f5f565b612460565b60405161079b9796959493929190614957565b60405180910390f35b3480156107b057600080fd5b506107cb60048036038101906107c69190613d15565b61251a565b005b60007f780e9d63000000000000000000000000000000000000000000000000000000007bffffffffffffffffffffffffffffffffffffffffffffffffffffffff1916827bffffffffffffffffffffffffffffffffffffffffffffffffffffffff19161480610840575061083f82612612565b5b9050919050565b60606000805461085690614c2a565b80601f016020809104026020016040519081016040528092919081815260200182805461088290614c2a565b80156108cf5780601f106108a4576101008083540402835291602001916108cf565b820191906000526020600020905b8154815290600101906020018083116108b257829003601f168201915b5050505050905090565b60006108e4826126f4565b610923576040517f08c379a000000000000000000000000000000000000000000000000000000000815260040161091a906147dc565b60405180910390fd5b6004600083815260200190815260200160002060009054906101000a900473ffffffffffffffffffffffffffffffffffffffff169050919050565b600061096982610e14565b90508073ffffffffffffffffffffffffffffffffffffffff168373ffffffffffffffffffffffffffffffffffffffff1614156109da576040517f08c379a00000000000000000000000000000000000000000000000000000000081526004016109d19061485c565b60405180910390fd5b8073ffffffffffffffffffffffffffffffffffffffff166109f9612760565b73ffffffffffffffffffffffffffffffffffffffff161480610a285750610a2781610a22612760565b6123f4565b5b610a67576040517f08c379a0000000000000000000000000000000000000000000000000000000008152600401610a5e9061473c565b60405180910390fd5b610a718383612768565b505050565b600d60009054906101000a900460ff1681565b6000600880549050905090565b600c5481565b610aad610aa7612760565b82612821565b610aec576040517f08c379a0000000000000000000000000000000000000000000000000000000008152600401610ae3906148bc565b60405180910390fd5b610af78383836128ff565b505050565b6000610b0783610ec6565b8210610b48576040517f08c379a0000000000000000000000000000000000000000000000000000000008152600401610b3f9061461c565b60405180910390fd5b600660008473ffffffffffffffffffffffffffffffffffffffff1673ffffffffffffffffffffffffffffffffffffffff168152602001908152602001600020600083815260200190815260200160002054905092915050565b610ba9612760565b73ffffffffffffffffffffffffffffffffffffffff16610bc7611019565b73ffffffffffffffffffffffffffffffffffffffff1614610c1d576040517f08c379a0000000000000000000000000000000000000000000000000000000008152600401610c149061481c565b60405180910390fd5b80600d60026101000a81548173ffffffffffffffffffffffffffffffffffffffff021916908373ffffffffffffffffffffffffffffffffffffffff16021790555050565b610c69612760565b73ffffffffffffffffffffffffffffffffffffffff16610c87611019565b73ffffffffffffffffffffffffffffffffffffffff1614610cdd576040517f08c379a0000000000000000000000000000000000000000000000000000000008152600401610cd49061481c565b60405180910390fd5b6000734af0bb035ffb1cbefa550530917e151a53034d7090508073ffffffffffffffffffffffffffffffffffffffff166108fc479081150290604051600060405180830381858888f19350505050610d3457600080fd5b50565b610d5283838360405180602001604052806000815250611768565b505050565b600e60008281526020019081526020016000206007016000815480929190610d7e90614c8d565b9190505550610d8c81612b5b565b50565b6000610d9b8383612821565b905092915050565b6000610dad610a89565b8210610dee576040517f08c379a0000000000000000000000000000000000000000000000000000000008152600401610de5906148dc565b60405180910390fd5b60088281548110610e0257610e01614dc3565b5b90600052602060002001549050919050565b6000806002600084815260200190815260200160002060009054906101000a900473ffffffffffffffffffffffffffffffffffffffff169050600073ffffffffffffffffffffffffffffffffffffffff168173ffffffffffffffffffffffffffffffffffffffff161415610ebd576040517f08c379a0000000000000000000000000000000000000000000000000000000008152600401610eb49061477c565b60405180910390fd5b80915050919050565b60008073ffffffffffffffffffffffffffffffffffffffff168273ffffffffffffffffffffffffffffffffffffffff161415610f37576040517f08c379a0000000000000000000000000000000000000000000000000000000008152600401610f2e9061475c565b60405180910390fd5b600360008373ffffffffffffffffffffffffffffffffffffffff1673ffffffffffffffffffffffffffffffffffffffff168152602001908152602001600020549050919050565b610f86612760565b73ffffffffffffffffffffffffffffffffffffffff16610fa4611019565b73ffffffffffffffffffffffffffffffffffffffff1614610ffa576040517f08c379a0000000000000000000000000000000000000000000000000000000008152600401610ff19061481c565b60405180910390fd5b6110046000612c6c565b565b600d60019054906101000a900460ff1681565b6000600a60009054906101000a900473ffffffffffffffffffffffffffffffffffffffff16905090565b61104b612760565b73ffffffffffffffffffffffffffffffffffffffff16611069611019565b73ffffffffffffffffffffffffffffffffffffffff16146110bf576040517f08c379a00000000000000000000000000000000000000000000000000000000081526004016110b69061481c565b60405180910390fd5b80600c8190555050565b6060600180546110d890614c2a565b80601f016020809104026020016040519081016040528092919081815260200182805461110490614c2a565b80156111515780601f1061112657610100808354040283529160200191611151565b820191906000526020600020905b81548152906001019060200180831161113457829003601f168201915b5050505050905090565b600d60019054906101000a900460ff16156111ab576040517f08c379a00000000000000000000000000000000000000000000000000000000081526004016111a2906148fc565b60405180910390fd5b6111b53383612821565b80156111c757506111c63382612821565b5b611206576040517f08c379a00000000000000000000000000000000000000000000000000000000081526004016111fd906147bc565b60405180910390fd5b6001600e6000848152602001908152602001600020600001541461125f576040517f08c379a00000000000000000000000000000000000000000000000000000000081526004016112569061491c565b60405180910390fd5b6000600e6000838152602001908152602001600020905060008160000154146112bd576040517f08c379a00000000000000000000000000000000000000000000000000000000081526004016112b4906146dc565b60405180910390fd5b6000816002015411611304576040517f08c379a00000000000000000000000000000000000000000000000000000000081526004016112fb906147fc565b60405180910390fd5b615dc08160020154611314610a89565b61131e9190614a5f565b111561135f576040517f08c379a00000000000000000000000000000000000000000000000000000000081526004016113569061487c565b60405180910390fd5b80600201546002600c546113739190614ab5565b61137d9190614ae6565b3410156113bf576040517f08c379a00000000000000000000000000000000000000000000000000000000081526004016113b69061489c565b60405180910390fd5b600080600190505b615dc08111611427576113d9816126f4565b156113e357611414565b6113ec81612d32565b6113f63382612f42565b82600201548261140590614c8d565b925082141561141357611427565b5b808061141f90614c8d565b9150506113c7565b506000826002018190555050505050565b611440612760565b73ffffffffffffffffffffffffffffffffffffffff168273ffffffffffffffffffffffffffffffffffffffff1614156114ae576040517f08c379a00000000000000000000000000000000000000000000000000000000081526004016114a5906146bc565b60405180910390fd5b80600560006114bb612760565b73ffffffffffffffffffffffffffffffffffffffff1673ffffffffffffffffffffffffffffffffffffffff16815260200190815260200160002060008473ffffffffffffffffffffffffffffffffffffffff1673ffffffffffffffffffffffffffffffffffffffff16815260200190815260200160002060006101000a81548160ff0219169083151502179055508173ffffffffffffffffffffffffffffffffffffffff16611568612760565b73ffffffffffffffffffffffffffffffffffffffff167f17307eab39ab6107e8899845ad3d59bd9653f200f220920489ca2b5937696c31836040516115ad91906145bf565b60405180910390a35050565b600d60009054906101000a900460ff1615611609576040517f08c379a0000000000000000000000000000000000000000000000000000000008152600401611600906145fc565b60405180910390fd5b6000811180156116195750601581105b611658576040517f08c379a000000000000000000000000000000000000000000000000000000000815260040161164f9061471c565b60405180910390fd5b615dc081611664610a89565b61166e9190614a5f565b11156116af576040517f08c379a00000000000000000000000000000000000000000000000000000000081526004016116a69061487c565b60405180910390fd5b80600c546116bd9190614ae6565b3410156116ff576040517f08c379a00000000000000000000000000000000000000000000000000000000081526004016116f69061489c565b60405180910390fd5b600080600190505b615dc0811161176357611719816126f4565b1561172357611750565b61172c81612d32565b6117363382612f42565b828261174190614c8d565b925082141561174f57611763565b5b808061175b90614c8d565b915050611707565b505050565b611779611773612760565b83612821565b6117b8576040517f08c379a00000000000000000000000000000000000000000000000000000000081526004016117af906148bc565b60405180910390fd5b6117c484848484612f60565b50505050565b6117d2612760565b73ffffffffffffffffffffffffffffffffffffffff166117f0611019565b73ffffffffffffffffffffffffffffffffffffffff1614611846576040517f08c379a000000000000000000000000000000000000000000000000000000000815260040161183d9061481c565b60405180910390fd5b80600d60006101000a81548160ff02191690831515021790555050565b60606000604051806020016040528060008152509050611881613c14565b60006040518060a0016040528060628152602001615725606291398282806118a890614c8d565b9350602081106118bb576118ba614dc3565b5b6020020181905250604051806080016040528060478152602001615680604791398282806118e890614c8d565b9350602081106118fb576118fa614dc3565b5b60200201819052506040518060800160405280604e8152602001615823604e913982828061192890614c8d565b93506020811061193b5761193a614dc3565b5b60200201819052506040518060600160405280603081526020016156f56030913982828061196890614c8d565b93506020811061197b5761197a614dc3565b5b60200201819052506040518060600160405280602681526020016155fe602691398282806119a890614c8d565b9350602081106119bb576119ba614dc3565b5b60200201819052506000600e60008781526020019081526020016000206000015414611a1c576040518060400160405280600481526020017f4d616c6500000000000000000000000000000000000000000000000000000000815250611a53565b6040518060400160405280600681526020017f46656d616c6500000000000000000000000000000000000000000000000000008152505b828280611a5f90614c8d565b935060208110611a7257611a71614dc3565b5b60200201819052506040518060600160405280602d81526020016155d1602d9139828280611a9f90614c8d565b935060208110611ab257611ab1614dc3565b5b60200201819052506040518060400160405280600a81526020017f44697374726963743a0900000000000000000000000000000000000000000000815250828280611afc90614c8d565b935060208110611b0f57611b0e614dc3565b5b6020020181905250611b36600e600087815260200190815260200160002060010154612fbc565b828280611b4290614c8d565b935060208110611b5557611b54614dc3565b5b60200201819052506000600e6000878152602001908152602001600020600001541415611c60576040518060600160405280602e8152602001615652602e9139828280611ba190614c8d565b935060208110611bb457611bb3614dc3565b5b60200201819052506040518060400160405280600c81526020017f4f6666737072696e67733a090000000000000000000000000000000000000000815250828280611bfe90614c8d565b935060208110611c1157611c10614dc3565b5b6020020181905250611c38600e600087815260200190815260200160002060020154612fbc565b828280611c4490614c8d565b935060208110611c5757611c56614dc3565b5b60200201819052505b6040518060600160405280602e8152602001615624602e9139828280611c8590614c8d565b935060208110611c9857611c97614dc3565b5b60200201819052506040518060400160405280600f81526020017f48756e74696e67536b696c6c733a090000000000000000000000000000000000815250828280611ce290614c8d565b935060208110611cf557611cf4614dc3565b5b6020020181905250600b600e60008781526020019081526020016000206003015481548110611d2757611d26614dc3565b5b906000526020600020018054611d3c90614c2a565b80601f0160208091040260200160405190810160405280929190818152602001828054611d6890614c2a565b8015611db55780601f10611d8a57610100808354040283529160200191611db5565b820191906000526020600020905b815481529060010190602001808311611d9857829003601f168201915b5050505050828280611dc690614c8d565b935060208110611dd957611dd8614dc3565b5b60200201819052506040518060600160405280602e81526020016156c7602e9139828280611e0690614c8d565b935060208110611e1957611e18614dc3565b5b60200201819052506040518060400160405280600481526020017f49513a0900000000000000000000000000000000000000000000000000000000815250828280611e6390614c8d565b935060208110611e7657611e75614dc3565b5b6020020181905250600b600e60008781526020019081526020016000206004015481548110611ea857611ea7614dc3565b5b906000526020600020018054611ebd90614c2a565b80601f0160208091040260200160405190810160405280929190818152602001828054611ee990614c2a565b8015611f365780601f10611f0b57610100808354040283529160200191611f36565b820191906000526020600020905b815481529060010190602001808311611f1957829003601f168201915b5050505050828280611f4790614c8d565b935060208110611f5a57611f59614dc3565b5b60200201819052506040518060600160405280602e81526020016157f5602e9139828280611f8790614c8d565b935060208110611f9a57611f99614dc3565b5b60200201819052506040518060400160405280600781526020017f4c696b65733a0900000000000000000000000000000000000000000000000000815250828280611fe490614c8d565b935060208110611ff757611ff6614dc3565b5b602002018190525061201e600e600087815260200190815260200160002060050154612fbc565b82828061202a90614c8d565b93506020811061203d5761203c614dc3565b5b60200201819052506040518060600160405280602e8152602001615787602e913982828061206a90614c8d565b93506020811061207d5761207c614dc3565b5b60200201819052506040518060400160405280600681526020017f77696e733a0900000000000000000000000000000000000000000000000000008152508282806120c790614c8d565b9350602081106120da576120d9614dc3565b5b6020020181905250612101600e600087815260200190815260200160002060060154612fbc565b82828061210d90614c8d565b9350602081106121205761211f614dc3565b5b60200201819052506040518060600160405280602e8152602001615871602e913982828061214d90614c8d565b9350602081106121605761215f614dc3565b5b60200201819052506040518060400160405280600781526020017f6275726e733a09000000000000000000000000000000000000000000000000008152508282806121aa90614c8d565b9350602081106121bd576121bc614dc3565b5b60200201819052506121e4600e600087815260200190815260200160002060070154612fbc565b8282806121f090614c8d565b93506020811061220357612202614dc3565b5b60200201819052506040518060400160405280600d81526020017f3c2f746578743e3c2f7376673e0000000000000000000000000000000000000081525082828061224d90614c8d565b9350602081106122605761225f614dc3565b5b602002018190525060005b818110156122bf578383826020811061228757612286614dc3565b5b602002015160405160200161229d9291906144cd565b6040516020818303038152906040529350806122b890614c8d565b905061226b565b5060006122fc6122ce87612fbc565b6122d78661311d565b6040516020016122e8929190614513565b60405160208183030381529060405261311d565b90508060405160200161230f91906144f1565b604051602081830303815290604052935083945050505050919050565b600e6000828152602001908152602001600020600501600081548092919061235390614c8d565b919050555050565b612363612760565b73ffffffffffffffffffffffffffffffffffffffff16612381611019565b73ffffffffffffffffffffffffffffffffffffffff16146123d7576040517f08c379a00000000000000000000000000000000000000000000000000000000081526004016123ce9061481c565b60405180910390fd5b80600d60016101000a81548160ff02191690831515021790555050565b6000600d60029054906101000a900473ffffffffffffffffffffffffffffffffffffffff1673ffffffffffffffffffffffffffffffffffffffff168273ffffffffffffffffffffffffffffffffffffffff161480612458575061245783836132b5565b5b905092915050565b600080600080600080600080600e60008a81526020019081526020016000206040518061010001604052908160008201548152602001600182015481526020016002820154815260200160038201548152602001600482015481526020016005820154815260200160068201548152602001600782015481525050905080600001518160200151826060015183608001518460a001518560c001518660e00151975097509750975097509750975050919395979092949650565b612522612760565b73ffffffffffffffffffffffffffffffffffffffff16612540611019565b73ffffffffffffffffffffffffffffffffffffffff1614612596576040517f08c379a000000000000000000000000000000000000000000000000000000000815260040161258d9061481c565b60405180910390fd5b600073ffffffffffffffffffffffffffffffffffffffff168173ffffffffffffffffffffffffffffffffffffffff161415612606576040517f08c379a00000000000000000000000000000000000000000000000000000000081526004016125fd9061465c565b60405180910390fd5b61260f81612c6c565b50565b60007f80ac58cd000000000000000000000000000000000000000000000000000000007bffffffffffffffffffffffffffffffffffffffffffffffffffffffff1916827bffffffffffffffffffffffffffffffffffffffffffffffffffffffff191614806126dd57507f5b5e139f000000000000000000000000000000000000000000000000000000007bffffffffffffffffffffffffffffffffffffffffffffffffffffffff1916827bffffffffffffffffffffffffffffffffffffffffffffffffffffffff1916145b806126ed57506126ec82613349565b5b9050919050565b60008073ffffffffffffffffffffffffffffffffffffffff166002600084815260200190815260200160002060009054906101000a900473ffffffffffffffffffffffffffffffffffffffff1673ffffffffffffffffffffffffffffffffffffffff1614159050919050565b600033905090565b816004600083815260200190815260200160002060006101000a81548173ffffffffffffffffffffffffffffffffffffffff021916908373ffffffffffffffffffffffffffffffffffffffff160217905550808273ffffffffffffffffffffffffffffffffffffffff166127db83610e14565b73ffffffffffffffffffffffffffffffffffffffff167f8c5be1e5ebec7d5bd14f71427d1e84f3dd0314c0f7b2291e5b200ac8c7c3b92560405160405180910390a45050565b600061282c826126f4565b61286b576040517f08c379a0000000000000000000000000000000000000000000000000000000008152600401612862906146fc565b60405180910390fd5b600061287683610e14565b90508073ffffffffffffffffffffffffffffffffffffffff168473ffffffffffffffffffffffffffffffffffffffff1614806128e557508373ffffffffffffffffffffffffffffffffffffffff166128cd846108d9565b73ffffffffffffffffffffffffffffffffffffffff16145b806128f657506128f581856123f4565b5b91505092915050565b8273ffffffffffffffffffffffffffffffffffffffff1661291f82610e14565b73ffffffffffffffffffffffffffffffffffffffff1614612975576040517f08c379a000000000000000000000000000000000000000000000000000000000815260040161296c9061483c565b60405180910390fd5b600073ffffffffffffffffffffffffffffffffffffffff168273ffffffffffffffffffffffffffffffffffffffff1614156129e5576040517f08c379a00000000000000000000000000000000000000000000000000000000081526004016129dc9061469c565b60405180910390fd5b6129f08383836133b3565b6129fb600082612768565b6001600360008573ffffffffffffffffffffffffffffffffffffffff1673ffffffffffffffffffffffffffffffffffffffff1681526020019081526020016000206000828254612a4b9190614b40565b925050819055506001600360008473ffffffffffffffffffffffffffffffffffffffff1673ffffffffffffffffffffffffffffffffffffffff1681526020019081526020016000206000828254612aa29190614a5f565b92505081905550816002600083815260200190815260200160002060006101000a81548173ffffffffffffffffffffffffffffffffffffffff021916908373ffffffffffffffffffffffffffffffffffffffff160217905550808273ffffffffffffffffffffffffffffffffffffffff168473ffffffffffffffffffffffffffffffffffffffff167fddf252ad1be2c89b69c2b068fc378daa952ba7f163c4a11628f55a4df523b3ef60405160405180910390a4505050565b6000612b6682610e14565b9050612b74816000846133b3565b612b7f600083612768565b6001600360008373ffffffffffffffffffffffffffffffffffffffff1673ffffffffffffffffffffffffffffffffffffffff1681526020019081526020016000206000828254612bcf9190614b40565b925050819055506002600083815260200190815260200160002060006101000a81549073ffffffffffffffffffffffffffffffffffffffff021916905581600073ffffffffffffffffffffffffffffffffffffffff168273ffffffffffffffffffffffffffffffffffffffff167fddf252ad1be2c89b69c2b068fc378daa952ba7f163c4a11628f55a4df523b3ef60405160405180910390a45050565b6000600a60009054906101000a900473ffffffffffffffffffffffffffffffffffffffff16905081600a60006101000a81548173ffffffffffffffffffffffffffffffffffffffff021916908373ffffffffffffffffffffffffffffffffffffffff1602179055508173ffffffffffffffffffffffffffffffffffffffff168173ffffffffffffffffffffffffffffffffffffffff167f8be0079c531659141344cd1fd0a4f28419497f9722a3daafe3b4186f6b6457e060405160405180910390a35050565b6000600e600083815260200190815260200160002090506002612d8a836040518060400160405280600681526020017f47454e44455200000000000000000000000000000000000000000000000000008152506134c7565b612d949190614cd6565b8160000181905550600c612ddd836040518060400160405280600881526020017f44495354524943540000000000000000000000000000000000000000000000008152506134c7565b612de79190614cd6565b6001612df39190614a5f565b8160010181905550600081600001541415612e5c576009612e49836040518060400160405280600a81526020017f4f4646535052494e4753000000000000000000000000000000000000000000008152506134c7565b612e539190614cd6565b81600201819055505b6004612e9d836040518060400160405280600781526020017f48554e54494e47000000000000000000000000000000000000000000000000008152506134c7565b82600701548360060154612eb19190614a5f565b612ebb9190614a5f565b612ec59190614cd6565b81600301819055506004612f0e836040518060400160405280600781526020017f495153434f5245000000000000000000000000000000000000000000000000008152506134c7565b82600701548360060154612f229190614a5f565b612f2c9190614a5f565b612f369190614cd6565b81600401819055505050565b612f5c828260405180602001604052806000815250613503565b5050565b612f6b8484846128ff565b612f778484848461355e565b612fb6576040517f08c379a0000000000000000000000000000000000000000000000000000000008152600401612fad9061463c565b60405180910390fd5b50505050565b60606000821415613004576040518060400160405280600181526020017f30000000000000000000000000000000000000000000000000000000000000008152509050613118565b600082905060005b6000821461303657808061301f90614c8d565b915050600a8261302f9190614ab5565b915061300c565b60008167ffffffffffffffff81111561305257613051614df2565b5b6040519080825280601f01601f1916602001820160405280156130845781602001600182028036833780820191505090505b5090505b600085146131115760018261309d9190614b40565b9150600a856130ac9190614cd6565b60306130b89190614a5f565b60f81b8183815181106130ce576130cd614dc3565b5b60200101907effffffffffffffffffffffffffffffffffffffffffffffffffffffffffffff1916908160001a905350600a8561310a9190614ab5565b9450613088565b8093505050505b919050565b6060600082519050600081141561314657604051806020016040528060008152509150506132b0565b600060036002836131579190614a5f565b6131619190614ab5565b600461316d9190614ae6565b9050600060208261317e9190614a5f565b67ffffffffffffffff81111561319757613196614df2565b5b6040519080825280601f01601f1916602001820160405280156131c95781602001600182028036833780820191505090505b50905060006040518060600160405280604081526020016157b5604091399050600181016020830160005b8681101561326d5760038101905062ffffff818a015116603f8160121c168401518060081b905060ff603f83600c1c1686015116810190508060081b905060ff603f8360061c1686015116810190508060081b905060ff603f831686015116810190508060e01b905080845260048401935050506131f4565b5060038606600181146132875760028114613297576132a2565b613d3d60f01b60028303526132a2565b603d60f81b60018303525b508484525050819450505050505b919050565b6000600560008473ffffffffffffffffffffffffffffffffffffffff1673ffffffffffffffffffffffffffffffffffffffff16815260200190815260200160002060008373ffffffffffffffffffffffffffffffffffffffff1673ffffffffffffffffffffffffffffffffffffffff16815260200190815260200160002060009054906101000a900460ff16905092915050565b60007f01ffc9a7000000000000000000000000000000000000000000000000000000007bffffffffffffffffffffffffffffffffffffffffffffffffffffffff1916827bffffffffffffffffffffffffffffffffffffffffffffffffffffffff1916149050919050565b6133be8383836136f5565b600073ffffffffffffffffffffffffffffffffffffffff168373ffffffffffffffffffffffffffffffffffffffff161415613401576133fc816136fa565b613440565b8173ffffffffffffffffffffffffffffffffffffffff168373ffffffffffffffffffffffffffffffffffffffff161461343f5761343e8382613743565b5b5b600073ffffffffffffffffffffffffffffffffffffffff168273ffffffffffffffffffffffffffffffffffffffff1614156134835761347e816138b0565b6134c2565b8273ffffffffffffffffffffffffffffffffffffffff168273ffffffffffffffffffffffffffffffffffffffff16146134c1576134c08282613981565b5b5b505050565b60006134fb826134d685612fbc565b6040516020016134e79291906144cd565b604051602081830303815290604052613a00565b905092915050565b61350d8383613a33565b61351a600084848461355e565b613559576040517f08c379a00000000000000000000000000000000000000000000000000000000081526004016135509061463c565b60405180910390fd5b505050565b600061357f8473ffffffffffffffffffffffffffffffffffffffff16613c01565b156136e8578373ffffffffffffffffffffffffffffffffffffffff1663150b7a026135a8612760565b8786866040518563ffffffff1660e01b81526004016135ca9493929190614573565b602060405180830381600087803b1580156135e457600080fd5b505af192505050801561361557506040513d601f19601f820116820180604052508101906136129190613f32565b60015b613698573d8060008114613645576040519150601f19603f3d011682016040523d82523d6000602084013e61364a565b606091505b50600081511415613690576040517f08c379a00000000000000000000000000000000000000000000000000000000081526004016136879061463c565b60405180910390fd5b805181602001fd5b63150b7a0260e01b7bffffffffffffffffffffffffffffffffffffffffffffffffffffffff1916817bffffffffffffffffffffffffffffffffffffffffffffffffffffffff1916149150506136ed565b600190505b949350505050565b505050565b6008805490506009600083815260200190815260200160002081905550600881908060018154018082558091505060019003906000526020600020016000909190919091505550565b6000600161375084610ec6565b61375a9190614b40565b905060006007600084815260200190815260200160002054905081811461383f576000600660008673ffffffffffffffffffffffffffffffffffffffff1673ffffffffffffffffffffffffffffffffffffffff168152602001908152602001600020600084815260200190815260200160002054905080600660008773ffffffffffffffffffffffffffffffffffffffff1673ffffffffffffffffffffffffffffffffffffffff168152602001908152602001600020600084815260200190815260200160002081905550816007600083815260200190815260200160002081905550505b6007600084815260200190815260200160002060009055600660008573ffffffffffffffffffffffffffffffffffffffff1673ffffffffffffffffffffffffffffffffffffffff16815260200190815260200160002060008381526020019081526020016000206000905550505050565b600060016008805490506138c49190614b40565b90506000600960008481526020019081526020016000205490506000600883815481106138f4576138f3614dc3565b5b90600052602060002001549050806008838154811061391657613915614dc3565b5b90600052602060002001819055508160096000838152602001908152602001600020819055506009600085815260200190815260200160002060009055600880548061396557613964614d94565b5b6001900381819060005260206000200160009055905550505050565b600061398c83610ec6565b905081600660008573ffffffffffffffffffffffffffffffffffffffff1673ffffffffffffffffffffffffffffffffffffffff168152602001908152602001600020600083815260200190815260200160002081905550806007600084815260200190815260200160002081905550505050565b600081604051602001613a1391906144b6565b6040516020818303038152906040528051906020012060001c9050919050565b600073ffffffffffffffffffffffffffffffffffffffff168273ffffffffffffffffffffffffffffffffffffffff161415613aa3576040517f08c379a0000000000000000000000000000000000000000000000000000000008152600401613a9a9061479c565b60405180910390fd5b613aac816126f4565b15613aec576040517f08c379a0000000000000000000000000000000000000000000000000000000008152600401613ae39061467c565b60405180910390fd5b613af8600083836133b3565b6001600360008473ffffffffffffffffffffffffffffffffffffffff1673ffffffffffffffffffffffffffffffffffffffff1681526020019081526020016000206000828254613b489190614a5f565b92505081905550816002600083815260200190815260200160002060006101000a81548173ffffffffffffffffffffffffffffffffffffffff021916908373ffffffffffffffffffffffffffffffffffffffff160217905550808273ffffffffffffffffffffffffffffffffffffffff16600073ffffffffffffffffffffffffffffffffffffffff167fddf252ad1be2c89b69c2b068fc378daa952ba7f163c4a11628f55a4df523b3ef60405160405180910390a45050565b600080823b905060008111915050919050565b6040518061040001604052806020905b6060815260200190600190039081613c245790505090565b6000613c4f613c4a846149eb565b6149c6565b905082815260208101848484011115613c6b57613c6a614e26565b5b613c76848285614be8565b509392505050565b600081359050613c8d81615574565b92915050565b600081359050613ca28161558b565b92915050565b600081359050613cb7816155a2565b92915050565b600081519050613ccc816155a2565b92915050565b600082601f830112613ce757613ce6614e21565b5b8135613cf7848260208601613c3c565b91505092915050565b600081359050613d0f816155b9565b92915050565b600060208284031215613d2b57613d2a614e30565b5b6000613d3984828501613c7e565b91505092915050565b60008060408385031215613d5957613d58614e30565b5b6000613d6785828601613c7e565b9250506020613d7885828601613c7e565b9150509250929050565b600080600060608486031215613d9b57613d9a614e30565b5b6000613da986828701613c7e565b9350506020613dba86828701613c7e565b9250506040613dcb86828701613d00565b9150509250925092565b60008060008060808587031215613def57613dee614e30565b5b6000613dfd87828801613c7e565b9450506020613e0e87828801613c7e565b9350506040613e1f87828801613d00565b925050606085013567ffffffffffffffff811115613e4057613e3f614e2b565b5b613e4c87828801613cd2565b91505092959194509250565b60008060408385031215613e6f57613e6e614e30565b5b6000613e7d85828601613c7e565b9250506020613e8e85828601613c93565b9150509250929050565b60008060408385031215613eaf57613eae614e30565b5b6000613ebd85828601613c7e565b9250506020613ece85828601613d00565b9150509250929050565b600060208284031215613eee57613eed614e30565b5b6000613efc84828501613c93565b91505092915050565b600060208284031215613f1b57613f1a614e30565b5b6000613f2984828501613ca8565b91505092915050565b600060208284031215613f4857613f47614e30565b5b6000613f5684828501613cbd565b91505092915050565b600060208284031215613f7557613f74614e30565b5b6000613f8384828501613d00565b91505092915050565b60008060408385031215613fa357613fa2614e30565b5b6000613fb185828601613d00565b9250506020613fc285828601613d00565b9150509250929050565b613fd581614b74565b82525050565b613fe481614b86565b82525050565b6000613ff582614a1c565b613fff8185614a32565b935061400f818560208601614bf7565b61401881614e35565b840191505092915050565b600061402e82614a27565b6140388185614a43565b9350614048818560208601614bf7565b61405181614e35565b840191505092915050565b600061406782614a27565b6140718185614a54565b9350614081818560208601614bf7565b80840191505092915050565b600061409a600b83614a43565b91506140a582614e46565b602082019050919050565b60006140bd602b83614a43565b91506140c882614e6f565b604082019050919050565b60006140e0603283614a43565b91506140eb82614ebe565b604082019050919050565b6000614103602683614a43565b915061410e82614f0d565b604082019050919050565b6000614126601c83614a43565b915061413182614f5c565b602082019050919050565b6000614149602483614a43565b915061415482614f85565b604082019050919050565b600061416c601983614a43565b915061417782614fd4565b602082019050919050565b600061418f601d83614a43565b915061419a82614ffd565b602082019050919050565b60006141b2602c83614a43565b91506141bd82615026565b604082019050919050565b60006141d5602783614a43565b91506141e082615075565b604082019050919050565b60006141f8603883614a43565b9150614203826150c4565b604082019050919050565b600061421b602a83614a43565b915061422682615113565b604082019050919050565b600061423e602983614a43565b915061424982615162565b604082019050919050565b6000614261600283614a54565b915061426c826151b1565b600282019050919050565b6000614284602083614a43565b915061428f826151da565b602082019050919050565b60006142a7600e83614a43565b91506142b282615203565b602082019050919050565b60006142ca602c83614a43565b91506142d58261522c565b604082019050919050565b60006142ed600d83614a43565b91506142f88261527b565b602082019050919050565b6000614310602083614a43565b915061431b826152a4565b602082019050919050565b6000614333602983614a43565b915061433e826152cd565b604082019050919050565b6000614356602183614a43565b91506143618261531c565b604082019050919050565b6000614379601683614a43565b91506143848261536b565b602082019050919050565b600061439c601983614a43565b91506143a782615394565b602082019050919050565b60006143bf601d83614a54565b91506143ca826153bd565b601d82019050919050565b60006143e2601583614a54565b91506143ed826153e6565b601582019050919050565b6000614405603183614a43565b91506144108261540f565b604082019050919050565b6000614428602c83614a43565b91506144338261545e565b604082019050919050565b600061444b600d83614a43565b9150614456826154ad565b602082019050919050565b600061446e601a83614a43565b9150614479826154d6565b602082019050919050565b6000614491605c83614a54565b915061449c826154ff565b605c82019050919050565b6144b081614bde565b82525050565b60006144c2828461405c565b915081905092915050565b60006144d9828561405c565b91506144e5828461405c565b91508190509392505050565b60006144fc826143b2565b9150614508828461405c565b915081905092915050565b600061451e826143d5565b915061452a828561405c565b915061453582614484565b9150614541828461405c565b915061454c82614254565b91508190509392505050565b600060208201905061456d6000830184613fcc565b92915050565b60006080820190506145886000830187613fcc565b6145956020830186613fcc565b6145a260408301856144a7565b81810360608301526145b48184613fea565b905095945050505050565b60006020820190506145d46000830184613fdb565b92915050565b600060208201905081810360008301526145f48184614023565b905092915050565b600060208201905081810360008301526146158161408d565b9050919050565b60006020820190508181036000830152614635816140b0565b9050919050565b60006020820190508181036000830152614655816140d3565b9050919050565b60006020820190508181036000830152614675816140f6565b9050919050565b6000602082019050818103600083015261469581614119565b9050919050565b600060208201905081810360008301526146b58161413c565b9050919050565b600060208201905081810360008301526146d58161415f565b9050919050565b600060208201905081810360008301526146f581614182565b9050919050565b60006020820190508181036000830152614715816141a5565b9050919050565b60006020820190508181036000830152614735816141c8565b9050919050565b60006020820190508181036000830152614755816141eb565b9050919050565b600060208201905081810360008301526147758161420e565b9050919050565b6000602082019050818103600083015261479581614231565b9050919050565b600060208201905081810360008301526147b581614277565b9050919050565b600060208201905081810360008301526147d58161429a565b9050919050565b600060208201905081810360008301526147f5816142bd565b9050919050565b60006020820190508181036000830152614815816142e0565b9050919050565b6000602082019050818103600083015261483581614303565b9050919050565b6000602082019050818103600083015261485581614326565b9050919050565b6000602082019050818103600083015261487581614349565b9050919050565b600060208201905081810360008301526148958161436c565b9050919050565b600060208201905081810360008301526148b58161438f565b9050919050565b600060208201905081810360008301526148d5816143f8565b9050919050565b600060208201905081810360008301526148f58161441b565b9050919050565b600060208201905081810360008301526149158161443e565b9050919050565b6000602082019050818103600083015261493581614461565b9050919050565b600060208201905061495160008301846144a7565b92915050565b600060e08201905061496c600083018a6144a7565b61497960208301896144a7565b61498660408301886144a7565b61499360608301876144a7565b6149a060808301866144a7565b6149ad60a08301856144a7565b6149ba60c08301846144a7565b98975050505050505050565b60006149d06149e1565b90506149dc8282614c5c565b919050565b6000604051905090565b600067ffffffffffffffff821115614a0657614a05614df2565b5b614a0f82614e35565b9050602081019050919050565b600081519050919050565b600081519050919050565b600082825260208201905092915050565b600082825260208201905092915050565b600081905092915050565b6000614a6a82614bde565b9150614a7583614bde565b9250827fffffffffffffffffffffffffffffffffffffffffffffffffffffffffffffffff03821115614aaa57614aa9614d07565b5b828201905092915050565b6000614ac082614bde565b9150614acb83614bde565b925082614adb57614ada614d36565b5b828204905092915050565b6000614af182614bde565b9150614afc83614bde565b9250817fffffffffffffffffffffffffffffffffffffffffffffffffffffffffffffffff0483118215151615614b3557614b34614d07565b5b828202905092915050565b6000614b4b82614bde565b9150614b5683614bde565b925082821015614b6957614b68614d07565b5b828203905092915050565b6000614b7f82614bbe565b9050919050565b60008115159050919050565b60007fffffffff0000000000000000000000000000000000000000000000000000000082169050919050565b600073ffffffffffffffffffffffffffffffffffffffff82169050919050565b6000819050919050565b82818337600083830152505050565b60005b83811015614c15578082015181840152602081019050614bfa565b83811115614c24576000848401525b50505050565b60006002820490506001821680614c4257607f821691505b60208210811415614c5657614c55614d65565b5b50919050565b614c6582614e35565b810181811067ffffffffffffffff82111715614c8457614c83614df2565b5b80604052505050565b6000614c9882614bde565b91507fffffffffffffffffffffffffffffffffffffffffffffffffffffffffffffffff821415614ccb57614cca614d07565b5b600182019050919050565b6000614ce182614bde565b9150614cec83614bde565b925082614cfc57614cfb614d36565b5b828206905092915050565b7f4e487b7100000000000000000000000000000000000000000000000000000000600052601160045260246000fd5b7f4e487b7100000000000000000000000000000000000000000000000000000000600052601260045260246000fd5b7f4e487b7100000000000000000000000000000000000000000000000000000000600052602260045260246000fd5b7f4e487b7100000000000000000000000000000000000000000000000000000000600052603160045260246000fd5b7f4e487b7100000000000000000000000000000000000000000000000000000000600052603260045260246000fd5b7f4e487b7100000000000000000000000000000000000000000000000000000000600052604160045260246000fd5b600080fd5b600080fd5b600080fd5b600080fd5b6000601f19601f8301169050919050565b7f53616c6520706175736564000000000000000000000000000000000000000000600082015250565b7f455243373231456e756d657261626c653a206f776e657220696e646578206f7560008201527f74206f6620626f756e6473000000000000000000000000000000000000000000602082015250565b7f4552433732313a207472616e7366657220746f206e6f6e20455243373231526560008201527f63656976657220696d706c656d656e7465720000000000000000000000000000602082015250565b7f4f776e61626c653a206e6577206f776e657220697320746865207a65726f206160008201527f6464726573730000000000000000000000000000000000000000000000000000602082015250565b7f4552433732313a20746f6b656e20616c7265616479206d696e74656400000000600082015250565b7f4552433732313a207472616e7366657220746f20746865207a65726f2061646460008201527f7265737300000000000000000000000000000000000000000000000000000000602082015250565b7f4552433732313a20617070726f766520746f2063616c6c657200000000000000600082015250565b7f7365636f6e6420746f6b656e2073686f756c642062652066656d616c65000000600082015250565b7f4552433732313a206f70657261746f7220717565727920666f72206e6f6e657860008201527f697374656e7420746f6b656e0000000000000000000000000000000000000000602082015250565b7f596f752063616e2061646f70742061206d6178696d756d206f6620323020487560008201527f6e67657269746500000000000000000000000000000000000000000000000000602082015250565b7f4552433732313a20617070726f76652063616c6c6572206973206e6f74206f7760008201527f6e6572206e6f7220617070726f76656420666f7220616c6c0000000000000000602082015250565b7f4552433732313a2062616c616e636520717565727920666f7220746865207a6560008201527f726f206164647265737300000000000000000000000000000000000000000000602082015250565b7f4552433732313a206f776e657220717565727920666f72206e6f6e657869737460008201527f656e7420746f6b656e0000000000000000000000000000000000000000000000602082015250565b7f227d000000000000000000000000000000000000000000000000000000000000600082015250565b7f4552433732313a206d696e7420746f20746865207a65726f2061646472657373600082015250565b7f6e6f7420617574686f72697a6564000000000000000000000000000000000000600082015250565b7f4552433732313a20617070726f76656420717565727920666f72206e6f6e657860008201527f697374656e7420746f6b656e0000000000000000000000000000000000000000602082015250565b7f6e6f206f6666737072696e677300000000000000000000000000000000000000600082015250565b7f4f776e61626c653a2063616c6c6572206973206e6f7420746865206f776e6572600082015250565b7f4552433732313a207472616e73666572206f6620746f6b656e2074686174206960008201527f73206e6f74206f776e0000000000000000000000000000000000000000000000602082015250565b7f4552433732313a20617070726f76616c20746f2063757272656e74206f776e6560008201527f7200000000000000000000000000000000000000000000000000000000000000602082015250565b7f45786365656473206d6178696d756d20737570706c7900000000000000000000600082015250565b7f45746865722073656e74206973206e6f7420636f727265637400000000000000600082015250565b7f646174613a6170706c69636174696f6e2f6a736f6e3b6261736536342c000000600082015250565b7f7b226e616d65223a202248756e67657269746520230000000000000000000000600082015250565b7f4552433732313a207472616e736665722063616c6c6572206973206e6f74206f60008201527f776e6572206e6f7220617070726f766564000000000000000000000000000000602082015250565b7f455243373231456e756d657261626c653a20676c6f62616c20696e646578206f60008201527f7574206f6620626f756e64730000000000000000000000000000000000000000602082015250565b7f4d6174696e672070617573656400000000000000000000000000000000000000600082015250565b7f666972737420746f6b656e2073686f756c64206265206d616c65000000000000600082015250565b7f222c20226465736372697074696f6e223a202248756e6765725665727365206960008201527f7320612067616d65206f6620737572766976616c2e222c2022696d616765223a60208201527f2022646174613a696d6167652f7376672b786d6c3b6261736536342c00000000604082015250565b61557d81614b74565b811461558857600080fd5b50565b61559481614b86565b811461559f57600080fd5b50565b6155ab81614b92565b81146155b657600080fd5b50565b6155c281614bde565b81146155cd57600080fd5b5056fe3c2f746578743e3c7465787420783d2231302220793d2238302220636c6173733d22626173655768697465223e3c7465787420783d2231302220793d2236302220636c6173733d2262617365477265656e223e3c2f746578743e3c7465787420783d2231302220793d223136302220636c6173733d22626173655768697465223e3c2f746578743e3c7465787420783d2231302220793d223132302220636c6173733d22626173655768697465223e3c7374796c653e2e626173655768697465207b2066696c6c3a2077686974653b20666f6e742d66616d696c793a2073657269663b20666f6e742d73697a653a20323070783b207d3c2f746578743e3c7465787420783d2231302220793d223138302220636c6173733d22626173655768697465223e3c726563742077696474683d223130302522206865696768743d2231303025222066696c6c3d22626c61636b22202f3e3c73766720786d6c6e733d22687474703a2f2f7777772e77332e6f72672f323030302f73766722207072657365727665417370656374526174696f3d22784d696e594d696e206d656574222076696577426f783d223020302033353020333530223e3c2f746578743e3c7465787420783d2231302220793d223234302220636c6173733d22626173655768697465223e4142434445464748494a4b4c4d4e4f505152535455565758595a6162636465666768696a6b6c6d6e6f707172737475767778797a303132333435363738392b2f3c2f746578743e3c7465787420783d2231302220793d223230302220636c6173733d22626173655768697465223e2e62617365477265656e207b2066696c6c3a20737072696e67677265656e3b20666f6e742d66616d696c793a2073657269663b20666f6e742d73697a653a20323070783b207d3c2f7374796c653e3c2f746578743e3c7465787420783d2231302220793d223236302220636c6173733d22626173655768697465223ea264697066735822122044be56a8e6ee4a5c130fc263089ea56a71bb6419edf7ee93000b3874517e1ae364736f6c63430008070033",
  "immutableReferences": {},
  "source": "// SPDX-License-Identifier: MIT\n\npragma solidity ^0.8.0;\n\nimport \"./FullERC721.sol\";\n\ncontract HungerVerse is ERC721Enumerable, Ownable {\n\n\tstruct PlayerInfo {\n        uint256 gender;      //0 - Female\n        uint256 district;    //1 to 12\n\n        //only for females\n        uint256 offsprings;  // 0 to 8\n\n        uint256 HS;         //hunting skills\n        uint256 IQ;\n        uint256 likes;\n\n        uint256 wins;\n        uint256 burns;\n\t}\n    string[] private skills = [ \"Below Average\", \"Average\", \"Above Average\", \"Gifted\" ];\n\t\n    uint256 public _price = 0.05 ether;\n    bool public _paused = true;\n    bool public _matingPaused = true;\n\n    address private _otherContract;\n\n    mapping (uint256 => PlayerInfo) private _tokenId2Player;\n\n    constructor() ERC721(\"HungerVerse\", \"HUNGER\") Ownable() {\n\t}\n    function generatePlayer(uint256 tokenId) private {\n        PlayerInfo storage player = _tokenId2Player[tokenId];   //by reference\n\n        player.gender = pluck(tokenId, \"GENDER\") % 2;\n        player.district = 1 + pluck(tokenId, \"DISTRICT\") % 12;\n        if(player.gender == 0) {\n            player.offsprings = pluck(tokenId, \"OFFSPRINGS\") % 9;\n        }\n        player.HS = (player.wins + player.burns + pluck(tokenId, \"HUNTING\")) % 4;\n        player.IQ = (player.wins + player.burns + pluck(tokenId, \"IQSCORE\")) % 4;\n    }\n    function getPlayerInfo(uint256 tokenId) external view returns (uint256,uint256,uint256,uint256,uint256,uint256,uint256) {\n        PlayerInfo memory player = _tokenId2Player[tokenId];   //by reference\n            return (player.gender, \n                            player.district, \n                            player.HS, \n                            player.IQ, \n                            player.likes, \n                            player.wins, \n                            player.burns);\n    }\n    function random(string memory input) private pure returns (uint256) {\n        return uint256(keccak256(abi.encodePacked(input)));\n    }\n    function pluck(uint256 tokenId, string memory keyPrefix) private pure returns (uint256) {\n        return random(string(abi.encodePacked(keyPrefix, Strings.toString(tokenId))));\n    }\n    function tokenURI(uint256 tokenId) override public view returns (string memory) {\n\n        string memory output = \"\";\n        string[32] memory parts;\n\t\tuint256 counter = 0;\n        parts[counter++] = '<svg xmlns=\"http://www.w3.org/2000/svg\" preserveAspectRatio=\"xMinYMin meet\" viewBox=\"0 0 350 350\">';\n\t\tparts[counter++] = '<style>.baseWhite { fill: white; font-family: serif; font-size: 20px; }';\n\t\tparts[counter++] = '.baseGreen { fill: springgreen; font-family: serif; font-size: 20px; }</style>';\n\t\tparts[counter++] = '<rect width=\"100%\" height=\"100%\" fill=\"black\" />';\n        parts[counter++] = '<text x=\"10\" y=\"60\" class=\"baseGreen\">';\n        parts[counter++] = (_tokenId2Player[tokenId].gender == 0 ? \"Female\" : \"Male\");\n        parts[counter++] = '</text><text x=\"10\" y=\"80\" class=\"baseWhite\">';\n        parts[counter++] = \"District:\\t\";\n        parts[counter++] = Strings.toString(_tokenId2Player[tokenId].district);\n\n        if(_tokenId2Player[tokenId].gender == 0) {\n            parts[counter++] = '</text><text x=\"10\" y=\"120\" class=\"baseWhite\">';\n            parts[counter++] = \"Offsprings:\\t\";\n            parts[counter++] = Strings.toString(_tokenId2Player[tokenId].offsprings);\n        }\n        parts[counter++] = '</text><text x=\"10\" y=\"160\" class=\"baseWhite\">';\n        parts[counter++] = \"HuntingSkills:\\t\";\n        parts[counter++] = skills[_tokenId2Player[tokenId].HS];\n        parts[counter++] = '</text><text x=\"10\" y=\"180\" class=\"baseWhite\">';\n        parts[counter++] = \"IQ:\\t\";\n        parts[counter++] = skills[_tokenId2Player[tokenId].IQ];\n        parts[counter++] = '</text><text x=\"10\" y=\"200\" class=\"baseWhite\">';\n        parts[counter++] = \"Likes:\\t\";\n        parts[counter++] = Strings.toString(_tokenId2Player[tokenId].likes);\n        parts[counter++] = '</text><text x=\"10\" y=\"240\" class=\"baseWhite\">';\n        parts[counter++] = \"wins:\\t\";\n        parts[counter++] = Strings.toString(_tokenId2Player[tokenId].wins);\n        parts[counter++] = '</text><text x=\"10\" y=\"260\" class=\"baseWhite\">';\n        parts[counter++] = \"burns:\\t\";\n        parts[counter++] = Strings.toString(_tokenId2Player[tokenId].burns);\n\n        parts[counter++] = '</text></svg>';\n\n\t\tfor(uint256 i = 0; i < counter; ++i)\n\t\t{\n\t\t\toutput = string(abi.encodePacked(output, parts[i]));\n\t\t}\n\n        string memory json = Base64.encode(bytes(string(abi.encodePacked('{\"name\": \"Hungerite #', Strings.toString(tokenId), '\", \"description\": \"HungerVerse is a game of survival.\", \"image\": \"data:image/svg+xml;base64,', Base64.encode(bytes(output)), '\"}'))));\n        output = string(abi.encodePacked('data:application/json;base64,', json));\n\n        return output;\n    }\n    function own(uint256 num) external payable {\n        require(!_paused, \"Sale paused\");\n        require(num > 0 && num < 21, \"You can adopt a maximum of 20 Hungerite\");\n        require(totalSupply() + num <= 24000, \"Exceeds maximum supply\");\n        require(msg.value >= _price * num, \"Ether sent is not correct\");\n\n        uint256 count = 0;\n        for(uint256 i = 1; i <= 24000; i++) {\n            if(_exists(i)) continue;\n            generatePlayer(i);\n            _safeMint(msg.sender, i);\n            if(++count == num) break;\n        }\n    }\n    function mate(uint256 tokenIdM, uint256 tokenIdF) external payable {\n        require(!_matingPaused, \"Mating paused\");\n        require(_isApprovedOrOwner(msg.sender, tokenIdM) && _isApprovedOrOwner(msg.sender, tokenIdF), \"not authorized\");\n        require(_tokenId2Player[tokenIdM].gender == 1, \"first token should be male\");\n        PlayerInfo storage female = _tokenId2Player[tokenIdF];\n        require(female.gender == 0, \"second token should be female\");\n        require(female.offsprings > 0, \"no offsprings\");\n        require(totalSupply() + female.offsprings <= 24000, \"Exceeds maximum supply\");\n        require(msg.value >= (_price/2) * female.offsprings, \"Ether sent is not correct\");\n\n        uint256 count = 0;\n        for(uint256 i = 1; i <= 24000; i++) {\n            if(_exists(i)) continue;\n            generatePlayer(i);\n            _safeMint(msg.sender, i);\n            if(++count == female.offsprings) break;\n        }\n        female.offsprings = 0;\n    }\n\tfunction like(uint256 tokenId) external {\n\t\t_tokenId2Player[tokenId].likes++;\n\t}\n\tfunction setMatingPause(bool val) external onlyOwner {\n\t\t_matingPaused = val;\n\t}\n    function isApprovedOrOwner(address spender, uint256 tokenId) external view virtual returns (bool) {\n        return super._isApprovedOrOwner(spender, tokenId);\n    }\n    function isApprovedForAll(address owner, address operator) public view virtual override returns (bool) {\n        return (operator == _otherContract || super.isApprovedForAll(owner, operator));\n    }\n    function burn(uint256 tokenId) external {\n        _tokenId2Player[tokenId].burns++;\n        _burn(tokenId);\n    }\n    function setPrice(uint256 _newPrice) external onlyOwner {\n        _price = _newPrice;\n    }\n    function setPause(bool val) external onlyOwner {\n        _paused = val;\n    }\n    function setOtherContract(address val) external onlyOwner {\n        _otherContract = val;\n    }\n    function withdraw() external payable onlyOwner {\n        address t1 = 0x4aF0BB035FfB1CbEFA550530917e151a53034d70;\n        require(payable(t1).send(address(this).balance));\n    }\n}\n",
  "sourcePath": "/home/ec2-user/github/fcc-dapp/src/contracts/HungerVerse.sol",
  "compiler": {
    "name": "solc",
    "version": "0.8.7+commit.e28d00a7.Emscripten.clang"
  },
  "schemaVersion": "3.4.3",
  "updatedAt": "2022-01-06T01:07:05.274Z",
  "devdoc": {
    "kind": "dev",
    "methods": {
      "approve(address,uint256)": {
        "details": "See {IERC721-approve}."
      },
      "balanceOf(address)": {
        "details": "See {IERC721-balanceOf}."
      },
      "getApproved(uint256)": {
        "details": "See {IERC721-getApproved}."
      },
      "isApprovedForAll(address,address)": {
        "details": "See {IERC721-isApprovedForAll}."
      },
      "name()": {
        "details": "See {IERC721Metadata-name}."
      },
      "owner()": {
        "details": "Returns the address of the current owner."
      },
      "ownerOf(uint256)": {
        "details": "See {IERC721-ownerOf}."
      },
      "renounceOwnership()": {
        "details": "Leaves the contract without owner. It will not be possible to call `onlyOwner` functions anymore. Can only be called by the current owner. NOTE: Renouncing ownership will leave the contract without an owner, thereby removing any functionality that is only available to the owner."
      },
      "safeTransferFrom(address,address,uint256)": {
        "details": "See {IERC721-safeTransferFrom}."
      },
      "safeTransferFrom(address,address,uint256,bytes)": {
        "details": "See {IERC721-safeTransferFrom}."
      },
      "setApprovalForAll(address,bool)": {
        "details": "See {IERC721-setApprovalForAll}."
      },
      "supportsInterface(bytes4)": {
        "details": "See {IERC165-supportsInterface}."
      },
      "symbol()": {
        "details": "See {IERC721Metadata-symbol}."
      },
      "tokenByIndex(uint256)": {
        "details": "See {IERC721Enumerable-tokenByIndex}."
      },
      "tokenOfOwnerByIndex(address,uint256)": {
        "details": "See {IERC721Enumerable-tokenOfOwnerByIndex}."
      },
      "tokenURI(uint256)": {
        "details": "See {IERC721Metadata-tokenURI}."
      },
      "totalSupply()": {
        "details": "See {IERC721Enumerable-totalSupply}."
      },
      "transferFrom(address,address,uint256)": {
        "details": "See {IERC721-transferFrom}."
      },
      "transferOwnership(address)": {
        "details": "Transfers ownership of the contract to a new account (`newOwner`). Can only be called by the current owner."
      }
    },
    "version": 1
  },
  "userdoc": {
    "kind": "user",
    "methods": {},
    "version": 1
  }
}