{
  "contractName": "HungerVerse",
  "abi": [
    {
      "inputs": [],
      "stateMutability": "nonpayable",
      "type": "constructor"
    },
    {
      "anonymous": false,
      "inputs": [
        {
          "indexed": true,
          "internalType": "address",
          "name": "owner",
          "type": "address"
        },
        {
          "indexed": true,
          "internalType": "address",
          "name": "approved",
          "type": "address"
        },
        {
          "indexed": true,
          "internalType": "uint256",
          "name": "tokenId",
          "type": "uint256"
        }
      ],
      "name": "Approval",
      "type": "event"
    },
    {
      "anonymous": false,
      "inputs": [
        {
          "indexed": true,
          "internalType": "address",
          "name": "owner",
          "type": "address"
        },
        {
          "indexed": true,
          "internalType": "address",
          "name": "operator",
          "type": "address"
        },
        {
          "indexed": false,
          "internalType": "bool",
          "name": "approved",
          "type": "bool"
        }
      ],
      "name": "ApprovalForAll",
      "type": "event"
    },
    {
      "anonymous": false,
      "inputs": [
        {
          "indexed": true,
          "internalType": "address",
          "name": "previousOwner",
          "type": "address"
        },
        {
          "indexed": true,
          "internalType": "address",
          "name": "newOwner",
          "type": "address"
        }
      ],
      "name": "OwnershipTransferred",
      "type": "event"
    },
    {
      "anonymous": false,
      "inputs": [
        {
          "indexed": true,
          "internalType": "address",
          "name": "from",
          "type": "address"
        },
        {
          "indexed": true,
          "internalType": "address",
          "name": "to",
          "type": "address"
        },
        {
          "indexed": true,
          "internalType": "uint256",
          "name": "tokenId",
          "type": "uint256"
        }
      ],
      "name": "Transfer",
      "type": "event"
    },
    {
      "inputs": [],
      "name": "_matingPaused",
      "outputs": [
        {
          "internalType": "bool",
          "name": "",
          "type": "bool"
        }
      ],
      "stateMutability": "view",
      "type": "function"
    },
    {
      "inputs": [],
      "name": "_otherContract",
      "outputs": [
        {
          "internalType": "address",
          "name": "",
          "type": "address"
        }
      ],
      "stateMutability": "view",
      "type": "function"
    },
    {
      "inputs": [],
      "name": "_paused",
      "outputs": [
        {
          "internalType": "bool",
          "name": "",
          "type": "bool"
        }
      ],
      "stateMutability": "view",
      "type": "function"
    },
    {
      "inputs": [],
      "name": "_price",
      "outputs": [
        {
          "internalType": "uint256",
          "name": "",
          "type": "uint256"
        }
      ],
      "stateMutability": "view",
      "type": "function"
    },
    {
      "inputs": [
        {
          "internalType": "address",
          "name": "to",
          "type": "address"
        },
        {
          "internalType": "uint256",
          "name": "tokenId",
          "type": "uint256"
        }
      ],
      "name": "approve",
      "outputs": [],
      "stateMutability": "nonpayable",
      "type": "function"
    },
    {
      "inputs": [
        {
          "internalType": "address",
          "name": "owner",
          "type": "address"
        }
      ],
      "name": "balanceOf",
      "outputs": [
        {
          "internalType": "uint256",
          "name": "",
          "type": "uint256"
        }
      ],
      "stateMutability": "view",
      "type": "function"
    },
    {
      "inputs": [
        {
          "internalType": "uint256",
          "name": "tokenId",
          "type": "uint256"
        }
      ],
      "name": "getApproved",
      "outputs": [
        {
          "internalType": "address",
          "name": "",
          "type": "address"
        }
      ],
      "stateMutability": "view",
      "type": "function"
    },
    {
      "inputs": [],
      "name": "name",
      "outputs": [
        {
          "internalType": "string",
          "name": "",
          "type": "string"
        }
      ],
      "stateMutability": "view",
      "type": "function"
    },
    {
      "inputs": [],
      "name": "owner",
      "outputs": [
        {
          "internalType": "address",
          "name": "",
          "type": "address"
        }
      ],
      "stateMutability": "view",
      "type": "function"
    },
    {
      "inputs": [
        {
          "internalType": "uint256",
          "name": "tokenId",
          "type": "uint256"
        }
      ],
      "name": "ownerOf",
      "outputs": [
        {
          "internalType": "address",
          "name": "",
          "type": "address"
        }
      ],
      "stateMutability": "view",
      "type": "function"
    },
    {
      "inputs": [],
      "name": "renounceOwnership",
      "outputs": [],
      "stateMutability": "nonpayable",
      "type": "function"
    },
    {
      "inputs": [
        {
          "internalType": "address",
          "name": "from",
          "type": "address"
        },
        {
          "internalType": "address",
          "name": "to",
          "type": "address"
        },
        {
          "internalType": "uint256",
          "name": "tokenId",
          "type": "uint256"
        }
      ],
      "name": "safeTransferFrom",
      "outputs": [],
      "stateMutability": "nonpayable",
      "type": "function"
    },
    {
      "inputs": [
        {
          "internalType": "address",
          "name": "from",
          "type": "address"
        },
        {
          "internalType": "address",
          "name": "to",
          "type": "address"
        },
        {
          "internalType": "uint256",
          "name": "tokenId",
          "type": "uint256"
        },
        {
          "internalType": "bytes",
          "name": "_data",
          "type": "bytes"
        }
      ],
      "name": "safeTransferFrom",
      "outputs": [],
      "stateMutability": "nonpayable",
      "type": "function"
    },
    {
      "inputs": [
        {
          "internalType": "address",
          "name": "operator",
          "type": "address"
        },
        {
          "internalType": "bool",
          "name": "approved",
          "type": "bool"
        }
      ],
      "name": "setApprovalForAll",
      "outputs": [],
      "stateMutability": "nonpayable",
      "type": "function"
    },
    {
      "inputs": [
        {
          "internalType": "bytes4",
          "name": "interfaceId",
          "type": "bytes4"
        }
      ],
      "name": "supportsInterface",
      "outputs": [
        {
          "internalType": "bool",
          "name": "",
          "type": "bool"
        }
      ],
      "stateMutability": "view",
      "type": "function"
    },
    {
      "inputs": [],
      "name": "symbol",
      "outputs": [
        {
          "internalType": "string",
          "name": "",
          "type": "string"
        }
      ],
      "stateMutability": "view",
      "type": "function"
    },
    {
      "inputs": [
        {
          "internalType": "uint256",
          "name": "index",
          "type": "uint256"
        }
      ],
      "name": "tokenByIndex",
      "outputs": [
        {
          "internalType": "uint256",
          "name": "",
          "type": "uint256"
        }
      ],
      "stateMutability": "view",
      "type": "function"
    },
    {
      "inputs": [
        {
          "internalType": "address",
          "name": "owner",
          "type": "address"
        },
        {
          "internalType": "uint256",
          "name": "index",
          "type": "uint256"
        }
      ],
      "name": "tokenOfOwnerByIndex",
      "outputs": [
        {
          "internalType": "uint256",
          "name": "",
          "type": "uint256"
        }
      ],
      "stateMutability": "view",
      "type": "function"
    },
    {
      "inputs": [],
      "name": "totalSupply",
      "outputs": [
        {
          "internalType": "uint256",
          "name": "",
          "type": "uint256"
        }
      ],
      "stateMutability": "view",
      "type": "function"
    },
    {
      "inputs": [
        {
          "internalType": "address",
          "name": "from",
          "type": "address"
        },
        {
          "internalType": "address",
          "name": "to",
          "type": "address"
        },
        {
          "internalType": "uint256",
          "name": "tokenId",
          "type": "uint256"
        }
      ],
      "name": "transferFrom",
      "outputs": [],
      "stateMutability": "nonpayable",
      "type": "function"
    },
    {
      "inputs": [
        {
          "internalType": "address",
          "name": "newOwner",
          "type": "address"
        }
      ],
      "name": "transferOwnership",
      "outputs": [],
      "stateMutability": "nonpayable",
      "type": "function"
    },
    {
      "inputs": [
        {
          "internalType": "uint256",
          "name": "tokenId",
          "type": "uint256"
        }
      ],
      "name": "getPlayerInfo",
      "outputs": [
        {
          "internalType": "uint256",
          "name": "",
          "type": "uint256"
        },
        {
          "internalType": "uint256",
          "name": "",
          "type": "uint256"
        },
        {
          "internalType": "uint256",
          "name": "",
          "type": "uint256"
        },
        {
          "internalType": "uint256",
          "name": "",
          "type": "uint256"
        },
        {
          "internalType": "uint256",
          "name": "",
          "type": "uint256"
        },
        {
          "internalType": "uint256",
          "name": "",
          "type": "uint256"
        },
        {
          "internalType": "uint256",
          "name": "",
          "type": "uint256"
        }
      ],
      "stateMutability": "view",
      "type": "function"
    },
    {
      "inputs": [
        {
          "internalType": "uint256",
          "name": "tokenId",
          "type": "uint256"
        }
      ],
      "name": "tokenURI",
      "outputs": [
        {
          "internalType": "string",
          "name": "",
          "type": "string"
        }
      ],
      "stateMutability": "view",
      "type": "function"
    },
    {
      "inputs": [
        {
          "internalType": "uint256",
          "name": "num",
          "type": "uint256"
        }
      ],
      "name": "own",
      "outputs": [],
      "stateMutability": "payable",
      "type": "function"
    },
    {
      "inputs": [
        {
          "internalType": "uint256",
          "name": "tokenIdM",
          "type": "uint256"
        },
        {
          "internalType": "uint256",
          "name": "tokenIdF",
          "type": "uint256"
        }
      ],
      "name": "mate",
      "outputs": [],
      "stateMutability": "payable",
      "type": "function"
    },
    {
      "inputs": [
        {
          "internalType": "uint256",
          "name": "tokenId",
          "type": "uint256"
        }
      ],
      "name": "like",
      "outputs": [],
      "stateMutability": "nonpayable",
      "type": "function"
    },
    {
      "inputs": [
        {
          "internalType": "uint256",
          "name": "tokenId",
          "type": "uint256"
        }
      ],
      "name": "win",
      "outputs": [],
      "stateMutability": "nonpayable",
      "type": "function"
    },
    {
      "inputs": [
        {
          "internalType": "bool",
          "name": "val",
          "type": "bool"
        }
      ],
      "name": "setMatingPause",
      "outputs": [],
      "stateMutability": "nonpayable",
      "type": "function"
    },
    {
      "inputs": [
        {
          "internalType": "address",
          "name": "spender",
          "type": "address"
        },
        {
          "internalType": "uint256",
          "name": "tokenId",
          "type": "uint256"
        }
      ],
      "name": "isApprovedOrOwner",
      "outputs": [
        {
          "internalType": "bool",
          "name": "",
          "type": "bool"
        }
      ],
      "stateMutability": "view",
      "type": "function"
    },
    {
      "inputs": [
        {
          "internalType": "address",
          "name": "owner",
          "type": "address"
        },
        {
          "internalType": "address",
          "name": "operator",
          "type": "address"
        }
      ],
      "name": "isApprovedForAll",
      "outputs": [
        {
          "internalType": "bool",
          "name": "",
          "type": "bool"
        }
      ],
      "stateMutability": "view",
      "type": "function"
    },
    {
      "inputs": [
        {
          "internalType": "uint256",
          "name": "tokenId",
          "type": "uint256"
        }
      ],
      "name": "burn",
      "outputs": [],
      "stateMutability": "nonpayable",
      "type": "function"
    },
    {
      "inputs": [
        {
          "internalType": "uint256",
          "name": "_newPrice",
          "type": "uint256"
        }
      ],
      "name": "setPrice",
      "outputs": [],
      "stateMutability": "nonpayable",
      "type": "function"
    },
    {
      "inputs": [
        {
          "internalType": "bool",
          "name": "val",
          "type": "bool"
        }
      ],
      "name": "setPause",
      "outputs": [],
      "stateMutability": "nonpayable",
      "type": "function"
    },
    {
      "inputs": [
        {
          "internalType": "address",
          "name": "val",
          "type": "address"
        }
      ],
      "name": "setOtherContract",
      "outputs": [],
      "stateMutability": "nonpayable",
      "type": "function"
    },
    {
      "inputs": [],
      "name": "withdraw",
      "outputs": [],
      "stateMutability": "payable",
      "type": "function"
    }
  ],
  "bytecode": "0x608060405260405180608001604052806040518060400160405280600d81526020017f42656c6f7720417665726167650000000000000000000000000000000000000081525081526020016040518060400160405280600781526020017f417665726167650000000000000000000000000000000000000000000000000081525081526020016040518060400160405280600d81526020017f41626f766520417665726167650000000000000000000000000000000000000081525081526020016040518060400160405280600681526020017f4769667465640000000000000000000000000000000000000000000000000000815250815250600b9060046200010b929190620002ef565b5066b1a2bc2ec50000600c556000600d60006101000a81548160ff0219169083151502179055506001600d60016101000a81548160ff0219169083151502179055503480156200015a57600080fd5b506040518060400160405280600b81526020017f48756e67657256657273650000000000000000000000000000000000000000008152506040518060400160405280600681526020017f48554e47455200000000000000000000000000000000000000000000000000008152508160009080519060200190620001df92919062000356565b508060019080519060200190620001f892919062000356565b5050506200021b6200020f6200022160201b60201c565b6200022960201b60201c565b620004d9565b600033905090565b6000600a60009054906101000a900473ffffffffffffffffffffffffffffffffffffffff16905081600a60006101000a81548173ffffffffffffffffffffffffffffffffffffffff021916908373ffffffffffffffffffffffffffffffffffffffff1602179055508173ffffffffffffffffffffffffffffffffffffffff168173ffffffffffffffffffffffffffffffffffffffff167f8be0079c531659141344cd1fd0a4f28419497f9722a3daafe3b4186f6b6457e060405160405180910390a35050565b82805482825590600052602060002090810192821562000343579160200282015b82811115620003425782518290805190602001906200033192919062000356565b509160200191906001019062000310565b5b509050620003529190620003e7565b5090565b828054620003649062000474565b90600052602060002090601f016020900481019282620003885760008555620003d4565b82601f10620003a357805160ff1916838001178555620003d4565b82800160010185558215620003d4579182015b82811115620003d3578251825591602001919060010190620003b6565b5b509050620003e391906200040f565b5090565b5b808211156200040b57600081816200040191906200042e565b50600101620003e8565b5090565b5b808211156200042a57600081600090555060010162000410565b5090565b5080546200043c9062000474565b6000825580601f1062000450575062000471565b601f0160209004906000526020600020908101906200047091906200040f565b5b50565b600060028204905060018216806200048d57607f821691505b60208210811415620004a457620004a3620004aa565b5b50919050565b7f4e487b7100000000000000000000000000000000000000000000000000000000600052602260045260246000fd5b615a3180620004e96000396000f3fe6080604052600436106102045760003560e01c806370a0823111610118578063b88d4fde116100a0578063e82935da1161006f578063e82935da1461073c578063e86a459314610765578063e985e9c51461078e578063ea17532e146107cb578063f2fde38b1461080e57610204565b8063b88d4fde14610682578063bedb86fb146106ab578063c87b56dd146106d4578063dea59ca51461071157610204565b806391b7f5ed116100e757806391b7f5ed146105cd57806395d89b41146105f65780639c3f523714610621578063a22cb4651461063d578063a912c4361461066657610204565b806370a0823114610523578063715018a61461056057806384eb1f11146105775780638da5cb5b146105a257610204565b80632f745c591161019b57806342966c681161016a57806342966c681461041a578063430c2081146104435780634f6ccce7146104805780635bc60cfc146104bd5780636352211e146104e657610204565b80632f745c591461038157806335a28f3e146103be5780633ccfd60b146103e757806342842e0e146103f157610204565b806316c61ccc116101d757806316c61ccc146102d757806318160ddd14610302578063235b6ea11461032d57806323b872dd1461035857610204565b806301ffc9a71461020957806306fdde0314610246578063081812fc14610271578063095ea7b3146102ae575b600080fd5b34801561021557600080fd5b50610230600480360381019061022b9190614062565b610837565b60405161023d919061471c565b60405180910390f35b34801561025257600080fd5b5061025b6108b1565b6040516102689190614737565b60405180910390f35b34801561027d57600080fd5b50610298600480360381019061029391906140bc565b610943565b6040516102a591906146b5565b60405180910390f35b3480156102ba57600080fd5b506102d560048036038101906102d09190613ff5565b6109c8565b005b3480156102e357600080fd5b506102ec610ae0565b6040516102f9919061471c565b60405180910390f35b34801561030e57600080fd5b50610317610af3565b6040516103249190614a99565b60405180910390f35b34801561033957600080fd5b50610342610b00565b60405161034f9190614a99565b60405180910390f35b34801561036457600080fd5b5061037f600480360381019061037a9190613edf565b610b06565b005b34801561038d57600080fd5b506103a860048036038101906103a39190613ff5565b610b66565b6040516103b59190614a99565b60405180910390f35b3480156103ca57600080fd5b506103e560048036038101906103e09190613e72565b610c0b565b005b6103ef610ccb565b005b3480156103fd57600080fd5b5061041860048036038101906104139190613edf565b610da1565b005b34801561042657600080fd5b50610441600480360381019061043c91906140bc565b610dc1565b005b34801561044f57600080fd5b5061046a60048036038101906104659190613ff5565b610df9565b604051610477919061471c565b60405180910390f35b34801561048c57600080fd5b506104a760048036038101906104a291906140bc565b610e0d565b6040516104b49190614a99565b60405180910390f35b3480156104c957600080fd5b506104e460048036038101906104df91906140bc565b610e7e565b005b3480156104f257600080fd5b5061050d600480360381019061050891906140bc565b610f3d565b60405161051a91906146b5565b60405180910390f35b34801561052f57600080fd5b5061054a60048036038101906105459190613e72565b610fef565b6040516105579190614a99565b60405180910390f35b34801561056c57600080fd5b506105756110a7565b005b34801561058357600080fd5b5061058c61112f565b604051610599919061471c565b60405180910390f35b3480156105ae57600080fd5b506105b7611142565b6040516105c491906146b5565b60405180910390f35b3480156105d957600080fd5b506105f460048036038101906105ef91906140bc565b61116c565b005b34801561060257600080fd5b5061060b6111f2565b6040516106189190614737565b60405180910390f35b61063b600480360381019061063691906140e9565b611284565b005b34801561064957600080fd5b50610664600480360381019061065f9190613fb5565b611561565b005b610680600480360381019061067b91906140bc565b6116e2565b005b34801561068e57600080fd5b506106a960048036038101906106a49190613f32565b611891565b005b3480156106b757600080fd5b506106d260048036038101906106cd9190614035565b6118f3565b005b3480156106e057600080fd5b506106fb60048036038101906106f691906140bc565b61198c565b6040516107089190614737565b60405180910390f35b34801561071d57600080fd5b50610726612427565b60405161073391906146b5565b60405180910390f35b34801561074857600080fd5b50610763600480360381019061075e91906140bc565b61244d565b005b34801561077157600080fd5b5061078c60048036038101906107879190614035565b61247c565b005b34801561079a57600080fd5b506107b560048036038101906107b09190613e9f565b612515565b6040516107c2919061471c565b60405180910390f35b3480156107d757600080fd5b506107f260048036038101906107ed91906140bc565b612581565b6040516108059796959493929190614ab4565b60405180910390f35b34801561081a57600080fd5b5061083560048036038101906108309190613e72565b61263b565b005b60007f780e9d63000000000000000000000000000000000000000000000000000000007bffffffffffffffffffffffffffffffffffffffffffffffffffffffff1916827bffffffffffffffffffffffffffffffffffffffffffffffffffffffff191614806108aa57506108a982612733565b5b9050919050565b6060600080546108c090614d87565b80601f01602080910402602001604051908101604052809291908181526020018280546108ec90614d87565b80156109395780601f1061090e57610100808354040283529160200191610939565b820191906000526020600020905b81548152906001019060200180831161091c57829003601f168201915b5050505050905090565b600061094e82612815565b61098d576040517f08c379a000000000000000000000000000000000000000000000000000000000815260040161098490614939565b60405180910390fd5b6004600083815260200190815260200160002060009054906101000a900473ffffffffffffffffffffffffffffffffffffffff169050919050565b60006109d382610f3d565b90508073ffffffffffffffffffffffffffffffffffffffff168373ffffffffffffffffffffffffffffffffffffffff161415610a44576040517f08c379a0000000000000000000000000000000000000000000000000000000008152600401610a3b906149b9565b60405180910390fd5b8073ffffffffffffffffffffffffffffffffffffffff16610a63612881565b73ffffffffffffffffffffffffffffffffffffffff161480610a925750610a9181610a8c612881565b612515565b5b610ad1576040517f08c379a0000000000000000000000000000000000000000000000000000000008152600401610ac890614899565b60405180910390fd5b610adb8383612889565b505050565b600d60009054906101000a900460ff1681565b6000600880549050905090565b600c5481565b610b17610b11612881565b82612942565b610b56576040517f08c379a0000000000000000000000000000000000000000000000000000000008152600401610b4d90614a19565b60405180910390fd5b610b61838383612a20565b505050565b6000610b7183610fef565b8210610bb2576040517f08c379a0000000000000000000000000000000000000000000000000000000008152600401610ba990614779565b60405180910390fd5b600660008473ffffffffffffffffffffffffffffffffffffffff1673ffffffffffffffffffffffffffffffffffffffff168152602001908152602001600020600083815260200190815260200160002054905092915050565b610c13612881565b73ffffffffffffffffffffffffffffffffffffffff16610c31611142565b73ffffffffffffffffffffffffffffffffffffffff1614610c87576040517f08c379a0000000000000000000000000000000000000000000000000000000008152600401610c7e90614979565b60405180910390fd5b80600d60026101000a81548173ffffffffffffffffffffffffffffffffffffffff021916908373ffffffffffffffffffffffffffffffffffffffff16021790555050565b610cd3612881565b73ffffffffffffffffffffffffffffffffffffffff16610cf1611142565b73ffffffffffffffffffffffffffffffffffffffff1614610d47576040517f08c379a0000000000000000000000000000000000000000000000000000000008152600401610d3e90614979565b60405180910390fd5b6000734af0bb035ffb1cbefa550530917e151a53034d7090508073ffffffffffffffffffffffffffffffffffffffff166108fc479081150290604051600060405180830381858888f19350505050610d9e57600080fd5b50565b610dbc83838360405180602001604052806000815250611891565b505050565b600e60008281526020019081526020016000206007016000815480929190610de890614dea565b9190505550610df681612c7c565b50565b6000610e058383612942565b905092915050565b6000610e17610af3565b8210610e58576040517f08c379a0000000000000000000000000000000000000000000000000000000008152600401610e4f90614a39565b60405180910390fd5b60088281548110610e6c57610e6b614f20565b5b90600052602060002001549050919050565b600d60029054906101000a900473ffffffffffffffffffffffffffffffffffffffff1673ffffffffffffffffffffffffffffffffffffffff163373ffffffffffffffffffffffffffffffffffffffff1614610f0e576040517f08c379a0000000000000000000000000000000000000000000000000000000008152600401610f0590614919565b60405180910390fd5b600e60008281526020019081526020016000206006016000815480929190610f3590614dea565b919050555050565b6000806002600084815260200190815260200160002060009054906101000a900473ffffffffffffffffffffffffffffffffffffffff169050600073ffffffffffffffffffffffffffffffffffffffff168173ffffffffffffffffffffffffffffffffffffffff161415610fe6576040517f08c379a0000000000000000000000000000000000000000000000000000000008152600401610fdd906148d9565b60405180910390fd5b80915050919050565b60008073ffffffffffffffffffffffffffffffffffffffff168273ffffffffffffffffffffffffffffffffffffffff161415611060576040517f08c379a0000000000000000000000000000000000000000000000000000000008152600401611057906148b9565b60405180910390fd5b600360008373ffffffffffffffffffffffffffffffffffffffff1673ffffffffffffffffffffffffffffffffffffffff168152602001908152602001600020549050919050565b6110af612881565b73ffffffffffffffffffffffffffffffffffffffff166110cd611142565b73ffffffffffffffffffffffffffffffffffffffff1614611123576040517f08c379a000000000000000000000000000000000000000000000000000000000815260040161111a90614979565b60405180910390fd5b61112d6000612d8d565b565b600d60019054906101000a900460ff1681565b6000600a60009054906101000a900473ffffffffffffffffffffffffffffffffffffffff16905090565b611174612881565b73ffffffffffffffffffffffffffffffffffffffff16611192611142565b73ffffffffffffffffffffffffffffffffffffffff16146111e8576040517f08c379a00000000000000000000000000000000000000000000000000000000081526004016111df90614979565b60405180910390fd5b80600c8190555050565b60606001805461120190614d87565b80601f016020809104026020016040519081016040528092919081815260200182805461122d90614d87565b801561127a5780601f1061124f5761010080835404028352916020019161127a565b820191906000526020600020905b81548152906001019060200180831161125d57829003601f168201915b5050505050905090565b600d60019054906101000a900460ff16156112d4576040517f08c379a00000000000000000000000000000000000000000000000000000000081526004016112cb90614a59565b60405180910390fd5b6112de3383612942565b80156112f057506112ef3382612942565b5b61132f576040517f08c379a000000000000000000000000000000000000000000000000000000000815260040161132690614919565b60405180910390fd5b6001600e60008481526020019081526020016000206000015414611388576040517f08c379a000000000000000000000000000000000000000000000000000000000815260040161137f90614a79565b60405180910390fd5b6000600e6000838152602001908152602001600020905060008160000154146113e6576040517f08c379a00000000000000000000000000000000000000000000000000000000081526004016113dd90614839565b60405180910390fd5b600081600201541161142d576040517f08c379a000000000000000000000000000000000000000000000000000000000815260040161142490614959565b60405180910390fd5b615dc0816002015461143d610af3565b6114479190614bbc565b1115611488576040517f08c379a000000000000000000000000000000000000000000000000000000000815260040161147f906149d9565b60405180910390fd5b80600201546002600c5461149c9190614c12565b6114a69190614c43565b3410156114e8576040517f08c379a00000000000000000000000000000000000000000000000000000000081526004016114df906149f9565b60405180910390fd5b600080600190505b615dc081116115505761150281612815565b1561150c5761153d565b61151581612e53565b61151f338261309f565b82600201548261152e90614dea565b925082141561153c57611550565b5b808061154890614dea565b9150506114f0565b506000826002018190555050505050565b611569612881565b73ffffffffffffffffffffffffffffffffffffffff168273ffffffffffffffffffffffffffffffffffffffff1614156115d7576040517f08c379a00000000000000000000000000000000000000000000000000000000081526004016115ce90614819565b60405180910390fd5b80600560006115e4612881565b73ffffffffffffffffffffffffffffffffffffffff1673ffffffffffffffffffffffffffffffffffffffff16815260200190815260200160002060008473ffffffffffffffffffffffffffffffffffffffff1673ffffffffffffffffffffffffffffffffffffffff16815260200190815260200160002060006101000a81548160ff0219169083151502179055508173ffffffffffffffffffffffffffffffffffffffff16611691612881565b73ffffffffffffffffffffffffffffffffffffffff167f17307eab39ab6107e8899845ad3d59bd9653f200f220920489ca2b5937696c31836040516116d6919061471c565b60405180910390a35050565b600d60009054906101000a900460ff1615611732576040517f08c379a000000000000000000000000000000000000000000000000000000000815260040161172990614759565b60405180910390fd5b6000811180156117425750601581105b611781576040517f08c379a000000000000000000000000000000000000000000000000000000000815260040161177890614879565b60405180910390fd5b615dc08161178d610af3565b6117979190614bbc565b11156117d8576040517f08c379a00000000000000000000000000000000000000000000000000000000081526004016117cf906149d9565b60405180910390fd5b80600c546117e69190614c43565b341015611828576040517f08c379a000000000000000000000000000000000000000000000000000000000815260040161181f906149f9565b60405180910390fd5b600080600190505b615dc0811161188c5761184281612815565b1561184c57611879565b61185581612e53565b61185f338261309f565b828261186a90614dea565b92508214156118785761188c565b5b808061188490614dea565b915050611830565b505050565b6118a261189c612881565b83612942565b6118e1576040517f08c379a00000000000000000000000000000000000000000000000000000000081526004016118d890614a19565b60405180910390fd5b6118ed848484846130bd565b50505050565b6118fb612881565b73ffffffffffffffffffffffffffffffffffffffff16611919611142565b73ffffffffffffffffffffffffffffffffffffffff161461196f576040517f08c379a000000000000000000000000000000000000000000000000000000000815260040161196690614979565b60405180910390fd5b80600d60006101000a81548160ff02191690831515021790555050565b60606000600e600084815260200190815260200160002060405180610100016040529081600082015481526020016001820154815260200160028201548152602001600382015481526020016004820154815260200160058201548152602001600682015481526020016007820154815250509050611a09613d71565b60006040518060a001604052806062815260200161588960629139828280611a3090614dea565b935060208110611a4357611a42614f20565b5b602002018190525060405180608001604052806047815260200161595960479139828280611a7090614dea565b935060208110611a8357611a82614f20565b5b60200201819052506040518060800160405280604e81526020016157dd604e9139828280611ab090614dea565b935060208110611ac357611ac2614f20565b5b602002018190525060405180606001604052806030815260200161585960309139828280611af090614dea565b935060208110611b0357611b02614f20565b5b602002018190525060405180606001604052806026815260200161575b60269139828280611b3090614dea565b935060208110611b4357611b42614f20565b5b60200201819052506000836000015114611b92576040518060400160405280600481526020017f4d616c6500000000000000000000000000000000000000000000000000000000815250611bc9565b6040518060400160405280600681526020017f46656d616c6500000000000000000000000000000000000000000000000000008152505b828280611bd590614dea565b935060208110611be857611be7614f20565b5b60200201819052506040518060600160405280602d815260200161572e602d9139828280611c1590614dea565b935060208110611c2857611c27614f20565b5b60200201819052506040518060400160405280600a81526020017f44697374726963743a0900000000000000000000000000000000000000000000815250828280611c7290614dea565b935060208110611c8557611c84614f20565b5b6020020181905250611c9a8360200151613119565b828280611ca690614dea565b935060208110611cb957611cb8614f20565b5b6020020181905250600083600001511415611da0576040518060600160405280602e81526020016157af602e9139828280611cf390614dea565b935060208110611d0657611d05614f20565b5b60200201819052506040518060400160405280600c81526020017f4f6666737072696e67733a090000000000000000000000000000000000000000815250828280611d5090614dea565b935060208110611d6357611d62614f20565b5b6020020181905250611d788360400151613119565b828280611d8490614dea565b935060208110611d9757611d96614f20565b5b60200201819052505b6040518060600160405280602e8152602001615781602e9139828280611dc590614dea565b935060208110611dd857611dd7614f20565b5b60200201819052506040518060400160405280600f81526020017f48756e74696e67536b696c6c733a090000000000000000000000000000000000815250828280611e2290614dea565b935060208110611e3557611e34614f20565b5b6020020181905250600b836060015181548110611e5557611e54614f20565b5b906000526020600020018054611e6a90614d87565b80601f0160208091040260200160405190810160405280929190818152602001828054611e9690614d87565b8015611ee35780601f10611eb857610100808354040283529160200191611ee3565b820191906000526020600020905b815481529060010190602001808311611ec657829003601f168201915b5050505050828280611ef490614dea565b935060208110611f0757611f06614f20565b5b60200201819052506040518060600160405280602e815260200161582b602e9139828280611f3490614dea565b935060208110611f4757611f46614f20565b5b60200201819052506040518060400160405280600481526020017f49513a0900000000000000000000000000000000000000000000000000000000815250828280611f9190614dea565b935060208110611fa457611fa3614f20565b5b6020020181905250600b836080015181548110611fc457611fc3614f20565b5b906000526020600020018054611fd990614d87565b80601f016020809104026020016040519081016040528092919081815260200182805461200590614d87565b80156120525780601f1061202757610100808354040283529160200191612052565b820191906000526020600020905b81548152906001019060200180831161203557829003601f168201915b505050505082828061206390614dea565b93506020811061207657612075614f20565b5b60200201819052506040518060600160405280602e81526020016159a0602e91398282806120a390614dea565b9350602081106120b6576120b5614f20565b5b60200201819052506040518060400160405280600781526020017f4c696b65733a090000000000000000000000000000000000000000000000000081525082828061210090614dea565b93506020811061211357612112614f20565b5b60200201819052506121288360a00151613119565b82828061213490614dea565b93506020811061214757612146614f20565b5b60200201819052506040518060600160405280602e81526020016158eb602e913982828061217490614dea565b93506020811061218757612186614f20565b5b60200201819052506040518060400160405280600681526020017f57696e733a0900000000000000000000000000000000000000000000000000008152508282806121d190614dea565b9350602081106121e4576121e3614f20565b5b60200201819052506121f98360c00151613119565b82828061220590614dea565b93506020811061221857612217614f20565b5b60200201819052506040518060600160405280602e81526020016159ce602e913982828061224590614dea565b93506020811061225857612257614f20565b5b60200201819052506040518060400160405280600781526020017f4275726e733a09000000000000000000000000000000000000000000000000008152508282806122a290614dea565b9350602081106122b5576122b4614f20565b5b60200201819052506122ca8360e00151613119565b8282806122d690614dea565b9350602081106122e9576122e8614f20565b5b60200201819052506040518060400160405280600d81526020017f3c2f746578743e3c2f7376673e0000000000000000000000000000000000000081525082828061233390614dea565b93506020811061234657612345614f20565b5b6020020181905250600060405180602001604052806000815250905060005b828110156123b9578184826020811061238157612380614f20565b5b602002015160405160200161239792919061462a565b6040516020818303038152906040529150806123b290614dea565b9050612365565b5060006123f66123c888613119565b6123d18461327a565b6040516020016123e2929190614670565b60405160208183030381529060405261327a565b905080604051602001612409919061464e565b60405160208183030381529060405291508195505050505050919050565b600d60029054906101000a900473ffffffffffffffffffffffffffffffffffffffff1681565b600e6000828152602001908152602001600020600501600081548092919061247490614dea565b919050555050565b612484612881565b73ffffffffffffffffffffffffffffffffffffffff166124a2611142565b73ffffffffffffffffffffffffffffffffffffffff16146124f8576040517f08c379a00000000000000000000000000000000000000000000000000000000081526004016124ef90614979565b60405180910390fd5b80600d60016101000a81548160ff02191690831515021790555050565b6000600d60029054906101000a900473ffffffffffffffffffffffffffffffffffffffff1673ffffffffffffffffffffffffffffffffffffffff168273ffffffffffffffffffffffffffffffffffffffff16148061257957506125788383613412565b5b905092915050565b600080600080600080600080600e60008a81526020019081526020016000206040518061010001604052908160008201548152602001600182015481526020016002820154815260200160038201548152602001600482015481526020016005820154815260200160068201548152602001600782015481525050905080600001518160200151826060015183608001518460a001518560c001518660e00151975097509750975097509750975050919395979092949650565b612643612881565b73ffffffffffffffffffffffffffffffffffffffff16612661611142565b73ffffffffffffffffffffffffffffffffffffffff16146126b7576040517f08c379a00000000000000000000000000000000000000000000000000000000081526004016126ae90614979565b60405180910390fd5b600073ffffffffffffffffffffffffffffffffffffffff168173ffffffffffffffffffffffffffffffffffffffff161415612727576040517f08c379a000000000000000000000000000000000000000000000000000000000815260040161271e906147b9565b60405180910390fd5b61273081612d8d565b50565b60007f80ac58cd000000000000000000000000000000000000000000000000000000007bffffffffffffffffffffffffffffffffffffffffffffffffffffffff1916827bffffffffffffffffffffffffffffffffffffffffffffffffffffffff191614806127fe57507f5b5e139f000000000000000000000000000000000000000000000000000000007bffffffffffffffffffffffffffffffffffffffffffffffffffffffff1916827bffffffffffffffffffffffffffffffffffffffffffffffffffffffff1916145b8061280e575061280d826134a6565b5b9050919050565b60008073ffffffffffffffffffffffffffffffffffffffff166002600084815260200190815260200160002060009054906101000a900473ffffffffffffffffffffffffffffffffffffffff1673ffffffffffffffffffffffffffffffffffffffff1614159050919050565b600033905090565b816004600083815260200190815260200160002060006101000a81548173ffffffffffffffffffffffffffffffffffffffff021916908373ffffffffffffffffffffffffffffffffffffffff160217905550808273ffffffffffffffffffffffffffffffffffffffff166128fc83610f3d565b73ffffffffffffffffffffffffffffffffffffffff167f8c5be1e5ebec7d5bd14f71427d1e84f3dd0314c0f7b2291e5b200ac8c7c3b92560405160405180910390a45050565b600061294d82612815565b61298c576040517f08c379a000000000000000000000000000000000000000000000000000000000815260040161298390614859565b60405180910390fd5b600061299783610f3d565b90508073ffffffffffffffffffffffffffffffffffffffff168473ffffffffffffffffffffffffffffffffffffffff161480612a0657508373ffffffffffffffffffffffffffffffffffffffff166129ee84610943565b73ffffffffffffffffffffffffffffffffffffffff16145b80612a175750612a168185612515565b5b91505092915050565b8273ffffffffffffffffffffffffffffffffffffffff16612a4082610f3d565b73ffffffffffffffffffffffffffffffffffffffff1614612a96576040517f08c379a0000000000000000000000000000000000000000000000000000000008152600401612a8d90614999565b60405180910390fd5b600073ffffffffffffffffffffffffffffffffffffffff168273ffffffffffffffffffffffffffffffffffffffff161415612b06576040517f08c379a0000000000000000000000000000000000000000000000000000000008152600401612afd906147f9565b60405180910390fd5b612b11838383613510565b612b1c600082612889565b6001600360008573ffffffffffffffffffffffffffffffffffffffff1673ffffffffffffffffffffffffffffffffffffffff1681526020019081526020016000206000828254612b6c9190614c9d565b925050819055506001600360008473ffffffffffffffffffffffffffffffffffffffff1673ffffffffffffffffffffffffffffffffffffffff1681526020019081526020016000206000828254612bc39190614bbc565b92505081905550816002600083815260200190815260200160002060006101000a81548173ffffffffffffffffffffffffffffffffffffffff021916908373ffffffffffffffffffffffffffffffffffffffff160217905550808273ffffffffffffffffffffffffffffffffffffffff168473ffffffffffffffffffffffffffffffffffffffff167fddf252ad1be2c89b69c2b068fc378daa952ba7f163c4a11628f55a4df523b3ef60405160405180910390a4505050565b6000612c8782610f3d565b9050612c9581600084613510565b612ca0600083612889565b6001600360008373ffffffffffffffffffffffffffffffffffffffff1673ffffffffffffffffffffffffffffffffffffffff1681526020019081526020016000206000828254612cf09190614c9d565b925050819055506002600083815260200190815260200160002060006101000a81549073ffffffffffffffffffffffffffffffffffffffff021916905581600073ffffffffffffffffffffffffffffffffffffffff168273ffffffffffffffffffffffffffffffffffffffff167fddf252ad1be2c89b69c2b068fc378daa952ba7f163c4a11628f55a4df523b3ef60405160405180910390a45050565b6000600a60009054906101000a900473ffffffffffffffffffffffffffffffffffffffff16905081600a60006101000a81548173ffffffffffffffffffffffffffffffffffffffff021916908373ffffffffffffffffffffffffffffffffffffffff1602179055508173ffffffffffffffffffffffffffffffffffffffff168173ffffffffffffffffffffffffffffffffffffffff167f8be0079c531659141344cd1fd0a4f28419497f9722a3daafe3b4186f6b6457e060405160405180910390a35050565b6000600e600083815260200190815260200160002090506002612eab836040518060400160405280600681526020017f47454e4445520000000000000000000000000000000000000000000000000000815250613624565b612eb59190614e33565b8160000181905550600c612efe836040518060400160405280600881526020017f4449535452494354000000000000000000000000000000000000000000000000815250613624565b82600701548360060154612f129190614bbc565b612f1c9190614bbc565b612f269190614e33565b6001612f329190614bbc565b8160010181905550600081600001541415612fb9576009612f88836040518060400160405280600a81526020017f4f4646535052494e475300000000000000000000000000000000000000000000815250613624565b82600701548360060154612f9c9190614bbc565b612fa69190614bbc565b612fb09190614e33565b81600201819055505b6004612ffa836040518060400160405280600781526020017f48554e54494e4700000000000000000000000000000000000000000000000000815250613624565b8260070154836006015461300e9190614bbc565b6130189190614bbc565b6130229190614e33565b8160030181905550600461306b836040518060400160405280600781526020017f495153434f524500000000000000000000000000000000000000000000000000815250613624565b8260070154836006015461307f9190614bbc565b6130899190614bbc565b6130939190614e33565b81600401819055505050565b6130b9828260405180602001604052806000815250613660565b5050565b6130c8848484612a20565b6130d4848484846136bb565b613113576040517f08c379a000000000000000000000000000000000000000000000000000000000815260040161310a90614799565b60405180910390fd5b50505050565b60606000821415613161576040518060400160405280600181526020017f30000000000000000000000000000000000000000000000000000000000000008152509050613275565b600082905060005b6000821461319357808061317c90614dea565b915050600a8261318c9190614c12565b9150613169565b60008167ffffffffffffffff8111156131af576131ae614f4f565b5b6040519080825280601f01601f1916602001820160405280156131e15781602001600182028036833780820191505090505b5090505b6000851461326e576001826131fa9190614c9d565b9150600a856132099190614e33565b60306132159190614bbc565b60f81b81838151811061322b5761322a614f20565b5b60200101907effffffffffffffffffffffffffffffffffffffffffffffffffffffffffffff1916908160001a905350600a856132679190614c12565b94506131e5565b8093505050505b919050565b606060008251905060008114156132a3576040518060200160405280600081525091505061340d565b600060036002836132b49190614bbc565b6132be9190614c12565b60046132ca9190614c43565b905060006020826132db9190614bbc565b67ffffffffffffffff8111156132f4576132f3614f4f565b5b6040519080825280601f01601f1916602001820160405280156133265781602001600182028036833780820191505090505b5090506000604051806060016040528060408152602001615919604091399050600181016020830160005b868110156133ca5760038101905062ffffff818a015116603f8160121c168401518060081b905060ff603f83600c1c1686015116810190508060081b905060ff603f8360061c1686015116810190508060081b905060ff603f831686015116810190508060e01b90508084526004840193505050613351565b5060038606600181146133e457600281146133f4576133ff565b613d3d60f01b60028303526133ff565b603d60f81b60018303525b508484525050819450505050505b919050565b6000600560008473ffffffffffffffffffffffffffffffffffffffff1673ffffffffffffffffffffffffffffffffffffffff16815260200190815260200160002060008373ffffffffffffffffffffffffffffffffffffffff1673ffffffffffffffffffffffffffffffffffffffff16815260200190815260200160002060009054906101000a900460ff16905092915050565b60007f01ffc9a7000000000000000000000000000000000000000000000000000000007bffffffffffffffffffffffffffffffffffffffffffffffffffffffff1916827bffffffffffffffffffffffffffffffffffffffffffffffffffffffff1916149050919050565b61351b838383613852565b600073ffffffffffffffffffffffffffffffffffffffff168373ffffffffffffffffffffffffffffffffffffffff16141561355e5761355981613857565b61359d565b8173ffffffffffffffffffffffffffffffffffffffff168373ffffffffffffffffffffffffffffffffffffffff161461359c5761359b83826138a0565b5b5b600073ffffffffffffffffffffffffffffffffffffffff168273ffffffffffffffffffffffffffffffffffffffff1614156135e0576135db81613a0d565b61361f565b8273ffffffffffffffffffffffffffffffffffffffff168273ffffffffffffffffffffffffffffffffffffffff161461361e5761361d8282613ade565b5b5b505050565b60006136588261363385613119565b60405160200161364492919061462a565b604051602081830303815290604052613b5d565b905092915050565b61366a8383613b90565b61367760008484846136bb565b6136b6576040517f08c379a00000000000000000000000000000000000000000000000000000000081526004016136ad90614799565b60405180910390fd5b505050565b60006136dc8473ffffffffffffffffffffffffffffffffffffffff16613d5e565b15613845578373ffffffffffffffffffffffffffffffffffffffff1663150b7a02613705612881565b8786866040518563ffffffff1660e01b815260040161372794939291906146d0565b602060405180830381600087803b15801561374157600080fd5b505af192505050801561377257506040513d601f19601f8201168201806040525081019061376f919061408f565b60015b6137f5573d80600081146137a2576040519150601f19603f3d011682016040523d82523d6000602084013e6137a7565b606091505b506000815114156137ed576040517f08c379a00000000000000000000000000000000000000000000000000000000081526004016137e490614799565b60405180910390fd5b805181602001fd5b63150b7a0260e01b7bffffffffffffffffffffffffffffffffffffffffffffffffffffffff1916817bffffffffffffffffffffffffffffffffffffffffffffffffffffffff19161491505061384a565b600190505b949350505050565b505050565b6008805490506009600083815260200190815260200160002081905550600881908060018154018082558091505060019003906000526020600020016000909190919091505550565b600060016138ad84610fef565b6138b79190614c9d565b905060006007600084815260200190815260200160002054905081811461399c576000600660008673ffffffffffffffffffffffffffffffffffffffff1673ffffffffffffffffffffffffffffffffffffffff168152602001908152602001600020600084815260200190815260200160002054905080600660008773ffffffffffffffffffffffffffffffffffffffff1673ffffffffffffffffffffffffffffffffffffffff168152602001908152602001600020600084815260200190815260200160002081905550816007600083815260200190815260200160002081905550505b6007600084815260200190815260200160002060009055600660008573ffffffffffffffffffffffffffffffffffffffff1673ffffffffffffffffffffffffffffffffffffffff16815260200190815260200160002060008381526020019081526020016000206000905550505050565b60006001600880549050613a219190614c9d565b9050600060096000848152602001908152602001600020549050600060088381548110613a5157613a50614f20565b5b906000526020600020015490508060088381548110613a7357613a72614f20565b5b906000526020600020018190555081600960008381526020019081526020016000208190555060096000858152602001908152602001600020600090556008805480613ac257613ac1614ef1565b5b6001900381819060005260206000200160009055905550505050565b6000613ae983610fef565b905081600660008573ffffffffffffffffffffffffffffffffffffffff1673ffffffffffffffffffffffffffffffffffffffff168152602001908152602001600020600083815260200190815260200160002081905550806007600084815260200190815260200160002081905550505050565b600081604051602001613b709190614613565b6040516020818303038152906040528051906020012060001c9050919050565b600073ffffffffffffffffffffffffffffffffffffffff168273ffffffffffffffffffffffffffffffffffffffff161415613c00576040517f08c379a0000000000000000000000000000000000000000000000000000000008152600401613bf7906148f9565b60405180910390fd5b613c0981612815565b15613c49576040517f08c379a0000000000000000000000000000000000000000000000000000000008152600401613c40906147d9565b60405180910390fd5b613c5560008383613510565b6001600360008473ffffffffffffffffffffffffffffffffffffffff1673ffffffffffffffffffffffffffffffffffffffff1681526020019081526020016000206000828254613ca59190614bbc565b92505081905550816002600083815260200190815260200160002060006101000a81548173ffffffffffffffffffffffffffffffffffffffff021916908373ffffffffffffffffffffffffffffffffffffffff160217905550808273ffffffffffffffffffffffffffffffffffffffff16600073ffffffffffffffffffffffffffffffffffffffff167fddf252ad1be2c89b69c2b068fc378daa952ba7f163c4a11628f55a4df523b3ef60405160405180910390a45050565b600080823b905060008111915050919050565b6040518061040001604052806020905b6060815260200190600190039081613d815790505090565b6000613dac613da784614b48565b614b23565b905082815260208101848484011115613dc857613dc7614f83565b5b613dd3848285614d45565b509392505050565b600081359050613dea816156d1565b92915050565b600081359050613dff816156e8565b92915050565b600081359050613e14816156ff565b92915050565b600081519050613e29816156ff565b92915050565b600082601f830112613e4457613e43614f7e565b5b8135613e54848260208601613d99565b91505092915050565b600081359050613e6c81615716565b92915050565b600060208284031215613e8857613e87614f8d565b5b6000613e9684828501613ddb565b91505092915050565b60008060408385031215613eb657613eb5614f8d565b5b6000613ec485828601613ddb565b9250506020613ed585828601613ddb565b9150509250929050565b600080600060608486031215613ef857613ef7614f8d565b5b6000613f0686828701613ddb565b9350506020613f1786828701613ddb565b9250506040613f2886828701613e5d565b9150509250925092565b60008060008060808587031215613f4c57613f4b614f8d565b5b6000613f5a87828801613ddb565b9450506020613f6b87828801613ddb565b9350506040613f7c87828801613e5d565b925050606085013567ffffffffffffffff811115613f9d57613f9c614f88565b5b613fa987828801613e2f565b91505092959194509250565b60008060408385031215613fcc57613fcb614f8d565b5b6000613fda85828601613ddb565b9250506020613feb85828601613df0565b9150509250929050565b6000806040838503121561400c5761400b614f8d565b5b600061401a85828601613ddb565b925050602061402b85828601613e5d565b9150509250929050565b60006020828403121561404b5761404a614f8d565b5b600061405984828501613df0565b91505092915050565b60006020828403121561407857614077614f8d565b5b600061408684828501613e05565b91505092915050565b6000602082840312156140a5576140a4614f8d565b5b60006140b384828501613e1a565b91505092915050565b6000602082840312156140d2576140d1614f8d565b5b60006140e084828501613e5d565b91505092915050565b60008060408385031215614100576140ff614f8d565b5b600061410e85828601613e5d565b925050602061411f85828601613e5d565b9150509250929050565b61413281614cd1565b82525050565b61414181614ce3565b82525050565b600061415282614b79565b61415c8185614b8f565b935061416c818560208601614d54565b61417581614f92565b840191505092915050565b600061418b82614b84565b6141958185614ba0565b93506141a5818560208601614d54565b6141ae81614f92565b840191505092915050565b60006141c482614b84565b6141ce8185614bb1565b93506141de818560208601614d54565b80840191505092915050565b60006141f7600b83614ba0565b915061420282614fa3565b602082019050919050565b600061421a602b83614ba0565b915061422582614fcc565b604082019050919050565b600061423d603283614ba0565b91506142488261501b565b604082019050919050565b6000614260602683614ba0565b915061426b8261506a565b604082019050919050565b6000614283601c83614ba0565b915061428e826150b9565b602082019050919050565b60006142a6602483614ba0565b91506142b1826150e2565b604082019050919050565b60006142c9601983614ba0565b91506142d482615131565b602082019050919050565b60006142ec601d83614ba0565b91506142f78261515a565b602082019050919050565b600061430f602c83614ba0565b915061431a82615183565b604082019050919050565b6000614332602783614ba0565b915061433d826151d2565b604082019050919050565b6000614355603883614ba0565b915061436082615221565b604082019050919050565b6000614378602a83614ba0565b915061438382615270565b604082019050919050565b600061439b602983614ba0565b91506143a6826152bf565b604082019050919050565b60006143be600283614bb1565b91506143c98261530e565b600282019050919050565b60006143e1602083614ba0565b91506143ec82615337565b602082019050919050565b6000614404600e83614ba0565b915061440f82615360565b602082019050919050565b6000614427602c83614ba0565b915061443282615389565b604082019050919050565b600061444a600d83614ba0565b9150614455826153d8565b602082019050919050565b600061446d602083614ba0565b915061447882615401565b602082019050919050565b6000614490602983614ba0565b915061449b8261542a565b604082019050919050565b60006144b3602183614ba0565b91506144be82615479565b604082019050919050565b60006144d6601683614ba0565b91506144e1826154c8565b602082019050919050565b60006144f9601983614ba0565b9150614504826154f1565b602082019050919050565b600061451c601d83614bb1565b91506145278261551a565b601d82019050919050565b600061453f601583614bb1565b915061454a82615543565b601582019050919050565b6000614562603183614ba0565b915061456d8261556c565b604082019050919050565b6000614585602c83614ba0565b9150614590826155bb565b604082019050919050565b60006145a8600d83614ba0565b91506145b38261560a565b602082019050919050565b60006145cb601a83614ba0565b91506145d682615633565b602082019050919050565b60006145ee605c83614bb1565b91506145f98261565c565b605c82019050919050565b61460d81614d3b565b82525050565b600061461f82846141b9565b915081905092915050565b600061463682856141b9565b915061464282846141b9565b91508190509392505050565b60006146598261450f565b915061466582846141b9565b915081905092915050565b600061467b82614532565b915061468782856141b9565b9150614692826145e1565b915061469e82846141b9565b91506146a9826143b1565b91508190509392505050565b60006020820190506146ca6000830184614129565b92915050565b60006080820190506146e56000830187614129565b6146f26020830186614129565b6146ff6040830185614604565b81810360608301526147118184614147565b905095945050505050565b60006020820190506147316000830184614138565b92915050565b600060208201905081810360008301526147518184614180565b905092915050565b60006020820190508181036000830152614772816141ea565b9050919050565b600060208201905081810360008301526147928161420d565b9050919050565b600060208201905081810360008301526147b281614230565b9050919050565b600060208201905081810360008301526147d281614253565b9050919050565b600060208201905081810360008301526147f281614276565b9050919050565b6000602082019050818103600083015261481281614299565b9050919050565b60006020820190508181036000830152614832816142bc565b9050919050565b60006020820190508181036000830152614852816142df565b9050919050565b6000602082019050818103600083015261487281614302565b9050919050565b6000602082019050818103600083015261489281614325565b9050919050565b600060208201905081810360008301526148b281614348565b9050919050565b600060208201905081810360008301526148d28161436b565b9050919050565b600060208201905081810360008301526148f28161438e565b9050919050565b60006020820190508181036000830152614912816143d4565b9050919050565b60006020820190508181036000830152614932816143f7565b9050919050565b600060208201905081810360008301526149528161441a565b9050919050565b600060208201905081810360008301526149728161443d565b9050919050565b6000602082019050818103600083015261499281614460565b9050919050565b600060208201905081810360008301526149b281614483565b9050919050565b600060208201905081810360008301526149d2816144a6565b9050919050565b600060208201905081810360008301526149f2816144c9565b9050919050565b60006020820190508181036000830152614a12816144ec565b9050919050565b60006020820190508181036000830152614a3281614555565b9050919050565b60006020820190508181036000830152614a5281614578565b9050919050565b60006020820190508181036000830152614a728161459b565b9050919050565b60006020820190508181036000830152614a92816145be565b9050919050565b6000602082019050614aae6000830184614604565b92915050565b600060e082019050614ac9600083018a614604565b614ad66020830189614604565b614ae36040830188614604565b614af06060830187614604565b614afd6080830186614604565b614b0a60a0830185614604565b614b1760c0830184614604565b98975050505050505050565b6000614b2d614b3e565b9050614b398282614db9565b919050565b6000604051905090565b600067ffffffffffffffff821115614b6357614b62614f4f565b5b614b6c82614f92565b9050602081019050919050565b600081519050919050565b600081519050919050565b600082825260208201905092915050565b600082825260208201905092915050565b600081905092915050565b6000614bc782614d3b565b9150614bd283614d3b565b9250827fffffffffffffffffffffffffffffffffffffffffffffffffffffffffffffffff03821115614c0757614c06614e64565b5b828201905092915050565b6000614c1d82614d3b565b9150614c2883614d3b565b925082614c3857614c37614e93565b5b828204905092915050565b6000614c4e82614d3b565b9150614c5983614d3b565b9250817fffffffffffffffffffffffffffffffffffffffffffffffffffffffffffffffff0483118215151615614c9257614c91614e64565b5b828202905092915050565b6000614ca882614d3b565b9150614cb383614d3b565b925082821015614cc657614cc5614e64565b5b828203905092915050565b6000614cdc82614d1b565b9050919050565b60008115159050919050565b60007fffffffff0000000000000000000000000000000000000000000000000000000082169050919050565b600073ffffffffffffffffffffffffffffffffffffffff82169050919050565b6000819050919050565b82818337600083830152505050565b60005b83811015614d72578082015181840152602081019050614d57565b83811115614d81576000848401525b50505050565b60006002820490506001821680614d9f57607f821691505b60208210811415614db357614db2614ec2565b5b50919050565b614dc282614f92565b810181811067ffffffffffffffff82111715614de157614de0614f4f565b5b80604052505050565b6000614df582614d3b565b91507fffffffffffffffffffffffffffffffffffffffffffffffffffffffffffffffff821415614e2857614e27614e64565b5b600182019050919050565b6000614e3e82614d3b565b9150614e4983614d3b565b925082614e5957614e58614e93565b5b828206905092915050565b7f4e487b7100000000000000000000000000000000000000000000000000000000600052601160045260246000fd5b7f4e487b7100000000000000000000000000000000000000000000000000000000600052601260045260246000fd5b7f4e487b7100000000000000000000000000000000000000000000000000000000600052602260045260246000fd5b7f4e487b7100000000000000000000000000000000000000000000000000000000600052603160045260246000fd5b7f4e487b7100000000000000000000000000000000000000000000000000000000600052603260045260246000fd5b7f4e487b7100000000000000000000000000000000000000000000000000000000600052604160045260246000fd5b600080fd5b600080fd5b600080fd5b600080fd5b6000601f19601f8301169050919050565b7f53616c6520706175736564000000000000000000000000000000000000000000600082015250565b7f455243373231456e756d657261626c653a206f776e657220696e646578206f7560008201527f74206f6620626f756e6473000000000000000000000000000000000000000000602082015250565b7f4552433732313a207472616e7366657220746f206e6f6e20455243373231526560008201527f63656976657220696d706c656d656e7465720000000000000000000000000000602082015250565b7f4f776e61626c653a206e6577206f776e657220697320746865207a65726f206160008201527f6464726573730000000000000000000000000000000000000000000000000000602082015250565b7f4552433732313a20746f6b656e20616c7265616479206d696e74656400000000600082015250565b7f4552433732313a207472616e7366657220746f20746865207a65726f2061646460008201527f7265737300000000000000000000000000000000000000000000000000000000602082015250565b7f4552433732313a20617070726f766520746f2063616c6c657200000000000000600082015250565b7f7365636f6e6420746f6b656e2073686f756c642062652066656d616c65000000600082015250565b7f4552433732313a206f70657261746f7220717565727920666f72206e6f6e657860008201527f697374656e7420746f6b656e0000000000000000000000000000000000000000602082015250565b7f596f752063616e2061646f70742061206d6178696d756d206f6620323020487560008201527f6e67657269746500000000000000000000000000000000000000000000000000602082015250565b7f4552433732313a20617070726f76652063616c6c6572206973206e6f74206f7760008201527f6e6572206e6f7220617070726f76656420666f7220616c6c0000000000000000602082015250565b7f4552433732313a2062616c616e636520717565727920666f7220746865207a6560008201527f726f206164647265737300000000000000000000000000000000000000000000602082015250565b7f4552433732313a206f776e657220717565727920666f72206e6f6e657869737460008201527f656e7420746f6b656e0000000000000000000000000000000000000000000000602082015250565b7f227d000000000000000000000000000000000000000000000000000000000000600082015250565b7f4552433732313a206d696e7420746f20746865207a65726f2061646472657373600082015250565b7f6e6f7420617574686f72697a6564000000000000000000000000000000000000600082015250565b7f4552433732313a20617070726f76656420717565727920666f72206e6f6e657860008201527f697374656e7420746f6b656e0000000000000000000000000000000000000000602082015250565b7f6e6f206f6666737072696e677300000000000000000000000000000000000000600082015250565b7f4f776e61626c653a2063616c6c6572206973206e6f7420746865206f776e6572600082015250565b7f4552433732313a207472616e73666572206f6620746f6b656e2074686174206960008201527f73206e6f74206f776e0000000000000000000000000000000000000000000000602082015250565b7f4552433732313a20617070726f76616c20746f2063757272656e74206f776e6560008201527f7200000000000000000000000000000000000000000000000000000000000000602082015250565b7f45786365656473206d6178696d756d20737570706c7900000000000000000000600082015250565b7f45746865722073656e74206973206e6f7420636f727265637400000000000000600082015250565b7f646174613a6170706c69636174696f6e2f6a736f6e3b6261736536342c000000600082015250565b7f7b226e616d65223a202248756e67657269746520230000000000000000000000600082015250565b7f4552433732313a207472616e736665722063616c6c6572206973206e6f74206f60008201527f776e6572206e6f7220617070726f766564000000000000000000000000000000602082015250565b7f455243373231456e756d657261626c653a20676c6f62616c20696e646578206f60008201527f7574206f6620626f756e64730000000000000000000000000000000000000000602082015250565b7f4d6174696e672070617573656400000000000000000000000000000000000000600082015250565b7f666972737420746f6b656e2073686f756c64206265206d616c65000000000000600082015250565b7f222c20226465736372697074696f6e223a202248756e6765725665727365206960008201527f7320612067616d65206f6620737572766976616c2e222c2022696d616765223a60208201527f2022646174613a696d6167652f7376672b786d6c3b6261736536342c00000000604082015250565b6156da81614cd1565b81146156e557600080fd5b50565b6156f181614ce3565b81146156fc57600080fd5b50565b61570881614cef565b811461571357600080fd5b50565b61571f81614d3b565b811461572a57600080fd5b5056fe3c2f746578743e3c7465787420783d2231302220793d2238302220636c6173733d22626173655768697465223e3c7465787420783d2231302220793d2236302220636c6173733d2262617365477265656e223e3c2f746578743e3c7465787420783d2231302220793d223136302220636c6173733d22626173655768697465223e3c2f746578743e3c7465787420783d2231302220793d223132302220636c6173733d22626173655768697465223e2e62617365477265656e207b2066696c6c3a20737072696e67677265656e3b20666f6e742d66616d696c793a2073657269663b20666f6e742d73697a653a20313670783b207d3c2f7374796c653e3c2f746578743e3c7465787420783d2231302220793d223138302220636c6173733d22626173655768697465223e3c726563742077696474683d223130302522206865696768743d2231303025222066696c6c3d22626c61636b22202f3e3c73766720786d6c6e733d22687474703a2f2f7777772e77332e6f72672f323030302f73766722207072657365727665417370656374526174696f3d22784d696e594d696e206d656574222076696577426f783d223020302033353020333530223e3c2f746578743e3c7465787420783d2231302220793d223234302220636c6173733d22626173655768697465223e4142434445464748494a4b4c4d4e4f505152535455565758595a6162636465666768696a6b6c6d6e6f707172737475767778797a303132333435363738392b2f3c7374796c653e2e626173655768697465207b2066696c6c3a2077686974653b20666f6e742d66616d696c793a2073657269663b20666f6e742d73697a653a20313670783b207d3c2f746578743e3c7465787420783d2231302220793d223230302220636c6173733d22626173655768697465223e3c2f746578743e3c7465787420783d2231302220793d223236302220636c6173733d22626173655768697465223ea2646970667358221220b6581a2f15316ae0bbc8707c788108b2853f7341ccda670cbafe3c2fb0f87d6e64736f6c63430008070033",
  "immutableReferences": {},
  "source": "// SPDX-License-Identifier: MIT\n\npragma solidity ^0.8.0;\n\nimport \"./FullERC721.sol\";\n\ncontract HungerVerse is ERC721Enumerable, Ownable {\n\n\tstruct PlayerInfo {\n        uint256 gender;      //0 - Female\n        uint256 district;    //1 to 12\n\n        //only for females\n        uint256 offsprings;  // 0 to 8\n\n        uint256 HS;         //hunting skills\n        uint256 IQ;\n        uint256 likes;\n\n        uint256 wins;\n        uint256 burns;\n\t}\n    string[] private skills = [ \"Below Average\", \"Average\", \"Above Average\", \"Gifted\" ];\n\t\n    uint256 public _price = 0.05 ether;\n    bool public _paused = false;\n    bool public _matingPaused = true;\n\n    address public _otherContract;\n\n    mapping (uint256 => PlayerInfo) private _tokenId2Player;\n\n    constructor() ERC721(\"HungerVerse\", \"HUNGER\") Ownable() {\n\t}\n    function generatePlayer(uint256 tokenId) private {\n        PlayerInfo storage player = _tokenId2Player[tokenId];   //by reference\n\n        player.gender = pluck(tokenId, \"GENDER\") % 2;\n        player.district = 1 + (player.wins + player.burns + pluck(tokenId, \"DISTRICT\")) % 12;\n        if(player.gender == 0) {\n            player.offsprings = (player.wins + player.burns + pluck(tokenId, \"OFFSPRINGS\")) % 9;\n        }\n        player.HS = (player.wins + player.burns + pluck(tokenId, \"HUNTING\")) % 4;\n        player.IQ = (player.wins + player.burns + pluck(tokenId, \"IQSCORE\")) % 4;\n    }\n    function getPlayerInfo(uint256 tokenId) external view returns (uint256,uint256,uint256,uint256,uint256,uint256,uint256) {\n        PlayerInfo memory player = _tokenId2Player[tokenId];   //by reference\n        return (player.gender, \n                        player.district, \n                        player.HS, \n                        player.IQ, \n                        player.likes, \n                        player.wins, \n                        player.burns);\n    }\n    function random(string memory input) private pure returns (uint256) {\n        return uint256(keccak256(abi.encodePacked(input)));\n    }\n    function pluck(uint256 tokenId, string memory keyPrefix) private pure returns (uint256) {\n        return random(string(abi.encodePacked(keyPrefix, Strings.toString(tokenId))));\n    }\n    function tokenURI(uint256 tokenId) override public view returns (string memory) {\n\n        PlayerInfo memory player = _tokenId2Player[tokenId];\n\n        string[32] memory parts;\n\t\tuint256 counter = 0;\n        parts[counter++] = '<svg xmlns=\"http://www.w3.org/2000/svg\" preserveAspectRatio=\"xMinYMin meet\" viewBox=\"0 0 350 350\">';\n\t\tparts[counter++] = '<style>.baseWhite { fill: white; font-family: serif; font-size: 16px; }';\n\t\tparts[counter++] = '.baseGreen { fill: springgreen; font-family: serif; font-size: 16px; }</style>';\n\t\tparts[counter++] = '<rect width=\"100%\" height=\"100%\" fill=\"black\" />';\n        parts[counter++] = '<text x=\"10\" y=\"60\" class=\"baseGreen\">';\n        parts[counter++] = (player.gender == 0 ? \"Female\" : \"Male\");\n        parts[counter++] = '</text><text x=\"10\" y=\"80\" class=\"baseWhite\">';\n        parts[counter++] = \"District:\\t\";\n        parts[counter++] = Strings.toString(player.district);\n\n        if(player.gender == 0) {\n            parts[counter++] = '</text><text x=\"10\" y=\"120\" class=\"baseWhite\">';\n            parts[counter++] = \"Offsprings:\\t\";\n            parts[counter++] = Strings.toString(player.offsprings);\n        }\n        parts[counter++] = '</text><text x=\"10\" y=\"160\" class=\"baseWhite\">';\n        parts[counter++] = \"HuntingSkills:\\t\";\n        parts[counter++] = skills[player.HS];\n        parts[counter++] = '</text><text x=\"10\" y=\"180\" class=\"baseWhite\">';\n        parts[counter++] = \"IQ:\\t\";\n        parts[counter++] = skills[player.IQ];\n        parts[counter++] = '</text><text x=\"10\" y=\"200\" class=\"baseWhite\">';\n        parts[counter++] = \"Likes:\\t\";\n        parts[counter++] = Strings.toString(player.likes);\n        parts[counter++] = '</text><text x=\"10\" y=\"240\" class=\"baseWhite\">';\n        parts[counter++] = \"Wins:\\t\";\n        parts[counter++] = Strings.toString(player.wins);\n        parts[counter++] = '</text><text x=\"10\" y=\"260\" class=\"baseWhite\">';\n        parts[counter++] = \"Burns:\\t\";\n        parts[counter++] = Strings.toString(player.burns);\n\n        parts[counter++] = '</text></svg>';\n\n        string memory output = \"\";\n\t\tfor(uint256 i = 0; i < counter; ++i)\n\t\t{\n\t\t\toutput = string(abi.encodePacked(output, parts[i]));\n\t\t}\n\n        string memory json = Base64.encode(bytes(string(abi.encodePacked('{\"name\": \"Hungerite #', Strings.toString(tokenId), '\", \"description\": \"HungerVerse is a game of survival.\", \"image\": \"data:image/svg+xml;base64,', Base64.encode(bytes(output)), '\"}'))));\n        output = string(abi.encodePacked('data:application/json;base64,', json));\n\n        return output;\n    }\n    function own(uint256 num) external payable {\n        require(!_paused, \"Sale paused\");\n        require(num > 0 && num < 21, \"You can adopt a maximum of 20 Hungerite\");\n        require(totalSupply() + num <= 24000, \"Exceeds maximum supply\");\n        require(msg.value >= _price * num, \"Ether sent is not correct\");\n\n        uint256 count = 0;\n        for(uint256 i = 1; i <= 24000; i++) {\n            if(_exists(i)) continue;\n            generatePlayer(i);\n            _safeMint(msg.sender, i);\n            if(++count == num) break;\n        }\n    }\n    function mate(uint256 tokenIdM, uint256 tokenIdF) external payable {\n        require(!_matingPaused, \"Mating paused\");\n        require(_isApprovedOrOwner(msg.sender, tokenIdM) && _isApprovedOrOwner(msg.sender, tokenIdF), \"not authorized\");\n        require(_tokenId2Player[tokenIdM].gender == 1, \"first token should be male\");\n        PlayerInfo storage female = _tokenId2Player[tokenIdF];\n        require(female.gender == 0, \"second token should be female\");\n        require(female.offsprings > 0, \"no offsprings\");\n        require(totalSupply() + female.offsprings <= 24000, \"Exceeds maximum supply\");\n        require(msg.value >= (_price/2) * female.offsprings, \"Ether sent is not correct\");\n\n        uint256 count = 0;\n        for(uint256 i = 1; i <= 24000; i++) {\n            if(_exists(i)) continue;\n            generatePlayer(i);\n            _safeMint(msg.sender, i);\n            if(++count == female.offsprings) break;\n        }\n        female.offsprings = 0;\n    }\n\tfunction like(uint256 tokenId) external {\n\t\t_tokenId2Player[tokenId].likes++;\n\t}\n\tfunction win(uint256 tokenId) external {\n        require(msg.sender == _otherContract, \"not authorized\");\n\t\t_tokenId2Player[tokenId].wins++;\n\t}\n\tfunction setMatingPause(bool val) external onlyOwner {\n\t\t_matingPaused = val;\n\t}\n    function isApprovedOrOwner(address spender, uint256 tokenId) external view virtual returns (bool) {\n        return super._isApprovedOrOwner(spender, tokenId);\n    }\n    function isApprovedForAll(address owner, address operator) public view virtual override returns (bool) {\n        return (operator == _otherContract || super.isApprovedForAll(owner, operator));\n    }\n    function burn(uint256 tokenId) external {\n        _tokenId2Player[tokenId].burns++;\n        _burn(tokenId);\n    }\n    function setPrice(uint256 _newPrice) external onlyOwner {\n        _price = _newPrice;\n    }\n    function setPause(bool val) external onlyOwner {\n        _paused = val;\n    }\n    function setOtherContract(address val) external onlyOwner {\n        _otherContract = val;\n    }\n    function withdraw() external payable onlyOwner {\n        address t1 = 0x4aF0BB035FfB1CbEFA550530917e151a53034d70;\n        require(payable(t1).send(address(this).balance));\n    }\n}\n",
  "sourcePath": "/home/ec2-user/github/fcc-dapp/src/contracts/HungerVerse.sol",
  "compiler": {
    "name": "solc",
    "version": "0.8.7+commit.e28d00a7.Emscripten.clang"
  },
  "schemaVersion": "3.4.3",
  "updatedAt": "2022-01-06T09:10:46.830Z",
  "devdoc": {
    "kind": "dev",
    "methods": {
      "approve(address,uint256)": {
        "details": "See {IERC721-approve}."
      },
      "balanceOf(address)": {
        "details": "See {IERC721-balanceOf}."
      },
      "getApproved(uint256)": {
        "details": "See {IERC721-getApproved}."
      },
      "isApprovedForAll(address,address)": {
        "details": "See {IERC721-isApprovedForAll}."
      },
      "name()": {
        "details": "See {IERC721Metadata-name}."
      },
      "owner()": {
        "details": "Returns the address of the current owner."
      },
      "ownerOf(uint256)": {
        "details": "See {IERC721-ownerOf}."
      },
      "renounceOwnership()": {
        "details": "Leaves the contract without owner. It will not be possible to call `onlyOwner` functions anymore. Can only be called by the current owner. NOTE: Renouncing ownership will leave the contract without an owner, thereby removing any functionality that is only available to the owner."
      },
      "safeTransferFrom(address,address,uint256)": {
        "details": "See {IERC721-safeTransferFrom}."
      },
      "safeTransferFrom(address,address,uint256,bytes)": {
        "details": "See {IERC721-safeTransferFrom}."
      },
      "setApprovalForAll(address,bool)": {
        "details": "See {IERC721-setApprovalForAll}."
      },
      "supportsInterface(bytes4)": {
        "details": "See {IERC165-supportsInterface}."
      },
      "symbol()": {
        "details": "See {IERC721Metadata-symbol}."
      },
      "tokenByIndex(uint256)": {
        "details": "See {IERC721Enumerable-tokenByIndex}."
      },
      "tokenOfOwnerByIndex(address,uint256)": {
        "details": "See {IERC721Enumerable-tokenOfOwnerByIndex}."
      },
      "tokenURI(uint256)": {
        "details": "See {IERC721Metadata-tokenURI}."
      },
      "totalSupply()": {
        "details": "See {IERC721Enumerable-totalSupply}."
      },
      "transferFrom(address,address,uint256)": {
        "details": "See {IERC721-transferFrom}."
      },
      "transferOwnership(address)": {
        "details": "Transfers ownership of the contract to a new account (`newOwner`). Can only be called by the current owner."
      }
    },
    "version": 1
  },
  "userdoc": {
    "kind": "user",
    "methods": {},
    "version": 1
  }
}