{
  "contractName": "LoveNFT",
  "abi": [
    {
      "inputs": [],
      "stateMutability": "nonpayable",
      "type": "constructor"
    },
    {
      "anonymous": false,
      "inputs": [
        {
          "indexed": true,
          "internalType": "address",
          "name": "owner",
          "type": "address"
        },
        {
          "indexed": true,
          "internalType": "address",
          "name": "approved",
          "type": "address"
        },
        {
          "indexed": true,
          "internalType": "uint256",
          "name": "tokenId",
          "type": "uint256"
        }
      ],
      "name": "Approval",
      "type": "event"
    },
    {
      "anonymous": false,
      "inputs": [
        {
          "indexed": true,
          "internalType": "address",
          "name": "owner",
          "type": "address"
        },
        {
          "indexed": true,
          "internalType": "address",
          "name": "operator",
          "type": "address"
        },
        {
          "indexed": false,
          "internalType": "bool",
          "name": "approved",
          "type": "bool"
        }
      ],
      "name": "ApprovalForAll",
      "type": "event"
    },
    {
      "anonymous": false,
      "inputs": [
        {
          "indexed": true,
          "internalType": "address",
          "name": "previousOwner",
          "type": "address"
        },
        {
          "indexed": true,
          "internalType": "address",
          "name": "newOwner",
          "type": "address"
        }
      ],
      "name": "OwnershipTransferred",
      "type": "event"
    },
    {
      "anonymous": false,
      "inputs": [
        {
          "indexed": true,
          "internalType": "address",
          "name": "from",
          "type": "address"
        },
        {
          "indexed": true,
          "internalType": "address",
          "name": "to",
          "type": "address"
        },
        {
          "indexed": true,
          "internalType": "uint256",
          "name": "tokenId",
          "type": "uint256"
        }
      ],
      "name": "Transfer",
      "type": "event"
    },
    {
      "inputs": [],
      "name": "_maxSupply",
      "outputs": [
        {
          "internalType": "uint256",
          "name": "",
          "type": "uint256"
        }
      ],
      "stateMutability": "view",
      "type": "function"
    },
    {
      "inputs": [],
      "name": "_paused",
      "outputs": [
        {
          "internalType": "bool",
          "name": "",
          "type": "bool"
        }
      ],
      "stateMutability": "view",
      "type": "function"
    },
    {
      "inputs": [],
      "name": "_price",
      "outputs": [
        {
          "internalType": "uint256",
          "name": "",
          "type": "uint256"
        }
      ],
      "stateMutability": "view",
      "type": "function"
    },
    {
      "inputs": [
        {
          "internalType": "address",
          "name": "to",
          "type": "address"
        },
        {
          "internalType": "uint256",
          "name": "tokenId",
          "type": "uint256"
        }
      ],
      "name": "approve",
      "outputs": [],
      "stateMutability": "nonpayable",
      "type": "function"
    },
    {
      "inputs": [
        {
          "internalType": "address",
          "name": "owner",
          "type": "address"
        }
      ],
      "name": "balanceOf",
      "outputs": [
        {
          "internalType": "uint256",
          "name": "",
          "type": "uint256"
        }
      ],
      "stateMutability": "view",
      "type": "function"
    },
    {
      "inputs": [
        {
          "internalType": "uint256",
          "name": "tokenId",
          "type": "uint256"
        }
      ],
      "name": "getApproved",
      "outputs": [
        {
          "internalType": "address",
          "name": "",
          "type": "address"
        }
      ],
      "stateMutability": "view",
      "type": "function"
    },
    {
      "inputs": [
        {
          "internalType": "address",
          "name": "owner",
          "type": "address"
        },
        {
          "internalType": "address",
          "name": "operator",
          "type": "address"
        }
      ],
      "name": "isApprovedForAll",
      "outputs": [
        {
          "internalType": "bool",
          "name": "",
          "type": "bool"
        }
      ],
      "stateMutability": "view",
      "type": "function"
    },
    {
      "inputs": [],
      "name": "name",
      "outputs": [
        {
          "internalType": "string",
          "name": "",
          "type": "string"
        }
      ],
      "stateMutability": "view",
      "type": "function"
    },
    {
      "inputs": [],
      "name": "owner",
      "outputs": [
        {
          "internalType": "address",
          "name": "",
          "type": "address"
        }
      ],
      "stateMutability": "view",
      "type": "function"
    },
    {
      "inputs": [
        {
          "internalType": "uint256",
          "name": "tokenId",
          "type": "uint256"
        }
      ],
      "name": "ownerOf",
      "outputs": [
        {
          "internalType": "address",
          "name": "",
          "type": "address"
        }
      ],
      "stateMutability": "view",
      "type": "function"
    },
    {
      "inputs": [],
      "name": "renounceOwnership",
      "outputs": [],
      "stateMutability": "nonpayable",
      "type": "function"
    },
    {
      "inputs": [
        {
          "internalType": "address",
          "name": "from",
          "type": "address"
        },
        {
          "internalType": "address",
          "name": "to",
          "type": "address"
        },
        {
          "internalType": "uint256",
          "name": "tokenId",
          "type": "uint256"
        }
      ],
      "name": "safeTransferFrom",
      "outputs": [],
      "stateMutability": "nonpayable",
      "type": "function"
    },
    {
      "inputs": [
        {
          "internalType": "address",
          "name": "from",
          "type": "address"
        },
        {
          "internalType": "address",
          "name": "to",
          "type": "address"
        },
        {
          "internalType": "uint256",
          "name": "tokenId",
          "type": "uint256"
        },
        {
          "internalType": "bytes",
          "name": "_data",
          "type": "bytes"
        }
      ],
      "name": "safeTransferFrom",
      "outputs": [],
      "stateMutability": "nonpayable",
      "type": "function"
    },
    {
      "inputs": [
        {
          "internalType": "address",
          "name": "operator",
          "type": "address"
        },
        {
          "internalType": "bool",
          "name": "approved",
          "type": "bool"
        }
      ],
      "name": "setApprovalForAll",
      "outputs": [],
      "stateMutability": "nonpayable",
      "type": "function"
    },
    {
      "inputs": [
        {
          "internalType": "bytes4",
          "name": "interfaceId",
          "type": "bytes4"
        }
      ],
      "name": "supportsInterface",
      "outputs": [
        {
          "internalType": "bool",
          "name": "",
          "type": "bool"
        }
      ],
      "stateMutability": "view",
      "type": "function"
    },
    {
      "inputs": [],
      "name": "symbol",
      "outputs": [
        {
          "internalType": "string",
          "name": "",
          "type": "string"
        }
      ],
      "stateMutability": "view",
      "type": "function"
    },
    {
      "inputs": [
        {
          "internalType": "uint256",
          "name": "index",
          "type": "uint256"
        }
      ],
      "name": "tokenByIndex",
      "outputs": [
        {
          "internalType": "uint256",
          "name": "",
          "type": "uint256"
        }
      ],
      "stateMutability": "view",
      "type": "function"
    },
    {
      "inputs": [
        {
          "internalType": "address",
          "name": "owner",
          "type": "address"
        },
        {
          "internalType": "uint256",
          "name": "index",
          "type": "uint256"
        }
      ],
      "name": "tokenOfOwnerByIndex",
      "outputs": [
        {
          "internalType": "uint256",
          "name": "",
          "type": "uint256"
        }
      ],
      "stateMutability": "view",
      "type": "function"
    },
    {
      "inputs": [],
      "name": "totalSupply",
      "outputs": [
        {
          "internalType": "uint256",
          "name": "",
          "type": "uint256"
        }
      ],
      "stateMutability": "view",
      "type": "function"
    },
    {
      "inputs": [
        {
          "internalType": "address",
          "name": "from",
          "type": "address"
        },
        {
          "internalType": "address",
          "name": "to",
          "type": "address"
        },
        {
          "internalType": "uint256",
          "name": "tokenId",
          "type": "uint256"
        }
      ],
      "name": "transferFrom",
      "outputs": [],
      "stateMutability": "nonpayable",
      "type": "function"
    },
    {
      "inputs": [
        {
          "internalType": "address",
          "name": "newOwner",
          "type": "address"
        }
      ],
      "name": "transferOwnership",
      "outputs": [],
      "stateMutability": "nonpayable",
      "type": "function"
    },
    {
      "inputs": [
        {
          "internalType": "uint256",
          "name": "tokenId",
          "type": "uint256"
        }
      ],
      "name": "tokenURI",
      "outputs": [
        {
          "internalType": "string",
          "name": "",
          "type": "string"
        }
      ],
      "stateMutability": "view",
      "type": "function"
    },
    {
      "inputs": [
        {
          "internalType": "string",
          "name": "loveURI",
          "type": "string"
        }
      ],
      "name": "mint",
      "outputs": [],
      "stateMutability": "payable",
      "type": "function"
    },
    {
      "inputs": [
        {
          "internalType": "uint256",
          "name": "newVal",
          "type": "uint256"
        }
      ],
      "name": "setMaxSupply",
      "outputs": [],
      "stateMutability": "nonpayable",
      "type": "function"
    },
    {
      "inputs": [
        {
          "internalType": "uint256",
          "name": "_newPrice",
          "type": "uint256"
        }
      ],
      "name": "setPrice",
      "outputs": [],
      "stateMutability": "nonpayable",
      "type": "function"
    },
    {
      "inputs": [
        {
          "internalType": "bool",
          "name": "val",
          "type": "bool"
        }
      ],
      "name": "setPause",
      "outputs": [],
      "stateMutability": "nonpayable",
      "type": "function"
    },
    {
      "inputs": [],
      "name": "withdraw",
      "outputs": [],
      "stateMutability": "payable",
      "type": "function"
    }
  ],
  "bytecode": "0x6080604052612710600b5566f5232269808000600c556000600d60006101000a81548160ff0219169083151502179055503480156200003d57600080fd5b506040518060400160405280600781526020017f4c6f76654e4654000000000000000000000000000000000000000000000000008152506040518060400160405280600781526020017f4c4f56454e4654000000000000000000000000000000000000000000000000008152508160009080519060200190620000c2929190620001d2565b508060019080519060200190620000db929190620001d2565b505050620000fe620000f26200010460201b60201c565b6200010c60201b60201c565b620002e7565b600033905090565b6000600a60009054906101000a900473ffffffffffffffffffffffffffffffffffffffff16905081600a60006101000a81548173ffffffffffffffffffffffffffffffffffffffff021916908373ffffffffffffffffffffffffffffffffffffffff1602179055508173ffffffffffffffffffffffffffffffffffffffff168173ffffffffffffffffffffffffffffffffffffffff167f8be0079c531659141344cd1fd0a4f28419497f9722a3daafe3b4186f6b6457e060405160405180910390a35050565b828054620001e09062000282565b90600052602060002090601f01602090048101928262000204576000855562000250565b82601f106200021f57805160ff191683800117855562000250565b8280016001018555821562000250579182015b828111156200024f57825182559160200191906001019062000232565b5b5090506200025f919062000263565b5090565b5b808211156200027e57600081600090555060010162000264565b5090565b600060028204905060018216806200029b57607f821691505b60208210811415620002b257620002b1620002b8565b5b50919050565b7f4e487b7100000000000000000000000000000000000000000000000000000000600052602260045260246000fd5b613f6480620002f76000396000f3fe60806040526004361061019c5760003560e01c80636352211e116100ec578063a22cb4651161008a578063c87b56dd11610064578063c87b56dd146105a5578063d85d3d27146105e2578063e985e9c5146105fe578063f2fde38b1461063b5761019c565b8063a22cb4651461052a578063b88d4fde14610553578063bedb86fb1461057c5761019c565b8063715018a6116100c6578063715018a6146104945780638da5cb5b146104ab57806391b7f5ed146104d657806395d89b41146104ff5761019c565b80636352211e146103f15780636f8b44b01461042e57806370a08231146104575761019c565b806322f4596f116101595780632f745c59116101335780632f745c59146103445780633ccfd60b1461038157806342842e0e1461038b5780634f6ccce7146103b45761019c565b806322f4596f146102c5578063235b6ea1146102f057806323b872dd1461031b5761019c565b806301ffc9a7146101a157806306fdde03146101de578063081812fc14610209578063095ea7b31461024657806316c61ccc1461026f57806318160ddd1461029a575b600080fd5b3480156101ad57600080fd5b506101c860048036038101906101c39190612b41565b610664565b6040516101d591906130f7565b60405180910390f35b3480156101ea57600080fd5b506101f36106de565b6040516102009190613112565b60405180910390f35b34801561021557600080fd5b50610230600480360381019061022b9190612be4565b610770565b60405161023d9190613090565b60405180910390f35b34801561025257600080fd5b5061026d60048036038101906102689190612ad4565b6107f5565b005b34801561027b57600080fd5b5061028461090d565b60405161029191906130f7565b60405180910390f35b3480156102a657600080fd5b506102af610920565b6040516102bc91906133b4565b60405180910390f35b3480156102d157600080fd5b506102da61092d565b6040516102e791906133b4565b60405180910390f35b3480156102fc57600080fd5b50610305610933565b60405161031291906133b4565b60405180910390f35b34801561032757600080fd5b50610342600480360381019061033d91906129be565b610939565b005b34801561035057600080fd5b5061036b60048036038101906103669190612ad4565b610999565b60405161037891906133b4565b60405180910390f35b610389610a3e565b005b34801561039757600080fd5b506103b260048036038101906103ad91906129be565b610b03565b005b3480156103c057600080fd5b506103db60048036038101906103d69190612be4565b610b23565b6040516103e891906133b4565b60405180910390f35b3480156103fd57600080fd5b5061041860048036038101906104139190612be4565b610b94565b6040516104259190613090565b60405180910390f35b34801561043a57600080fd5b5061045560048036038101906104509190612be4565b610c46565b005b34801561046357600080fd5b5061047e60048036038101906104799190612951565b610ccc565b60405161048b91906133b4565b60405180910390f35b3480156104a057600080fd5b506104a9610d84565b005b3480156104b757600080fd5b506104c0610e0c565b6040516104cd9190613090565b60405180910390f35b3480156104e257600080fd5b506104fd60048036038101906104f89190612be4565b610e36565b005b34801561050b57600080fd5b50610514610ebc565b6040516105219190613112565b60405180910390f35b34801561053657600080fd5b50610551600480360381019061054c9190612a94565b610f4e565b005b34801561055f57600080fd5b5061057a60048036038101906105759190612a11565b6110cf565b005b34801561058857600080fd5b506105a3600480360381019061059e9190612b14565b611131565b005b3480156105b157600080fd5b506105cc60048036038101906105c79190612be4565b6111ca565b6040516105d99190613112565b60405180910390f35b6105fc60048036038101906105f79190612b9b565b6112d3565b005b34801561060a57600080fd5b506106256004803603810190610620919061297e565b6113fb565b60405161063291906130f7565b60405180910390f35b34801561064757600080fd5b50610662600480360381019061065d9190612951565b61148f565b005b60007f780e9d63000000000000000000000000000000000000000000000000000000007bffffffffffffffffffffffffffffffffffffffffffffffffffffffff1916827bffffffffffffffffffffffffffffffffffffffffffffffffffffffff191614806106d757506106d682611587565b5b9050919050565b6060600080546106ed90613664565b80601f016020809104026020016040519081016040528092919081815260200182805461071990613664565b80156107665780601f1061073b57610100808354040283529160200191610766565b820191906000526020600020905b81548152906001019060200180831161074957829003601f168201915b5050505050905090565b600061077b82611669565b6107ba576040517f08c379a00000000000000000000000000000000000000000000000000000000081526004016107b1906132b4565b60405180910390fd5b6004600083815260200190815260200160002060009054906101000a900473ffffffffffffffffffffffffffffffffffffffff169050919050565b600061080082610b94565b90508073ffffffffffffffffffffffffffffffffffffffff168373ffffffffffffffffffffffffffffffffffffffff161415610871576040517f08c379a000000000000000000000000000000000000000000000000000000000815260040161086890613314565b60405180910390fd5b8073ffffffffffffffffffffffffffffffffffffffff166108906116d5565b73ffffffffffffffffffffffffffffffffffffffff1614806108bf57506108be816108b96116d5565b6113fb565b5b6108fe576040517f08c379a00000000000000000000000000000000000000000000000000000000081526004016108f590613234565b60405180910390fd5b61090883836116dd565b505050565b600d60009054906101000a900460ff1681565b6000600880549050905090565b600b5481565b600c5481565b61094a6109446116d5565b82611796565b610989576040517f08c379a000000000000000000000000000000000000000000000000000000000815260040161098090613374565b60405180910390fd5b610994838383611874565b505050565b60006109a483610ccc565b82106109e5576040517f08c379a00000000000000000000000000000000000000000000000000000000081526004016109dc90613154565b60405180910390fd5b600660008473ffffffffffffffffffffffffffffffffffffffff1673ffffffffffffffffffffffffffffffffffffffff168152602001908152602001600020600083815260200190815260200160002054905092915050565b610a466116d5565b73ffffffffffffffffffffffffffffffffffffffff16610a64610e0c565b73ffffffffffffffffffffffffffffffffffffffff1614610aba576040517f08c379a0000000000000000000000000000000000000000000000000000000008152600401610ab1906132d4565b60405180910390fd5b3373ffffffffffffffffffffffffffffffffffffffff166108fc479081150290604051600060405180830381858888f19350505050158015610b00573d6000803e3d6000fd5b50565b610b1e838383604051806020016040528060008152506110cf565b505050565b6000610b2d610920565b8210610b6e576040517f08c379a0000000000000000000000000000000000000000000000000000000008152600401610b6590613394565b60405180910390fd5b60088281548110610b8257610b816137fd565b5b90600052602060002001549050919050565b6000806002600084815260200190815260200160002060009054906101000a900473ffffffffffffffffffffffffffffffffffffffff169050600073ffffffffffffffffffffffffffffffffffffffff168173ffffffffffffffffffffffffffffffffffffffff161415610c3d576040517f08c379a0000000000000000000000000000000000000000000000000000000008152600401610c3490613274565b60405180910390fd5b80915050919050565b610c4e6116d5565b73ffffffffffffffffffffffffffffffffffffffff16610c6c610e0c565b73ffffffffffffffffffffffffffffffffffffffff1614610cc2576040517f08c379a0000000000000000000000000000000000000000000000000000000008152600401610cb9906132d4565b60405180910390fd5b80600b8190555050565b60008073ffffffffffffffffffffffffffffffffffffffff168273ffffffffffffffffffffffffffffffffffffffff161415610d3d576040517f08c379a0000000000000000000000000000000000000000000000000000000008152600401610d3490613254565b60405180910390fd5b600360008373ffffffffffffffffffffffffffffffffffffffff1673ffffffffffffffffffffffffffffffffffffffff168152602001908152602001600020549050919050565b610d8c6116d5565b73ffffffffffffffffffffffffffffffffffffffff16610daa610e0c565b73ffffffffffffffffffffffffffffffffffffffff1614610e00576040517f08c379a0000000000000000000000000000000000000000000000000000000008152600401610df7906132d4565b60405180910390fd5b610e0a6000611ad0565b565b6000600a60009054906101000a900473ffffffffffffffffffffffffffffffffffffffff16905090565b610e3e6116d5565b73ffffffffffffffffffffffffffffffffffffffff16610e5c610e0c565b73ffffffffffffffffffffffffffffffffffffffff1614610eb2576040517f08c379a0000000000000000000000000000000000000000000000000000000008152600401610ea9906132d4565b60405180910390fd5b80600c8190555050565b606060018054610ecb90613664565b80601f0160208091040260200160405190810160405280929190818152602001828054610ef790613664565b8015610f445780601f10610f1957610100808354040283529160200191610f44565b820191906000526020600020905b815481529060010190602001808311610f2757829003601f168201915b5050505050905090565b610f566116d5565b73ffffffffffffffffffffffffffffffffffffffff168273ffffffffffffffffffffffffffffffffffffffff161415610fc4576040517f08c379a0000000000000000000000000000000000000000000000000000000008152600401610fbb906131f4565b60405180910390fd5b8060056000610fd16116d5565b73ffffffffffffffffffffffffffffffffffffffff1673ffffffffffffffffffffffffffffffffffffffff16815260200190815260200160002060008473ffffffffffffffffffffffffffffffffffffffff1673ffffffffffffffffffffffffffffffffffffffff16815260200190815260200160002060006101000a81548160ff0219169083151502179055508173ffffffffffffffffffffffffffffffffffffffff1661107e6116d5565b73ffffffffffffffffffffffffffffffffffffffff167f17307eab39ab6107e8899845ad3d59bd9653f200f220920489ca2b5937696c31836040516110c391906130f7565b60405180910390a35050565b6110e06110da6116d5565b83611796565b61111f576040517f08c379a000000000000000000000000000000000000000000000000000000000815260040161111690613374565b60405180910390fd5b61112b84848484611b96565b50505050565b6111396116d5565b73ffffffffffffffffffffffffffffffffffffffff16611157610e0c565b73ffffffffffffffffffffffffffffffffffffffff16146111ad576040517f08c379a00000000000000000000000000000000000000000000000000000000081526004016111a4906132d4565b60405180910390fd5b80600d60006101000a81548160ff02191690831515021790555050565b606060006112a36111da84611bf2565b61127e600e600087815260200190815260200160002080546111fb90613664565b80601f016020809104026020016040519081016040528092919081815260200182805461122790613664565b80156112745780601f1061124957610100808354040283529160200191611274565b820191906000526020600020905b81548152906001019060200180831161125757829003601f168201915b5050505050611d53565b60405160200161128f929190613029565b604051602081830303815290604052611d53565b90506000816040516020016112b8919061306e565b60405160208183030381529060405290508092505050919050565b600060016112df610920565b6112e99190613499565b9050600d60009054906101000a900460ff161561133b576040517f08c379a000000000000000000000000000000000000000000000000000000000815260040161133290613134565b60405180910390fd5b600b54811115611380576040517f08c379a000000000000000000000000000000000000000000000000000000000815260040161137790613334565b60405180910390fd5b600c543410156113c5576040517f08c379a00000000000000000000000000000000000000000000000000000000081526004016113bc90613354565b60405180910390fd5b81600e600083815260200190815260200160002090805190602001906113ec929190612765565b506113f73382611eeb565b5050565b6000600560008473ffffffffffffffffffffffffffffffffffffffff1673ffffffffffffffffffffffffffffffffffffffff16815260200190815260200160002060008373ffffffffffffffffffffffffffffffffffffffff1673ffffffffffffffffffffffffffffffffffffffff16815260200190815260200160002060009054906101000a900460ff16905092915050565b6114976116d5565b73ffffffffffffffffffffffffffffffffffffffff166114b5610e0c565b73ffffffffffffffffffffffffffffffffffffffff161461150b576040517f08c379a0000000000000000000000000000000000000000000000000000000008152600401611502906132d4565b60405180910390fd5b600073ffffffffffffffffffffffffffffffffffffffff168173ffffffffffffffffffffffffffffffffffffffff16141561157b576040517f08c379a000000000000000000000000000000000000000000000000000000000815260040161157290613194565b60405180910390fd5b61158481611ad0565b50565b60007f80ac58cd000000000000000000000000000000000000000000000000000000007bffffffffffffffffffffffffffffffffffffffffffffffffffffffff1916827bffffffffffffffffffffffffffffffffffffffffffffffffffffffff1916148061165257507f5b5e139f000000000000000000000000000000000000000000000000000000007bffffffffffffffffffffffffffffffffffffffffffffffffffffffff1916827bffffffffffffffffffffffffffffffffffffffffffffffffffffffff1916145b80611662575061166182611f09565b5b9050919050565b60008073ffffffffffffffffffffffffffffffffffffffff166002600084815260200190815260200160002060009054906101000a900473ffffffffffffffffffffffffffffffffffffffff1673ffffffffffffffffffffffffffffffffffffffff1614159050919050565b600033905090565b816004600083815260200190815260200160002060006101000a81548173ffffffffffffffffffffffffffffffffffffffff021916908373ffffffffffffffffffffffffffffffffffffffff160217905550808273ffffffffffffffffffffffffffffffffffffffff1661175083610b94565b73ffffffffffffffffffffffffffffffffffffffff167f8c5be1e5ebec7d5bd14f71427d1e84f3dd0314c0f7b2291e5b200ac8c7c3b92560405160405180910390a45050565b60006117a182611669565b6117e0576040517f08c379a00000000000000000000000000000000000000000000000000000000081526004016117d790613214565b60405180910390fd5b60006117eb83610b94565b90508073ffffffffffffffffffffffffffffffffffffffff168473ffffffffffffffffffffffffffffffffffffffff16148061185a57508373ffffffffffffffffffffffffffffffffffffffff1661184284610770565b73ffffffffffffffffffffffffffffffffffffffff16145b8061186b575061186a81856113fb565b5b91505092915050565b8273ffffffffffffffffffffffffffffffffffffffff1661189482610b94565b73ffffffffffffffffffffffffffffffffffffffff16146118ea576040517f08c379a00000000000000000000000000000000000000000000000000000000081526004016118e1906132f4565b60405180910390fd5b600073ffffffffffffffffffffffffffffffffffffffff168273ffffffffffffffffffffffffffffffffffffffff16141561195a576040517f08c379a0000000000000000000000000000000000000000000000000000000008152600401611951906131d4565b60405180910390fd5b611965838383611f73565b6119706000826116dd565b6001600360008573ffffffffffffffffffffffffffffffffffffffff1673ffffffffffffffffffffffffffffffffffffffff16815260200190815260200160002060008282546119c0919061357a565b925050819055506001600360008473ffffffffffffffffffffffffffffffffffffffff1673ffffffffffffffffffffffffffffffffffffffff1681526020019081526020016000206000828254611a179190613499565b92505081905550816002600083815260200190815260200160002060006101000a81548173ffffffffffffffffffffffffffffffffffffffff021916908373ffffffffffffffffffffffffffffffffffffffff160217905550808273ffffffffffffffffffffffffffffffffffffffff168473ffffffffffffffffffffffffffffffffffffffff167fddf252ad1be2c89b69c2b068fc378daa952ba7f163c4a11628f55a4df523b3ef60405160405180910390a4505050565b6000600a60009054906101000a900473ffffffffffffffffffffffffffffffffffffffff16905081600a60006101000a81548173ffffffffffffffffffffffffffffffffffffffff021916908373ffffffffffffffffffffffffffffffffffffffff1602179055508173ffffffffffffffffffffffffffffffffffffffff168173ffffffffffffffffffffffffffffffffffffffff167f8be0079c531659141344cd1fd0a4f28419497f9722a3daafe3b4186f6b6457e060405160405180910390a35050565b611ba1848484611874565b611bad84848484612087565b611bec576040517f08c379a0000000000000000000000000000000000000000000000000000000008152600401611be390613174565b60405180910390fd5b50505050565b60606000821415611c3a576040518060400160405280600181526020017f30000000000000000000000000000000000000000000000000000000000000008152509050611d4e565b600082905060005b60008214611c6c578080611c55906136c7565b915050600a82611c6591906134ef565b9150611c42565b60008167ffffffffffffffff811115611c8857611c8761382c565b5b6040519080825280601f01601f191660200182016040528015611cba5781602001600182028036833780820191505090505b5090505b60008514611d4757600182611cd3919061357a565b9150600a85611ce29190613710565b6030611cee9190613499565b60f81b818381518110611d0457611d036137fd565b5b60200101907effffffffffffffffffffffffffffffffffffffffffffffffffffffffffffff1916908160001a905350600a85611d4091906134ef565b9450611cbe565b8093505050505b919050565b60606000825190506000811415611d7c5760405180602001604052806000815250915050611ee6565b60006003600283611d8d9190613499565b611d9791906134ef565b6004611da39190613520565b90506000602082611db49190613499565b67ffffffffffffffff811115611dcd57611dcc61382c565b5b6040519080825280601f01601f191660200182016040528015611dff5781602001600182028036833780820191505090505b5090506000604051806060016040528060408152602001613eef604091399050600181016020830160005b86811015611ea35760038101905062ffffff818a015116603f8160121c168401518060081b905060ff603f83600c1c1686015116810190508060081b905060ff603f8360061c1686015116810190508060081b905060ff603f831686015116810190508060e01b90508084526004840193505050611e2a565b506003860660018114611ebd5760028114611ecd57611ed8565b613d3d60f01b6002830352611ed8565b603d60f81b60018303525b508484525050819450505050505b919050565b611f0582826040518060200160405280600081525061221e565b5050565b60007f01ffc9a7000000000000000000000000000000000000000000000000000000007bffffffffffffffffffffffffffffffffffffffffffffffffffffffff1916827bffffffffffffffffffffffffffffffffffffffffffffffffffffffff1916149050919050565b611f7e838383612279565b600073ffffffffffffffffffffffffffffffffffffffff168373ffffffffffffffffffffffffffffffffffffffff161415611fc157611fbc8161227e565b612000565b8173ffffffffffffffffffffffffffffffffffffffff168373ffffffffffffffffffffffffffffffffffffffff1614611fff57611ffe83826122c7565b5b5b600073ffffffffffffffffffffffffffffffffffffffff168273ffffffffffffffffffffffffffffffffffffffff1614156120435761203e81612434565b612082565b8273ffffffffffffffffffffffffffffffffffffffff168273ffffffffffffffffffffffffffffffffffffffff1614612081576120808282612505565b5b5b505050565b60006120a88473ffffffffffffffffffffffffffffffffffffffff16612584565b15612211578373ffffffffffffffffffffffffffffffffffffffff1663150b7a026120d16116d5565b8786866040518563ffffffff1660e01b81526004016120f394939291906130ab565b602060405180830381600087803b15801561210d57600080fd5b505af192505050801561213e57506040513d601f19601f8201168201806040525081019061213b9190612b6e565b60015b6121c1573d806000811461216e576040519150601f19603f3d011682016040523d82523d6000602084013e612173565b606091505b506000815114156121b9576040517f08c379a00000000000000000000000000000000000000000000000000000000081526004016121b090613174565b60405180910390fd5b805181602001fd5b63150b7a0260e01b7bffffffffffffffffffffffffffffffffffffffffffffffffffffffff1916817bffffffffffffffffffffffffffffffffffffffffffffffffffffffff191614915050612216565b600190505b949350505050565b6122288383612597565b6122356000848484612087565b612274576040517f08c379a000000000000000000000000000000000000000000000000000000000815260040161226b90613174565b60405180910390fd5b505050565b505050565b6008805490506009600083815260200190815260200160002081905550600881908060018154018082558091505060019003906000526020600020016000909190919091505550565b600060016122d484610ccc565b6122de919061357a565b90506000600760008481526020019081526020016000205490508181146123c3576000600660008673ffffffffffffffffffffffffffffffffffffffff1673ffffffffffffffffffffffffffffffffffffffff168152602001908152602001600020600084815260200190815260200160002054905080600660008773ffffffffffffffffffffffffffffffffffffffff1673ffffffffffffffffffffffffffffffffffffffff168152602001908152602001600020600084815260200190815260200160002081905550816007600083815260200190815260200160002081905550505b6007600084815260200190815260200160002060009055600660008573ffffffffffffffffffffffffffffffffffffffff1673ffffffffffffffffffffffffffffffffffffffff16815260200190815260200160002060008381526020019081526020016000206000905550505050565b60006001600880549050612448919061357a565b9050600060096000848152602001908152602001600020549050600060088381548110612478576124776137fd565b5b90600052602060002001549050806008838154811061249a576124996137fd565b5b9060005260206000200181905550816009600083815260200190815260200160002081905550600960008581526020019081526020016000206000905560088054806124e9576124e86137ce565b5b6001900381819060005260206000200160009055905550505050565b600061251083610ccc565b905081600660008573ffffffffffffffffffffffffffffffffffffffff1673ffffffffffffffffffffffffffffffffffffffff168152602001908152602001600020600083815260200190815260200160002081905550806007600084815260200190815260200160002081905550505050565b600080823b905060008111915050919050565b600073ffffffffffffffffffffffffffffffffffffffff168273ffffffffffffffffffffffffffffffffffffffff161415612607576040517f08c379a00000000000000000000000000000000000000000000000000000000081526004016125fe90613294565b60405180910390fd5b61261081611669565b15612650576040517f08c379a0000000000000000000000000000000000000000000000000000000008152600401612647906131b4565b60405180910390fd5b61265c60008383611f73565b6001600360008473ffffffffffffffffffffffffffffffffffffffff1673ffffffffffffffffffffffffffffffffffffffff16815260200190815260200160002060008282546126ac9190613499565b92505081905550816002600083815260200190815260200160002060006101000a81548173ffffffffffffffffffffffffffffffffffffffff021916908373ffffffffffffffffffffffffffffffffffffffff160217905550808273ffffffffffffffffffffffffffffffffffffffff16600073ffffffffffffffffffffffffffffffffffffffff167fddf252ad1be2c89b69c2b068fc378daa952ba7f163c4a11628f55a4df523b3ef60405160405180910390a45050565b82805461277190613664565b90600052602060002090601f01602090048101928261279357600085556127da565b82601f106127ac57805160ff19168380011785556127da565b828001600101855582156127da579182015b828111156127d95782518255916020019190600101906127be565b5b5090506127e791906127eb565b5090565b5b808211156128045760008160009055506001016127ec565b5090565b600061281b612816846133f4565b6133cf565b90508281526020810184848401111561283757612836613860565b5b612842848285613622565b509392505050565b600061285d61285884613425565b6133cf565b90508281526020810184848401111561287957612878613860565b5b612884848285613622565b509392505050565b60008135905061289b81613e92565b92915050565b6000813590506128b081613ea9565b92915050565b6000813590506128c581613ec0565b92915050565b6000815190506128da81613ec0565b92915050565b600082601f8301126128f5576128f461385b565b5b8135612905848260208601612808565b91505092915050565b600082601f8301126129235761292261385b565b5b813561293384826020860161284a565b91505092915050565b60008135905061294b81613ed7565b92915050565b6000602082840312156129675761296661386a565b5b60006129758482850161288c565b91505092915050565b600080604083850312156129955761299461386a565b5b60006129a38582860161288c565b92505060206129b48582860161288c565b9150509250929050565b6000806000606084860312156129d7576129d661386a565b5b60006129e58682870161288c565b93505060206129f68682870161288c565b9250506040612a078682870161293c565b9150509250925092565b60008060008060808587031215612a2b57612a2a61386a565b5b6000612a398782880161288c565b9450506020612a4a8782880161288c565b9350506040612a5b8782880161293c565b925050606085013567ffffffffffffffff811115612a7c57612a7b613865565b5b612a88878288016128e0565b91505092959194509250565b60008060408385031215612aab57612aaa61386a565b5b6000612ab98582860161288c565b9250506020612aca858286016128a1565b9150509250929050565b60008060408385031215612aeb57612aea61386a565b5b6000612af98582860161288c565b9250506020612b0a8582860161293c565b9150509250929050565b600060208284031215612b2a57612b2961386a565b5b6000612b38848285016128a1565b91505092915050565b600060208284031215612b5757612b5661386a565b5b6000612b65848285016128b6565b91505092915050565b600060208284031215612b8457612b8361386a565b5b6000612b92848285016128cb565b91505092915050565b600060208284031215612bb157612bb061386a565b5b600082013567ffffffffffffffff811115612bcf57612bce613865565b5b612bdb8482850161290e565b91505092915050565b600060208284031215612bfa57612bf961386a565b5b6000612c088482850161293c565b91505092915050565b612c1a816135ae565b82525050565b612c29816135c0565b82525050565b6000612c3a82613456565b612c44818561346c565b9350612c54818560208601613631565b612c5d8161386f565b840191505092915050565b6000612c7382613461565b612c7d818561347d565b9350612c8d818560208601613631565b612c968161386f565b840191505092915050565b6000612cac82613461565b612cb6818561348e565b9350612cc6818560208601613631565b80840191505092915050565b6000612cdf600b8361347d565b9150612cea82613880565b602082019050919050565b6000612d02602b8361347d565b9150612d0d826138a9565b604082019050919050565b6000612d2560328361347d565b9150612d30826138f8565b604082019050919050565b6000612d4860268361347d565b9150612d5382613947565b604082019050919050565b6000612d6b601c8361347d565b9150612d7682613996565b602082019050919050565b6000612d8e605f8361348e565b9150612d99826139bf565b605f82019050919050565b6000612db160138361348e565b9150612dbc82613a34565b601382019050919050565b6000612dd460248361347d565b9150612ddf82613a5d565b604082019050919050565b6000612df760198361347d565b9150612e0282613aac565b602082019050919050565b6000612e1a602c8361347d565b9150612e2582613ad5565b604082019050919050565b6000612e3d60388361347d565b9150612e4882613b24565b604082019050919050565b6000612e60602a8361347d565b9150612e6b82613b73565b604082019050919050565b6000612e8360298361347d565b9150612e8e82613bc2565b604082019050919050565b6000612ea660028361348e565b9150612eb182613c11565b600282019050919050565b6000612ec960208361347d565b9150612ed482613c3a565b602082019050919050565b6000612eec602c8361347d565b9150612ef782613c63565b604082019050919050565b6000612f0f60208361347d565b9150612f1a82613cb2565b602082019050919050565b6000612f3260298361347d565b9150612f3d82613cdb565b604082019050919050565b6000612f5560218361347d565b9150612f6082613d2a565b604082019050919050565b6000612f7860168361347d565b9150612f8382613d79565b602082019050919050565b6000612f9b60198361347d565b9150612fa682613da2565b602082019050919050565b6000612fbe601d8361348e565b9150612fc982613dcb565b601d82019050919050565b6000612fe160318361347d565b9150612fec82613df4565b604082019050919050565b6000613004602c8361347d565b915061300f82613e43565b604082019050919050565b61302381613618565b82525050565b600061303482612da4565b91506130408285612ca1565b915061304b82612d81565b91506130578284612ca1565b915061306282612e99565b91508190509392505050565b600061307982612fb1565b91506130858284612ca1565b915081905092915050565b60006020820190506130a56000830184612c11565b92915050565b60006080820190506130c06000830187612c11565b6130cd6020830186612c11565b6130da604083018561301a565b81810360608301526130ec8184612c2f565b905095945050505050565b600060208201905061310c6000830184612c20565b92915050565b6000602082019050818103600083015261312c8184612c68565b905092915050565b6000602082019050818103600083015261314d81612cd2565b9050919050565b6000602082019050818103600083015261316d81612cf5565b9050919050565b6000602082019050818103600083015261318d81612d18565b9050919050565b600060208201905081810360008301526131ad81612d3b565b9050919050565b600060208201905081810360008301526131cd81612d5e565b9050919050565b600060208201905081810360008301526131ed81612dc7565b9050919050565b6000602082019050818103600083015261320d81612dea565b9050919050565b6000602082019050818103600083015261322d81612e0d565b9050919050565b6000602082019050818103600083015261324d81612e30565b9050919050565b6000602082019050818103600083015261326d81612e53565b9050919050565b6000602082019050818103600083015261328d81612e76565b9050919050565b600060208201905081810360008301526132ad81612ebc565b9050919050565b600060208201905081810360008301526132cd81612edf565b9050919050565b600060208201905081810360008301526132ed81612f02565b9050919050565b6000602082019050818103600083015261330d81612f25565b9050919050565b6000602082019050818103600083015261332d81612f48565b9050919050565b6000602082019050818103600083015261334d81612f6b565b9050919050565b6000602082019050818103600083015261336d81612f8e565b9050919050565b6000602082019050818103600083015261338d81612fd4565b9050919050565b600060208201905081810360008301526133ad81612ff7565b9050919050565b60006020820190506133c9600083018461301a565b92915050565b60006133d96133ea565b90506133e58282613696565b919050565b6000604051905090565b600067ffffffffffffffff82111561340f5761340e61382c565b5b6134188261386f565b9050602081019050919050565b600067ffffffffffffffff8211156134405761343f61382c565b5b6134498261386f565b9050602081019050919050565b600081519050919050565b600081519050919050565b600082825260208201905092915050565b600082825260208201905092915050565b600081905092915050565b60006134a482613618565b91506134af83613618565b9250827fffffffffffffffffffffffffffffffffffffffffffffffffffffffffffffffff038211156134e4576134e3613741565b5b828201905092915050565b60006134fa82613618565b915061350583613618565b92508261351557613514613770565b5b828204905092915050565b600061352b82613618565b915061353683613618565b9250817fffffffffffffffffffffffffffffffffffffffffffffffffffffffffffffffff048311821515161561356f5761356e613741565b5b828202905092915050565b600061358582613618565b915061359083613618565b9250828210156135a3576135a2613741565b5b828203905092915050565b60006135b9826135f8565b9050919050565b60008115159050919050565b60007fffffffff0000000000000000000000000000000000000000000000000000000082169050919050565b600073ffffffffffffffffffffffffffffffffffffffff82169050919050565b6000819050919050565b82818337600083830152505050565b60005b8381101561364f578082015181840152602081019050613634565b8381111561365e576000848401525b50505050565b6000600282049050600182168061367c57607f821691505b602082108114156136905761368f61379f565b5b50919050565b61369f8261386f565b810181811067ffffffffffffffff821117156136be576136bd61382c565b5b80604052505050565b60006136d282613618565b91507fffffffffffffffffffffffffffffffffffffffffffffffffffffffffffffffff82141561370557613704613741565b5b600182019050919050565b600061371b82613618565b915061372683613618565b92508261373657613735613770565b5b828206905092915050565b7f4e487b7100000000000000000000000000000000000000000000000000000000600052601160045260246000fd5b7f4e487b7100000000000000000000000000000000000000000000000000000000600052601260045260246000fd5b7f4e487b7100000000000000000000000000000000000000000000000000000000600052602260045260246000fd5b7f4e487b7100000000000000000000000000000000000000000000000000000000600052603160045260246000fd5b7f4e487b7100000000000000000000000000000000000000000000000000000000600052603260045260246000fd5b7f4e487b7100000000000000000000000000000000000000000000000000000000600052604160045260246000fd5b600080fd5b600080fd5b600080fd5b600080fd5b6000601f19601f8301169050919050565b7f53616c6520706175736564000000000000000000000000000000000000000000600082015250565b7f455243373231456e756d657261626c653a206f776e657220696e646578206f7560008201527f74206f6620626f756e6473000000000000000000000000000000000000000000602082015250565b7f4552433732313a207472616e7366657220746f206e6f6e20455243373231526560008201527f63656976657220696d706c656d656e7465720000000000000000000000000000602082015250565b7f4f776e61626c653a206e6577206f776e657220697320746865207a65726f206160008201527f6464726573730000000000000000000000000000000000000000000000000000602082015250565b7f4552433732313a20746f6b656e20616c7265616479206d696e74656400000000600082015250565b7f222c20226465736372697074696f6e223a20224c6f76654e4654202d204e465460008201527f206d65737361676520666f722061206c6f766564206f6e65222c2022696d616760208201527f65223a2022646174613a696d6167652f7376672b786d6c3b6261736536342c00604082015250565b7f7b226e616d65223a20224c6f76654e4654202300000000000000000000000000600082015250565b7f4552433732313a207472616e7366657220746f20746865207a65726f2061646460008201527f7265737300000000000000000000000000000000000000000000000000000000602082015250565b7f4552433732313a20617070726f766520746f2063616c6c657200000000000000600082015250565b7f4552433732313a206f70657261746f7220717565727920666f72206e6f6e657860008201527f697374656e7420746f6b656e0000000000000000000000000000000000000000602082015250565b7f4552433732313a20617070726f76652063616c6c6572206973206e6f74206f7760008201527f6e6572206e6f7220617070726f76656420666f7220616c6c0000000000000000602082015250565b7f4552433732313a2062616c616e636520717565727920666f7220746865207a6560008201527f726f206164647265737300000000000000000000000000000000000000000000602082015250565b7f4552433732313a206f776e657220717565727920666f72206e6f6e657869737460008201527f656e7420746f6b656e0000000000000000000000000000000000000000000000602082015250565b7f227d000000000000000000000000000000000000000000000000000000000000600082015250565b7f4552433732313a206d696e7420746f20746865207a65726f2061646472657373600082015250565b7f4552433732313a20617070726f76656420717565727920666f72206e6f6e657860008201527f697374656e7420746f6b656e0000000000000000000000000000000000000000602082015250565b7f4f776e61626c653a2063616c6c6572206973206e6f7420746865206f776e6572600082015250565b7f4552433732313a207472616e73666572206f6620746f6b656e2074686174206960008201527f73206e6f74206f776e0000000000000000000000000000000000000000000000602082015250565b7f4552433732313a20617070726f76616c20746f2063757272656e74206f776e6560008201527f7200000000000000000000000000000000000000000000000000000000000000602082015250565b7f45786365656473206d6178696d756d20737570706c7900000000000000000000600082015250565b7f45746865722073656e74206973206e6f7420636f727265637400000000000000600082015250565b7f646174613a6170706c69636174696f6e2f6a736f6e3b6261736536342c000000600082015250565b7f4552433732313a207472616e736665722063616c6c6572206973206e6f74206f60008201527f776e6572206e6f7220617070726f766564000000000000000000000000000000602082015250565b7f455243373231456e756d657261626c653a20676c6f62616c20696e646578206f60008201527f7574206f6620626f756e64730000000000000000000000000000000000000000602082015250565b613e9b816135ae565b8114613ea657600080fd5b50565b613eb2816135c0565b8114613ebd57600080fd5b50565b613ec9816135cc565b8114613ed457600080fd5b50565b613ee081613618565b8114613eeb57600080fd5b5056fe4142434445464748494a4b4c4d4e4f505152535455565758595a6162636465666768696a6b6c6d6e6f707172737475767778797a303132333435363738392b2fa26469706673582212206fdaabb6bc8f4a9e5461f57925ec1b9b7e667f23d36433f5623ab4ef171ad60d64736f6c63430008070033",
  "immutableReferences": {},
  "source": "// SPDX-License-Identifier: MIT\n\npragma solidity ^0.8.0;\n\nimport \"./FullERC721.sol\";\n\ncontract LoveNFT is ERC721Enumerable, Ownable {\n\n    uint256 public _maxSupply = 10000;\n    uint256 public _price = 0.069 ether;\n    bool public _paused = false;\n\n\tmapping (uint256 => string) private _tokenId2tokenURI;\n    \n    constructor() ERC721(\"LoveNFT\", \"LOVENFT\") Ownable() {\n\t}\n\n    function tokenURI(uint256 tokenId) override public view returns (string memory) {\n        string memory json = Base64.encode(bytes(string(abi.encodePacked('{\"name\": \"LoveNFT #', Strings.toString(tokenId), '\", \"description\": \"LoveNFT - NFT message for a loved one\", \"image\": \"data:image/svg+xml;base64,', Base64.encode(bytes(_tokenId2tokenURI[tokenId])), '\"}'))));\n        string memory output = string(abi.encodePacked('data:application/json;base64,', json));\n\n        return output;\n    }\n    function mint(string memory loveURI) external payable {\n        uint256 tokenId = totalSupply() + 1;\n        require(!_paused, \"Sale paused\");\n        require(tokenId <= _maxSupply, \"Exceeds maximum supply\");\n        require(msg.value >= _price, \"Ether sent is not correct\");\n\n        _tokenId2tokenURI[tokenId] = loveURI;\n        _safeMint(msg.sender, tokenId);\n    }\n    function setMaxSupply(uint256 newVal) external onlyOwner {\n        _maxSupply = newVal;\n    }\n    function setPrice(uint256 _newPrice) external onlyOwner {\n        _price = _newPrice;\n    }\n    function setPause(bool val) external onlyOwner {\n        _paused = val;\n    }\n    function withdraw() external payable onlyOwner {\n        payable(msg.sender).transfer(address(this).balance);\n    }\n}\n",
  "sourcePath": "/home/ec2-user/github/nftlaunchpad-dapp/src/contracts/LoveNFT.sol",
  "compiler": {
    "name": "solc",
    "version": "0.8.7+commit.e28d00a7.Emscripten.clang"
  },
  "schemaVersion": "3.4.3",
  "updatedAt": "2022-03-03T13:02:52.521Z",
  "devdoc": {
    "kind": "dev",
    "methods": {
      "approve(address,uint256)": {
        "details": "See {IERC721-approve}."
      },
      "balanceOf(address)": {
        "details": "See {IERC721-balanceOf}."
      },
      "getApproved(uint256)": {
        "details": "See {IERC721-getApproved}."
      },
      "isApprovedForAll(address,address)": {
        "details": "See {IERC721-isApprovedForAll}."
      },
      "name()": {
        "details": "See {IERC721Metadata-name}."
      },
      "owner()": {
        "details": "Returns the address of the current owner."
      },
      "ownerOf(uint256)": {
        "details": "See {IERC721-ownerOf}."
      },
      "renounceOwnership()": {
        "details": "Leaves the contract without owner. It will not be possible to call `onlyOwner` functions anymore. Can only be called by the current owner. NOTE: Renouncing ownership will leave the contract without an owner, thereby removing any functionality that is only available to the owner."
      },
      "safeTransferFrom(address,address,uint256)": {
        "details": "See {IERC721-safeTransferFrom}."
      },
      "safeTransferFrom(address,address,uint256,bytes)": {
        "details": "See {IERC721-safeTransferFrom}."
      },
      "setApprovalForAll(address,bool)": {
        "details": "See {IERC721-setApprovalForAll}."
      },
      "supportsInterface(bytes4)": {
        "details": "See {IERC165-supportsInterface}."
      },
      "symbol()": {
        "details": "See {IERC721Metadata-symbol}."
      },
      "tokenByIndex(uint256)": {
        "details": "See {IERC721Enumerable-tokenByIndex}."
      },
      "tokenOfOwnerByIndex(address,uint256)": {
        "details": "See {IERC721Enumerable-tokenOfOwnerByIndex}."
      },
      "tokenURI(uint256)": {
        "details": "See {IERC721Metadata-tokenURI}."
      },
      "totalSupply()": {
        "details": "See {IERC721Enumerable-totalSupply}."
      },
      "transferFrom(address,address,uint256)": {
        "details": "See {IERC721-transferFrom}."
      },
      "transferOwnership(address)": {
        "details": "Transfers ownership of the contract to a new account (`newOwner`). Can only be called by the current owner."
      }
    },
    "version": 1
  },
  "userdoc": {
    "kind": "user",
    "methods": {},
    "version": 1
  }
}