{
  "contractName": "LoveNFT",
  "abi": [
    {
      "inputs": [],
      "stateMutability": "nonpayable",
      "type": "constructor"
    },
    {
      "anonymous": false,
      "inputs": [
        {
          "indexed": true,
          "internalType": "address",
          "name": "owner",
          "type": "address"
        },
        {
          "indexed": true,
          "internalType": "address",
          "name": "approved",
          "type": "address"
        },
        {
          "indexed": true,
          "internalType": "uint256",
          "name": "tokenId",
          "type": "uint256"
        }
      ],
      "name": "Approval",
      "type": "event"
    },
    {
      "anonymous": false,
      "inputs": [
        {
          "indexed": true,
          "internalType": "address",
          "name": "owner",
          "type": "address"
        },
        {
          "indexed": true,
          "internalType": "address",
          "name": "operator",
          "type": "address"
        },
        {
          "indexed": false,
          "internalType": "bool",
          "name": "approved",
          "type": "bool"
        }
      ],
      "name": "ApprovalForAll",
      "type": "event"
    },
    {
      "anonymous": false,
      "inputs": [
        {
          "indexed": true,
          "internalType": "address",
          "name": "previousOwner",
          "type": "address"
        },
        {
          "indexed": true,
          "internalType": "address",
          "name": "newOwner",
          "type": "address"
        }
      ],
      "name": "OwnershipTransferred",
      "type": "event"
    },
    {
      "anonymous": false,
      "inputs": [
        {
          "indexed": true,
          "internalType": "address",
          "name": "from",
          "type": "address"
        },
        {
          "indexed": true,
          "internalType": "address",
          "name": "to",
          "type": "address"
        },
        {
          "indexed": true,
          "internalType": "uint256",
          "name": "tokenId",
          "type": "uint256"
        }
      ],
      "name": "Transfer",
      "type": "event"
    },
    {
      "inputs": [],
      "name": "_maxSupply",
      "outputs": [
        {
          "internalType": "uint256",
          "name": "",
          "type": "uint256"
        }
      ],
      "stateMutability": "view",
      "type": "function"
    },
    {
      "inputs": [],
      "name": "_paused",
      "outputs": [
        {
          "internalType": "bool",
          "name": "",
          "type": "bool"
        }
      ],
      "stateMutability": "view",
      "type": "function"
    },
    {
      "inputs": [],
      "name": "_price",
      "outputs": [
        {
          "internalType": "uint256",
          "name": "",
          "type": "uint256"
        }
      ],
      "stateMutability": "view",
      "type": "function"
    },
    {
      "inputs": [
        {
          "internalType": "address",
          "name": "to",
          "type": "address"
        },
        {
          "internalType": "uint256",
          "name": "tokenId",
          "type": "uint256"
        }
      ],
      "name": "approve",
      "outputs": [],
      "stateMutability": "nonpayable",
      "type": "function"
    },
    {
      "inputs": [
        {
          "internalType": "address",
          "name": "owner",
          "type": "address"
        }
      ],
      "name": "balanceOf",
      "outputs": [
        {
          "internalType": "uint256",
          "name": "",
          "type": "uint256"
        }
      ],
      "stateMutability": "view",
      "type": "function"
    },
    {
      "inputs": [
        {
          "internalType": "uint256",
          "name": "tokenId",
          "type": "uint256"
        }
      ],
      "name": "getApproved",
      "outputs": [
        {
          "internalType": "address",
          "name": "",
          "type": "address"
        }
      ],
      "stateMutability": "view",
      "type": "function"
    },
    {
      "inputs": [
        {
          "internalType": "address",
          "name": "owner",
          "type": "address"
        },
        {
          "internalType": "address",
          "name": "operator",
          "type": "address"
        }
      ],
      "name": "isApprovedForAll",
      "outputs": [
        {
          "internalType": "bool",
          "name": "",
          "type": "bool"
        }
      ],
      "stateMutability": "view",
      "type": "function"
    },
    {
      "inputs": [],
      "name": "name",
      "outputs": [
        {
          "internalType": "string",
          "name": "",
          "type": "string"
        }
      ],
      "stateMutability": "view",
      "type": "function"
    },
    {
      "inputs": [],
      "name": "owner",
      "outputs": [
        {
          "internalType": "address",
          "name": "",
          "type": "address"
        }
      ],
      "stateMutability": "view",
      "type": "function"
    },
    {
      "inputs": [
        {
          "internalType": "uint256",
          "name": "tokenId",
          "type": "uint256"
        }
      ],
      "name": "ownerOf",
      "outputs": [
        {
          "internalType": "address",
          "name": "",
          "type": "address"
        }
      ],
      "stateMutability": "view",
      "type": "function"
    },
    {
      "inputs": [],
      "name": "renounceOwnership",
      "outputs": [],
      "stateMutability": "nonpayable",
      "type": "function"
    },
    {
      "inputs": [
        {
          "internalType": "address",
          "name": "from",
          "type": "address"
        },
        {
          "internalType": "address",
          "name": "to",
          "type": "address"
        },
        {
          "internalType": "uint256",
          "name": "tokenId",
          "type": "uint256"
        }
      ],
      "name": "safeTransferFrom",
      "outputs": [],
      "stateMutability": "nonpayable",
      "type": "function"
    },
    {
      "inputs": [
        {
          "internalType": "address",
          "name": "from",
          "type": "address"
        },
        {
          "internalType": "address",
          "name": "to",
          "type": "address"
        },
        {
          "internalType": "uint256",
          "name": "tokenId",
          "type": "uint256"
        },
        {
          "internalType": "bytes",
          "name": "_data",
          "type": "bytes"
        }
      ],
      "name": "safeTransferFrom",
      "outputs": [],
      "stateMutability": "nonpayable",
      "type": "function"
    },
    {
      "inputs": [
        {
          "internalType": "address",
          "name": "operator",
          "type": "address"
        },
        {
          "internalType": "bool",
          "name": "approved",
          "type": "bool"
        }
      ],
      "name": "setApprovalForAll",
      "outputs": [],
      "stateMutability": "nonpayable",
      "type": "function"
    },
    {
      "inputs": [
        {
          "internalType": "bytes4",
          "name": "interfaceId",
          "type": "bytes4"
        }
      ],
      "name": "supportsInterface",
      "outputs": [
        {
          "internalType": "bool",
          "name": "",
          "type": "bool"
        }
      ],
      "stateMutability": "view",
      "type": "function"
    },
    {
      "inputs": [],
      "name": "symbol",
      "outputs": [
        {
          "internalType": "string",
          "name": "",
          "type": "string"
        }
      ],
      "stateMutability": "view",
      "type": "function"
    },
    {
      "inputs": [
        {
          "internalType": "uint256",
          "name": "index",
          "type": "uint256"
        }
      ],
      "name": "tokenByIndex",
      "outputs": [
        {
          "internalType": "uint256",
          "name": "",
          "type": "uint256"
        }
      ],
      "stateMutability": "view",
      "type": "function"
    },
    {
      "inputs": [
        {
          "internalType": "address",
          "name": "owner",
          "type": "address"
        },
        {
          "internalType": "uint256",
          "name": "index",
          "type": "uint256"
        }
      ],
      "name": "tokenOfOwnerByIndex",
      "outputs": [
        {
          "internalType": "uint256",
          "name": "",
          "type": "uint256"
        }
      ],
      "stateMutability": "view",
      "type": "function"
    },
    {
      "inputs": [],
      "name": "totalSupply",
      "outputs": [
        {
          "internalType": "uint256",
          "name": "",
          "type": "uint256"
        }
      ],
      "stateMutability": "view",
      "type": "function"
    },
    {
      "inputs": [
        {
          "internalType": "address",
          "name": "from",
          "type": "address"
        },
        {
          "internalType": "address",
          "name": "to",
          "type": "address"
        },
        {
          "internalType": "uint256",
          "name": "tokenId",
          "type": "uint256"
        }
      ],
      "name": "transferFrom",
      "outputs": [],
      "stateMutability": "nonpayable",
      "type": "function"
    },
    {
      "inputs": [
        {
          "internalType": "address",
          "name": "newOwner",
          "type": "address"
        }
      ],
      "name": "transferOwnership",
      "outputs": [],
      "stateMutability": "nonpayable",
      "type": "function"
    },
    {
      "inputs": [
        {
          "internalType": "uint256",
          "name": "tokenId",
          "type": "uint256"
        }
      ],
      "name": "tokenURI",
      "outputs": [
        {
          "internalType": "string",
          "name": "",
          "type": "string"
        }
      ],
      "stateMutability": "view",
      "type": "function"
    },
    {
      "inputs": [
        {
          "internalType": "uint256",
          "name": "tokenId",
          "type": "uint256"
        },
        {
          "internalType": "string",
          "name": "loveURI",
          "type": "string"
        }
      ],
      "name": "mint",
      "outputs": [],
      "stateMutability": "payable",
      "type": "function"
    },
    {
      "inputs": [
        {
          "internalType": "uint256",
          "name": "newVal",
          "type": "uint256"
        }
      ],
      "name": "setMaxSupply",
      "outputs": [],
      "stateMutability": "nonpayable",
      "type": "function"
    },
    {
      "inputs": [
        {
          "internalType": "uint256",
          "name": "_newPrice",
          "type": "uint256"
        }
      ],
      "name": "setPrice",
      "outputs": [],
      "stateMutability": "nonpayable",
      "type": "function"
    },
    {
      "inputs": [
        {
          "internalType": "bool",
          "name": "val",
          "type": "bool"
        }
      ],
      "name": "setPause",
      "outputs": [],
      "stateMutability": "nonpayable",
      "type": "function"
    },
    {
      "inputs": [],
      "name": "withdraw",
      "outputs": [],
      "stateMutability": "payable",
      "type": "function"
    }
  ],
  "bytecode": "0x6080604052612710600b5566f5232269808000600c556000600d60006101000a81548160ff0219169083151502179055503480156200003d57600080fd5b506040518060400160405280600781526020017f4c6f76654e4654000000000000000000000000000000000000000000000000008152506040518060400160405280600781526020017f4c4f56454e4654000000000000000000000000000000000000000000000000008152508160009080519060200190620000c2929190620001d2565b508060019080519060200190620000db929190620001d2565b505050620000fe620000f26200010460201b60201c565b6200010c60201b60201c565b620002e7565b600033905090565b6000600a60009054906101000a900473ffffffffffffffffffffffffffffffffffffffff16905081600a60006101000a81548173ffffffffffffffffffffffffffffffffffffffff021916908373ffffffffffffffffffffffffffffffffffffffff1602179055508173ffffffffffffffffffffffffffffffffffffffff168173ffffffffffffffffffffffffffffffffffffffff167f8be0079c531659141344cd1fd0a4f28419497f9722a3daafe3b4186f6b6457e060405160405180910390a35050565b828054620001e09062000282565b90600052602060002090601f01602090048101928262000204576000855562000250565b82601f106200021f57805160ff191683800117855562000250565b8280016001018555821562000250579182015b828111156200024f57825182559160200191906001019062000232565b5b5090506200025f919062000263565b5090565b5b808211156200027e57600081600090555060010162000264565b5090565b600060028204905060018216806200029b57607f821691505b60208210811415620002b257620002b1620002b8565b5b50919050565b7f4e487b7100000000000000000000000000000000000000000000000000000000600052602260045260246000fd5b61387b80620002f76000396000f3fe60806040526004361061019c5760003560e01c80636352211e116100ec57806395d89b411161008a578063bedb86fb11610064578063bedb86fb14610598578063c87b56dd146105c1578063e985e9c5146105fe578063f2fde38b1461063b5761019c565b806395d89b411461051b578063a22cb46514610546578063b88d4fde1461056f5761019c565b8063715018a6116100c6578063715018a61461049457806377097fc8146104ab5780638da5cb5b146104c757806391b7f5ed146104f25761019c565b80636352211e146103f15780636f8b44b01461042e57806370a08231146104575761019c565b806322f4596f116101595780632f745c59116101335780632f745c59146103445780633ccfd60b1461038157806342842e0e1461038b5780634f6ccce7146103b45761019c565b806322f4596f146102c5578063235b6ea1146102f057806323b872dd1461031b5761019c565b806301ffc9a7146101a157806306fdde03146101de578063081812fc14610209578063095ea7b31461024657806316c61ccc1461026f57806318160ddd1461029a575b600080fd5b3480156101ad57600080fd5b506101c860048036038101906101c391906127d8565b610664565b6040516101d59190612c7d565b60405180910390f35b3480156101ea57600080fd5b506101f36106de565b6040516102009190612c98565b60405180910390f35b34801561021557600080fd5b50610230600480360381019061022b9190612832565b610770565b60405161023d9190612c16565b60405180910390f35b34801561025257600080fd5b5061026d6004803603810190610268919061276b565b6107f5565b005b34801561027b57600080fd5b5061028461090d565b6040516102919190612c7d565b60405180910390f35b3480156102a657600080fd5b506102af610920565b6040516102bc9190612f3a565b60405180910390f35b3480156102d157600080fd5b506102da61092d565b6040516102e79190612f3a565b60405180910390f35b3480156102fc57600080fd5b50610305610933565b6040516103129190612f3a565b60405180910390f35b34801561032757600080fd5b50610342600480360381019061033d9190612655565b610939565b005b34801561035057600080fd5b5061036b6004803603810190610366919061276b565b610999565b6040516103789190612f3a565b60405180910390f35b610389610a3e565b005b34801561039757600080fd5b506103b260048036038101906103ad9190612655565b610b03565b005b3480156103c057600080fd5b506103db60048036038101906103d69190612832565b610b23565b6040516103e89190612f3a565b60405180910390f35b3480156103fd57600080fd5b5061041860048036038101906104139190612832565b610b94565b6040516104259190612c16565b60405180910390f35b34801561043a57600080fd5b5061045560048036038101906104509190612832565b610c46565b005b34801561046357600080fd5b5061047e600480360381019061047991906125e8565b610ccc565b60405161048b9190612f3a565b60405180910390f35b3480156104a057600080fd5b506104a9610d84565b005b6104c560048036038101906104c0919061285f565b610e0c565b005b3480156104d357600080fd5b506104dc610f28565b6040516104e99190612c16565b60405180910390f35b3480156104fe57600080fd5b5061051960048036038101906105149190612832565b610f52565b005b34801561052757600080fd5b50610530610fd8565b60405161053d9190612c98565b60405180910390f35b34801561055257600080fd5b5061056d6004803603810190610568919061272b565b61106a565b005b34801561057b57600080fd5b50610596600480360381019061059191906126a8565b6111eb565b005b3480156105a457600080fd5b506105bf60048036038101906105ba91906127ab565b61124d565b005b3480156105cd57600080fd5b506105e860048036038101906105e39190612832565b6112e6565b6040516105f59190612c98565b60405180910390f35b34801561060a57600080fd5b5061062560048036038101906106209190612615565b61138b565b6040516106329190612c7d565b60405180910390f35b34801561064757600080fd5b50610662600480360381019061065d91906125e8565b61141f565b005b60007f780e9d63000000000000000000000000000000000000000000000000000000007bffffffffffffffffffffffffffffffffffffffffffffffffffffffff1916827bffffffffffffffffffffffffffffffffffffffffffffffffffffffff191614806106d757506106d682611517565b5b9050919050565b6060600080546106ed90613154565b80601f016020809104026020016040519081016040528092919081815260200182805461071990613154565b80156107665780601f1061073b57610100808354040283529160200191610766565b820191906000526020600020905b81548152906001019060200180831161074957829003601f168201915b5050505050905090565b600061077b826115f9565b6107ba576040517f08c379a00000000000000000000000000000000000000000000000000000000081526004016107b190612e3a565b60405180910390fd5b6004600083815260200190815260200160002060009054906101000a900473ffffffffffffffffffffffffffffffffffffffff169050919050565b600061080082610b94565b90508073ffffffffffffffffffffffffffffffffffffffff168373ffffffffffffffffffffffffffffffffffffffff161415610871576040517f08c379a000000000000000000000000000000000000000000000000000000000815260040161086890612e9a565b60405180910390fd5b8073ffffffffffffffffffffffffffffffffffffffff16610890611665565b73ffffffffffffffffffffffffffffffffffffffff1614806108bf57506108be816108b9611665565b61138b565b5b6108fe576040517f08c379a00000000000000000000000000000000000000000000000000000000081526004016108f590612dba565b60405180910390fd5b610908838361166d565b505050565b600d60009054906101000a900460ff1681565b6000600880549050905090565b600b5481565b600c5481565b61094a610944611665565b82611726565b610989576040517f08c379a000000000000000000000000000000000000000000000000000000000815260040161098090612efa565b60405180910390fd5b610994838383611804565b505050565b60006109a483610ccc565b82106109e5576040517f08c379a00000000000000000000000000000000000000000000000000000000081526004016109dc90612cda565b60405180910390fd5b600660008473ffffffffffffffffffffffffffffffffffffffff1673ffffffffffffffffffffffffffffffffffffffff168152602001908152602001600020600083815260200190815260200160002054905092915050565b610a46611665565b73ffffffffffffffffffffffffffffffffffffffff16610a64610f28565b73ffffffffffffffffffffffffffffffffffffffff1614610aba576040517f08c379a0000000000000000000000000000000000000000000000000000000008152600401610ab190612e5a565b60405180910390fd5b3373ffffffffffffffffffffffffffffffffffffffff166108fc479081150290604051600060405180830381858888f19350505050158015610b00573d6000803e3d6000fd5b50565b610b1e838383604051806020016040528060008152506111eb565b505050565b6000610b2d610920565b8210610b6e576040517f08c379a0000000000000000000000000000000000000000000000000000000008152600401610b6590612f1a565b60405180910390fd5b60088281548110610b8257610b81613244565b5b90600052602060002001549050919050565b6000806002600084815260200190815260200160002060009054906101000a900473ffffffffffffffffffffffffffffffffffffffff169050600073ffffffffffffffffffffffffffffffffffffffff168173ffffffffffffffffffffffffffffffffffffffff161415610c3d576040517f08c379a0000000000000000000000000000000000000000000000000000000008152600401610c3490612dfa565b60405180910390fd5b80915050919050565b610c4e611665565b73ffffffffffffffffffffffffffffffffffffffff16610c6c610f28565b73ffffffffffffffffffffffffffffffffffffffff1614610cc2576040517f08c379a0000000000000000000000000000000000000000000000000000000008152600401610cb990612e5a565b60405180910390fd5b80600b8190555050565b60008073ffffffffffffffffffffffffffffffffffffffff168273ffffffffffffffffffffffffffffffffffffffff161415610d3d576040517f08c379a0000000000000000000000000000000000000000000000000000000008152600401610d3490612dda565b60405180910390fd5b600360008373ffffffffffffffffffffffffffffffffffffffff1673ffffffffffffffffffffffffffffffffffffffff168152602001908152602001600020549050919050565b610d8c611665565b73ffffffffffffffffffffffffffffffffffffffff16610daa610f28565b73ffffffffffffffffffffffffffffffffffffffff1614610e00576040517f08c379a0000000000000000000000000000000000000000000000000000000008152600401610df790612e5a565b60405180910390fd5b610e0a6000611a60565b565b600d60009054906101000a900460ff1615610e5c576040517f08c379a0000000000000000000000000000000000000000000000000000000008152600401610e5390612cba565b60405180910390fd5b600082118015610e6e5750600b548211155b610ead576040517f08c379a0000000000000000000000000000000000000000000000000000000008152600401610ea490612eba565b60405180910390fd5b600c54341015610ef2576040517f08c379a0000000000000000000000000000000000000000000000000000000008152600401610ee990612eda565b60405180910390fd5b80600e60008481526020019081526020016000209080519060200190610f199291906123fc565b50610f243383611b26565b5050565b6000600a60009054906101000a900473ffffffffffffffffffffffffffffffffffffffff16905090565b610f5a611665565b73ffffffffffffffffffffffffffffffffffffffff16610f78610f28565b73ffffffffffffffffffffffffffffffffffffffff1614610fce576040517f08c379a0000000000000000000000000000000000000000000000000000000008152600401610fc590612e5a565b60405180910390fd5b80600c8190555050565b606060018054610fe790613154565b80601f016020809104026020016040519081016040528092919081815260200182805461101390613154565b80156110605780601f1061103557610100808354040283529160200191611060565b820191906000526020600020905b81548152906001019060200180831161104357829003601f168201915b5050505050905090565b611072611665565b73ffffffffffffffffffffffffffffffffffffffff168273ffffffffffffffffffffffffffffffffffffffff1614156110e0576040517f08c379a00000000000000000000000000000000000000000000000000000000081526004016110d790612d7a565b60405180910390fd5b80600560006110ed611665565b73ffffffffffffffffffffffffffffffffffffffff1673ffffffffffffffffffffffffffffffffffffffff16815260200190815260200160002060008473ffffffffffffffffffffffffffffffffffffffff1673ffffffffffffffffffffffffffffffffffffffff16815260200190815260200160002060006101000a81548160ff0219169083151502179055508173ffffffffffffffffffffffffffffffffffffffff1661119a611665565b73ffffffffffffffffffffffffffffffffffffffff167f17307eab39ab6107e8899845ad3d59bd9653f200f220920489ca2b5937696c31836040516111df9190612c7d565b60405180910390a35050565b6111fc6111f6611665565b83611726565b61123b576040517f08c379a000000000000000000000000000000000000000000000000000000000815260040161123290612efa565b60405180910390fd5b61124784848484611b44565b50505050565b611255611665565b73ffffffffffffffffffffffffffffffffffffffff16611273610f28565b73ffffffffffffffffffffffffffffffffffffffff16146112c9576040517f08c379a00000000000000000000000000000000000000000000000000000000081526004016112c090612e5a565b60405180910390fd5b80600d60006101000a81548160ff02191690831515021790555050565b6060600e6000838152602001908152602001600020805461130690613154565b80601f016020809104026020016040519081016040528092919081815260200182805461133290613154565b801561137f5780601f106113545761010080835404028352916020019161137f565b820191906000526020600020905b81548152906001019060200180831161136257829003601f168201915b50505050509050919050565b6000600560008473ffffffffffffffffffffffffffffffffffffffff1673ffffffffffffffffffffffffffffffffffffffff16815260200190815260200160002060008373ffffffffffffffffffffffffffffffffffffffff1673ffffffffffffffffffffffffffffffffffffffff16815260200190815260200160002060009054906101000a900460ff16905092915050565b611427611665565b73ffffffffffffffffffffffffffffffffffffffff16611445610f28565b73ffffffffffffffffffffffffffffffffffffffff161461149b576040517f08c379a000000000000000000000000000000000000000000000000000000000815260040161149290612e5a565b60405180910390fd5b600073ffffffffffffffffffffffffffffffffffffffff168173ffffffffffffffffffffffffffffffffffffffff16141561150b576040517f08c379a000000000000000000000000000000000000000000000000000000000815260040161150290612d1a565b60405180910390fd5b61151481611a60565b50565b60007f80ac58cd000000000000000000000000000000000000000000000000000000007bffffffffffffffffffffffffffffffffffffffffffffffffffffffff1916827bffffffffffffffffffffffffffffffffffffffffffffffffffffffff191614806115e257507f5b5e139f000000000000000000000000000000000000000000000000000000007bffffffffffffffffffffffffffffffffffffffffffffffffffffffff1916827bffffffffffffffffffffffffffffffffffffffffffffffffffffffff1916145b806115f257506115f182611ba0565b5b9050919050565b60008073ffffffffffffffffffffffffffffffffffffffff166002600084815260200190815260200160002060009054906101000a900473ffffffffffffffffffffffffffffffffffffffff1673ffffffffffffffffffffffffffffffffffffffff1614159050919050565b600033905090565b816004600083815260200190815260200160002060006101000a81548173ffffffffffffffffffffffffffffffffffffffff021916908373ffffffffffffffffffffffffffffffffffffffff160217905550808273ffffffffffffffffffffffffffffffffffffffff166116e083610b94565b73ffffffffffffffffffffffffffffffffffffffff167f8c5be1e5ebec7d5bd14f71427d1e84f3dd0314c0f7b2291e5b200ac8c7c3b92560405160405180910390a45050565b6000611731826115f9565b611770576040517f08c379a000000000000000000000000000000000000000000000000000000000815260040161176790612d9a565b60405180910390fd5b600061177b83610b94565b90508073ffffffffffffffffffffffffffffffffffffffff168473ffffffffffffffffffffffffffffffffffffffff1614806117ea57508373ffffffffffffffffffffffffffffffffffffffff166117d284610770565b73ffffffffffffffffffffffffffffffffffffffff16145b806117fb57506117fa818561138b565b5b91505092915050565b8273ffffffffffffffffffffffffffffffffffffffff1661182482610b94565b73ffffffffffffffffffffffffffffffffffffffff161461187a576040517f08c379a000000000000000000000000000000000000000000000000000000000815260040161187190612e7a565b60405180910390fd5b600073ffffffffffffffffffffffffffffffffffffffff168273ffffffffffffffffffffffffffffffffffffffff1614156118ea576040517f08c379a00000000000000000000000000000000000000000000000000000000081526004016118e190612d5a565b60405180910390fd5b6118f5838383611c0a565b61190060008261166d565b6001600360008573ffffffffffffffffffffffffffffffffffffffff1673ffffffffffffffffffffffffffffffffffffffff1681526020019081526020016000206000828254611950919061306a565b925050819055506001600360008473ffffffffffffffffffffffffffffffffffffffff1673ffffffffffffffffffffffffffffffffffffffff16815260200190815260200160002060008282546119a79190613014565b92505081905550816002600083815260200190815260200160002060006101000a81548173ffffffffffffffffffffffffffffffffffffffff021916908373ffffffffffffffffffffffffffffffffffffffff160217905550808273ffffffffffffffffffffffffffffffffffffffff168473ffffffffffffffffffffffffffffffffffffffff167fddf252ad1be2c89b69c2b068fc378daa952ba7f163c4a11628f55a4df523b3ef60405160405180910390a4505050565b6000600a60009054906101000a900473ffffffffffffffffffffffffffffffffffffffff16905081600a60006101000a81548173ffffffffffffffffffffffffffffffffffffffff021916908373ffffffffffffffffffffffffffffffffffffffff1602179055508173ffffffffffffffffffffffffffffffffffffffff168173ffffffffffffffffffffffffffffffffffffffff167f8be0079c531659141344cd1fd0a4f28419497f9722a3daafe3b4186f6b6457e060405160405180910390a35050565b611b40828260405180602001604052806000815250611d1e565b5050565b611b4f848484611804565b611b5b84848484611d79565b611b9a576040517f08c379a0000000000000000000000000000000000000000000000000000000008152600401611b9190612cfa565b60405180910390fd5b50505050565b60007f01ffc9a7000000000000000000000000000000000000000000000000000000007bffffffffffffffffffffffffffffffffffffffffffffffffffffffff1916827bffffffffffffffffffffffffffffffffffffffffffffffffffffffff1916149050919050565b611c15838383611f10565b600073ffffffffffffffffffffffffffffffffffffffff168373ffffffffffffffffffffffffffffffffffffffff161415611c5857611c5381611f15565b611c97565b8173ffffffffffffffffffffffffffffffffffffffff168373ffffffffffffffffffffffffffffffffffffffff1614611c9657611c958382611f5e565b5b5b600073ffffffffffffffffffffffffffffffffffffffff168273ffffffffffffffffffffffffffffffffffffffff161415611cda57611cd5816120cb565b611d19565b8273ffffffffffffffffffffffffffffffffffffffff168273ffffffffffffffffffffffffffffffffffffffff1614611d1857611d17828261219c565b5b5b505050565b611d28838361221b565b611d356000848484611d79565b611d74576040517f08c379a0000000000000000000000000000000000000000000000000000000008152600401611d6b90612cfa565b60405180910390fd5b505050565b6000611d9a8473ffffffffffffffffffffffffffffffffffffffff166123e9565b15611f03578373ffffffffffffffffffffffffffffffffffffffff1663150b7a02611dc3611665565b8786866040518563ffffffff1660e01b8152600401611de59493929190612c31565b602060405180830381600087803b158015611dff57600080fd5b505af1925050508015611e3057506040513d601f19601f82011682018060405250810190611e2d9190612805565b60015b611eb3573d8060008114611e60576040519150601f19603f3d011682016040523d82523d6000602084013e611e65565b606091505b50600081511415611eab576040517f08c379a0000000000000000000000000000000000000000000000000000000008152600401611ea290612cfa565b60405180910390fd5b805181602001fd5b63150b7a0260e01b7bffffffffffffffffffffffffffffffffffffffffffffffffffffffff1916817bffffffffffffffffffffffffffffffffffffffffffffffffffffffff191614915050611f08565b600190505b949350505050565b505050565b6008805490506009600083815260200190815260200160002081905550600881908060018154018082558091505060019003906000526020600020016000909190919091505550565b60006001611f6b84610ccc565b611f75919061306a565b905060006007600084815260200190815260200160002054905081811461205a576000600660008673ffffffffffffffffffffffffffffffffffffffff1673ffffffffffffffffffffffffffffffffffffffff168152602001908152602001600020600084815260200190815260200160002054905080600660008773ffffffffffffffffffffffffffffffffffffffff1673ffffffffffffffffffffffffffffffffffffffff168152602001908152602001600020600084815260200190815260200160002081905550816007600083815260200190815260200160002081905550505b6007600084815260200190815260200160002060009055600660008573ffffffffffffffffffffffffffffffffffffffff1673ffffffffffffffffffffffffffffffffffffffff16815260200190815260200160002060008381526020019081526020016000206000905550505050565b600060016008805490506120df919061306a565b905060006009600084815260200190815260200160002054905060006008838154811061210f5761210e613244565b5b90600052602060002001549050806008838154811061213157612130613244565b5b9060005260206000200181905550816009600083815260200190815260200160002081905550600960008581526020019081526020016000206000905560088054806121805761217f613215565b5b6001900381819060005260206000200160009055905550505050565b60006121a783610ccc565b905081600660008573ffffffffffffffffffffffffffffffffffffffff1673ffffffffffffffffffffffffffffffffffffffff168152602001908152602001600020600083815260200190815260200160002081905550806007600084815260200190815260200160002081905550505050565b600073ffffffffffffffffffffffffffffffffffffffff168273ffffffffffffffffffffffffffffffffffffffff16141561228b576040517f08c379a000000000000000000000000000000000000000000000000000000000815260040161228290612e1a565b60405180910390fd5b612294816115f9565b156122d4576040517f08c379a00000000000000000000000000000000000000000000000000000000081526004016122cb90612d3a565b60405180910390fd5b6122e060008383611c0a565b6001600360008473ffffffffffffffffffffffffffffffffffffffff1673ffffffffffffffffffffffffffffffffffffffff16815260200190815260200160002060008282546123309190613014565b92505081905550816002600083815260200190815260200160002060006101000a81548173ffffffffffffffffffffffffffffffffffffffff021916908373ffffffffffffffffffffffffffffffffffffffff160217905550808273ffffffffffffffffffffffffffffffffffffffff16600073ffffffffffffffffffffffffffffffffffffffff167fddf252ad1be2c89b69c2b068fc378daa952ba7f163c4a11628f55a4df523b3ef60405160405180910390a45050565b600080823b905060008111915050919050565b82805461240890613154565b90600052602060002090601f01602090048101928261242a5760008555612471565b82601f1061244357805160ff1916838001178555612471565b82800160010185558215612471579182015b82811115612470578251825591602001919060010190612455565b5b50905061247e9190612482565b5090565b5b8082111561249b576000816000905550600101612483565b5090565b60006124b26124ad84612f7a565b612f55565b9050828152602081018484840111156124ce576124cd6132a7565b5b6124d9848285613112565b509392505050565b60006124f46124ef84612fab565b612f55565b9050828152602081018484840111156125105761250f6132a7565b5b61251b848285613112565b509392505050565b600081359050612532816137e9565b92915050565b60008135905061254781613800565b92915050565b60008135905061255c81613817565b92915050565b60008151905061257181613817565b92915050565b600082601f83011261258c5761258b6132a2565b5b813561259c84826020860161249f565b91505092915050565b600082601f8301126125ba576125b96132a2565b5b81356125ca8482602086016124e1565b91505092915050565b6000813590506125e28161382e565b92915050565b6000602082840312156125fe576125fd6132b1565b5b600061260c84828501612523565b91505092915050565b6000806040838503121561262c5761262b6132b1565b5b600061263a85828601612523565b925050602061264b85828601612523565b9150509250929050565b60008060006060848603121561266e5761266d6132b1565b5b600061267c86828701612523565b935050602061268d86828701612523565b925050604061269e868287016125d3565b9150509250925092565b600080600080608085870312156126c2576126c16132b1565b5b60006126d087828801612523565b94505060206126e187828801612523565b93505060406126f2878288016125d3565b925050606085013567ffffffffffffffff811115612713576127126132ac565b5b61271f87828801612577565b91505092959194509250565b60008060408385031215612742576127416132b1565b5b600061275085828601612523565b925050602061276185828601612538565b9150509250929050565b60008060408385031215612782576127816132b1565b5b600061279085828601612523565b92505060206127a1858286016125d3565b9150509250929050565b6000602082840312156127c1576127c06132b1565b5b60006127cf84828501612538565b91505092915050565b6000602082840312156127ee576127ed6132b1565b5b60006127fc8482850161254d565b91505092915050565b60006020828403121561281b5761281a6132b1565b5b600061282984828501612562565b91505092915050565b600060208284031215612848576128476132b1565b5b6000612856848285016125d3565b91505092915050565b60008060408385031215612876576128756132b1565b5b6000612884858286016125d3565b925050602083013567ffffffffffffffff8111156128a5576128a46132ac565b5b6128b1858286016125a5565b9150509250929050565b6128c48161309e565b82525050565b6128d3816130b0565b82525050565b60006128e482612fdc565b6128ee8185612ff2565b93506128fe818560208601613121565b612907816132b6565b840191505092915050565b600061291d82612fe7565b6129278185613003565b9350612937818560208601613121565b612940816132b6565b840191505092915050565b6000612958600b83613003565b9150612963826132c7565b602082019050919050565b600061297b602b83613003565b9150612986826132f0565b604082019050919050565b600061299e603283613003565b91506129a98261333f565b604082019050919050565b60006129c1602683613003565b91506129cc8261338e565b604082019050919050565b60006129e4601c83613003565b91506129ef826133dd565b602082019050919050565b6000612a07602483613003565b9150612a1282613406565b604082019050919050565b6000612a2a601983613003565b9150612a3582613455565b602082019050919050565b6000612a4d602c83613003565b9150612a588261347e565b604082019050919050565b6000612a70603883613003565b9150612a7b826134cd565b604082019050919050565b6000612a93602a83613003565b9150612a9e8261351c565b604082019050919050565b6000612ab6602983613003565b9150612ac18261356b565b604082019050919050565b6000612ad9602083613003565b9150612ae4826135ba565b602082019050919050565b6000612afc602c83613003565b9150612b07826135e3565b604082019050919050565b6000612b1f602083613003565b9150612b2a82613632565b602082019050919050565b6000612b42602983613003565b9150612b4d8261365b565b604082019050919050565b6000612b65602183613003565b9150612b70826136aa565b604082019050919050565b6000612b88601683613003565b9150612b93826136f9565b602082019050919050565b6000612bab601983613003565b9150612bb682613722565b602082019050919050565b6000612bce603183613003565b9150612bd98261374b565b604082019050919050565b6000612bf1602c83613003565b9150612bfc8261379a565b604082019050919050565b612c1081613108565b82525050565b6000602082019050612c2b60008301846128bb565b92915050565b6000608082019050612c4660008301876128bb565b612c5360208301866128bb565b612c606040830185612c07565b8181036060830152612c7281846128d9565b905095945050505050565b6000602082019050612c9260008301846128ca565b92915050565b60006020820190508181036000830152612cb28184612912565b905092915050565b60006020820190508181036000830152612cd38161294b565b9050919050565b60006020820190508181036000830152612cf38161296e565b9050919050565b60006020820190508181036000830152612d1381612991565b9050919050565b60006020820190508181036000830152612d33816129b4565b9050919050565b60006020820190508181036000830152612d53816129d7565b9050919050565b60006020820190508181036000830152612d73816129fa565b9050919050565b60006020820190508181036000830152612d9381612a1d565b9050919050565b60006020820190508181036000830152612db381612a40565b9050919050565b60006020820190508181036000830152612dd381612a63565b9050919050565b60006020820190508181036000830152612df381612a86565b9050919050565b60006020820190508181036000830152612e1381612aa9565b9050919050565b60006020820190508181036000830152612e3381612acc565b9050919050565b60006020820190508181036000830152612e5381612aef565b9050919050565b60006020820190508181036000830152612e7381612b12565b9050919050565b60006020820190508181036000830152612e9381612b35565b9050919050565b60006020820190508181036000830152612eb381612b58565b9050919050565b60006020820190508181036000830152612ed381612b7b565b9050919050565b60006020820190508181036000830152612ef381612b9e565b9050919050565b60006020820190508181036000830152612f1381612bc1565b9050919050565b60006020820190508181036000830152612f3381612be4565b9050919050565b6000602082019050612f4f6000830184612c07565b92915050565b6000612f5f612f70565b9050612f6b8282613186565b919050565b6000604051905090565b600067ffffffffffffffff821115612f9557612f94613273565b5b612f9e826132b6565b9050602081019050919050565b600067ffffffffffffffff821115612fc657612fc5613273565b5b612fcf826132b6565b9050602081019050919050565b600081519050919050565b600081519050919050565b600082825260208201905092915050565b600082825260208201905092915050565b600061301f82613108565b915061302a83613108565b9250827fffffffffffffffffffffffffffffffffffffffffffffffffffffffffffffffff0382111561305f5761305e6131b7565b5b828201905092915050565b600061307582613108565b915061308083613108565b925082821015613093576130926131b7565b5b828203905092915050565b60006130a9826130e8565b9050919050565b60008115159050919050565b60007fffffffff0000000000000000000000000000000000000000000000000000000082169050919050565b600073ffffffffffffffffffffffffffffffffffffffff82169050919050565b6000819050919050565b82818337600083830152505050565b60005b8381101561313f578082015181840152602081019050613124565b8381111561314e576000848401525b50505050565b6000600282049050600182168061316c57607f821691505b602082108114156131805761317f6131e6565b5b50919050565b61318f826132b6565b810181811067ffffffffffffffff821117156131ae576131ad613273565b5b80604052505050565b7f4e487b7100000000000000000000000000000000000000000000000000000000600052601160045260246000fd5b7f4e487b7100000000000000000000000000000000000000000000000000000000600052602260045260246000fd5b7f4e487b7100000000000000000000000000000000000000000000000000000000600052603160045260246000fd5b7f4e487b7100000000000000000000000000000000000000000000000000000000600052603260045260246000fd5b7f4e487b7100000000000000000000000000000000000000000000000000000000600052604160045260246000fd5b600080fd5b600080fd5b600080fd5b600080fd5b6000601f19601f8301169050919050565b7f53616c6520706175736564000000000000000000000000000000000000000000600082015250565b7f455243373231456e756d657261626c653a206f776e657220696e646578206f7560008201527f74206f6620626f756e6473000000000000000000000000000000000000000000602082015250565b7f4552433732313a207472616e7366657220746f206e6f6e20455243373231526560008201527f63656976657220696d706c656d656e7465720000000000000000000000000000602082015250565b7f4f776e61626c653a206e6577206f776e657220697320746865207a65726f206160008201527f6464726573730000000000000000000000000000000000000000000000000000602082015250565b7f4552433732313a20746f6b656e20616c7265616479206d696e74656400000000600082015250565b7f4552433732313a207472616e7366657220746f20746865207a65726f2061646460008201527f7265737300000000000000000000000000000000000000000000000000000000602082015250565b7f4552433732313a20617070726f766520746f2063616c6c657200000000000000600082015250565b7f4552433732313a206f70657261746f7220717565727920666f72206e6f6e657860008201527f697374656e7420746f6b656e0000000000000000000000000000000000000000602082015250565b7f4552433732313a20617070726f76652063616c6c6572206973206e6f74206f7760008201527f6e6572206e6f7220617070726f76656420666f7220616c6c0000000000000000602082015250565b7f4552433732313a2062616c616e636520717565727920666f7220746865207a6560008201527f726f206164647265737300000000000000000000000000000000000000000000602082015250565b7f4552433732313a206f776e657220717565727920666f72206e6f6e657869737460008201527f656e7420746f6b656e0000000000000000000000000000000000000000000000602082015250565b7f4552433732313a206d696e7420746f20746865207a65726f2061646472657373600082015250565b7f4552433732313a20617070726f76656420717565727920666f72206e6f6e657860008201527f697374656e7420746f6b656e0000000000000000000000000000000000000000602082015250565b7f4f776e61626c653a2063616c6c6572206973206e6f7420746865206f776e6572600082015250565b7f4552433732313a207472616e73666572206f6620746f6b656e2074686174206960008201527f73206e6f74206f776e0000000000000000000000000000000000000000000000602082015250565b7f4552433732313a20617070726f76616c20746f2063757272656e74206f776e6560008201527f7200000000000000000000000000000000000000000000000000000000000000602082015250565b7f45786365656473206d6178696d756d20737570706c7900000000000000000000600082015250565b7f45746865722073656e74206973206e6f7420636f727265637400000000000000600082015250565b7f4552433732313a207472616e736665722063616c6c6572206973206e6f74206f60008201527f776e6572206e6f7220617070726f766564000000000000000000000000000000602082015250565b7f455243373231456e756d657261626c653a20676c6f62616c20696e646578206f60008201527f7574206f6620626f756e64730000000000000000000000000000000000000000602082015250565b6137f28161309e565b81146137fd57600080fd5b50565b613809816130b0565b811461381457600080fd5b50565b613820816130bc565b811461382b57600080fd5b50565b61383781613108565b811461384257600080fd5b5056fea26469706673582212202fd3f411150aacc50e944dd1fd72ec0221b176cd828f6c90dc607029f32efef864736f6c63430008070033",
  "immutableReferences": {},
  "source": "// SPDX-License-Identifier: MIT\n\npragma solidity ^0.8.0;\n\nimport \"./FullERC721.sol\";\n\ncontract LoveNFT is ERC721Enumerable, Ownable {\n\n    uint256 public _maxSupply = 10000;\n    uint256 public _price = 0.069 ether;\n    bool public _paused = false;\n\n\tmapping (uint256 => string) private _tokenId2tokenURI;\n    \n    constructor() ERC721(\"LoveNFT\", \"LOVENFT\") Ownable() {\n\t}\n\n    function tokenURI(uint256 tokenId) override public view returns (string memory) {\n        return _tokenId2tokenURI[tokenId];\n    }\n    function mint(uint256 tokenId, string memory loveURI) external payable {\n        require(!_paused, \"Sale paused\");\n        require(tokenId > 0 && tokenId <= _maxSupply, \"Exceeds maximum supply\");\n        require(msg.value >= _price, \"Ether sent is not correct\");\n\n        _tokenId2tokenURI[tokenId] = loveURI;\n        _safeMint(msg.sender, tokenId);\n    }\n    function setMaxSupply(uint256 newVal) external onlyOwner {\n        _maxSupply = newVal;\n    }\n    function setPrice(uint256 _newPrice) external onlyOwner {\n        _price = _newPrice;\n    }\n    function setPause(bool val) external onlyOwner {\n        _paused = val;\n    }\n    function withdraw() external payable onlyOwner {\n        payable(msg.sender).transfer(address(this).balance);\n    }\n}\n",
  "sourcePath": "/home/ec2-user/github/nftlaunchpad-dapp/src/contracts/LoveNFT.sol",
  "compiler": {
    "name": "solc",
    "version": "0.8.7+commit.e28d00a7.Emscripten.clang"
  },
  "schemaVersion": "3.4.3",
  "updatedAt": "2022-03-02T13:01:01.076Z",
  "devdoc": {
    "kind": "dev",
    "methods": {
      "approve(address,uint256)": {
        "details": "See {IERC721-approve}."
      },
      "balanceOf(address)": {
        "details": "See {IERC721-balanceOf}."
      },
      "getApproved(uint256)": {
        "details": "See {IERC721-getApproved}."
      },
      "isApprovedForAll(address,address)": {
        "details": "See {IERC721-isApprovedForAll}."
      },
      "name()": {
        "details": "See {IERC721Metadata-name}."
      },
      "owner()": {
        "details": "Returns the address of the current owner."
      },
      "ownerOf(uint256)": {
        "details": "See {IERC721-ownerOf}."
      },
      "renounceOwnership()": {
        "details": "Leaves the contract without owner. It will not be possible to call `onlyOwner` functions anymore. Can only be called by the current owner. NOTE: Renouncing ownership will leave the contract without an owner, thereby removing any functionality that is only available to the owner."
      },
      "safeTransferFrom(address,address,uint256)": {
        "details": "See {IERC721-safeTransferFrom}."
      },
      "safeTransferFrom(address,address,uint256,bytes)": {
        "details": "See {IERC721-safeTransferFrom}."
      },
      "setApprovalForAll(address,bool)": {
        "details": "See {IERC721-setApprovalForAll}."
      },
      "supportsInterface(bytes4)": {
        "details": "See {IERC165-supportsInterface}."
      },
      "symbol()": {
        "details": "See {IERC721Metadata-symbol}."
      },
      "tokenByIndex(uint256)": {
        "details": "See {IERC721Enumerable-tokenByIndex}."
      },
      "tokenOfOwnerByIndex(address,uint256)": {
        "details": "See {IERC721Enumerable-tokenOfOwnerByIndex}."
      },
      "tokenURI(uint256)": {
        "details": "See {IERC721Metadata-tokenURI}."
      },
      "totalSupply()": {
        "details": "See {IERC721Enumerable-totalSupply}."
      },
      "transferFrom(address,address,uint256)": {
        "details": "See {IERC721-transferFrom}."
      },
      "transferOwnership(address)": {
        "details": "Transfers ownership of the contract to a new account (`newOwner`). Can only be called by the current owner."
      }
    },
    "version": 1
  },
  "userdoc": {
    "kind": "user",
    "methods": {},
    "version": 1
  }
}