{
  "contractName": "MatchFCC",
  "abi": [
    {
      "inputs": [],
      "stateMutability": "nonpayable",
      "type": "constructor"
    },
    {
      "inputs": [
        {
          "internalType": "uint256",
          "name": "playerIndex",
          "type": "uint256"
        }
      ],
      "name": "getCost",
      "outputs": [
        {
          "internalType": "uint256",
          "name": "",
          "type": "uint256"
        }
      ],
      "stateMutability": "view",
      "type": "function",
      "constant": true
    },
    {
      "inputs": [
        {
          "internalType": "uint256",
          "name": "index",
          "type": "uint256"
        }
      ],
      "name": "getPlayer",
      "outputs": [
        {
          "internalType": "string",
          "name": "",
          "type": "string"
        }
      ],
      "stateMutability": "view",
      "type": "function",
      "constant": true
    },
    {
      "inputs": [],
      "name": "getPlayerCount",
      "outputs": [
        {
          "internalType": "uint256",
          "name": "",
          "type": "uint256"
        }
      ],
      "stateMutability": "view",
      "type": "function",
      "constant": true
    },
    {
      "inputs": [
        {
          "internalType": "string",
          "name": "name",
          "type": "string"
        }
      ],
      "name": "getPlayerIndex",
      "outputs": [
        {
          "internalType": "uint256",
          "name": "",
          "type": "uint256"
        }
      ],
      "stateMutability": "view",
      "type": "function",
      "constant": true
    },
    {
      "inputs": [
        {
          "internalType": "uint256",
          "name": "playerIndex",
          "type": "uint256"
        }
      ],
      "name": "getPoints",
      "outputs": [
        {
          "internalType": "uint256",
          "name": "",
          "type": "uint256"
        }
      ],
      "stateMutability": "view",
      "type": "function",
      "constant": true
    },
    {
      "inputs": [
        {
          "internalType": "uint256",
          "name": "playerIndex",
          "type": "uint256"
        },
        {
          "internalType": "uint256",
          "name": "val",
          "type": "uint256"
        }
      ],
      "name": "setPoints",
      "outputs": [],
      "stateMutability": "nonpayable",
      "type": "function"
    },
    {
      "inputs": [],
      "name": "getBlockNumber",
      "outputs": [
        {
          "internalType": "uint256",
          "name": "",
          "type": "uint256"
        }
      ],
      "stateMutability": "view",
      "type": "function",
      "constant": true
    },
    {
      "inputs": [
        {
          "internalType": "address",
          "name": "addFrom",
          "type": "address"
        },
        {
          "internalType": "string",
          "name": "val",
          "type": "string"
        }
      ],
      "name": "addMatchPlayers",
      "outputs": [],
      "stateMutability": "nonpayable",
      "type": "function"
    },
    {
      "inputs": [
        {
          "internalType": "string",
          "name": "val",
          "type": "string"
        }
      ],
      "name": "addMatchPlayers",
      "outputs": [],
      "stateMutability": "nonpayable",
      "type": "function"
    },
    {
      "inputs": [],
      "name": "getMatchPlayers",
      "outputs": [
        {
          "internalType": "string",
          "name": "",
          "type": "string"
        }
      ],
      "stateMutability": "view",
      "type": "function",
      "constant": true
    },
    {
      "inputs": [
        {
          "internalType": "address",
          "name": "val",
          "type": "address"
        }
      ],
      "name": "getMatchPlayersArray",
      "outputs": [
        {
          "internalType": "uint256[11]",
          "name": "",
          "type": "uint256[11]"
        }
      ],
      "stateMutability": "view",
      "type": "function",
      "constant": true
    },
    {
      "inputs": [
        {
          "internalType": "address",
          "name": "val",
          "type": "address"
        }
      ],
      "name": "getMatchCost",
      "outputs": [
        {
          "internalType": "uint256",
          "name": "",
          "type": "uint256"
        }
      ],
      "stateMutability": "view",
      "type": "function",
      "constant": true
    },
    {
      "inputs": [],
      "name": "getMatchCost",
      "outputs": [
        {
          "internalType": "uint256",
          "name": "",
          "type": "uint256"
        }
      ],
      "stateMutability": "view",
      "type": "function",
      "constant": true
    },
    {
      "inputs": [],
      "name": "getMatchPoints",
      "outputs": [
        {
          "internalType": "uint256",
          "name": "",
          "type": "uint256"
        }
      ],
      "stateMutability": "view",
      "type": "function",
      "constant": true
    },
    {
      "inputs": [
        {
          "internalType": "address",
          "name": "val",
          "type": "address"
        }
      ],
      "name": "getMatchPoints",
      "outputs": [
        {
          "internalType": "uint256",
          "name": "",
          "type": "uint256"
        }
      ],
      "stateMutability": "view",
      "type": "function",
      "constant": true
    }
  ],
  "bytecode": "0x6080604052604051806102c00160405280620000566040518060400160405280600a81526020017f56697261744b6f686c6900000000000000000000000000000000000000000000815250620008a060201b60201c565b8152602001620000a16040518060400160405280600781526020017f4d5344686f6e6900000000000000000000000000000000000000000000000000815250620008a060201b60201c565b8152602001620000ec6040518060400160405280600c81526020017f48617264696b50616e6479610000000000000000000000000000000000000000815250620008a060201b60201c565b8152602001620001376040518060400160405280600c81526020017f476c656e6e4d617877656c6c0000000000000000000000000000000000000000815250620008a060201b60201c565b8152602001620001826040518060400160405280600381526020017f4142440000000000000000000000000000000000000000000000000000000000815250620008a060201b60201c565b8152602001620001cd6040518060400160405280600881526020017f506164696b6b616c000000000000000000000000000000000000000000000000815250620008a060201b60201c565b8152602001620002186040518060400160405280600681526020017f43686168616c0000000000000000000000000000000000000000000000000000815250620008a060201b60201c565b8152602001620002636040518060400160405280600881526020017f5472697061746869000000000000000000000000000000000000000000000000815250620008a060201b60201c565b8152602001620002ae6040518060400160405280600b81526020017f536875626d616e47696c6c000000000000000000000000000000000000000000815250620008a060201b60201c565b8152602001620002f96040518060400160405280600b81526020017f5072697468766953686177000000000000000000000000000000000000000000815250620008a060201b60201c565b8152602001620003446040518060400160405280600681526020017f5761726e65720000000000000000000000000000000000000000000000000000815250620008a060201b60201c565b81526020016200038f6040518060400160405280600b81526020017f526f686974536861726d61000000000000000000000000000000000000000000815250620008a060201b60201c565b8152602001620003da6040518060400160405280600781526020017f506f6c6c61726400000000000000000000000000000000000000000000000000815250620008a060201b60201c565b8152602001620004256040518060400160405280600581526020017f427261766f000000000000000000000000000000000000000000000000000000815250620008a060201b60201c565b8152602001620004706040518060400160405280600881526020017f4865746d65796572000000000000000000000000000000000000000000000000815250620008a060201b60201c565b8152602001620004bb6040518060400160405280600b81526020017f5368726579617349796572000000000000000000000000000000000000000000815250620008a060201b60201c565b8152602001620005066040518060400160405280600481526020017f50616e7400000000000000000000000000000000000000000000000000000000815250620008a060201b60201c565b8152602001620005516040518060400160405280600581526020017f497368616e000000000000000000000000000000000000000000000000000000815250620008a060201b60201c565b81526020016200059c6040518060400160405280600a81526020017f53757279616b756d617200000000000000000000000000000000000000000000815250620008a060201b60201c565b8152602001620005e76040518060400160405280600d81526020017f5368617264756c5468616b757200000000000000000000000000000000000000815250620008a060201b60201c565b8152602001620006326040518060400160405280600c81526020017f44656570616b4368616861720000000000000000000000000000000000000000815250620008a060201b60201c565b81526020016200067d6040518060400160405280600a81526020017f5374657665536d69746800000000000000000000000000000000000000000000815250620008a060201b60201c565b815250600090601662000692929190620008ae565b50604051806102c00160405280600a60ff168152602001601460ff168152602001601560ff168152602001601660ff168152602001600a60ff168152602001600760ff168152602001600860ff168152602001600960ff168152602001600a60ff168152602001600860ff168152602001601260ff168152602001600860ff168152602001600860ff168152602001600c60ff168152602001600860ff168152602001600860ff168152602001600d60ff168152602001600860ff168152602001600860ff168152602001600860ff168152602001600860ff168152602001600860ff1681525060169060166200078b929190620008f3565b50604051806102c00160405280600060ff168152602001600060ff168152602001600060ff168152602001600060ff168152602001600060ff168152602001600060ff168152602001600060ff168152602001600060ff168152602001600060ff168152602001600060ff168152602001600060ff168152602001600060ff168152602001600060ff168152602001600060ff168152602001600060ff168152602001600060ff168152602001600060ff168152602001600060ff168152602001600060ff168152602001600060ff168152602001600060ff168152602001600060ff16815250602c90601662000884929190620008f3565b503480156200089257600080fd5b50436043819055506200097b565b600060208201519050919050565b8260168101928215620008e0579160200282015b82811115620008df578251825591602001919060010190620008c2565b5b509050620008ef91906200093d565b5090565b82601681019282156200092a579160200282015b8281111562000929578251829060ff1690559160200191906001019062000907565b5b5090506200093991906200095c565b5090565b5b80821115620009585760008160009055506001016200093e565b5090565b5b80821115620009775760008160009055506001016200095d565b5090565b610f58806200098b6000396000f3fe608060405234801561001057600080fd5b50600436106100f55760003560e01c80637aa8552811610097578063a967eee411610066578063a967eee414610298578063c2e52206146102c8578063d3371ef3146102e6578063e55ae4e814610304576100f5565b80637aa8552814610200578063876b71c31461021c57806392e47f511461024c57806393b8f5de1461027c576100f5565b806340db234b116100d357806340db234b1461015257806342cbb15c1461018257806351a45a76146101a05780635a4dd47d146101d0576100f5565b8063233e8d5d146100fa578063307bde32146101185780633e2d318e14610136575b600080fd5b610102610334565b60405161010f9190610b20565b60405180910390f35b61012061039a565b60405161012d9190610b62565b60405180910390f35b610150600480360381019061014b91906108d7565b6103aa565b005b61016c600480360381019061016791906108aa565b6103fa565b6040516101799190610b04565b60405180910390f35b61018a610552565b6040516101979190610b62565b60405180910390f35b6101ba60048036038101906101b591906108aa565b61055c565b6040516101c79190610b62565b60405180910390f35b6101ea60048036038101906101e5919061097c565b6105c0565b6040516101f79190610b62565b60405180910390f35b61021a600480360381019061021591906109a9565b6105df565b005b61023660048036038101906102319190610933565b6105fd565b6040516102439190610b62565b60405180910390f35b610266600480360381019061026191906108aa565b610617565b6040516102739190610b62565b60405180910390f35b61029660048036038101906102919190610933565b61067b565b005b6102b260048036038101906102ad919061097c565b6106ca565b6040516102bf9190610b62565b60405180910390f35b6102d06106e9565b6040516102dd9190610b62565b60405180910390f35b6102ee6106f2565b6040516102fb9190610b62565b60405180910390f35b61031e6004803603810190610319919061097c565b610702565b60405161032b9190610b20565b60405180910390f35b6060604260003373ffffffffffffffffffffffffffffffffffffffff1673ffffffffffffffffffffffffffffffffffffffff168152602001908152602001600020546040516020016103869190610ae9565b604051602081830303815290604052905090565b60006103a53361055c565b905090565b6103b381610740565b604260008473ffffffffffffffffffffffffffffffffffffffff1673ffffffffffffffffffffffffffffffffffffffff168152602001908152602001600020819055505050565b6104026107ed565b6000604260008473ffffffffffffffffffffffffffffffffffffffff1673ffffffffffffffffffffffffffffffffffffffff16815260200190815260200160002054905061044e6107ed565b60008060005b602060ff1681101561054557600085826020811061047557610474610e48565b5b1a60f81b60f81c905060308160ff1610158015610496575060398160ff1611155b156104c9576030816104a89190610ccc565b60ff16600a856104b89190610c72565b6104c29190610c1c565b9350610533565b603b8160ff1614156104f857838584600b81106104e9576104e8610e48565b5b60200201818152505050610545565b603a8160ff161415610532578385848061051190610dc6565b9550600b811061052457610523610e48565b5b602002018181525050600093505b5b508061053e90610dc6565b9050610454565b5082945050505050919050565b6000604354905090565b600080610568836103fa565b90506000805b600b8110156105b5576105978382600b811061058d5761058c610e48565b5b60200201516106ca565b826105a29190610c1c565b9150806105ae90610dc6565b905061056e565b508092505050919050565b6000601682601681106105d6576105d5610e48565b5b01549050919050565b80602c83601681106105f4576105f3610e48565b5b01819055505050565b600061061061060b83610740565b61074e565b9050919050565b600080610623836103fa565b90506000805b600b811015610670576106528382600b811061064857610647610e48565b5b60200201516105c0565b8261065d9190610c1c565b91508061066990610dc6565b9050610629565b508092505050919050565b61068481610740565b604260003373ffffffffffffffffffffffffffffffffffffffff1673ffffffffffffffffffffffffffffffffffffffff1681526020019081526020016000208190555050565b6000602c82601681106106e0576106df610e48565b5b01549050919050565b60006016905090565b60006106fd33610617565b905090565b60606000826016811061071857610717610e48565b5b015460405160200161072a9190610ae9565b6040516020818303038152906040529050919050565b600060208201519050919050565b6000806016905060006103e7905060005b8281101561079d576000816016811061077b5761077a610e48565b5b015485141561078c5780915061079d565b8061079690610dc6565b905061075f565b506103e78114156107e3576040517f08c379a00000000000000000000000000000000000000000000000000000000081526004016107da90610b42565b60405180910390fd5b8092505050919050565b604051806101600160405280600b90602082028036833780820191505090505090565b600061082361081e84610ba2565b610b7d565b90508281526020810184848401111561083f5761083e610eab565b5b61084a848285610d53565b509392505050565b60008135905061086181610ef4565b92915050565b600082601f83011261087c5761087b610ea6565b5b813561088c848260208601610810565b91505092915050565b6000813590506108a481610f0b565b92915050565b6000602082840312156108c0576108bf610eb5565b5b60006108ce84828501610852565b91505092915050565b600080604083850312156108ee576108ed610eb5565b5b60006108fc85828601610852565b925050602083013567ffffffffffffffff81111561091d5761091c610eb0565b5b61092985828601610867565b9150509250929050565b60006020828403121561094957610948610eb5565b5b600082013567ffffffffffffffff81111561096757610966610eb0565b5b61097384828501610867565b91505092915050565b60006020828403121561099257610991610eb5565b5b60006109a084828501610895565b91505092915050565b600080604083850312156109c0576109bf610eb5565b5b60006109ce85828601610895565b92505060206109df85828601610895565b9150509250929050565b60006109f58383610acb565b60208301905092915050565b610a0a81610bdd565b610a148184610c00565b9250610a1f82610bd3565b8060005b83811015610a50578151610a3787826109e9565b9650610a4283610bf3565b925050600181019050610a23565b505050505050565b610a69610a6482610d12565b610e0f565b82525050565b6000610a7a82610be8565b610a848185610c0b565b9350610a94818560208601610d62565b610a9d81610eba565b840191505092915050565b6000610ab5601283610c0b565b9150610ac082610ecb565b602082019050919050565b610ad481610d3c565b82525050565b610ae381610d3c565b82525050565b6000610af58284610a58565b60208201915081905092915050565b600061016082019050610b1a6000830184610a01565b92915050565b60006020820190508181036000830152610b3a8184610a6f565b905092915050565b60006020820190508181036000830152610b5b81610aa8565b9050919050565b6000602082019050610b776000830184610ada565b92915050565b6000610b87610b98565b9050610b938282610d95565b919050565b6000604051905090565b600067ffffffffffffffff821115610bbd57610bbc610e77565b5b610bc682610eba565b9050602081019050919050565b6000819050919050565b6000600b9050919050565b600081519050919050565b6000602082019050919050565b600081905092915050565b600082825260208201905092915050565b6000610c2782610d3c565b9150610c3283610d3c565b9250827fffffffffffffffffffffffffffffffffffffffffffffffffffffffffffffffff03821115610c6757610c66610e19565b5b828201905092915050565b6000610c7d82610d3c565b9150610c8883610d3c565b9250817fffffffffffffffffffffffffffffffffffffffffffffffffffffffffffffffff0483118215151615610cc157610cc0610e19565b5b828202905092915050565b6000610cd782610d46565b9150610ce283610d46565b925082821015610cf557610cf4610e19565b5b828203905092915050565b6000610d0b82610d1c565b9050919050565b6000819050919050565b600073ffffffffffffffffffffffffffffffffffffffff82169050919050565b6000819050919050565b600060ff82169050919050565b82818337600083830152505050565b60005b83811015610d80578082015181840152602081019050610d65565b83811115610d8f576000848401525b50505050565b610d9e82610eba565b810181811067ffffffffffffffff82111715610dbd57610dbc610e77565b5b80604052505050565b6000610dd182610d3c565b91507fffffffffffffffffffffffffffffffffffffffffffffffffffffffffffffffff821415610e0457610e03610e19565b5b600182019050919050565b6000819050919050565b7f4e487b7100000000000000000000000000000000000000000000000000000000600052601160045260246000fd5b7f4e487b7100000000000000000000000000000000000000000000000000000000600052603260045260246000fd5b7f4e487b7100000000000000000000000000000000000000000000000000000000600052604160045260246000fd5b600080fd5b600080fd5b600080fd5b600080fd5b6000601f19601f8301169050919050565b7f6e6f7420612076616c696420706c617965720000000000000000000000000000600082015250565b610efd81610d00565b8114610f0857600080fd5b50565b610f1481610d3c565b8114610f1f57600080fd5b5056fea2646970667358221220014656450ebb665548d11ca85926c57795fa0ce840d72c6e3682d268e4a07d7e64736f6c63430008070033",
  "immutableReferences": {},
  "source": "// SPDX-License-Identifier: MIT\n\npragma solidity ^0.8.0;\n\nimport \"./PlayerFCC.sol\";\n\ncontract MatchFCC is PlayerFCC {\n\n    mapping (address => bytes32) private _address2Players;\n    uint256 private _blockNumber;\n\n    constructor() {\n        _blockNumber = block.number;\n    }\n\n    function getBlockNumber() external view returns (uint256) {\n        return _blockNumber;\n    }\n\n    function addMatchPlayers(address addFrom, string memory val) external    {\n        _address2Players[addFrom] = stringToBytes32(val);\n    }\n    function addMatchPlayers(string memory val) external    {\n        _address2Players[msg.sender] = stringToBytes32(val);\n    }\n\n    function getMatchPlayers() external view returns (string memory) {\n        return string(abi.encodePacked(_address2Players[msg.sender]));\n    }\n\n    function getMatchPoints() external view returns (uint256) {\n        return getMatchPoints(msg.sender);\n    }\n\n    function getMatchCost() external view returns (uint256) {\n        return getMatchCost(msg.sender);\n    }\n\n    function getMatchPlayersArray(address val) public view returns (uint256[11] memory) {\n        bytes32 playerStr = _address2Players[val];\n        uint256[11] memory result;\n        uint256 currentIndex = 0;\n        uint256 currentPos = 0;\n        for(uint256 i = 0; i < playerStr.length; ++i)\n        {\n            uint8 c = uint8(playerStr[i]);\n            if (c >= 48 && c <= 57) {\n                currentIndex = currentIndex * 10 + (c - 48);\n            }        \n            else if(c == 59) {\n                result[currentPos] = currentIndex;\n                break;\n            }\n            else if(c == 58) {\n                result[currentPos++] = currentIndex;\n                currentIndex = 0;\n            }\n        }\n        return result;\n    }\n\n    function getMatchCost(address val) public view returns (uint256) {\n        uint256[11] memory players = getMatchPlayersArray(val);\n        uint256 totalCost = 0;\n        for(uint256 i = 0; i < 11; ++i)\n        {\n            totalCost += super.getCost(players[i]);\n        }\n        return totalCost;\n    }\n\n    function getMatchPoints(address val) public view returns (uint256) {\n        uint256[11] memory players = getMatchPlayersArray(val);\n        uint256 totalScore = 0;\n        for(uint256 i = 0; i < 11; ++i)\n        {\n            totalScore += super.getPoints(players[i]);\n        }\n        return totalScore;\n    }\n}\n\n",
  "sourcePath": "/Users/phanimukkamala/Documents/solidity/fcc-dapp/src/contracts/MatchFCC.sol",
  "compiler": {
    "name": "solc",
    "version": "0.8.7+commit.e28d00a7.Emscripten.clang"
  },
  "schemaVersion": "3.4.3",
  "updatedAt": "2021-10-17T03:17:36.208Z",
  "networkType": "ethereum",
  "devdoc": {
    "kind": "dev",
    "methods": {},
    "version": 1
  },
  "userdoc": {
    "kind": "user",
    "methods": {},
    "version": 1
  }
}