{
  "contractName": "MatchFCC",
  "abi": [
    {
      "inputs": [
        {
          "internalType": "string",
          "name": "name",
          "type": "string"
        }
      ],
      "name": "addPlayer",
      "outputs": [],
      "stateMutability": "nonpayable",
      "type": "function"
    },
    {
      "inputs": [
        {
          "internalType": "uint256",
          "name": "index",
          "type": "uint256"
        }
      ],
      "name": "getPlayer",
      "outputs": [
        {
          "internalType": "string",
          "name": "",
          "type": "string"
        }
      ],
      "stateMutability": "view",
      "type": "function",
      "constant": true
    },
    {
      "inputs": [
        {
          "internalType": "string",
          "name": "name",
          "type": "string"
        },
        {
          "internalType": "uint256",
          "name": "val",
          "type": "uint256"
        }
      ],
      "name": "setCost",
      "outputs": [],
      "stateMutability": "nonpayable",
      "type": "function"
    },
    {
      "inputs": [
        {
          "internalType": "string",
          "name": "name",
          "type": "string"
        },
        {
          "internalType": "uint256",
          "name": "val",
          "type": "uint256"
        }
      ],
      "name": "setPoints",
      "outputs": [],
      "stateMutability": "nonpayable",
      "type": "function"
    },
    {
      "inputs": [
        {
          "internalType": "string",
          "name": "name1",
          "type": "string"
        },
        {
          "internalType": "string",
          "name": "name2",
          "type": "string"
        },
        {
          "internalType": "string",
          "name": "name3",
          "type": "string"
        },
        {
          "internalType": "string",
          "name": "name4",
          "type": "string"
        },
        {
          "internalType": "string",
          "name": "name5",
          "type": "string"
        },
        {
          "internalType": "string",
          "name": "name6",
          "type": "string"
        },
        {
          "internalType": "string",
          "name": "name7",
          "type": "string"
        },
        {
          "internalType": "string",
          "name": "name8",
          "type": "string"
        },
        {
          "internalType": "string",
          "name": "name9",
          "type": "string"
        },
        {
          "internalType": "string",
          "name": "name10",
          "type": "string"
        },
        {
          "internalType": "string",
          "name": "name11",
          "type": "string"
        }
      ],
      "name": "addMatchPlayers",
      "outputs": [],
      "stateMutability": "nonpayable",
      "type": "function"
    },
    {
      "inputs": [
        {
          "internalType": "address",
          "name": "val",
          "type": "address"
        }
      ],
      "name": "getMatchCost",
      "outputs": [
        {
          "internalType": "uint256",
          "name": "",
          "type": "uint256"
        }
      ],
      "stateMutability": "view",
      "type": "function",
      "constant": true
    },
    {
      "inputs": [],
      "name": "getMatchPoints",
      "outputs": [
        {
          "internalType": "uint256",
          "name": "",
          "type": "uint256"
        }
      ],
      "stateMutability": "view",
      "type": "function",
      "constant": true
    },
    {
      "inputs": [
        {
          "internalType": "address",
          "name": "val",
          "type": "address"
        }
      ],
      "name": "getMatchPoints",
      "outputs": [
        {
          "internalType": "uint256",
          "name": "",
          "type": "uint256"
        }
      ],
      "stateMutability": "view",
      "type": "function",
      "constant": true
    }
  ],
  "bytecode": "0x60806040526040518060a00160405280620000556040518060400160405280600a81526020017f56697261744b6f686c6900000000000000000000000000000000000000000000815250620002cd60201b60201c565b8152602001620000a06040518060400160405280600781526020017f4d5344686f6e6900000000000000000000000000000000000000000000000000815250620002cd60201b60201c565b8152602001620000eb6040518060400160405280600c81526020017f48617264696b50616e6479610000000000000000000000000000000000000000815250620002cd60201b60201c565b8152602001620001366040518060400160405280600c81526020017f476c656e6e4d617877656c6c0000000000000000000000000000000000000000815250620002cd60201b60201c565b8152602001620001816040518060400160405280600a81526020017f5374657665536d69746800000000000000000000000000000000000000000000815250620002cd60201b60201c565b815250600090600562000196929190620002db565b50348015620001a457600080fd5b5060146001600080600081548110620001c257620001c16200034c565b5b9060005260206000200154815260200190815260200160002081905550600a6001600080600181548110620001fc57620001fb6200034c565b5b9060005260206000200154815260200190815260200160002081905550600f60016000806002815481106200023657620002356200034c565b5b9060005260206000200154815260200190815260200160002081905550600c600160008060038154811062000270576200026f6200034c565b5b906000526020600020015481526020019081526020016000208190555060076001600080600481548110620002aa57620002a96200034c565b5b90600052602060002001548152602001908152602001600020819055506200037b565b600060208201519050919050565b8280548282559060005260206000209081019282156200031a579160200282015b8281111562000319578251825591602001919060010190620002fc565b5b5090506200032991906200032d565b5090565b5b80821115620003485760008160009055506001016200032e565b5090565b7f4e487b7100000000000000000000000000000000000000000000000000000000600052603260045260246000fd5b610ecb806200038b6000396000f3fe608060405234801561001057600080fd5b50600436106100885760003560e01c806392e47f511161005b57806392e47f5114610113578063e55ae4e814610143578063ece670b514610173578063f77e8b831461018f57610088565b8063307bde321461008d5780633c2346e5146100ab57806351a45a76146100c75780636da25d1d146100f7575b600080fd5b6100956101ab565b6040516100a29190610b74565b60405180910390f35b6100c560048036038101906100c091906107a1565b6101bb565b005b6100e160048036038101906100dc919061072b565b610283565b6040516100ee9190610b74565b60405180910390f35b610111600480360381019061010c91906109c9565b610322565b005b61012d6004803603810190610128919061072b565b610346565b60405161013a9190610b74565b60405180910390f35b61015d60048036038101906101589190610a25565b6103e5565b60405161016a9190610b12565b60405180910390f35b61018d600480360381019061018891906109c9565b61042c565b005b6101a960048036038101906101a49190610758565b610450565b005b60006101b633610283565b905090565b6101cc6101c78c610514565b610522565b6101dd6101d88b610514565b610522565b6101ee6101e98a610514565b610522565b6101ff6101fa89610514565b610522565b61021061020b88610514565b610522565b61022161021c87610514565b610522565b61023261022d86610514565b610522565b61024361023e85610514565b610522565b61025461024f84610514565b610522565b61026561026083610514565b610522565b61027661027182610514565b610522565b5050505050505050505050565b6000806000905060005b600b811015610318576102fa600360008673ffffffffffffffffffffffffffffffffffffffff1673ffffffffffffffffffffffffffffffffffffffff16815260200190815260200160002082815481106102ea576102e9610d92565b5b9060005260206000200154610594565b826103059190610c01565b91508061031190610d10565b905061028d565b5080915050919050565b806001600061033085610514565b8152602001908152602001600020819055505050565b6000806000905060005b600b8110156103db576103bd600360008673ffffffffffffffffffffffffffffffffffffffff1673ffffffffffffffffffffffffffffffffffffffff16815260200190815260200160002082815481106103ad576103ac610d92565b5b90600052602060002001546105ba565b826103c89190610c01565b9150806103d490610d10565b9050610350565b5080915050919050565b6060600082815481106103fb576103fa610d92565b5b90600052602060002001546040516020016104169190610af7565b6040516020818303038152906040529050919050565b806002600061043a85610514565b8152602001908152602001600020819055505050565b60008080549050905060005b818110156104de576000818154811061047857610477610d92565b5b906000526020600020015461048c84610514565b14156104cd576040517f08c379a00000000000000000000000000000000000000000000000000000000081526004016104c490610b54565b60405180910390fd5b806104d790610d10565b905061045c565b5060006104ea83610514565b90806001815401808255809150506001900390600052602060002001600090919091909150555050565b600060208201519050919050565b61052b816105e0565b600360003373ffffffffffffffffffffffffffffffffffffffff1673ffffffffffffffffffffffffffffffffffffffff16815260200190815260200160002081908060018154018082558091505060019003906000526020600020016000909190919091505550565b600061059f826105e0565b60026000838152602001908152602001600020549050919050565b60006105c5826105e0565b60016000838152602001908152602001600020549050919050565b6000808054905090506000805b82811015610648576000818154811061060957610608610d92565b5b90600052602060002001548414610621576000610624565b60015b60ff169150600182141561063757610648565b8061064190610d10565b90506105ed565b506001811461068c576040517f08c379a000000000000000000000000000000000000000000000000000000000815260040161068390610b34565b60405180910390fd5b505050565b60006106a461069f84610bb4565b610b8f565b9050828152602081018484840111156106c0576106bf610df5565b5b6106cb848285610c9d565b509392505050565b6000813590506106e281610e67565b92915050565b600082601f8301126106fd576106fc610df0565b5b813561070d848260208601610691565b91505092915050565b60008135905061072581610e7e565b92915050565b60006020828403121561074157610740610dff565b5b600061074f848285016106d3565b91505092915050565b60006020828403121561076e5761076d610dff565b5b600082013567ffffffffffffffff81111561078c5761078b610dfa565b5b610798848285016106e8565b91505092915050565b60008060008060008060008060008060006101608c8e0312156107c7576107c6610dff565b5b60008c013567ffffffffffffffff8111156107e5576107e4610dfa565b5b6107f18e828f016106e8565b9b505060208c013567ffffffffffffffff81111561081257610811610dfa565b5b61081e8e828f016106e8565b9a505060408c013567ffffffffffffffff81111561083f5761083e610dfa565b5b61084b8e828f016106e8565b99505060608c013567ffffffffffffffff81111561086c5761086b610dfa565b5b6108788e828f016106e8565b98505060808c013567ffffffffffffffff81111561089957610898610dfa565b5b6108a58e828f016106e8565b97505060a08c013567ffffffffffffffff8111156108c6576108c5610dfa565b5b6108d28e828f016106e8565b96505060c08c013567ffffffffffffffff8111156108f3576108f2610dfa565b5b6108ff8e828f016106e8565b95505060e08c013567ffffffffffffffff8111156109205761091f610dfa565b5b61092c8e828f016106e8565b9450506101008c013567ffffffffffffffff81111561094e5761094d610dfa565b5b61095a8e828f016106e8565b9350506101208c013567ffffffffffffffff81111561097c5761097b610dfa565b5b6109888e828f016106e8565b9250506101408c013567ffffffffffffffff8111156109aa576109a9610dfa565b5b6109b68e828f016106e8565b9150509295989b509295989b9093969950565b600080604083850312156109e0576109df610dff565b5b600083013567ffffffffffffffff8111156109fe576109fd610dfa565b5b610a0a858286016106e8565b9250506020610a1b85828601610716565b9150509250929050565b600060208284031215610a3b57610a3a610dff565b5b6000610a4984828501610716565b91505092915050565b610a63610a5e82610c69565b610d59565b82525050565b6000610a7482610be5565b610a7e8185610bf0565b9350610a8e818560208601610cac565b610a9781610e04565b840191505092915050565b6000610aaf601283610bf0565b9150610aba82610e15565b602082019050919050565b6000610ad2601583610bf0565b9150610add82610e3e565b602082019050919050565b610af181610c93565b82525050565b6000610b038284610a52565b60208201915081905092915050565b60006020820190508181036000830152610b2c8184610a69565b905092915050565b60006020820190508181036000830152610b4d81610aa2565b9050919050565b60006020820190508181036000830152610b6d81610ac5565b9050919050565b6000602082019050610b896000830184610ae8565b92915050565b6000610b99610baa565b9050610ba58282610cdf565b919050565b6000604051905090565b600067ffffffffffffffff821115610bcf57610bce610dc1565b5b610bd882610e04565b9050602081019050919050565b600081519050919050565b600082825260208201905092915050565b6000610c0c82610c93565b9150610c1783610c93565b9250827fffffffffffffffffffffffffffffffffffffffffffffffffffffffffffffffff03821115610c4c57610c4b610d63565b5b828201905092915050565b6000610c6282610c73565b9050919050565b6000819050919050565b600073ffffffffffffffffffffffffffffffffffffffff82169050919050565b6000819050919050565b82818337600083830152505050565b60005b83811015610cca578082015181840152602081019050610caf565b83811115610cd9576000848401525b50505050565b610ce882610e04565b810181811067ffffffffffffffff82111715610d0757610d06610dc1565b5b80604052505050565b6000610d1b82610c93565b91507fffffffffffffffffffffffffffffffffffffffffffffffffffffffffffffffff821415610d4e57610d4d610d63565b5b600182019050919050565b6000819050919050565b7f4e487b7100000000000000000000000000000000000000000000000000000000600052601160045260246000fd5b7f4e487b7100000000000000000000000000000000000000000000000000000000600052603260045260246000fd5b7f4e487b7100000000000000000000000000000000000000000000000000000000600052604160045260246000fd5b600080fd5b600080fd5b600080fd5b600080fd5b6000601f19601f8301169050919050565b7f6e6f7420612076616c696420706c617965720000000000000000000000000000600082015250565b7f706c6179657220616c7265616479206578697374730000000000000000000000600082015250565b610e7081610c57565b8114610e7b57600080fd5b50565b610e8781610c93565b8114610e9257600080fd5b5056fea264697066735822122052df5e6fd2a335dd1eb813a4af5cc9605957947ec1dc21415b4631f9da1cad8d64736f6c63430008070033",
  "immutableReferences": {},
  "source": "// SPDX-License-Identifier: MIT\n\npragma solidity ^0.8.0;\n\nimport \"./PlayerFCC.sol\";\n\ncontract MatchFCC is PlayerFCC {\n\n    mapping (address => bytes32[]) private _address2Players;\n    \n    function addMatchPlayers(string memory name1, \n                             string memory name2,\n                             string memory name3,\n                             string memory name4,\n                             string memory name5,\n                             string memory name6,\n                             string memory name7,\n                             string memory name8,\n                             string memory name9, \n                             string memory name10,\n                             string memory name11) external {\n        addMatchPlayer(stringToBytes32(name1));\n        addMatchPlayer(stringToBytes32(name2));\n        addMatchPlayer(stringToBytes32(name3));\n        addMatchPlayer(stringToBytes32(name4));\n        addMatchPlayer(stringToBytes32(name5));\n        addMatchPlayer(stringToBytes32(name6));\n        addMatchPlayer(stringToBytes32(name7));\n        addMatchPlayer(stringToBytes32(name8));\n        addMatchPlayer(stringToBytes32(name9));\n        addMatchPlayer(stringToBytes32(name10));\n        addMatchPlayer(stringToBytes32(name11));\n    }\n\n    function addMatchPlayer(bytes32 name) private {\n        validPlayer(name);\n        _address2Players[msg.sender].push(name);\n    }\n\n    function getMatchPoints() external view returns (uint256) {\n        return getMatchPoints(msg.sender);\n    }\n\n    function getMatchCost(address val) public view returns (uint256) {\n        uint256 totalCost = 0;\n        for(uint256 i = 0; i < 11; ++i)\n        {\n            totalCost += super.getCost(_address2Players[val][i]);\n        }\n        return totalCost;\n    }\n\n    function getMatchPoints(address val) public view returns (uint256) {\n        uint256 totalScore = 0;\n        for(uint256 i = 0; i < 11; ++i)\n        {\n            totalScore += super.getPoints(_address2Players[val][i]);\n        }\n        return totalScore;\n    }\n}\n\n",
  "sourcePath": "/Users/phanimukkamala/Documents/solidity/fcc-dapp/src/contracts/MatchFCC.sol",
  "compiler": {
    "name": "solc",
    "version": "0.8.7+commit.e28d00a7.Emscripten.clang"
  },
  "schemaVersion": "3.4.3",
  "updatedAt": "2021-10-09T10:13:49.591Z",
  "networkType": "ethereum",
  "devdoc": {
    "kind": "dev",
    "methods": {},
    "version": 1
  },
  "userdoc": {
    "kind": "user",
    "methods": {},
    "version": 1
  }
}