{
  "contractName": "MatchFCC",
  "abi": [
    {
      "inputs": [
        {
          "internalType": "uint256",
          "name": "playerIndex",
          "type": "uint256"
        }
      ],
      "name": "getCost",
      "outputs": [
        {
          "internalType": "uint256",
          "name": "",
          "type": "uint256"
        }
      ],
      "stateMutability": "view",
      "type": "function",
      "constant": true
    },
    {
      "inputs": [
        {
          "internalType": "uint256",
          "name": "index",
          "type": "uint256"
        }
      ],
      "name": "getPlayer",
      "outputs": [
        {
          "internalType": "string",
          "name": "",
          "type": "string"
        }
      ],
      "stateMutability": "view",
      "type": "function",
      "constant": true
    },
    {
      "inputs": [],
      "name": "getPlayerCount",
      "outputs": [
        {
          "internalType": "uint256",
          "name": "",
          "type": "uint256"
        }
      ],
      "stateMutability": "view",
      "type": "function",
      "constant": true
    },
    {
      "inputs": [
        {
          "internalType": "string",
          "name": "name",
          "type": "string"
        }
      ],
      "name": "getPlayerIndex",
      "outputs": [
        {
          "internalType": "uint256",
          "name": "",
          "type": "uint256"
        }
      ],
      "stateMutability": "view",
      "type": "function",
      "constant": true
    },
    {
      "inputs": [
        {
          "internalType": "uint256",
          "name": "playerIndex",
          "type": "uint256"
        }
      ],
      "name": "getPoints",
      "outputs": [
        {
          "internalType": "uint256",
          "name": "",
          "type": "uint256"
        }
      ],
      "stateMutability": "view",
      "type": "function",
      "constant": true
    },
    {
      "inputs": [
        {
          "internalType": "uint256",
          "name": "playerIndex",
          "type": "uint256"
        },
        {
          "internalType": "uint256",
          "name": "val",
          "type": "uint256"
        }
      ],
      "name": "setPoints",
      "outputs": [],
      "stateMutability": "nonpayable",
      "type": "function"
    },
    {
      "inputs": [
        {
          "internalType": "string",
          "name": "val",
          "type": "string"
        }
      ],
      "name": "addMatchPlayers",
      "outputs": [],
      "stateMutability": "nonpayable",
      "type": "function"
    },
    {
      "inputs": [],
      "name": "getMatchPlayers",
      "outputs": [
        {
          "internalType": "string",
          "name": "",
          "type": "string"
        }
      ],
      "stateMutability": "view",
      "type": "function",
      "constant": true
    },
    {
      "inputs": [
        {
          "internalType": "address",
          "name": "val",
          "type": "address"
        }
      ],
      "name": "getMatchPlayersArray",
      "outputs": [
        {
          "internalType": "uint256[11]",
          "name": "",
          "type": "uint256[11]"
        }
      ],
      "stateMutability": "view",
      "type": "function",
      "constant": true
    },
    {
      "inputs": [
        {
          "internalType": "address",
          "name": "val",
          "type": "address"
        }
      ],
      "name": "getMatchCost",
      "outputs": [
        {
          "internalType": "uint256",
          "name": "",
          "type": "uint256"
        }
      ],
      "stateMutability": "view",
      "type": "function",
      "constant": true
    },
    {
      "inputs": [],
      "name": "getMatchCost",
      "outputs": [
        {
          "internalType": "uint256",
          "name": "",
          "type": "uint256"
        }
      ],
      "stateMutability": "view",
      "type": "function",
      "constant": true
    },
    {
      "inputs": [],
      "name": "getMatchPoints",
      "outputs": [
        {
          "internalType": "uint256",
          "name": "",
          "type": "uint256"
        }
      ],
      "stateMutability": "view",
      "type": "function",
      "constant": true
    },
    {
      "inputs": [
        {
          "internalType": "address",
          "name": "val",
          "type": "address"
        }
      ],
      "name": "getMatchPoints",
      "outputs": [
        {
          "internalType": "uint256",
          "name": "",
          "type": "uint256"
        }
      ],
      "stateMutability": "view",
      "type": "function",
      "constant": true
    }
  ],
  "bytecode": "0x6080604052604051806102c00160405280620000566040518060400160405280600a81526020017f56697261744b6f686c69000000000000000000000000000000000000000000008152506200089960201b60201c565b8152602001620000a16040518060400160405280600781526020017f4d5344686f6e69000000000000000000000000000000000000000000000000008152506200089960201b60201c565b8152602001620000ec6040518060400160405280600c81526020017f48617264696b50616e64796100000000000000000000000000000000000000008152506200089960201b60201c565b8152602001620001376040518060400160405280600c81526020017f476c656e6e4d617877656c6c00000000000000000000000000000000000000008152506200089960201b60201c565b8152602001620001826040518060400160405280600381526020017f41424400000000000000000000000000000000000000000000000000000000008152506200089960201b60201c565b8152602001620001cd6040518060400160405280600881526020017f506164696b6b616c0000000000000000000000000000000000000000000000008152506200089960201b60201c565b8152602001620002186040518060400160405280600681526020017f43686168616c00000000000000000000000000000000000000000000000000008152506200089960201b60201c565b8152602001620002636040518060400160405280600881526020017f54726970617468690000000000000000000000000000000000000000000000008152506200089960201b60201c565b8152602001620002ae6040518060400160405280600b81526020017f536875626d616e47696c6c0000000000000000000000000000000000000000008152506200089960201b60201c565b8152602001620002f96040518060400160405280600b81526020017f50726974687669536861770000000000000000000000000000000000000000008152506200089960201b60201c565b8152602001620003446040518060400160405280600681526020017f5761726e657200000000000000000000000000000000000000000000000000008152506200089960201b60201c565b81526020016200038f6040518060400160405280600b81526020017f526f686974536861726d610000000000000000000000000000000000000000008152506200089960201b60201c565b8152602001620003da6040518060400160405280600781526020017f506f6c6c617264000000000000000000000000000000000000000000000000008152506200089960201b60201c565b8152602001620004256040518060400160405280600581526020017f427261766f0000000000000000000000000000000000000000000000000000008152506200089960201b60201c565b8152602001620004706040518060400160405280600881526020017f4865746d657965720000000000000000000000000000000000000000000000008152506200089960201b60201c565b8152602001620004bb6040518060400160405280600b81526020017f53687265796173497965720000000000000000000000000000000000000000008152506200089960201b60201c565b8152602001620005066040518060400160405280600481526020017f50616e74000000000000000000000000000000000000000000000000000000008152506200089960201b60201c565b8152602001620005516040518060400160405280600581526020017f497368616e0000000000000000000000000000000000000000000000000000008152506200089960201b60201c565b81526020016200059c6040518060400160405280600a81526020017f53757279616b756d6172000000000000000000000000000000000000000000008152506200089960201b60201c565b8152602001620005e76040518060400160405280600d81526020017f5368617264756c5468616b7572000000000000000000000000000000000000008152506200089960201b60201c565b8152602001620006326040518060400160405280600c81526020017f44656570616b43686168617200000000000000000000000000000000000000008152506200089960201b60201c565b81526020016200067d6040518060400160405280600a81526020017f5374657665536d697468000000000000000000000000000000000000000000008152506200089960201b60201c565b815250600090601662000692929190620008a7565b50604051806102c00160405280600a60ff168152602001601460ff168152602001601560ff168152602001601660ff168152602001600a60ff168152602001600760ff168152602001600860ff168152602001600960ff168152602001600a60ff168152602001600860ff168152602001601260ff168152602001600860ff168152602001600860ff168152602001600c60ff168152602001600860ff168152602001600860ff168152602001600d60ff168152602001600860ff168152602001600860ff168152602001600860ff168152602001600860ff168152602001600860ff1681525060169060166200078b929190620008ec565b50604051806102c00160405280600060ff168152602001600060ff168152602001600060ff168152602001600060ff168152602001600060ff168152602001600060ff168152602001600060ff168152602001600060ff168152602001600060ff168152602001600060ff168152602001600060ff168152602001600060ff168152602001600060ff168152602001600060ff168152602001600060ff168152602001600060ff168152602001600060ff168152602001600060ff168152602001600060ff168152602001600060ff168152602001600060ff168152602001600060ff16815250602c90601662000884929190620008ec565b503480156200089257600080fd5b5062000974565b600060208201519050919050565b8260168101928215620008d9579160200282015b82811115620008d8578251825591602001919060010190620008bb565b5b509050620008e8919062000936565b5090565b826016810192821562000923579160200282015b8281111562000922578251829060ff1690559160200191906001019062000900565b5b50905062000932919062000955565b5090565b5b808211156200095157600081600090555060010162000937565b5090565b5b808211156200097057600081600090555060010162000956565b5090565b610e4280620009846000396000f3fe608060405234801561001057600080fd5b50600436106100cf5760003560e01c8063876b71c31161008c578063a967eee411610066578063a967eee414610238578063c2e5220614610268578063d3371ef314610286578063e55ae4e8146102a4576100cf565b8063876b71c3146101bc57806392e47f51146101ec57806393b8f5de1461021c576100cf565b8063233e8d5d146100d4578063307bde32146100f257806340db234b1461011057806351a45a76146101405780635a4dd47d146101705780637aa85528146101a0575b600080fd5b6100dc6102d4565b6040516100e99190610a0a565b60405180910390f35b6100fa61033a565b6040516101079190610a4c565b60405180910390f35b61012a600480360381019061012591906107f0565b61034a565b60405161013791906109ee565b60405180910390f35b61015a600480360381019061015591906107f0565b6104a2565b6040516101679190610a4c565b60405180910390f35b61018a60048036038101906101859190610866565b610506565b6040516101979190610a4c565b60405180910390f35b6101ba60048036038101906101b59190610893565b610525565b005b6101d660048036038101906101d1919061081d565b610543565b6040516101e39190610a4c565b60405180910390f35b610206600480360381019061020191906107f0565b61055d565b6040516102139190610a4c565b60405180910390f35b6102366004803603810190610231919061081d565b6105c1565b005b610252600480360381019061024d9190610866565b610610565b60405161025f9190610a4c565b60405180910390f35b61027061062f565b60405161027d9190610a4c565b60405180910390f35b61028e610638565b60405161029b9190610a4c565b60405180910390f35b6102be60048036038101906102b99190610866565b610648565b6040516102cb9190610a0a565b60405180910390f35b6060604260003373ffffffffffffffffffffffffffffffffffffffff1673ffffffffffffffffffffffffffffffffffffffff1681526020019081526020016000205460405160200161032691906109d3565b604051602081830303815290604052905090565b6000610345336104a2565b905090565b610352610733565b6000604260008473ffffffffffffffffffffffffffffffffffffffff1673ffffffffffffffffffffffffffffffffffffffff16815260200190815260200160002054905061039e610733565b60008060005b602060ff168110156104955760008582602081106103c5576103c4610d32565b5b1a60f81b60f81c905060308160ff16101580156103e6575060398160ff1611155b15610419576030816103f89190610bb6565b60ff16600a856104089190610b5c565b6104129190610b06565b9350610483565b603b8160ff16141561044857838584600b811061043957610438610d32565b5b60200201818152505050610495565b603a8160ff161415610482578385848061046190610cb0565b9550600b811061047457610473610d32565b5b602002018181525050600093505b5b508061048e90610cb0565b90506103a4565b5082945050505050919050565b6000806104ae8361034a565b90506000805b600b8110156104fb576104dd8382600b81106104d3576104d2610d32565b5b6020020151610610565b826104e89190610b06565b9150806104f490610cb0565b90506104b4565b508092505050919050565b60006016826016811061051c5761051b610d32565b5b01549050919050565b80602c836016811061053a57610539610d32565b5b01819055505050565b600061055661055183610686565b610694565b9050919050565b6000806105698361034a565b90506000805b600b8110156105b6576105988382600b811061058e5761058d610d32565b5b6020020151610506565b826105a39190610b06565b9150806105af90610cb0565b905061056f565b508092505050919050565b6105ca81610686565b604260003373ffffffffffffffffffffffffffffffffffffffff1673ffffffffffffffffffffffffffffffffffffffff1681526020019081526020016000208190555050565b6000602c826016811061062657610625610d32565b5b01549050919050565b60006016905090565b60006106433361055d565b905090565b60606000826016811061065e5761065d610d32565b5b015460405160200161067091906109d3565b6040516020818303038152906040529050919050565b600060208201519050919050565b6000806016905060006103e7905060005b828110156106e357600081601681106106c1576106c0610d32565b5b01548514156106d2578091506106e3565b806106dc90610cb0565b90506106a5565b506103e7811415610729576040517f08c379a000000000000000000000000000000000000000000000000000000000815260040161072090610a2c565b60405180910390fd5b8092505050919050565b604051806101600160405280600b90602082028036833780820191505090505090565b600061076961076484610a8c565b610a67565b90508281526020810184848401111561078557610784610d95565b5b610790848285610c3d565b509392505050565b6000813590506107a781610dde565b92915050565b600082601f8301126107c2576107c1610d90565b5b81356107d2848260208601610756565b91505092915050565b6000813590506107ea81610df5565b92915050565b60006020828403121561080657610805610d9f565b5b600061081484828501610798565b91505092915050565b60006020828403121561083357610832610d9f565b5b600082013567ffffffffffffffff81111561085157610850610d9a565b5b61085d848285016107ad565b91505092915050565b60006020828403121561087c5761087b610d9f565b5b600061088a848285016107db565b91505092915050565b600080604083850312156108aa576108a9610d9f565b5b60006108b8858286016107db565b92505060206108c9858286016107db565b9150509250929050565b60006108df83836109b5565b60208301905092915050565b6108f481610ac7565b6108fe8184610aea565b925061090982610abd565b8060005b8381101561093a57815161092187826108d3565b965061092c83610add565b92505060018101905061090d565b505050505050565b61095361094e82610bfc565b610cf9565b82525050565b600061096482610ad2565b61096e8185610af5565b935061097e818560208601610c4c565b61098781610da4565b840191505092915050565b600061099f601283610af5565b91506109aa82610db5565b602082019050919050565b6109be81610c26565b82525050565b6109cd81610c26565b82525050565b60006109df8284610942565b60208201915081905092915050565b600061016082019050610a0460008301846108eb565b92915050565b60006020820190508181036000830152610a248184610959565b905092915050565b60006020820190508181036000830152610a4581610992565b9050919050565b6000602082019050610a6160008301846109c4565b92915050565b6000610a71610a82565b9050610a7d8282610c7f565b919050565b6000604051905090565b600067ffffffffffffffff821115610aa757610aa6610d61565b5b610ab082610da4565b9050602081019050919050565b6000819050919050565b6000600b9050919050565b600081519050919050565b6000602082019050919050565b600081905092915050565b600082825260208201905092915050565b6000610b1182610c26565b9150610b1c83610c26565b9250827fffffffffffffffffffffffffffffffffffffffffffffffffffffffffffffffff03821115610b5157610b50610d03565b5b828201905092915050565b6000610b6782610c26565b9150610b7283610c26565b9250817fffffffffffffffffffffffffffffffffffffffffffffffffffffffffffffffff0483118215151615610bab57610baa610d03565b5b828202905092915050565b6000610bc182610c30565b9150610bcc83610c30565b925082821015610bdf57610bde610d03565b5b828203905092915050565b6000610bf582610c06565b9050919050565b6000819050919050565b600073ffffffffffffffffffffffffffffffffffffffff82169050919050565b6000819050919050565b600060ff82169050919050565b82818337600083830152505050565b60005b83811015610c6a578082015181840152602081019050610c4f565b83811115610c79576000848401525b50505050565b610c8882610da4565b810181811067ffffffffffffffff82111715610ca757610ca6610d61565b5b80604052505050565b6000610cbb82610c26565b91507fffffffffffffffffffffffffffffffffffffffffffffffffffffffffffffffff821415610cee57610ced610d03565b5b600182019050919050565b6000819050919050565b7f4e487b7100000000000000000000000000000000000000000000000000000000600052601160045260246000fd5b7f4e487b7100000000000000000000000000000000000000000000000000000000600052603260045260246000fd5b7f4e487b7100000000000000000000000000000000000000000000000000000000600052604160045260246000fd5b600080fd5b600080fd5b600080fd5b600080fd5b6000601f19601f8301169050919050565b7f6e6f7420612076616c696420706c617965720000000000000000000000000000600082015250565b610de781610bea565b8114610df257600080fd5b50565b610dfe81610c26565b8114610e0957600080fd5b5056fea264697066735822122033600511445ad0f757bfe91eabf562a97aba4f946de9f4e58921620ce719ed2d64736f6c63430008070033",
  "immutableReferences": {},
  "source": "// SPDX-License-Identifier: MIT\n\npragma solidity ^0.8.0;\n\nimport \"./PlayerFCC.sol\";\n\ncontract MatchFCC is PlayerFCC {\n\n    mapping (address => bytes32) private _address2Players;\n\n    function addMatchPlayers(string memory val) external    {\n        _address2Players[msg.sender] = stringToBytes32(val);\n    }\n\n    function getMatchPlayers() external view returns (string memory) {\n        return string(abi.encodePacked(_address2Players[msg.sender]));\n    }\n\n    function getMatchPoints() external view returns (uint256) {\n        return getMatchPoints(msg.sender);\n    }\n\n    function getMatchCost() external view returns (uint256) {\n        return getMatchCost(msg.sender);\n    }\n\n    function getMatchPlayersArray(address val) public view returns (uint256[11] memory) {\n        bytes32 playerStr = _address2Players[val];\n        uint256[11] memory result;\n        uint256 currentIndex = 0;\n        uint256 currentPos = 0;\n        for(uint256 i = 0; i < playerStr.length; ++i)\n        {\n            uint8 c = uint8(playerStr[i]);\n            if (c >= 48 && c <= 57) {\n                currentIndex = currentIndex * 10 + (c - 48);\n            }        \n            else if(c == 59) {\n                result[currentPos] = currentIndex;\n                break;\n            }\n            else if(c == 58) {\n                result[currentPos++] = currentIndex;\n                currentIndex = 0;\n            }\n        }\n        return result;\n    }\n\n    function getMatchCost(address val) public view returns (uint256) {\n        uint256[11] memory players = getMatchPlayersArray(val);\n        uint256 totalCost = 0;\n        for(uint256 i = 0; i < 11; ++i)\n        {\n            totalCost += super.getCost(players[i]);\n        }\n        return totalCost;\n    }\n\n    function getMatchPoints(address val) public view returns (uint256) {\n        uint256[11] memory players = getMatchPlayersArray(val);\n        uint256 totalScore = 0;\n        for(uint256 i = 0; i < 11; ++i)\n        {\n            totalScore += super.getPoints(players[i]);\n        }\n        return totalScore;\n    }\n}\n\n",
  "sourcePath": "/Users/phanimukkamala/Documents/solidity/fcc-dapp/src/contracts/MatchFCC.sol",
  "compiler": {
    "name": "solc",
    "version": "0.8.7+commit.e28d00a7.Emscripten.clang"
  },
  "schemaVersion": "3.4.3",
  "updatedAt": "2021-10-15T07:51:57.943Z",
  "networkType": "ethereum",
  "devdoc": {
    "kind": "dev",
    "methods": {},
    "version": 1
  },
  "userdoc": {
    "kind": "user",
    "methods": {},
    "version": 1
  }
}