{
  "contractName": "MatchFCC",
  "abi": [
    {
      "inputs": [
        {
          "internalType": "uint256",
          "name": "playerIndex",
          "type": "uint256"
        }
      ],
      "name": "getCost",
      "outputs": [
        {
          "internalType": "uint256",
          "name": "",
          "type": "uint256"
        }
      ],
      "stateMutability": "view",
      "type": "function",
      "constant": true
    },
    {
      "inputs": [
        {
          "internalType": "uint256",
          "name": "index",
          "type": "uint256"
        }
      ],
      "name": "getPlayer",
      "outputs": [
        {
          "internalType": "string",
          "name": "",
          "type": "string"
        }
      ],
      "stateMutability": "view",
      "type": "function",
      "constant": true
    },
    {
      "inputs": [],
      "name": "getPlayerCount",
      "outputs": [
        {
          "internalType": "uint256",
          "name": "",
          "type": "uint256"
        }
      ],
      "stateMutability": "view",
      "type": "function",
      "constant": true
    },
    {
      "inputs": [
        {
          "internalType": "uint256",
          "name": "playerIndex",
          "type": "uint256"
        },
        {
          "internalType": "uint256",
          "name": "val",
          "type": "uint256"
        }
      ],
      "name": "setPoints",
      "outputs": [],
      "stateMutability": "nonpayable",
      "type": "function"
    },
    {
      "inputs": [
        {
          "internalType": "uint256",
          "name": "index1",
          "type": "uint256"
        },
        {
          "internalType": "uint256",
          "name": "index2",
          "type": "uint256"
        },
        {
          "internalType": "uint256",
          "name": "index3",
          "type": "uint256"
        },
        {
          "internalType": "uint256",
          "name": "index4",
          "type": "uint256"
        },
        {
          "internalType": "uint256",
          "name": "index5",
          "type": "uint256"
        },
        {
          "internalType": "uint256",
          "name": "index6",
          "type": "uint256"
        },
        {
          "internalType": "uint256",
          "name": "index7",
          "type": "uint256"
        },
        {
          "internalType": "uint256",
          "name": "index8",
          "type": "uint256"
        },
        {
          "internalType": "uint256",
          "name": "index9",
          "type": "uint256"
        },
        {
          "internalType": "uint256",
          "name": "index10",
          "type": "uint256"
        },
        {
          "internalType": "uint256",
          "name": "index11",
          "type": "uint256"
        }
      ],
      "name": "addMatchPlayers",
      "outputs": [],
      "stateMutability": "nonpayable",
      "type": "function"
    },
    {
      "inputs": [
        {
          "internalType": "address",
          "name": "val",
          "type": "address"
        }
      ],
      "name": "getMatchCost",
      "outputs": [
        {
          "internalType": "uint256",
          "name": "",
          "type": "uint256"
        }
      ],
      "stateMutability": "view",
      "type": "function",
      "constant": true
    },
    {
      "inputs": [],
      "name": "getMatchPoints",
      "outputs": [
        {
          "internalType": "uint256",
          "name": "",
          "type": "uint256"
        }
      ],
      "stateMutability": "view",
      "type": "function",
      "constant": true
    },
    {
      "inputs": [
        {
          "internalType": "address",
          "name": "val",
          "type": "address"
        }
      ],
      "name": "getMatchPoints",
      "outputs": [
        {
          "internalType": "uint256",
          "name": "",
          "type": "uint256"
        }
      ],
      "stateMutability": "view",
      "type": "function",
      "constant": true
    }
  ],
  "bytecode": "0x6080604052604051806101000160405280620000566040518060400160405280600a81526020017f56697261744b6f686c69000000000000000000000000000000000000000000008152506200032a60201b60201c565b8152602001620000a16040518060400160405280600781526020017f4d5344686f6e69000000000000000000000000000000000000000000000000008152506200032a60201b60201c565b8152602001620000ec6040518060400160405280600c81526020017f48617264696b50616e64796100000000000000000000000000000000000000008152506200032a60201b60201c565b8152602001620001376040518060400160405280600c81526020017f476c656e6e4d617877656c6c00000000000000000000000000000000000000008152506200032a60201b60201c565b8152602001620001826040518060400160405280600381526020017f41424400000000000000000000000000000000000000000000000000000000008152506200032a60201b60201c565b8152602001620001cd6040518060400160405280600881526020017f506164696b6b616c0000000000000000000000000000000000000000000000008152506200032a60201b60201c565b8152602001620002186040518060400160405280600681526020017f43686168616c00000000000000000000000000000000000000000000000000008152506200032a60201b60201c565b8152602001620002636040518060400160405280600a81526020017f5374657665536d697468000000000000000000000000000000000000000000008152506200032a60201b60201c565b81525060009060086200027892919062000338565b50604051806101000160405280601460ff168152602001600a60ff168152602001600f60ff168152602001600c60ff168152602001600760ff168152602001600d60ff168152602001600e60ff168152602001600f60ff168152506001906008620002e59291906200038a565b506040518060400160405280600060ff168152602001600060ff16815250600290600262000315929190620003e1565b503480156200032357600080fd5b5062000476565b600060208201519050919050565b82805482825590600052602060002090810192821562000377579160200282015b828111156200037657825182559160200191906001019062000359565b5b50905062000386919062000438565b5090565b828054828255906000526020600020908101928215620003ce579160200282015b82811115620003cd578251829060ff16905591602001919060010190620003ab565b5b509050620003dd919062000457565b5090565b82805482825590600052602060002090810192821562000425579160200282015b8281111562000424578251829060ff1690559160200191906001019062000402565b5b50905062000434919062000457565b5090565b5b808211156200045357600081600090555060010162000439565b5090565b5b808211156200047257600081600090555060010162000458565b5090565b61093780620004866000396000f3fe608060405234801561001057600080fd5b50600436106100885760003560e01c80637aa855281161005b5780637aa855281461012757806392e47f5114610143578063c2e5220614610173578063e55ae4e81461019157610088565b8063307bde321461008d57806351a45a76146100ab5780635a4dd47d146100db57806376e886491461010b575b600080fd5b6100956101c1565b6040516100a29190610706565b60405180910390f35b6100c560048036038101906100c091906104dc565b6101d1565b6040516100d29190610706565b60405180910390f35b6100f560048036038101906100f09190610509565b610270565b6040516101029190610706565b60405180910390f35b61012560048036038101906101209190610576565b610298565b005b610141600480360381019061013c9190610536565b610308565b005b61015d600480360381019061015891906104dc565b61032f565b60405161016a9190610706565b60405180910390f35b61017b6103ce565b6040516101889190610706565b60405180910390f35b6101ab60048036038101906101a69190610509565b6103da565b6040516101b891906106e4565b60405180910390f35b60006101cc336101d1565b905090565b6000806000905060005b600b81101561026657610248600360008673ffffffffffffffffffffffffffffffffffffffff1673ffffffffffffffffffffffffffffffffffffffff16815260200190815260200160002082815481106102385761023761088e565b5b9060005260206000200154610421565b82610253919061073d565b91508061025f9061080c565b90506101db565b5080915050919050565b6000600182815481106102865761028561088e565b5b90600052602060002001549050919050565b6102a18b610449565b6102aa8a610449565b6102b389610449565b6102bc88610449565b6102c587610449565b6102ce86610449565b6102d785610449565b6102e084610449565b6102e983610449565b6102f282610449565b6102fb81610449565b5050505050505050505050565b806002838154811061031d5761031c61088e565b5b90600052602060002001819055505050565b6000806000905060005b600b8110156103c4576103a6600360008673ffffffffffffffffffffffffffffffffffffffff1673ffffffffffffffffffffffffffffffffffffffff16815260200190815260200160002082815481106103965761039561088e565b5b9060005260206000200154610270565b826103b1919061073d565b9150806103bd9061080c565b9050610339565b5080915050919050565b60008080549050905090565b6060600082815481106103f0576103ef61088e565b5b906000526020600020015460405160200161040b91906106c9565b6040516020818303038152906040529050919050565b6000600282815481106104375761043661088e565b5b90600052602060002001549050919050565b600360003373ffffffffffffffffffffffffffffffffffffffff1673ffffffffffffffffffffffffffffffffffffffff16815260200190815260200160002081908060018154018082558091505060019003906000526020600020016000909190919091505550565b6000813590506104c1816108d3565b92915050565b6000813590506104d6816108ea565b92915050565b6000602082840312156104f2576104f16108bd565b5b6000610500848285016104b2565b91505092915050565b60006020828403121561051f5761051e6108bd565b5b600061052d848285016104c7565b91505092915050565b6000806040838503121561054d5761054c6108bd565b5b600061055b858286016104c7565b925050602061056c858286016104c7565b9150509250929050565b60008060008060008060008060008060006101608c8e03121561059c5761059b6108bd565b5b60006105aa8e828f016104c7565b9b505060206105bb8e828f016104c7565b9a505060406105cc8e828f016104c7565b99505060606105dd8e828f016104c7565b98505060806105ee8e828f016104c7565b97505060a06105ff8e828f016104c7565b96505060c06106108e828f016104c7565b95505060e06106218e828f016104c7565b9450506101006106338e828f016104c7565b9350506101206106458e828f016104c7565b9250506101406106578e828f016104c7565b9150509295989b509295989b9093969950565b61067b610676826107a5565b610855565b82525050565b600061068c82610721565b610696818561072c565b93506106a68185602086016107d9565b6106af816108c2565b840191505092915050565b6106c3816107cf565b82525050565b60006106d5828461066a565b60208201915081905092915050565b600060208201905081810360008301526106fe8184610681565b905092915050565b600060208201905061071b60008301846106ba565b92915050565b600081519050919050565b600082825260208201905092915050565b6000610748826107cf565b9150610753836107cf565b9250827fffffffffffffffffffffffffffffffffffffffffffffffffffffffffffffffff038211156107885761078761085f565b5b828201905092915050565b600061079e826107af565b9050919050565b6000819050919050565b600073ffffffffffffffffffffffffffffffffffffffff82169050919050565b6000819050919050565b60005b838110156107f75780820151818401526020810190506107dc565b83811115610806576000848401525b50505050565b6000610817826107cf565b91507fffffffffffffffffffffffffffffffffffffffffffffffffffffffffffffffff82141561084a5761084961085f565b5b600182019050919050565b6000819050919050565b7f4e487b7100000000000000000000000000000000000000000000000000000000600052601160045260246000fd5b7f4e487b7100000000000000000000000000000000000000000000000000000000600052603260045260246000fd5b600080fd5b6000601f19601f8301169050919050565b6108dc81610793565b81146108e757600080fd5b50565b6108f3816107cf565b81146108fe57600080fd5b5056fea2646970667358221220b60e28de3dccfb85e581d496e71c57788dc9343937810492f38cf5478e9dd42064736f6c63430008070033",
  "immutableReferences": {},
  "source": "// SPDX-License-Identifier: MIT\n\npragma solidity ^0.8.0;\n\nimport \"./PlayerFCC.sol\";\n\ncontract MatchFCC is PlayerFCC {\n\n    mapping (address => uint256[]) private _address2Players;\n    \n    function addMatchPlayers(uint256 index1, \n                             uint256 index2,\n                             uint256 index3,\n                             uint256 index4,\n                             uint256 index5,\n                             uint256 index6,\n                             uint256 index7,\n                             uint256 index8,\n                             uint256 index9, \n                             uint256 index10,\n                             uint256 index11) external {\n        addMatchPlayer(index1);\n        addMatchPlayer(index2);\n        addMatchPlayer(index3);\n        addMatchPlayer(index4);\n        addMatchPlayer(index5);\n        addMatchPlayer(index6);\n        addMatchPlayer(index7);\n        addMatchPlayer(index8);\n        addMatchPlayer(index9);\n        addMatchPlayer(index10);\n        addMatchPlayer(index11);\n    }\n\n    function addMatchPlayer(uint256 index) private {\n        _address2Players[msg.sender].push(index);\n    }\n\n    function getMatchPoints() external view returns (uint256) {\n        return getMatchPoints(msg.sender);\n    }\n\n    function getMatchCost(address val) public view returns (uint256) {\n        uint256 totalCost = 0;\n        for(uint256 i = 0; i < 11; ++i)\n        {\n            totalCost += super.getCost(_address2Players[val][i]);\n        }\n        return totalCost;\n    }\n\n    function getMatchPoints(address val) public view returns (uint256) {\n        uint256 totalScore = 0;\n        for(uint256 i = 0; i < 11; ++i)\n        {\n            totalScore += super.getPoints(_address2Players[val][i]);\n        }\n        return totalScore;\n    }\n}\n\n",
  "sourcePath": "/Users/phanimukkamala/Documents/solidity/fcc-dapp/src/contracts/MatchFCC.sol",
  "compiler": {
    "name": "solc",
    "version": "0.8.7+commit.e28d00a7.Emscripten.clang"
  },
  "schemaVersion": "3.4.3",
  "updatedAt": "2021-10-12T01:05:36.551Z",
  "networkType": "ethereum",
  "devdoc": {
    "kind": "dev",
    "methods": {},
    "version": 1
  },
  "userdoc": {
    "kind": "user",
    "methods": {},
    "version": 1
  }
}