{
  "contractName": "MatchFCC",
  "abi": [
    {
      "inputs": [
        {
          "internalType": "uint256",
          "name": "playerIndex",
          "type": "uint256"
        }
      ],
      "name": "getCost",
      "outputs": [
        {
          "internalType": "uint256",
          "name": "",
          "type": "uint256"
        }
      ],
      "stateMutability": "view",
      "type": "function",
      "constant": true
    },
    {
      "inputs": [
        {
          "internalType": "uint256",
          "name": "index",
          "type": "uint256"
        }
      ],
      "name": "getPlayer",
      "outputs": [
        {
          "internalType": "string",
          "name": "",
          "type": "string"
        }
      ],
      "stateMutability": "view",
      "type": "function",
      "constant": true
    },
    {
      "inputs": [],
      "name": "getPlayerCount",
      "outputs": [
        {
          "internalType": "uint256",
          "name": "",
          "type": "uint256"
        }
      ],
      "stateMutability": "view",
      "type": "function",
      "constant": true
    },
    {
      "inputs": [
        {
          "internalType": "string",
          "name": "name",
          "type": "string"
        }
      ],
      "name": "getPlayerIndex",
      "outputs": [
        {
          "internalType": "uint256",
          "name": "",
          "type": "uint256"
        }
      ],
      "stateMutability": "view",
      "type": "function",
      "constant": true
    },
    {
      "inputs": [
        {
          "internalType": "uint256",
          "name": "playerIndex",
          "type": "uint256"
        },
        {
          "internalType": "uint256",
          "name": "val",
          "type": "uint256"
        }
      ],
      "name": "setPoints",
      "outputs": [],
      "stateMutability": "nonpayable",
      "type": "function"
    },
    {
      "inputs": [
        {
          "internalType": "uint256",
          "name": "index1",
          "type": "uint256"
        },
        {
          "internalType": "uint256",
          "name": "index2",
          "type": "uint256"
        },
        {
          "internalType": "uint256",
          "name": "index3",
          "type": "uint256"
        },
        {
          "internalType": "uint256",
          "name": "index4",
          "type": "uint256"
        },
        {
          "internalType": "uint256",
          "name": "index5",
          "type": "uint256"
        },
        {
          "internalType": "uint256",
          "name": "index6",
          "type": "uint256"
        },
        {
          "internalType": "uint256",
          "name": "index7",
          "type": "uint256"
        },
        {
          "internalType": "uint256",
          "name": "index8",
          "type": "uint256"
        },
        {
          "internalType": "uint256",
          "name": "index9",
          "type": "uint256"
        },
        {
          "internalType": "uint256",
          "name": "index10",
          "type": "uint256"
        },
        {
          "internalType": "uint256",
          "name": "index11",
          "type": "uint256"
        }
      ],
      "name": "addMatchPlayers",
      "outputs": [],
      "stateMutability": "nonpayable",
      "type": "function"
    },
    {
      "inputs": [
        {
          "internalType": "address",
          "name": "val",
          "type": "address"
        }
      ],
      "name": "getMatchCost",
      "outputs": [
        {
          "internalType": "uint256",
          "name": "",
          "type": "uint256"
        }
      ],
      "stateMutability": "view",
      "type": "function",
      "constant": true
    },
    {
      "inputs": [],
      "name": "getMatchPoints",
      "outputs": [
        {
          "internalType": "uint256",
          "name": "",
          "type": "uint256"
        }
      ],
      "stateMutability": "view",
      "type": "function",
      "constant": true
    },
    {
      "inputs": [
        {
          "internalType": "address",
          "name": "val",
          "type": "address"
        }
      ],
      "name": "getMatchPoints",
      "outputs": [
        {
          "internalType": "uint256",
          "name": "",
          "type": "uint256"
        }
      ],
      "stateMutability": "view",
      "type": "function",
      "constant": true
    }
  ],
  "bytecode": "0x6080604052604051806101000160405280620000566040518060400160405280600a81526020017f56697261744b6f686c69000000000000000000000000000000000000000000008152506200032a60201b60201c565b8152602001620000a16040518060400160405280600781526020017f4d5344686f6e69000000000000000000000000000000000000000000000000008152506200032a60201b60201c565b8152602001620000ec6040518060400160405280600c81526020017f48617264696b50616e64796100000000000000000000000000000000000000008152506200032a60201b60201c565b8152602001620001376040518060400160405280600c81526020017f476c656e6e4d617877656c6c00000000000000000000000000000000000000008152506200032a60201b60201c565b8152602001620001826040518060400160405280600381526020017f41424400000000000000000000000000000000000000000000000000000000008152506200032a60201b60201c565b8152602001620001cd6040518060400160405280600881526020017f506164696b6b616c0000000000000000000000000000000000000000000000008152506200032a60201b60201c565b8152602001620002186040518060400160405280600681526020017f43686168616c00000000000000000000000000000000000000000000000000008152506200032a60201b60201c565b8152602001620002636040518060400160405280600a81526020017f5374657665536d697468000000000000000000000000000000000000000000008152506200032a60201b60201c565b81525060009060086200027892919062000338565b50604051806101000160405280601460ff168152602001600a60ff168152602001600f60ff168152602001600c60ff168152602001600760ff168152602001600d60ff168152602001600e60ff168152602001600f60ff168152506001906008620002e59291906200038a565b506040518060400160405280600060ff168152602001600060ff16815250600290600262000315929190620003e1565b503480156200032357600080fd5b5062000476565b600060208201519050919050565b82805482825590600052602060002090810192821562000377579160200282015b828111156200037657825182559160200191906001019062000359565b5b50905062000386919062000438565b5090565b828054828255906000526020600020908101928215620003ce579160200282015b82811115620003cd578251829060ff16905591602001919060010190620003ab565b5b509050620003dd919062000457565b5090565b82805482825590600052602060002090810192821562000425579160200282015b8281111562000424578251829060ff1690559160200191906001019062000402565b5b50905062000434919062000457565b5090565b5b808211156200045357600081600090555060010162000439565b5090565b5b808211156200047257600081600090555060010162000458565b5090565b610c3f80620004866000396000f3fe608060405234801561001057600080fd5b50600436106100935760003560e01c80637aa85528116100665780637aa8552814610132578063876b71c31461014e57806392e47f511461017e578063c2e52206146101ae578063e55ae4e8146101cc57610093565b8063307bde321461009857806351a45a76146100b65780635a4dd47d146100e657806376e8864914610116575b600080fd5b6100a06101fc565b6040516100ad9190610911565b60405180910390f35b6100d060048036038101906100cb919061065b565b61020c565b6040516100dd9190610911565b60405180910390f35b61010060048036038101906100fb91906106d1565b6102ab565b60405161010d9190610911565b60405180910390f35b610130600480360381019061012b919061073e565b6102d3565b005b61014c600480360381019061014791906106fe565b610343565b005b61016860048036038101906101639190610688565b61036a565b6040516101759190610911565b60405180910390f35b6101986004803603810190610193919061065b565b610384565b6040516101a59190610911565b60405180910390f35b6101b6610423565b6040516101c39190610911565b60405180910390f35b6101e660048036038101906101e191906106d1565b61042f565b6040516101f391906108cf565b60405180910390f35b60006102073361020c565b905090565b6000806000905060005b600b8110156102a157610283600360008673ffffffffffffffffffffffffffffffffffffffff1673ffffffffffffffffffffffffffffffffffffffff168152602001908152602001600020828154811061027357610272610b2f565b5b9060005260206000200154610476565b8261028e919061099e565b91508061029a90610aad565b9050610216565b5080915050919050565b6000600182815481106102c1576102c0610b2f565b5b90600052602060002001549050919050565b6102dc8b61049e565b6102e58a61049e565b6102ee8961049e565b6102f78861049e565b6103008761049e565b6103098661049e565b6103128561049e565b61031b8461049e565b6103248361049e565b61032d8261049e565b6103368161049e565b5050505050505050505050565b806002838154811061035857610357610b2f565b5b90600052602060002001819055505050565b600061037d61037883610507565b610515565b9050919050565b6000806000905060005b600b811015610419576103fb600360008673ffffffffffffffffffffffffffffffffffffffff1673ffffffffffffffffffffffffffffffffffffffff16815260200190815260200160002082815481106103eb576103ea610b2f565b5b90600052602060002001546102ab565b82610406919061099e565b91508061041290610aad565b905061038e565b5080915050919050565b60008080549050905090565b60606000828154811061044557610444610b2f565b5b906000526020600020015460405160200161046091906108b4565b6040516020818303038152906040529050919050565b60006002828154811061048c5761048b610b2f565b5b90600052602060002001549050919050565b600360003373ffffffffffffffffffffffffffffffffffffffff1673ffffffffffffffffffffffffffffffffffffffff16815260200190815260200160002081908060018154018082558091505060019003906000526020600020016000909190919091505550565b600060208201519050919050565b600080600080549050905060006103e7905060005b82811015610571576000818154811061054657610545610b2f565b5b906000526020600020015485141561056057809150610571565b8061056a90610aad565b905061052a565b506103e78114156105b7576040517f08c379a00000000000000000000000000000000000000000000000000000000081526004016105ae906108f1565b60405180910390fd5b8092505050919050565b60006105d46105cf84610951565b61092c565b9050828152602081018484840111156105f0576105ef610b92565b5b6105fb848285610a3a565b509392505050565b60008135905061061281610bdb565b92915050565b600082601f83011261062d5761062c610b8d565b5b813561063d8482602086016105c1565b91505092915050565b60008135905061065581610bf2565b92915050565b60006020828403121561067157610670610b9c565b5b600061067f84828501610603565b91505092915050565b60006020828403121561069e5761069d610b9c565b5b600082013567ffffffffffffffff8111156106bc576106bb610b97565b5b6106c884828501610618565b91505092915050565b6000602082840312156106e7576106e6610b9c565b5b60006106f584828501610646565b91505092915050565b6000806040838503121561071557610714610b9c565b5b600061072385828601610646565b925050602061073485828601610646565b9150509250929050565b60008060008060008060008060008060006101608c8e03121561076457610763610b9c565b5b60006107728e828f01610646565b9b505060206107838e828f01610646565b9a505060406107948e828f01610646565b99505060606107a58e828f01610646565b98505060806107b68e828f01610646565b97505060a06107c78e828f01610646565b96505060c06107d88e828f01610646565b95505060e06107e98e828f01610646565b9450506101006107fb8e828f01610646565b93505061012061080d8e828f01610646565b92505061014061081f8e828f01610646565b9150509295989b509295989b9093969950565b61084361083e82610a06565b610af6565b82525050565b600061085482610982565b61085e818561098d565b935061086e818560208601610a49565b61087781610ba1565b840191505092915050565b600061088f60128361098d565b915061089a82610bb2565b602082019050919050565b6108ae81610a30565b82525050565b60006108c08284610832565b60208201915081905092915050565b600060208201905081810360008301526108e98184610849565b905092915050565b6000602082019050818103600083015261090a81610882565b9050919050565b600060208201905061092660008301846108a5565b92915050565b6000610936610947565b90506109428282610a7c565b919050565b6000604051905090565b600067ffffffffffffffff82111561096c5761096b610b5e565b5b61097582610ba1565b9050602081019050919050565b600081519050919050565b600082825260208201905092915050565b60006109a982610a30565b91506109b483610a30565b9250827fffffffffffffffffffffffffffffffffffffffffffffffffffffffffffffffff038211156109e9576109e8610b00565b5b828201905092915050565b60006109ff82610a10565b9050919050565b6000819050919050565b600073ffffffffffffffffffffffffffffffffffffffff82169050919050565b6000819050919050565b82818337600083830152505050565b60005b83811015610a67578082015181840152602081019050610a4c565b83811115610a76576000848401525b50505050565b610a8582610ba1565b810181811067ffffffffffffffff82111715610aa457610aa3610b5e565b5b80604052505050565b6000610ab882610a30565b91507fffffffffffffffffffffffffffffffffffffffffffffffffffffffffffffffff821415610aeb57610aea610b00565b5b600182019050919050565b6000819050919050565b7f4e487b7100000000000000000000000000000000000000000000000000000000600052601160045260246000fd5b7f4e487b7100000000000000000000000000000000000000000000000000000000600052603260045260246000fd5b7f4e487b7100000000000000000000000000000000000000000000000000000000600052604160045260246000fd5b600080fd5b600080fd5b600080fd5b600080fd5b6000601f19601f8301169050919050565b7f6e6f7420612076616c696420706c617965720000000000000000000000000000600082015250565b610be4816109f4565b8114610bef57600080fd5b50565b610bfb81610a30565b8114610c0657600080fd5b5056fea26469706673582212206818bab9bd29ab176116d770e9cb3b28189d1489dab0f80ae8b0b286daeff70964736f6c63430008070033",
  "immutableReferences": {},
  "source": "// SPDX-License-Identifier: MIT\n\npragma solidity ^0.8.0;\n\nimport \"./PlayerFCC.sol\";\n\ncontract MatchFCC is PlayerFCC {\n\n    mapping (address => uint256[]) private _address2Players;\n    \n    function addMatchPlayers(uint256 index1, \n                             uint256 index2,\n                             uint256 index3,\n                             uint256 index4,\n                             uint256 index5,\n                             uint256 index6,\n                             uint256 index7,\n                             uint256 index8,\n                             uint256 index9, \n                             uint256 index10,\n                             uint256 index11) external {\n        addMatchPlayer(index1);\n        addMatchPlayer(index2);\n        addMatchPlayer(index3);\n        addMatchPlayer(index4);\n        addMatchPlayer(index5);\n        addMatchPlayer(index6);\n        addMatchPlayer(index7);\n        addMatchPlayer(index8);\n        addMatchPlayer(index9);\n        addMatchPlayer(index10);\n        addMatchPlayer(index11);\n    }\n\n    function addMatchPlayer(uint256 index) private {\n        _address2Players[msg.sender].push(index);\n    }\n\n    function getMatchPoints() external view returns (uint256) {\n        return getMatchPoints(msg.sender);\n    }\n\n    function getMatchCost(address val) public view returns (uint256) {\n        uint256 totalCost = 0;\n        for(uint256 i = 0; i < 11; ++i)\n        {\n            totalCost += super.getCost(_address2Players[val][i]);\n        }\n        return totalCost;\n    }\n\n    function getMatchPoints(address val) public view returns (uint256) {\n        uint256 totalScore = 0;\n        for(uint256 i = 0; i < 11; ++i)\n        {\n            totalScore += super.getPoints(_address2Players[val][i]);\n        }\n        return totalScore;\n    }\n}\n\n",
  "sourcePath": "/Users/phanimukkamala/Documents/solidity/fcc-dapp/src/contracts/MatchFCC.sol",
  "compiler": {
    "name": "solc",
    "version": "0.8.7+commit.e28d00a7.Emscripten.clang"
  },
  "schemaVersion": "3.4.3",
  "updatedAt": "2021-10-13T06:31:40.776Z",
  "networkType": "ethereum",
  "devdoc": {
    "kind": "dev",
    "methods": {},
    "version": 1
  },
  "userdoc": {
    "kind": "user",
    "methods": {},
    "version": 1
  }
}