{
  "contractName": "MatchFCC",
  "abi": [
    {
      "inputs": [],
      "stateMutability": "nonpayable",
      "type": "constructor"
    },
    {
      "inputs": [
        {
          "internalType": "uint256",
          "name": "playerIndex",
          "type": "uint256"
        }
      ],
      "name": "getCost",
      "outputs": [
        {
          "internalType": "uint256",
          "name": "",
          "type": "uint256"
        }
      ],
      "stateMutability": "view",
      "type": "function"
    },
    {
      "inputs": [
        {
          "internalType": "uint256",
          "name": "index",
          "type": "uint256"
        }
      ],
      "name": "getPlayer",
      "outputs": [
        {
          "internalType": "string",
          "name": "",
          "type": "string"
        }
      ],
      "stateMutability": "view",
      "type": "function"
    },
    {
      "inputs": [],
      "name": "getPlayerCount",
      "outputs": [
        {
          "internalType": "uint256",
          "name": "",
          "type": "uint256"
        }
      ],
      "stateMutability": "view",
      "type": "function"
    },
    {
      "inputs": [
        {
          "internalType": "string",
          "name": "name",
          "type": "string"
        }
      ],
      "name": "getPlayerIndex",
      "outputs": [
        {
          "internalType": "uint256",
          "name": "",
          "type": "uint256"
        }
      ],
      "stateMutability": "view",
      "type": "function"
    },
    {
      "inputs": [
        {
          "internalType": "uint256",
          "name": "playerIndex",
          "type": "uint256"
        }
      ],
      "name": "getPoints",
      "outputs": [
        {
          "internalType": "uint256",
          "name": "",
          "type": "uint256"
        }
      ],
      "stateMutability": "view",
      "type": "function"
    },
    {
      "inputs": [
        {
          "internalType": "uint256",
          "name": "playerIndex",
          "type": "uint256"
        },
        {
          "internalType": "uint256",
          "name": "val",
          "type": "uint256"
        }
      ],
      "name": "setPoints",
      "outputs": [],
      "stateMutability": "nonpayable",
      "type": "function"
    },
    {
      "inputs": [],
      "name": "getBlockNumber",
      "outputs": [
        {
          "internalType": "uint256",
          "name": "",
          "type": "uint256"
        }
      ],
      "stateMutability": "view",
      "type": "function"
    },
    {
      "inputs": [
        {
          "internalType": "string",
          "name": "val",
          "type": "string"
        }
      ],
      "name": "addMatchPlayers",
      "outputs": [],
      "stateMutability": "nonpayable",
      "type": "function"
    },
    {
      "inputs": [],
      "name": "getMatchPlayers",
      "outputs": [
        {
          "internalType": "string",
          "name": "",
          "type": "string"
        }
      ],
      "stateMutability": "view",
      "type": "function"
    },
    {
      "inputs": [
        {
          "internalType": "address",
          "name": "val",
          "type": "address"
        }
      ],
      "name": "getMatchPlayersArray",
      "outputs": [
        {
          "internalType": "uint256[11]",
          "name": "",
          "type": "uint256[11]"
        }
      ],
      "stateMutability": "view",
      "type": "function"
    },
    {
      "inputs": [
        {
          "internalType": "address",
          "name": "val",
          "type": "address"
        }
      ],
      "name": "getMatchCost",
      "outputs": [
        {
          "internalType": "uint256",
          "name": "",
          "type": "uint256"
        }
      ],
      "stateMutability": "view",
      "type": "function"
    },
    {
      "inputs": [],
      "name": "getMatchCost",
      "outputs": [
        {
          "internalType": "uint256",
          "name": "",
          "type": "uint256"
        }
      ],
      "stateMutability": "view",
      "type": "function"
    },
    {
      "inputs": [],
      "name": "getMatchPoints",
      "outputs": [
        {
          "internalType": "uint256",
          "name": "",
          "type": "uint256"
        }
      ],
      "stateMutability": "view",
      "type": "function"
    },
    {
      "inputs": [
        {
          "internalType": "address",
          "name": "val",
          "type": "address"
        }
      ],
      "name": "getMatchPoints",
      "outputs": [
        {
          "internalType": "uint256",
          "name": "",
          "type": "uint256"
        }
      ],
      "stateMutability": "view",
      "type": "function"
    }
  ],
  "bytecode": "0x6080604052604051806102c00160405280620000566040518060400160405280600a81526020017f56697261744b6f686c6900000000000000000000000000000000000000000000815250620008a060201b60201c565b8152602001620000a16040518060400160405280600781526020017f4d5344686f6e6900000000000000000000000000000000000000000000000000815250620008a060201b60201c565b8152602001620000ec6040518060400160405280600c81526020017f48617264696b50616e6479610000000000000000000000000000000000000000815250620008a060201b60201c565b8152602001620001376040518060400160405280600c81526020017f476c656e6e4d617877656c6c0000000000000000000000000000000000000000815250620008a060201b60201c565b8152602001620001826040518060400160405280600381526020017f4142440000000000000000000000000000000000000000000000000000000000815250620008a060201b60201c565b8152602001620001cd6040518060400160405280600881526020017f506164696b6b616c000000000000000000000000000000000000000000000000815250620008a060201b60201c565b8152602001620002186040518060400160405280600681526020017f43686168616c0000000000000000000000000000000000000000000000000000815250620008a060201b60201c565b8152602001620002636040518060400160405280600881526020017f5472697061746869000000000000000000000000000000000000000000000000815250620008a060201b60201c565b8152602001620002ae6040518060400160405280600b81526020017f536875626d616e47696c6c000000000000000000000000000000000000000000815250620008a060201b60201c565b8152602001620002f96040518060400160405280600b81526020017f5072697468766953686177000000000000000000000000000000000000000000815250620008a060201b60201c565b8152602001620003446040518060400160405280600681526020017f5761726e65720000000000000000000000000000000000000000000000000000815250620008a060201b60201c565b81526020016200038f6040518060400160405280600b81526020017f526f686974536861726d61000000000000000000000000000000000000000000815250620008a060201b60201c565b8152602001620003da6040518060400160405280600781526020017f506f6c6c61726400000000000000000000000000000000000000000000000000815250620008a060201b60201c565b8152602001620004256040518060400160405280600581526020017f427261766f000000000000000000000000000000000000000000000000000000815250620008a060201b60201c565b8152602001620004706040518060400160405280600881526020017f4865746d65796572000000000000000000000000000000000000000000000000815250620008a060201b60201c565b8152602001620004bb6040518060400160405280600b81526020017f5368726579617349796572000000000000000000000000000000000000000000815250620008a060201b60201c565b8152602001620005066040518060400160405280600481526020017f50616e7400000000000000000000000000000000000000000000000000000000815250620008a060201b60201c565b8152602001620005516040518060400160405280600581526020017f497368616e000000000000000000000000000000000000000000000000000000815250620008a060201b60201c565b81526020016200059c6040518060400160405280600a81526020017f53757279616b756d617200000000000000000000000000000000000000000000815250620008a060201b60201c565b8152602001620005e76040518060400160405280600d81526020017f5368617264756c5468616b757200000000000000000000000000000000000000815250620008a060201b60201c565b8152602001620006326040518060400160405280600c81526020017f44656570616b4368616861720000000000000000000000000000000000000000815250620008a060201b60201c565b81526020016200067d6040518060400160405280600a81526020017f5374657665536d69746800000000000000000000000000000000000000000000815250620008a060201b60201c565b815250600090601662000692929190620008ae565b50604051806102c00160405280600a60ff168152602001601460ff168152602001601560ff168152602001601660ff168152602001600a60ff168152602001600760ff168152602001600860ff168152602001600960ff168152602001600a60ff168152602001600860ff168152602001601260ff168152602001600860ff168152602001600860ff168152602001600c60ff168152602001600860ff168152602001600860ff168152602001600d60ff168152602001600860ff168152602001600860ff168152602001600860ff168152602001600860ff168152602001600860ff1681525060169060166200078b929190620008f3565b50604051806102c00160405280600060ff168152602001600060ff168152602001600060ff168152602001600060ff168152602001600060ff168152602001600060ff168152602001600060ff168152602001600060ff168152602001600060ff168152602001600060ff168152602001600060ff168152602001600060ff168152602001600060ff168152602001600060ff168152602001600060ff168152602001600060ff168152602001600060ff168152602001600060ff168152602001600060ff168152602001600060ff168152602001600060ff168152602001600060ff16815250602c90601662000884929190620008f3565b503480156200089257600080fd5b50436043819055506200097b565b600060208201519050919050565b8260168101928215620008e0579160200282015b82811115620008df578251825591602001919060010190620008c2565b5b509050620008ef91906200093d565b5090565b82601681019282156200092a579160200282015b8281111562000929578251829060ff1690559160200191906001019062000907565b5b5090506200093991906200095c565b5090565b5b80821115620009585760008160009055506001016200093e565b5090565b5b80821115620009775760008160009055506001016200095d565b5090565b610e85806200098b6000396000f3fe608060405234801561001057600080fd5b50600436106100ea5760003560e01c8063876b71c31161008c578063a967eee411610066578063a967eee414610271578063c2e52206146102a1578063d3371ef3146102bf578063e55ae4e8146102dd576100ea565b8063876b71c3146101f557806392e47f511461022557806393b8f5de14610255576100ea565b806342cbb15c116100c857806342cbb15c1461015b57806351a45a76146101795780635a4dd47d146101a95780637aa85528146101d9576100ea565b8063233e8d5d146100ef578063307bde321461010d57806340db234b1461012b575b600080fd5b6100f761030d565b6040516101049190610a4d565b60405180910390f35b610115610373565b6040516101229190610a8f565b60405180910390f35b61014560048036038101906101409190610833565b610383565b6040516101529190610a31565b60405180910390f35b6101636104db565b6040516101709190610a8f565b60405180910390f35b610193600480360381019061018e9190610833565b6104e5565b6040516101a09190610a8f565b60405180910390f35b6101c360048036038101906101be91906108a9565b610549565b6040516101d09190610a8f565b60405180910390f35b6101f360048036038101906101ee91906108d6565b610568565b005b61020f600480360381019061020a9190610860565b610586565b60405161021c9190610a8f565b60405180910390f35b61023f600480360381019061023a9190610833565b6105a0565b60405161024c9190610a8f565b60405180910390f35b61026f600480360381019061026a9190610860565b610604565b005b61028b600480360381019061028691906108a9565b610653565b6040516102989190610a8f565b60405180910390f35b6102a9610672565b6040516102b69190610a8f565b60405180910390f35b6102c761067b565b6040516102d49190610a8f565b60405180910390f35b6102f760048036038101906102f291906108a9565b61068b565b6040516103049190610a4d565b60405180910390f35b6060604260003373ffffffffffffffffffffffffffffffffffffffff1673ffffffffffffffffffffffffffffffffffffffff1681526020019081526020016000205460405160200161035f9190610a16565b604051602081830303815290604052905090565b600061037e336104e5565b905090565b61038b610776565b6000604260008473ffffffffffffffffffffffffffffffffffffffff1673ffffffffffffffffffffffffffffffffffffffff1681526020019081526020016000205490506103d7610776565b60008060005b602060ff168110156104ce5760008582602081106103fe576103fd610d75565b5b1a60f81b60f81c905060308160ff161015801561041f575060398160ff1611155b15610452576030816104319190610bf9565b60ff16600a856104419190610b9f565b61044b9190610b49565b93506104bc565b603b8160ff16141561048157838584600b811061047257610471610d75565b5b602002018181525050506104ce565b603a8160ff1614156104bb578385848061049a90610cf3565b9550600b81106104ad576104ac610d75565b5b602002018181525050600093505b5b50806104c790610cf3565b90506103dd565b5082945050505050919050565b6000604354905090565b6000806104f183610383565b90506000805b600b81101561053e576105208382600b811061051657610515610d75565b5b6020020151610653565b8261052b9190610b49565b91508061053790610cf3565b90506104f7565b508092505050919050565b60006016826016811061055f5761055e610d75565b5b01549050919050565b80602c836016811061057d5761057c610d75565b5b01819055505050565b6000610599610594836106c9565b6106d7565b9050919050565b6000806105ac83610383565b90506000805b600b8110156105f9576105db8382600b81106105d1576105d0610d75565b5b6020020151610549565b826105e69190610b49565b9150806105f290610cf3565b90506105b2565b508092505050919050565b61060d816106c9565b604260003373ffffffffffffffffffffffffffffffffffffffff1673ffffffffffffffffffffffffffffffffffffffff1681526020019081526020016000208190555050565b6000602c826016811061066957610668610d75565b5b01549050919050565b60006016905090565b6000610686336105a0565b905090565b6060600082601681106106a1576106a0610d75565b5b01546040516020016106b39190610a16565b6040516020818303038152906040529050919050565b600060208201519050919050565b6000806016905060006103e7905060005b82811015610726576000816016811061070457610703610d75565b5b015485141561071557809150610726565b8061071f90610cf3565b90506106e8565b506103e781141561076c576040517f08c379a000000000000000000000000000000000000000000000000000000000815260040161076390610a6f565b60405180910390fd5b8092505050919050565b604051806101600160405280600b90602082028036833780820191505090505090565b60006107ac6107a784610acf565b610aaa565b9050828152602081018484840111156107c8576107c7610dd8565b5b6107d3848285610c80565b509392505050565b6000813590506107ea81610e21565b92915050565b600082601f83011261080557610804610dd3565b5b8135610815848260208601610799565b91505092915050565b60008135905061082d81610e38565b92915050565b60006020828403121561084957610848610de2565b5b6000610857848285016107db565b91505092915050565b60006020828403121561087657610875610de2565b5b600082013567ffffffffffffffff81111561089457610893610ddd565b5b6108a0848285016107f0565b91505092915050565b6000602082840312156108bf576108be610de2565b5b60006108cd8482850161081e565b91505092915050565b600080604083850312156108ed576108ec610de2565b5b60006108fb8582860161081e565b925050602061090c8582860161081e565b9150509250929050565b600061092283836109f8565b60208301905092915050565b61093781610b0a565b6109418184610b2d565b925061094c82610b00565b8060005b8381101561097d5781516109648782610916565b965061096f83610b20565b925050600181019050610950565b505050505050565b61099661099182610c3f565b610d3c565b82525050565b60006109a782610b15565b6109b18185610b38565b93506109c1818560208601610c8f565b6109ca81610de7565b840191505092915050565b60006109e2601283610b38565b91506109ed82610df8565b602082019050919050565b610a0181610c69565b82525050565b610a1081610c69565b82525050565b6000610a228284610985565b60208201915081905092915050565b600061016082019050610a47600083018461092e565b92915050565b60006020820190508181036000830152610a67818461099c565b905092915050565b60006020820190508181036000830152610a88816109d5565b9050919050565b6000602082019050610aa46000830184610a07565b92915050565b6000610ab4610ac5565b9050610ac08282610cc2565b919050565b6000604051905090565b600067ffffffffffffffff821115610aea57610ae9610da4565b5b610af382610de7565b9050602081019050919050565b6000819050919050565b6000600b9050919050565b600081519050919050565b6000602082019050919050565b600081905092915050565b600082825260208201905092915050565b6000610b5482610c69565b9150610b5f83610c69565b9250827fffffffffffffffffffffffffffffffffffffffffffffffffffffffffffffffff03821115610b9457610b93610d46565b5b828201905092915050565b6000610baa82610c69565b9150610bb583610c69565b9250817fffffffffffffffffffffffffffffffffffffffffffffffffffffffffffffffff0483118215151615610bee57610bed610d46565b5b828202905092915050565b6000610c0482610c73565b9150610c0f83610c73565b925082821015610c2257610c21610d46565b5b828203905092915050565b6000610c3882610c49565b9050919050565b6000819050919050565b600073ffffffffffffffffffffffffffffffffffffffff82169050919050565b6000819050919050565b600060ff82169050919050565b82818337600083830152505050565b60005b83811015610cad578082015181840152602081019050610c92565b83811115610cbc576000848401525b50505050565b610ccb82610de7565b810181811067ffffffffffffffff82111715610cea57610ce9610da4565b5b80604052505050565b6000610cfe82610c69565b91507fffffffffffffffffffffffffffffffffffffffffffffffffffffffffffffffff821415610d3157610d30610d46565b5b600182019050919050565b6000819050919050565b7f4e487b7100000000000000000000000000000000000000000000000000000000600052601160045260246000fd5b7f4e487b7100000000000000000000000000000000000000000000000000000000600052603260045260246000fd5b7f4e487b7100000000000000000000000000000000000000000000000000000000600052604160045260246000fd5b600080fd5b600080fd5b600080fd5b600080fd5b6000601f19601f8301169050919050565b7f6e6f7420612076616c696420706c617965720000000000000000000000000000600082015250565b610e2a81610c2d565b8114610e3557600080fd5b50565b610e4181610c69565b8114610e4c57600080fd5b5056fea2646970667358221220195325c23567ade67abd04bc8e212074da917b2930d0fde48121a3b2b4b88bed64736f6c63430008070033",
  "immutableReferences": {},
  "source": "// SPDX-License-Identifier: MIT\n\npragma solidity ^0.8.0;\n\nimport \"./PlayerFCC.sol\";\n\ncontract MatchFCC is PlayerFCC {\n\n    mapping (address => bytes32) private _address2Players;\n    uint256 private _blockNumber;\n\n    constructor() {\n        _blockNumber = block.number;\n    }\n\n    function getBlockNumber() external view returns (uint256) {\n        return _blockNumber;\n    }\n\n    function addMatchPlayers(string memory val) external    {\n        _address2Players[msg.sender] = stringToBytes32(val);\n    }\n\n    function getMatchPlayers() external view returns (string memory) {\n        return string(abi.encodePacked(_address2Players[msg.sender]));\n    }\n\n    function getMatchPoints() external view returns (uint256) {\n        return getMatchPoints(msg.sender);\n    }\n\n    function getMatchCost() external view returns (uint256) {\n        return getMatchCost(msg.sender);\n    }\n\n    function getMatchPlayersArray(address val) public view returns (uint256[11] memory) {\n        bytes32 playerStr = _address2Players[val];\n        uint256[11] memory result;\n        uint256 currentIndex = 0;\n        uint256 currentPos = 0;\n        for(uint256 i = 0; i < playerStr.length; ++i)\n        {\n            uint8 c = uint8(playerStr[i]);\n            if (c >= 48 && c <= 57) {\n                currentIndex = currentIndex * 10 + (c - 48);\n            }        \n            else if(c == 59) {\n                result[currentPos] = currentIndex;\n                break;\n            }\n            else if(c == 58) {\n                result[currentPos++] = currentIndex;\n                currentIndex = 0;\n            }\n        }\n        return result;\n    }\n\n    function getMatchCost(address val) public view returns (uint256) {\n        uint256[11] memory players = getMatchPlayersArray(val);\n        uint256 totalCost = 0;\n        for(uint256 i = 0; i < 11; ++i)\n        {\n            totalCost += super.getCost(players[i]);\n        }\n        return totalCost;\n    }\n\n    function getMatchPoints(address val) public view returns (uint256) {\n        uint256[11] memory players = getMatchPlayersArray(val);\n        uint256 totalScore = 0;\n        for(uint256 i = 0; i < 11; ++i)\n        {\n            totalScore += super.getPoints(players[i]);\n        }\n        return totalScore;\n    }\n}\n\n",
  "sourcePath": "/home/ec2-user/github/nftlaunchpad-dapp/src/contracts/MatchFCC.sol",
  "compiler": {
    "name": "solc",
    "version": "0.8.7+commit.e28d00a7.Emscripten.clang"
  },
  "schemaVersion": "3.4.3",
  "updatedAt": "2022-01-21T01:17:23.224Z",
  "devdoc": {
    "kind": "dev",
    "methods": {},
    "version": 1
  },
  "userdoc": {
    "kind": "user",
    "methods": {},
    "version": 1
  }
}