{
  "contractName": "MetaBoredMice",
  "abi": [
    {
      "inputs": [],
      "stateMutability": "nonpayable",
      "type": "constructor"
    },
    {
      "anonymous": false,
      "inputs": [
        {
          "indexed": true,
          "internalType": "address",
          "name": "owner",
          "type": "address"
        },
        {
          "indexed": true,
          "internalType": "address",
          "name": "approved",
          "type": "address"
        },
        {
          "indexed": true,
          "internalType": "uint256",
          "name": "tokenId",
          "type": "uint256"
        }
      ],
      "name": "Approval",
      "type": "event"
    },
    {
      "anonymous": false,
      "inputs": [
        {
          "indexed": true,
          "internalType": "address",
          "name": "owner",
          "type": "address"
        },
        {
          "indexed": true,
          "internalType": "address",
          "name": "operator",
          "type": "address"
        },
        {
          "indexed": false,
          "internalType": "bool",
          "name": "approved",
          "type": "bool"
        }
      ],
      "name": "ApprovalForAll",
      "type": "event"
    },
    {
      "anonymous": false,
      "inputs": [
        {
          "indexed": true,
          "internalType": "address",
          "name": "previousOwner",
          "type": "address"
        },
        {
          "indexed": true,
          "internalType": "address",
          "name": "newOwner",
          "type": "address"
        }
      ],
      "name": "OwnershipTransferred",
      "type": "event"
    },
    {
      "anonymous": false,
      "inputs": [
        {
          "indexed": true,
          "internalType": "address",
          "name": "from",
          "type": "address"
        },
        {
          "indexed": true,
          "internalType": "address",
          "name": "to",
          "type": "address"
        },
        {
          "indexed": true,
          "internalType": "uint256",
          "name": "tokenId",
          "type": "uint256"
        }
      ],
      "name": "Transfer",
      "type": "event"
    },
    {
      "inputs": [
        {
          "internalType": "address",
          "name": "to",
          "type": "address"
        },
        {
          "internalType": "uint256",
          "name": "tokenId",
          "type": "uint256"
        }
      ],
      "name": "approve",
      "outputs": [],
      "stateMutability": "nonpayable",
      "type": "function"
    },
    {
      "inputs": [
        {
          "internalType": "address",
          "name": "owner",
          "type": "address"
        }
      ],
      "name": "balanceOf",
      "outputs": [
        {
          "internalType": "uint256",
          "name": "",
          "type": "uint256"
        }
      ],
      "stateMutability": "view",
      "type": "function"
    },
    {
      "inputs": [
        {
          "internalType": "uint256",
          "name": "tokenId",
          "type": "uint256"
        }
      ],
      "name": "getApproved",
      "outputs": [
        {
          "internalType": "address",
          "name": "",
          "type": "address"
        }
      ],
      "stateMutability": "view",
      "type": "function"
    },
    {
      "inputs": [
        {
          "internalType": "address",
          "name": "owner",
          "type": "address"
        },
        {
          "internalType": "address",
          "name": "operator",
          "type": "address"
        }
      ],
      "name": "isApprovedForAll",
      "outputs": [
        {
          "internalType": "bool",
          "name": "",
          "type": "bool"
        }
      ],
      "stateMutability": "view",
      "type": "function"
    },
    {
      "inputs": [],
      "name": "name",
      "outputs": [
        {
          "internalType": "string",
          "name": "",
          "type": "string"
        }
      ],
      "stateMutability": "view",
      "type": "function"
    },
    {
      "inputs": [],
      "name": "owner",
      "outputs": [
        {
          "internalType": "address",
          "name": "",
          "type": "address"
        }
      ],
      "stateMutability": "view",
      "type": "function"
    },
    {
      "inputs": [
        {
          "internalType": "uint256",
          "name": "tokenId",
          "type": "uint256"
        }
      ],
      "name": "ownerOf",
      "outputs": [
        {
          "internalType": "address",
          "name": "",
          "type": "address"
        }
      ],
      "stateMutability": "view",
      "type": "function"
    },
    {
      "inputs": [],
      "name": "renounceOwnership",
      "outputs": [],
      "stateMutability": "nonpayable",
      "type": "function"
    },
    {
      "inputs": [
        {
          "internalType": "address",
          "name": "from",
          "type": "address"
        },
        {
          "internalType": "address",
          "name": "to",
          "type": "address"
        },
        {
          "internalType": "uint256",
          "name": "tokenId",
          "type": "uint256"
        }
      ],
      "name": "safeTransferFrom",
      "outputs": [],
      "stateMutability": "nonpayable",
      "type": "function"
    },
    {
      "inputs": [
        {
          "internalType": "address",
          "name": "from",
          "type": "address"
        },
        {
          "internalType": "address",
          "name": "to",
          "type": "address"
        },
        {
          "internalType": "uint256",
          "name": "tokenId",
          "type": "uint256"
        },
        {
          "internalType": "bytes",
          "name": "_data",
          "type": "bytes"
        }
      ],
      "name": "safeTransferFrom",
      "outputs": [],
      "stateMutability": "nonpayable",
      "type": "function"
    },
    {
      "inputs": [
        {
          "internalType": "address",
          "name": "operator",
          "type": "address"
        },
        {
          "internalType": "bool",
          "name": "approved",
          "type": "bool"
        }
      ],
      "name": "setApprovalForAll",
      "outputs": [],
      "stateMutability": "nonpayable",
      "type": "function"
    },
    {
      "inputs": [
        {
          "internalType": "bytes4",
          "name": "interfaceId",
          "type": "bytes4"
        }
      ],
      "name": "supportsInterface",
      "outputs": [
        {
          "internalType": "bool",
          "name": "",
          "type": "bool"
        }
      ],
      "stateMutability": "view",
      "type": "function"
    },
    {
      "inputs": [],
      "name": "symbol",
      "outputs": [
        {
          "internalType": "string",
          "name": "",
          "type": "string"
        }
      ],
      "stateMutability": "view",
      "type": "function"
    },
    {
      "inputs": [
        {
          "internalType": "uint256",
          "name": "index",
          "type": "uint256"
        }
      ],
      "name": "tokenByIndex",
      "outputs": [
        {
          "internalType": "uint256",
          "name": "",
          "type": "uint256"
        }
      ],
      "stateMutability": "view",
      "type": "function"
    },
    {
      "inputs": [
        {
          "internalType": "address",
          "name": "owner",
          "type": "address"
        },
        {
          "internalType": "uint256",
          "name": "index",
          "type": "uint256"
        }
      ],
      "name": "tokenOfOwnerByIndex",
      "outputs": [
        {
          "internalType": "uint256",
          "name": "",
          "type": "uint256"
        }
      ],
      "stateMutability": "view",
      "type": "function"
    },
    {
      "inputs": [],
      "name": "totalSupply",
      "outputs": [
        {
          "internalType": "uint256",
          "name": "",
          "type": "uint256"
        }
      ],
      "stateMutability": "view",
      "type": "function"
    },
    {
      "inputs": [
        {
          "internalType": "address",
          "name": "from",
          "type": "address"
        },
        {
          "internalType": "address",
          "name": "to",
          "type": "address"
        },
        {
          "internalType": "uint256",
          "name": "tokenId",
          "type": "uint256"
        }
      ],
      "name": "transferFrom",
      "outputs": [],
      "stateMutability": "nonpayable",
      "type": "function"
    },
    {
      "inputs": [
        {
          "internalType": "address",
          "name": "newOwner",
          "type": "address"
        }
      ],
      "name": "transferOwnership",
      "outputs": [],
      "stateMutability": "nonpayable",
      "type": "function"
    },
    {
      "inputs": [
        {
          "internalType": "uint256",
          "name": "tokenId",
          "type": "uint256"
        }
      ],
      "name": "tokenURI",
      "outputs": [
        {
          "internalType": "string",
          "name": "",
          "type": "string"
        }
      ],
      "stateMutability": "view",
      "type": "function"
    },
    {
      "inputs": [
        {
          "internalType": "uint256",
          "name": "tokenId",
          "type": "uint256"
        }
      ],
      "name": "mintPlayer",
      "outputs": [],
      "stateMutability": "nonpayable",
      "type": "function"
    }
  ],
  "bytecode": "0x60806040526040518061048001604052806040518060400160405280600581526020017f636f72616c00000000000000000000000000000000000000000000000000000081525081526020016040518060400160405280600a81526020017f6c69676874636f72616c0000000000000000000000000000000000000000000081525081526020016040518060400160405280600a81526020017f6c69676874677265656e0000000000000000000000000000000000000000000081525081526020016040518060400160405280600e81526020017f6c69676874737465656c626c756500000000000000000000000000000000000081525081526020016040518060400160405280600581526020017f6c696e656e00000000000000000000000000000000000000000000000000000081525081526020016040518060400160405280600b81526020017f6e6176616a6f776869746500000000000000000000000000000000000000000081525081526020016040518060400160405280600d81526020017f70616c65676f6c64656e726f640000000000000000000000000000000000000081525081526020016040518060400160405280600981526020017f74757271756f697365000000000000000000000000000000000000000000000081525081526020016040518060400160405280600581526020017f626569676500000000000000000000000000000000000000000000000000000081525081526020016040518060400160405280600e81526020017f636f726e666c6f776572626c756500000000000000000000000000000000000081525081526020016040518060400160405280600a81526020017f6461726b73616c6d6f6e0000000000000000000000000000000000000000000081525081526020016040518060400160405280600b81526020017f64656570736b79626c756500000000000000000000000000000000000000000081525081526020016040518060400160405280600881526020017f686f6e657964657700000000000000000000000000000000000000000000000081525081526020016040518060400160405280600781526020017f686f7470696e6b0000000000000000000000000000000000000000000000000081525081526020016040518060400160405280600581526020017f69766f727900000000000000000000000000000000000000000000000000000081525081526020016040518060400160405280600981526020017f6c696768746379616e000000000000000000000000000000000000000000000081525081526020016040518060400160405280600b81526020017f6c6967687479656c6c6f7700000000000000000000000000000000000000000081525081526020016040518060400160405280600981526020017f706561636870756666000000000000000000000000000000000000000000000081525081526020016040518060400160405280600981526020017f70616c65677265656e000000000000000000000000000000000000000000000081525081526020016040518060400160405280600681526020017f626973717565000000000000000000000000000000000000000000000000000081525081526020016040518060400160405280600881526020017f6461726b6379616e00000000000000000000000000000000000000000000000081525081526020016040518060400160405280600c81526020017f6461726b736561677265656e000000000000000000000000000000000000000081525081526020016040518060400160405280600d81526020017f6461726b74757271756f6973650000000000000000000000000000000000000081525081526020016040518060400160405280600f81526020017f6d656469756d74757271756f697365000000000000000000000000000000000081525081526020016040518060400160405280600a81526020017f646f64676572626c75650000000000000000000000000000000000000000000081525081526020016040518060400160405280600d81526020017f6c69676874736561677265656e0000000000000000000000000000000000000081525081526020016040518060400160405280600b81526020017f6c6967687473616c6d6f6e00000000000000000000000000000000000000000081525081526020016040518060400160405280600581526020017f6f6c69766500000000000000000000000000000000000000000000000000000081525081526020016040518060400160405280600981526020017f737465656c626c7565000000000000000000000000000000000000000000000081525081526020016040518060400160405280600781526020017f6372696d736f6e0000000000000000000000000000000000000000000000000081525081526020016040518060400160405280600481526020017f617175610000000000000000000000000000000000000000000000000000000081525081526020016040518060400160405280600a81526020017f617175616d6172696e650000000000000000000000000000000000000000000081525081526020016040518060400160405280600981526020017f6f72616e6765726564000000000000000000000000000000000000000000000081525081526020016040518060400160405280600481526020017f706c756d0000000000000000000000000000000000000000000000000000000081525081526020016040518060400160405280600481526020017f676f6c640000000000000000000000000000000000000000000000000000000081525081526020016040518060400160405280600681526020017f73696c7665720000000000000000000000000000000000000000000000000000815250815250600c9060246200086c92919062000a17565b503480156200087a57600080fd5b506040518060400160405280600d81526020017f4d657461426f7265644d696365000000000000000000000000000000000000008152506040518060400160405280600d81526020017f4d455441424f5245444d494345000000000000000000000000000000000000008152508160009080519060200190620008ff92919062000a7e565b5080600190805190602001906200091892919062000a7e565b5050506001600a8190555062000943620009376200094960201b60201c565b6200095160201b60201c565b62000c01565b600033905090565b6000600b60009054906101000a900473ffffffffffffffffffffffffffffffffffffffff16905081600b60006101000a81548173ffffffffffffffffffffffffffffffffffffffff021916908373ffffffffffffffffffffffffffffffffffffffff1602179055508173ffffffffffffffffffffffffffffffffffffffff168173ffffffffffffffffffffffffffffffffffffffff167f8be0079c531659141344cd1fd0a4f28419497f9722a3daafe3b4186f6b6457e060405160405180910390a35050565b82805482825590600052602060002090810192821562000a6b579160200282015b8281111562000a6a57825182908051906020019062000a5992919062000a7e565b509160200191906001019062000a38565b5b50905062000a7a919062000b0f565b5090565b82805462000a8c9062000b9c565b90600052602060002090601f01602090048101928262000ab0576000855562000afc565b82601f1062000acb57805160ff191683800117855562000afc565b8280016001018555821562000afc579182015b8281111562000afb57825182559160200191906001019062000ade565b5b50905062000b0b919062000b37565b5090565b5b8082111562000b33576000818162000b29919062000b56565b5060010162000b10565b5090565b5b8082111562000b5257600081600090555060010162000b38565b5090565b50805462000b649062000b9c565b6000825580601f1062000b78575062000b99565b601f01602090049060005260206000209081019062000b98919062000b37565b5b50565b6000600282049050600182168062000bb557607f821691505b6020821081141562000bcc5762000bcb62000bd2565b5b50919050565b7f4e487b7100000000000000000000000000000000000000000000000000000000600052602260045260246000fd5b6147f68062000c116000396000f3fe608060405234801561001057600080fd5b506004361061012c5760003560e01c80636352211e116100ad578063a22cb46511610071578063a22cb46514610343578063b88d4fde1461035f578063c87b56dd1461037b578063e985e9c5146103ab578063f2fde38b146103db5761012c565b80636352211e1461029d57806370a08231146102cd578063715018a6146102fd5780638da5cb5b1461030757806395d89b41146103255761012c565b806323b872dd116100f457806323b872dd146101e95780632f745c59146102055780633de7439f1461023557806342842e0e146102515780634f6ccce71461026d5761012c565b806301ffc9a71461013157806306fdde0314610161578063081812fc1461017f578063095ea7b3146101af57806318160ddd146101cb575b600080fd5b61014b600480360381019061014691906128d8565b6103f7565b6040516101589190613339565b60405180910390f35b610169610471565b6040516101769190613354565b60405180910390f35b61019960048036038101906101949190612932565b610503565b6040516101a691906132d2565b60405180910390f35b6101c960048036038101906101c49190612898565b610588565b005b6101d36106a0565b6040516101e091906135d6565b60405180910390f35b61020360048036038101906101fe9190612782565b6106ad565b005b61021f600480360381019061021a9190612898565b61070d565b60405161022c91906135d6565b60405180910390f35b61024f600480360381019061024a9190612932565b6107b2565b005b61026b60048036038101906102669190612782565b6108e7565b005b61028760048036038101906102829190612932565b610907565b60405161029491906135d6565b60405180910390f35b6102b760048036038101906102b29190612932565b610978565b6040516102c491906132d2565b60405180910390f35b6102e760048036038101906102e29190612715565b610a2a565b6040516102f491906135d6565b60405180910390f35b610305610ae2565b005b61030f610b6a565b60405161031c91906132d2565b60405180910390f35b61032d610b94565b60405161033a9190613354565b60405180910390f35b61035d60048036038101906103589190612858565b610c26565b005b610379600480360381019061037491906127d5565b610da7565b005b61039560048036038101906103909190612932565b610e09565b6040516103a29190613354565b60405180910390f35b6103c560048036038101906103c09190612742565b610ffa565b6040516103d29190613339565b60405180910390f35b6103f560048036038101906103f09190612715565b61108e565b005b60007f780e9d63000000000000000000000000000000000000000000000000000000007bffffffffffffffffffffffffffffffffffffffffffffffffffffffff1916827bffffffffffffffffffffffffffffffffffffffffffffffffffffffff1916148061046a575061046982611186565b5b9050919050565b6060600080546104809061386a565b80601f01602080910402602001604051908101604052809291908181526020018280546104ac9061386a565b80156104f95780601f106104ce576101008083540402835291602001916104f9565b820191906000526020600020905b8154815290600101906020018083116104dc57829003601f168201915b5050505050905090565b600061050e82611268565b61054d576040517f08c379a0000000000000000000000000000000000000000000000000000000008152600401610544906134d6565b60405180910390fd5b6004600083815260200190815260200160002060009054906101000a900473ffffffffffffffffffffffffffffffffffffffff169050919050565b600061059382610978565b90508073ffffffffffffffffffffffffffffffffffffffff168373ffffffffffffffffffffffffffffffffffffffff161415610604576040517f08c379a00000000000000000000000000000000000000000000000000000000081526004016105fb90613556565b60405180910390fd5b8073ffffffffffffffffffffffffffffffffffffffff166106236112d4565b73ffffffffffffffffffffffffffffffffffffffff16148061065257506106518161064c6112d4565b610ffa565b5b610691576040517f08c379a000000000000000000000000000000000000000000000000000000000815260040161068890613456565b60405180910390fd5b61069b83836112dc565b505050565b6000600880549050905090565b6106be6106b86112d4565b82611395565b6106fd576040517f08c379a00000000000000000000000000000000000000000000000000000000081526004016106f490613576565b60405180910390fd5b610708838383611473565b505050565b600061071883610a2a565b8210610759576040517f08c379a000000000000000000000000000000000000000000000000000000000815260040161075090613376565b60405180910390fd5b600660008473ffffffffffffffffffffffffffffffffffffffff1673ffffffffffffffffffffffffffffffffffffffff168152602001908152602001600020600083815260200190815260200160002054905092915050565b6002600a5414156107f8576040517f08c379a00000000000000000000000000000000000000000000000000000000081526004016107ef906135b6565b60405180910390fd5b6002600a819055506108086112d4565b73ffffffffffffffffffffffffffffffffffffffff16610826610b6a565b73ffffffffffffffffffffffffffffffffffffffff161461087c576040517f08c379a0000000000000000000000000000000000000000000000000000000008152600401610873906134f6565b60405180910390fd5b60008111801561088c5750608181105b6108cb576040517f08c379a00000000000000000000000000000000000000000000000000000000081526004016108c290613516565b60405180910390fd5b6108dc6108d6610b6a565b826116cf565b6001600a8190555050565b61090283838360405180602001604052806000815250610da7565b505050565b60006109116106a0565b8210610952576040517f08c379a000000000000000000000000000000000000000000000000000000000815260040161094990613596565b60405180910390fd5b6008828154811061096657610965613a03565b5b90600052602060002001549050919050565b6000806002600084815260200190815260200160002060009054906101000a900473ffffffffffffffffffffffffffffffffffffffff169050600073ffffffffffffffffffffffffffffffffffffffff168173ffffffffffffffffffffffffffffffffffffffff161415610a21576040517f08c379a0000000000000000000000000000000000000000000000000000000008152600401610a1890613496565b60405180910390fd5b80915050919050565b60008073ffffffffffffffffffffffffffffffffffffffff168273ffffffffffffffffffffffffffffffffffffffff161415610a9b576040517f08c379a0000000000000000000000000000000000000000000000000000000008152600401610a9290613476565b60405180910390fd5b600360008373ffffffffffffffffffffffffffffffffffffffff1673ffffffffffffffffffffffffffffffffffffffff168152602001908152602001600020549050919050565b610aea6112d4565b73ffffffffffffffffffffffffffffffffffffffff16610b08610b6a565b73ffffffffffffffffffffffffffffffffffffffff1614610b5e576040517f08c379a0000000000000000000000000000000000000000000000000000000008152600401610b55906134f6565b60405180910390fd5b610b6860006116ed565b565b6000600b60009054906101000a900473ffffffffffffffffffffffffffffffffffffffff16905090565b606060018054610ba39061386a565b80601f0160208091040260200160405190810160405280929190818152602001828054610bcf9061386a565b8015610c1c5780601f10610bf157610100808354040283529160200191610c1c565b820191906000526020600020905b815481529060010190602001808311610bff57829003601f168201915b5050505050905090565b610c2e6112d4565b73ffffffffffffffffffffffffffffffffffffffff168273ffffffffffffffffffffffffffffffffffffffff161415610c9c576040517f08c379a0000000000000000000000000000000000000000000000000000000008152600401610c9390613416565b60405180910390fd5b8060056000610ca96112d4565b73ffffffffffffffffffffffffffffffffffffffff1673ffffffffffffffffffffffffffffffffffffffff16815260200190815260200160002060008473ffffffffffffffffffffffffffffffffffffffff1673ffffffffffffffffffffffffffffffffffffffff16815260200190815260200160002060006101000a81548160ff0219169083151502179055508173ffffffffffffffffffffffffffffffffffffffff16610d566112d4565b73ffffffffffffffffffffffffffffffffffffffff167f17307eab39ab6107e8899845ad3d59bd9653f200f220920489ca2b5937696c3183604051610d9b9190613339565b60405180910390a35050565b610db8610db26112d4565b83611395565b610df7576040517f08c379a0000000000000000000000000000000000000000000000000000000008152600401610dee90613576565b60405180910390fd5b610e03848484846117b3565b50505050565b6060610e13612614565b60006040518060a00160405280606281526020016146ec60629139828280610e3a906138cd565b935060408110610e4d57610e4c613a03565b5b602002018190525060405180606001604052806033815260200161474e60339139828280610e7a906138cd565b935060408110610e8d57610e8c613a03565b5b6020020181905250610e9e8461180f565b828280610eaa906138cd565b935060408110610ebd57610ebc613a03565b5b60200201819052506040518060400160405280600681526020017f3c2f7376673e0000000000000000000000000000000000000000000000000000815250828280610f07906138cd565b935060408110610f1a57610f19613a03565b5b6020020181905250600060405180602001604052806000815250905060005b82811015610f8d5781848260408110610f5557610f54613a03565b5b6020020151604051602001610f6b92919061301a565b604051602081830303815290604052915080610f86906138cd565b9050610f39565b506000610fca610f9c87611a8c565b610fa584611bed565b604051602001610fb6929190613249565b604051602081830303815290604052611bed565b905080604051602001610fdd91906132b0565b604051602081830303815290604052915081945050505050919050565b6000600560008473ffffffffffffffffffffffffffffffffffffffff1673ffffffffffffffffffffffffffffffffffffffff16815260200190815260200160002060008373ffffffffffffffffffffffffffffffffffffffff1673ffffffffffffffffffffffffffffffffffffffff16815260200190815260200160002060009054906101000a900460ff16905092915050565b6110966112d4565b73ffffffffffffffffffffffffffffffffffffffff166110b4610b6a565b73ffffffffffffffffffffffffffffffffffffffff161461110a576040517f08c379a0000000000000000000000000000000000000000000000000000000008152600401611101906134f6565b60405180910390fd5b600073ffffffffffffffffffffffffffffffffffffffff168173ffffffffffffffffffffffffffffffffffffffff16141561117a576040517f08c379a0000000000000000000000000000000000000000000000000000000008152600401611171906133b6565b60405180910390fd5b611183816116ed565b50565b60007f80ac58cd000000000000000000000000000000000000000000000000000000007bffffffffffffffffffffffffffffffffffffffffffffffffffffffff1916827bffffffffffffffffffffffffffffffffffffffffffffffffffffffff1916148061125157507f5b5e139f000000000000000000000000000000000000000000000000000000007bffffffffffffffffffffffffffffffffffffffffffffffffffffffff1916827bffffffffffffffffffffffffffffffffffffffffffffffffffffffff1916145b80611261575061126082611d85565b5b9050919050565b60008073ffffffffffffffffffffffffffffffffffffffff166002600084815260200190815260200160002060009054906101000a900473ffffffffffffffffffffffffffffffffffffffff1673ffffffffffffffffffffffffffffffffffffffff1614159050919050565b600033905090565b816004600083815260200190815260200160002060006101000a81548173ffffffffffffffffffffffffffffffffffffffff021916908373ffffffffffffffffffffffffffffffffffffffff160217905550808273ffffffffffffffffffffffffffffffffffffffff1661134f83610978565b73ffffffffffffffffffffffffffffffffffffffff167f8c5be1e5ebec7d5bd14f71427d1e84f3dd0314c0f7b2291e5b200ac8c7c3b92560405160405180910390a45050565b60006113a082611268565b6113df576040517f08c379a00000000000000000000000000000000000000000000000000000000081526004016113d690613436565b60405180910390fd5b60006113ea83610978565b90508073ffffffffffffffffffffffffffffffffffffffff168473ffffffffffffffffffffffffffffffffffffffff16148061145957508373ffffffffffffffffffffffffffffffffffffffff1661144184610503565b73ffffffffffffffffffffffffffffffffffffffff16145b8061146a57506114698185610ffa565b5b91505092915050565b8273ffffffffffffffffffffffffffffffffffffffff1661149382610978565b73ffffffffffffffffffffffffffffffffffffffff16146114e9576040517f08c379a00000000000000000000000000000000000000000000000000000000081526004016114e090613536565b60405180910390fd5b600073ffffffffffffffffffffffffffffffffffffffff168273ffffffffffffffffffffffffffffffffffffffff161415611559576040517f08c379a0000000000000000000000000000000000000000000000000000000008152600401611550906133f6565b60405180910390fd5b611564838383611def565b61156f6000826112dc565b6001600360008573ffffffffffffffffffffffffffffffffffffffff1673ffffffffffffffffffffffffffffffffffffffff16815260200190815260200160002060008282546115bf9190613780565b925050819055506001600360008473ffffffffffffffffffffffffffffffffffffffff1673ffffffffffffffffffffffffffffffffffffffff1681526020019081526020016000206000828254611616919061369f565b92505081905550816002600083815260200190815260200160002060006101000a81548173ffffffffffffffffffffffffffffffffffffffff021916908373ffffffffffffffffffffffffffffffffffffffff160217905550808273ffffffffffffffffffffffffffffffffffffffff168473ffffffffffffffffffffffffffffffffffffffff167fddf252ad1be2c89b69c2b068fc378daa952ba7f163c4a11628f55a4df523b3ef60405160405180910390a4505050565b6116e9828260405180602001604052806000815250611f03565b5050565b6000600b60009054906101000a900473ffffffffffffffffffffffffffffffffffffffff16905081600b60006101000a81548173ffffffffffffffffffffffffffffffffffffffff021916908373ffffffffffffffffffffffffffffffffffffffff1602179055508173ffffffffffffffffffffffffffffffffffffffff168173ffffffffffffffffffffffffffffffffffffffff167f8be0079c531659141344cd1fd0a4f28419497f9722a3daafe3b4186f6b6457e060405160405180910390a35050565b6117be848484611473565b6117ca84848484611f5e565b611809576040517f08c379a000000000000000000000000000000000000000000000000000000000815260040161180090613396565b60405180910390fd5b50505050565b6060600061184361181f84611a8c565b60405160200161182f919061328e565b6040516020818303038152906040526120f5565b905060006040518060200160405280600081525090508060405160200161186a91906130d3565b60405160208183030381529060405290508060405160200161188c91906130b1565b6040516020818303038152906040529050806040516020016118ae919061308f565b6040516020818303038152906040529050806040516020016118d09190613139565b6040516020818303038152906040529050806040516020016118f2919061315b565b604051602081830303815290604052905080604051602001611914919061306d565b604051602081830303815290604052905080600c6024846119359190613916565b8154811061194657611945613a03565b5b9060005260206000200160405160200161196192919061303e565b60405160208183030381529060405290508060405160200161198391906131e3565b6040516020818303038152906040529050806040516020016119a5919061317d565b6040516020818303038152906040529050806040516020016119c79190613205565b6040516020818303038152906040529050806040516020016119e99190613117565b604051602081830303815290604052905080604051602001611a0b919061319f565b604051602081830303815290604052905080604051602001611a2d9190613227565b604051602081830303815290604052905080604051602001611a4f91906131c1565b604051602081830303815290604052905080604051602001611a7191906130f5565b60405160208183030381529060405290508092505050919050565b60606000821415611ad4576040518060400160405280600181526020017f30000000000000000000000000000000000000000000000000000000000000008152509050611be8565b600082905060005b60008214611b06578080611aef906138cd565b915050600a82611aff91906136f5565b9150611adc565b60008167ffffffffffffffff811115611b2257611b21613a32565b5b6040519080825280601f01601f191660200182016040528015611b545781602001600182028036833780820191505090505b5090505b60008514611be157600182611b6d9190613780565b9150600a85611b7c9190613916565b6030611b88919061369f565b60f81b818381518110611b9e57611b9d613a03565b5b60200101907effffffffffffffffffffffffffffffffffffffffffffffffffffffffffffff1916908160001a905350600a85611bda91906136f5565b9450611b58565b8093505050505b919050565b60606000825190506000811415611c165760405180602001604052806000815250915050611d80565b60006003600283611c27919061369f565b611c3191906136f5565b6004611c3d9190613726565b90506000602082611c4e919061369f565b67ffffffffffffffff811115611c6757611c66613a32565b5b6040519080825280601f01601f191660200182016040528015611c995781602001600182028036833780820191505090505b5090506000604051806060016040528060408152602001614781604091399050600181016020830160005b86811015611d3d5760038101905062ffffff818a015116603f8160121c168401518060081b905060ff603f83600c1c1686015116810190508060081b905060ff603f8360061c1686015116810190508060081b905060ff603f831686015116810190508060e01b90508084526004840193505050611cc4565b506003860660018114611d575760028114611d6757611d72565b613d3d60f01b6002830352611d72565b603d60f81b60018303525b508484525050819450505050505b919050565b60007f01ffc9a7000000000000000000000000000000000000000000000000000000007bffffffffffffffffffffffffffffffffffffffffffffffffffffffff1916827bffffffffffffffffffffffffffffffffffffffffffffffffffffffff1916149050919050565b611dfa838383612128565b600073ffffffffffffffffffffffffffffffffffffffff168373ffffffffffffffffffffffffffffffffffffffff161415611e3d57611e388161212d565b611e7c565b8173ffffffffffffffffffffffffffffffffffffffff168373ffffffffffffffffffffffffffffffffffffffff1614611e7b57611e7a8382612176565b5b5b600073ffffffffffffffffffffffffffffffffffffffff168273ffffffffffffffffffffffffffffffffffffffff161415611ebf57611eba816122e3565b611efe565b8273ffffffffffffffffffffffffffffffffffffffff168273ffffffffffffffffffffffffffffffffffffffff1614611efd57611efc82826123b4565b5b5b505050565b611f0d8383612433565b611f1a6000848484611f5e565b611f59576040517f08c379a0000000000000000000000000000000000000000000000000000000008152600401611f5090613396565b60405180910390fd5b505050565b6000611f7f8473ffffffffffffffffffffffffffffffffffffffff16612601565b156120e8578373ffffffffffffffffffffffffffffffffffffffff1663150b7a02611fa86112d4565b8786866040518563ffffffff1660e01b8152600401611fca94939291906132ed565b602060405180830381600087803b158015611fe457600080fd5b505af192505050801561201557506040513d601f19601f820116820180604052508101906120129190612905565b60015b612098573d8060008114612045576040519150601f19603f3d011682016040523d82523d6000602084013e61204a565b606091505b50600081511415612090576040517f08c379a000000000000000000000000000000000000000000000000000000000815260040161208790613396565b60405180910390fd5b805181602001fd5b63150b7a0260e01b7bffffffffffffffffffffffffffffffffffffffffffffffffffffffff1916817bffffffffffffffffffffffffffffffffffffffffffffffffffffffff1916149150506120ed565b600190505b949350505050565b6000816040516020016121089190613003565b6040516020818303038152906040528051906020012060001c9050919050565b505050565b6008805490506009600083815260200190815260200160002081905550600881908060018154018082558091505060019003906000526020600020016000909190919091505550565b6000600161218384610a2a565b61218d9190613780565b9050600060076000848152602001908152602001600020549050818114612272576000600660008673ffffffffffffffffffffffffffffffffffffffff1673ffffffffffffffffffffffffffffffffffffffff168152602001908152602001600020600084815260200190815260200160002054905080600660008773ffffffffffffffffffffffffffffffffffffffff1673ffffffffffffffffffffffffffffffffffffffff168152602001908152602001600020600084815260200190815260200160002081905550816007600083815260200190815260200160002081905550505b6007600084815260200190815260200160002060009055600660008573ffffffffffffffffffffffffffffffffffffffff1673ffffffffffffffffffffffffffffffffffffffff16815260200190815260200160002060008381526020019081526020016000206000905550505050565b600060016008805490506122f79190613780565b905060006009600084815260200190815260200160002054905060006008838154811061232757612326613a03565b5b90600052602060002001549050806008838154811061234957612348613a03565b5b906000526020600020018190555081600960008381526020019081526020016000208190555060096000858152602001908152602001600020600090556008805480612398576123976139d4565b5b6001900381819060005260206000200160009055905550505050565b60006123bf83610a2a565b905081600660008573ffffffffffffffffffffffffffffffffffffffff1673ffffffffffffffffffffffffffffffffffffffff168152602001908152602001600020600083815260200190815260200160002081905550806007600084815260200190815260200160002081905550505050565b600073ffffffffffffffffffffffffffffffffffffffff168273ffffffffffffffffffffffffffffffffffffffff1614156124a3576040517f08c379a000000000000000000000000000000000000000000000000000000000815260040161249a906134b6565b60405180910390fd5b6124ac81611268565b156124ec576040517f08c379a00000000000000000000000000000000000000000000000000000000081526004016124e3906133d6565b60405180910390fd5b6124f860008383611def565b6001600360008473ffffffffffffffffffffffffffffffffffffffff1673ffffffffffffffffffffffffffffffffffffffff1681526020019081526020016000206000828254612548919061369f565b92505081905550816002600083815260200190815260200160002060006101000a81548173ffffffffffffffffffffffffffffffffffffffff021916908373ffffffffffffffffffffffffffffffffffffffff160217905550808273ffffffffffffffffffffffffffffffffffffffff16600073ffffffffffffffffffffffffffffffffffffffff167fddf252ad1be2c89b69c2b068fc378daa952ba7f163c4a11628f55a4df523b3ef60405160405180910390a45050565b600080823b905060008111915050919050565b6040518061080001604052806040905b60608152602001906001900390816126245790505090565b600061264f61264a84613616565b6135f1565b90508281526020810184848401111561266b5761266a613a66565b5b612676848285613828565b509392505050565b60008135905061268d8161468f565b92915050565b6000813590506126a2816146a6565b92915050565b6000813590506126b7816146bd565b92915050565b6000815190506126cc816146bd565b92915050565b600082601f8301126126e7576126e6613a61565b5b81356126f784826020860161263c565b91505092915050565b60008135905061270f816146d4565b92915050565b60006020828403121561272b5761272a613a70565b5b60006127398482850161267e565b91505092915050565b6000806040838503121561275957612758613a70565b5b60006127678582860161267e565b92505060206127788582860161267e565b9150509250929050565b60008060006060848603121561279b5761279a613a70565b5b60006127a98682870161267e565b93505060206127ba8682870161267e565b92505060406127cb86828701612700565b9150509250925092565b600080600080608085870312156127ef576127ee613a70565b5b60006127fd8782880161267e565b945050602061280e8782880161267e565b935050604061281f87828801612700565b925050606085013567ffffffffffffffff8111156128405761283f613a6b565b5b61284c878288016126d2565b91505092959194509250565b6000806040838503121561286f5761286e613a70565b5b600061287d8582860161267e565b925050602061288e85828601612693565b9150509250929050565b600080604083850312156128af576128ae613a70565b5b60006128bd8582860161267e565b92505060206128ce85828601612700565b9150509250929050565b6000602082840312156128ee576128ed613a70565b5b60006128fc848285016126a8565b91505092915050565b60006020828403121561291b5761291a613a70565b5b6000612929848285016126bd565b91505092915050565b60006020828403121561294857612947613a70565b5b600061295684828501612700565b91505092915050565b612968816137b4565b82525050565b612977816137c6565b82525050565b60006129888261365c565b6129928185613672565b93506129a2818560208601613837565b6129ab81613a75565b840191505092915050565b60006129c182613667565b6129cb8185613683565b93506129db818560208601613837565b6129e481613a75565b840191505092915050565b60006129fa82613667565b612a048185613694565b9350612a14818560208601613837565b80840191505092915050565b60008154612a2d8161386a565b612a378186613694565b94506001821660008114612a525760018114612a6357612a96565b60ff19831686528186019350612a96565b612a6c85613647565b60005b83811015612a8e57815481890152600182019150602081019050612a6f565b838801955050505b50505092915050565b6000612aac602483613694565b9150612ab782613a86565b602482019050919050565b6000612acf602b83613683565b9150612ada82613ad5565b604082019050919050565b6000612af2603283613683565b9150612afd82613b24565b604082019050919050565b6000612b15603f83613694565b9150612b2082613b73565b603f82019050919050565b6000612b38602683613683565b9150612b4382613bc2565b604082019050919050565b6000612b5b601c83613683565b9150612b6682613c11565b602082019050919050565b6000612b7e603183613694565b9150612b8982613c3a565b603182019050919050565b6000612ba1602483613683565b9150612bac82613c89565b604082019050919050565b6000612bc4601983613683565b9150612bcf82613cd8565b602082019050919050565b6000612be7604383613694565b9150612bf282613d01565b604382019050919050565b6000612c0a602c83613683565b9150612c1582613d76565b604082019050919050565b6000612c2d606a83613694565b9150612c3882613dc5565b606a82019050919050565b6000612c50603883613683565b9150612c5b82613e60565b604082019050919050565b6000612c73602a83613683565b9150612c7e82613eaf565b604082019050919050565b6000612c96602983613683565b9150612ca182613efe565b604082019050919050565b6000612cb9603a83613694565b9150612cc482613f4d565b603a82019050919050565b6000612cdc603f83613694565b9150612ce782613f9c565b603f82019050919050565b6000612cff600283613694565b9150612d0a82613feb565b600282019050919050565b6000612d22601183613694565b9150612d2d82614014565b601182019050919050565b6000612d45602083613683565b9150612d508261403d565b602082019050919050565b6000612d68600483613694565b9150612d7382614066565b600482019050919050565b6000612d8b602c83613683565b9150612d968261408f565b604082019050919050565b6000612dae603e83613694565b9150612db9826140de565b603e82019050919050565b6000612dd1602083613683565b9150612ddc8261412d565b602082019050919050565b6000612df4601083613683565b9150612dff82614156565b602082019050919050565b6000612e17602983613683565b9150612e228261417f565b604082019050919050565b6000612e3a605283613694565b9150612e45826141ce565b605282019050919050565b6000612e5d605a83613694565b9150612e6882614243565b605a82019050919050565b6000612e80605183613694565b9150612e8b826142b8565b605182019050919050565b6000612ea3602183613683565b9150612eae8261432d565b604082019050919050565b6000612ec6605983613694565b9150612ed18261437c565b605982019050919050565b6000612ee9602283613694565b9150612ef4826143f1565b602282019050919050565b6000612f0c601d83613694565b9150612f1782614440565b601d82019050919050565b6000612f2f605383613694565b9150612f3a82614469565b605382019050919050565b6000612f52603183613683565b9150612f5d826144de565b604082019050919050565b6000612f75602c83613683565b9150612f808261452d565b604082019050919050565b6000612f98605c83613694565b9150612fa38261457c565b605c82019050919050565b6000612fbb601f83613683565b9150612fc6826145f1565b602082019050919050565b6000612fde605983613694565b9150612fe98261461a565b605982019050919050565b612ffd8161381e565b82525050565b600061300f82846129ef565b915081905092915050565b600061302682856129ef565b915061303282846129ef565b91508190509392505050565b600061304a82856129ef565b91506130568284612a20565b915061306182612edc565b91508190509392505050565b600061307982846129ef565b915061308482612a9f565b915081905092915050565b600061309b82846129ef565b91506130a682612b08565b915081905092915050565b60006130bd82846129ef565b91506130c882612b71565b915081905092915050565b60006130df82846129ef565b91506130ea82612bda565b915081905092915050565b600061310182846129ef565b915061310c82612c20565b915081905092915050565b600061312382846129ef565b915061312e82612cac565b915081905092915050565b600061314582846129ef565b915061315082612ccf565b915081905092915050565b600061316782846129ef565b915061317282612da1565b915081905092915050565b600061318982846129ef565b915061319482612e2d565b915081905092915050565b60006131ab82846129ef565b91506131b682612e50565b915081905092915050565b60006131cd82846129ef565b91506131d882612eb9565b915081905092915050565b60006131ef82846129ef565b91506131fa82612f22565b915081905092915050565b600061321182846129ef565b915061321c82612f8b565b915081905092915050565b600061323382846129ef565b915061323e82612fd1565b915081905092915050565b600061325482612d15565b915061326082856129ef565b915061326b82612e73565b915061327782846129ef565b915061328282612cf2565b91508190509392505050565b600061329982612d5b565b91506132a582846129ef565b915081905092915050565b60006132bb82612eff565b91506132c782846129ef565b915081905092915050565b60006020820190506132e7600083018461295f565b92915050565b6000608082019050613302600083018761295f565b61330f602083018661295f565b61331c6040830185612ff4565b818103606083015261332e818461297d565b905095945050505050565b600060208201905061334e600083018461296e565b92915050565b6000602082019050818103600083015261336e81846129b6565b905092915050565b6000602082019050818103600083015261338f81612ac2565b9050919050565b600060208201905081810360008301526133af81612ae5565b9050919050565b600060208201905081810360008301526133cf81612b2b565b9050919050565b600060208201905081810360008301526133ef81612b4e565b9050919050565b6000602082019050818103600083015261340f81612b94565b9050919050565b6000602082019050818103600083015261342f81612bb7565b9050919050565b6000602082019050818103600083015261344f81612bfd565b9050919050565b6000602082019050818103600083015261346f81612c43565b9050919050565b6000602082019050818103600083015261348f81612c66565b9050919050565b600060208201905081810360008301526134af81612c89565b9050919050565b600060208201905081810360008301526134cf81612d38565b9050919050565b600060208201905081810360008301526134ef81612d7e565b9050919050565b6000602082019050818103600083015261350f81612dc4565b9050919050565b6000602082019050818103600083015261352f81612de7565b9050919050565b6000602082019050818103600083015261354f81612e0a565b9050919050565b6000602082019050818103600083015261356f81612e96565b9050919050565b6000602082019050818103600083015261358f81612f45565b9050919050565b600060208201905081810360008301526135af81612f68565b9050919050565b600060208201905081810360008301526135cf81612fae565b9050919050565b60006020820190506135eb6000830184612ff4565b92915050565b60006135fb61360c565b9050613607828261389c565b919050565b6000604051905090565b600067ffffffffffffffff82111561363157613630613a32565b5b61363a82613a75565b9050602081019050919050565b60008190508160005260206000209050919050565b600081519050919050565b600081519050919050565b600082825260208201905092915050565b600082825260208201905092915050565b600081905092915050565b60006136aa8261381e565b91506136b58361381e565b9250827fffffffffffffffffffffffffffffffffffffffffffffffffffffffffffffffff038211156136ea576136e9613947565b5b828201905092915050565b60006137008261381e565b915061370b8361381e565b92508261371b5761371a613976565b5b828204905092915050565b60006137318261381e565b915061373c8361381e565b9250817fffffffffffffffffffffffffffffffffffffffffffffffffffffffffffffffff048311821515161561377557613774613947565b5b828202905092915050565b600061378b8261381e565b91506137968361381e565b9250828210156137a9576137a8613947565b5b828203905092915050565b60006137bf826137fe565b9050919050565b60008115159050919050565b60007fffffffff0000000000000000000000000000000000000000000000000000000082169050919050565b600073ffffffffffffffffffffffffffffffffffffffff82169050919050565b6000819050919050565b82818337600083830152505050565b60005b8381101561385557808201518184015260208101905061383a565b83811115613864576000848401525b50505050565b6000600282049050600182168061388257607f821691505b60208210811415613896576138956139a5565b5b50919050565b6138a582613a75565b810181811067ffffffffffffffff821117156138c4576138c3613a32565b5b80604052505050565b60006138d88261381e565b91507fffffffffffffffffffffffffffffffffffffffffffffffffffffffffffffffff82141561390b5761390a613947565b5b600182019050919050565b60006139218261381e565b915061392c8361381e565b92508261393c5761393b613976565b5b828206905092915050565b7f4e487b7100000000000000000000000000000000000000000000000000000000600052601160045260246000fd5b7f4e487b7100000000000000000000000000000000000000000000000000000000600052601260045260246000fd5b7f4e487b7100000000000000000000000000000000000000000000000000000000600052602260045260246000fd5b7f4e487b7100000000000000000000000000000000000000000000000000000000600052603160045260246000fd5b7f4e487b7100000000000000000000000000000000000000000000000000000000600052603260045260246000fd5b7f4e487b7100000000000000000000000000000000000000000000000000000000600052604160045260246000fd5b600080fd5b600080fd5b600080fd5b600080fd5b6000601f19601f8301169050919050565b7f61203930203930203020302030203730202d3330207a22207374796c653d226660008201527f696c6c3a00000000000000000000000000000000000000000000000000000000602082015250565b7f455243373231456e756d657261626c653a206f776e657220696e646578206f7560008201527f74206f6620626f756e6473000000000000000000000000000000000000000000602082015250565b7f4552433732313a207472616e7366657220746f206e6f6e20455243373231526560008201527f63656976657220696d706c656d656e7465720000000000000000000000000000602082015250565b7f3c7061746820643d224d203332302c313530206120393020393020302030203060008201527f202d3530202d33302061203130203330203020302030202d3330202d32302000602082015250565b7f4f776e61626c653a206e6577206f776e657220697320746865207a65726f206160008201527f6464726573730000000000000000000000000000000000000000000000000000602082015250565b7f4552433732313a20746f6b656e20616c7265616479206d696e74656400000000600082015250565b7f7374796c653d2266696c6c3a626c61636b3b7374726f6b653a626c61636b3b7360008201527f74726f6b652d77696474683a3122202f3e000000000000000000000000000000602082015250565b7f4552433732313a207472616e7366657220746f20746865207a65726f2061646460008201527f7265737300000000000000000000000000000000000000000000000000000000602082015250565b7f4552433732313a20617070726f766520746f2063616c6c657200000000000000600082015250565b7f3c7061746820643d224d2039302031393020612033302031302030203020302060008201527f3330203235206c203220322061203330203130203020302031202d3330202d3260208201527f3522200000000000000000000000000000000000000000000000000000000000604082015250565b7f4552433732313a206f70657261746f7220717565727920666f72206e6f6e657860008201527f697374656e7420746f6b656e0000000000000000000000000000000000000000602082015250565b7f3c7061746820643d224d203332302c313530206120313020313020302030203060008201527f202d35203520612031302031302030203020302035203522207374796c653d2260208201527f626c61636b3a6e6f6e653b7374726f6b653a626c61636b3b7374726f6b652d7760408201527f696474683a3222202f3e00000000000000000000000000000000000000000000606082015250565b7f4552433732313a20617070726f76652063616c6c6572206973206e6f74206f7760008201527f6e6572206e6f7220617070726f76656420666f7220616c6c0000000000000000602082015250565b7f4552433732313a2062616c616e636520717565727920666f7220746865207a6560008201527f726f206164647265737300000000000000000000000000000000000000000000602082015250565b7f4552433732313a206f776e657220717565727920666f72206e6f6e657869737460008201527f656e7420746f6b656e0000000000000000000000000000000000000000000000602082015250565b7f626567696e3d22307322206475723d223130732220726570656174436f756e7460008201527f3d22696e646566696e69746522202f3e203c2f636972636c653e000000000000602082015250565b7f61203130203330203020302030202d333020323020612035302034302030203060008201527f2030202d31323020393020612033302033302030203020302034302031302000602082015250565b7f227d000000000000000000000000000000000000000000000000000000000000600082015250565b7f7b226e616d65223a20224d6f7573652023000000000000000000000000000000600082015250565b7f4552433732313a206d696e7420746f20746865207a65726f2061646472657373600082015250565b7f424f445900000000000000000000000000000000000000000000000000000000600082015250565b7f4552433732313a20617070726f76656420717565727920666f72206e6f6e657860008201527f697374656e7420746f6b656e0000000000000000000000000000000000000000602082015250565b7f612035302035302030203020302032302031302061203530203330203020302060008201527f30203330202d31302061203930203930203020302030203730202d3330200000602082015250565b7f4f776e61626c653a2063616c6c6572206973206e6f7420746865206f776e6572600082015250565b7f546f6b656e20494420696e76616c696400000000000000000000000000000000600082015250565b7f4552433732313a207472616e73666572206f6620746f6b656e2074686174206960008201527f73206e6f74206f776e0000000000000000000000000000000000000000000000602082015250565b7f3c636972636c652063783d22323832222063793d223133392220723d2234222060008201527f7374796c653d2266696c6c3a626c61636b3b7374726f6b653a626c61636b3b7360208201527f74726f6b652d77696474683a302e3322203e0000000000000000000000000000604082015250565b7f203c7061746820643d224d20333130203136302061203330203330203020302060008201527f30202d313020323522207374796c653d2266696c6c3a6e6f6e653b7374726f6b60208201527f653a626c61636b3b7374726f6b652d77696474683a3222202f3e000000000000604082015250565b7f222c20226465736372697074696f6e223a2022426f726564204d69636520696e60008201527f204d6574617665727365222c2022696d616765223a2022646174613a696d616760208201527f652f7376672b786d6c3b6261736536342c000000000000000000000000000000604082015250565b7f4552433732313a20617070726f76616c20746f2063757272656e74206f776e6560008201527f7200000000000000000000000000000000000000000000000000000000000000602082015250565b7f3c7061746820643d224d2033303020313630206120333020333020302030203060008201527f202d333020323022207374796c653d2266696c6c3a6e6f6e653b7374726f6b6560208201527f3a626c61636b3b7374726f6b652d77696474683a3222202f3e00000000000000604082015250565b7f3b7374726f6b653a626c61636b3b7374726f6b652d77696474683a302e33222060008201527f2f3e000000000000000000000000000000000000000000000000000000000000602082015250565b7f646174613a6170706c69636174696f6e2f6a736f6e3b6261736536342c000000600082015250565b7f3c636972636c652063783d22323830222063793d223134302220723d2236222060008201527f7374796c653d2266696c6c3a77686974653b7374726f6b653a626c61636b3b7360208201527f74726f6b652d77696474683a302e3322202f3e00000000000000000000000000604082015250565b7f4552433732313a207472616e736665722063616c6c6572206973206e6f74206f60008201527f776e6572206e6f7220617070726f766564000000000000000000000000000000602082015250565b7f455243373231456e756d657261626c653a20676c6f62616c20696e646578206f60008201527f7574206f6620626f756e64730000000000000000000000000000000000000000602082015250565b7f3c616e696d6174655472616e73666f726d206174747269627574654e616d653d60008201527f227472616e73666f726d2220747970653d22726f74617465222066726f6d3d2260208201527f3020323830203133392220746f3d223336302032383020313339222000000000604082015250565b7f5265656e7472616e637947756172643a207265656e7472616e742063616c6c00600082015250565b7f3c7061746820643d224d2033303520313630206120333020333020302030203060008201527f202d323020323022207374796c653d2266696c6c3a6e6f6e653b7374726f6b6560208201527f3a626c61636b3b7374726f6b652d77696474683a3222202f3e00000000000000604082015250565b614698816137b4565b81146146a357600080fd5b50565b6146af816137c6565b81146146ba57600080fd5b50565b6146c6816137d2565b81146146d157600080fd5b50565b6146dd8161381e565b81146146e857600080fd5b5056fe3c73766720786d6c6e733d22687474703a2f2f7777772e77332e6f72672f323030302f73766722207072657365727665417370656374526174696f3d22784d696e594d696e206d656574222076696577426f783d223020302033353020333530223e3c726563742077696474683d223130302522206865696768743d2231303025222066696c6c3d22686f6e657964657722202f3e4142434445464748494a4b4c4d4e4f505152535455565758595a6162636465666768696a6b6c6d6e6f707172737475767778797a303132333435363738392b2fa26469706673582212207fe3e009332961e90f5c530b5bf487cc7b3fe59806cd877289fe642068c9956964736f6c63430008070033",
  "immutableReferences": {},
  "source": "// SPDX-License-Identifier: MIT\n\npragma solidity ^0.8.0;\n\nimport \"./FullERC721.sol\";\n\ncontract MetaBoredMice is ERC721Enumerable, ReentrancyGuard, Ownable {\n\n        constructor() ERC721(\"MetaBoredMice\", \"METABOREDMICE\") Ownable() {\n        }\n\n        string[] private _colors = [\n                \"coral\",\n                \"lightcoral\",\n                \"lightgreen\",\n                \"lightsteelblue\",\n                \"linen\",\n                \"navajowhite\",\n                \"palegoldenrod\",\n                \"turquoise\",\n                \"beige\",\n                \"cornflowerblue\",\n                \"darksalmon\",\n                \"deepskyblue\",\n                \"honeydew\",\n                \"hotpink\",\n                \"ivory\",\n                \"lightcyan\",\n                \"lightyellow\",\n                \"peachpuff\",\n                \"palegreen\",\n                \"bisque\",\n                \"darkcyan\",\n                \"darkseagreen\",\n                \"darkturquoise\",\n                \"mediumturquoise\",\n                \"dodgerblue\",\n                \"lightseagreen\",\n                \"lightsalmon\",\n                \"olive\",\n                \"steelblue\",\n                \"crimson\",\n                \"aqua\",\n                \"aquamarine\",\n                \"orangered\",\n                \"plum\",\n                \"gold\",\n                \"silver\"\n                        ];\n\n        function random(string memory input) internal pure returns (uint256) {\n                return uint256(keccak256(abi.encodePacked(input)));\n        }\n\n        function pluckBody(uint256 tokenId) internal view returns (string memory) {\n                uint256 rand = random(string(abi.encodePacked(\"BODY\", Strings.toString(tokenId))));\n                string memory str = \"\";\n\n                str = string(abi.encodePacked(str, '<path d=\"M 90 190 a 30 10 0 0 0 30 25 l 2 2 a 30 10 0 0 1 -30 -25\" '));\n                str = string(abi.encodePacked(str, 'style=\"fill:black;stroke:black;stroke-width:1\" />'));\n                str = string(abi.encodePacked(str, '<path d=\"M 320,150 a 90 90 0 0 0 -50 -30 a 10 30 0 0 0 -30 -20 '));\n                str = string(abi.encodePacked(str, 'a 10 30 0 0 0 -30 20 a 50 40 0 0 0 -120 90 a 30 30 0 0 0 40 10 '));\n                str = string(abi.encodePacked(str, 'a 50 50 0 0 0 20 10 a 50 30 0 0 0 30 -10 a 90 90 0 0 0 70 -30 '));\n                str = string(abi.encodePacked(str, 'a 90 90 0 0 0 70 -30 z\" style=\"fill:'));\n                str = string(abi.encodePacked(str, _colors[rand%36], ';stroke:black;stroke-width:0.3\" />'));\n                str = string(abi.encodePacked(str, '<circle cx=\"280\" cy=\"140\" r=\"6\" style=\"fill:white;stroke:black;stroke-width:0.3\" />'));\n                str = string(abi.encodePacked(str, '<circle cx=\"282\" cy=\"139\" r=\"4\" style=\"fill:black;stroke:black;stroke-width:0.3\" >'));\n                str = string(abi.encodePacked(str, '<animateTransform attributeName=\"transform\" type=\"rotate\" from=\"0 280 139\" to=\"360 280 139\" '));\n                str = string(abi.encodePacked(str, 'begin=\"0s\" dur=\"10s\" repeatCount=\"indefinite\" /> </circle>'));\n                str = string(abi.encodePacked(str, ' <path d=\"M 310 160 a 30 30 0 0 0 -10 25\" style=\"fill:none;stroke:black;stroke-width:2\" />'));\n                str = string(abi.encodePacked(str, '<path d=\"M 305 160 a 30 30 0 0 0 -20 20\" style=\"fill:none;stroke:black;stroke-width:2\" />'));\n                str = string(abi.encodePacked(str, '<path d=\"M 300 160 a 30 30 0 0 0 -30 20\" style=\"fill:none;stroke:black;stroke-width:2\" />'));\n                str = string(abi.encodePacked(str, '<path d=\"M 320,150 a 10 10 0 0 0 -5 5 a 10 10 0 0 0 5 5\" style=\"black:none;stroke:black;stroke-width:2\" />'));\n\n                return str;\n        }\n\n        function tokenURI(uint256 tokenId) override public view returns (string memory) {\n\n                string[64] memory parts;\n                uint256 counter = 0;\n                parts[counter++] = '<svg xmlns=\"http://www.w3.org/2000/svg\" preserveAspectRatio=\"xMinYMin meet\" viewBox=\"0 0 350 350\">';\n                parts[counter++] = '<rect width=\"100%\" height=\"100%\" fill=\"honeydew\" />';\n                parts[counter++] = pluckBody(tokenId);\n                parts[counter++] = '</svg>';\n\n                string memory output = \"\";\n                for(uint256 i = 0; i < counter; ++i)\n                {\n                        output = string(abi.encodePacked(output, parts[i]));\n                }\n\n                string memory json = Base64.encode(bytes(string(abi.encodePacked('{\"name\": \"Mouse #', Strings.toString(tokenId), '\", \"description\": \"Bored Mice in Metaverse\", \"image\": \"data:image/svg+xml;base64,', Base64.encode(bytes(output)), '\"}'))));\n                output = string(abi.encodePacked('data:application/json;base64,', json));\n\n                return output;\n        }\n\n        function mintPlayer(uint256 tokenId) public nonReentrant onlyOwner {\n                require(tokenId > 0 && tokenId < 129, \"Token ID invalid\");\n                _safeMint(owner(), tokenId);\n        }\n}\n",
  "sourcePath": "/Users/phanimukkamala/Documents/solidity/fcc-dapp/src/contracts/MetaBoredMice.sol",
  "compiler": {
    "name": "solc",
    "version": "0.8.7+commit.e28d00a7.Emscripten.clang"
  },
  "schemaVersion": "3.4.3",
  "updatedAt": "2021-12-31T11:13:53.155Z",
  "devdoc": {
    "kind": "dev",
    "methods": {
      "approve(address,uint256)": {
        "details": "See {IERC721-approve}."
      },
      "balanceOf(address)": {
        "details": "See {IERC721-balanceOf}."
      },
      "getApproved(uint256)": {
        "details": "See {IERC721-getApproved}."
      },
      "isApprovedForAll(address,address)": {
        "details": "See {IERC721-isApprovedForAll}."
      },
      "name()": {
        "details": "See {IERC721Metadata-name}."
      },
      "owner()": {
        "details": "Returns the address of the current owner."
      },
      "ownerOf(uint256)": {
        "details": "See {IERC721-ownerOf}."
      },
      "renounceOwnership()": {
        "details": "Leaves the contract without owner. It will not be possible to call `onlyOwner` functions anymore. Can only be called by the current owner. NOTE: Renouncing ownership will leave the contract without an owner, thereby removing any functionality that is only available to the owner."
      },
      "safeTransferFrom(address,address,uint256)": {
        "details": "See {IERC721-safeTransferFrom}."
      },
      "safeTransferFrom(address,address,uint256,bytes)": {
        "details": "See {IERC721-safeTransferFrom}."
      },
      "setApprovalForAll(address,bool)": {
        "details": "See {IERC721-setApprovalForAll}."
      },
      "supportsInterface(bytes4)": {
        "details": "See {IERC165-supportsInterface}."
      },
      "symbol()": {
        "details": "See {IERC721Metadata-symbol}."
      },
      "tokenByIndex(uint256)": {
        "details": "See {IERC721Enumerable-tokenByIndex}."
      },
      "tokenOfOwnerByIndex(address,uint256)": {
        "details": "See {IERC721Enumerable-tokenOfOwnerByIndex}."
      },
      "tokenURI(uint256)": {
        "details": "See {IERC721Metadata-tokenURI}."
      },
      "totalSupply()": {
        "details": "See {IERC721Enumerable-totalSupply}."
      },
      "transferFrom(address,address,uint256)": {
        "details": "See {IERC721-transferFrom}."
      },
      "transferOwnership(address)": {
        "details": "Transfers ownership of the contract to a new account (`newOwner`). Can only be called by the current owner."
      }
    },
    "version": 1
  },
  "userdoc": {
    "kind": "user",
    "methods": {},
    "version": 1
  }
}