{
  "contractName": "MetaBox",
  "abi": [
    {
      "inputs": [],
      "stateMutability": "nonpayable",
      "type": "constructor"
    },
    {
      "anonymous": false,
      "inputs": [
        {
          "indexed": true,
          "internalType": "address",
          "name": "owner",
          "type": "address"
        },
        {
          "indexed": true,
          "internalType": "address",
          "name": "approved",
          "type": "address"
        },
        {
          "indexed": true,
          "internalType": "uint256",
          "name": "tokenId",
          "type": "uint256"
        }
      ],
      "name": "Approval",
      "type": "event"
    },
    {
      "anonymous": false,
      "inputs": [
        {
          "indexed": true,
          "internalType": "address",
          "name": "owner",
          "type": "address"
        },
        {
          "indexed": true,
          "internalType": "address",
          "name": "operator",
          "type": "address"
        },
        {
          "indexed": false,
          "internalType": "bool",
          "name": "approved",
          "type": "bool"
        }
      ],
      "name": "ApprovalForAll",
      "type": "event"
    },
    {
      "anonymous": false,
      "inputs": [
        {
          "indexed": true,
          "internalType": "address",
          "name": "previousOwner",
          "type": "address"
        },
        {
          "indexed": true,
          "internalType": "address",
          "name": "newOwner",
          "type": "address"
        }
      ],
      "name": "OwnershipTransferred",
      "type": "event"
    },
    {
      "anonymous": false,
      "inputs": [
        {
          "indexed": true,
          "internalType": "address",
          "name": "from",
          "type": "address"
        },
        {
          "indexed": true,
          "internalType": "address",
          "name": "to",
          "type": "address"
        },
        {
          "indexed": true,
          "internalType": "uint256",
          "name": "tokenId",
          "type": "uint256"
        }
      ],
      "name": "Transfer",
      "type": "event"
    },
    {
      "inputs": [
        {
          "internalType": "address",
          "name": "to",
          "type": "address"
        },
        {
          "internalType": "uint256",
          "name": "tokenId",
          "type": "uint256"
        }
      ],
      "name": "approve",
      "outputs": [],
      "stateMutability": "nonpayable",
      "type": "function"
    },
    {
      "inputs": [
        {
          "internalType": "address",
          "name": "owner",
          "type": "address"
        }
      ],
      "name": "balanceOf",
      "outputs": [
        {
          "internalType": "uint256",
          "name": "",
          "type": "uint256"
        }
      ],
      "stateMutability": "view",
      "type": "function"
    },
    {
      "inputs": [
        {
          "internalType": "uint256",
          "name": "tokenId",
          "type": "uint256"
        }
      ],
      "name": "getApproved",
      "outputs": [
        {
          "internalType": "address",
          "name": "",
          "type": "address"
        }
      ],
      "stateMutability": "view",
      "type": "function"
    },
    {
      "inputs": [
        {
          "internalType": "address",
          "name": "owner",
          "type": "address"
        },
        {
          "internalType": "address",
          "name": "operator",
          "type": "address"
        }
      ],
      "name": "isApprovedForAll",
      "outputs": [
        {
          "internalType": "bool",
          "name": "",
          "type": "bool"
        }
      ],
      "stateMutability": "view",
      "type": "function"
    },
    {
      "inputs": [],
      "name": "name",
      "outputs": [
        {
          "internalType": "string",
          "name": "",
          "type": "string"
        }
      ],
      "stateMutability": "view",
      "type": "function"
    },
    {
      "inputs": [],
      "name": "owner",
      "outputs": [
        {
          "internalType": "address",
          "name": "",
          "type": "address"
        }
      ],
      "stateMutability": "view",
      "type": "function"
    },
    {
      "inputs": [
        {
          "internalType": "uint256",
          "name": "tokenId",
          "type": "uint256"
        }
      ],
      "name": "ownerOf",
      "outputs": [
        {
          "internalType": "address",
          "name": "",
          "type": "address"
        }
      ],
      "stateMutability": "view",
      "type": "function"
    },
    {
      "inputs": [],
      "name": "renounceOwnership",
      "outputs": [],
      "stateMutability": "nonpayable",
      "type": "function"
    },
    {
      "inputs": [
        {
          "internalType": "address",
          "name": "from",
          "type": "address"
        },
        {
          "internalType": "address",
          "name": "to",
          "type": "address"
        },
        {
          "internalType": "uint256",
          "name": "tokenId",
          "type": "uint256"
        }
      ],
      "name": "safeTransferFrom",
      "outputs": [],
      "stateMutability": "nonpayable",
      "type": "function"
    },
    {
      "inputs": [
        {
          "internalType": "address",
          "name": "from",
          "type": "address"
        },
        {
          "internalType": "address",
          "name": "to",
          "type": "address"
        },
        {
          "internalType": "uint256",
          "name": "tokenId",
          "type": "uint256"
        },
        {
          "internalType": "bytes",
          "name": "_data",
          "type": "bytes"
        }
      ],
      "name": "safeTransferFrom",
      "outputs": [],
      "stateMutability": "nonpayable",
      "type": "function"
    },
    {
      "inputs": [
        {
          "internalType": "address",
          "name": "operator",
          "type": "address"
        },
        {
          "internalType": "bool",
          "name": "approved",
          "type": "bool"
        }
      ],
      "name": "setApprovalForAll",
      "outputs": [],
      "stateMutability": "nonpayable",
      "type": "function"
    },
    {
      "inputs": [
        {
          "internalType": "bytes4",
          "name": "interfaceId",
          "type": "bytes4"
        }
      ],
      "name": "supportsInterface",
      "outputs": [
        {
          "internalType": "bool",
          "name": "",
          "type": "bool"
        }
      ],
      "stateMutability": "view",
      "type": "function"
    },
    {
      "inputs": [],
      "name": "symbol",
      "outputs": [
        {
          "internalType": "string",
          "name": "",
          "type": "string"
        }
      ],
      "stateMutability": "view",
      "type": "function"
    },
    {
      "inputs": [
        {
          "internalType": "uint256",
          "name": "index",
          "type": "uint256"
        }
      ],
      "name": "tokenByIndex",
      "outputs": [
        {
          "internalType": "uint256",
          "name": "",
          "type": "uint256"
        }
      ],
      "stateMutability": "view",
      "type": "function"
    },
    {
      "inputs": [
        {
          "internalType": "address",
          "name": "owner",
          "type": "address"
        },
        {
          "internalType": "uint256",
          "name": "index",
          "type": "uint256"
        }
      ],
      "name": "tokenOfOwnerByIndex",
      "outputs": [
        {
          "internalType": "uint256",
          "name": "",
          "type": "uint256"
        }
      ],
      "stateMutability": "view",
      "type": "function"
    },
    {
      "inputs": [],
      "name": "totalSupply",
      "outputs": [
        {
          "internalType": "uint256",
          "name": "",
          "type": "uint256"
        }
      ],
      "stateMutability": "view",
      "type": "function"
    },
    {
      "inputs": [
        {
          "internalType": "address",
          "name": "from",
          "type": "address"
        },
        {
          "internalType": "address",
          "name": "to",
          "type": "address"
        },
        {
          "internalType": "uint256",
          "name": "tokenId",
          "type": "uint256"
        }
      ],
      "name": "transferFrom",
      "outputs": [],
      "stateMutability": "nonpayable",
      "type": "function"
    },
    {
      "inputs": [
        {
          "internalType": "address",
          "name": "newOwner",
          "type": "address"
        }
      ],
      "name": "transferOwnership",
      "outputs": [],
      "stateMutability": "nonpayable",
      "type": "function"
    },
    {
      "inputs": [
        {
          "internalType": "uint256",
          "name": "tokenId",
          "type": "uint256"
        }
      ],
      "name": "tokenURI",
      "outputs": [
        {
          "internalType": "string",
          "name": "",
          "type": "string"
        }
      ],
      "stateMutability": "view",
      "type": "function"
    },
    {
      "inputs": [
        {
          "internalType": "uint256",
          "name": "tokenId",
          "type": "uint256"
        }
      ],
      "name": "mintPlayer",
      "outputs": [],
      "stateMutability": "nonpayable",
      "type": "function"
    }
  ],
  "bytecode": "0x60806040526040518061046001604052806040518060400160405280600581526020017f636f72616c00000000000000000000000000000000000000000000000000000081525081526020016040518060400160405280600a81526020017f6c69676874636f72616c0000000000000000000000000000000000000000000081525081526020016040518060400160405280600a81526020017f6c69676874677265656e0000000000000000000000000000000000000000000081525081526020016040518060400160405280600e81526020017f6c69676874737465656c626c756500000000000000000000000000000000000081525081526020016040518060400160405280600581526020017f6c696e656e00000000000000000000000000000000000000000000000000000081525081526020016040518060400160405280600b81526020017f6e6176616a6f776869746500000000000000000000000000000000000000000081525081526020016040518060400160405280600d81526020017f70616c65676f6c64656e726f640000000000000000000000000000000000000081525081526020016040518060400160405280600981526020017f74757271756f697365000000000000000000000000000000000000000000000081525081526020016040518060400160405280600581526020017f626569676500000000000000000000000000000000000000000000000000000081525081526020016040518060400160405280600e81526020017f636f726e666c6f776572626c756500000000000000000000000000000000000081525081526020016040518060400160405280600a81526020017f6461726b73616c6d6f6e0000000000000000000000000000000000000000000081525081526020016040518060400160405280600b81526020017f64656570736b79626c756500000000000000000000000000000000000000000081525081526020016040518060400160405280600881526020017f686f6e657964657700000000000000000000000000000000000000000000000081525081526020016040518060400160405280600781526020017f686f7470696e6b0000000000000000000000000000000000000000000000000081525081526020016040518060400160405280600581526020017f69766f727900000000000000000000000000000000000000000000000000000081525081526020016040518060400160405280600981526020017f6c696768746379616e000000000000000000000000000000000000000000000081525081526020016040518060400160405280600b81526020017f6c6967687479656c6c6f7700000000000000000000000000000000000000000081525081526020016040518060400160405280600981526020017f706561636870756666000000000000000000000000000000000000000000000081525081526020016040518060400160405280600981526020017f70616c65677265656e000000000000000000000000000000000000000000000081525081526020016040518060400160405280600681526020017f626973717565000000000000000000000000000000000000000000000000000081525081526020016040518060400160405280600881526020017f6461726b6379616e00000000000000000000000000000000000000000000000081525081526020016040518060400160405280600c81526020017f6461726b736561677265656e000000000000000000000000000000000000000081525081526020016040518060400160405280600d81526020017f6461726b74757271756f6973650000000000000000000000000000000000000081525081526020016040518060400160405280600f81526020017f6d656469756d74757271756f697365000000000000000000000000000000000081525081526020016040518060400160405280600a81526020017f646f64676572626c75650000000000000000000000000000000000000000000081525081526020016040518060400160405280600d81526020017f6c69676874736561677265656e0000000000000000000000000000000000000081525081526020016040518060400160405280600b81526020017f6c6967687473616c6d6f6e00000000000000000000000000000000000000000081525081526020016040518060400160405280600581526020017f6f6c69766500000000000000000000000000000000000000000000000000000081525081526020016040518060400160405280600981526020017f737465656c626c7565000000000000000000000000000000000000000000000081525081526020016040518060400160405280600781526020017f6372696d736f6e0000000000000000000000000000000000000000000000000081525081526020016040518060400160405280600481526020017f617175610000000000000000000000000000000000000000000000000000000081525081526020016040518060400160405280600a81526020017f617175616d6172696e650000000000000000000000000000000000000000000081525081526020016040518060400160405280600981526020017f6f72616e6765726564000000000000000000000000000000000000000000000081525081526020016040518060400160405280600481526020017f676f6c640000000000000000000000000000000000000000000000000000000081525081526020016040518060400160405280600681526020017f73696c7665720000000000000000000000000000000000000000000000000000815250815250600c90602362000831929190620009dc565b503480156200083f57600080fd5b506040518060400160405280600781526020017f4d657461426f78000000000000000000000000000000000000000000000000008152506040518060400160405280600781526020017f4d455441424f58000000000000000000000000000000000000000000000000008152508160009080519060200190620008c492919062000a43565b508060019080519060200190620008dd92919062000a43565b5050506001600a8190555062000908620008fc6200090e60201b60201c565b6200091660201b60201c565b62000bc6565b600033905090565b6000600b60009054906101000a900473ffffffffffffffffffffffffffffffffffffffff16905081600b60006101000a81548173ffffffffffffffffffffffffffffffffffffffff021916908373ffffffffffffffffffffffffffffffffffffffff1602179055508173ffffffffffffffffffffffffffffffffffffffff168173ffffffffffffffffffffffffffffffffffffffff167f8be0079c531659141344cd1fd0a4f28419497f9722a3daafe3b4186f6b6457e060405160405180910390a35050565b82805482825590600052602060002090810192821562000a30579160200282015b8281111562000a2f57825182908051906020019062000a1e92919062000a43565b5091602001919060010190620009fd565b5b50905062000a3f919062000ad4565b5090565b82805462000a519062000b61565b90600052602060002090601f01602090048101928262000a75576000855562000ac1565b82601f1062000a9057805160ff191683800117855562000ac1565b8280016001018555821562000ac1579182015b8281111562000ac057825182559160200191906001019062000aa3565b5b50905062000ad0919062000afc565b5090565b5b8082111562000af8576000818162000aee919062000b1b565b5060010162000ad5565b5090565b5b8082111562000b1757600081600090555060010162000afd565b5090565b50805462000b299062000b61565b6000825580601f1062000b3d575062000b5e565b601f01602090049060005260206000209081019062000b5d919062000afc565b5b50565b6000600282049050600182168062000b7a57607f821691505b6020821081141562000b915762000b9062000b97565b5b50919050565b7f4e487b7100000000000000000000000000000000000000000000000000000000600052602260045260246000fd5b6160be8062000bd66000396000f3fe608060405234801561001057600080fd5b506004361061012c5760003560e01c80636352211e116100ad578063a22cb46511610071578063a22cb46514610343578063b88d4fde1461035f578063c87b56dd1461037b578063e985e9c5146103ab578063f2fde38b146103db5761012c565b80636352211e1461029d57806370a08231146102cd578063715018a6146102fd5780638da5cb5b1461030757806395d89b41146103255761012c565b806323b872dd116100f457806323b872dd146101e95780632f745c59146102055780633de7439f1461023557806342842e0e146102515780634f6ccce71461026d5761012c565b806301ffc9a71461013157806306fdde0314610161578063081812fc1461017f578063095ea7b3146101af57806318160ddd146101cb575b600080fd5b61014b60048036038101906101469190613041565b6103f7565b6040516101589190614184565b60405180910390f35b610169610471565b604051610176919061419f565b60405180910390f35b6101996004803603810190610194919061309b565b610503565b6040516101a6919061411d565b60405180910390f35b6101c960048036038101906101c49190613001565b610588565b005b6101d36106a0565b6040516101e09190614421565b60405180910390f35b61020360048036038101906101fe9190612eeb565b6106ad565b005b61021f600480360381019061021a9190613001565b61070d565b60405161022c9190614421565b60405180910390f35b61024f600480360381019061024a919061309b565b6107b2565b005b61026b60048036038101906102669190612eeb565b6108e7565b005b6102876004803603810190610282919061309b565b610907565b6040516102949190614421565b60405180910390f35b6102b760048036038101906102b2919061309b565b610978565b6040516102c4919061411d565b60405180910390f35b6102e760048036038101906102e29190612e7e565b610a2a565b6040516102f49190614421565b60405180910390f35b610305610ae2565b005b61030f610b6a565b60405161031c919061411d565b60405180910390f35b61032d610b94565b60405161033a919061419f565b60405180910390f35b61035d60048036038101906103589190612fc1565b610c26565b005b61037960048036038101906103749190612f3e565b610da7565b005b6103956004803603810190610390919061309b565b610e09565b6040516103a2919061419f565b60405180910390f35b6103c560048036038101906103c09190612eab565b611225565b6040516103d29190614184565b60405180910390f35b6103f560048036038101906103f09190612e7e565b6112b9565b005b60007f780e9d63000000000000000000000000000000000000000000000000000000007bffffffffffffffffffffffffffffffffffffffffffffffffffffffff1916827bffffffffffffffffffffffffffffffffffffffffffffffffffffffff1916148061046a5750610469826113b1565b5b9050919050565b606060008054610480906146b5565b80601f01602080910402602001604051908101604052809291908181526020018280546104ac906146b5565b80156104f95780601f106104ce576101008083540402835291602001916104f9565b820191906000526020600020905b8154815290600101906020018083116104dc57829003601f168201915b5050505050905090565b600061050e82611493565b61054d576040517f08c379a000000000000000000000000000000000000000000000000000000000815260040161054490614321565b60405180910390fd5b6004600083815260200190815260200160002060009054906101000a900473ffffffffffffffffffffffffffffffffffffffff169050919050565b600061059382610978565b90508073ffffffffffffffffffffffffffffffffffffffff168373ffffffffffffffffffffffffffffffffffffffff161415610604576040517f08c379a00000000000000000000000000000000000000000000000000000000081526004016105fb906143a1565b60405180910390fd5b8073ffffffffffffffffffffffffffffffffffffffff166106236114ff565b73ffffffffffffffffffffffffffffffffffffffff16148061065257506106518161064c6114ff565b611225565b5b610691576040517f08c379a0000000000000000000000000000000000000000000000000000000008152600401610688906142a1565b60405180910390fd5b61069b8383611507565b505050565b6000600880549050905090565b6106be6106b86114ff565b826115c0565b6106fd576040517f08c379a00000000000000000000000000000000000000000000000000000000081526004016106f4906143c1565b60405180910390fd5b61070883838361169e565b505050565b600061071883610a2a565b8210610759576040517f08c379a0000000000000000000000000000000000000000000000000000000008152600401610750906141c1565b60405180910390fd5b600660008473ffffffffffffffffffffffffffffffffffffffff1673ffffffffffffffffffffffffffffffffffffffff168152602001908152602001600020600083815260200190815260200160002054905092915050565b6002600a5414156107f8576040517f08c379a00000000000000000000000000000000000000000000000000000000081526004016107ef90614401565b60405180910390fd5b6002600a819055506108086114ff565b73ffffffffffffffffffffffffffffffffffffffff16610826610b6a565b73ffffffffffffffffffffffffffffffffffffffff161461087c576040517f08c379a000000000000000000000000000000000000000000000000000000000815260040161087390614341565b60405180910390fd5b60008111801561088c5750608181105b6108cb576040517f08c379a00000000000000000000000000000000000000000000000000000000081526004016108c290614361565b60405180910390fd5b6108dc6108d6610b6a565b826118fa565b6001600a8190555050565b61090283838360405180602001604052806000815250610da7565b505050565b60006109116106a0565b8210610952576040517f08c379a0000000000000000000000000000000000000000000000000000000008152600401610949906143e1565b60405180910390fd5b600882815481106109665761096561484e565b5b90600052602060002001549050919050565b6000806002600084815260200190815260200160002060009054906101000a900473ffffffffffffffffffffffffffffffffffffffff169050600073ffffffffffffffffffffffffffffffffffffffff168173ffffffffffffffffffffffffffffffffffffffff161415610a21576040517f08c379a0000000000000000000000000000000000000000000000000000000008152600401610a18906142e1565b60405180910390fd5b80915050919050565b60008073ffffffffffffffffffffffffffffffffffffffff168273ffffffffffffffffffffffffffffffffffffffff161415610a9b576040517f08c379a0000000000000000000000000000000000000000000000000000000008152600401610a92906142c1565b60405180910390fd5b600360008373ffffffffffffffffffffffffffffffffffffffff1673ffffffffffffffffffffffffffffffffffffffff168152602001908152602001600020549050919050565b610aea6114ff565b73ffffffffffffffffffffffffffffffffffffffff16610b08610b6a565b73ffffffffffffffffffffffffffffffffffffffff1614610b5e576040517f08c379a0000000000000000000000000000000000000000000000000000000008152600401610b5590614341565b60405180910390fd5b610b686000611918565b565b6000600b60009054906101000a900473ffffffffffffffffffffffffffffffffffffffff16905090565b606060018054610ba3906146b5565b80601f0160208091040260200160405190810160405280929190818152602001828054610bcf906146b5565b8015610c1c5780601f10610bf157610100808354040283529160200191610c1c565b820191906000526020600020905b815481529060010190602001808311610bff57829003601f168201915b5050505050905090565b610c2e6114ff565b73ffffffffffffffffffffffffffffffffffffffff168273ffffffffffffffffffffffffffffffffffffffff161415610c9c576040517f08c379a0000000000000000000000000000000000000000000000000000000008152600401610c9390614261565b60405180910390fd5b8060056000610ca96114ff565b73ffffffffffffffffffffffffffffffffffffffff1673ffffffffffffffffffffffffffffffffffffffff16815260200190815260200160002060008473ffffffffffffffffffffffffffffffffffffffff1673ffffffffffffffffffffffffffffffffffffffff16815260200190815260200160002060006101000a81548160ff0219169083151502179055508173ffffffffffffffffffffffffffffffffffffffff16610d566114ff565b73ffffffffffffffffffffffffffffffffffffffff167f17307eab39ab6107e8899845ad3d59bd9653f200f220920489ca2b5937696c3183604051610d9b9190614184565b60405180910390a35050565b610db8610db26114ff565b836115c0565b610df7576040517f08c379a0000000000000000000000000000000000000000000000000000000008152600401610dee906143c1565b60405180910390fd5b610e03848484846119de565b50505050565b60606000610e3d610e1984611a3a565b604051602001610e2991906140fb565b604051602081830303815290604052611b9b565b9050610e47612d7d565b60006040518060a0016040528060628152602001615fc060629139828280610e6e90614718565b935060408110610e8157610e8061484e565b5b602002018190525060405180606001604052806027815260200161602260279139828280610eae90614718565b935060408110610ec157610ec061484e565b5b6020020181905250600c602384610ed89190614761565b81548110610ee957610ee861484e565b5b906000526020600020018054610efe906146b5565b80601f0160208091040260200160405190810160405280929190818152602001828054610f2a906146b5565b8015610f775780601f10610f4c57610100808354040283529160200191610f77565b820191906000526020600020905b815481529060010190602001808311610f5a57829003601f168201915b5050505050828280610f8890614718565b935060408110610f9b57610f9a61484e565b5b60200201819052506040518060400160405280600481526020017f22202f3e00000000000000000000000000000000000000000000000000000000815250828280610fe590614718565b935060408110610ff857610ff761484e565b5b602002018190525061100985611bce565b82828061101590614718565b9350604081106110285761102761484e565b5b602002018190525061103985611e29565b82828061104590614718565b9350604081106110585761105761484e565b5b602002018190525061106985611f4b565b82828061107590614718565b9350604081106110885761108761484e565b5b60200201819052506110998561208f565b8282806110a590614718565b9350604081106110b8576110b761484e565b5b60200201819052506110c861225c565b8282806110d490614718565b9350604081106110e7576110e661484e565b5b60200201819052506040518060400160405280600681526020017f3c2f7376673e000000000000000000000000000000000000000000000000000081525082828061113190614718565b9350604081106111445761114361484e565b5b6020020181905250600060405180602001604052806000815250905060005b828110156111b7578184826040811061117f5761117e61484e565b5b6020020151604051602001611195929190613aee565b6040516020818303038152906040529150806111b090614718565b9050611163565b5060006111f46111c688611a3a565b6111cf84612389565b6040516020016111e0929190614050565b604051602081830303815290604052612389565b90508060405160200161120791906140d9565b60405160208183030381529060405291508195505050505050919050565b6000600560008473ffffffffffffffffffffffffffffffffffffffff1673ffffffffffffffffffffffffffffffffffffffff16815260200190815260200160002060008373ffffffffffffffffffffffffffffffffffffffff1673ffffffffffffffffffffffffffffffffffffffff16815260200190815260200160002060009054906101000a900460ff16905092915050565b6112c16114ff565b73ffffffffffffffffffffffffffffffffffffffff166112df610b6a565b73ffffffffffffffffffffffffffffffffffffffff1614611335576040517f08c379a000000000000000000000000000000000000000000000000000000000815260040161132c90614341565b60405180910390fd5b600073ffffffffffffffffffffffffffffffffffffffff168173ffffffffffffffffffffffffffffffffffffffff1614156113a5576040517f08c379a000000000000000000000000000000000000000000000000000000000815260040161139c90614201565b60405180910390fd5b6113ae81611918565b50565b60007f80ac58cd000000000000000000000000000000000000000000000000000000007bffffffffffffffffffffffffffffffffffffffffffffffffffffffff1916827bffffffffffffffffffffffffffffffffffffffffffffffffffffffff1916148061147c57507f5b5e139f000000000000000000000000000000000000000000000000000000007bffffffffffffffffffffffffffffffffffffffffffffffffffffffff1916827bffffffffffffffffffffffffffffffffffffffffffffffffffffffff1916145b8061148c575061148b82612521565b5b9050919050565b60008073ffffffffffffffffffffffffffffffffffffffff166002600084815260200190815260200160002060009054906101000a900473ffffffffffffffffffffffffffffffffffffffff1673ffffffffffffffffffffffffffffffffffffffff1614159050919050565b600033905090565b816004600083815260200190815260200160002060006101000a81548173ffffffffffffffffffffffffffffffffffffffff021916908373ffffffffffffffffffffffffffffffffffffffff160217905550808273ffffffffffffffffffffffffffffffffffffffff1661157a83610978565b73ffffffffffffffffffffffffffffffffffffffff167f8c5be1e5ebec7d5bd14f71427d1e84f3dd0314c0f7b2291e5b200ac8c7c3b92560405160405180910390a45050565b60006115cb82611493565b61160a576040517f08c379a000000000000000000000000000000000000000000000000000000000815260040161160190614281565b60405180910390fd5b600061161583610978565b90508073ffffffffffffffffffffffffffffffffffffffff168473ffffffffffffffffffffffffffffffffffffffff16148061168457508373ffffffffffffffffffffffffffffffffffffffff1661166c84610503565b73ffffffffffffffffffffffffffffffffffffffff16145b8061169557506116948185611225565b5b91505092915050565b8273ffffffffffffffffffffffffffffffffffffffff166116be82610978565b73ffffffffffffffffffffffffffffffffffffffff1614611714576040517f08c379a000000000000000000000000000000000000000000000000000000000815260040161170b90614381565b60405180910390fd5b600073ffffffffffffffffffffffffffffffffffffffff168273ffffffffffffffffffffffffffffffffffffffff161415611784576040517f08c379a000000000000000000000000000000000000000000000000000000000815260040161177b90614241565b60405180910390fd5b61178f83838361258b565b61179a600082611507565b6001600360008573ffffffffffffffffffffffffffffffffffffffff1673ffffffffffffffffffffffffffffffffffffffff16815260200190815260200160002060008282546117ea91906145cb565b925050819055506001600360008473ffffffffffffffffffffffffffffffffffffffff1673ffffffffffffffffffffffffffffffffffffffff168152602001908152602001600020600082825461184191906144ea565b92505081905550816002600083815260200190815260200160002060006101000a81548173ffffffffffffffffffffffffffffffffffffffff021916908373ffffffffffffffffffffffffffffffffffffffff160217905550808273ffffffffffffffffffffffffffffffffffffffff168473ffffffffffffffffffffffffffffffffffffffff167fddf252ad1be2c89b69c2b068fc378daa952ba7f163c4a11628f55a4df523b3ef60405160405180910390a4505050565b61191482826040518060200160405280600081525061269f565b5050565b6000600b60009054906101000a900473ffffffffffffffffffffffffffffffffffffffff16905081600b60006101000a81548173ffffffffffffffffffffffffffffffffffffffff021916908373ffffffffffffffffffffffffffffffffffffffff1602179055508173ffffffffffffffffffffffffffffffffffffffff168173ffffffffffffffffffffffffffffffffffffffff167f8be0079c531659141344cd1fd0a4f28419497f9722a3daafe3b4186f6b6457e060405160405180910390a35050565b6119e984848461169e565b6119f5848484846126fa565b611a34576040517f08c379a0000000000000000000000000000000000000000000000000000000008152600401611a2b906141e1565b60405180910390fd5b50505050565b60606000821415611a82576040518060400160405280600181526020017f30000000000000000000000000000000000000000000000000000000000000008152509050611b96565b600082905060005b60008214611ab4578080611a9d90614718565b915050600a82611aad9190614540565b9150611a8a565b60008167ffffffffffffffff811115611ad057611acf61487d565b5b6040519080825280601f01601f191660200182016040528015611b025781602001600182028036833780820191505090505b5090505b60008514611b8f57600182611b1b91906145cb565b9150600a85611b2a9190614761565b6030611b3691906144ea565b60f81b818381518110611b4c57611b4b61484e565b5b60200101907effffffffffffffffffffffffffffffffffffffffffffffffffffffffffffff1916908160001a905350600a85611b889190614540565b9450611b06565b8093505050505b919050565b600081604051602001611bae9190613ad7565b6040516020818303038152906040528051906020012060001c9050919050565b60606000611c02611bde84611a3a565b604051602001611bee9190614095565b604051602081830303815290604052611b9b565b9050600060405180602001604052806000815250905080604051602001611c299190613e52565b604051602081830303815290604052905080604051602001611c4b9190613b41565b604051602081830303815290604052905080604051602001611c6d9190613efc565b604051602081830303815290604052905080604051602001611c8f9190613d64565b604051602081830303815290604052905080600c602384611cb09190614761565b81548110611cc157611cc061484e565b5b90600052602060002001604051602001611cdc929190613b85565b604051602081830303815290604052905080604051602001611cfe9190613e30565b604051602081830303815290604052905080604051602001611d209190613e0e565b604051602081830303815290604052905080604051602001611d429190613eb8565b604051602081830303815290604052905080604051602001611d649190613fc8565b604051602081830303815290604052905080604051602001611d869190613da8565b604051602081830303815290604052905080604051602001611da89190613d20565b604051602081830303815290604052905080604051602001611dca9190613cba565b604051602081830303815290604052905080604051602001611dec9190613f62565b604051602081830303815290604052905080604051602001611e0e9190613eda565b60405160208183030381529060405290508092505050919050565b60606000611e5d611e3984611a3a565b604051602001611e4991906140b7565b604051602081830303815290604052611b9b565b905060006040518060200160405280600081525090506000600283611e829190614761565b1415611eaf5780604051602001611e999190613e96565b6040516020818303038152906040529050611ef4565b80604051602001611ec09190613bb4565b604051602081830303815290604052905080604051602001611ee29190613bd6565b60405160208183030381529060405290505b80600c602384611f049190614761565b81548110611f1557611f1461484e565b5b90600052602060002001604051602001611f30929190613c5e565b60405160208183030381529060405290508092505050919050565b60606000611f7f611f5b84611a3a565b604051602001611f6b919061402e565b604051602081830303815290604052611b9b565b905060006040518060200160405280600081525090506000600283611fa49190614761565b1415611ff35780604051602001611fbb9190613e74565b604051602081830303815290604052905080604051602001611fdd9190613cdc565b6040516020818303038152906040529050612038565b806040516020016120049190613d86565b6040516020818303038152906040529050806040516020016120269190613c1a565b60405160208183030381529060405290505b80600c6023846120489190614761565b815481106120595761205861484e565b5b90600052602060002001604051602001612074929190613b12565b60405160208183030381529060405290508092505050919050565b606060006120c361209f84611a3a565b6040516020016120af919061400c565b604051602081830303815290604052611b9b565b9050600060405180602001604052806000815250905060006005836120e89190614761565b141561211557806040516020016120ff9190613d42565b6040516020818303038152906040529050612205565b60016005836121249190614761565b1415612151578060405160200161213b9190613fa6565b6040516020818303038152906040529050612204565b60026005836121609190614761565b141561218d57806040516020016121779190613f40565b6040516020818303038152906040529050612203565b600360058361219c9190614761565b14156121c957806040516020016121b39190613c3c565b6040516020818303038152906040529050612202565b60046005836121d89190614761565b141561220157806040516020016121ef9190613fea565b60405160208183030381529060405290505b5b5b5b5b80600c6023846122159190614761565b815481106122265761222561484e565b5b90600052602060002001604051602001612241929190613b12565b60405160208183030381529060405290508092505050919050565b60606000604051806020016040528060008152509050806040516020016122839190613bf8565b6040516020818303038152906040529050806040516020016122a59190613dec565b6040516020818303038152906040529050806040516020016122c79190613f1e565b6040516020818303038152906040529050806040516020016122e99190613b63565b60405160208183030381529060405290508060405160200161230b9190613f84565b60405160208183030381529060405290508060405160200161232d9190613dca565b60405160208183030381529060405290508060405160200161234f9190613cfe565b6040516020818303038152906040529050806040516020016123719190613c98565b60405160208183030381529060405290508091505090565b606060008251905060008114156123b2576040518060200160405280600081525091505061251c565b600060036002836123c391906144ea565b6123cd9190614540565b60046123d99190614571565b905060006020826123ea91906144ea565b67ffffffffffffffff8111156124035761240261487d565b5b6040519080825280601f01601f1916602001820160405280156124355781602001600182028036833780820191505090505b5090506000604051806060016040528060408152602001616049604091399050600181016020830160005b868110156124d95760038101905062ffffff818a015116603f8160121c168401518060081b905060ff603f83600c1c1686015116810190508060081b905060ff603f8360061c1686015116810190508060081b905060ff603f831686015116810190508060e01b90508084526004840193505050612460565b5060038606600181146124f357600281146125035761250e565b613d3d60f01b600283035261250e565b603d60f81b60018303525b508484525050819450505050505b919050565b60007f01ffc9a7000000000000000000000000000000000000000000000000000000007bffffffffffffffffffffffffffffffffffffffffffffffffffffffff1916827bffffffffffffffffffffffffffffffffffffffffffffffffffffffff1916149050919050565b612596838383612891565b600073ffffffffffffffffffffffffffffffffffffffff168373ffffffffffffffffffffffffffffffffffffffff1614156125d9576125d481612896565b612618565b8173ffffffffffffffffffffffffffffffffffffffff168373ffffffffffffffffffffffffffffffffffffffff16146126175761261683826128df565b5b5b600073ffffffffffffffffffffffffffffffffffffffff168273ffffffffffffffffffffffffffffffffffffffff16141561265b5761265681612a4c565b61269a565b8273ffffffffffffffffffffffffffffffffffffffff168273ffffffffffffffffffffffffffffffffffffffff1614612699576126988282612b1d565b5b5b505050565b6126a98383612b9c565b6126b660008484846126fa565b6126f5576040517f08c379a00000000000000000000000000000000000000000000000000000000081526004016126ec906141e1565b60405180910390fd5b505050565b600061271b8473ffffffffffffffffffffffffffffffffffffffff16612d6a565b15612884578373ffffffffffffffffffffffffffffffffffffffff1663150b7a026127446114ff565b8786866040518563ffffffff1660e01b81526004016127669493929190614138565b602060405180830381600087803b15801561278057600080fd5b505af19250505080156127b157506040513d601f19601f820116820180604052508101906127ae919061306e565b60015b612834573d80600081146127e1576040519150601f19603f3d011682016040523d82523d6000602084013e6127e6565b606091505b5060008151141561282c576040517f08c379a0000000000000000000000000000000000000000000000000000000008152600401612823906141e1565b60405180910390fd5b805181602001fd5b63150b7a0260e01b7bffffffffffffffffffffffffffffffffffffffffffffffffffffffff1916817bffffffffffffffffffffffffffffffffffffffffffffffffffffffff191614915050612889565b600190505b949350505050565b505050565b6008805490506009600083815260200190815260200160002081905550600881908060018154018082558091505060019003906000526020600020016000909190919091505550565b600060016128ec84610a2a565b6128f691906145cb565b90506000600760008481526020019081526020016000205490508181146129db576000600660008673ffffffffffffffffffffffffffffffffffffffff1673ffffffffffffffffffffffffffffffffffffffff168152602001908152602001600020600084815260200190815260200160002054905080600660008773ffffffffffffffffffffffffffffffffffffffff1673ffffffffffffffffffffffffffffffffffffffff168152602001908152602001600020600084815260200190815260200160002081905550816007600083815260200190815260200160002081905550505b6007600084815260200190815260200160002060009055600660008573ffffffffffffffffffffffffffffffffffffffff1673ffffffffffffffffffffffffffffffffffffffff16815260200190815260200160002060008381526020019081526020016000206000905550505050565b60006001600880549050612a6091906145cb565b9050600060096000848152602001908152602001600020549050600060088381548110612a9057612a8f61484e565b5b906000526020600020015490508060088381548110612ab257612ab161484e565b5b906000526020600020018190555081600960008381526020019081526020016000208190555060096000858152602001908152602001600020600090556008805480612b0157612b0061481f565b5b6001900381819060005260206000200160009055905550505050565b6000612b2883610a2a565b905081600660008573ffffffffffffffffffffffffffffffffffffffff1673ffffffffffffffffffffffffffffffffffffffff168152602001908152602001600020600083815260200190815260200160002081905550806007600084815260200190815260200160002081905550505050565b600073ffffffffffffffffffffffffffffffffffffffff168273ffffffffffffffffffffffffffffffffffffffff161415612c0c576040517f08c379a0000000000000000000000000000000000000000000000000000000008152600401612c0390614301565b60405180910390fd5b612c1581611493565b15612c55576040517f08c379a0000000000000000000000000000000000000000000000000000000008152600401612c4c90614221565b60405180910390fd5b612c616000838361258b565b6001600360008473ffffffffffffffffffffffffffffffffffffffff1673ffffffffffffffffffffffffffffffffffffffff1681526020019081526020016000206000828254612cb191906144ea565b92505081905550816002600083815260200190815260200160002060006101000a81548173ffffffffffffffffffffffffffffffffffffffff021916908373ffffffffffffffffffffffffffffffffffffffff160217905550808273ffffffffffffffffffffffffffffffffffffffff16600073ffffffffffffffffffffffffffffffffffffffff167fddf252ad1be2c89b69c2b068fc378daa952ba7f163c4a11628f55a4df523b3ef60405160405180910390a45050565b600080823b905060008111915050919050565b6040518061080001604052806040905b6060815260200190600190039081612d8d5790505090565b6000612db8612db384614461565b61443c565b905082815260208101848484011115612dd457612dd36148b1565b5b612ddf848285614673565b509392505050565b600081359050612df681615f63565b92915050565b600081359050612e0b81615f7a565b92915050565b600081359050612e2081615f91565b92915050565b600081519050612e3581615f91565b92915050565b600082601f830112612e5057612e4f6148ac565b5b8135612e60848260208601612da5565b91505092915050565b600081359050612e7881615fa8565b92915050565b600060208284031215612e9457612e936148bb565b5b6000612ea284828501612de7565b91505092915050565b60008060408385031215612ec257612ec16148bb565b5b6000612ed085828601612de7565b9250506020612ee185828601612de7565b9150509250929050565b600080600060608486031215612f0457612f036148bb565b5b6000612f1286828701612de7565b9350506020612f2386828701612de7565b9250506040612f3486828701612e69565b9150509250925092565b60008060008060808587031215612f5857612f576148bb565b5b6000612f6687828801612de7565b9450506020612f7787828801612de7565b9350506040612f8887828801612e69565b925050606085013567ffffffffffffffff811115612fa957612fa86148b6565b5b612fb587828801612e3b565b91505092959194509250565b60008060408385031215612fd857612fd76148bb565b5b6000612fe685828601612de7565b9250506020612ff785828601612dfc565b9150509250929050565b60008060408385031215613018576130176148bb565b5b600061302685828601612de7565b925050602061303785828601612e69565b9150509250929050565b600060208284031215613057576130566148bb565b5b600061306584828501612e11565b91505092915050565b600060208284031215613084576130836148bb565b5b600061309284828501612e26565b91505092915050565b6000602082840312156130b1576130b06148bb565b5b60006130bf84828501612e69565b91505092915050565b6130d1816145ff565b82525050565b6130e081614611565b82525050565b60006130f1826144a7565b6130fb81856144bd565b935061310b818560208601614682565b613114816148c0565b840191505092915050565b600061312a826144b2565b61313481856144ce565b9350613144818560208601614682565b61314d816148c0565b840191505092915050565b6000613163826144b2565b61316d81856144df565b935061317d818560208601614682565b80840191505092915050565b60008154613196816146b5565b6131a081866144df565b945060018216600081146131bb57600181146131cc576131ff565b60ff198316865281860193506131ff565b6131d585614492565b60005b838110156131f7578154818901526001820191506020810190506131d8565b838801955050505b50505092915050565b60006132156049836144df565b9150613220826148d1565b604982019050919050565b6000613238605e836144df565b915061324382614946565b605e82019050919050565b600061325b6024836144df565b9150613266826149bb565b602482019050919050565b600061327e6023836144df565b915061328982614a0a565b602382019050919050565b60006132a1605b836144df565b91506132ac82614a59565b605b82019050919050565b60006132c46004836144df565b91506132cf82614ace565b600482019050919050565b60006132e76036836144df565b91506132f282614af7565b603682019050919050565b600061330a602b836144ce565b915061331582614b46565b604082019050919050565b600061332d6032836144ce565b915061333882614b95565b604082019050919050565b60006133506026836144ce565b915061335b82614be4565b604082019050919050565b60006133736061836144df565b915061337e82614c33565b606182019050919050565b6000613396602a836144df565b91506133a182614cce565b602a82019050919050565b60006133b96076836144df565b91506133c482614d1d565b607682019050919050565b60006133dc601c836144ce565b91506133e782614db8565b602082019050919050565b60006133ff600f836144df565b915061340a82614de1565b600f82019050919050565b6000613422605b836144df565b915061342d82614e0a565b605b82019050919050565b60006134456045836144df565b915061345082614e7f565b604582019050919050565b6000613468602b836144df565b915061347382614ef4565b602b82019050919050565b600061348b605b836144df565b915061349682614f43565b605b82019050919050565b60006134ae604c836144df565b91506134b982614fb8565b604c82019050919050565b60006134d16045836144df565b91506134dc8261502d565b604582019050919050565b60006134f46024836144ce565b91506134ff826150a2565b604082019050919050565b60006135176019836144ce565b9150613522826150f1565b602082019050919050565b600061353a604a836144df565b91506135458261511a565b604a82019050919050565b600061355d6051836144df565b91506135688261518f565b605182019050919050565b60006135806052836144df565b915061358b82615204565b605282019050919050565b60006135a3602c836144ce565b91506135ae82615279565b604082019050919050565b60006135c66003836144df565b91506135d1826152c8565b600382019050919050565b60006135e96038836144ce565b91506135f4826152f1565b604082019050919050565b600061360c602a836144ce565b915061361782615340565b604082019050919050565b600061362f6029836144ce565b915061363a8261538f565b604082019050919050565b60006136526043836144df565b915061365d826153de565b604382019050919050565b6000613675600f836144df565b915061368082615453565b600f82019050919050565b60006136986002836144df565b91506136a38261547c565b600282019050919050565b60006136bb6058836144df565b91506136c6826154a5565b605882019050919050565b60006136de6061836144df565b91506136e98261551a565b606182019050919050565b60006137016020836144ce565b915061370c826155b5565b602082019050919050565b6000613724604c836144df565b915061372f826155de565b604c82019050919050565b60006137476004836144df565b915061375282615653565b600482019050919050565b600061376a602c836144ce565b91506137758261567c565b604082019050919050565b600061378d6020836144ce565b9150613798826156cb565b602082019050919050565b60006137b06010836144ce565b91506137bb826156f4565b602082019050919050565b60006137d36029836144ce565b91506137de8261571d565b604082019050919050565b60006137f66005836144df565b91506138018261576c565b600582019050919050565b60006138196025836144df565b915061382482615795565b602582019050919050565b600061383c6051836144df565b9150613847826157e4565b605182019050919050565b600061385f6059836144df565b915061386a82615859565b605982019050919050565b60006138826054836144df565b915061388d826158ce565b605482019050919050565b60006138a56021836144ce565b91506138b082615943565b604082019050919050565b60006138c8604c836144df565b91506138d382615992565b604c82019050919050565b60006138eb601d836144df565b91506138f682615a07565b601d82019050919050565b600061390e604a836144df565b915061391982615a30565b604a82019050919050565b60006139316031836144ce565b915061393c82615aa5565b604082019050919050565b6000613954602c836144ce565b915061395f82615af4565b604082019050919050565b60006139776052836144df565b915061398282615b43565b605282019050919050565b600061399a605e836144df565b91506139a582615bb8565b605e82019050919050565b60006139bd600a836144df565b91506139c882615c2d565b600a82019050919050565b60006139e0601f836144ce565b91506139eb82615c56565b602082019050919050565b6000613a036047836144df565b9150613a0e82615c7f565b604782019050919050565b6000613a26604a836144df565b9150613a3182615cf4565b604a82019050919050565b6000613a496058836144df565b9150613a5482615d69565b605882019050919050565b6000613a6c6041836144df565b9150613a7782615dde565b604182019050919050565b6000613a8f6043836144df565b9150613a9a82615e53565b604382019050919050565b6000613ab2607e836144df565b9150613abd82615ec8565b607e82019050919050565b613ad181614669565b82525050565b6000613ae38284613158565b915081905092915050565b6000613afa8285613158565b9150613b068284613158565b91508190509392505050565b6000613b1e8285613158565b9150613b2a8284613189565b9150613b358261324e565b91508190509392505050565b6000613b4d8284613158565b9150613b5882613208565b915081905092915050565b6000613b6f8284613158565b9150613b7a8261322b565b915081905092915050565b6000613b918285613158565b9150613b9c82613271565b9150613ba88284613189565b91508190509392505050565b6000613bc08284613158565b9150613bcb82613294565b915081905092915050565b6000613be28284613158565b9150613bed826132da565b915081905092915050565b6000613c048284613158565b9150613c0f82613366565b915081905092915050565b6000613c268284613158565b9150613c3182613389565b915081905092915050565b6000613c488284613158565b9150613c53826133ac565b915081905092915050565b6000613c6a8285613158565b9150613c75826133f2565b9150613c818284613189565b9150613c8c8261324e565b91508190509392505050565b6000613ca48284613158565b9150613caf82613415565b915081905092915050565b6000613cc68284613158565b9150613cd182613438565b915081905092915050565b6000613ce88284613158565b9150613cf38261345b565b915081905092915050565b6000613d0a8284613158565b9150613d158261347e565b915081905092915050565b6000613d2c8284613158565b9150613d37826134c4565b915081905092915050565b6000613d4e8284613158565b9150613d598261352d565b915081905092915050565b6000613d708284613158565b9150613d7b82613550565b915081905092915050565b6000613d928284613158565b9150613d9d82613573565b915081905092915050565b6000613db48284613158565b9150613dbf82613645565b915081905092915050565b6000613dd68284613158565b9150613de1826136ae565b915081905092915050565b6000613df88284613158565b9150613e03826136d1565b915081905092915050565b6000613e1a8284613158565b9150613e2582613717565b915081905092915050565b6000613e3c8284613158565b9150613e478261380c565b915081905092915050565b6000613e5e8284613158565b9150613e698261382f565b915081905092915050565b6000613e808284613158565b9150613e8b82613852565b915081905092915050565b6000613ea28284613158565b9150613ead82613875565b915081905092915050565b6000613ec48284613158565b9150613ecf826138bb565b915081905092915050565b6000613ee68284613158565b9150613ef182613901565b915081905092915050565b6000613f088284613158565b9150613f138261396a565b915081905092915050565b6000613f2a8284613158565b9150613f358261398d565b915081905092915050565b6000613f4c8284613158565b9150613f57826139f6565b915081905092915050565b6000613f6e8284613158565b9150613f7982613a19565b915081905092915050565b6000613f908284613158565b9150613f9b82613a3c565b915081905092915050565b6000613fb28284613158565b9150613fbd82613a5f565b915081905092915050565b6000613fd48284613158565b9150613fdf82613a82565b915081905092915050565b6000613ff68284613158565b915061400182613aa5565b915081905092915050565b6000614017826132b7565b91506140238284613158565b915081905092915050565b6000614039826135b9565b91506140458284613158565b915081905092915050565b600061405b82613668565b91506140678285613158565b9150614072826134a1565b915061407e8284613158565b91506140898261368b565b91508190509392505050565b60006140a08261373a565b91506140ac8284613158565b915081905092915050565b60006140c2826137e9565b91506140ce8284613158565b915081905092915050565b60006140e4826138de565b91506140f08284613158565b915081905092915050565b6000614106826139b0565b91506141128284613158565b915081905092915050565b600060208201905061413260008301846130c8565b92915050565b600060808201905061414d60008301876130c8565b61415a60208301866130c8565b6141676040830185613ac8565b818103606083015261417981846130e6565b905095945050505050565b600060208201905061419960008301846130d7565b92915050565b600060208201905081810360008301526141b9818461311f565b905092915050565b600060208201905081810360008301526141da816132fd565b9050919050565b600060208201905081810360008301526141fa81613320565b9050919050565b6000602082019050818103600083015261421a81613343565b9050919050565b6000602082019050818103600083015261423a816133cf565b9050919050565b6000602082019050818103600083015261425a816134e7565b9050919050565b6000602082019050818103600083015261427a8161350a565b9050919050565b6000602082019050818103600083015261429a81613596565b9050919050565b600060208201905081810360008301526142ba816135dc565b9050919050565b600060208201905081810360008301526142da816135ff565b9050919050565b600060208201905081810360008301526142fa81613622565b9050919050565b6000602082019050818103600083015261431a816136f4565b9050919050565b6000602082019050818103600083015261433a8161375d565b9050919050565b6000602082019050818103600083015261435a81613780565b9050919050565b6000602082019050818103600083015261437a816137a3565b9050919050565b6000602082019050818103600083015261439a816137c6565b9050919050565b600060208201905081810360008301526143ba81613898565b9050919050565b600060208201905081810360008301526143da81613924565b9050919050565b600060208201905081810360008301526143fa81613947565b9050919050565b6000602082019050818103600083015261441a816139d3565b9050919050565b60006020820190506144366000830184613ac8565b92915050565b6000614446614457565b905061445282826146e7565b919050565b6000604051905090565b600067ffffffffffffffff82111561447c5761447b61487d565b5b614485826148c0565b9050602081019050919050565b60008190508160005260206000209050919050565b600081519050919050565b600081519050919050565b600082825260208201905092915050565b600082825260208201905092915050565b600081905092915050565b60006144f582614669565b915061450083614669565b9250827fffffffffffffffffffffffffffffffffffffffffffffffffffffffffffffffff0382111561453557614534614792565b5b828201905092915050565b600061454b82614669565b915061455683614669565b925082614566576145656147c1565b5b828204905092915050565b600061457c82614669565b915061458783614669565b9250817fffffffffffffffffffffffffffffffffffffffffffffffffffffffffffffffff04831182151516156145c0576145bf614792565b5b828202905092915050565b60006145d682614669565b91506145e183614669565b9250828210156145f4576145f3614792565b5b828203905092915050565b600061460a82614649565b9050919050565b60008115159050919050565b60007fffffffff0000000000000000000000000000000000000000000000000000000082169050919050565b600073ffffffffffffffffffffffffffffffffffffffff82169050919050565b6000819050919050565b82818337600083830152505050565b60005b838110156146a0578082015181840152602081019050614685565b838111156146af576000848401525b50505050565b600060028204905060018216806146cd57607f821691505b602082108114156146e1576146e06147f0565b5b50919050565b6146f0826148c0565b810181811067ffffffffffffffff8211171561470f5761470e61487d565b5b80604052505050565b600061472382614669565b91507fffffffffffffffffffffffffffffffffffffffffffffffffffffffffffffffff82141561475657614755614792565b5b600182019050919050565b600061476c82614669565b915061477783614669565b925082614787576147866147c1565b5b828206905092915050565b7f4e487b7100000000000000000000000000000000000000000000000000000000600052601160045260246000fd5b7f4e487b7100000000000000000000000000000000000000000000000000000000600052601260045260246000fd5b7f4e487b7100000000000000000000000000000000000000000000000000000000600052602260045260246000fd5b7f4e487b7100000000000000000000000000000000000000000000000000000000600052603160045260246000fd5b7f4e487b7100000000000000000000000000000000000000000000000000000000600052603260045260246000fd5b7f4e487b7100000000000000000000000000000000000000000000000000000000600052604160045260246000fd5b600080fd5b600080fd5b600080fd5b600080fd5b6000601f19601f8301169050919050565b7f6c202d382031206c202d382031206c202d382031206c202d382031206c202d3860008201527f2034206c202d382036206c202d382038206c202d38203130206c202d3820323060208201527f206c202d38203330200000000000000000000000000000000000000000000000604082015250565b7f3c7061746820643d224d2032343120333230206c2034203230206c203420343060008201527f206c20342034302022207374796c653d2266696c6c3a206e6f6e653b2073747260208201527f6f6b653a20677265793b207374726f6b652d77696474683a203122202f3e0000604082015250565b7f3b207374726f6b653a206e6f6e653b207374726f6b652d77696474683a20302e60008201527f35222f3e00000000000000000000000000000000000000000000000000000000602082015250565b7f6c2032202d36206c2031202d342068202d36302022207374796c653d2266696c60008201527f6c3a200000000000000000000000000000000000000000000000000000000000602082015250565b7f3c7061746820643d224d2031323020323738206c202d31302031206c2031203260008201527f35206c2032203235206c202d31203235206820313330206c202d32202d32352060208201527f6c202d32202d3235206c202d32202d3235206c202d3130202d31200000000000604082015250565b7f4845414400000000000000000000000000000000000000000000000000000000600082015250565b7f762032352061203532203532203020302031202d35322034302061203532203560008201527f32203020302031202d3532202d34302076202d32352000000000000000000000602082015250565b7f455243373231456e756d657261626c653a206f776e657220696e646578206f7560008201527f74206f6620626f756e6473000000000000000000000000000000000000000000602082015250565b7f4552433732313a207472616e7366657220746f206e6f6e20455243373231526560008201527f63656976657220696d706c656d656e7465720000000000000000000000000000602082015250565b7f4f776e61626c653a206e6577206f776e657220697320746865207a65726f206160008201527f6464726573730000000000000000000000000000000000000000000000000000602082015250565b7f3c7061746820643d224d2031303020333230206c202d34203230206c202d342060008201527f3430206c202d342034302022207374796c653d2266696c6c3a206e6f6e653b2060208201527f7374726f6b653a20677265793b207374726f6b652d77696474683a203122202f60408201527f3e00000000000000000000000000000000000000000000000000000000000000606082015250565b7f6c202d3330203130206c202d32302030206c202d3330202d313020222073747960008201527f6c653d2266696c6c3a2000000000000000000000000000000000000000000000602082015250565b7f3c7061746820643d224d2031313020313830206120363020363020302030203060008201527f2036302036302061203630203630203020302030203630202d3630206120363060208201527f203630203020302030202d3630202d363020612036302036302030203020302060408201527f2d36302036302022207374796c653d2266696c6c3a2000000000000000000000606082015250565b7f4552433732313a20746f6b656e20616c7265616479206d696e74656400000000600082015250565b7f22207374796c653d2266696c6c3a200000000000000000000000000000000000600082015250565b7f3c7061746820643d224d2032383020323836206c202d3230203135206c202d3260008201527f302032302022207374796c653d2266696c6c3a20677265793b207374726f6b6560208201527f3a20677265793b207374726f6b652d77696474683a203122202f3e0000000000604082015250565b7f3c7061746820643d224d20323130203237372068202d3132206c202d3130203260008201527f22207374796c653d2266696c6c3a206e6f6e653b207374726f6b653a2067726560208201527f7922202f3e000000000000000000000000000000000000000000000000000000604082015250565b7f6c2035202d353020612035302035203020302031202d3438202d35202220737460008201527f796c653d2266696c6c3a20000000000000000000000000000000000000000000602082015250565b7f3c7061746820643d224d2032383020323835206c202d3230203135206c202d3260008201527f302032302022207374796c653d2266696c6c3a20677265793b207374726f6b6560208201527f3a20677265793b207374726f6b652d77696474683a203122202f3e0000000000604082015250565b7f222c20226465736372697074696f6e223a2022426f78656420696e204d65746160008201527f7665727365222c2022696d616765223a2022646174613a696d6167652f73766760208201527f2b786d6c3b6261736536342c0000000000000000000000000000000000000000604082015250565b7f3c7061746820643d224d20323130203237352068202d3130206c202d3130203260008201527f22207374796c653d2266696c6c3a206e6f6e653b207374726f6b653a2067726560208201527f7922202f3e000000000000000000000000000000000000000000000000000000604082015250565b7f4552433732313a207472616e7366657220746f20746865207a65726f2061646460008201527f7265737300000000000000000000000000000000000000000000000000000000602082015250565b7f4552433732313a20617070726f766520746f2063616c6c657200000000000000600082015250565b7f3c7061746820643d224d2031303020313230206c20313020313230206c20313260008201527f30202d3130206c202d3130202d313230206c202d31323020313020222073747960208201527f6c653d2266696c6c3a2000000000000000000000000000000000000000000000604082015250565b7f6c202d38202d31206c202d38202d31206c202d38202d31206c202d38202d312060008201527f6c202d38202d31206c202d34202d34206c202d34202d3130206c202d32202d3860208201527f206c202d32202d3130206c2030202d3820000000000000000000000000000000604082015250565b7f3c7061746820643d224d2031333020323735206120353020353020302030203060008201527f2030203330206c203330202d3130206c2032302030206c20333020313020612060208201527f35302035302030203020302030202d3330200000000000000000000000000000604082015250565b7f4552433732313a206f70657261746f7220717565727920666f72206e6f6e657860008201527f697374656e7420746f6b656e0000000000000000000000000000000000000000602082015250565b7f5449450000000000000000000000000000000000000000000000000000000000600082015250565b7f4552433732313a20617070726f76652063616c6c6572206973206e6f74206f7760008201527f6e6572206e6f7220617070726f76656420666f7220616c6c0000000000000000602082015250565b7f4552433732313a2062616c616e636520717565727920666f7220746865207a6560008201527f726f206164647265737300000000000000000000000000000000000000000000602082015250565b7f4552433732313a206f776e657220717565727920666f72206e6f6e657869737460008201527f656e7420746f6b656e0000000000000000000000000000000000000000000000602082015250565b7f3c7061746820643d224d20313330203237372068203132206c2031302032222060008201527f7374796c653d2266696c6c3a206e6f6e653b207374726f6b653a20677265792260208201527f202f3e0000000000000000000000000000000000000000000000000000000000604082015250565b7f7b226e616d65223a2022426f7820230000000000000000000000000000000000600082015250565b7f227d000000000000000000000000000000000000000000000000000000000000600082015250565b7f3c7061746820643d224d20353820323836206c203230203135206c203230203260008201527f302022207374796c653d2266696c6c3a20677265793b207374726f6b653a206760208201527f7265793b207374726f6b652d77696474683a203122202f3e0000000000000000604082015250565b7f3c7061746820643d224d2031303120333230206c202d34203230206c202d342060008201527f3430206c202d342034302022207374796c653d2266696c6c3a206e6f6e653b2060208201527f7374726f6b653a20677265793b207374726f6b652d77696474683a203122202f60408201527f3e00000000000000000000000000000000000000000000000000000000000000606082015250565b7f4552433732313a206d696e7420746f20746865207a65726f2061646472657373600082015250565b7f3c7061746820643d224d20363020333230206c202d342034206c202d3420362060008201527f6c202d3420382022207374796c653d2266696c6c3a206e6f6e653b207374726f60208201527f6b653a206772657922202f3e0000000000000000000000000000000000000000604082015250565b7f424f445900000000000000000000000000000000000000000000000000000000600082015250565b7f4552433732313a20617070726f76656420717565727920666f72206e6f6e657860008201527f697374656e7420746f6b656e0000000000000000000000000000000000000000602082015250565b7f4f776e61626c653a2063616c6c6572206973206e6f7420746865206f776e6572600082015250565b7f546f6b656e20494420696e76616c696400000000000000000000000000000000600082015250565b7f4552433732313a207472616e73666572206f6620746f6b656e2074686174206960008201527f73206e6f74206f776e0000000000000000000000000000000000000000000000602082015250565b7f5348495254000000000000000000000000000000000000000000000000000000600082015250565b7f3b207374726f6b653a20677265793b207374726f6b652d77696474683a20302e60008201527f3522202f3e000000000000000000000000000000000000000000000000000000602082015250565b7f3c7061746820643d224d2031343020323235206c20312034206c20322036206c60008201527f20302038206c202d32203130206c202d322038206c202d34203130206c202d3460208201527f2034206c202d382031206c202d38203120000000000000000000000000000000604082015250565b7f3c7061746820643d224d2031333020323730206120353020352030203020302060008201527f38352030206c203130203520612035302035203020302031202d34352035206c60208201527f2035203530206c202d3135203130206c202d3135202d31302000000000000000604082015250565b7f3c7061746820643d224d2031373020333030206c202d3430202d3330206c202d60008201527f3732203135206c202d32352037302068203237352030206c202d3330202d373060208201527f206c202d3732202d3135206c202d343020333020000000000000000000000000604082015250565b7f4552433732313a20617070726f76616c20746f2063757272656e74206f776e6560008201527f7200000000000000000000000000000000000000000000000000000000000000602082015250565b7f3c7061746820643d224d20363020333235206c202d342034206c202d3420362060008201527f6c202d3420382022207374796c653d2266696c6c3a206e6f6e653b207374726f60208201527f6b653a206772657922202f3e0000000000000000000000000000000000000000604082015250565b7f646174613a6170706c69636174696f6e2f6a736f6e3b6261736536342c000000600082015250565b7f3c7061746820643d224d2032383020333235206c20342034206c20342036206c60008201527f203420382022207374796c653d2266696c6c3a206e6f6e653b207374726f6b6560208201527f3a206772657922202f3e00000000000000000000000000000000000000000000604082015250565b7f4552433732313a207472616e736665722063616c6c6572206973206e6f74206f60008201527f776e6572206e6f7220617070726f766564000000000000000000000000000000602082015250565b7f455243373231456e756d657261626c653a20676c6f62616c20696e646578206f60008201527f7574206f6620626f756e64730000000000000000000000000000000000000000602082015250565b7f6c202d38203430206820323835206c202d38202d3430206c202d38202d33302060008201527f6c202d38202d3230206c202d38202d3130206c202d38202d38206c202d38202d60208201527f36206c202d38202d34206c202d38202d31200000000000000000000000000000604082015250565b7f3c7061746820643d224d2032343020333230206c2034203230206c203420343060008201527f206c20342034302022207374796c653d2266696c6c3a206e6f6e653b2073747260208201527f6f6b653a20677265793b207374726f6b652d77696474683a203122202f3e0000604082015250565b7f4241434b47524f554e4400000000000000000000000000000000000000000000600082015250565b7f5265656e7472616e637947756172643a207265656e7472616e742063616c6c00600082015250565b7f3c7061746820643d224d20383020323335206c20313830202d3130206c202d3160008201527f30202d3930206c202d313830203130206c2031302039302022207374796c653d60208201527f2266696c6c3a2000000000000000000000000000000000000000000000000000604082015250565b7f3c7061746820643d224d2032383020333230206c20342034206c20342036206c60008201527f203420382022207374796c653d2266696c6c3a206e6f6e653b207374726f6b6560208201527f3a206772657922202f3e00000000000000000000000000000000000000000000604082015250565b7f3c7061746820643d224d20353820323835206c203230203135206c203230203260008201527f302022207374796c653d2266696c6c3a20677265793b207374726f6b653a206760208201527f7265793b207374726f6b652d77696474683a203122202f3e0000000000000000604082015250565b7f3c7061746820643d224d2031303020323335206c20313430202d3130206c202d60008201527f3830202d313230206c202d3535203132302022207374796c653d2266696c6c3a60208201527f2000000000000000000000000000000000000000000000000000000000000000604082015250565b7f3c7061746820643d224d20313330203237352068203130206c2031302032222060008201527f7374796c653d2266696c6c3a206e6f6e653b207374726f6b653a20677265792260208201527f202f3e0000000000000000000000000000000000000000000000000000000000604082015250565b7f3c7061746820643d224d20313035203136302061203630203830202d3130203060008201527f20302036302038302061203630203830202d313020302030203630202d38302060208201527f61203630203830202d313020302030202d3630202d383020612036302038302060408201527f2d313020302030202d36302038302022207374796c653d2266696c6c3a200000606082015250565b615f6c816145ff565b8114615f7757600080fd5b50565b615f8381614611565b8114615f8e57600080fd5b50565b615f9a8161461d565b8114615fa557600080fd5b50565b615fb181614669565b8114615fbc57600080fd5b5056fe3c73766720786d6c6e733d22687474703a2f2f7777772e77332e6f72672f323030302f73766722207072657365727665417370656374526174696f3d22784d696e594d696e206d656574222076696577426f783d223020302033353020333530223e3c726563742077696474683d223130302522206865696768743d2231303025222066696c6c3d224142434445464748494a4b4c4d4e4f505152535455565758595a6162636465666768696a6b6c6d6e6f707172737475767778797a303132333435363738392b2fa2646970667358221220777be76a92a9423715eb59f1ae3f7ff031b2ed8a14571c5f6237f9e19912546b64736f6c63430008070033",
  "immutableReferences": {},
  "source": "// SPDX-License-Identifier: MIT\n\npragma solidity ^0.8.0;\n\nimport \"./FullERC721.sol\";\n\ncontract MetaBox is ERC721Enumerable, ReentrancyGuard, Ownable {\n\n    constructor() ERC721(\"MetaBox\", \"METABOX\") Ownable() {\n\t}\n\n    string[] private _colors = [\n            \"coral\",\n            \"lightcoral\",\n            \"lightgreen\",\n            \"lightsteelblue\",\n            \"linen\",\n            \"navajowhite\",\n            \"palegoldenrod\",\n            \"turquoise\",\n            \"beige\",\n            \"cornflowerblue\",\n            \"darksalmon\",\n            \"deepskyblue\",\n            \"honeydew\",\n            \"hotpink\",\n            \"ivory\",\n            \"lightcyan\",\n            \"lightyellow\",\n            \"peachpuff\",\n            \"palegreen\",\n            \"bisque\",\n            \"darkcyan\",\n            \"darkseagreen\",\n            \"darkturquoise\",\n            \"mediumturquoise\",\n            \"dodgerblue\",\n            \"lightseagreen\",\n            \"lightsalmon\",\n            \"olive\",\n            \"steelblue\",\n            \"crimson\",\n            \"aqua\",\n            \"aquamarine\",\n            \"orangered\",\n            \"gold\",\n            \"silver\"\n                    ];\n\n    function random(string memory input) internal pure returns (uint256) {\n        return uint256(keccak256(abi.encodePacked(input)));\n    }\n\n    function pluckHead(uint256 tokenId) internal view returns (string memory) {\n        uint256 rand = random(string(abi.encodePacked(\"HEAD\", Strings.toString(tokenId))));\n        string memory str = \"\";\n        if(rand%5 == 0) {\n            str = string(abi.encodePacked(str, '<path d=\"M 100 120 l 10 120 l 120 -10 l -10 -120 l -120 10 \" style=\"fill: '));\n        }\n        else if(rand%5 == 1) {\n            str = string(abi.encodePacked(str, '<path d=\"M 100 235 l 140 -10 l -80 -120 l -55 120 \" style=\"fill: '));\n        }\n        else if(rand%5 == 2) {\n            str = string(abi.encodePacked(str, '<path d=\"M 80 235 l 180 -10 l -10 -90 l -180 10 l 10 90 \" style=\"fill: '));\n        }\n        else if(rand%5 == 3) {\n            str = string(abi.encodePacked(str, '<path d=\"M 110 180 a 60 60 0 0 0 60 60 a 60 60 0 0 0 60 -60 a 60 60 0 0 0 -60 -60 a 60 60 0 0 0 -60 60 \" style=\"fill: '));\n        }\n        else if(rand%5 == 4) {\n            str = string(abi.encodePacked(str, '<path d=\"M 105 160 a 60 80 -10 0 0 60 80 a 60 80 -10 0 0 60 -80 a 60 80 -10 0 0 -60 -80 a 60 80 -10 0 0 -60 80 \" style=\"fill: '));\n        }\n        str = string(abi.encodePacked(str, _colors[rand%35], '; stroke: none; stroke-width: 0.5\"/>'));\n        return str;\n    }\n\n    function pluckTie(uint256 tokenId) internal view returns (string memory) {\n        uint256 rand = random(string(abi.encodePacked(\"TIE\", Strings.toString(tokenId))));\n        string memory str = \"\";\n        if(rand%2 == 0) {\n            str = string(abi.encodePacked(str, '<path d=\"M 130 270 a 50 5 0 0 0 85 0 l 10 5 a 50 5 0 0 1 -45 5 l 5 50 l -15 10 l -15 -10 '));\n            str = string(abi.encodePacked(str, 'l 5 -50 a 50 5 0 0 1 -48 -5 \" style=\"fill: '));\n        }\n        else {\n            str = string(abi.encodePacked(str, '<path d=\"M 130 275 a 50 50 0 0 0 0 30 l 30 -10 l 20 0 l 30 10 a 50 50 0 0 0 0 -30 '));\n            str = string(abi.encodePacked(str, 'l -30 10 l -20 0 l -30 -10 \" style=\"fill: '));\n        }\n        str = string(abi.encodePacked(str, _colors[rand%35], '; stroke: none; stroke-width: 0.5\"/>'));\n        return str;\n    }\n\n    function pluckShirt(uint256 tokenId) internal view returns (string memory) {\n        uint256 rand = random(string(abi.encodePacked(\"SHIRT\", Strings.toString(tokenId))));\n        string memory str = \"\";\n        if(rand%2 == 0) {\n            str = string(abi.encodePacked(str, '<path d=\"M 170 300 l -40 -30 l -72 15 l -25 70 h 275 0 l -30 -70 l -72 -15 l -40 30 '));\n        }\n        else {\n            str = string(abi.encodePacked(str, '<path d=\"M 120 278 l -10 1 l 1 25 l 2 25 l -1 25 h 130 l -2 -25 l -2 -25 l -2 -25 l -10 -1 '));\n            str = string(abi.encodePacked(str, 'v 25 a 52 52 0 0 1 -52 40 a 52 52 0 0 1 -52 -40 v -25 '));\n        }\n        str = string(abi.encodePacked(str, '\" style=\"fill: ', _colors[rand%35], '; stroke: none; stroke-width: 0.5\"/>'));\n        return str;\n    }\n\n    function pluckBody(uint256 tokenId) internal view returns (string memory) {\n        uint256 rand = random(string(abi.encodePacked(\"BODY\", Strings.toString(tokenId))));\n        string memory str = \"\";\n        str = string(abi.encodePacked(str, '<path d=\"M 140 225 l 1 4 l 2 6 l 0 8 l -2 10 l -2 8 l -4 10 l -4 4 l -8 1 l -8 1 '));\n        str = string(abi.encodePacked(str, 'l -8 1 l -8 1 l -8 1 l -8 1 l -8 4 l -8 6 l -8 8 l -8 10 l -8 20 l -8 30 '));\n        str = string(abi.encodePacked(str, 'l -8 40 h 285 l -8 -40 l -8 -30 l -8 -20 l -8 -10 l -8 -8 l -8 -6 l -8 -4 l -8 -1 '));\n        str = string(abi.encodePacked(str, 'l -8 -1 l -8 -1 l -8 -1 l -8 -1 l -8 -1 l -4 -4 l -4 -10 l -2 -8 l -2 -10 l 0 -8 '));\n        str = string(abi.encodePacked(str, 'l 2 -6 l 1 -4 h -60 \" style=\"fill: ', _colors[rand%35]));\n        str = string(abi.encodePacked(str, '; stroke: grey; stroke-width: 0.5\" />'));\n\n        str = string(abi.encodePacked(str, '<path d=\"M 60 320 l -4 4 l -4 6 l -4 8 \" style=\"fill: none; stroke: grey\" />'));\n        str = string(abi.encodePacked(str, '<path d=\"M 60 325 l -4 4 l -4 6 l -4 8 \" style=\"fill: none; stroke: grey\" />'));\n        str = string(abi.encodePacked(str, '<path d=\"M 130 275 h 10 l 10 2\" style=\"fill: none; stroke: grey\" />'));\n        str = string(abi.encodePacked(str, '<path d=\"M 130 277 h 12 l 10 2\" style=\"fill: none; stroke: grey\" />'));\n        str = string(abi.encodePacked(str, '<path d=\"M 210 275 h -10 l -10 2\" style=\"fill: none; stroke: grey\" />'));\n        str = string(abi.encodePacked(str, '<path d=\"M 210 277 h -12 l -10 2\" style=\"fill: none; stroke: grey\" />'));\n        str = string(abi.encodePacked(str, '<path d=\"M 280 320 l 4 4 l 4 6 l 4 8 \" style=\"fill: none; stroke: grey\" />'));\n        str = string(abi.encodePacked(str, '<path d=\"M 280 325 l 4 4 l 4 6 l 4 8 \" style=\"fill: none; stroke: grey\" />'));\n\n        return str;\n    }\n\n    function addArmpits() internal pure returns (string memory) {\n        string memory str = \"\";\n        str = string(abi.encodePacked(str, '<path d=\"M 100 320 l -4 20 l -4 40 l -4 40 \" style=\"fill: none; stroke: grey; stroke-width: 1\" />'));\n        str = string(abi.encodePacked(str, '<path d=\"M 101 320 l -4 20 l -4 40 l -4 40 \" style=\"fill: none; stroke: grey; stroke-width: 1\" />'));\n        str = string(abi.encodePacked(str, '<path d=\"M 240 320 l 4 20 l 4 40 l 4 40 \" style=\"fill: none; stroke: grey; stroke-width: 1\" />'));\n        str = string(abi.encodePacked(str, '<path d=\"M 241 320 l 4 20 l 4 40 l 4 40 \" style=\"fill: none; stroke: grey; stroke-width: 1\" />'));\n        str = string(abi.encodePacked(str, '<path d=\"M 58 285 l 20 15 l 20 20 \" style=\"fill: grey; stroke: grey; stroke-width: 1\" />'));\n        str = string(abi.encodePacked(str, '<path d=\"M 58 286 l 20 15 l 20 20 \" style=\"fill: grey; stroke: grey; stroke-width: 1\" />'));\n        str = string(abi.encodePacked(str, '<path d=\"M 280 285 l -20 15 l -20 20 \" style=\"fill: grey; stroke: grey; stroke-width: 1\" />'));\n        str = string(abi.encodePacked(str, '<path d=\"M 280 286 l -20 15 l -20 20 \" style=\"fill: grey; stroke: grey; stroke-width: 1\" />'));\n        return str;\n    }\n\n    function tokenURI(uint256 tokenId) override public view returns (string memory) {\n        uint256 rand = random(string(abi.encodePacked(\"BACKGROUND\", Strings.toString(tokenId))));\n\n        string[64] memory parts;\n\t\tuint256 counter = 0;\n        parts[counter++] = '<svg xmlns=\"http://www.w3.org/2000/svg\" preserveAspectRatio=\"xMinYMin meet\" viewBox=\"0 0 350 350\">';\n\t\tparts[counter++] = '<rect width=\"100%\" height=\"100%\" fill=\"';\n        parts[counter++] = _colors[rand%35];\n        parts[counter++] = '\" />';\n        parts[counter++] = pluckBody(tokenId);\n        parts[counter++] = pluckShirt(tokenId);\n        parts[counter++] = pluckTie(tokenId);\n        parts[counter++] = pluckHead(tokenId);\n        parts[counter++] = addArmpits();\n        parts[counter++] = '</svg>';\n\n        string memory output = \"\";\n\t\tfor(uint256 i = 0; i < counter; ++i)\n\t\t{\n\t\t\toutput = string(abi.encodePacked(output, parts[i]));\n\t\t}\n\n        string memory json = Base64.encode(bytes(string(abi.encodePacked('{\"name\": \"Box #', Strings.toString(tokenId), '\", \"description\": \"Boxed in Metaverse\", \"image\": \"data:image/svg+xml;base64,', Base64.encode(bytes(output)), '\"}'))));\n        output = string(abi.encodePacked('data:application/json;base64,', json));\n\n        return output;\n    }\n\n    function mintPlayer(uint256 tokenId) public nonReentrant onlyOwner {\n        require(tokenId > 0 && tokenId < 129, \"Token ID invalid\");\n        _safeMint(owner(), tokenId);\n    }\n}\n",
  "sourcePath": "/Users/phanimukkamala/Documents/solidity/fcc-dapp/src/contracts/MetaBox.sol",
  "compiler": {
    "name": "solc",
    "version": "0.8.7+commit.e28d00a7.Emscripten.clang"
  },
  "schemaVersion": "3.4.3",
  "updatedAt": "2021-12-29T10:42:12.222Z",
  "devdoc": {
    "kind": "dev",
    "methods": {
      "approve(address,uint256)": {
        "details": "See {IERC721-approve}."
      },
      "balanceOf(address)": {
        "details": "See {IERC721-balanceOf}."
      },
      "getApproved(uint256)": {
        "details": "See {IERC721-getApproved}."
      },
      "isApprovedForAll(address,address)": {
        "details": "See {IERC721-isApprovedForAll}."
      },
      "name()": {
        "details": "See {IERC721Metadata-name}."
      },
      "owner()": {
        "details": "Returns the address of the current owner."
      },
      "ownerOf(uint256)": {
        "details": "See {IERC721-ownerOf}."
      },
      "renounceOwnership()": {
        "details": "Leaves the contract without owner. It will not be possible to call `onlyOwner` functions anymore. Can only be called by the current owner. NOTE: Renouncing ownership will leave the contract without an owner, thereby removing any functionality that is only available to the owner."
      },
      "safeTransferFrom(address,address,uint256)": {
        "details": "See {IERC721-safeTransferFrom}."
      },
      "safeTransferFrom(address,address,uint256,bytes)": {
        "details": "See {IERC721-safeTransferFrom}."
      },
      "setApprovalForAll(address,bool)": {
        "details": "See {IERC721-setApprovalForAll}."
      },
      "supportsInterface(bytes4)": {
        "details": "See {IERC165-supportsInterface}."
      },
      "symbol()": {
        "details": "See {IERC721Metadata-symbol}."
      },
      "tokenByIndex(uint256)": {
        "details": "See {IERC721Enumerable-tokenByIndex}."
      },
      "tokenOfOwnerByIndex(address,uint256)": {
        "details": "See {IERC721Enumerable-tokenOfOwnerByIndex}."
      },
      "tokenURI(uint256)": {
        "details": "See {IERC721Metadata-tokenURI}."
      },
      "totalSupply()": {
        "details": "See {IERC721Enumerable-totalSupply}."
      },
      "transferFrom(address,address,uint256)": {
        "details": "See {IERC721-transferFrom}."
      },
      "transferOwnership(address)": {
        "details": "Transfers ownership of the contract to a new account (`newOwner`). Can only be called by the current owner."
      }
    },
    "version": 1
  },
  "userdoc": {
    "kind": "user",
    "methods": {},
    "version": 1
  }
}