{
  "contractName": "NFTLaunchPad",
  "abi": [
    {
      "inputs": [],
      "stateMutability": "nonpayable",
      "type": "constructor"
    },
    {
      "anonymous": false,
      "inputs": [
        {
          "indexed": true,
          "internalType": "address",
          "name": "owner",
          "type": "address"
        },
        {
          "indexed": true,
          "internalType": "address",
          "name": "approved",
          "type": "address"
        },
        {
          "indexed": true,
          "internalType": "uint256",
          "name": "tokenId",
          "type": "uint256"
        }
      ],
      "name": "Approval",
      "type": "event"
    },
    {
      "anonymous": false,
      "inputs": [
        {
          "indexed": true,
          "internalType": "address",
          "name": "owner",
          "type": "address"
        },
        {
          "indexed": true,
          "internalType": "address",
          "name": "operator",
          "type": "address"
        },
        {
          "indexed": false,
          "internalType": "bool",
          "name": "approved",
          "type": "bool"
        }
      ],
      "name": "ApprovalForAll",
      "type": "event"
    },
    {
      "anonymous": false,
      "inputs": [
        {
          "indexed": true,
          "internalType": "address",
          "name": "previousOwner",
          "type": "address"
        },
        {
          "indexed": true,
          "internalType": "address",
          "name": "newOwner",
          "type": "address"
        }
      ],
      "name": "OwnershipTransferred",
      "type": "event"
    },
    {
      "anonymous": false,
      "inputs": [
        {
          "indexed": true,
          "internalType": "address",
          "name": "from",
          "type": "address"
        },
        {
          "indexed": true,
          "internalType": "address",
          "name": "to",
          "type": "address"
        },
        {
          "indexed": true,
          "internalType": "uint256",
          "name": "tokenId",
          "type": "uint256"
        }
      ],
      "name": "Transfer",
      "type": "event"
    },
    {
      "inputs": [],
      "name": "_maxSupply",
      "outputs": [
        {
          "internalType": "uint256",
          "name": "",
          "type": "uint256"
        }
      ],
      "stateMutability": "view",
      "type": "function"
    },
    {
      "inputs": [],
      "name": "_paused",
      "outputs": [
        {
          "internalType": "bool",
          "name": "",
          "type": "bool"
        }
      ],
      "stateMutability": "view",
      "type": "function"
    },
    {
      "inputs": [],
      "name": "_price",
      "outputs": [
        {
          "internalType": "uint256",
          "name": "",
          "type": "uint256"
        }
      ],
      "stateMutability": "view",
      "type": "function"
    },
    {
      "inputs": [
        {
          "internalType": "address",
          "name": "to",
          "type": "address"
        },
        {
          "internalType": "uint256",
          "name": "tokenId",
          "type": "uint256"
        }
      ],
      "name": "approve",
      "outputs": [],
      "stateMutability": "nonpayable",
      "type": "function"
    },
    {
      "inputs": [
        {
          "internalType": "address",
          "name": "owner",
          "type": "address"
        }
      ],
      "name": "balanceOf",
      "outputs": [
        {
          "internalType": "uint256",
          "name": "",
          "type": "uint256"
        }
      ],
      "stateMutability": "view",
      "type": "function"
    },
    {
      "inputs": [
        {
          "internalType": "uint256",
          "name": "tokenId",
          "type": "uint256"
        }
      ],
      "name": "getApproved",
      "outputs": [
        {
          "internalType": "address",
          "name": "",
          "type": "address"
        }
      ],
      "stateMutability": "view",
      "type": "function"
    },
    {
      "inputs": [
        {
          "internalType": "address",
          "name": "owner",
          "type": "address"
        },
        {
          "internalType": "address",
          "name": "operator",
          "type": "address"
        }
      ],
      "name": "isApprovedForAll",
      "outputs": [
        {
          "internalType": "bool",
          "name": "",
          "type": "bool"
        }
      ],
      "stateMutability": "view",
      "type": "function"
    },
    {
      "inputs": [],
      "name": "name",
      "outputs": [
        {
          "internalType": "string",
          "name": "",
          "type": "string"
        }
      ],
      "stateMutability": "view",
      "type": "function"
    },
    {
      "inputs": [],
      "name": "owner",
      "outputs": [
        {
          "internalType": "address",
          "name": "",
          "type": "address"
        }
      ],
      "stateMutability": "view",
      "type": "function"
    },
    {
      "inputs": [
        {
          "internalType": "uint256",
          "name": "tokenId",
          "type": "uint256"
        }
      ],
      "name": "ownerOf",
      "outputs": [
        {
          "internalType": "address",
          "name": "",
          "type": "address"
        }
      ],
      "stateMutability": "view",
      "type": "function"
    },
    {
      "inputs": [],
      "name": "renounceOwnership",
      "outputs": [],
      "stateMutability": "nonpayable",
      "type": "function"
    },
    {
      "inputs": [
        {
          "internalType": "address",
          "name": "from",
          "type": "address"
        },
        {
          "internalType": "address",
          "name": "to",
          "type": "address"
        },
        {
          "internalType": "uint256",
          "name": "tokenId",
          "type": "uint256"
        }
      ],
      "name": "safeTransferFrom",
      "outputs": [],
      "stateMutability": "nonpayable",
      "type": "function"
    },
    {
      "inputs": [
        {
          "internalType": "address",
          "name": "from",
          "type": "address"
        },
        {
          "internalType": "address",
          "name": "to",
          "type": "address"
        },
        {
          "internalType": "uint256",
          "name": "tokenId",
          "type": "uint256"
        },
        {
          "internalType": "bytes",
          "name": "_data",
          "type": "bytes"
        }
      ],
      "name": "safeTransferFrom",
      "outputs": [],
      "stateMutability": "nonpayable",
      "type": "function"
    },
    {
      "inputs": [
        {
          "internalType": "address",
          "name": "operator",
          "type": "address"
        },
        {
          "internalType": "bool",
          "name": "approved",
          "type": "bool"
        }
      ],
      "name": "setApprovalForAll",
      "outputs": [],
      "stateMutability": "nonpayable",
      "type": "function"
    },
    {
      "inputs": [
        {
          "internalType": "bytes4",
          "name": "interfaceId",
          "type": "bytes4"
        }
      ],
      "name": "supportsInterface",
      "outputs": [
        {
          "internalType": "bool",
          "name": "",
          "type": "bool"
        }
      ],
      "stateMutability": "view",
      "type": "function"
    },
    {
      "inputs": [],
      "name": "symbol",
      "outputs": [
        {
          "internalType": "string",
          "name": "",
          "type": "string"
        }
      ],
      "stateMutability": "view",
      "type": "function"
    },
    {
      "inputs": [
        {
          "internalType": "uint256",
          "name": "index",
          "type": "uint256"
        }
      ],
      "name": "tokenByIndex",
      "outputs": [
        {
          "internalType": "uint256",
          "name": "",
          "type": "uint256"
        }
      ],
      "stateMutability": "view",
      "type": "function"
    },
    {
      "inputs": [
        {
          "internalType": "address",
          "name": "owner",
          "type": "address"
        },
        {
          "internalType": "uint256",
          "name": "index",
          "type": "uint256"
        }
      ],
      "name": "tokenOfOwnerByIndex",
      "outputs": [
        {
          "internalType": "uint256",
          "name": "",
          "type": "uint256"
        }
      ],
      "stateMutability": "view",
      "type": "function"
    },
    {
      "inputs": [],
      "name": "totalSupply",
      "outputs": [
        {
          "internalType": "uint256",
          "name": "",
          "type": "uint256"
        }
      ],
      "stateMutability": "view",
      "type": "function"
    },
    {
      "inputs": [
        {
          "internalType": "address",
          "name": "from",
          "type": "address"
        },
        {
          "internalType": "address",
          "name": "to",
          "type": "address"
        },
        {
          "internalType": "uint256",
          "name": "tokenId",
          "type": "uint256"
        }
      ],
      "name": "transferFrom",
      "outputs": [],
      "stateMutability": "nonpayable",
      "type": "function"
    },
    {
      "inputs": [
        {
          "internalType": "address",
          "name": "newOwner",
          "type": "address"
        }
      ],
      "name": "transferOwnership",
      "outputs": [],
      "stateMutability": "nonpayable",
      "type": "function"
    },
    {
      "inputs": [
        {
          "internalType": "uint256",
          "name": "tokenId",
          "type": "uint256"
        }
      ],
      "name": "tokenURI",
      "outputs": [
        {
          "internalType": "string",
          "name": "",
          "type": "string"
        }
      ],
      "stateMutability": "view",
      "type": "function"
    },
    {
      "inputs": [],
      "name": "nextAvailableToken",
      "outputs": [
        {
          "internalType": "uint256",
          "name": "",
          "type": "uint256"
        }
      ],
      "stateMutability": "view",
      "type": "function"
    },
    {
      "inputs": [
        {
          "internalType": "uint256",
          "name": "tokenId",
          "type": "uint256"
        }
      ],
      "name": "mint",
      "outputs": [],
      "stateMutability": "payable",
      "type": "function"
    },
    {
      "inputs": [
        {
          "internalType": "uint256",
          "name": "tokenId",
          "type": "uint256"
        },
        {
          "internalType": "string",
          "name": "_tokenURI",
          "type": "string"
        }
      ],
      "name": "setTokenURI",
      "outputs": [],
      "stateMutability": "nonpayable",
      "type": "function"
    },
    {
      "inputs": [
        {
          "internalType": "uint256",
          "name": "newVal",
          "type": "uint256"
        }
      ],
      "name": "setMaxSupply",
      "outputs": [],
      "stateMutability": "nonpayable",
      "type": "function"
    },
    {
      "inputs": [
        {
          "internalType": "uint256",
          "name": "_newPrice",
          "type": "uint256"
        }
      ],
      "name": "setPrice",
      "outputs": [],
      "stateMutability": "nonpayable",
      "type": "function"
    },
    {
      "inputs": [
        {
          "internalType": "bool",
          "name": "val",
          "type": "bool"
        }
      ],
      "name": "setPause",
      "outputs": [],
      "stateMutability": "nonpayable",
      "type": "function"
    },
    {
      "inputs": [],
      "name": "withdraw",
      "outputs": [],
      "stateMutability": "payable",
      "type": "function"
    }
  ],
  "bytecode": "0x6080604052612710600b5566b1a2bc2ec50000600c556000600d60006101000a81548160ff0219169083151502179055503480156200003d57600080fd5b506040518060400160405280600c81526020017f4e46544c61756e636850616400000000000000000000000000000000000000008152506040518060400160405280600581526020017f4e46544c500000000000000000000000000000000000000000000000000000008152508160009080519060200190620000c2929190620001d2565b508060019080519060200190620000db929190620001d2565b505050620000fe620000f26200010460201b60201c565b6200010c60201b60201c565b620002e7565b600033905090565b6000600a60009054906101000a900473ffffffffffffffffffffffffffffffffffffffff16905081600a60006101000a81548173ffffffffffffffffffffffffffffffffffffffff021916908373ffffffffffffffffffffffffffffffffffffffff1602179055508173ffffffffffffffffffffffffffffffffffffffff168173ffffffffffffffffffffffffffffffffffffffff167f8be0079c531659141344cd1fd0a4f28419497f9722a3daafe3b4186f6b6457e060405160405180910390a35050565b828054620001e09062000282565b90600052602060002090601f01602090048101928262000204576000855562000250565b82601f106200021f57805160ff191683800117855562000250565b8280016001018555821562000250579182015b828111156200024f57825182559160200191906001019062000232565b5b5090506200025f919062000263565b5090565b5b808211156200027e57600081600090555060010162000264565b5090565b600060028204905060018216806200029b57607f821691505b60208210811415620002b257620002b1620002b8565b5b50919050565b7f4e487b7100000000000000000000000000000000000000000000000000000000600052602260045260246000fd5b61414680620002f76000396000f3fe6080604052600436106101c25760003560e01c80636352211e116100f7578063a0712d6811610095578063c87b56dd11610064578063c87b56dd14610610578063e985e9c51461064d578063f20aed061461068a578063f2fde38b146106b5576101c2565b8063a0712d6814610579578063a22cb46514610595578063b88d4fde146105be578063bedb86fb146105e7576101c2565b8063715018a6116100d1578063715018a6146104e35780638da5cb5b146104fa57806391b7f5ed1461052557806395d89b411461054e576101c2565b80636352211e146104405780636f8b44b01461047d57806370a08231146104a6576101c2565b806322f4596f116101645780632f745c591161013e5780632f745c59146103935780633ccfd60b146103d057806342842e0e146103da5780634f6ccce714610403576101c2565b806322f4596f14610314578063235b6ea11461033f57806323b872dd1461036a576101c2565b8063095ea7b3116101a0578063095ea7b31461026c578063162094c41461029557806316c61ccc146102be57806318160ddd146102e9576101c2565b806301ffc9a7146101c757806306fdde0314610204578063081812fc1461022f575b600080fd5b3480156101d357600080fd5b506101ee60048036038101906101e99190612c67565b6106de565b6040516101fb919061326a565b60405180910390f35b34801561021057600080fd5b50610219610758565b6040516102269190613285565b60405180910390f35b34801561023b57600080fd5b5061025660048036038101906102519190612cc1565b6107ea565b6040516102639190613203565b60405180910390f35b34801561027857600080fd5b50610293600480360381019061028e9190612bfa565b61086f565b005b3480156102a157600080fd5b506102bc60048036038101906102b79190612cee565b610987565b005b3480156102ca57600080fd5b506102d3610a03565b6040516102e0919061326a565b60405180910390f35b3480156102f557600080fd5b506102fe610a16565b60405161030b9190613547565b60405180910390f35b34801561032057600080fd5b50610329610a23565b6040516103369190613547565b60405180910390f35b34801561034b57600080fd5b50610354610a29565b6040516103619190613547565b60405180910390f35b34801561037657600080fd5b50610391600480360381019061038c9190612ae4565b610a2f565b005b34801561039f57600080fd5b506103ba60048036038101906103b59190612bfa565b610a8f565b6040516103c79190613547565b60405180910390f35b6103d8610b34565b005b3480156103e657600080fd5b5061040160048036038101906103fc9190612ae4565b610bf9565b005b34801561040f57600080fd5b5061042a60048036038101906104259190612cc1565b610c19565b6040516104379190613547565b60405180910390f35b34801561044c57600080fd5b5061046760048036038101906104629190612cc1565b610c8a565b6040516104749190613203565b60405180910390f35b34801561048957600080fd5b506104a4600480360381019061049f9190612cc1565b610d3c565b005b3480156104b257600080fd5b506104cd60048036038101906104c89190612a77565b610dc2565b6040516104da9190613547565b60405180910390f35b3480156104ef57600080fd5b506104f8610e7a565b005b34801561050657600080fd5b5061050f610f02565b60405161051c9190613203565b60405180910390f35b34801561053157600080fd5b5061054c60048036038101906105479190612cc1565b610f2c565b005b34801561055a57600080fd5b50610563610fb2565b6040516105709190613285565b60405180910390f35b610593600480360381019061058e9190612cc1565b611044565b005b3480156105a157600080fd5b506105bc60048036038101906105b79190612bba565b611131565b005b3480156105ca57600080fd5b506105e560048036038101906105e09190612b37565b6112b2565b005b3480156105f357600080fd5b5061060e60048036038101906106099190612c3a565b611314565b005b34801561061c57600080fd5b5061063760048036038101906106329190612cc1565b6113ad565b6040516106449190613285565b60405180910390f35b34801561065957600080fd5b50610674600480360381019061066f9190612aa4565b6114de565b604051610681919061326a565b60405180910390f35b34801561069657600080fd5b5061069f611572565b6040516106ac9190613547565b60405180910390f35b3480156106c157600080fd5b506106dc60048036038101906106d79190612a77565b6115b5565b005b60007f780e9d63000000000000000000000000000000000000000000000000000000007bffffffffffffffffffffffffffffffffffffffffffffffffffffffff1916827bffffffffffffffffffffffffffffffffffffffffffffffffffffffff191614806107515750610750826116ad565b5b9050919050565b606060008054610767906137f7565b80601f0160208091040260200160405190810160405280929190818152602001828054610793906137f7565b80156107e05780601f106107b5576101008083540402835291602001916107e0565b820191906000526020600020905b8154815290600101906020018083116107c357829003601f168201915b5050505050905090565b60006107f58261178f565b610834576040517f08c379a000000000000000000000000000000000000000000000000000000000815260040161082b90613447565b60405180910390fd5b6004600083815260200190815260200160002060009054906101000a900473ffffffffffffffffffffffffffffffffffffffff169050919050565b600061087a82610c8a565b90508073ffffffffffffffffffffffffffffffffffffffff168373ffffffffffffffffffffffffffffffffffffffff1614156108eb576040517f08c379a00000000000000000000000000000000000000000000000000000000081526004016108e2906134a7565b60405180910390fd5b8073ffffffffffffffffffffffffffffffffffffffff1661090a6117fb565b73ffffffffffffffffffffffffffffffffffffffff1614806109395750610938816109336117fb565b6114de565b5b610978576040517f08c379a000000000000000000000000000000000000000000000000000000000815260040161096f906133a7565b60405180910390fd5b6109828383611803565b505050565b6109986109926117fb565b836118bc565b6109d7576040517f08c379a00000000000000000000000000000000000000000000000000000000081526004016109ce90613427565b60405180910390fd5b80600e600084815260200190815260200160002090805190602001906109fe92919061288b565b505050565b600d60009054906101000a900460ff1681565b6000600880549050905090565b600b5481565b600c5481565b610a40610a3a6117fb565b826118bc565b610a7f576040517f08c379a0000000000000000000000000000000000000000000000000000000008152600401610a7690613507565b60405180910390fd5b610a8a83838361199a565b505050565b6000610a9a83610dc2565b8210610adb576040517f08c379a0000000000000000000000000000000000000000000000000000000008152600401610ad2906132c7565b60405180910390fd5b600660008473ffffffffffffffffffffffffffffffffffffffff1673ffffffffffffffffffffffffffffffffffffffff168152602001908152602001600020600083815260200190815260200160002054905092915050565b610b3c6117fb565b73ffffffffffffffffffffffffffffffffffffffff16610b5a610f02565b73ffffffffffffffffffffffffffffffffffffffff1614610bb0576040517f08c379a0000000000000000000000000000000000000000000000000000000008152600401610ba790613467565b60405180910390fd5b3373ffffffffffffffffffffffffffffffffffffffff166108fc479081150290604051600060405180830381858888f19350505050158015610bf6573d6000803e3d6000fd5b50565b610c14838383604051806020016040528060008152506112b2565b505050565b6000610c23610a16565b8210610c64576040517f08c379a0000000000000000000000000000000000000000000000000000000008152600401610c5b90613527565b60405180910390fd5b60088281548110610c7857610c77613990565b5b90600052602060002001549050919050565b6000806002600084815260200190815260200160002060009054906101000a900473ffffffffffffffffffffffffffffffffffffffff169050600073ffffffffffffffffffffffffffffffffffffffff168173ffffffffffffffffffffffffffffffffffffffff161415610d33576040517f08c379a0000000000000000000000000000000000000000000000000000000008152600401610d2a906133e7565b60405180910390fd5b80915050919050565b610d446117fb565b73ffffffffffffffffffffffffffffffffffffffff16610d62610f02565b73ffffffffffffffffffffffffffffffffffffffff1614610db8576040517f08c379a0000000000000000000000000000000000000000000000000000000008152600401610daf90613467565b60405180910390fd5b80600b8190555050565b60008073ffffffffffffffffffffffffffffffffffffffff168273ffffffffffffffffffffffffffffffffffffffff161415610e33576040517f08c379a0000000000000000000000000000000000000000000000000000000008152600401610e2a906133c7565b60405180910390fd5b600360008373ffffffffffffffffffffffffffffffffffffffff1673ffffffffffffffffffffffffffffffffffffffff168152602001908152602001600020549050919050565b610e826117fb565b73ffffffffffffffffffffffffffffffffffffffff16610ea0610f02565b73ffffffffffffffffffffffffffffffffffffffff1614610ef6576040517f08c379a0000000000000000000000000000000000000000000000000000000008152600401610eed90613467565b60405180910390fd5b610f006000611bf6565b565b6000600a60009054906101000a900473ffffffffffffffffffffffffffffffffffffffff16905090565b610f346117fb565b73ffffffffffffffffffffffffffffffffffffffff16610f52610f02565b73ffffffffffffffffffffffffffffffffffffffff1614610fa8576040517f08c379a0000000000000000000000000000000000000000000000000000000008152600401610f9f90613467565b60405180910390fd5b80600c8190555050565b606060018054610fc1906137f7565b80601f0160208091040260200160405190810160405280929190818152602001828054610fed906137f7565b801561103a5780601f1061100f5761010080835404028352916020019161103a565b820191906000526020600020905b81548152906001019060200180831161101d57829003601f168201915b5050505050905090565b600d60009054906101000a900460ff1615611094576040517f08c379a000000000000000000000000000000000000000000000000000000000815260040161108b906132a7565b60405180910390fd5b600b5461109f610a16565b106110df576040517f08c379a00000000000000000000000000000000000000000000000000000000081526004016110d6906134c7565b60405180910390fd5b600c54341015611124576040517f08c379a000000000000000000000000000000000000000000000000000000000815260040161111b906134e7565b60405180910390fd5b61112e3382611cbc565b50565b6111396117fb565b73ffffffffffffffffffffffffffffffffffffffff168273ffffffffffffffffffffffffffffffffffffffff1614156111a7576040517f08c379a000000000000000000000000000000000000000000000000000000000815260040161119e90613367565b60405180910390fd5b80600560006111b46117fb565b73ffffffffffffffffffffffffffffffffffffffff1673ffffffffffffffffffffffffffffffffffffffff16815260200190815260200160002060008473ffffffffffffffffffffffffffffffffffffffff1673ffffffffffffffffffffffffffffffffffffffff16815260200190815260200160002060006101000a81548160ff0219169083151502179055508173ffffffffffffffffffffffffffffffffffffffff166112616117fb565b73ffffffffffffffffffffffffffffffffffffffff167f17307eab39ab6107e8899845ad3d59bd9653f200f220920489ca2b5937696c31836040516112a6919061326a565b60405180910390a35050565b6112c36112bd6117fb565b836118bc565b611302576040517f08c379a00000000000000000000000000000000000000000000000000000000081526004016112f990613507565b60405180910390fd5b61130e84848484611cda565b50505050565b61131c6117fb565b73ffffffffffffffffffffffffffffffffffffffff1661133a610f02565b73ffffffffffffffffffffffffffffffffffffffff1614611390576040517f08c379a000000000000000000000000000000000000000000000000000000000815260040161138790613467565b60405180910390fd5b80600d60006101000a81548160ff02191690831515021790555050565b60606000600e600084815260200190815260200160002080546113cf906137f7565b80601f01602080910402602001604051908101604052809291908181526020018280546113fb906137f7565b80156114485780601f1061141d57610100808354040283529160200191611448565b820191906000526020600020905b81548152906001019060200180831161142b57829003601f168201915b505050505090506000816040516020016114629190613185565b604051602081830303815290604052905060006114af61148186611d36565b61148a84611e97565b60405160200161149b92919061319c565b604051602081830303815290604052611e97565b9050806040516020016114c291906131e1565b6040516020818303038152906040529150819350505050919050565b6000600560008473ffffffffffffffffffffffffffffffffffffffff1673ffffffffffffffffffffffffffffffffffffffff16815260200190815260200160002060008373ffffffffffffffffffffffffffffffffffffffff1673ffffffffffffffffffffffffffffffffffffffff16815260200190815260200160002060009054906101000a900460ff16905092915050565b600080600190505b600b5481116115ac5761158c8161178f565b61159957809150506115b2565b80806115a49061385a565b91505061157a565b50600090505b90565b6115bd6117fb565b73ffffffffffffffffffffffffffffffffffffffff166115db610f02565b73ffffffffffffffffffffffffffffffffffffffff1614611631576040517f08c379a000000000000000000000000000000000000000000000000000000000815260040161162890613467565b60405180910390fd5b600073ffffffffffffffffffffffffffffffffffffffff168173ffffffffffffffffffffffffffffffffffffffff1614156116a1576040517f08c379a000000000000000000000000000000000000000000000000000000000815260040161169890613307565b60405180910390fd5b6116aa81611bf6565b50565b60007f80ac58cd000000000000000000000000000000000000000000000000000000007bffffffffffffffffffffffffffffffffffffffffffffffffffffffff1916827bffffffffffffffffffffffffffffffffffffffffffffffffffffffff1916148061177857507f5b5e139f000000000000000000000000000000000000000000000000000000007bffffffffffffffffffffffffffffffffffffffffffffffffffffffff1916827bffffffffffffffffffffffffffffffffffffffffffffffffffffffff1916145b8061178857506117878261202f565b5b9050919050565b60008073ffffffffffffffffffffffffffffffffffffffff166002600084815260200190815260200160002060009054906101000a900473ffffffffffffffffffffffffffffffffffffffff1673ffffffffffffffffffffffffffffffffffffffff1614159050919050565b600033905090565b816004600083815260200190815260200160002060006101000a81548173ffffffffffffffffffffffffffffffffffffffff021916908373ffffffffffffffffffffffffffffffffffffffff160217905550808273ffffffffffffffffffffffffffffffffffffffff1661187683610c8a565b73ffffffffffffffffffffffffffffffffffffffff167f8c5be1e5ebec7d5bd14f71427d1e84f3dd0314c0f7b2291e5b200ac8c7c3b92560405160405180910390a45050565b60006118c78261178f565b611906576040517f08c379a00000000000000000000000000000000000000000000000000000000081526004016118fd90613387565b60405180910390fd5b600061191183610c8a565b90508073ffffffffffffffffffffffffffffffffffffffff168473ffffffffffffffffffffffffffffffffffffffff16148061198057508373ffffffffffffffffffffffffffffffffffffffff16611968846107ea565b73ffffffffffffffffffffffffffffffffffffffff16145b80611991575061199081856114de565b5b91505092915050565b8273ffffffffffffffffffffffffffffffffffffffff166119ba82610c8a565b73ffffffffffffffffffffffffffffffffffffffff1614611a10576040517f08c379a0000000000000000000000000000000000000000000000000000000008152600401611a0790613487565b60405180910390fd5b600073ffffffffffffffffffffffffffffffffffffffff168273ffffffffffffffffffffffffffffffffffffffff161415611a80576040517f08c379a0000000000000000000000000000000000000000000000000000000008152600401611a7790613347565b60405180910390fd5b611a8b838383612099565b611a96600082611803565b6001600360008573ffffffffffffffffffffffffffffffffffffffff1673ffffffffffffffffffffffffffffffffffffffff1681526020019081526020016000206000828254611ae6919061370d565b925050819055506001600360008473ffffffffffffffffffffffffffffffffffffffff1673ffffffffffffffffffffffffffffffffffffffff1681526020019081526020016000206000828254611b3d919061362c565b92505081905550816002600083815260200190815260200160002060006101000a81548173ffffffffffffffffffffffffffffffffffffffff021916908373ffffffffffffffffffffffffffffffffffffffff160217905550808273ffffffffffffffffffffffffffffffffffffffff168473ffffffffffffffffffffffffffffffffffffffff167fddf252ad1be2c89b69c2b068fc378daa952ba7f163c4a11628f55a4df523b3ef60405160405180910390a4505050565b6000600a60009054906101000a900473ffffffffffffffffffffffffffffffffffffffff16905081600a60006101000a81548173ffffffffffffffffffffffffffffffffffffffff021916908373ffffffffffffffffffffffffffffffffffffffff1602179055508173ffffffffffffffffffffffffffffffffffffffff168173ffffffffffffffffffffffffffffffffffffffff167f8be0079c531659141344cd1fd0a4f28419497f9722a3daafe3b4186f6b6457e060405160405180910390a35050565b611cd68282604051806020016040528060008152506121ad565b5050565b611ce584848461199a565b611cf184848484612208565b611d30576040517f08c379a0000000000000000000000000000000000000000000000000000000008152600401611d27906132e7565b60405180910390fd5b50505050565b60606000821415611d7e576040518060400160405280600181526020017f30000000000000000000000000000000000000000000000000000000000000008152509050611e92565b600082905060005b60008214611db0578080611d999061385a565b915050600a82611da99190613682565b9150611d86565b60008167ffffffffffffffff811115611dcc57611dcb6139bf565b5b6040519080825280601f01601f191660200182016040528015611dfe5781602001600182028036833780820191505090505b5090505b60008514611e8b57600182611e17919061370d565b9150600a85611e2691906138a3565b6030611e32919061362c565b60f81b818381518110611e4857611e47613990565b5b60200101907effffffffffffffffffffffffffffffffffffffffffffffffffffffffffffff1916908160001a905350600a85611e849190613682565b9450611e02565b8093505050505b919050565b60606000825190506000811415611ec0576040518060200160405280600081525091505061202a565b60006003600283611ed1919061362c565b611edb9190613682565b6004611ee791906136b3565b90506000602082611ef8919061362c565b67ffffffffffffffff811115611f1157611f106139bf565b5b6040519080825280601f01601f191660200182016040528015611f435781602001600182028036833780820191505090505b50905060006040518060600160405280604081526020016140d1604091399050600181016020830160005b86811015611fe75760038101905062ffffff818a015116603f8160121c168401518060081b905060ff603f83600c1c1686015116810190508060081b905060ff603f8360061c1686015116810190508060081b905060ff603f831686015116810190508060e01b90508084526004840193505050611f6e565b50600386066001811461200157600281146120115761201c565b613d3d60f01b600283035261201c565b603d60f81b60018303525b508484525050819450505050505b919050565b60007f01ffc9a7000000000000000000000000000000000000000000000000000000007bffffffffffffffffffffffffffffffffffffffffffffffffffffffff1916827bffffffffffffffffffffffffffffffffffffffffffffffffffffffff1916149050919050565b6120a483838361239f565b600073ffffffffffffffffffffffffffffffffffffffff168373ffffffffffffffffffffffffffffffffffffffff1614156120e7576120e2816123a4565b612126565b8173ffffffffffffffffffffffffffffffffffffffff168373ffffffffffffffffffffffffffffffffffffffff16146121255761212483826123ed565b5b5b600073ffffffffffffffffffffffffffffffffffffffff168273ffffffffffffffffffffffffffffffffffffffff161415612169576121648161255a565b6121a8565b8273ffffffffffffffffffffffffffffffffffffffff168273ffffffffffffffffffffffffffffffffffffffff16146121a7576121a6828261262b565b5b5b505050565b6121b783836126aa565b6121c46000848484612208565b612203576040517f08c379a00000000000000000000000000000000000000000000000000000000081526004016121fa906132e7565b60405180910390fd5b505050565b60006122298473ffffffffffffffffffffffffffffffffffffffff16612878565b15612392578373ffffffffffffffffffffffffffffffffffffffff1663150b7a026122526117fb565b8786866040518563ffffffff1660e01b8152600401612274949392919061321e565b602060405180830381600087803b15801561228e57600080fd5b505af19250505080156122bf57506040513d601f19601f820116820180604052508101906122bc9190612c94565b60015b612342573d80600081146122ef576040519150601f19603f3d011682016040523d82523d6000602084013e6122f4565b606091505b5060008151141561233a576040517f08c379a0000000000000000000000000000000000000000000000000000000008152600401612331906132e7565b60405180910390fd5b805181602001fd5b63150b7a0260e01b7bffffffffffffffffffffffffffffffffffffffffffffffffffffffff1916817bffffffffffffffffffffffffffffffffffffffffffffffffffffffff191614915050612397565b600190505b949350505050565b505050565b6008805490506009600083815260200190815260200160002081905550600881908060018154018082558091505060019003906000526020600020016000909190919091505550565b600060016123fa84610dc2565b612404919061370d565b90506000600760008481526020019081526020016000205490508181146124e9576000600660008673ffffffffffffffffffffffffffffffffffffffff1673ffffffffffffffffffffffffffffffffffffffff168152602001908152602001600020600084815260200190815260200160002054905080600660008773ffffffffffffffffffffffffffffffffffffffff1673ffffffffffffffffffffffffffffffffffffffff168152602001908152602001600020600084815260200190815260200160002081905550816007600083815260200190815260200160002081905550505b6007600084815260200190815260200160002060009055600660008573ffffffffffffffffffffffffffffffffffffffff1673ffffffffffffffffffffffffffffffffffffffff16815260200190815260200160002060008381526020019081526020016000206000905550505050565b6000600160088054905061256e919061370d565b905060006009600084815260200190815260200160002054905060006008838154811061259e5761259d613990565b5b9060005260206000200154905080600883815481106125c0576125bf613990565b5b90600052602060002001819055508160096000838152602001908152602001600020819055506009600085815260200190815260200160002060009055600880548061260f5761260e613961565b5b6001900381819060005260206000200160009055905550505050565b600061263683610dc2565b905081600660008573ffffffffffffffffffffffffffffffffffffffff1673ffffffffffffffffffffffffffffffffffffffff168152602001908152602001600020600083815260200190815260200160002081905550806007600084815260200190815260200160002081905550505050565b600073ffffffffffffffffffffffffffffffffffffffff168273ffffffffffffffffffffffffffffffffffffffff16141561271a576040517f08c379a000000000000000000000000000000000000000000000000000000000815260040161271190613407565b60405180910390fd5b6127238161178f565b15612763576040517f08c379a000000000000000000000000000000000000000000000000000000000815260040161275a90613327565b60405180910390fd5b61276f60008383612099565b6001600360008473ffffffffffffffffffffffffffffffffffffffff1673ffffffffffffffffffffffffffffffffffffffff16815260200190815260200160002060008282546127bf919061362c565b92505081905550816002600083815260200190815260200160002060006101000a81548173ffffffffffffffffffffffffffffffffffffffff021916908373ffffffffffffffffffffffffffffffffffffffff160217905550808273ffffffffffffffffffffffffffffffffffffffff16600073ffffffffffffffffffffffffffffffffffffffff167fddf252ad1be2c89b69c2b068fc378daa952ba7f163c4a11628f55a4df523b3ef60405160405180910390a45050565b600080823b905060008111915050919050565b828054612897906137f7565b90600052602060002090601f0160209004810192826128b95760008555612900565b82601f106128d257805160ff1916838001178555612900565b82800160010185558215612900579182015b828111156128ff5782518255916020019190600101906128e4565b5b50905061290d9190612911565b5090565b5b8082111561292a576000816000905550600101612912565b5090565b600061294161293c84613587565b613562565b90508281526020810184848401111561295d5761295c6139f3565b5b6129688482856137b5565b509392505050565b600061298361297e846135b8565b613562565b90508281526020810184848401111561299f5761299e6139f3565b5b6129aa8482856137b5565b509392505050565b6000813590506129c181614074565b92915050565b6000813590506129d68161408b565b92915050565b6000813590506129eb816140a2565b92915050565b600081519050612a00816140a2565b92915050565b600082601f830112612a1b57612a1a6139ee565b5b8135612a2b84826020860161292e565b91505092915050565b600082601f830112612a4957612a486139ee565b5b8135612a59848260208601612970565b91505092915050565b600081359050612a71816140b9565b92915050565b600060208284031215612a8d57612a8c6139fd565b5b6000612a9b848285016129b2565b91505092915050565b60008060408385031215612abb57612aba6139fd565b5b6000612ac9858286016129b2565b9250506020612ada858286016129b2565b9150509250929050565b600080600060608486031215612afd57612afc6139fd565b5b6000612b0b868287016129b2565b9350506020612b1c868287016129b2565b9250506040612b2d86828701612a62565b9150509250925092565b60008060008060808587031215612b5157612b506139fd565b5b6000612b5f878288016129b2565b9450506020612b70878288016129b2565b9350506040612b8187828801612a62565b925050606085013567ffffffffffffffff811115612ba257612ba16139f8565b5b612bae87828801612a06565b91505092959194509250565b60008060408385031215612bd157612bd06139fd565b5b6000612bdf858286016129b2565b9250506020612bf0858286016129c7565b9150509250929050565b60008060408385031215612c1157612c106139fd565b5b6000612c1f858286016129b2565b9250506020612c3085828601612a62565b9150509250929050565b600060208284031215612c5057612c4f6139fd565b5b6000612c5e848285016129c7565b91505092915050565b600060208284031215612c7d57612c7c6139fd565b5b6000612c8b848285016129dc565b91505092915050565b600060208284031215612caa57612ca96139fd565b5b6000612cb8848285016129f1565b91505092915050565b600060208284031215612cd757612cd66139fd565b5b6000612ce584828501612a62565b91505092915050565b60008060408385031215612d0557612d046139fd565b5b6000612d1385828601612a62565b925050602083013567ffffffffffffffff811115612d3457612d336139f8565b5b612d4085828601612a34565b9150509250929050565b612d5381613741565b82525050565b612d6281613753565b82525050565b6000612d73826135e9565b612d7d81856135ff565b9350612d8d8185602086016137c4565b612d9681613a02565b840191505092915050565b6000612dac826135f4565b612db68185613610565b9350612dc68185602086016137c4565b612dcf81613a02565b840191505092915050565b6000612de5826135f4565b612def8185613621565b9350612dff8185602086016137c4565b80840191505092915050565b6000612e18600b83613610565b9150612e2382613a13565b602082019050919050565b6000612e3b602b83613610565b9150612e4682613a3c565b604082019050919050565b6000612e5e603283613610565b9150612e6982613a8b565b604082019050919050565b6000612e81602683613610565b9150612e8c82613ada565b604082019050919050565b6000612ea4601c83613610565b9150612eaf82613b29565b602082019050919050565b6000612ec7602483613610565b9150612ed282613b52565b604082019050919050565b6000612eea601983613610565b9150612ef582613ba1565b602082019050919050565b6000612f0d602c83613610565b9150612f1882613bca565b604082019050919050565b6000612f30601083613621565b9150612f3b82613c19565b601082019050919050565b6000612f53603883613610565b9150612f5e82613c42565b604082019050919050565b6000612f76602a83613610565b9150612f8182613c91565b604082019050919050565b6000612f99602983613610565b9150612fa482613ce0565b604082019050919050565b6000612fbc600283613621565b9150612fc782613d2f565b600282019050919050565b6000612fdf607b83613621565b9150612fea82613d58565b607b82019050919050565b6000613002602083613610565b915061300d82613df3565b602082019050919050565b6000613025600e83613610565b915061303082613e1c565b602082019050919050565b6000613048602c83613610565b915061305382613e45565b604082019050919050565b600061306b602083613610565b915061307682613e94565b602082019050919050565b600061308e602983613610565b915061309982613ebd565b604082019050919050565b60006130b1602183613610565b91506130bc82613f0c565b604082019050919050565b60006130d4601683613610565b91506130df82613f5b565b602082019050919050565b60006130f7601983613610565b915061310282613f84565b602082019050919050565b600061311a601d83613621565b915061312582613fad565b601d82019050919050565b600061313d603183613610565b915061314882613fd6565b604082019050919050565b6000613160602c83613610565b915061316b82614025565b604082019050919050565b61317f816137ab565b82525050565b60006131918284612dda565b915081905092915050565b60006131a782612f23565b91506131b38285612dda565b91506131be82612fd2565b91506131ca8284612dda565b91506131d582612faf565b91508190509392505050565b60006131ec8261310d565b91506131f88284612dda565b915081905092915050565b60006020820190506132186000830184612d4a565b92915050565b60006080820190506132336000830187612d4a565b6132406020830186612d4a565b61324d6040830185613176565b818103606083015261325f8184612d68565b905095945050505050565b600060208201905061327f6000830184612d59565b92915050565b6000602082019050818103600083015261329f8184612da1565b905092915050565b600060208201905081810360008301526132c081612e0b565b9050919050565b600060208201905081810360008301526132e081612e2e565b9050919050565b6000602082019050818103600083015261330081612e51565b9050919050565b6000602082019050818103600083015261332081612e74565b9050919050565b6000602082019050818103600083015261334081612e97565b9050919050565b6000602082019050818103600083015261336081612eba565b9050919050565b6000602082019050818103600083015261338081612edd565b9050919050565b600060208201905081810360008301526133a081612f00565b9050919050565b600060208201905081810360008301526133c081612f46565b9050919050565b600060208201905081810360008301526133e081612f69565b9050919050565b6000602082019050818103600083015261340081612f8c565b9050919050565b6000602082019050818103600083015261342081612ff5565b9050919050565b6000602082019050818103600083015261344081613018565b9050919050565b600060208201905081810360008301526134608161303b565b9050919050565b600060208201905081810360008301526134808161305e565b9050919050565b600060208201905081810360008301526134a081613081565b9050919050565b600060208201905081810360008301526134c0816130a4565b9050919050565b600060208201905081810360008301526134e0816130c7565b9050919050565b60006020820190508181036000830152613500816130ea565b9050919050565b6000602082019050818103600083015261352081613130565b9050919050565b6000602082019050818103600083015261354081613153565b9050919050565b600060208201905061355c6000830184613176565b92915050565b600061356c61357d565b90506135788282613829565b919050565b6000604051905090565b600067ffffffffffffffff8211156135a2576135a16139bf565b5b6135ab82613a02565b9050602081019050919050565b600067ffffffffffffffff8211156135d3576135d26139bf565b5b6135dc82613a02565b9050602081019050919050565b600081519050919050565b600081519050919050565b600082825260208201905092915050565b600082825260208201905092915050565b600081905092915050565b6000613637826137ab565b9150613642836137ab565b9250827fffffffffffffffffffffffffffffffffffffffffffffffffffffffffffffffff03821115613677576136766138d4565b5b828201905092915050565b600061368d826137ab565b9150613698836137ab565b9250826136a8576136a7613903565b5b828204905092915050565b60006136be826137ab565b91506136c9836137ab565b9250817fffffffffffffffffffffffffffffffffffffffffffffffffffffffffffffffff0483118215151615613702576137016138d4565b5b828202905092915050565b6000613718826137ab565b9150613723836137ab565b925082821015613736576137356138d4565b5b828203905092915050565b600061374c8261378b565b9050919050565b60008115159050919050565b60007fffffffff0000000000000000000000000000000000000000000000000000000082169050919050565b600073ffffffffffffffffffffffffffffffffffffffff82169050919050565b6000819050919050565b82818337600083830152505050565b60005b838110156137e25780820151818401526020810190506137c7565b838111156137f1576000848401525b50505050565b6000600282049050600182168061380f57607f821691505b6020821081141561382357613822613932565b5b50919050565b61383282613a02565b810181811067ffffffffffffffff82111715613851576138506139bf565b5b80604052505050565b6000613865826137ab565b91507fffffffffffffffffffffffffffffffffffffffffffffffffffffffffffffffff821415613898576138976138d4565b5b600182019050919050565b60006138ae826137ab565b91506138b9836137ab565b9250826138c9576138c8613903565b5b828206905092915050565b7f4e487b7100000000000000000000000000000000000000000000000000000000600052601160045260246000fd5b7f4e487b7100000000000000000000000000000000000000000000000000000000600052601260045260246000fd5b7f4e487b7100000000000000000000000000000000000000000000000000000000600052602260045260246000fd5b7f4e487b7100000000000000000000000000000000000000000000000000000000600052603160045260246000fd5b7f4e487b7100000000000000000000000000000000000000000000000000000000600052603260045260246000fd5b7f4e487b7100000000000000000000000000000000000000000000000000000000600052604160045260246000fd5b600080fd5b600080fd5b600080fd5b600080fd5b6000601f19601f8301169050919050565b7f53616c6520706175736564000000000000000000000000000000000000000000600082015250565b7f455243373231456e756d657261626c653a206f776e657220696e646578206f7560008201527f74206f6620626f756e6473000000000000000000000000000000000000000000602082015250565b7f4552433732313a207472616e7366657220746f206e6f6e20455243373231526560008201527f63656976657220696d706c656d656e7465720000000000000000000000000000602082015250565b7f4f776e61626c653a206e6577206f776e657220697320746865207a65726f206160008201527f6464726573730000000000000000000000000000000000000000000000000000602082015250565b7f4552433732313a20746f6b656e20616c7265616479206d696e74656400000000600082015250565b7f4552433732313a207472616e7366657220746f20746865207a65726f2061646460008201527f7265737300000000000000000000000000000000000000000000000000000000602082015250565b7f4552433732313a20617070726f766520746f2063616c6c657200000000000000600082015250565b7f4552433732313a206f70657261746f7220717565727920666f72206e6f6e657860008201527f697374656e7420746f6b656e0000000000000000000000000000000000000000602082015250565b7f7b226e616d65223a20224d594f4e202300000000000000000000000000000000600082015250565b7f4552433732313a20617070726f76652063616c6c6572206973206e6f74206f7760008201527f6e6572206e6f7220617070726f76656420666f7220616c6c0000000000000000602082015250565b7f4552433732313a2062616c616e636520717565727920666f7220746865207a6560008201527f726f206164647265737300000000000000000000000000000000000000000000602082015250565b7f4552433732313a206f776e657220717565727920666f72206e6f6e657869737460008201527f656e7420746f6b656e0000000000000000000000000000000000000000000000602082015250565b7f227d000000000000000000000000000000000000000000000000000000000000600082015250565b7f222c20226465736372697074696f6e223a20224e46544c61756e63685061642060008201527f6c65747320796f75206d616b6520796f7572206f776e204e46542e20466f6c6c60208201527f6f7720796f757220696d6167696e6174696f6e2e222c2022696d616765223a2060408201527f22646174613a696d6167652f7376672b786d6c3b6261736536342c0000000000606082015250565b7f4552433732313a206d696e7420746f20746865207a65726f2061646472657373600082015250565b7f6e6f7420617574686f72697a6564000000000000000000000000000000000000600082015250565b7f4552433732313a20617070726f76656420717565727920666f72206e6f6e657860008201527f697374656e7420746f6b656e0000000000000000000000000000000000000000602082015250565b7f4f776e61626c653a2063616c6c6572206973206e6f7420746865206f776e6572600082015250565b7f4552433732313a207472616e73666572206f6620746f6b656e2074686174206960008201527f73206e6f74206f776e0000000000000000000000000000000000000000000000602082015250565b7f4552433732313a20617070726f76616c20746f2063757272656e74206f776e6560008201527f7200000000000000000000000000000000000000000000000000000000000000602082015250565b7f45786365656473206d6178696d756d20737570706c7900000000000000000000600082015250565b7f45746865722073656e74206973206e6f7420636f727265637400000000000000600082015250565b7f646174613a6170706c69636174696f6e2f6a736f6e3b6261736536342c000000600082015250565b7f4552433732313a207472616e736665722063616c6c6572206973206e6f74206f60008201527f776e6572206e6f7220617070726f766564000000000000000000000000000000602082015250565b7f455243373231456e756d657261626c653a20676c6f62616c20696e646578206f60008201527f7574206f6620626f756e64730000000000000000000000000000000000000000602082015250565b61407d81613741565b811461408857600080fd5b50565b61409481613753565b811461409f57600080fd5b50565b6140ab8161375f565b81146140b657600080fd5b50565b6140c2816137ab565b81146140cd57600080fd5b5056fe4142434445464748494a4b4c4d4e4f505152535455565758595a6162636465666768696a6b6c6d6e6f707172737475767778797a303132333435363738392b2fa26469706673582212206afdb7b3f6bff4ecbe23ed0ac3b972089275d2965664b5c863004d75a76e8ba264736f6c63430008070033",
  "immutableReferences": {},
  "source": "// SPDX-License-Identifier: MIT\n\npragma solidity ^0.8.0;\n\nimport \"./FullERC721.sol\";\n\ncontract NFTLaunchPad is ERC721Enumerable, Ownable {\n\n    uint256 public _maxSupply = 10000;\n    uint256 public _price = 0.05 ether;\n    bool public _paused = false;\n\n    mapping (uint256 => string) private _tokenId2tokenURI;\n\n    constructor() ERC721(\"NFTLaunchPad\", \"NFTLP\") Ownable() {\n\t}\n\n    function tokenURI(uint256 tokenId) override public view returns (string memory) {\n        string memory _tokenURI = _tokenId2tokenURI[tokenId];\n\t\tstring memory output = string(abi.encodePacked(_tokenURI));\n\n        string memory json = Base64.encode(bytes(string(abi.encodePacked('{\"name\": \"MYON #', Strings.toString(tokenId), '\", \"description\": \"NFTLaunchPad lets you make your own NFT. Follow your imagination.\", \"image\": \"data:image/svg+xml;base64,', Base64.encode(bytes(output)), '\"}'))));\n        output = string(abi.encodePacked('data:application/json;base64,', json));\n\n        return output;\n    }\n    function nextAvailableToken() external view returns (uint256) {\n        for(uint256 i = 1; i <= _maxSupply; i++) {\n            if(!_exists(i)) return i;\n        }\n        return 0;\n    }\n    function mint(uint256 tokenId) external payable {\n        require(!_paused, \"Sale paused\");\n        require(totalSupply() < _maxSupply, \"Exceeds maximum supply\");\n        require(msg.value >= _price, \"Ether sent is not correct\");\n\n        _safeMint(msg.sender, tokenId);\n    }\n    function setTokenURI(uint256 tokenId, string memory _tokenURI) external {\n        require(_isApprovedOrOwner(_msgSender(), tokenId), \"not authorized\");\n        _tokenId2tokenURI[tokenId] = _tokenURI;\n    }\n    function setMaxSupply(uint256 newVal) external onlyOwner {\n        _maxSupply = newVal;\n    }\n    function setPrice(uint256 _newPrice) external onlyOwner {\n        _price = _newPrice;\n    }\n    function setPause(bool val) external onlyOwner {\n        _paused = val;\n    }\n    function withdraw() external payable onlyOwner {\n        payable(msg.sender).transfer(address(this).balance);\n    }\n}\n",
  "sourcePath": "/home/ec2-user/github/fcc-dapp/src/contracts/NFTLaunchPad.sol",
  "compiler": {
    "name": "solc",
    "version": "0.8.7+commit.e28d00a7.Emscripten.clang"
  },
  "schemaVersion": "3.4.3",
  "updatedAt": "2022-01-21T00:34:08.911Z",
  "devdoc": {
    "kind": "dev",
    "methods": {
      "approve(address,uint256)": {
        "details": "See {IERC721-approve}."
      },
      "balanceOf(address)": {
        "details": "See {IERC721-balanceOf}."
      },
      "getApproved(uint256)": {
        "details": "See {IERC721-getApproved}."
      },
      "isApprovedForAll(address,address)": {
        "details": "See {IERC721-isApprovedForAll}."
      },
      "name()": {
        "details": "See {IERC721Metadata-name}."
      },
      "owner()": {
        "details": "Returns the address of the current owner."
      },
      "ownerOf(uint256)": {
        "details": "See {IERC721-ownerOf}."
      },
      "renounceOwnership()": {
        "details": "Leaves the contract without owner. It will not be possible to call `onlyOwner` functions anymore. Can only be called by the current owner. NOTE: Renouncing ownership will leave the contract without an owner, thereby removing any functionality that is only available to the owner."
      },
      "safeTransferFrom(address,address,uint256)": {
        "details": "See {IERC721-safeTransferFrom}."
      },
      "safeTransferFrom(address,address,uint256,bytes)": {
        "details": "See {IERC721-safeTransferFrom}."
      },
      "setApprovalForAll(address,bool)": {
        "details": "See {IERC721-setApprovalForAll}."
      },
      "supportsInterface(bytes4)": {
        "details": "See {IERC165-supportsInterface}."
      },
      "symbol()": {
        "details": "See {IERC721Metadata-symbol}."
      },
      "tokenByIndex(uint256)": {
        "details": "See {IERC721Enumerable-tokenByIndex}."
      },
      "tokenOfOwnerByIndex(address,uint256)": {
        "details": "See {IERC721Enumerable-tokenOfOwnerByIndex}."
      },
      "tokenURI(uint256)": {
        "details": "See {IERC721Metadata-tokenURI}."
      },
      "totalSupply()": {
        "details": "See {IERC721Enumerable-totalSupply}."
      },
      "transferFrom(address,address,uint256)": {
        "details": "See {IERC721-transferFrom}."
      },
      "transferOwnership(address)": {
        "details": "Transfers ownership of the contract to a new account (`newOwner`). Can only be called by the current owner."
      }
    },
    "version": 1
  },
  "userdoc": {
    "kind": "user",
    "methods": {},
    "version": 1
  }
}