{
  "contractName": "NFTLaunchPad",
  "abi": [
    {
      "inputs": [],
      "stateMutability": "nonpayable",
      "type": "constructor"
    },
    {
      "anonymous": false,
      "inputs": [
        {
          "indexed": true,
          "internalType": "address",
          "name": "owner",
          "type": "address"
        },
        {
          "indexed": true,
          "internalType": "address",
          "name": "approved",
          "type": "address"
        },
        {
          "indexed": true,
          "internalType": "uint256",
          "name": "tokenId",
          "type": "uint256"
        }
      ],
      "name": "Approval",
      "type": "event"
    },
    {
      "anonymous": false,
      "inputs": [
        {
          "indexed": true,
          "internalType": "address",
          "name": "owner",
          "type": "address"
        },
        {
          "indexed": true,
          "internalType": "address",
          "name": "operator",
          "type": "address"
        },
        {
          "indexed": false,
          "internalType": "bool",
          "name": "approved",
          "type": "bool"
        }
      ],
      "name": "ApprovalForAll",
      "type": "event"
    },
    {
      "anonymous": false,
      "inputs": [
        {
          "indexed": true,
          "internalType": "address",
          "name": "previousOwner",
          "type": "address"
        },
        {
          "indexed": true,
          "internalType": "address",
          "name": "newOwner",
          "type": "address"
        }
      ],
      "name": "OwnershipTransferred",
      "type": "event"
    },
    {
      "anonymous": false,
      "inputs": [
        {
          "indexed": true,
          "internalType": "address",
          "name": "from",
          "type": "address"
        },
        {
          "indexed": true,
          "internalType": "address",
          "name": "to",
          "type": "address"
        },
        {
          "indexed": true,
          "internalType": "uint256",
          "name": "tokenId",
          "type": "uint256"
        }
      ],
      "name": "Transfer",
      "type": "event"
    },
    {
      "inputs": [],
      "name": "_maxSupply",
      "outputs": [
        {
          "internalType": "uint256",
          "name": "",
          "type": "uint256"
        }
      ],
      "stateMutability": "view",
      "type": "function"
    },
    {
      "inputs": [],
      "name": "_paused",
      "outputs": [
        {
          "internalType": "bool",
          "name": "",
          "type": "bool"
        }
      ],
      "stateMutability": "view",
      "type": "function"
    },
    {
      "inputs": [],
      "name": "_price",
      "outputs": [
        {
          "internalType": "uint256",
          "name": "",
          "type": "uint256"
        }
      ],
      "stateMutability": "view",
      "type": "function"
    },
    {
      "inputs": [
        {
          "internalType": "address",
          "name": "to",
          "type": "address"
        },
        {
          "internalType": "uint256",
          "name": "tokenId",
          "type": "uint256"
        }
      ],
      "name": "approve",
      "outputs": [],
      "stateMutability": "nonpayable",
      "type": "function"
    },
    {
      "inputs": [
        {
          "internalType": "address",
          "name": "owner",
          "type": "address"
        }
      ],
      "name": "balanceOf",
      "outputs": [
        {
          "internalType": "uint256",
          "name": "",
          "type": "uint256"
        }
      ],
      "stateMutability": "view",
      "type": "function"
    },
    {
      "inputs": [
        {
          "internalType": "uint256",
          "name": "tokenId",
          "type": "uint256"
        }
      ],
      "name": "getApproved",
      "outputs": [
        {
          "internalType": "address",
          "name": "",
          "type": "address"
        }
      ],
      "stateMutability": "view",
      "type": "function"
    },
    {
      "inputs": [
        {
          "internalType": "address",
          "name": "owner",
          "type": "address"
        },
        {
          "internalType": "address",
          "name": "operator",
          "type": "address"
        }
      ],
      "name": "isApprovedForAll",
      "outputs": [
        {
          "internalType": "bool",
          "name": "",
          "type": "bool"
        }
      ],
      "stateMutability": "view",
      "type": "function"
    },
    {
      "inputs": [],
      "name": "name",
      "outputs": [
        {
          "internalType": "string",
          "name": "",
          "type": "string"
        }
      ],
      "stateMutability": "view",
      "type": "function"
    },
    {
      "inputs": [],
      "name": "owner",
      "outputs": [
        {
          "internalType": "address",
          "name": "",
          "type": "address"
        }
      ],
      "stateMutability": "view",
      "type": "function"
    },
    {
      "inputs": [
        {
          "internalType": "uint256",
          "name": "tokenId",
          "type": "uint256"
        }
      ],
      "name": "ownerOf",
      "outputs": [
        {
          "internalType": "address",
          "name": "",
          "type": "address"
        }
      ],
      "stateMutability": "view",
      "type": "function"
    },
    {
      "inputs": [],
      "name": "renounceOwnership",
      "outputs": [],
      "stateMutability": "nonpayable",
      "type": "function"
    },
    {
      "inputs": [
        {
          "internalType": "address",
          "name": "from",
          "type": "address"
        },
        {
          "internalType": "address",
          "name": "to",
          "type": "address"
        },
        {
          "internalType": "uint256",
          "name": "tokenId",
          "type": "uint256"
        }
      ],
      "name": "safeTransferFrom",
      "outputs": [],
      "stateMutability": "nonpayable",
      "type": "function"
    },
    {
      "inputs": [
        {
          "internalType": "address",
          "name": "from",
          "type": "address"
        },
        {
          "internalType": "address",
          "name": "to",
          "type": "address"
        },
        {
          "internalType": "uint256",
          "name": "tokenId",
          "type": "uint256"
        },
        {
          "internalType": "bytes",
          "name": "_data",
          "type": "bytes"
        }
      ],
      "name": "safeTransferFrom",
      "outputs": [],
      "stateMutability": "nonpayable",
      "type": "function"
    },
    {
      "inputs": [
        {
          "internalType": "address",
          "name": "operator",
          "type": "address"
        },
        {
          "internalType": "bool",
          "name": "approved",
          "type": "bool"
        }
      ],
      "name": "setApprovalForAll",
      "outputs": [],
      "stateMutability": "nonpayable",
      "type": "function"
    },
    {
      "inputs": [
        {
          "internalType": "bytes4",
          "name": "interfaceId",
          "type": "bytes4"
        }
      ],
      "name": "supportsInterface",
      "outputs": [
        {
          "internalType": "bool",
          "name": "",
          "type": "bool"
        }
      ],
      "stateMutability": "view",
      "type": "function"
    },
    {
      "inputs": [],
      "name": "symbol",
      "outputs": [
        {
          "internalType": "string",
          "name": "",
          "type": "string"
        }
      ],
      "stateMutability": "view",
      "type": "function"
    },
    {
      "inputs": [
        {
          "internalType": "uint256",
          "name": "index",
          "type": "uint256"
        }
      ],
      "name": "tokenByIndex",
      "outputs": [
        {
          "internalType": "uint256",
          "name": "",
          "type": "uint256"
        }
      ],
      "stateMutability": "view",
      "type": "function"
    },
    {
      "inputs": [
        {
          "internalType": "address",
          "name": "owner",
          "type": "address"
        },
        {
          "internalType": "uint256",
          "name": "index",
          "type": "uint256"
        }
      ],
      "name": "tokenOfOwnerByIndex",
      "outputs": [
        {
          "internalType": "uint256",
          "name": "",
          "type": "uint256"
        }
      ],
      "stateMutability": "view",
      "type": "function"
    },
    {
      "inputs": [],
      "name": "totalSupply",
      "outputs": [
        {
          "internalType": "uint256",
          "name": "",
          "type": "uint256"
        }
      ],
      "stateMutability": "view",
      "type": "function"
    },
    {
      "inputs": [
        {
          "internalType": "address",
          "name": "from",
          "type": "address"
        },
        {
          "internalType": "address",
          "name": "to",
          "type": "address"
        },
        {
          "internalType": "uint256",
          "name": "tokenId",
          "type": "uint256"
        }
      ],
      "name": "transferFrom",
      "outputs": [],
      "stateMutability": "nonpayable",
      "type": "function"
    },
    {
      "inputs": [
        {
          "internalType": "address",
          "name": "newOwner",
          "type": "address"
        }
      ],
      "name": "transferOwnership",
      "outputs": [],
      "stateMutability": "nonpayable",
      "type": "function"
    },
    {
      "inputs": [
        {
          "internalType": "uint256",
          "name": "tokenId",
          "type": "uint256"
        }
      ],
      "name": "tokenURI",
      "outputs": [
        {
          "internalType": "string",
          "name": "",
          "type": "string"
        }
      ],
      "stateMutability": "view",
      "type": "function"
    },
    {
      "inputs": [],
      "name": "nextAvailableToken",
      "outputs": [
        {
          "internalType": "uint256",
          "name": "",
          "type": "uint256"
        }
      ],
      "stateMutability": "view",
      "type": "function"
    },
    {
      "inputs": [
        {
          "internalType": "uint256",
          "name": "tokenId",
          "type": "uint256"
        }
      ],
      "name": "mint",
      "outputs": [],
      "stateMutability": "payable",
      "type": "function"
    },
    {
      "inputs": [
        {
          "internalType": "uint256",
          "name": "tokenId",
          "type": "uint256"
        },
        {
          "internalType": "string",
          "name": "_tokenImage",
          "type": "string"
        },
        {
          "internalType": "string",
          "name": "_desc",
          "type": "string"
        }
      ],
      "name": "setTokenImage",
      "outputs": [],
      "stateMutability": "nonpayable",
      "type": "function"
    },
    {
      "inputs": [
        {
          "internalType": "uint256",
          "name": "newVal",
          "type": "uint256"
        }
      ],
      "name": "setMaxSupply",
      "outputs": [],
      "stateMutability": "nonpayable",
      "type": "function"
    },
    {
      "inputs": [
        {
          "internalType": "uint256",
          "name": "_newPrice",
          "type": "uint256"
        }
      ],
      "name": "setPrice",
      "outputs": [],
      "stateMutability": "nonpayable",
      "type": "function"
    },
    {
      "inputs": [
        {
          "internalType": "bool",
          "name": "val",
          "type": "bool"
        }
      ],
      "name": "setPause",
      "outputs": [],
      "stateMutability": "nonpayable",
      "type": "function"
    },
    {
      "inputs": [],
      "name": "withdraw",
      "outputs": [],
      "stateMutability": "payable",
      "type": "function"
    }
  ],
  "bytecode": "0x6080604052612710600b5566b1a2bc2ec50000600c556000600d60006101000a81548160ff0219169083151502179055503480156200003d57600080fd5b506040518060400160405280600c81526020017f4e46544c61756e636850616400000000000000000000000000000000000000008152506040518060400160405280600581526020017f4e46544c500000000000000000000000000000000000000000000000000000008152508160009080519060200190620000c2929190620001d2565b508060019080519060200190620000db929190620001d2565b505050620000fe620000f26200010460201b60201c565b6200010c60201b60201c565b620002e7565b600033905090565b6000600a60009054906101000a900473ffffffffffffffffffffffffffffffffffffffff16905081600a60006101000a81548173ffffffffffffffffffffffffffffffffffffffff021916908373ffffffffffffffffffffffffffffffffffffffff1602179055508173ffffffffffffffffffffffffffffffffffffffff168173ffffffffffffffffffffffffffffffffffffffff167f8be0079c531659141344cd1fd0a4f28419497f9722a3daafe3b4186f6b6457e060405160405180910390a35050565b828054620001e09062000282565b90600052602060002090601f01602090048101928262000204576000855562000250565b82601f106200021f57805160ff191683800117855562000250565b8280016001018555821562000250579182015b828111156200024f57825182559160200191906001019062000232565b5b5090506200025f919062000263565b5090565b5b808211156200027e57600081600090555060010162000264565b5090565b600060028204905060018216806200029b57607f821691505b60208210811415620002b257620002b1620002b8565b5b50919050565b7f4e487b7100000000000000000000000000000000000000000000000000000000600052602260045260246000fd5b61420680620002f76000396000f3fe6080604052600436106101c25760003560e01c80636a94e8b2116100f7578063a0712d6811610095578063c87b56dd11610064578063c87b56dd14610610578063e985e9c51461064d578063f20aed061461068a578063f2fde38b146106b5576101c2565b8063a0712d6814610579578063a22cb46514610595578063b88d4fde146105be578063bedb86fb146105e7576101c2565b8063715018a6116100d1578063715018a6146104e35780638da5cb5b146104fa57806391b7f5ed1461052557806395d89b411461054e576101c2565b80636a94e8b2146104545780636f8b44b01461047d57806370a08231146104a6576101c2565b8063235b6ea1116101645780633ccfd60b1161013e5780633ccfd60b146103a757806342842e0e146103b15780634f6ccce7146103da5780636352211e14610417576101c2565b8063235b6ea11461031657806323b872dd146103415780632f745c591461036a576101c2565b8063095ea7b3116101a0578063095ea7b31461026c57806316c61ccc1461029557806318160ddd146102c057806322f4596f146102eb576101c2565b806301ffc9a7146101c757806306fdde0314610204578063081812fc1461022f575b600080fd5b3480156101d357600080fd5b506101ee60048036038101906101e99190612c36565b6106de565b6040516101fb919061330b565b60405180910390f35b34801561021057600080fd5b50610219610758565b6040516102269190613326565b60405180910390f35b34801561023b57600080fd5b5061025660048036038101906102519190612c90565b6107ea565b60405161026391906132a4565b60405180910390f35b34801561027857600080fd5b50610293600480360381019061028e9190612bc9565b61086f565b005b3480156102a157600080fd5b506102aa610987565b6040516102b7919061330b565b60405180910390f35b3480156102cc57600080fd5b506102d561099a565b6040516102e291906135e8565b60405180910390f35b3480156102f757600080fd5b506103006109a7565b60405161030d91906135e8565b60405180910390f35b34801561032257600080fd5b5061032b6109ad565b60405161033891906135e8565b60405180910390f35b34801561034d57600080fd5b5061036860048036038101906103639190612ab3565b6109b3565b005b34801561037657600080fd5b50610391600480360381019061038c9190612bc9565b610a13565b60405161039e91906135e8565b60405180910390f35b6103af610ab8565b005b3480156103bd57600080fd5b506103d860048036038101906103d39190612ab3565b610b7d565b005b3480156103e657600080fd5b5061040160048036038101906103fc9190612c90565b610b9d565b60405161040e91906135e8565b60405180910390f35b34801561042357600080fd5b5061043e60048036038101906104399190612c90565b610c0e565b60405161044b91906132a4565b60405180910390f35b34801561046057600080fd5b5061047b60048036038101906104769190612cbd565b610cc0565b005b34801561048957600080fd5b506104a4600480360381019061049f9190612c90565b610d70565b005b3480156104b257600080fd5b506104cd60048036038101906104c89190612a46565b610df6565b6040516104da91906135e8565b60405180910390f35b3480156104ef57600080fd5b506104f8610eae565b005b34801561050657600080fd5b5061050f610f36565b60405161051c91906132a4565b60405180910390f35b34801561053157600080fd5b5061054c60048036038101906105479190612c90565b610f60565b005b34801561055a57600080fd5b50610563610fe6565b6040516105709190613326565b60405180910390f35b610593600480360381019061058e9190612c90565b611078565b005b3480156105a157600080fd5b506105bc60048036038101906105b79190612b89565b6111a5565b005b3480156105ca57600080fd5b506105e560048036038101906105e09190612b06565b611326565b005b3480156105f357600080fd5b5061060e60048036038101906106099190612c09565b611388565b005b34801561061c57600080fd5b5061063760048036038101906106329190612c90565b611421565b6040516106449190613326565b60405180910390f35b34801561065957600080fd5b50610674600480360381019061066f9190612a73565b6114ad565b604051610681919061330b565b60405180910390f35b34801561069657600080fd5b5061069f611541565b6040516106ac91906135e8565b60405180910390f35b3480156106c157600080fd5b506106dc60048036038101906106d79190612a46565b611584565b005b60007f780e9d63000000000000000000000000000000000000000000000000000000007bffffffffffffffffffffffffffffffffffffffffffffffffffffffff1916827bffffffffffffffffffffffffffffffffffffffffffffffffffffffff1916148061075157506107508261167c565b5b9050919050565b606060008054610767906138ad565b80601f0160208091040260200160405190810160405280929190818152602001828054610793906138ad565b80156107e05780601f106107b5576101008083540402835291602001916107e0565b820191906000526020600020905b8154815290600101906020018083116107c357829003601f168201915b5050505050905090565b60006107f58261175e565b610834576040517f08c379a000000000000000000000000000000000000000000000000000000000815260040161082b906134e8565b60405180910390fd5b6004600083815260200190815260200160002060009054906101000a900473ffffffffffffffffffffffffffffffffffffffff169050919050565b600061087a82610c0e565b90508073ffffffffffffffffffffffffffffffffffffffff168373ffffffffffffffffffffffffffffffffffffffff1614156108eb576040517f08c379a00000000000000000000000000000000000000000000000000000000081526004016108e290613548565b60405180910390fd5b8073ffffffffffffffffffffffffffffffffffffffff1661090a6117ca565b73ffffffffffffffffffffffffffffffffffffffff1614806109395750610938816109336117ca565b6114ad565b5b610978576040517f08c379a000000000000000000000000000000000000000000000000000000000815260040161096f90613448565b60405180910390fd5b61098283836117d2565b505050565b600d60009054906101000a900460ff1681565b6000600880549050905090565b600b5481565b600c5481565b6109c46109be6117ca565b8261188b565b610a03576040517f08c379a00000000000000000000000000000000000000000000000000000000081526004016109fa906135a8565b60405180910390fd5b610a0e838383611969565b505050565b6000610a1e83610df6565b8210610a5f576040517f08c379a0000000000000000000000000000000000000000000000000000000008152600401610a5690613368565b60405180910390fd5b600660008473ffffffffffffffffffffffffffffffffffffffff1673ffffffffffffffffffffffffffffffffffffffff168152602001908152602001600020600083815260200190815260200160002054905092915050565b610ac06117ca565b73ffffffffffffffffffffffffffffffffffffffff16610ade610f36565b73ffffffffffffffffffffffffffffffffffffffff1614610b34576040517f08c379a0000000000000000000000000000000000000000000000000000000008152600401610b2b90613508565b60405180910390fd5b3373ffffffffffffffffffffffffffffffffffffffff166108fc479081150290604051600060405180830381858888f19350505050158015610b7a573d6000803e3d6000fd5b50565b610b9883838360405180602001604052806000815250611326565b505050565b6000610ba761099a565b8210610be8576040517f08c379a0000000000000000000000000000000000000000000000000000000008152600401610bdf906135c8565b60405180910390fd5b60088281548110610bfc57610bfb613a46565b5b90600052602060002001549050919050565b6000806002600084815260200190815260200160002060009054906101000a900473ffffffffffffffffffffffffffffffffffffffff169050600073ffffffffffffffffffffffffffffffffffffffff168173ffffffffffffffffffffffffffffffffffffffff161415610cb7576040517f08c379a0000000000000000000000000000000000000000000000000000000008152600401610cae90613488565b60405180910390fd5b80915050919050565b610cd1610ccb6117ca565b8461188b565b610d10576040517f08c379a0000000000000000000000000000000000000000000000000000000008152600401610d07906134c8565b60405180910390fd5b81600e60008581526020019081526020016000209080519060200190610d3792919061285a565b50600081511115610d6b5780600f60008581526020019081526020016000209080519060200190610d6992919061285a565b505b505050565b610d786117ca565b73ffffffffffffffffffffffffffffffffffffffff16610d96610f36565b73ffffffffffffffffffffffffffffffffffffffff1614610dec576040517f08c379a0000000000000000000000000000000000000000000000000000000008152600401610de390613508565b60405180910390fd5b80600b8190555050565b60008073ffffffffffffffffffffffffffffffffffffffff168273ffffffffffffffffffffffffffffffffffffffff161415610e67576040517f08c379a0000000000000000000000000000000000000000000000000000000008152600401610e5e90613468565b60405180910390fd5b600360008373ffffffffffffffffffffffffffffffffffffffff1673ffffffffffffffffffffffffffffffffffffffff168152602001908152602001600020549050919050565b610eb66117ca565b73ffffffffffffffffffffffffffffffffffffffff16610ed4610f36565b73ffffffffffffffffffffffffffffffffffffffff1614610f2a576040517f08c379a0000000000000000000000000000000000000000000000000000000008152600401610f2190613508565b60405180910390fd5b610f346000611bc5565b565b6000600a60009054906101000a900473ffffffffffffffffffffffffffffffffffffffff16905090565b610f686117ca565b73ffffffffffffffffffffffffffffffffffffffff16610f86610f36565b73ffffffffffffffffffffffffffffffffffffffff1614610fdc576040517f08c379a0000000000000000000000000000000000000000000000000000000008152600401610fd390613508565b60405180910390fd5b80600c8190555050565b606060018054610ff5906138ad565b80601f0160208091040260200160405190810160405280929190818152602001828054611021906138ad565b801561106e5780601f106110435761010080835404028352916020019161106e565b820191906000526020600020905b81548152906001019060200180831161105157829003601f168201915b5050505050905090565b600d60009054906101000a900460ff16156110c8576040517f08c379a00000000000000000000000000000000000000000000000000000000081526004016110bf90613348565b60405180910390fd5b600b546110d361099a565b10611113576040517f08c379a000000000000000000000000000000000000000000000000000000000815260040161110a90613568565b60405180910390fd5b600c54341015611158576040517f08c379a000000000000000000000000000000000000000000000000000000000815260040161114f90613588565b60405180910390fd5b60405180608001604052806053815260200161413e60539139600f6000838152602001908152602001600020908051906020019061119792919061285a565b506111a23382611c8b565b50565b6111ad6117ca565b73ffffffffffffffffffffffffffffffffffffffff168273ffffffffffffffffffffffffffffffffffffffff16141561121b576040517f08c379a000000000000000000000000000000000000000000000000000000000815260040161121290613408565b60405180910390fd5b80600560006112286117ca565b73ffffffffffffffffffffffffffffffffffffffff1673ffffffffffffffffffffffffffffffffffffffff16815260200190815260200160002060008473ffffffffffffffffffffffffffffffffffffffff1673ffffffffffffffffffffffffffffffffffffffff16815260200190815260200160002060006101000a81548160ff0219169083151502179055508173ffffffffffffffffffffffffffffffffffffffff166112d56117ca565b73ffffffffffffffffffffffffffffffffffffffff167f17307eab39ab6107e8899845ad3d59bd9653f200f220920489ca2b5937696c318360405161131a919061330b565b60405180910390a35050565b6113376113316117ca565b8361188b565b611376576040517f08c379a000000000000000000000000000000000000000000000000000000000815260040161136d906135a8565b60405180910390fd5b61138284848484611ca9565b50505050565b6113906117ca565b73ffffffffffffffffffffffffffffffffffffffff166113ae610f36565b73ffffffffffffffffffffffffffffffffffffffff1614611404576040517f08c379a00000000000000000000000000000000000000000000000000000000081526004016113fb90613508565b60405180910390fd5b80600d60006101000a81548160ff02191690831515021790555050565b6060600061147d61143184611d05565b600f6000868152602001908152602001600020600e600087815260200190815260200160002060405160200161146993929190613225565b604051602081830303815290604052611e66565b90506000816040516020016114929190613282565b60405160208183030381529060405290508092505050919050565b6000600560008473ffffffffffffffffffffffffffffffffffffffff1673ffffffffffffffffffffffffffffffffffffffff16815260200190815260200160002060008373ffffffffffffffffffffffffffffffffffffffff1673ffffffffffffffffffffffffffffffffffffffff16815260200190815260200160002060009054906101000a900460ff16905092915050565b600080600190505b600b54811161157b5761155b8161175e565b6115685780915050611581565b808061157390613910565b915050611549565b50600090505b90565b61158c6117ca565b73ffffffffffffffffffffffffffffffffffffffff166115aa610f36565b73ffffffffffffffffffffffffffffffffffffffff1614611600576040517f08c379a00000000000000000000000000000000000000000000000000000000081526004016115f790613508565b60405180910390fd5b600073ffffffffffffffffffffffffffffffffffffffff168173ffffffffffffffffffffffffffffffffffffffff161415611670576040517f08c379a0000000000000000000000000000000000000000000000000000000008152600401611667906133a8565b60405180910390fd5b61167981611bc5565b50565b60007f80ac58cd000000000000000000000000000000000000000000000000000000007bffffffffffffffffffffffffffffffffffffffffffffffffffffffff1916827bffffffffffffffffffffffffffffffffffffffffffffffffffffffff1916148061174757507f5b5e139f000000000000000000000000000000000000000000000000000000007bffffffffffffffffffffffffffffffffffffffffffffffffffffffff1916827bffffffffffffffffffffffffffffffffffffffffffffffffffffffff1916145b80611757575061175682611ffe565b5b9050919050565b60008073ffffffffffffffffffffffffffffffffffffffff166002600084815260200190815260200160002060009054906101000a900473ffffffffffffffffffffffffffffffffffffffff1673ffffffffffffffffffffffffffffffffffffffff1614159050919050565b600033905090565b816004600083815260200190815260200160002060006101000a81548173ffffffffffffffffffffffffffffffffffffffff021916908373ffffffffffffffffffffffffffffffffffffffff160217905550808273ffffffffffffffffffffffffffffffffffffffff1661184583610c0e565b73ffffffffffffffffffffffffffffffffffffffff167f8c5be1e5ebec7d5bd14f71427d1e84f3dd0314c0f7b2291e5b200ac8c7c3b92560405160405180910390a45050565b60006118968261175e565b6118d5576040517f08c379a00000000000000000000000000000000000000000000000000000000081526004016118cc90613428565b60405180910390fd5b60006118e083610c0e565b90508073ffffffffffffffffffffffffffffffffffffffff168473ffffffffffffffffffffffffffffffffffffffff16148061194f57508373ffffffffffffffffffffffffffffffffffffffff16611937846107ea565b73ffffffffffffffffffffffffffffffffffffffff16145b80611960575061195f81856114ad565b5b91505092915050565b8273ffffffffffffffffffffffffffffffffffffffff1661198982610c0e565b73ffffffffffffffffffffffffffffffffffffffff16146119df576040517f08c379a00000000000000000000000000000000000000000000000000000000081526004016119d690613528565b60405180910390fd5b600073ffffffffffffffffffffffffffffffffffffffff168273ffffffffffffffffffffffffffffffffffffffff161415611a4f576040517f08c379a0000000000000000000000000000000000000000000000000000000008152600401611a46906133e8565b60405180910390fd5b611a5a838383612068565b611a656000826117d2565b6001600360008573ffffffffffffffffffffffffffffffffffffffff1673ffffffffffffffffffffffffffffffffffffffff1681526020019081526020016000206000828254611ab591906137c3565b925050819055506001600360008473ffffffffffffffffffffffffffffffffffffffff1673ffffffffffffffffffffffffffffffffffffffff1681526020019081526020016000206000828254611b0c91906136e2565b92505081905550816002600083815260200190815260200160002060006101000a81548173ffffffffffffffffffffffffffffffffffffffff021916908373ffffffffffffffffffffffffffffffffffffffff160217905550808273ffffffffffffffffffffffffffffffffffffffff168473ffffffffffffffffffffffffffffffffffffffff167fddf252ad1be2c89b69c2b068fc378daa952ba7f163c4a11628f55a4df523b3ef60405160405180910390a4505050565b6000600a60009054906101000a900473ffffffffffffffffffffffffffffffffffffffff16905081600a60006101000a81548173ffffffffffffffffffffffffffffffffffffffff021916908373ffffffffffffffffffffffffffffffffffffffff1602179055508173ffffffffffffffffffffffffffffffffffffffff168173ffffffffffffffffffffffffffffffffffffffff167f8be0079c531659141344cd1fd0a4f28419497f9722a3daafe3b4186f6b6457e060405160405180910390a35050565b611ca582826040518060200160405280600081525061217c565b5050565b611cb4848484611969565b611cc0848484846121d7565b611cff576040517f08c379a0000000000000000000000000000000000000000000000000000000008152600401611cf690613388565b60405180910390fd5b50505050565b60606000821415611d4d576040518060400160405280600181526020017f30000000000000000000000000000000000000000000000000000000000000008152509050611e61565b600082905060005b60008214611d7f578080611d6890613910565b915050600a82611d789190613738565b9150611d55565b60008167ffffffffffffffff811115611d9b57611d9a613a75565b5b6040519080825280601f01601f191660200182016040528015611dcd5781602001600182028036833780820191505090505b5090505b60008514611e5a57600182611de691906137c3565b9150600a85611df59190613959565b6030611e0191906136e2565b60f81b818381518110611e1757611e16613a46565b5b60200101907effffffffffffffffffffffffffffffffffffffffffffffffffffffffffffff1916908160001a905350600a85611e539190613738565b9450611dd1565b8093505050505b919050565b60606000825190506000811415611e8f5760405180602001604052806000815250915050611ff9565b60006003600283611ea091906136e2565b611eaa9190613738565b6004611eb69190613769565b90506000602082611ec791906136e2565b67ffffffffffffffff811115611ee057611edf613a75565b5b6040519080825280601f01601f191660200182016040528015611f125781602001600182028036833780820191505090505b5090506000604051806060016040528060408152602001614191604091399050600181016020830160005b86811015611fb65760038101905062ffffff818a015116603f8160121c168401518060081b905060ff603f83600c1c1686015116810190508060081b905060ff603f8360061c1686015116810190508060081b905060ff603f831686015116810190508060e01b90508084526004840193505050611f3d565b506003860660018114611fd05760028114611fe057611feb565b613d3d60f01b6002830352611feb565b603d60f81b60018303525b508484525050819450505050505b919050565b60007f01ffc9a7000000000000000000000000000000000000000000000000000000007bffffffffffffffffffffffffffffffffffffffffffffffffffffffff1916827bffffffffffffffffffffffffffffffffffffffffffffffffffffffff1916149050919050565b61207383838361236e565b600073ffffffffffffffffffffffffffffffffffffffff168373ffffffffffffffffffffffffffffffffffffffff1614156120b6576120b181612373565b6120f5565b8173ffffffffffffffffffffffffffffffffffffffff168373ffffffffffffffffffffffffffffffffffffffff16146120f4576120f383826123bc565b5b5b600073ffffffffffffffffffffffffffffffffffffffff168273ffffffffffffffffffffffffffffffffffffffff1614156121385761213381612529565b612177565b8273ffffffffffffffffffffffffffffffffffffffff168273ffffffffffffffffffffffffffffffffffffffff16146121765761217582826125fa565b5b5b505050565b6121868383612679565b61219360008484846121d7565b6121d2576040517f08c379a00000000000000000000000000000000000000000000000000000000081526004016121c990613388565b60405180910390fd5b505050565b60006121f88473ffffffffffffffffffffffffffffffffffffffff16612847565b15612361578373ffffffffffffffffffffffffffffffffffffffff1663150b7a026122216117ca565b8786866040518563ffffffff1660e01b815260040161224394939291906132bf565b602060405180830381600087803b15801561225d57600080fd5b505af192505050801561228e57506040513d601f19601f8201168201806040525081019061228b9190612c63565b60015b612311573d80600081146122be576040519150601f19603f3d011682016040523d82523d6000602084013e6122c3565b606091505b50600081511415612309576040517f08c379a000000000000000000000000000000000000000000000000000000000815260040161230090613388565b60405180910390fd5b805181602001fd5b63150b7a0260e01b7bffffffffffffffffffffffffffffffffffffffffffffffffffffffff1916817bffffffffffffffffffffffffffffffffffffffffffffffffffffffff191614915050612366565b600190505b949350505050565b505050565b6008805490506009600083815260200190815260200160002081905550600881908060018154018082558091505060019003906000526020600020016000909190919091505550565b600060016123c984610df6565b6123d391906137c3565b90506000600760008481526020019081526020016000205490508181146124b8576000600660008673ffffffffffffffffffffffffffffffffffffffff1673ffffffffffffffffffffffffffffffffffffffff168152602001908152602001600020600084815260200190815260200160002054905080600660008773ffffffffffffffffffffffffffffffffffffffff1673ffffffffffffffffffffffffffffffffffffffff168152602001908152602001600020600084815260200190815260200160002081905550816007600083815260200190815260200160002081905550505b6007600084815260200190815260200160002060009055600660008573ffffffffffffffffffffffffffffffffffffffff1673ffffffffffffffffffffffffffffffffffffffff16815260200190815260200160002060008381526020019081526020016000206000905550505050565b6000600160088054905061253d91906137c3565b905060006009600084815260200190815260200160002054905060006008838154811061256d5761256c613a46565b5b90600052602060002001549050806008838154811061258f5761258e613a46565b5b9060005260206000200181905550816009600083815260200190815260200160002081905550600960008581526020019081526020016000206000905560088054806125de576125dd613a17565b5b6001900381819060005260206000200160009055905550505050565b600061260583610df6565b905081600660008573ffffffffffffffffffffffffffffffffffffffff1673ffffffffffffffffffffffffffffffffffffffff168152602001908152602001600020600083815260200190815260200160002081905550806007600084815260200190815260200160002081905550505050565b600073ffffffffffffffffffffffffffffffffffffffff168273ffffffffffffffffffffffffffffffffffffffff1614156126e9576040517f08c379a00000000000000000000000000000000000000000000000000000000081526004016126e0906134a8565b60405180910390fd5b6126f28161175e565b15612732576040517f08c379a0000000000000000000000000000000000000000000000000000000008152600401612729906133c8565b60405180910390fd5b61273e60008383612068565b6001600360008473ffffffffffffffffffffffffffffffffffffffff1673ffffffffffffffffffffffffffffffffffffffff168152602001908152602001600020600082825461278e91906136e2565b92505081905550816002600083815260200190815260200160002060006101000a81548173ffffffffffffffffffffffffffffffffffffffff021916908373ffffffffffffffffffffffffffffffffffffffff160217905550808273ffffffffffffffffffffffffffffffffffffffff16600073ffffffffffffffffffffffffffffffffffffffff167fddf252ad1be2c89b69c2b068fc378daa952ba7f163c4a11628f55a4df523b3ef60405160405180910390a45050565b600080823b905060008111915050919050565b828054612866906138ad565b90600052602060002090601f01602090048101928261288857600085556128cf565b82601f106128a157805160ff19168380011785556128cf565b828001600101855582156128cf579182015b828111156128ce5782518255916020019190600101906128b3565b5b5090506128dc91906128e0565b5090565b5b808211156128f95760008160009055506001016128e1565b5090565b600061291061290b84613628565b613603565b90508281526020810184848401111561292c5761292b613aa9565b5b61293784828561386b565b509392505050565b600061295261294d84613659565b613603565b90508281526020810184848401111561296e5761296d613aa9565b5b61297984828561386b565b509392505050565b600081359050612990816140e1565b92915050565b6000813590506129a5816140f8565b92915050565b6000813590506129ba8161410f565b92915050565b6000815190506129cf8161410f565b92915050565b600082601f8301126129ea576129e9613aa4565b5b81356129fa8482602086016128fd565b91505092915050565b600082601f830112612a1857612a17613aa4565b5b8135612a2884826020860161293f565b91505092915050565b600081359050612a4081614126565b92915050565b600060208284031215612a5c57612a5b613ab3565b5b6000612a6a84828501612981565b91505092915050565b60008060408385031215612a8a57612a89613ab3565b5b6000612a9885828601612981565b9250506020612aa985828601612981565b9150509250929050565b600080600060608486031215612acc57612acb613ab3565b5b6000612ada86828701612981565b9350506020612aeb86828701612981565b9250506040612afc86828701612a31565b9150509250925092565b60008060008060808587031215612b2057612b1f613ab3565b5b6000612b2e87828801612981565b9450506020612b3f87828801612981565b9350506040612b5087828801612a31565b925050606085013567ffffffffffffffff811115612b7157612b70613aae565b5b612b7d878288016129d5565b91505092959194509250565b60008060408385031215612ba057612b9f613ab3565b5b6000612bae85828601612981565b9250506020612bbf85828601612996565b9150509250929050565b60008060408385031215612be057612bdf613ab3565b5b6000612bee85828601612981565b9250506020612bff85828601612a31565b9150509250929050565b600060208284031215612c1f57612c1e613ab3565b5b6000612c2d84828501612996565b91505092915050565b600060208284031215612c4c57612c4b613ab3565b5b6000612c5a848285016129ab565b91505092915050565b600060208284031215612c7957612c78613ab3565b5b6000612c87848285016129c0565b91505092915050565b600060208284031215612ca657612ca5613ab3565b5b6000612cb484828501612a31565b91505092915050565b600080600060608486031215612cd657612cd5613ab3565b5b6000612ce486828701612a31565b935050602084013567ffffffffffffffff811115612d0557612d04613aae565b5b612d1186828701612a03565b925050604084013567ffffffffffffffff811115612d3257612d31613aae565b5b612d3e86828701612a03565b9150509250925092565b612d51816137f7565b82525050565b612d6081613809565b82525050565b6000612d718261369f565b612d7b81856136b5565b9350612d8b81856020860161387a565b612d9481613ab8565b840191505092915050565b6000612daa826136aa565b612db481856136c6565b9350612dc481856020860161387a565b612dcd81613ab8565b840191505092915050565b6000612de3826136aa565b612ded81856136d7565b9350612dfd81856020860161387a565b80840191505092915050565b60008154612e16816138ad565b612e2081866136d7565b94506001821660008114612e3b5760018114612e4c57612e7f565b60ff19831686528186019350612e7f565b612e558561368a565b60005b83811015612e7757815481890152600182019150602081019050612e58565b838801955050505b50505092915050565b6000612e95600b836136c6565b9150612ea082613ac9565b602082019050919050565b6000612eb86013836136d7565b9150612ec382613af2565b601382019050919050565b6000612edb602b836136c6565b9150612ee682613b1b565b604082019050919050565b6000612efe6032836136c6565b9150612f0982613b6a565b604082019050919050565b6000612f216026836136c6565b9150612f2c82613bb9565b604082019050919050565b6000612f44601c836136c6565b9150612f4f82613c08565b602082019050919050565b6000612f676024836136c6565b9150612f7282613c31565b604082019050919050565b6000612f8a6019836136c6565b9150612f9582613c80565b602082019050919050565b6000612fad602c836136c6565b9150612fb882613ca9565b604082019050919050565b6000612fd06038836136c6565b9150612fdb82613cf8565b604082019050919050565b6000612ff3602a836136c6565b9150612ffe82613d47565b604082019050919050565b60006130166029836136c6565b915061302182613d96565b604082019050919050565b60006130396011836136d7565b915061304482613de5565b601182019050919050565b600061305c6002836136d7565b915061306782613e0e565b600282019050919050565b600061307f6020836136c6565b915061308a82613e37565b602082019050919050565b60006130a2600e836136c6565b91506130ad82613e60565b602082019050919050565b60006130c5600d836136d7565b91506130d082613e89565b600d82019050919050565b60006130e8602c836136c6565b91506130f382613eb2565b604082019050919050565b600061310b6020836136c6565b915061311682613f01565b602082019050919050565b600061312e6029836136c6565b915061313982613f2a565b604082019050919050565b60006131516021836136c6565b915061315c82613f79565b604082019050919050565b60006131746016836136c6565b915061317f82613fc8565b602082019050919050565b60006131976019836136c6565b91506131a282613ff1565b602082019050919050565b60006131ba601d836136d7565b91506131c58261401a565b601d82019050919050565b60006131dd6031836136c6565b91506131e882614043565b604082019050919050565b6000613200602c836136c6565b915061320b82614092565b604082019050919050565b61321f81613861565b82525050565b60006132308261302c565b915061323c8286612dd8565b915061324782612eab565b91506132538285612e09565b915061325e826130b8565b915061326a8284612e09565b91506132758261304f565b9150819050949350505050565b600061328d826131ad565b91506132998284612dd8565b915081905092915050565b60006020820190506132b96000830184612d48565b92915050565b60006080820190506132d46000830187612d48565b6132e16020830186612d48565b6132ee6040830185613216565b81810360608301526133008184612d66565b905095945050505050565b60006020820190506133206000830184612d57565b92915050565b600060208201905081810360008301526133408184612d9f565b905092915050565b6000602082019050818103600083015261336181612e88565b9050919050565b6000602082019050818103600083015261338181612ece565b9050919050565b600060208201905081810360008301526133a181612ef1565b9050919050565b600060208201905081810360008301526133c181612f14565b9050919050565b600060208201905081810360008301526133e181612f37565b9050919050565b6000602082019050818103600083015261340181612f5a565b9050919050565b6000602082019050818103600083015261342181612f7d565b9050919050565b6000602082019050818103600083015261344181612fa0565b9050919050565b6000602082019050818103600083015261346181612fc3565b9050919050565b6000602082019050818103600083015261348181612fe6565b9050919050565b600060208201905081810360008301526134a181613009565b9050919050565b600060208201905081810360008301526134c181613072565b9050919050565b600060208201905081810360008301526134e181613095565b9050919050565b60006020820190508181036000830152613501816130db565b9050919050565b60006020820190508181036000830152613521816130fe565b9050919050565b6000602082019050818103600083015261354181613121565b9050919050565b6000602082019050818103600083015261356181613144565b9050919050565b6000602082019050818103600083015261358181613167565b9050919050565b600060208201905081810360008301526135a18161318a565b9050919050565b600060208201905081810360008301526135c1816131d0565b9050919050565b600060208201905081810360008301526135e1816131f3565b9050919050565b60006020820190506135fd6000830184613216565b92915050565b600061360d61361e565b905061361982826138df565b919050565b6000604051905090565b600067ffffffffffffffff82111561364357613642613a75565b5b61364c82613ab8565b9050602081019050919050565b600067ffffffffffffffff82111561367457613673613a75565b5b61367d82613ab8565b9050602081019050919050565b60008190508160005260206000209050919050565b600081519050919050565b600081519050919050565b600082825260208201905092915050565b600082825260208201905092915050565b600081905092915050565b60006136ed82613861565b91506136f883613861565b9250827fffffffffffffffffffffffffffffffffffffffffffffffffffffffffffffffff0382111561372d5761372c61398a565b5b828201905092915050565b600061374382613861565b915061374e83613861565b92508261375e5761375d6139b9565b5b828204905092915050565b600061377482613861565b915061377f83613861565b9250817fffffffffffffffffffffffffffffffffffffffffffffffffffffffffffffffff04831182151516156137b8576137b761398a565b5b828202905092915050565b60006137ce82613861565b91506137d983613861565b9250828210156137ec576137eb61398a565b5b828203905092915050565b600061380282613841565b9050919050565b60008115159050919050565b60007fffffffff0000000000000000000000000000000000000000000000000000000082169050919050565b600073ffffffffffffffffffffffffffffffffffffffff82169050919050565b6000819050919050565b82818337600083830152505050565b60005b8381101561389857808201518184015260208101905061387d565b838111156138a7576000848401525b50505050565b600060028204905060018216806138c557607f821691505b602082108114156138d9576138d86139e8565b5b50919050565b6138e882613ab8565b810181811067ffffffffffffffff8211171561390757613906613a75565b5b80604052505050565b600061391b82613861565b91507fffffffffffffffffffffffffffffffffffffffffffffffffffffffffffffffff82141561394e5761394d61398a565b5b600182019050919050565b600061396482613861565b915061396f83613861565b92508261397f5761397e6139b9565b5b828206905092915050565b7f4e487b7100000000000000000000000000000000000000000000000000000000600052601160045260246000fd5b7f4e487b7100000000000000000000000000000000000000000000000000000000600052601260045260246000fd5b7f4e487b7100000000000000000000000000000000000000000000000000000000600052602260045260246000fd5b7f4e487b7100000000000000000000000000000000000000000000000000000000600052603160045260246000fd5b7f4e487b7100000000000000000000000000000000000000000000000000000000600052603260045260246000fd5b7f4e487b7100000000000000000000000000000000000000000000000000000000600052604160045260246000fd5b600080fd5b600080fd5b600080fd5b600080fd5b6000601f19601f8301169050919050565b7f53616c6520706175736564000000000000000000000000000000000000000000600082015250565b7f222c20226465736372697074696f6e223a202200000000000000000000000000600082015250565b7f455243373231456e756d657261626c653a206f776e657220696e646578206f7560008201527f74206f6620626f756e6473000000000000000000000000000000000000000000602082015250565b7f4552433732313a207472616e7366657220746f206e6f6e20455243373231526560008201527f63656976657220696d706c656d656e7465720000000000000000000000000000602082015250565b7f4f776e61626c653a206e6577206f776e657220697320746865207a65726f206160008201527f6464726573730000000000000000000000000000000000000000000000000000602082015250565b7f4552433732313a20746f6b656e20616c7265616479206d696e74656400000000600082015250565b7f4552433732313a207472616e7366657220746f20746865207a65726f2061646460008201527f7265737300000000000000000000000000000000000000000000000000000000602082015250565b7f4552433732313a20617070726f766520746f2063616c6c657200000000000000600082015250565b7f4552433732313a206f70657261746f7220717565727920666f72206e6f6e657860008201527f697374656e7420746f6b656e0000000000000000000000000000000000000000602082015250565b7f4552433732313a20617070726f76652063616c6c6572206973206e6f74206f7760008201527f6e6572206e6f7220617070726f76656420666f7220616c6c0000000000000000602082015250565b7f4552433732313a2062616c616e636520717565727920666f7220746865207a6560008201527f726f206164647265737300000000000000000000000000000000000000000000602082015250565b7f4552433732313a206f776e657220717565727920666f72206e6f6e657869737460008201527f656e7420746f6b656e0000000000000000000000000000000000000000000000602082015250565b7f7b226e616d65223a20224e46544c502023000000000000000000000000000000600082015250565b7f227d000000000000000000000000000000000000000000000000000000000000600082015250565b7f4552433732313a206d696e7420746f20746865207a65726f2061646472657373600082015250565b7f6e6f7420617574686f72697a6564000000000000000000000000000000000000600082015250565b7f222c2022696d616765223a202200000000000000000000000000000000000000600082015250565b7f4552433732313a20617070726f76656420717565727920666f72206e6f6e657860008201527f697374656e7420746f6b656e0000000000000000000000000000000000000000602082015250565b7f4f776e61626c653a2063616c6c6572206973206e6f7420746865206f776e6572600082015250565b7f4552433732313a207472616e73666572206f6620746f6b656e2074686174206960008201527f73206e6f74206f776e0000000000000000000000000000000000000000000000602082015250565b7f4552433732313a20617070726f76616c20746f2063757272656e74206f776e6560008201527f7200000000000000000000000000000000000000000000000000000000000000602082015250565b7f45786365656473206d6178696d756d20737570706c7900000000000000000000600082015250565b7f45746865722073656e74206973206e6f7420636f727265637400000000000000600082015250565b7f646174613a6170706c69636174696f6e2f6a736f6e3b6261736536342c000000600082015250565b7f4552433732313a207472616e736665722063616c6c6572206973206e6f74206f60008201527f776e6572206e6f7220617070726f766564000000000000000000000000000000602082015250565b7f455243373231456e756d657261626c653a20676c6f62616c20696e646578206f60008201527f7574206f6620626f756e64730000000000000000000000000000000000000000602082015250565b6140ea816137f7565b81146140f557600080fd5b50565b61410181613809565b811461410c57600080fd5b50565b61411881613815565b811461412357600080fd5b50565b61412f81613861565b811461413a57600080fd5b5056fe4e46544c61756e6368506164206c65747320796f75206d616b6520796f7572206f776e204e46542e20566973697420687474703a2f2f6e66746c61756e63687061642e696f20666f72206d6f726520696e666f4142434445464748494a4b4c4d4e4f505152535455565758595a6162636465666768696a6b6c6d6e6f707172737475767778797a303132333435363738392b2fa2646970667358221220fbfe41ab9a9394d90ea730acd78681cd64af7bf8d800658f0e82001c78014a9764736f6c63430008070033",
  "immutableReferences": {},
  "source": "// SPDX-License-Identifier: MIT\n\npragma solidity ^0.8.0;\n\nimport \"./FullERC721.sol\";\n\ncontract NFTLaunchPad is ERC721Enumerable, Ownable {\n\n    uint256 public _maxSupply = 10000;\n    uint256 public _price = 0.05 ether;\n    bool public _paused = false;\n\n    mapping (uint256 => string) private _tokenId2image;\n    mapping (uint256 => string) private _tokenId2desc;\n\n    constructor() ERC721(\"NFTLaunchPad\", \"NFTLP\") Ownable() {\n\t}\n\n    function tokenURI(uint256 tokenId) override public view returns (string memory) {\n        string memory json = Base64.encode(bytes(string(abi.encodePacked('{\"name\": \"NFTLP #', Strings.toString(tokenId), \n                            '\", \"description\": \"', _tokenId2desc[tokenId], '\", \"image\": \"', _tokenId2image[tokenId], '\"}'))));\n        string memory output = string(abi.encodePacked('data:application/json;base64,', json));\n        return output;\n    }\n    function nextAvailableToken() external view returns (uint256) {\n        for(uint256 i = 1; i <= _maxSupply; i++) {\n            if(!_exists(i)) return i;\n        }\n        return 0;\n    }\n    function mint(uint256 tokenId) external payable {\n        require(!_paused, \"Sale paused\");\n        require(totalSupply() < _maxSupply, \"Exceeds maximum supply\");\n        require(msg.value >= _price, \"Ether sent is not correct\");\n\n        _tokenId2desc[tokenId] = \"NFTLaunchPad lets you make your own NFT. Visit http://nftlaunchpad.io for more info\";\n        _safeMint(msg.sender, tokenId);\n    }\n    function setTokenImage(uint256 tokenId, string memory _tokenImage, string memory _desc) external {\n        require(_isApprovedOrOwner(_msgSender(), tokenId), \"not authorized\");\n        _tokenId2image[tokenId] = _tokenImage;\n        if(bytes(_desc).length > 0)\n            _tokenId2desc[tokenId] = _desc;\n    }\n    function setMaxSupply(uint256 newVal) external onlyOwner {\n        _maxSupply = newVal;\n    }\n    function setPrice(uint256 _newPrice) external onlyOwner {\n        _price = _newPrice;\n    }\n    function setPause(bool val) external onlyOwner {\n        _paused = val;\n    }\n    function withdraw() external payable onlyOwner {\n        payable(msg.sender).transfer(address(this).balance);\n    }\n}\n",
  "sourcePath": "/home/ec2-user/github/nftlaunchpad-dapp/src/contracts/NFTLaunchPad.sol",
  "compiler": {
    "name": "solc",
    "version": "0.8.7+commit.e28d00a7.Emscripten.clang"
  },
  "schemaVersion": "3.4.3",
  "updatedAt": "2022-01-23T13:09:08.829Z",
  "devdoc": {
    "kind": "dev",
    "methods": {
      "approve(address,uint256)": {
        "details": "See {IERC721-approve}."
      },
      "balanceOf(address)": {
        "details": "See {IERC721-balanceOf}."
      },
      "getApproved(uint256)": {
        "details": "See {IERC721-getApproved}."
      },
      "isApprovedForAll(address,address)": {
        "details": "See {IERC721-isApprovedForAll}."
      },
      "name()": {
        "details": "See {IERC721Metadata-name}."
      },
      "owner()": {
        "details": "Returns the address of the current owner."
      },
      "ownerOf(uint256)": {
        "details": "See {IERC721-ownerOf}."
      },
      "renounceOwnership()": {
        "details": "Leaves the contract without owner. It will not be possible to call `onlyOwner` functions anymore. Can only be called by the current owner. NOTE: Renouncing ownership will leave the contract without an owner, thereby removing any functionality that is only available to the owner."
      },
      "safeTransferFrom(address,address,uint256)": {
        "details": "See {IERC721-safeTransferFrom}."
      },
      "safeTransferFrom(address,address,uint256,bytes)": {
        "details": "See {IERC721-safeTransferFrom}."
      },
      "setApprovalForAll(address,bool)": {
        "details": "See {IERC721-setApprovalForAll}."
      },
      "supportsInterface(bytes4)": {
        "details": "See {IERC165-supportsInterface}."
      },
      "symbol()": {
        "details": "See {IERC721Metadata-symbol}."
      },
      "tokenByIndex(uint256)": {
        "details": "See {IERC721Enumerable-tokenByIndex}."
      },
      "tokenOfOwnerByIndex(address,uint256)": {
        "details": "See {IERC721Enumerable-tokenOfOwnerByIndex}."
      },
      "tokenURI(uint256)": {
        "details": "See {IERC721Metadata-tokenURI}."
      },
      "totalSupply()": {
        "details": "See {IERC721Enumerable-totalSupply}."
      },
      "transferFrom(address,address,uint256)": {
        "details": "See {IERC721-transferFrom}."
      },
      "transferOwnership(address)": {
        "details": "Transfers ownership of the contract to a new account (`newOwner`). Can only be called by the current owner."
      }
    },
    "version": 1
  },
  "userdoc": {
    "kind": "user",
    "methods": {},
    "version": 1
  }
}