{
  "contractName": "PlayerFCC",
  "abi": [
    {
      "inputs": [],
      "stateMutability": "nonpayable",
      "type": "constructor"
    },
    {
      "inputs": [
        {
          "internalType": "string",
          "name": "name",
          "type": "string"
        }
      ],
      "name": "getPlayerIndex",
      "outputs": [
        {
          "internalType": "uint256",
          "name": "",
          "type": "uint256"
        }
      ],
      "stateMutability": "view",
      "type": "function"
    },
    {
      "inputs": [],
      "name": "getPlayerCount",
      "outputs": [
        {
          "internalType": "uint256",
          "name": "",
          "type": "uint256"
        }
      ],
      "stateMutability": "view",
      "type": "function"
    },
    {
      "inputs": [
        {
          "internalType": "uint256",
          "name": "index",
          "type": "uint256"
        }
      ],
      "name": "getPlayer",
      "outputs": [
        {
          "internalType": "string",
          "name": "",
          "type": "string"
        }
      ],
      "stateMutability": "view",
      "type": "function"
    },
    {
      "inputs": [
        {
          "internalType": "uint256",
          "name": "playerIndex",
          "type": "uint256"
        },
        {
          "internalType": "uint256",
          "name": "val",
          "type": "uint256"
        }
      ],
      "name": "setPoints",
      "outputs": [],
      "stateMutability": "nonpayable",
      "type": "function"
    },
    {
      "inputs": [
        {
          "internalType": "uint256",
          "name": "playerIndex",
          "type": "uint256"
        }
      ],
      "name": "getCost",
      "outputs": [
        {
          "internalType": "uint256",
          "name": "",
          "type": "uint256"
        }
      ],
      "stateMutability": "view",
      "type": "function"
    }
  ],
  "bytecode": "0x6080604052604051806101000160405280620000566040518060400160405280600a81526020017f56697261744b6f686c69000000000000000000000000000000000000000000008152506200032a60201b60201c565b8152602001620000a16040518060400160405280600781526020017f4d5344686f6e69000000000000000000000000000000000000000000000000008152506200032a60201b60201c565b8152602001620000ec6040518060400160405280600c81526020017f48617264696b50616e64796100000000000000000000000000000000000000008152506200032a60201b60201c565b8152602001620001376040518060400160405280600c81526020017f476c656e6e4d617877656c6c00000000000000000000000000000000000000008152506200032a60201b60201c565b8152602001620001826040518060400160405280600381526020017f41424400000000000000000000000000000000000000000000000000000000008152506200032a60201b60201c565b8152602001620001cd6040518060400160405280600881526020017f506164696b6b616c0000000000000000000000000000000000000000000000008152506200032a60201b60201c565b8152602001620002186040518060400160405280600681526020017f43686168616c00000000000000000000000000000000000000000000000000008152506200032a60201b60201c565b8152602001620002636040518060400160405280600a81526020017f5374657665536d697468000000000000000000000000000000000000000000008152506200032a60201b60201c565b81525060009060086200027892919062000338565b50604051806101000160405280601460ff168152602001600a60ff168152602001600f60ff168152602001600c60ff168152602001600760ff168152602001600d60ff168152602001600e60ff168152602001600f60ff168152506001906008620002e59291906200038a565b506040518060400160405280600060ff168152602001600060ff16815250600290600262000315929190620003e1565b503480156200032357600080fd5b5062000476565b600060208201519050919050565b82805482825590600052602060002090810192821562000377579160200282015b828111156200037657825182559160200191906001019062000359565b5b50905062000386919062000438565b5090565b828054828255906000526020600020908101928215620003ce579160200282015b82811115620003cd578251829060ff16905591602001919060010190620003ab565b5b509050620003dd919062000457565b5090565b82805482825590600052602060002090810192821562000425579160200282015b8281111562000424578251829060ff1690559160200191906001019062000402565b5b50905062000434919062000457565b5090565b5b808211156200045357600081600090555060010162000439565b5090565b5b808211156200047257600081600090555060010162000458565b5090565b61074580620004866000396000f3fe608060405234801561001057600080fd5b50600436106100575760003560e01c80635a4dd47d1461005c5780637aa855281461008c578063876b71c3146100a8578063c2e52206146100d8578063e55ae4e8146100f6575b600080fd5b6100766004803603810190610071919061036a565b610126565b60405161008391906104b6565b60405180910390f35b6100a660048036038101906100a19190610397565b61014e565b005b6100c260048036038101906100bd9190610321565b610175565b6040516100cf91906104b6565b60405180910390f35b6100e061018f565b6040516100ed91906104b6565b60405180910390f35b610110600480360381019061010b919061036a565b61019b565b60405161011d9190610474565b60405180910390f35b60006001828154811061013c5761013b61064c565b5b90600052602060002001549050919050565b80600283815481106101635761016261064c565b5b90600052602060002001819055505050565b6000610188610183836101e2565b6101f0565b9050919050565b60008080549050905090565b6060600082815481106101b1576101b061064c565b5b90600052602060002001546040516020016101cc9190610459565b6040516020818303038152906040529050919050565b600060208201519050919050565b600080600080549050905060006103e7905060005b8281101561024c57600081815481106102215761022061064c565b5b906000526020600020015485141561023b5780915061024c565b80610245906105ca565b9050610205565b506103e7811415610292576040517f08c379a000000000000000000000000000000000000000000000000000000000815260040161028990610496565b60405180910390fd5b8092505050919050565b60006102af6102aa846104f6565b6104d1565b9050828152602081018484840111156102cb576102ca6106af565b5b6102d6848285610557565b509392505050565b600082601f8301126102f3576102f26106aa565b5b813561030384826020860161029c565b91505092915050565b60008135905061031b816106f8565b92915050565b600060208284031215610337576103366106b9565b5b600082013567ffffffffffffffff811115610355576103546106b4565b5b610361848285016102de565b91505092915050565b6000602082840312156103805761037f6106b9565b5b600061038e8482850161030c565b91505092915050565b600080604083850312156103ae576103ad6106b9565b5b60006103bc8582860161030c565b92505060206103cd8582860161030c565b9150509250929050565b6103e86103e382610543565b610613565b82525050565b60006103f982610527565b6104038185610532565b9350610413818560208601610566565b61041c816106be565b840191505092915050565b6000610434601283610532565b915061043f826106cf565b602082019050919050565b6104538161054d565b82525050565b600061046582846103d7565b60208201915081905092915050565b6000602082019050818103600083015261048e81846103ee565b905092915050565b600060208201905081810360008301526104af81610427565b9050919050565b60006020820190506104cb600083018461044a565b92915050565b60006104db6104ec565b90506104e78282610599565b919050565b6000604051905090565b600067ffffffffffffffff8211156105115761051061067b565b5b61051a826106be565b9050602081019050919050565b600081519050919050565b600082825260208201905092915050565b6000819050919050565b6000819050919050565b82818337600083830152505050565b60005b83811015610584578082015181840152602081019050610569565b83811115610593576000848401525b50505050565b6105a2826106be565b810181811067ffffffffffffffff821117156105c1576105c061067b565b5b80604052505050565b60006105d58261054d565b91507fffffffffffffffffffffffffffffffffffffffffffffffffffffffffffffffff8214156106085761060761061d565b5b600182019050919050565b6000819050919050565b7f4e487b7100000000000000000000000000000000000000000000000000000000600052601160045260246000fd5b7f4e487b7100000000000000000000000000000000000000000000000000000000600052603260045260246000fd5b7f4e487b7100000000000000000000000000000000000000000000000000000000600052604160045260246000fd5b600080fd5b600080fd5b600080fd5b600080fd5b6000601f19601f8301169050919050565b7f6e6f7420612076616c696420706c617965720000000000000000000000000000600082015250565b6107018161054d565b811461070c57600080fd5b5056fea264697066735822122057fd4c6a93e6ba0796539cbbbdb691eefa8300274687c19fdebe5e39f29ba79a64736f6c63430008070033",
  "immutableReferences": {},
  "source": "// SPDX-License-Identifier: MIT\n\npragma solidity ^0.8.0;\n\nimport \"./FCC.sol\";\n\ncontract PlayerFCC {\n\n    bytes32[] private _players = [\n        stringToBytes32(\"ViratKohli\"),\n        stringToBytes32(\"MSDhoni\"),\n        stringToBytes32(\"HardikPandya\"),\n        stringToBytes32(\"GlennMaxwell\"),\n        stringToBytes32(\"ABD\"),\n        stringToBytes32(\"Padikkal\"),\n        stringToBytes32(\"Chahal\"),\n        stringToBytes32(\"SteveSmith\")\n    ];\n\n    uint256[] private _costs = [\n        20,\n        10,\n        15,\n        12,\n        7,\n        13,\n        14,\n        15\n    ];\n\n    uint256[] private _points = [\n        0,\n        0\n    ];\n\n    constructor() {\n    }\n\n    function getPlayerIndex(string memory name) public view returns (uint256) {\n        return getPlayerIndex(stringToBytes32(name));\n    }\n\n    function getPlayerIndex(bytes32 name) internal view returns (uint256) {\n        uint256 count = _players.length;\n        uint256 index = 999;\n        for(uint256 i = 0; i < count; ++i)\n        {\n            if(name == _players[i]) {\n                index = i;\n                break;\n            }\n        }\n        require(index != 999, \"not a valid player\");\n        return index;\n    }\n\n    function getPlayerCount() external view returns (uint256)   {\n        return _players.length;\n    }\n\n    function getPlayer(uint256 index) external view returns(string memory) {\n        return string(abi.encodePacked(_players[index]));\n    }\n    \n    function setPoints(uint256 playerIndex, uint256 val) external {\n        _points[playerIndex] = val;\n    }\n\n    function getCost(uint256 playerIndex) public view returns (uint256) {\n        return _costs[playerIndex];\n    }\n\n    function getPoints(uint256 playerIndex) internal view returns (uint256) {\n        return _points[playerIndex];\n    }\n\n    function stringToBytes32(string memory source) internal pure returns (bytes32 result) {\n        assembly {\n            result := mload(add(source, 32))\n        }\n    }\n\n    function toString(uint256 value) internal pure returns (string memory) {\n        // Inspired by OraclizeAPI's implementation - MIT licence\n        // https://github.com/oraclize/ethereum-api/blob/b42146b063c7d6ee1358846c198246239e9360e8/oraclizeAPI_0.4.25.sol\n\n        if (value == 0) {\n            return \"0\";\n        }\n        uint256 temp = value;\n        uint256 digits;\n        while (temp != 0) {\n            digits++;\n            temp /= 10;\n        }\n        bytes memory buffer = new bytes(digits);\n        while (value != 0) {\n            digits -= 1;\n            buffer[digits] = bytes1(uint8(48 + uint256(value % 10)));\n            value /= 10;\n        }\n        return string(buffer);\n    }\n}\n\n",
  "sourcePath": "/Users/phanimukkamala/Documents/solidity/fcc-dapp/src/contracts/PlayerFCC.sol",
  "compiler": {
    "name": "solc",
    "version": "0.8.7+commit.e28d00a7.Emscripten.clang"
  },
  "schemaVersion": "3.4.3",
  "updatedAt": "2021-10-13T06:31:38.205Z",
  "devdoc": {
    "kind": "dev",
    "methods": {},
    "version": 1
  },
  "userdoc": {
    "kind": "user",
    "methods": {},
    "version": 1
  }
}