{
  "contractName": "PlayerFCC",
  "abi": [
    {
      "inputs": [],
      "stateMutability": "nonpayable",
      "type": "constructor"
    },
    {
      "inputs": [
        {
          "internalType": "string",
          "name": "name",
          "type": "string"
        }
      ],
      "name": "getPlayerIndex",
      "outputs": [
        {
          "internalType": "uint256",
          "name": "",
          "type": "uint256"
        }
      ],
      "stateMutability": "view",
      "type": "function"
    },
    {
      "inputs": [],
      "name": "getPlayerCount",
      "outputs": [
        {
          "internalType": "uint256",
          "name": "",
          "type": "uint256"
        }
      ],
      "stateMutability": "view",
      "type": "function"
    },
    {
      "inputs": [
        {
          "internalType": "uint256",
          "name": "index",
          "type": "uint256"
        }
      ],
      "name": "getPlayer",
      "outputs": [
        {
          "internalType": "string",
          "name": "",
          "type": "string"
        }
      ],
      "stateMutability": "view",
      "type": "function"
    },
    {
      "inputs": [
        {
          "internalType": "uint256",
          "name": "playerIndex",
          "type": "uint256"
        },
        {
          "internalType": "uint256",
          "name": "val",
          "type": "uint256"
        }
      ],
      "name": "setPoints",
      "outputs": [],
      "stateMutability": "nonpayable",
      "type": "function"
    },
    {
      "inputs": [
        {
          "internalType": "uint256",
          "name": "playerIndex",
          "type": "uint256"
        }
      ],
      "name": "getCost",
      "outputs": [
        {
          "internalType": "uint256",
          "name": "",
          "type": "uint256"
        }
      ],
      "stateMutability": "view",
      "type": "function"
    },
    {
      "inputs": [
        {
          "internalType": "uint256",
          "name": "playerIndex",
          "type": "uint256"
        }
      ],
      "name": "getPoints",
      "outputs": [
        {
          "internalType": "uint256",
          "name": "",
          "type": "uint256"
        }
      ],
      "stateMutability": "view",
      "type": "function"
    }
  ],
  "bytecode": "0x6080604052604051806102c00160405280620000566040518060400160405280600a81526020017f56697261744b6f686c69000000000000000000000000000000000000000000008152506200089960201b60201c565b8152602001620000a16040518060400160405280600781526020017f4d5344686f6e69000000000000000000000000000000000000000000000000008152506200089960201b60201c565b8152602001620000ec6040518060400160405280600c81526020017f48617264696b50616e64796100000000000000000000000000000000000000008152506200089960201b60201c565b8152602001620001376040518060400160405280600c81526020017f476c656e6e4d617877656c6c00000000000000000000000000000000000000008152506200089960201b60201c565b8152602001620001826040518060400160405280600381526020017f41424400000000000000000000000000000000000000000000000000000000008152506200089960201b60201c565b8152602001620001cd6040518060400160405280600881526020017f506164696b6b616c0000000000000000000000000000000000000000000000008152506200089960201b60201c565b8152602001620002186040518060400160405280600681526020017f43686168616c00000000000000000000000000000000000000000000000000008152506200089960201b60201c565b8152602001620002636040518060400160405280600881526020017f54726970617468690000000000000000000000000000000000000000000000008152506200089960201b60201c565b8152602001620002ae6040518060400160405280600b81526020017f536875626d616e47696c6c0000000000000000000000000000000000000000008152506200089960201b60201c565b8152602001620002f96040518060400160405280600b81526020017f50726974687669536861770000000000000000000000000000000000000000008152506200089960201b60201c565b8152602001620003446040518060400160405280600681526020017f5761726e657200000000000000000000000000000000000000000000000000008152506200089960201b60201c565b81526020016200038f6040518060400160405280600b81526020017f526f686974536861726d610000000000000000000000000000000000000000008152506200089960201b60201c565b8152602001620003da6040518060400160405280600781526020017f506f6c6c617264000000000000000000000000000000000000000000000000008152506200089960201b60201c565b8152602001620004256040518060400160405280600581526020017f427261766f0000000000000000000000000000000000000000000000000000008152506200089960201b60201c565b8152602001620004706040518060400160405280600881526020017f4865746d657965720000000000000000000000000000000000000000000000008152506200089960201b60201c565b8152602001620004bb6040518060400160405280600b81526020017f53687265796173497965720000000000000000000000000000000000000000008152506200089960201b60201c565b8152602001620005066040518060400160405280600481526020017f50616e74000000000000000000000000000000000000000000000000000000008152506200089960201b60201c565b8152602001620005516040518060400160405280600581526020017f497368616e0000000000000000000000000000000000000000000000000000008152506200089960201b60201c565b81526020016200059c6040518060400160405280600a81526020017f53757279616b756d6172000000000000000000000000000000000000000000008152506200089960201b60201c565b8152602001620005e76040518060400160405280600d81526020017f5368617264756c5468616b7572000000000000000000000000000000000000008152506200089960201b60201c565b8152602001620006326040518060400160405280600c81526020017f44656570616b43686168617200000000000000000000000000000000000000008152506200089960201b60201c565b81526020016200067d6040518060400160405280600a81526020017f5374657665536d697468000000000000000000000000000000000000000000008152506200089960201b60201c565b815250600090601662000692929190620008a7565b50604051806102c00160405280600a60ff168152602001601460ff168152602001601560ff168152602001601660ff168152602001600a60ff168152602001600760ff168152602001600860ff168152602001600960ff168152602001600a60ff168152602001600860ff168152602001601260ff168152602001600860ff168152602001600860ff168152602001600c60ff168152602001600860ff168152602001600860ff168152602001600d60ff168152602001600860ff168152602001600860ff168152602001600860ff168152602001600860ff168152602001600860ff1681525060169060166200078b929190620008ec565b50604051806102c00160405280600060ff168152602001600060ff168152602001600060ff168152602001600060ff168152602001600060ff168152602001600060ff168152602001600060ff168152602001600060ff168152602001600060ff168152602001600060ff168152602001600060ff168152602001600060ff168152602001600060ff168152602001600060ff168152602001600060ff168152602001600060ff168152602001600060ff168152602001600060ff168152602001600060ff168152602001600060ff168152602001600060ff168152602001600060ff16815250602c90601662000884929190620008ec565b503480156200089257600080fd5b5062000974565b600060208201519050919050565b8260168101928215620008d9579160200282015b82811115620008d8578251825591602001919060010190620008bb565b5b509050620008e8919062000936565b5090565b826016810192821562000923579160200282015b8281111562000922578251829060ff1690559160200191906001019062000900565b5b50905062000932919062000955565b5090565b5b808211156200095157600081600090555060010162000937565b5090565b5b808211156200097057600081600090555060010162000956565b5090565b61077480620009846000396000f3fe608060405234801561001057600080fd5b50600436106100625760003560e01c80635a4dd47d146100675780637aa8552814610097578063876b71c3146100b3578063a967eee4146100e3578063c2e5220614610113578063e55ae4e814610131575b600080fd5b610081600480360381019061007c9190610399565b610161565b60405161008e91906104e5565b60405180910390f35b6100b160048036038101906100ac91906103c6565b610180565b005b6100cd60048036038101906100c89190610350565b61019e565b6040516100da91906104e5565b60405180910390f35b6100fd60048036038101906100f89190610399565b6101b8565b60405161010a91906104e5565b60405180910390f35b61011b6101d7565b60405161012891906104e5565b60405180910390f35b61014b60048036038101906101469190610399565b6101e0565b60405161015891906104a3565b60405180910390f35b6000601682601681106101775761017661067b565b5b01549050919050565b80602c83601681106101955761019461067b565b5b01819055505050565b60006101b16101ac8361021e565b61022c565b9050919050565b6000602c82601681106101ce576101cd61067b565b5b01549050919050565b60006016905090565b6060600082601681106101f6576101f561067b565b5b01546040516020016102089190610488565b6040516020818303038152906040529050919050565b600060208201519050919050565b6000806016905060006103e7905060005b8281101561027b57600081601681106102595761025861067b565b5b015485141561026a5780915061027b565b80610274906105f9565b905061023d565b506103e78114156102c1576040517f08c379a00000000000000000000000000000000000000000000000000000000081526004016102b8906104c5565b60405180910390fd5b8092505050919050565b60006102de6102d984610525565b610500565b9050828152602081018484840111156102fa576102f96106de565b5b610305848285610586565b509392505050565b600082601f830112610322576103216106d9565b5b81356103328482602086016102cb565b91505092915050565b60008135905061034a81610727565b92915050565b600060208284031215610366576103656106e8565b5b600082013567ffffffffffffffff811115610384576103836106e3565b5b6103908482850161030d565b91505092915050565b6000602082840312156103af576103ae6106e8565b5b60006103bd8482850161033b565b91505092915050565b600080604083850312156103dd576103dc6106e8565b5b60006103eb8582860161033b565b92505060206103fc8582860161033b565b9150509250929050565b61041761041282610572565b610642565b82525050565b600061042882610556565b6104328185610561565b9350610442818560208601610595565b61044b816106ed565b840191505092915050565b6000610463601283610561565b915061046e826106fe565b602082019050919050565b6104828161057c565b82525050565b60006104948284610406565b60208201915081905092915050565b600060208201905081810360008301526104bd818461041d565b905092915050565b600060208201905081810360008301526104de81610456565b9050919050565b60006020820190506104fa6000830184610479565b92915050565b600061050a61051b565b905061051682826105c8565b919050565b6000604051905090565b600067ffffffffffffffff8211156105405761053f6106aa565b5b610549826106ed565b9050602081019050919050565b600081519050919050565b600082825260208201905092915050565b6000819050919050565b6000819050919050565b82818337600083830152505050565b60005b838110156105b3578082015181840152602081019050610598565b838111156105c2576000848401525b50505050565b6105d1826106ed565b810181811067ffffffffffffffff821117156105f0576105ef6106aa565b5b80604052505050565b60006106048261057c565b91507fffffffffffffffffffffffffffffffffffffffffffffffffffffffffffffffff8214156106375761063661064c565b5b600182019050919050565b6000819050919050565b7f4e487b7100000000000000000000000000000000000000000000000000000000600052601160045260246000fd5b7f4e487b7100000000000000000000000000000000000000000000000000000000600052603260045260246000fd5b7f4e487b7100000000000000000000000000000000000000000000000000000000600052604160045260246000fd5b600080fd5b600080fd5b600080fd5b600080fd5b6000601f19601f8301169050919050565b7f6e6f7420612076616c696420706c617965720000000000000000000000000000600082015250565b6107308161057c565b811461073b57600080fd5b5056fea264697066735822122083d85a9b98383e8abc9b668910d84bb81953d29d39bb47505b39f790cedb67a464736f6c63430008070033",
  "immutableReferences": {},
  "source": "// SPDX-License-Identifier: MIT\n\npragma solidity ^0.8.0;\n\ncontract PlayerFCC {\n\n    bytes32[22] private _players = [\n        /* 00 */ stringToBytes32(\"ViratKohli\"),\n        /* 01 */ stringToBytes32(\"MSDhoni\"),\n        /* 02 */ stringToBytes32(\"HardikPandya\"),\n        /* 03 */ stringToBytes32(\"GlennMaxwell\"),\n        /* 04 */ stringToBytes32(\"ABD\"),\n        /* 05 */ stringToBytes32(\"Padikkal\"),\n        /* 06 */ stringToBytes32(\"Chahal\"),\n        /* 07 */ stringToBytes32(\"Tripathi\"),\n        /* 08 */ stringToBytes32(\"ShubmanGill\"),\n        /* 09 */ stringToBytes32(\"PrithviShaw\"),\n        /* 10 */ stringToBytes32(\"Warner\"),\n        /* 11 */ stringToBytes32(\"RohitSharma\"),\n        /* 12 */ stringToBytes32(\"Pollard\"),\n        /* 13 */ stringToBytes32(\"Bravo\"),\n        /* 14 */ stringToBytes32(\"Hetmeyer\"),\n        /* 15 */ stringToBytes32(\"ShreyasIyer\"),\n        /* 16 */ stringToBytes32(\"Pant\"),\n        /* 17 */ stringToBytes32(\"Ishan\"),\n        /* 18 */ stringToBytes32(\"Suryakumar\"),\n        /* 19 */ stringToBytes32(\"ShardulThakur\"),\n        /* 20 */ stringToBytes32(\"DeepakChahar\"),\n        /* 21 */ stringToBytes32(\"SteveSmith\")\n    ];\n\n    uint256[22] private _costs = [\n        /* 00 */ 10,\n        /* 01 */ 20,\n        /* 02 */ 21,\n        /* 03 */ 22,\n        /* 04 */ 10,\n        /* 05 */ 7,\n        /* 06 */ 8,\n        /* 07 */ 9,\n        /* 08 */ 10,\n        /* 09 */ 8,\n        /* 10 */ 18,\n        /* 11 */ 8,\n        /* 12 */ 8,\n        /* 13 */ 12,\n        /* 14 */ 8,\n        /* 15 */ 8,\n        /* 16 */ 13,\n        /* 17 */ 8,\n        /* 18 */ 8,\n        /* 19 */ 8,\n        /* 20 */ 8,\n        /* 21 */ 8\n    ];\n\n    uint256[22] private _points = [\n        /* 00 */ 0,\n        /* 01 */ 0,\n        /* 02 */ 0,\n        /* 03 */ 0,\n        /* 04 */ 0,\n        /* 05 */ 0,\n        /* 06 */ 0,\n        /* 07 */ 0,\n        /* 08 */ 0,\n        /* 09 */ 0,\n        /* 10 */ 0,\n        /* 11 */ 0,\n        /* 12 */ 0,\n        /* 13 */ 0,\n        /* 14 */ 0,\n        /* 15 */ 0,\n        /* 16 */ 0,\n        /* 17 */ 0,\n        /* 18 */ 0,\n        /* 19 */ 0,\n        /* 20 */ 0,\n        /* 21 */ 0\n    ];\n\n    constructor() {\n    }\n\n    function getPlayerIndex(string memory name) public view returns (uint256) {\n        return getPlayerIndex(stringToBytes32(name));\n    }\n\n    function getPlayerIndex(bytes32 name) internal view returns (uint256) {\n        uint256 count = _players.length;\n        uint256 index = 999;\n        for(uint256 i = 0; i < count; ++i)\n        {\n            if(name == _players[i]) {\n                index = i;\n                break;\n            }\n        }\n        require(index != 999, \"not a valid player\");\n        return index;\n    }\n\n    function getPlayerCount() external view returns (uint256)   {\n        return _players.length;\n    }\n\n    function getPlayer(uint256 index) external view returns(string memory) {\n        return string(abi.encodePacked(_players[index]));\n    }\n    \n    function setPoints(uint256 playerIndex, uint256 val) external {\n        _points[playerIndex] = val;\n    }\n\n    function getCost(uint256 playerIndex) public view returns (uint256) {\n        return _costs[playerIndex];\n    }\n\n    function getPoints(uint256 playerIndex) public view returns (uint256) {\n        return _points[playerIndex];\n    }\n\n    function stringToBytes32(string memory source) internal pure returns (bytes32 result) {\n        assembly {\n            result := mload(add(source, 32))\n        }\n    }\n\n    function toString(uint256 value) internal pure returns (string memory) {\n        // Inspired by OraclizeAPI's implementation - MIT licence\n        // https://github.com/oraclize/ethereum-api/blob/b42146b063c7d6ee1358846c198246239e9360e8/oraclizeAPI_0.4.25.sol\n\n        if (value == 0) {\n            return \"0\";\n        }\n        uint256 temp = value;\n        uint256 digits;\n        while (temp != 0) {\n            digits++;\n            temp /= 10;\n        }\n        bytes memory buffer = new bytes(digits);\n        while (value != 0) {\n            digits -= 1;\n            buffer[digits] = bytes1(uint8(48 + uint256(value % 10)));\n            value /= 10;\n        }\n        return string(buffer);\n    }\n}\n\n",
  "sourcePath": "/home/ec2-user/github/fcc-dapp/src/contracts/PlayerFCC.sol",
  "compiler": {
    "name": "solc",
    "version": "0.8.7+commit.e28d00a7.Emscripten.clang"
  },
  "schemaVersion": "3.4.3",
  "updatedAt": "2022-01-01T12:48:23.189Z",
  "devdoc": {
    "kind": "dev",
    "methods": {},
    "version": 1
  },
  "userdoc": {
    "kind": "user",
    "methods": {},
    "version": 1
  }
}