{
  "contractName": "PlayerFCC",
  "abi": [
    {
      "inputs": [],
      "stateMutability": "nonpayable",
      "type": "constructor"
    },
    {
      "inputs": [],
      "name": "getPlayerCount",
      "outputs": [
        {
          "internalType": "uint256",
          "name": "",
          "type": "uint256"
        }
      ],
      "stateMutability": "view",
      "type": "function"
    },
    {
      "inputs": [
        {
          "internalType": "uint256",
          "name": "index",
          "type": "uint256"
        }
      ],
      "name": "getPlayer",
      "outputs": [
        {
          "internalType": "string",
          "name": "",
          "type": "string"
        }
      ],
      "stateMutability": "view",
      "type": "function"
    },
    {
      "inputs": [
        {
          "internalType": "uint256",
          "name": "playerIndex",
          "type": "uint256"
        },
        {
          "internalType": "uint256",
          "name": "val",
          "type": "uint256"
        }
      ],
      "name": "setPoints",
      "outputs": [],
      "stateMutability": "nonpayable",
      "type": "function"
    },
    {
      "inputs": [
        {
          "internalType": "uint256",
          "name": "playerIndex",
          "type": "uint256"
        }
      ],
      "name": "getCost",
      "outputs": [
        {
          "internalType": "uint256",
          "name": "",
          "type": "uint256"
        }
      ],
      "stateMutability": "view",
      "type": "function"
    }
  ],
  "bytecode": "0x60806040526040518061010001604052806100546040518060400160405280600a81526020017f56697261744b6f686c690000000000000000000000000000000000000000000081525061031260201b60201c565b815260200161009d6040518060400160405280600781526020017f4d5344686f6e690000000000000000000000000000000000000000000000000081525061031260201b60201c565b81526020016100e66040518060400160405280600c81526020017f48617264696b50616e647961000000000000000000000000000000000000000081525061031260201b60201c565b815260200161012f6040518060400160405280600c81526020017f476c656e6e4d617877656c6c000000000000000000000000000000000000000081525061031260201b60201c565b81526020016101786040518060400160405280600381526020017f414244000000000000000000000000000000000000000000000000000000000081525061031260201b60201c565b81526020016101c16040518060400160405280600881526020017f506164696b6b616c00000000000000000000000000000000000000000000000081525061031260201b60201c565b815260200161020a6040518060400160405280600681526020017f43686168616c000000000000000000000000000000000000000000000000000081525061031260201b60201c565b81526020016102536040518060400160405280600a81526020017f5374657665536d6974680000000000000000000000000000000000000000000081525061031260201b60201c565b8152506000906008610266929190610320565b50604051806101000160405280601460ff168152602001600a60ff168152602001600f60ff168152602001600c60ff168152602001600760ff168152602001600d60ff168152602001600e60ff168152602001600f60ff1681525060019060086102d192919061036d565b506040518060400160405280600060ff168152602001600060ff1681525060029060026102ff9291906103bf565b5034801561030c57600080fd5b5061044b565b600060208201519050919050565b82805482825590600052602060002090810192821561035c579160200282015b8281111561035b578251825591602001919060010190610340565b5b5090506103699190610411565b5090565b8280548282559060005260206000209081019282156103ae579160200282015b828111156103ad578251829060ff1690559160200191906001019061038d565b5b5090506103bb919061042e565b5090565b828054828255906000526020600020908101928215610400579160200282015b828111156103ff578251829060ff169055916020019190600101906103df565b5b50905061040d919061042e565b5090565b5b8082111561042a576000816000905550600101610412565b5090565b5b8082111561044757600081600090555060010161042f565b5090565b6103c58061045a6000396000f3fe608060405234801561001057600080fd5b506004361061004c5760003560e01c80635a4dd47d146100515780637aa8552814610081578063c2e522061461009d578063e55ae4e8146100bb575b600080fd5b61006b600480360381019061006691906101a2565b6100eb565b60405161007891906102ab565b60405180910390f35b61009b600480360381019061009691906101cf565b610113565b005b6100a561013a565b6040516100b291906102ab565b60405180910390f35b6100d560048036038101906100d091906101a2565b610146565b6040516100e29190610289565b60405180910390f35b60006001828154811061010157610100610333565b5b90600052602060002001549050919050565b806002838154811061012857610127610333565b5b90600052602060002001819055505050565b60008080549050905090565b60606000828154811061015c5761015b610333565b5b9060005260206000200154604051602001610177919061026e565b6040516020818303038152906040529050919050565b60008135905061019c81610378565b92915050565b6000602082840312156101b8576101b7610362565b5b60006101c68482850161018d565b91505092915050565b600080604083850312156101e6576101e5610362565b5b60006101f48582860161018d565b92505060206102058582860161018d565b9150509250929050565b61022061021b826102e2565b610329565b82525050565b6000610231826102c6565b61023b81856102d1565b935061024b8185602086016102f6565b61025481610367565b840191505092915050565b610268816102ec565b82525050565b600061027a828461020f565b60208201915081905092915050565b600060208201905081810360008301526102a38184610226565b905092915050565b60006020820190506102c0600083018461025f565b92915050565b600081519050919050565b600082825260208201905092915050565b6000819050919050565b6000819050919050565b60005b838110156103145780820151818401526020810190506102f9565b83811115610323576000848401525b50505050565b6000819050919050565b7f4e487b7100000000000000000000000000000000000000000000000000000000600052603260045260246000fd5b600080fd5b6000601f19601f8301169050919050565b610381816102ec565b811461038c57600080fd5b5056fea26469706673582212203b17e302fdd6bdfd8f0c737429ad7ea0a807f952ac66aef05c6bd4c32a78911664736f6c63430008070033",
  "immutableReferences": {},
  "source": "// SPDX-License-Identifier: MIT\n\npragma solidity ^0.8.0;\n\nimport \"./FCC.sol\";\n\ncontract PlayerFCC {\n\n    bytes32[] private _players = [\n        stringToBytes32(\"ViratKohli\"),\n        stringToBytes32(\"MSDhoni\"),\n        stringToBytes32(\"HardikPandya\"),\n        stringToBytes32(\"GlennMaxwell\"),\n        stringToBytes32(\"ABD\"),\n        stringToBytes32(\"Padikkal\"),\n        stringToBytes32(\"Chahal\"),\n        stringToBytes32(\"SteveSmith\")\n    ];\n\n    uint256[] private _costs = [\n        20,\n        10,\n        15,\n        12,\n        7,\n        13,\n        14,\n        15\n    ];\n\n    uint256[] private _points = [\n        0,\n        0\n    ];\n\n    constructor() {\n    }\n\n    function getPlayerIndex(bytes32 name) internal view returns (uint256) {\n        uint256 count = _players.length;\n        uint256 index = 999;\n        for(uint256 i = 0; i < count; ++i)\n        {\n            if(name == _players[i]) {\n                index = i;\n                break;\n            }\n        }\n        require(index != 999, \"not a valid player\");\n        return index;\n    }\n\n    function getPlayerCount() external view returns (uint256)   {\n        return _players.length;\n    }\n\n    function getPlayer(uint256 index) external view returns(string memory) {\n        return string(abi.encodePacked(_players[index]));\n    }\n    \n    function setPoints(uint256 playerIndex, uint256 val) external {\n        _points[playerIndex] = val;\n    }\n\n    function getCost(uint256 playerIndex) public view returns (uint256) {\n        return _costs[playerIndex];\n    }\n\n    function getPoints(uint256 playerIndex) internal view returns (uint256) {\n        return _points[playerIndex];\n    }\n\n    function stringToBytes32(string memory source) internal pure returns (bytes32 result) {\n        assembly {\n            result := mload(add(source, 32))\n        }\n    }\n\n    function toString(uint256 value) internal pure returns (string memory) {\n        // Inspired by OraclizeAPI's implementation - MIT licence\n        // https://github.com/oraclize/ethereum-api/blob/b42146b063c7d6ee1358846c198246239e9360e8/oraclizeAPI_0.4.25.sol\n\n        if (value == 0) {\n            return \"0\";\n        }\n        uint256 temp = value;\n        uint256 digits;\n        while (temp != 0) {\n            digits++;\n            temp /= 10;\n        }\n        bytes memory buffer = new bytes(digits);\n        while (value != 0) {\n            digits -= 1;\n            buffer[digits] = bytes1(uint8(48 + uint256(value % 10)));\n            value /= 10;\n        }\n        return string(buffer);\n    }\n}\n\n",
  "sourcePath": "/Users/phanimukkamala/Documents/solidity/fcc-dapp/src/contracts/PlayerFCC.sol",
  "compiler": {
    "name": "solc",
    "version": "0.8.7+commit.e28d00a7.Emscripten.clang"
  },
  "schemaVersion": "3.4.3",
  "updatedAt": "2021-10-12T01:05:34.206Z",
  "devdoc": {
    "kind": "dev",
    "methods": {},
    "version": 1
  },
  "userdoc": {
    "kind": "user",
    "methods": {},
    "version": 1
  }
}