{
  "contractName": "PlayerFCC",
  "abi": [
    {
      "inputs": [],
      "stateMutability": "nonpayable",
      "type": "constructor"
    },
    {
      "inputs": [
        {
          "internalType": "uint256",
          "name": "index",
          "type": "uint256"
        }
      ],
      "name": "getPlayer",
      "outputs": [
        {
          "internalType": "string",
          "name": "",
          "type": "string"
        }
      ],
      "stateMutability": "view",
      "type": "function"
    },
    {
      "inputs": [
        {
          "internalType": "string",
          "name": "name",
          "type": "string"
        }
      ],
      "name": "addPlayer",
      "outputs": [],
      "stateMutability": "nonpayable",
      "type": "function"
    },
    {
      "inputs": [
        {
          "internalType": "string",
          "name": "name",
          "type": "string"
        },
        {
          "internalType": "uint256",
          "name": "val",
          "type": "uint256"
        }
      ],
      "name": "setPoints",
      "outputs": [],
      "stateMutability": "nonpayable",
      "type": "function"
    },
    {
      "inputs": [
        {
          "internalType": "string",
          "name": "name",
          "type": "string"
        },
        {
          "internalType": "uint256",
          "name": "val",
          "type": "uint256"
        }
      ],
      "name": "setCost",
      "outputs": [],
      "stateMutability": "nonpayable",
      "type": "function"
    }
  ],
  "bytecode": "0x60806040526040518060a001604052806100536040518060400160405280600a81526020017f56697261744b6f686c69000000000000000000000000000000000000000000008152506102b060201b60201c565b815260200161009c6040518060400160405280600781526020017f4d5344686f6e69000000000000000000000000000000000000000000000000008152506102b060201b60201c565b81526020016100e56040518060400160405280600c81526020017f48617264696b50616e64796100000000000000000000000000000000000000008152506102b060201b60201c565b815260200161012e6040518060400160405280600c81526020017f476c656e6e4d617877656c6c00000000000000000000000000000000000000008152506102b060201b60201c565b81526020016101776040518060400160405280600a81526020017f5374657665536d697468000000000000000000000000000000000000000000008152506102b060201b60201c565b815250600090600561018a9291906102be565b5034801561019757600080fd5b50601460016000806000815481106101b2576101b1610328565b5b9060005260206000200154815260200190815260200160002081905550600a60016000806001815481106101e9576101e8610328565b5b9060005260206000200154815260200190815260200160002081905550600f60016000806002815481106102205761021f610328565b5b9060005260206000200154815260200190815260200160002081905550600c600160008060038154811061025757610256610328565b5b90600052602060002001548152602001908152602001600020819055506007600160008060048154811061028e5761028d610328565b5b9060005260206000200154815260200190815260200160002081905550610357565b600060208201519050919050565b8280548282559060005260206000209081019282156102fa579160200282015b828111156102f95782518255916020019190600101906102de565b5b509050610307919061030b565b5090565b5b8082111561032457600081600090555060010161030c565b5090565b7f4e487b7100000000000000000000000000000000000000000000000000000000600052603260045260246000fd5b6106d1806103666000396000f3fe608060405234801561001057600080fd5b506004361061004c5760003560e01c80636da25d1d14610051578063e55ae4e81461006d578063ece670b51461009d578063f77e8b83146100b9575b600080fd5b61006b60048036038101906100669190610304565b6100d5565b005b61008760048036038101906100829190610360565b6100f9565b604051610094919061041b565b60405180910390f35b6100b760048036038101906100b29190610304565b610140565b005b6100d360048036038101906100ce91906102bb565b610164565b005b80600160006100e385610228565b8152602001908152602001600020819055505050565b60606000828154811061010f5761010e6105d8565b5b906000526020600020015460405160200161012a9190610400565b6040516020818303038152906040529050919050565b806002600061014e85610228565b8152602001908152602001600020819055505050565b60008080549050905060005b818110156101f2576000818154811061018c5761018b6105d8565b5b90600052602060002001546101a084610228565b14156101e1576040517f08c379a00000000000000000000000000000000000000000000000000000000081526004016101d89061043d565b60405180910390fd5b806101eb90610556565b9050610170565b5060006101fe83610228565b90806001815401808255809150506001900390600052602060002001600090919091909150555050565b600060208201519050919050565b600061024961024484610482565b61045d565b9050828152602081018484840111156102655761026461063b565b5b6102708482856104e3565b509392505050565b600082601f83011261028d5761028c610636565b5b813561029d848260208601610236565b91505092915050565b6000813590506102b581610684565b92915050565b6000602082840312156102d1576102d0610645565b5b600082013567ffffffffffffffff8111156102ef576102ee610640565b5b6102fb84828501610278565b91505092915050565b6000806040838503121561031b5761031a610645565b5b600083013567ffffffffffffffff81111561033957610338610640565b5b61034585828601610278565b9250506020610356858286016102a6565b9150509250929050565b60006020828403121561037657610375610645565b5b6000610384848285016102a6565b91505092915050565b61039e610399826104cf565b61059f565b82525050565b60006103af826104b3565b6103b981856104be565b93506103c98185602086016104f2565b6103d28161064a565b840191505092915050565b60006103ea6015836104be565b91506103f58261065b565b602082019050919050565b600061040c828461038d565b60208201915081905092915050565b6000602082019050818103600083015261043581846103a4565b905092915050565b60006020820190508181036000830152610456816103dd565b9050919050565b6000610467610478565b90506104738282610525565b919050565b6000604051905090565b600067ffffffffffffffff82111561049d5761049c610607565b5b6104a68261064a565b9050602081019050919050565b600081519050919050565b600082825260208201905092915050565b6000819050919050565b6000819050919050565b82818337600083830152505050565b60005b838110156105105780820151818401526020810190506104f5565b8381111561051f576000848401525b50505050565b61052e8261064a565b810181811067ffffffffffffffff8211171561054d5761054c610607565b5b80604052505050565b6000610561826104d9565b91507fffffffffffffffffffffffffffffffffffffffffffffffffffffffffffffffff821415610594576105936105a9565b5b600182019050919050565b6000819050919050565b7f4e487b7100000000000000000000000000000000000000000000000000000000600052601160045260246000fd5b7f4e487b7100000000000000000000000000000000000000000000000000000000600052603260045260246000fd5b7f4e487b7100000000000000000000000000000000000000000000000000000000600052604160045260246000fd5b600080fd5b600080fd5b600080fd5b600080fd5b6000601f19601f8301169050919050565b7f706c6179657220616c7265616479206578697374730000000000000000000000600082015250565b61068d816104d9565b811461069857600080fd5b5056fea264697066735822122072f392b1f370156c343ad79a827067cd9a6c81dafedb5fcdc2b011f38083c24b64736f6c63430008070033",
  "immutableReferences": {},
  "source": "// SPDX-License-Identifier: MIT\n\npragma solidity ^0.8.0;\n\nimport \"./FCC.sol\";\n\ncontract PlayerFCC {\n\n    bytes32[] private _players = [\n        stringToBytes32(\"ViratKohli\"),\n        stringToBytes32(\"MSDhoni\"),\n        stringToBytes32(\"HardikPandya\"),\n        stringToBytes32(\"GlennMaxwell\"),\n        stringToBytes32(\"SteveSmith\")\n    ];\n    mapping (bytes32 => uint256) private _player2Cost;\n    mapping (bytes32 => uint256) private _player2Points;\n\n    constructor() {\n        _player2Cost[_players[0]] = 20;\n        _player2Cost[_players[1]] = 10;\n        _player2Cost[_players[2]] = 15;\n        _player2Cost[_players[3]] = 12;\n        _player2Cost[_players[4]] = 7;\n    }\n\n    function validPlayer(bytes32 name) internal view {\n        uint256 count = _players.length;\n        uint256 valid = 0;\n        for(uint256 i = 0; i < count; ++i)\n        {\n            valid = (name == _players[i]) ? 1 : 0;\n            if(valid == 1) {\n                break;\n            }\n        }\n        require(valid == 1, \"not a valid player\");\n    }\n\n    function getPlayer(uint256 index) external view returns(string memory) {\n        return string(abi.encodePacked(_players[index]));\n    }\n    \n    function addPlayer(string memory name) external {\n        uint256 count = _players.length;\n        for(uint256 i = 0; i < count; ++i)\n        {\n            require(stringToBytes32(name) != _players[i], \"player already exists\");\n        }\n        _players.push(stringToBytes32(name));\n    }\n\n    function setPoints(string memory name, uint256 val) external {\n        _player2Points[stringToBytes32(name)] = val;\n    }\n\n    function setCost(string memory name, uint256 val) external {\n        _player2Cost[stringToBytes32(name)] = val;\n    }\n\n    function getCost(bytes32 name) internal view returns (uint256) {\n        validPlayer(name);\n        return _player2Cost[name];\n    }\n\n    function getPoints(bytes32 name) internal view returns (uint256) {\n        validPlayer(name);\n        return _player2Points[name];\n    }\n\n    function getPoints() internal view returns (string memory) {\n        string memory s = \"\";\n        uint256 num = _players.length;\n        for(uint256 i = 0; i < num; ++i) {\n            s = string(abi.encodePacked(s, \" \", _players[i], \"(\", toString(_player2Cost[_players[i]]), \",\", toString(_player2Points[_players[i]]),\"),\"));\n        }\n        return s;\n    }\n\n    function stringToBytes32(string memory source) internal pure returns (bytes32 result) {\n        assembly {\n            result := mload(add(source, 32))\n        }\n    }\n\n    function toString(uint256 value) internal pure returns (string memory) {\n        // Inspired by OraclizeAPI's implementation - MIT licence\n        // https://github.com/oraclize/ethereum-api/blob/b42146b063c7d6ee1358846c198246239e9360e8/oraclizeAPI_0.4.25.sol\n\n        if (value == 0) {\n            return \"0\";\n        }\n        uint256 temp = value;\n        uint256 digits;\n        while (temp != 0) {\n            digits++;\n            temp /= 10;\n        }\n        bytes memory buffer = new bytes(digits);\n        while (value != 0) {\n            digits -= 1;\n            buffer[digits] = bytes1(uint8(48 + uint256(value % 10)));\n            value /= 10;\n        }\n        return string(buffer);\n    }\n}\n\n",
  "sourcePath": "/Users/phanimukkamala/Documents/solidity/fcc-dapp/src/contracts/PlayerFCC.sol",
  "compiler": {
    "name": "solc",
    "version": "0.8.7+commit.e28d00a7.Emscripten.clang"
  },
  "schemaVersion": "3.4.3",
  "updatedAt": "2021-10-09T09:59:37.732Z",
  "devdoc": {
    "kind": "dev",
    "methods": {},
    "version": 1
  },
  "userdoc": {
    "kind": "user",
    "methods": {},
    "version": 1
  }
}