{
  "contractName": "Test5",
  "abi": [
    {
      "inputs": [],
      "stateMutability": "nonpayable",
      "type": "constructor"
    },
    {
      "anonymous": false,
      "inputs": [
        {
          "indexed": true,
          "internalType": "address",
          "name": "owner",
          "type": "address"
        },
        {
          "indexed": true,
          "internalType": "address",
          "name": "approved",
          "type": "address"
        },
        {
          "indexed": true,
          "internalType": "uint256",
          "name": "tokenId",
          "type": "uint256"
        }
      ],
      "name": "Approval",
      "type": "event"
    },
    {
      "anonymous": false,
      "inputs": [
        {
          "indexed": true,
          "internalType": "address",
          "name": "owner",
          "type": "address"
        },
        {
          "indexed": true,
          "internalType": "address",
          "name": "operator",
          "type": "address"
        },
        {
          "indexed": false,
          "internalType": "bool",
          "name": "approved",
          "type": "bool"
        }
      ],
      "name": "ApprovalForAll",
      "type": "event"
    },
    {
      "anonymous": false,
      "inputs": [
        {
          "indexed": true,
          "internalType": "address",
          "name": "previousOwner",
          "type": "address"
        },
        {
          "indexed": true,
          "internalType": "address",
          "name": "newOwner",
          "type": "address"
        }
      ],
      "name": "OwnershipTransferred",
      "type": "event"
    },
    {
      "anonymous": false,
      "inputs": [
        {
          "indexed": true,
          "internalType": "address",
          "name": "from",
          "type": "address"
        },
        {
          "indexed": true,
          "internalType": "address",
          "name": "to",
          "type": "address"
        },
        {
          "indexed": true,
          "internalType": "uint256",
          "name": "tokenId",
          "type": "uint256"
        }
      ],
      "name": "Transfer",
      "type": "event"
    },
    {
      "inputs": [
        {
          "internalType": "address",
          "name": "to",
          "type": "address"
        },
        {
          "internalType": "uint256",
          "name": "tokenId",
          "type": "uint256"
        }
      ],
      "name": "approve",
      "outputs": [],
      "stateMutability": "nonpayable",
      "type": "function"
    },
    {
      "inputs": [
        {
          "internalType": "address",
          "name": "owner",
          "type": "address"
        }
      ],
      "name": "balanceOf",
      "outputs": [
        {
          "internalType": "uint256",
          "name": "",
          "type": "uint256"
        }
      ],
      "stateMutability": "view",
      "type": "function"
    },
    {
      "inputs": [
        {
          "internalType": "uint256",
          "name": "tokenId",
          "type": "uint256"
        }
      ],
      "name": "getApproved",
      "outputs": [
        {
          "internalType": "address",
          "name": "",
          "type": "address"
        }
      ],
      "stateMutability": "view",
      "type": "function"
    },
    {
      "inputs": [
        {
          "internalType": "address",
          "name": "owner",
          "type": "address"
        },
        {
          "internalType": "address",
          "name": "operator",
          "type": "address"
        }
      ],
      "name": "isApprovedForAll",
      "outputs": [
        {
          "internalType": "bool",
          "name": "",
          "type": "bool"
        }
      ],
      "stateMutability": "view",
      "type": "function"
    },
    {
      "inputs": [],
      "name": "name",
      "outputs": [
        {
          "internalType": "string",
          "name": "",
          "type": "string"
        }
      ],
      "stateMutability": "view",
      "type": "function"
    },
    {
      "inputs": [],
      "name": "owner",
      "outputs": [
        {
          "internalType": "address",
          "name": "",
          "type": "address"
        }
      ],
      "stateMutability": "view",
      "type": "function"
    },
    {
      "inputs": [
        {
          "internalType": "uint256",
          "name": "tokenId",
          "type": "uint256"
        }
      ],
      "name": "ownerOf",
      "outputs": [
        {
          "internalType": "address",
          "name": "",
          "type": "address"
        }
      ],
      "stateMutability": "view",
      "type": "function"
    },
    {
      "inputs": [],
      "name": "renounceOwnership",
      "outputs": [],
      "stateMutability": "nonpayable",
      "type": "function"
    },
    {
      "inputs": [
        {
          "internalType": "address",
          "name": "from",
          "type": "address"
        },
        {
          "internalType": "address",
          "name": "to",
          "type": "address"
        },
        {
          "internalType": "uint256",
          "name": "tokenId",
          "type": "uint256"
        }
      ],
      "name": "safeTransferFrom",
      "outputs": [],
      "stateMutability": "nonpayable",
      "type": "function"
    },
    {
      "inputs": [
        {
          "internalType": "address",
          "name": "from",
          "type": "address"
        },
        {
          "internalType": "address",
          "name": "to",
          "type": "address"
        },
        {
          "internalType": "uint256",
          "name": "tokenId",
          "type": "uint256"
        },
        {
          "internalType": "bytes",
          "name": "_data",
          "type": "bytes"
        }
      ],
      "name": "safeTransferFrom",
      "outputs": [],
      "stateMutability": "nonpayable",
      "type": "function"
    },
    {
      "inputs": [
        {
          "internalType": "address",
          "name": "operator",
          "type": "address"
        },
        {
          "internalType": "bool",
          "name": "approved",
          "type": "bool"
        }
      ],
      "name": "setApprovalForAll",
      "outputs": [],
      "stateMutability": "nonpayable",
      "type": "function"
    },
    {
      "inputs": [
        {
          "internalType": "bytes4",
          "name": "interfaceId",
          "type": "bytes4"
        }
      ],
      "name": "supportsInterface",
      "outputs": [
        {
          "internalType": "bool",
          "name": "",
          "type": "bool"
        }
      ],
      "stateMutability": "view",
      "type": "function"
    },
    {
      "inputs": [],
      "name": "symbol",
      "outputs": [
        {
          "internalType": "string",
          "name": "",
          "type": "string"
        }
      ],
      "stateMutability": "view",
      "type": "function"
    },
    {
      "inputs": [
        {
          "internalType": "uint256",
          "name": "index",
          "type": "uint256"
        }
      ],
      "name": "tokenByIndex",
      "outputs": [
        {
          "internalType": "uint256",
          "name": "",
          "type": "uint256"
        }
      ],
      "stateMutability": "view",
      "type": "function"
    },
    {
      "inputs": [
        {
          "internalType": "address",
          "name": "owner",
          "type": "address"
        },
        {
          "internalType": "uint256",
          "name": "index",
          "type": "uint256"
        }
      ],
      "name": "tokenOfOwnerByIndex",
      "outputs": [
        {
          "internalType": "uint256",
          "name": "",
          "type": "uint256"
        }
      ],
      "stateMutability": "view",
      "type": "function"
    },
    {
      "inputs": [],
      "name": "totalSupply",
      "outputs": [
        {
          "internalType": "uint256",
          "name": "",
          "type": "uint256"
        }
      ],
      "stateMutability": "view",
      "type": "function"
    },
    {
      "inputs": [
        {
          "internalType": "address",
          "name": "from",
          "type": "address"
        },
        {
          "internalType": "address",
          "name": "to",
          "type": "address"
        },
        {
          "internalType": "uint256",
          "name": "tokenId",
          "type": "uint256"
        }
      ],
      "name": "transferFrom",
      "outputs": [],
      "stateMutability": "nonpayable",
      "type": "function"
    },
    {
      "inputs": [
        {
          "internalType": "address",
          "name": "newOwner",
          "type": "address"
        }
      ],
      "name": "transferOwnership",
      "outputs": [],
      "stateMutability": "nonpayable",
      "type": "function"
    },
    {
      "inputs": [
        {
          "internalType": "string",
          "name": "ensVal",
          "type": "string"
        }
      ],
      "name": "addEns",
      "outputs": [],
      "stateMutability": "nonpayable",
      "type": "function"
    },
    {
      "inputs": [
        {
          "internalType": "uint256",
          "name": "tokenId",
          "type": "uint256"
        }
      ],
      "name": "tokenURI",
      "outputs": [
        {
          "internalType": "string",
          "name": "",
          "type": "string"
        }
      ],
      "stateMutability": "view",
      "type": "function"
    },
    {
      "inputs": [
        {
          "internalType": "uint256",
          "name": "tokenId",
          "type": "uint256"
        }
      ],
      "name": "mintPlayer",
      "outputs": [],
      "stateMutability": "nonpayable",
      "type": "function"
    }
  ],
  "bytecode": "0x60806040523480156200001157600080fd5b506040518060400160405280600581526020017f54657374350000000000000000000000000000000000000000000000000000008152506040518060400160405280600581526020017f5465737435000000000000000000000000000000000000000000000000000000815250816000908051906020019062000096929190620001b6565b508060019080519060200190620000af929190620001b6565b5050506001600a81905550620000da620000ce620000e860201b60201c565b620000f060201b60201c565b6000600c81905550620002cb565b600033905090565b6000600b60009054906101000a900473ffffffffffffffffffffffffffffffffffffffff16905081600b60006101000a81548173ffffffffffffffffffffffffffffffffffffffff021916908373ffffffffffffffffffffffffffffffffffffffff1602179055508173ffffffffffffffffffffffffffffffffffffffff168173ffffffffffffffffffffffffffffffffffffffff167f8be0079c531659141344cd1fd0a4f28419497f9722a3daafe3b4186f6b6457e060405160405180910390a35050565b828054620001c49062000266565b90600052602060002090601f016020900481019282620001e8576000855562000234565b82601f106200020357805160ff191683800117855562000234565b8280016001018555821562000234579182015b828111156200023357825182559160200191906001019062000216565b5b50905062000243919062000247565b5090565b5b808211156200026257600081600090555060010162000248565b5090565b600060028204905060018216806200027f57607f821691505b602082108114156200029657620002956200029c565b5b50919050565b7f4e487b7100000000000000000000000000000000000000000000000000000000600052602260045260246000fd5b6140a580620002db6000396000f3fe608060405234801561001057600080fd5b50600436106101375760003560e01c80636352211e116100b8578063a22cb4651161007c578063a22cb4651461034e578063b88d4fde1461036a578063c87b56dd14610386578063de6dee5d146103b6578063e985e9c5146103d2578063f2fde38b1461040257610137565b80636352211e146102a857806370a08231146102d8578063715018a6146103085780638da5cb5b1461031257806395d89b411461033057610137565b806323b872dd116100ff57806323b872dd146101f45780632f745c59146102105780633de7439f1461024057806342842e0e1461025c5780634f6ccce71461027857610137565b806301ffc9a71461013c57806306fdde031461016c578063081812fc1461018a578063095ea7b3146101ba57806318160ddd146101d6575b600080fd5b61015660048036038101906101519190612774565b61041e565b6040516101639190612fdd565b60405180910390f35b610174610498565b6040516101819190612ff8565b60405180910390f35b6101a4600480360381019061019f9190612817565b61052a565b6040516101b19190612f76565b60405180910390f35b6101d460048036038101906101cf9190612734565b6105af565b005b6101de6106c7565b6040516101eb919061327a565b60405180910390f35b61020e6004803603810190610209919061261e565b6106d4565b005b61022a60048036038101906102259190612734565b610734565b604051610237919061327a565b60405180910390f35b61025a60048036038101906102559190612817565b6107d9565b005b6102766004803603810190610271919061261e565b61090f565b005b610292600480360381019061028d9190612817565b61092f565b60405161029f919061327a565b60405180910390f35b6102c260048036038101906102bd9190612817565b6109a0565b6040516102cf9190612f76565b60405180910390f35b6102f260048036038101906102ed91906125b1565b610a52565b6040516102ff919061327a565b60405180910390f35b610310610b0a565b005b61031a610b92565b6040516103279190612f76565b60405180910390f35b610338610bbc565b6040516103459190612ff8565b60405180910390f35b610368600480360381019061036391906126f4565b610c4e565b005b610384600480360381019061037f9190612671565b610dcf565b005b6103a0600480360381019061039b9190612817565b610e31565b6040516103ad9190612ff8565b60405180910390f35b6103d060048036038101906103cb91906127ce565b6110b7565b005b6103ec60048036038101906103e791906125de565b6110f0565b6040516103f99190612fdd565b60405180910390f35b61041c600480360381019061041791906125b1565b611184565b005b60007f780e9d63000000000000000000000000000000000000000000000000000000007bffffffffffffffffffffffffffffffffffffffffffffffffffffffff1916827bffffffffffffffffffffffffffffffffffffffffffffffffffffffff1916148061049157506104908261127c565b5b9050919050565b6060600080546104a79061352a565b80601f01602080910402602001604051908101604052809291908181526020018280546104d39061352a565b80156105205780601f106104f557610100808354040283529160200191610520565b820191906000526020600020905b81548152906001019060200180831161050357829003601f168201915b5050505050905090565b60006105358261135e565b610574576040517f08c379a000000000000000000000000000000000000000000000000000000000815260040161056b9061317a565b60405180910390fd5b6004600083815260200190815260200160002060009054906101000a900473ffffffffffffffffffffffffffffffffffffffff169050919050565b60006105ba826109a0565b90508073ffffffffffffffffffffffffffffffffffffffff168373ffffffffffffffffffffffffffffffffffffffff16141561062b576040517f08c379a0000000000000000000000000000000000000000000000000000000008152600401610622906131fa565b60405180910390fd5b8073ffffffffffffffffffffffffffffffffffffffff1661064a6113ca565b73ffffffffffffffffffffffffffffffffffffffff1614806106795750610678816106736113ca565b6110f0565b5b6106b8576040517f08c379a00000000000000000000000000000000000000000000000000000000081526004016106af906130fa565b60405180910390fd5b6106c283836113d2565b505050565b6000600880549050905090565b6106e56106df6113ca565b8261148b565b610724576040517f08c379a000000000000000000000000000000000000000000000000000000000815260040161071b9061321a565b60405180910390fd5b61072f838383611569565b505050565b600061073f83610a52565b8210610780576040517f08c379a00000000000000000000000000000000000000000000000000000000081526004016107779061301a565b60405180910390fd5b600660008473ffffffffffffffffffffffffffffffffffffffff1673ffffffffffffffffffffffffffffffffffffffff168152602001908152602001600020600083815260200190815260200160002054905092915050565b6002600a54141561081f576040517f08c379a00000000000000000000000000000000000000000000000000000000081526004016108169061325a565b60405180910390fd5b6002600a8190555061082f6113ca565b73ffffffffffffffffffffffffffffffffffffffff1661084d610b92565b73ffffffffffffffffffffffffffffffffffffffff16146108a3576040517f08c379a000000000000000000000000000000000000000000000000000000000815260040161089a9061319a565b60405180910390fd5b6000811180156108b4575061271081105b6108f3576040517f08c379a00000000000000000000000000000000000000000000000000000000081526004016108ea906131ba565b60405180910390fd5b6109046108fe610b92565b826117c5565b6001600a8190555050565b61092a83838360405180602001604052806000815250610dcf565b505050565b60006109396106c7565b821061097a576040517f08c379a00000000000000000000000000000000000000000000000000000000081526004016109719061323a565b60405180910390fd5b6008828154811061098e5761098d6136c3565b5b90600052602060002001549050919050565b6000806002600084815260200190815260200160002060009054906101000a900473ffffffffffffffffffffffffffffffffffffffff169050600073ffffffffffffffffffffffffffffffffffffffff168173ffffffffffffffffffffffffffffffffffffffff161415610a49576040517f08c379a0000000000000000000000000000000000000000000000000000000008152600401610a409061313a565b60405180910390fd5b80915050919050565b60008073ffffffffffffffffffffffffffffffffffffffff168273ffffffffffffffffffffffffffffffffffffffff161415610ac3576040517f08c379a0000000000000000000000000000000000000000000000000000000008152600401610aba9061311a565b60405180910390fd5b600360008373ffffffffffffffffffffffffffffffffffffffff1673ffffffffffffffffffffffffffffffffffffffff168152602001908152602001600020549050919050565b610b126113ca565b73ffffffffffffffffffffffffffffffffffffffff16610b30610b92565b73ffffffffffffffffffffffffffffffffffffffff1614610b86576040517f08c379a0000000000000000000000000000000000000000000000000000000008152600401610b7d9061319a565b60405180910390fd5b610b9060006117e3565b565b6000600b60009054906101000a900473ffffffffffffffffffffffffffffffffffffffff16905090565b606060018054610bcb9061352a565b80601f0160208091040260200160405190810160405280929190818152602001828054610bf79061352a565b8015610c445780601f10610c1957610100808354040283529160200191610c44565b820191906000526020600020905b815481529060010190602001808311610c2757829003601f168201915b5050505050905090565b610c566113ca565b73ffffffffffffffffffffffffffffffffffffffff168273ffffffffffffffffffffffffffffffffffffffff161415610cc4576040517f08c379a0000000000000000000000000000000000000000000000000000000008152600401610cbb906130ba565b60405180910390fd5b8060056000610cd16113ca565b73ffffffffffffffffffffffffffffffffffffffff1673ffffffffffffffffffffffffffffffffffffffff16815260200190815260200160002060008473ffffffffffffffffffffffffffffffffffffffff1673ffffffffffffffffffffffffffffffffffffffff16815260200190815260200160002060006101000a81548160ff0219169083151502179055508173ffffffffffffffffffffffffffffffffffffffff16610d7e6113ca565b73ffffffffffffffffffffffffffffffffffffffff167f17307eab39ab6107e8899845ad3d59bd9653f200f220920489ca2b5937696c3183604051610dc39190612fdd565b60405180910390a35050565b610de0610dda6113ca565b8361148b565b610e1f576040517f08c379a0000000000000000000000000000000000000000000000000000000008152600401610e169061321a565b60405180910390fd5b610e2b848484846118a9565b50505050565b6060600060405180602001604052806000815250905080604051602001610e589190612e87565b604051602081830303815290604052905080604051602001610e7a9190612ecb565b604051602081830303815290604052905080604051602001610e9c9190612e65565b604051602081830303815290604052905080604051602001610ebe9190612dbb565b604051602081830303815290604052905060005b600a81101561102a5781604051602001610eec9190612dff565b604051602081830303815290604052915081610f1f60fa600884610f1091906135d6565b610f1a91906133e6565b611905565b604051602001610f30929190612d97565b604051602081830303815290604052915081604051602001610f529190612ea9565b604051602081830303815290604052915081610f9160146001606485610f7891906133b5565b610f82919061335f565b610f8c91906133e6565b611905565b604051602001610fa2929190612d97565b604051602081830303815290604052915081604051602001610fc49190612ddd565b604051602081830303815290604052915081604051602001610fe69190612e43565b6040516020818303038152906040529150816040516020016110089190612e21565b6040516020818303038152906040529150806110239061358d565b9050610ed2565b508060405160200161103c9190612eed565b6040516020818303038152906040529050600061108961105b85611905565b61106484611a66565b604051602001611075929190612f0f565b604051602081830303815290604052611a66565b90508060405160200161109c9190612f54565b60405160208183030381529060405291508192505050919050565b6110c081611bfe565b600d6000600c60008154809291906110d79061358d565b9190505581526020019081526020016000208190555050565b6000600560008473ffffffffffffffffffffffffffffffffffffffff1673ffffffffffffffffffffffffffffffffffffffff16815260200190815260200160002060008373ffffffffffffffffffffffffffffffffffffffff1673ffffffffffffffffffffffffffffffffffffffff16815260200190815260200160002060009054906101000a900460ff16905092915050565b61118c6113ca565b73ffffffffffffffffffffffffffffffffffffffff166111aa610b92565b73ffffffffffffffffffffffffffffffffffffffff1614611200576040517f08c379a00000000000000000000000000000000000000000000000000000000081526004016111f79061319a565b60405180910390fd5b600073ffffffffffffffffffffffffffffffffffffffff168173ffffffffffffffffffffffffffffffffffffffff161415611270576040517f08c379a00000000000000000000000000000000000000000000000000000000081526004016112679061305a565b60405180910390fd5b611279816117e3565b50565b60007f80ac58cd000000000000000000000000000000000000000000000000000000007bffffffffffffffffffffffffffffffffffffffffffffffffffffffff1916827bffffffffffffffffffffffffffffffffffffffffffffffffffffffff1916148061134757507f5b5e139f000000000000000000000000000000000000000000000000000000007bffffffffffffffffffffffffffffffffffffffffffffffffffffffff1916827bffffffffffffffffffffffffffffffffffffffffffffffffffffffff1916145b80611357575061135682611c0c565b5b9050919050565b60008073ffffffffffffffffffffffffffffffffffffffff166002600084815260200190815260200160002060009054906101000a900473ffffffffffffffffffffffffffffffffffffffff1673ffffffffffffffffffffffffffffffffffffffff1614159050919050565b600033905090565b816004600083815260200190815260200160002060006101000a81548173ffffffffffffffffffffffffffffffffffffffff021916908373ffffffffffffffffffffffffffffffffffffffff160217905550808273ffffffffffffffffffffffffffffffffffffffff16611445836109a0565b73ffffffffffffffffffffffffffffffffffffffff167f8c5be1e5ebec7d5bd14f71427d1e84f3dd0314c0f7b2291e5b200ac8c7c3b92560405160405180910390a45050565b60006114968261135e565b6114d5576040517f08c379a00000000000000000000000000000000000000000000000000000000081526004016114cc906130da565b60405180910390fd5b60006114e0836109a0565b90508073ffffffffffffffffffffffffffffffffffffffff168473ffffffffffffffffffffffffffffffffffffffff16148061154f57508373ffffffffffffffffffffffffffffffffffffffff166115378461052a565b73ffffffffffffffffffffffffffffffffffffffff16145b80611560575061155f81856110f0565b5b91505092915050565b8273ffffffffffffffffffffffffffffffffffffffff16611589826109a0565b73ffffffffffffffffffffffffffffffffffffffff16146115df576040517f08c379a00000000000000000000000000000000000000000000000000000000081526004016115d6906131da565b60405180910390fd5b600073ffffffffffffffffffffffffffffffffffffffff168273ffffffffffffffffffffffffffffffffffffffff16141561164f576040517f08c379a00000000000000000000000000000000000000000000000000000000081526004016116469061309a565b60405180910390fd5b61165a838383611c76565b6116656000826113d2565b6001600360008573ffffffffffffffffffffffffffffffffffffffff1673ffffffffffffffffffffffffffffffffffffffff16815260200190815260200160002060008282546116b59190613440565b925050819055506001600360008473ffffffffffffffffffffffffffffffffffffffff1673ffffffffffffffffffffffffffffffffffffffff168152602001908152602001600020600082825461170c919061335f565b92505081905550816002600083815260200190815260200160002060006101000a81548173ffffffffffffffffffffffffffffffffffffffff021916908373ffffffffffffffffffffffffffffffffffffffff160217905550808273ffffffffffffffffffffffffffffffffffffffff168473ffffffffffffffffffffffffffffffffffffffff167fddf252ad1be2c89b69c2b068fc378daa952ba7f163c4a11628f55a4df523b3ef60405160405180910390a4505050565b6117df828260405180602001604052806000815250611d8a565b5050565b6000600b60009054906101000a900473ffffffffffffffffffffffffffffffffffffffff16905081600b60006101000a81548173ffffffffffffffffffffffffffffffffffffffff021916908373ffffffffffffffffffffffffffffffffffffffff1602179055508173ffffffffffffffffffffffffffffffffffffffff168173ffffffffffffffffffffffffffffffffffffffff167f8be0079c531659141344cd1fd0a4f28419497f9722a3daafe3b4186f6b6457e060405160405180910390a35050565b6118b4848484611569565b6118c084848484611de5565b6118ff576040517f08c379a00000000000000000000000000000000000000000000000000000000081526004016118f69061303a565b60405180910390fd5b50505050565b6060600082141561194d576040518060400160405280600181526020017f30000000000000000000000000000000000000000000000000000000000000008152509050611a61565b600082905060005b6000821461197f5780806119689061358d565b915050600a8261197891906133b5565b9150611955565b60008167ffffffffffffffff81111561199b5761199a6136f2565b5b6040519080825280601f01601f1916602001820160405280156119cd5781602001600182028036833780820191505090505b5090505b60008514611a5a576001826119e69190613440565b9150600a856119f591906135d6565b6030611a01919061335f565b60f81b818381518110611a1757611a166136c3565b5b60200101907effffffffffffffffffffffffffffffffffffffffffffffffffffffffffffff1916908160001a905350600a85611a5391906133b5565b94506119d1565b8093505050505b919050565b60606000825190506000811415611a8f5760405180602001604052806000815250915050611bf9565b60006003600283611aa0919061335f565b611aaa91906133b5565b6004611ab691906133e6565b90506000602082611ac7919061335f565b67ffffffffffffffff811115611ae057611adf6136f2565b5b6040519080825280601f01601f191660200182016040528015611b125781602001600182028036833780820191505090505b5090506000604051806060016040528060408152602001614030604091399050600181016020830160005b86811015611bb65760038101905062ffffff818a015116603f8160121c168401518060081b905060ff603f83600c1c1686015116810190508060081b905060ff603f8360061c1686015116810190508060081b905060ff603f831686015116810190508060e01b90508084526004840193505050611b3d565b506003860660018114611bd05760028114611be057611beb565b613d3d60f01b6002830352611beb565b603d60f81b60018303525b508484525050819450505050505b919050565b600060208201519050919050565b60007f01ffc9a7000000000000000000000000000000000000000000000000000000007bffffffffffffffffffffffffffffffffffffffffffffffffffffffff1916827bffffffffffffffffffffffffffffffffffffffffffffffffffffffff1916149050919050565b611c81838383611f7c565b600073ffffffffffffffffffffffffffffffffffffffff168373ffffffffffffffffffffffffffffffffffffffff161415611cc457611cbf81611f81565b611d03565b8173ffffffffffffffffffffffffffffffffffffffff168373ffffffffffffffffffffffffffffffffffffffff1614611d0257611d018382611fca565b5b5b600073ffffffffffffffffffffffffffffffffffffffff168273ffffffffffffffffffffffffffffffffffffffff161415611d4657611d4181612137565b611d85565b8273ffffffffffffffffffffffffffffffffffffffff168273ffffffffffffffffffffffffffffffffffffffff1614611d8457611d838282612208565b5b5b505050565b611d948383612287565b611da16000848484611de5565b611de0576040517f08c379a0000000000000000000000000000000000000000000000000000000008152600401611dd79061303a565b60405180910390fd5b505050565b6000611e068473ffffffffffffffffffffffffffffffffffffffff16612455565b15611f6f578373ffffffffffffffffffffffffffffffffffffffff1663150b7a02611e2f6113ca565b8786866040518563ffffffff1660e01b8152600401611e519493929190612f91565b602060405180830381600087803b158015611e6b57600080fd5b505af1925050508015611e9c57506040513d601f19601f82011682018060405250810190611e9991906127a1565b60015b611f1f573d8060008114611ecc576040519150601f19603f3d011682016040523d82523d6000602084013e611ed1565b606091505b50600081511415611f17576040517f08c379a0000000000000000000000000000000000000000000000000000000008152600401611f0e9061303a565b60405180910390fd5b805181602001fd5b63150b7a0260e01b7bffffffffffffffffffffffffffffffffffffffffffffffffffffffff1916817bffffffffffffffffffffffffffffffffffffffffffffffffffffffff191614915050611f74565b600190505b949350505050565b505050565b6008805490506009600083815260200190815260200160002081905550600881908060018154018082558091505060019003906000526020600020016000909190919091505550565b60006001611fd784610a52565b611fe19190613440565b90506000600760008481526020019081526020016000205490508181146120c6576000600660008673ffffffffffffffffffffffffffffffffffffffff1673ffffffffffffffffffffffffffffffffffffffff168152602001908152602001600020600084815260200190815260200160002054905080600660008773ffffffffffffffffffffffffffffffffffffffff1673ffffffffffffffffffffffffffffffffffffffff168152602001908152602001600020600084815260200190815260200160002081905550816007600083815260200190815260200160002081905550505b6007600084815260200190815260200160002060009055600660008573ffffffffffffffffffffffffffffffffffffffff1673ffffffffffffffffffffffffffffffffffffffff16815260200190815260200160002060008381526020019081526020016000206000905550505050565b6000600160088054905061214b9190613440565b905060006009600084815260200190815260200160002054905060006008838154811061217b5761217a6136c3565b5b90600052602060002001549050806008838154811061219d5761219c6136c3565b5b9060005260206000200181905550816009600083815260200190815260200160002081905550600960008581526020019081526020016000206000905560088054806121ec576121eb613694565b5b6001900381819060005260206000200160009055905550505050565b600061221383610a52565b905081600660008573ffffffffffffffffffffffffffffffffffffffff1673ffffffffffffffffffffffffffffffffffffffff168152602001908152602001600020600083815260200190815260200160002081905550806007600084815260200190815260200160002081905550505050565b600073ffffffffffffffffffffffffffffffffffffffff168273ffffffffffffffffffffffffffffffffffffffff1614156122f7576040517f08c379a00000000000000000000000000000000000000000000000000000000081526004016122ee9061315a565b60405180910390fd5b6123008161135e565b15612340576040517f08c379a00000000000000000000000000000000000000000000000000000000081526004016123379061307a565b60405180910390fd5b61234c60008383611c76565b6001600360008473ffffffffffffffffffffffffffffffffffffffff1673ffffffffffffffffffffffffffffffffffffffff168152602001908152602001600020600082825461239c919061335f565b92505081905550816002600083815260200190815260200160002060006101000a81548173ffffffffffffffffffffffffffffffffffffffff021916908373ffffffffffffffffffffffffffffffffffffffff160217905550808273ffffffffffffffffffffffffffffffffffffffff16600073ffffffffffffffffffffffffffffffffffffffff167fddf252ad1be2c89b69c2b068fc378daa952ba7f163c4a11628f55a4df523b3ef60405160405180910390a45050565b600080823b905060008111915050919050565b600061247b612476846132ba565b613295565b90508281526020810184848401111561249757612496613726565b5b6124a28482856134e8565b509392505050565b60006124bd6124b8846132eb565b613295565b9050828152602081018484840111156124d9576124d8613726565b5b6124e48482856134e8565b509392505050565b6000813590506124fb81613fd3565b92915050565b60008135905061251081613fea565b92915050565b60008135905061252581614001565b92915050565b60008151905061253a81614001565b92915050565b600082601f83011261255557612554613721565b5b8135612565848260208601612468565b91505092915050565b600082601f83011261258357612582613721565b5b81356125938482602086016124aa565b91505092915050565b6000813590506125ab81614018565b92915050565b6000602082840312156125c7576125c6613730565b5b60006125d5848285016124ec565b91505092915050565b600080604083850312156125f5576125f4613730565b5b6000612603858286016124ec565b9250506020612614858286016124ec565b9150509250929050565b60008060006060848603121561263757612636613730565b5b6000612645868287016124ec565b9350506020612656868287016124ec565b92505060406126678682870161259c565b9150509250925092565b6000806000806080858703121561268b5761268a613730565b5b6000612699878288016124ec565b94505060206126aa878288016124ec565b93505060406126bb8782880161259c565b925050606085013567ffffffffffffffff8111156126dc576126db61372b565b5b6126e887828801612540565b91505092959194509250565b6000806040838503121561270b5761270a613730565b5b6000612719858286016124ec565b925050602061272a85828601612501565b9150509250929050565b6000806040838503121561274b5761274a613730565b5b6000612759858286016124ec565b925050602061276a8582860161259c565b9150509250929050565b60006020828403121561278a57612789613730565b5b600061279884828501612516565b91505092915050565b6000602082840312156127b7576127b6613730565b5b60006127c58482850161252b565b91505092915050565b6000602082840312156127e4576127e3613730565b5b600082013567ffffffffffffffff8111156128025761280161372b565b5b61280e8482850161256e565b91505092915050565b60006020828403121561282d5761282c613730565b5b600061283b8482850161259c565b91505092915050565b61284d81613474565b82525050565b61285c81613486565b82525050565b600061286d8261331c565b6128778185613332565b93506128878185602086016134f7565b61289081613735565b840191505092915050565b60006128a682613327565b6128b08185613343565b93506128c08185602086016134f7565b6128c981613735565b840191505092915050565b60006128df82613327565b6128e98185613354565b93506128f98185602086016134f7565b80840191505092915050565b6000612912603f83613354565b915061291d82613746565b603f82019050919050565b6000612935602b83613343565b915061294082613795565b604082019050919050565b6000612958603283613343565b9150612963826137e4565b604082019050919050565b600061297b602683613343565b915061298682613833565b604082019050919050565b600061299e601c83613343565b91506129a982613882565b602082019050919050565b60006129c1603083613354565b91506129cc826138ab565b603082019050919050565b60006129e4601283613354565b91506129ef826138fa565b601282019050919050565b6000612a07601483613354565b9150612a1282613923565b601482019050919050565b6000612a2a602483613343565b9150612a358261394c565b604082019050919050565b6000612a4d601983613343565b9150612a588261399b565b602082019050919050565b6000612a70600983613354565b9150612a7b826139c4565b600982019050919050565b6000612a93602c83613343565b9150612a9e826139ed565b604082019050919050565b6000612ab6603883613343565b9150612ac182613a3c565b604082019050919050565b6000612ad9602a83613343565b9150612ae482613a8b565b604082019050919050565b6000612afc602983613343565b9150612b0782613ada565b604082019050919050565b6000612b1f600283613354565b9150612b2a82613b29565b600282019050919050565b6000612b42600783613354565b9150612b4d82613b52565b600782019050919050565b6000612b65602083613343565b9150612b7082613b7b565b602082019050919050565b6000612b88602c83613343565b9150612b9382613ba4565b604082019050919050565b6000612bab600c83613354565b9150612bb682613bf3565b600c82019050919050565b6000612bce604e83613354565b9150612bd982613c1c565b604e82019050919050565b6000612bf1602083613343565b9150612bfc82613c91565b602082019050919050565b6000612c14601083613343565b9150612c1f82613cba565b602082019050919050565b6000612c37602983613343565b9150612c4282613ce3565b604082019050919050565b6000612c5a606483613354565b9150612c6582613d32565b606482019050919050565b6000612c7d602183613343565b9150612c8882613dcd565b604082019050919050565b6000612ca0601d83613354565b9150612cab82613e1c565b601d82019050919050565b6000612cc3600583613354565b9150612cce82613e45565b600582019050919050565b6000612ce6603183613343565b9150612cf182613e6e565b604082019050919050565b6000612d09604783613354565b9150612d1482613ebd565b604782019050919050565b6000612d2c602c83613343565b9150612d3782613f32565b604082019050919050565b6000612d4f601f83613343565b9150612d5a82613f81565b602082019050919050565b6000612d72600683613354565b9150612d7d82613faa565b600682019050919050565b612d91816134de565b82525050565b6000612da382856128d4565b9150612daf82846128d4565b91508190509392505050565b6000612dc782846128d4565b9150612dd2826129b4565b915081905092915050565b6000612de982846128d4565b9150612df4826129fa565b915081905092915050565b6000612e0b82846128d4565b9150612e1682612a63565b915081905092915050565b6000612e2d82846128d4565b9150612e3882612b35565b915081905092915050565b6000612e4f82846128d4565b9150612e5a82612b9e565b915081905092915050565b6000612e7182846128d4565b9150612e7c82612bc1565b915081905092915050565b6000612e9382846128d4565b9150612e9e82612c4d565b915081905092915050565b6000612eb582846128d4565b9150612ec082612cb6565b915081905092915050565b6000612ed782846128d4565b9150612ee282612cfc565b915081905092915050565b6000612ef982846128d4565b9150612f0482612d65565b915081905092915050565b6000612f1a826129d7565b9150612f2682856128d4565b9150612f3182612905565b9150612f3d82846128d4565b9150612f4882612b12565b91508190509392505050565b6000612f5f82612c93565b9150612f6b82846128d4565b915081905092915050565b6000602082019050612f8b6000830184612844565b92915050565b6000608082019050612fa66000830187612844565b612fb36020830186612844565b612fc06040830185612d88565b8181036060830152612fd28184612862565b905095945050505050565b6000602082019050612ff26000830184612853565b92915050565b60006020820190508181036000830152613012818461289b565b905092915050565b6000602082019050818103600083015261303381612928565b9050919050565b600060208201905081810360008301526130538161294b565b9050919050565b600060208201905081810360008301526130738161296e565b9050919050565b6000602082019050818103600083015261309381612991565b9050919050565b600060208201905081810360008301526130b381612a1d565b9050919050565b600060208201905081810360008301526130d381612a40565b9050919050565b600060208201905081810360008301526130f381612a86565b9050919050565b6000602082019050818103600083015261311381612aa9565b9050919050565b6000602082019050818103600083015261313381612acc565b9050919050565b6000602082019050818103600083015261315381612aef565b9050919050565b6000602082019050818103600083015261317381612b58565b9050919050565b6000602082019050818103600083015261319381612b7b565b9050919050565b600060208201905081810360008301526131b381612be4565b9050919050565b600060208201905081810360008301526131d381612c07565b9050919050565b600060208201905081810360008301526131f381612c2a565b9050919050565b6000602082019050818103600083015261321381612c70565b9050919050565b6000602082019050818103600083015261323381612cd9565b9050919050565b6000602082019050818103600083015261325381612d1f565b9050919050565b6000602082019050818103600083015261327381612d42565b9050919050565b600060208201905061328f6000830184612d88565b92915050565b600061329f6132b0565b90506132ab828261355c565b919050565b6000604051905090565b600067ffffffffffffffff8211156132d5576132d46136f2565b5b6132de82613735565b9050602081019050919050565b600067ffffffffffffffff821115613306576133056136f2565b5b61330f82613735565b9050602081019050919050565b600081519050919050565b600081519050919050565b600082825260208201905092915050565b600082825260208201905092915050565b600081905092915050565b600061336a826134de565b9150613375836134de565b9250827fffffffffffffffffffffffffffffffffffffffffffffffffffffffffffffffff038211156133aa576133a9613607565b5b828201905092915050565b60006133c0826134de565b91506133cb836134de565b9250826133db576133da613636565b5b828204905092915050565b60006133f1826134de565b91506133fc836134de565b9250817fffffffffffffffffffffffffffffffffffffffffffffffffffffffffffffffff048311821515161561343557613434613607565b5b828202905092915050565b600061344b826134de565b9150613456836134de565b92508282101561346957613468613607565b5b828203905092915050565b600061347f826134be565b9050919050565b60008115159050919050565b60007fffffffff0000000000000000000000000000000000000000000000000000000082169050919050565b600073ffffffffffffffffffffffffffffffffffffffff82169050919050565b6000819050919050565b82818337600083830152505050565b60005b838110156135155780820151818401526020810190506134fa565b83811115613524576000848401525b50505050565b6000600282049050600182168061354257607f821691505b6020821081141561355657613555613665565b5b50919050565b61356582613735565b810181811067ffffffffffffffff82111715613584576135836136f2565b5b80604052505050565b6000613598826134de565b91507fffffffffffffffffffffffffffffffffffffffffffffffffffffffffffffffff8214156135cb576135ca613607565b5b600182019050919050565b60006135e1826134de565b91506135ec836134de565b9250826135fc576135fb613636565b5b828206905092915050565b7f4e487b7100000000000000000000000000000000000000000000000000000000600052601160045260246000fd5b7f4e487b7100000000000000000000000000000000000000000000000000000000600052601260045260246000fd5b7f4e487b7100000000000000000000000000000000000000000000000000000000600052602260045260246000fd5b7f4e487b7100000000000000000000000000000000000000000000000000000000600052603160045260246000fd5b7f4e487b7100000000000000000000000000000000000000000000000000000000600052603260045260246000fd5b7f4e487b7100000000000000000000000000000000000000000000000000000000600052604160045260246000fd5b600080fd5b600080fd5b600080fd5b600080fd5b6000601f19601f8301169050919050565b7f222c20226465736372697074696f6e223a20225465737435222c2022696d616760008201527f65223a2022646174613a696d6167652f7376672b786d6c3b6261736536342c00602082015250565b7f455243373231456e756d657261626c653a206f776e657220696e646578206f7560008201527f74206f6620626f756e6473000000000000000000000000000000000000000000602082015250565b7f4552433732313a207472616e7366657220746f206e6f6e20455243373231526560008201527f63656976657220696d706c656d656e7465720000000000000000000000000000602082015250565b7f4f776e61626c653a206e6577206f776e657220697320746865207a65726f206160008201527f6464726573730000000000000000000000000000000000000000000000000000602082015250565b7f4552433732313a20746f6b656e20616c7265616479206d696e74656400000000600082015250565b7f3c726563742077696474683d223130302522206865696768743d22313030252260008201527f2066696c6c3d22776869746522202f3e00000000000000000000000000000000602082015250565b7f7b226e616d65223a2022506c6179657220230000000000000000000000000000600082015250565b7f2220636c6173733d2242617365477265656e223e000000000000000000000000600082015250565b7f4552433732313a207472616e7366657220746f20746865207a65726f2061646460008201527f7265737300000000000000000000000000000000000000000000000000000000602082015250565b7f4552433732313a20617070726f766520746f2063616c6c657200000000000000600082015250565b7f3c7465787420783d220000000000000000000000000000000000000000000000600082015250565b7f4552433732313a206f70657261746f7220717565727920666f72206e6f6e657860008201527f697374656e7420746f6b656e0000000000000000000000000000000000000000602082015250565b7f4552433732313a20617070726f76652063616c6c6572206973206e6f74206f7760008201527f6e6572206e6f7220617070726f76656420666f7220616c6c0000000000000000602082015250565b7f4552433732313a2062616c616e636520717565727920666f7220746865207a6560008201527f726f206164647265737300000000000000000000000000000000000000000000602082015250565b7f4552433732313a206f776e657220717565727920666f72206e6f6e657869737460008201527f656e7420746f6b656e0000000000000000000000000000000000000000000000602082015250565b7f227d000000000000000000000000000000000000000000000000000000000000600082015250565b7f3c2f746578743e00000000000000000000000000000000000000000000000000600082015250565b7f4552433732313a206d696e7420746f20746865207a65726f2061646472657373600082015250565b7f4552433732313a20617070726f76656420717565727920666f72206e6f6e657860008201527f697374656e7420746f6b656e0000000000000000000000000000000000000000602082015250565b7f7372696b756d61722e6574680000000000000000000000000000000000000000600082015250565b7f2e62617365477265656e207b2066696c6c3a20737072696e67677265656e3b2060008201527f666f6e742d66616d696c793a2073657269663b20666f6e742d73697a653a203160208201527f3070783b207d3c2f7374796c653e000000000000000000000000000000000000604082015250565b7f4f776e61626c653a2063616c6c6572206973206e6f7420746865206f776e6572600082015250565b7f546f6b656e20494420696e76616c696400000000000000000000000000000000600082015250565b7f4552433732313a207472616e73666572206f6620746f6b656e2074686174206960008201527f73206e6f74206f776e0000000000000000000000000000000000000000000000602082015250565b7f3c73766720786d6c6e733d22687474703a2f2f7777772e77332e6f72672f323060008201527f30302f73766722207072657365727665417370656374526174696f3d22784d6960208201527f6e594d696e206d656574222076696577426f783d22302030203230303020323060408201527f3030223e00000000000000000000000000000000000000000000000000000000606082015250565b7f4552433732313a20617070726f76616c20746f2063757272656e74206f776e6560008201527f7200000000000000000000000000000000000000000000000000000000000000602082015250565b7f646174613a6170706c69636174696f6e2f6a736f6e3b6261736536342c000000600082015250565b7f2220793d22000000000000000000000000000000000000000000000000000000600082015250565b7f4552433732313a207472616e736665722063616c6c6572206973206e6f74206f60008201527f776e6572206e6f7220617070726f766564000000000000000000000000000000602082015250565b7f3c7374796c653e2e626173655768697465207b2066696c6c3a2077686974653b60008201527f20666f6e742d66616d696c793a2073657269663b20666f6e742d73697a653a2060208201527f313070783b207d00000000000000000000000000000000000000000000000000604082015250565b7f455243373231456e756d657261626c653a20676c6f62616c20696e646578206f60008201527f7574206f6620626f756e64730000000000000000000000000000000000000000602082015250565b7f5265656e7472616e637947756172643a207265656e7472616e742063616c6c00600082015250565b7f3c2f7376673e0000000000000000000000000000000000000000000000000000600082015250565b613fdc81613474565b8114613fe757600080fd5b50565b613ff381613486565b8114613ffe57600080fd5b50565b61400a81613492565b811461401557600080fd5b50565b614021816134de565b811461402c57600080fd5b5056fe4142434445464748494a4b4c4d4e4f505152535455565758595a6162636465666768696a6b6c6d6e6f707172737475767778797a303132333435363738392b2fa2646970667358221220806e53503c51123a2a331a4a905f9fc96427ab8a241bb09b3bd54d011c38a2a064736f6c63430008070033",
  "immutableReferences": {},
  "source": "// SPDX-License-Identifier: MIT\n\npragma solidity ^0.8.0;\n\nimport \"./FullERC721.sol\";\n\ncontract Test5 is ERC721Enumerable, ReentrancyGuard, Ownable {\n\n    uint256 private _tokenId;\n\tmapping (uint256 => bytes32) private _tokenId2Ens;\n\n    constructor() ERC721(\"Test5\", \"Test5\") Ownable() {\n        _tokenId = 0;\n\t}\n\n    function stringToBytes32(string memory source) internal pure returns (bytes32 result) {\n        assembly {\n            result := mload(add(source, 32))\n        }\n    }\n\n    function addEns(string memory ensVal) public {\n        _tokenId2Ens[_tokenId++] = stringToBytes32(ensVal);\n    }\n\n    function tokenURI(uint256 tokenId) override public view returns (string memory) {\n\n        string memory output = \"\";\n        output = string(abi.encodePacked(output, '<svg xmlns=\"http://www.w3.org/2000/svg\" preserveAspectRatio=\"xMinYMin meet\" viewBox=\"0 0 2000 2000\">'));\n\t\toutput = string(abi.encodePacked(output, '<style>.baseWhite { fill: white; font-family: serif; font-size: 10px; }'));\n\t\toutput = string(abi.encodePacked(output, '.baseGreen { fill: springgreen; font-family: serif; font-size: 10px; }</style>'));\n\t\toutput = string(abi.encodePacked(output, '<rect width=\"100%\" height=\"100%\" fill=\"white\" />'));\n\n        for(uint256 i = 0; i < 10; ++i)\n        {\n            output = string(abi.encodePacked(output, '<text x=\"'));\n            output = string(abi.encodePacked(output, Strings.toString((i%8)*250)));\n            output = string(abi.encodePacked(output, '\" y=\"'));\n            output = string(abi.encodePacked(output, Strings.toString(((i/100)+1)*20)));\n            output = string(abi.encodePacked(output, '\" class=\"BaseGreen\">'));\n            //output = string(abi.encodePacked(output, _tokenId2Ens[i]));\n            output = string(abi.encodePacked(output, \"srikumar.eth\"));\n            output = string(abi.encodePacked(output, '</text>'));\n        }\n        output = string(abi.encodePacked(output, '</svg>'));\n\n        string memory json = Base64.encode(bytes(string(abi.encodePacked('{\"name\": \"Player #', Strings.toString(tokenId), '\", \"description\": \"Test5\", \"image\": \"data:image/svg+xml;base64,', Base64.encode(bytes(output)), '\"}'))));\n        output = string(abi.encodePacked('data:application/json;base64,', json));\n\n        return output;\n    }\n\n    function mintPlayer(uint256 tokenId) public nonReentrant onlyOwner {\n        require(tokenId > 0 && tokenId < 10000, \"Token ID invalid\");\n        _safeMint(owner(), tokenId);\n    }\n}\n",
  "sourcePath": "/Users/phanimukkamala/Documents/solidity/fcc-dapp/src/contracts/Ens5000.sol",
  "compiler": {
    "name": "solc",
    "version": "0.8.7+commit.e28d00a7.Emscripten.clang"
  },
  "schemaVersion": "3.4.3",
  "updatedAt": "2021-12-29T10:42:12.214Z",
  "devdoc": {
    "kind": "dev",
    "methods": {
      "approve(address,uint256)": {
        "details": "See {IERC721-approve}."
      },
      "balanceOf(address)": {
        "details": "See {IERC721-balanceOf}."
      },
      "getApproved(uint256)": {
        "details": "See {IERC721-getApproved}."
      },
      "isApprovedForAll(address,address)": {
        "details": "See {IERC721-isApprovedForAll}."
      },
      "name()": {
        "details": "See {IERC721Metadata-name}."
      },
      "owner()": {
        "details": "Returns the address of the current owner."
      },
      "ownerOf(uint256)": {
        "details": "See {IERC721-ownerOf}."
      },
      "renounceOwnership()": {
        "details": "Leaves the contract without owner. It will not be possible to call `onlyOwner` functions anymore. Can only be called by the current owner. NOTE: Renouncing ownership will leave the contract without an owner, thereby removing any functionality that is only available to the owner."
      },
      "safeTransferFrom(address,address,uint256)": {
        "details": "See {IERC721-safeTransferFrom}."
      },
      "safeTransferFrom(address,address,uint256,bytes)": {
        "details": "See {IERC721-safeTransferFrom}."
      },
      "setApprovalForAll(address,bool)": {
        "details": "See {IERC721-setApprovalForAll}."
      },
      "supportsInterface(bytes4)": {
        "details": "See {IERC165-supportsInterface}."
      },
      "symbol()": {
        "details": "See {IERC721Metadata-symbol}."
      },
      "tokenByIndex(uint256)": {
        "details": "See {IERC721Enumerable-tokenByIndex}."
      },
      "tokenOfOwnerByIndex(address,uint256)": {
        "details": "See {IERC721Enumerable-tokenOfOwnerByIndex}."
      },
      "tokenURI(uint256)": {
        "details": "See {IERC721Metadata-tokenURI}."
      },
      "totalSupply()": {
        "details": "See {IERC721Enumerable-totalSupply}."
      },
      "transferFrom(address,address,uint256)": {
        "details": "See {IERC721-transferFrom}."
      },
      "transferOwnership(address)": {
        "details": "Transfers ownership of the contract to a new account (`newOwner`). Can only be called by the current owner."
      }
    },
    "version": 1
  },
  "userdoc": {
    "kind": "user",
    "methods": {},
    "version": 1
  }
}