{
  "contractName": "Tori",
  "abi": [
    {
      "inputs": [],
      "stateMutability": "nonpayable",
      "type": "constructor"
    },
    {
      "anonymous": false,
      "inputs": [
        {
          "indexed": true,
          "internalType": "address",
          "name": "owner",
          "type": "address"
        },
        {
          "indexed": true,
          "internalType": "address",
          "name": "spender",
          "type": "address"
        },
        {
          "indexed": false,
          "internalType": "uint256",
          "name": "value",
          "type": "uint256"
        }
      ],
      "name": "Approval",
      "type": "event"
    },
    {
      "anonymous": false,
      "inputs": [
        {
          "indexed": true,
          "internalType": "address",
          "name": "previousOwner",
          "type": "address"
        },
        {
          "indexed": true,
          "internalType": "address",
          "name": "newOwner",
          "type": "address"
        }
      ],
      "name": "OwnershipTransferred",
      "type": "event"
    },
    {
      "anonymous": false,
      "inputs": [
        {
          "indexed": true,
          "internalType": "address",
          "name": "from",
          "type": "address"
        },
        {
          "indexed": true,
          "internalType": "address",
          "name": "to",
          "type": "address"
        },
        {
          "indexed": false,
          "internalType": "uint256",
          "name": "value",
          "type": "uint256"
        }
      ],
      "name": "Transfer",
      "type": "event"
    },
    {
      "inputs": [],
      "name": "_mintSupply",
      "outputs": [
        {
          "internalType": "uint256",
          "name": "",
          "type": "uint256"
        }
      ],
      "stateMutability": "view",
      "type": "function"
    },
    {
      "inputs": [
        {
          "internalType": "address",
          "name": "owner",
          "type": "address"
        },
        {
          "internalType": "address",
          "name": "spender",
          "type": "address"
        }
      ],
      "name": "allowance",
      "outputs": [
        {
          "internalType": "uint256",
          "name": "",
          "type": "uint256"
        }
      ],
      "stateMutability": "view",
      "type": "function"
    },
    {
      "inputs": [
        {
          "internalType": "address",
          "name": "spender",
          "type": "address"
        },
        {
          "internalType": "uint256",
          "name": "amount",
          "type": "uint256"
        }
      ],
      "name": "approve",
      "outputs": [
        {
          "internalType": "bool",
          "name": "",
          "type": "bool"
        }
      ],
      "stateMutability": "nonpayable",
      "type": "function"
    },
    {
      "inputs": [
        {
          "internalType": "address",
          "name": "account",
          "type": "address"
        }
      ],
      "name": "balanceOf",
      "outputs": [
        {
          "internalType": "uint256",
          "name": "",
          "type": "uint256"
        }
      ],
      "stateMutability": "view",
      "type": "function"
    },
    {
      "inputs": [],
      "name": "decimals",
      "outputs": [
        {
          "internalType": "uint8",
          "name": "",
          "type": "uint8"
        }
      ],
      "stateMutability": "view",
      "type": "function"
    },
    {
      "inputs": [],
      "name": "name",
      "outputs": [
        {
          "internalType": "string",
          "name": "",
          "type": "string"
        }
      ],
      "stateMutability": "view",
      "type": "function"
    },
    {
      "inputs": [],
      "name": "owner",
      "outputs": [
        {
          "internalType": "address",
          "name": "",
          "type": "address"
        }
      ],
      "stateMutability": "view",
      "type": "function"
    },
    {
      "inputs": [],
      "name": "renounceOwnership",
      "outputs": [],
      "stateMutability": "nonpayable",
      "type": "function"
    },
    {
      "inputs": [],
      "name": "symbol",
      "outputs": [
        {
          "internalType": "string",
          "name": "",
          "type": "string"
        }
      ],
      "stateMutability": "view",
      "type": "function"
    },
    {
      "inputs": [],
      "name": "totalSupply",
      "outputs": [
        {
          "internalType": "uint256",
          "name": "",
          "type": "uint256"
        }
      ],
      "stateMutability": "view",
      "type": "function"
    },
    {
      "inputs": [
        {
          "internalType": "address",
          "name": "recipient",
          "type": "address"
        },
        {
          "internalType": "uint256",
          "name": "amount",
          "type": "uint256"
        }
      ],
      "name": "transfer",
      "outputs": [
        {
          "internalType": "bool",
          "name": "",
          "type": "bool"
        }
      ],
      "stateMutability": "nonpayable",
      "type": "function"
    },
    {
      "inputs": [
        {
          "internalType": "address",
          "name": "sender",
          "type": "address"
        },
        {
          "internalType": "address",
          "name": "recipient",
          "type": "address"
        },
        {
          "internalType": "uint256",
          "name": "amount",
          "type": "uint256"
        }
      ],
      "name": "transferFrom",
      "outputs": [
        {
          "internalType": "bool",
          "name": "",
          "type": "bool"
        }
      ],
      "stateMutability": "nonpayable",
      "type": "function"
    },
    {
      "inputs": [
        {
          "internalType": "address",
          "name": "newOwner",
          "type": "address"
        }
      ],
      "name": "transferOwnership",
      "outputs": [],
      "stateMutability": "nonpayable",
      "type": "function"
    },
    {
      "inputs": [],
      "name": "mintCoin",
      "outputs": [],
      "stateMutability": "nonpayable",
      "type": "function"
    },
    {
      "inputs": [
        {
          "internalType": "uint256",
          "name": "amount",
          "type": "uint256"
        }
      ],
      "name": "ownerMintCoin",
      "outputs": [],
      "stateMutability": "nonpayable",
      "type": "function"
    }
  ],
  "bytecode": "0x608060405260006006553480156200001657600080fd5b506040518060400160405280600481526020017f546f7269000000000000000000000000000000000000000000000000000000008152506040518060400160405280600481526020017f544f524900000000000000000000000000000000000000000000000000000000815250620000a362000097620000dd60201b60201c565b620000e560201b60201c565b8160049080519060200190620000bb929190620001a9565b508060059080519060200190620000d4929190620001a9565b505050620002be565b600033905090565b60008060009054906101000a900473ffffffffffffffffffffffffffffffffffffffff169050816000806101000a81548173ffffffffffffffffffffffffffffffffffffffff021916908373ffffffffffffffffffffffffffffffffffffffff1602179055508173ffffffffffffffffffffffffffffffffffffffff168173ffffffffffffffffffffffffffffffffffffffff167f8be0079c531659141344cd1fd0a4f28419497f9722a3daafe3b4186f6b6457e060405160405180910390a35050565b828054620001b79062000259565b90600052602060002090601f016020900481019282620001db576000855562000227565b82601f10620001f657805160ff191683800117855562000227565b8280016001018555821562000227579182015b828111156200022657825182559160200191906001019062000209565b5b5090506200023691906200023a565b5090565b5b80821115620002555760008160009055506001016200023b565b5090565b600060028204905060018216806200027257607f821691505b602082108114156200028957620002886200028f565b5b50919050565b7f4e487b7100000000000000000000000000000000000000000000000000000000600052602260045260246000fd5b611a5580620002ce6000396000f3fe608060405234801561001057600080fd5b50600436106100f55760003560e01c80636fdfe4561161009757806395d89b411161006657806395d89b4114610250578063a9059cbb1461026e578063dd62ed3e1461029e578063f2fde38b146102ce576100f5565b80636fdfe456146101ee57806370a08231146101f8578063715018a6146102285780638da5cb5b14610232576100f5565b80631b2119b8116100d35780631b2119b81461016657806323b872dd146101845780632b24b3bc146101b4578063313ce567146101d0576100f5565b806306fdde03146100fa578063095ea7b31461011857806318160ddd14610148575b600080fd5b6101026102ea565b60405161010f91906113cc565b60405180910390f35b610132600480360381019061012d9190611133565b61037c565b60405161013f91906113b1565b60405180910390f35b61015061039a565b60405161015d919061154e565b60405180910390f35b61016e6103a4565b60405161017b919061154e565b60405180910390f35b61019e600480360381019061019991906110e0565b6103aa565b6040516101ab91906113b1565b60405180910390f35b6101ce60048036038101906101c99190611173565b6104a2565b005b6101d861057f565b6040516101e59190611569565b60405180910390f35b6101f6610584565b005b610212600480360381019061020d9190611073565b61069a565b60405161021f919061154e565b60405180910390f35b6102306106e3565b005b61023a61076b565b6040516102479190611396565b60405180910390f35b610258610794565b60405161026591906113cc565b60405180910390f35b61028860048036038101906102839190611133565b610826565b60405161029591906113b1565b60405180910390f35b6102b860048036038101906102b391906110a0565b610844565b6040516102c5919061154e565b60405180910390f35b6102e860048036038101906102e39190611073565b6108cb565b005b6060600480546102f99061167e565b80601f01602080910402602001604051908101604052809291908181526020018280546103259061167e565b80156103725780601f1061034757610100808354040283529160200191610372565b820191906000526020600020905b81548152906001019060200180831161035557829003601f168201915b5050505050905090565b60006103906103896109c3565b84846109cb565b6001905092915050565b6000600354905090565b60065481565b60006103b7848484610b96565b6000600260008673ffffffffffffffffffffffffffffffffffffffff1673ffffffffffffffffffffffffffffffffffffffff16815260200190815260200160002060006104026109c3565b73ffffffffffffffffffffffffffffffffffffffff1673ffffffffffffffffffffffffffffffffffffffff16815260200190815260200160002054905082811015610482576040517f08c379a00000000000000000000000000000000000000000000000000000000081526004016104799061148e565b60405180910390fd5b6104968561048e6109c3565b8584036109cb565b60019150509392505050565b6104aa6109c3565b73ffffffffffffffffffffffffffffffffffffffff166104c861076b565b73ffffffffffffffffffffffffffffffffffffffff161461051e576040517f08c379a0000000000000000000000000000000000000000000000000000000008152600401610515906114ae565b60405180910390fd5b633b9aca0061052b61039a565b1061056b576040517f08c379a00000000000000000000000000000000000000000000000000000000081526004016105629061146e565b60405180910390fd5b61057c6105766109c3565b82610e1a565b50565b600090565b633b9aca0061059161039a565b11156105d2576040517f08c379a00000000000000000000000000000000000000000000000000000000081526004016105c99061146e565b60405180910390fd5b620f4240600654111561061a576040517f08c379a00000000000000000000000000000000000000000000000000000000081526004016106119061146e565b60405180910390fd5b600061062c6106276109c3565b61069a565b1461066c576040517f08c379a00000000000000000000000000000000000000000000000000000000081526004016106639061150e565b60405180910390fd5b61067e6106776109c3565b6064610e1a565b60646006600082825461069191906115a0565b92505081905550565b6000600160008373ffffffffffffffffffffffffffffffffffffffff1673ffffffffffffffffffffffffffffffffffffffff168152602001908152602001600020549050919050565b6106eb6109c3565b73ffffffffffffffffffffffffffffffffffffffff1661070961076b565b73ffffffffffffffffffffffffffffffffffffffff161461075f576040517f08c379a0000000000000000000000000000000000000000000000000000000008152600401610756906114ae565b60405180910390fd5b6107696000610f7b565b565b60008060009054906101000a900473ffffffffffffffffffffffffffffffffffffffff16905090565b6060600580546107a39061167e565b80601f01602080910402602001604051908101604052809291908181526020018280546107cf9061167e565b801561081c5780601f106107f15761010080835404028352916020019161081c565b820191906000526020600020905b8154815290600101906020018083116107ff57829003601f168201915b5050505050905090565b600061083a6108336109c3565b8484610b96565b6001905092915050565b6000600260008473ffffffffffffffffffffffffffffffffffffffff1673ffffffffffffffffffffffffffffffffffffffff16815260200190815260200160002060008373ffffffffffffffffffffffffffffffffffffffff1673ffffffffffffffffffffffffffffffffffffffff16815260200190815260200160002054905092915050565b6108d36109c3565b73ffffffffffffffffffffffffffffffffffffffff166108f161076b565b73ffffffffffffffffffffffffffffffffffffffff1614610947576040517f08c379a000000000000000000000000000000000000000000000000000000000815260040161093e906114ae565b60405180910390fd5b600073ffffffffffffffffffffffffffffffffffffffff168173ffffffffffffffffffffffffffffffffffffffff1614156109b7576040517f08c379a00000000000000000000000000000000000000000000000000000000081526004016109ae9061140e565b60405180910390fd5b6109c081610f7b565b50565b600033905090565b600073ffffffffffffffffffffffffffffffffffffffff168373ffffffffffffffffffffffffffffffffffffffff161415610a3b576040517f08c379a0000000000000000000000000000000000000000000000000000000008152600401610a32906114ee565b60405180910390fd5b600073ffffffffffffffffffffffffffffffffffffffff168273ffffffffffffffffffffffffffffffffffffffff161415610aab576040517f08c379a0000000000000000000000000000000000000000000000000000000008152600401610aa29061142e565b60405180910390fd5b80600260008573ffffffffffffffffffffffffffffffffffffffff1673ffffffffffffffffffffffffffffffffffffffff16815260200190815260200160002060008473ffffffffffffffffffffffffffffffffffffffff1673ffffffffffffffffffffffffffffffffffffffff168152602001908152602001600020819055508173ffffffffffffffffffffffffffffffffffffffff168373ffffffffffffffffffffffffffffffffffffffff167f8c5be1e5ebec7d5bd14f71427d1e84f3dd0314c0f7b2291e5b200ac8c7c3b92583604051610b89919061154e565b60405180910390a3505050565b600073ffffffffffffffffffffffffffffffffffffffff168373ffffffffffffffffffffffffffffffffffffffff161415610c06576040517f08c379a0000000000000000000000000000000000000000000000000000000008152600401610bfd906114ce565b60405180910390fd5b600073ffffffffffffffffffffffffffffffffffffffff168273ffffffffffffffffffffffffffffffffffffffff161415610c76576040517f08c379a0000000000000000000000000000000000000000000000000000000008152600401610c6d906113ee565b60405180910390fd5b610c8183838361103f565b6000600160008573ffffffffffffffffffffffffffffffffffffffff1673ffffffffffffffffffffffffffffffffffffffff16815260200190815260200160002054905081811015610d08576040517f08c379a0000000000000000000000000000000000000000000000000000000008152600401610cff9061144e565b60405180910390fd5b818103600160008673ffffffffffffffffffffffffffffffffffffffff1673ffffffffffffffffffffffffffffffffffffffff1681526020019081526020016000208190555081600160008573ffffffffffffffffffffffffffffffffffffffff1673ffffffffffffffffffffffffffffffffffffffff1681526020019081526020016000206000828254610d9d91906115a0565b925050819055508273ffffffffffffffffffffffffffffffffffffffff168473ffffffffffffffffffffffffffffffffffffffff167fddf252ad1be2c89b69c2b068fc378daa952ba7f163c4a11628f55a4df523b3ef84604051610e01919061154e565b60405180910390a3610e14848484611044565b50505050565b600073ffffffffffffffffffffffffffffffffffffffff168273ffffffffffffffffffffffffffffffffffffffff161415610e8a576040517f08c379a0000000000000000000000000000000000000000000000000000000008152600401610e819061152e565b60405180910390fd5b610e966000838361103f565b8060036000828254610ea891906115a0565b9250508190555080600160008473ffffffffffffffffffffffffffffffffffffffff1673ffffffffffffffffffffffffffffffffffffffff1681526020019081526020016000206000828254610efe91906115a0565b925050819055508173ffffffffffffffffffffffffffffffffffffffff16600073ffffffffffffffffffffffffffffffffffffffff167fddf252ad1be2c89b69c2b068fc378daa952ba7f163c4a11628f55a4df523b3ef83604051610f63919061154e565b60405180910390a3610f7760008383611044565b5050565b60008060009054906101000a900473ffffffffffffffffffffffffffffffffffffffff169050816000806101000a81548173ffffffffffffffffffffffffffffffffffffffff021916908373ffffffffffffffffffffffffffffffffffffffff1602179055508173ffffffffffffffffffffffffffffffffffffffff168173ffffffffffffffffffffffffffffffffffffffff167f8be0079c531659141344cd1fd0a4f28419497f9722a3daafe3b4186f6b6457e060405160405180910390a35050565b505050565b505050565b600081359050611058816119f1565b92915050565b60008135905061106d81611a08565b92915050565b6000602082840312156110895761108861170e565b5b600061109784828501611049565b91505092915050565b600080604083850312156110b7576110b661170e565b5b60006110c585828601611049565b92505060206110d685828601611049565b9150509250929050565b6000806000606084860312156110f9576110f861170e565b5b600061110786828701611049565b935050602061111886828701611049565b92505060406111298682870161105e565b9150509250925092565b6000806040838503121561114a5761114961170e565b5b600061115885828601611049565b92505060206111698582860161105e565b9150509250929050565b6000602082840312156111895761118861170e565b5b60006111978482850161105e565b91505092915050565b6111a9816115f6565b82525050565b6111b881611608565b82525050565b60006111c982611584565b6111d3818561158f565b93506111e381856020860161164b565b6111ec81611713565b840191505092915050565b600061120460238361158f565b915061120f82611724565b604082019050919050565b600061122760268361158f565b915061123282611773565b604082019050919050565b600061124a60228361158f565b9150611255826117c2565b604082019050919050565b600061126d60268361158f565b915061127882611811565b604082019050919050565b600061129060118361158f565b915061129b82611860565b602082019050919050565b60006112b360288361158f565b91506112be82611889565b604082019050919050565b60006112d660208361158f565b91506112e1826118d8565b602082019050919050565b60006112f960258361158f565b915061130482611901565b604082019050919050565b600061131c60248361158f565b915061132782611950565b604082019050919050565b600061133f60198361158f565b915061134a8261199f565b602082019050919050565b6000611362601f8361158f565b915061136d826119c8565b602082019050919050565b61138181611634565b82525050565b6113908161163e565b82525050565b60006020820190506113ab60008301846111a0565b92915050565b60006020820190506113c660008301846111af565b92915050565b600060208201905081810360008301526113e681846111be565b905092915050565b60006020820190508181036000830152611407816111f7565b9050919050565b600060208201905081810360008301526114278161121a565b9050919050565b600060208201905081810360008301526114478161123d565b9050919050565b6000602082019050818103600083015261146781611260565b9050919050565b6000602082019050818103600083015261148781611283565b9050919050565b600060208201905081810360008301526114a7816112a6565b9050919050565b600060208201905081810360008301526114c7816112c9565b9050919050565b600060208201905081810360008301526114e7816112ec565b9050919050565b600060208201905081810360008301526115078161130f565b9050919050565b6000602082019050818103600083015261152781611332565b9050919050565b6000602082019050818103600083015261154781611355565b9050919050565b60006020820190506115636000830184611378565b92915050565b600060208201905061157e6000830184611387565b92915050565b600081519050919050565b600082825260208201905092915050565b60006115ab82611634565b91506115b683611634565b9250827fffffffffffffffffffffffffffffffffffffffffffffffffffffffffffffffff038211156115eb576115ea6116b0565b5b828201905092915050565b600061160182611614565b9050919050565b60008115159050919050565b600073ffffffffffffffffffffffffffffffffffffffff82169050919050565b6000819050919050565b600060ff82169050919050565b60005b8381101561166957808201518184015260208101905061164e565b83811115611678576000848401525b50505050565b6000600282049050600182168061169657607f821691505b602082108114156116aa576116a96116df565b5b50919050565b7f4e487b7100000000000000000000000000000000000000000000000000000000600052601160045260246000fd5b7f4e487b7100000000000000000000000000000000000000000000000000000000600052602260045260246000fd5b600080fd5b6000601f19601f8301169050919050565b7f45524332303a207472616e7366657220746f20746865207a65726f206164647260008201527f6573730000000000000000000000000000000000000000000000000000000000602082015250565b7f4f776e61626c653a206e6577206f776e657220697320746865207a65726f206160008201527f6464726573730000000000000000000000000000000000000000000000000000602082015250565b7f45524332303a20617070726f766520746f20746865207a65726f20616464726560008201527f7373000000000000000000000000000000000000000000000000000000000000602082015250565b7f45524332303a207472616e7366657220616d6f756e742065786365656473206260008201527f616c616e63650000000000000000000000000000000000000000000000000000602082015250565b7f63616e6e6f74206d696e7420636f696e73000000000000000000000000000000600082015250565b7f45524332303a207472616e7366657220616d6f756e742065786365656473206160008201527f6c6c6f77616e6365000000000000000000000000000000000000000000000000602082015250565b7f4f776e61626c653a2063616c6c6572206973206e6f7420746865206f776e6572600082015250565b7f45524332303a207472616e736665722066726f6d20746865207a65726f20616460008201527f6472657373000000000000000000000000000000000000000000000000000000602082015250565b7f45524332303a20617070726f76652066726f6d20746865207a65726f2061646460008201527f7265737300000000000000000000000000000000000000000000000000000000602082015250565b7f616464726573732063616e6e6f74206d696e7420636f696e7300000000000000600082015250565b7f45524332303a206d696e7420746f20746865207a65726f206164647265737300600082015250565b6119fa816115f6565b8114611a0557600080fd5b50565b611a1181611634565b8114611a1c57600080fd5b5056fea2646970667358221220f021d96ae16e93b4a0c3054cee67e9c4488062ffc7c869455a693668cc3173b564736f6c63430008070033",
  "immutableReferences": {},
  "source": "// SPDX-License-Identifier: MIT \n\npragma solidity ^0.8.0;\n\nimport \"./FullERC20.sol\";\n\ncontract Tori is ERC20 {\n\n    constructor() ERC20(\"Tori\", \"TORI\") {\n    }   \n\n    uint256 private constant MAX_SUPPLY = 1000 * 1000 * 1000;    //1 billion\n    uint256 private constant MAX_MINT_SUPPLY = 1000 * 1000;      //1 million\n    uint256 public _mintSupply = 0;\n\n    function mintCoin() external {\n        require(totalSupply() <= MAX_SUPPLY, \"cannot mint coins\");\n        require(_mintSupply <= MAX_MINT_SUPPLY, \"cannot mint coins\");\n        require(balanceOf(_msgSender()) == 0, \"address cannot mint coins\");\n        _mint(_msgSender(), 100);\n        _mintSupply += 100;\n    }   \n\n    //for game contracts\n    function ownerMintCoin(uint256 amount) external onlyOwner {\n        require(totalSupply() < MAX_SUPPLY, \"cannot mint coins\");\n        _mint(_msgSender(), amount);\n    }   \n}\n",
  "sourcePath": "/home/ec2-user/github/nftlaunchpad-dapp/src/contracts/Tori.sol",
  "compiler": {
    "name": "solc",
    "version": "0.8.7+commit.e28d00a7.Emscripten.clang"
  },
  "schemaVersion": "3.4.3",
  "updatedAt": "2022-01-21T01:17:23.359Z",
  "devdoc": {
    "kind": "dev",
    "methods": {
      "allowance(address,address)": {
        "details": "See {IERC20-allowance}."
      },
      "approve(address,uint256)": {
        "details": "See {IERC20-approve}. Requirements: - `spender` cannot be the zero address."
      },
      "balanceOf(address)": {
        "details": "See {IERC20-balanceOf}."
      },
      "decimals()": {
        "details": "Returns the number of decimals used to get its user representation. For example, if `decimals` equals `2`, a balance of `505` tokens should be displayed to a user as `5.05` (`505 / 10 ** 2`). Tokens usually opt for a value of 18, imitating the relationship between Ether and Wei. This is the value {ERC20} uses, unless this function is overridden; NOTE: This information is only used for _display_ purposes: it in no way affects any of the arithmetic of the contract, including {IERC20-balanceOf} and {IERC20-transfer}."
      },
      "name()": {
        "details": "Returns the name of the token."
      },
      "owner()": {
        "details": "Returns the address of the current owner."
      },
      "renounceOwnership()": {
        "details": "Leaves the contract without owner. It will not be possible to call `onlyOwner` functions anymore. Can only be called by the current owner. NOTE: Renouncing ownership will leave the contract without an owner, thereby removing any functionality that is only available to the owner."
      },
      "symbol()": {
        "details": "Returns the symbol of the token, usually a shorter version of the name."
      },
      "totalSupply()": {
        "details": "See {IERC20-totalSupply}."
      },
      "transfer(address,uint256)": {
        "details": "See {IERC20-transfer}. Requirements: - `recipient` cannot be the zero address. - the caller must have a balance of at least `amount`."
      },
      "transferFrom(address,address,uint256)": {
        "details": "See {IERC20-transferFrom}. Emits an {Approval} event indicating the updated allowance. This is not required by the EIP. See the note at the beginning of {ERC20}. Requirements: - `sender` and `recipient` cannot be the zero address. - `sender` must have a balance of at least `amount`. - the caller must have allowance for ``sender``'s tokens of at least `amount`."
      },
      "transferOwnership(address)": {
        "details": "Transfers ownership of the contract to a new account (`newOwner`). Can only be called by the current owner."
      }
    },
    "version": 1
  },
  "userdoc": {
    "kind": "user",
    "methods": {},
    "version": 1
  }
}